{
	"data": {
		"bytecode": {
			"linkReferences": {},
			"object": "60806040523480156200001157600080fd5b50604051620045e7380380620045e783398181016040528101906200003791906200027e565b828281600090816200004a919062000559565b5080600190816200005c919062000559565b50505033600760006101000a81548173ffffffffffffffffffffffffffffffffffffffff021916908373ffffffffffffffffffffffffffffffffffffffff1602179055508060088190555050505062000640565b6000604051905090565b600080fd5b600080fd5b600080fd5b600080fd5b6000601f19601f8301169050919050565b7f4e487b7100000000000000000000000000000000000000000000000000000000600052604160045260246000fd5b6200011982620000ce565b810181811067ffffffffffffffff821117156200013b576200013a620000df565b5b80604052505050565b600062000150620000b0565b90506200015e82826200010e565b919050565b600067ffffffffffffffff821115620001815762000180620000df565b5b6200018c82620000ce565b9050602081019050919050565b60005b83811015620001b95780820151818401526020810190506200019c565b60008484015250505050565b6000620001dc620001d68462000163565b62000144565b905082815260208101848484011115620001fb57620001fa620000c9565b5b6200020884828562000199565b509392505050565b600082601f830112620002285762000227620000c4565b5b81516200023a848260208601620001c5565b91505092915050565b6000819050919050565b620002588162000243565b81146200026457600080fd5b50565b60008151905062000278816200024d565b92915050565b6000806000606084860312156200029a5762000299620000ba565b5b600084015167ffffffffffffffff811115620002bb57620002ba620000bf565b5b620002c98682870162000210565b935050602084015167ffffffffffffffff811115620002ed57620002ec620000bf565b5b620002fb8682870162000210565b92505060406200030e8682870162000267565b9150509250925092565b600081519050919050565b7f4e487b7100000000000000000000000000000000000000000000000000000000600052602260045260246000fd5b600060028204905060018216806200036b57607f821691505b60208210810362000381576200038062000323565b5b50919050565b60008190508160005260206000209050919050565b60006020601f8301049050919050565b600082821b905092915050565b600060088302620003eb7fffffffffffffffffffffffffffffffffffffffffffffffffffffffffffffffff82620003ac565b620003f78683620003ac565b95508019841693508086168417925050509392505050565b6000819050919050565b60006200043a620004346200042e8462000243565b6200040f565b62000243565b9050919050565b6000819050919050565b620004568362000419565b6200046e620004658262000441565b848454620003b9565b825550505050565b600090565b6200048562000476565b620004928184846200044b565b505050565b5b81811015620004ba57620004ae6000826200047b565b60018101905062000498565b5050565b601f8211156200050957620004d38162000387565b620004de846200039c565b81016020851015620004ee578190505b62000506620004fd856200039c565b83018262000497565b50505b505050565b600082821c905092915050565b60006200052e600019846008026200050e565b1980831691505092915050565b60006200054983836200051b565b9150826002028217905092915050565b620005648262000318565b67ffffffffffffffff81111562000580576200057f620000df565b5b6200058c825462000352565b62000599828285620004be565b600060209050601f831160018114620005d15760008415620005bc578287015190505b620005c885826200053b565b86555062000638565b601f198416620005e18662000387565b60005b828110156200060b57848901518255600182019150602085019450602081019050620005e4565b868310156200062b578489015162000627601f8916826200051b565b8355505b6001600288020188555050505b505050505050565b613f9780620006506000396000f3fe6080604052600436106101145760003560e01c80636352211e116100a0578063a22cb46511610064578063a22cb465146103a2578063b496c6c8146103cb578063b88d4fde146103f6578063c87b56dd1461041f578063e985e9c51461045c57610114565b80636352211e146102a75780636817c76c146102e457806370a082311461030f57806395d89b411461034c5780639d49d83d1461037757610114565b806323b872dd116100e757806323b872dd146101e757806342842e0e14610210578063451d410714610239578063479ad4c3146102625780634884f4591461028b57610114565b806301ffc9a71461011957806306fdde0314610156578063081812fc14610181578063095ea7b3146101be575b600080fd5b34801561012557600080fd5b50610140600480360381019061013b9190612763565b610499565b60405161014d91906127ab565b60405180910390f35b34801561016257600080fd5b5061016b61057b565b6040516101789190612856565b60405180910390f35b34801561018d57600080fd5b506101a860048036038101906101a391906128ae565b61060d565b6040516101b5919061291c565b60405180910390f35b3480156101ca57600080fd5b506101e560048036038101906101e09190612963565b610653565b005b3480156101f357600080fd5b5061020e600480360381019061020991906129a3565b61076a565b005b34801561021c57600080fd5b50610237600480360381019061023291906129a3565b6107ca565b005b34801561024557600080fd5b50610260600480360381019061025b9190612b2b565b6107ea565b005b34801561026e57600080fd5b50610289600480360381019061028491906128ae565b6109b6565b005b6102a560048036038101906102a091906128ae565b610aec565b005b3480156102b357600080fd5b506102ce60048036038101906102c991906128ae565b610ece565b6040516102db919061291c565b60405180910390f35b3480156102f057600080fd5b506102f9610f54565b6040516103069190612bf5565b60405180910390f35b34801561031b57600080fd5b5061033660048036038101906103319190612c10565b610f5a565b6040516103439190612bf5565b60405180910390f35b34801561035857600080fd5b50610361611011565b60405161036e9190612856565b60405180910390f35b34801561038357600080fd5b5061038c6110a3565b6040516103999190612bf5565b60405180910390f35b3480156103ae57600080fd5b506103c960048036038101906103c49190612c69565b6110a9565b005b3480156103d757600080fd5b506103e06110bf565b6040516103ed9190612ef4565b60405180910390f35b34801561040257600080fd5b5061041d60048036038101906104189190612fb7565b611491565b005b34801561042b57600080fd5b50610446600480360381019061044191906128ae565b6114f3565b6040516104539190612856565b60405180910390f35b34801561046857600080fd5b50610483600480360381019061047e919061303a565b611505565b60405161049091906127ab565b60405180910390f35b60007f80ac58cd000000000000000000000000000000000000000000000000000000007bffffffffffffffffffffffffffffffffffffffffffffffffffffffff1916827bffffffffffffffffffffffffffffffffffffffffffffffffffffffff1916148061056457507f5b5e139f000000000000000000000000000000000000000000000000000000007bffffffffffffffffffffffffffffffffffffffffffffffffffffffff1916827bffffffffffffffffffffffffffffffffffffffffffffffffffffffff1916145b80610574575061057382611599565b5b9050919050565b60606000805461058a906130a9565b80601f01602080910402602001604051908101604052809291908181526020018280546105b6906130a9565b80156106035780601f106105d857610100808354040283529160200191610603565b820191906000526020600020905b8154815290600101906020018083116105e657829003601f168201915b5050505050905090565b600061061882611603565b6004600083815260200190815260200160002060009054906101000a900473ffffffffffffffffffffffffffffffffffffffff169050919050565b600061065e82610ece565b90508073ffffffffffffffffffffffffffffffffffffffff168373ffffffffffffffffffffffffffffffffffffffff16036106ce576040517f08c379a00000000000000000000000000000000000000000000000000000000081526004016106c59061314c565b60405180910390fd5b8073ffffffffffffffffffffffffffffffffffffffff166106ed61164e565b73ffffffffffffffffffffffffffffffffffffffff16148061071c575061071b8161071661164e565b611505565b5b61075b576040517f08c379a0000000000000000000000000000000000000000000000000000000008152600401610752906131de565b60405180910390fd5b6107658383611656565b505050565b61077b61077561164e565b8261170f565b6107ba576040517f08c379a00000000000000000000000000000000000000000000000000000000081526004016107b190613270565b60405180910390fd5b6107c58383836117a4565b505050565b6107e583838360405180602001604052806000815250611491565b505050565b80600854811161082f576040517f08c379a000000000000000000000000000000000000000000000000000000000815260040161082690613302565b60405180910390fd5b6000600a6000600c5481526020019081526020016000209050600b600081548092919061085b90613351565b9190505550600c600081548092919061087390613351565b9190505550338160020160006101000a81548173ffffffffffffffffffffffffffffffffffffffff021916908373ffffffffffffffffffffffffffffffffffffffff160217905550858160030190816108cc9190613545565b50848160040190816108de9190613545565b50600854836108ed9190613617565b8160010181905550838160050190816109069190613545565b5060008160060160006101000a81548160ff0219169083600281111561092f5761092e612d3d565b5b02179055506001600c54610943919061364b565b816000018190555060006001600c5461095c919061364b565b9050803373ffffffffffffffffffffffffffffffffffffffff167f4a972da4c8e16848fe02227c8a46659ac44bd5f4d0ebcbbbec862e9f59cf1958426040516109a59190612bf5565b60405180910390a350505050505050565b6000600a600083815260200190815260200160002090503373ffffffffffffffffffffffffffffffffffffffff168160020160009054906101000a900473ffffffffffffffffffffffffffffffffffffffff1673ffffffffffffffffffffffffffffffffffffffff1614610a5f576040517f08c379a0000000000000000000000000000000000000000000000000000000008152600401610a5690613717565b60405180910390fd5b60028160060160006101000a81548160ff02191690836002811115610a8757610a86612d3d565b5b0217905550600b6000815480929190610a9f90613737565b9190505550813373ffffffffffffffffffffffffffffffffffffffff167f99238abf9afa251f2118bd3bb2835a4b03f61bbf8583c23f7bcc16495b38df9b60405160405180910390a35050565b80600c548110610b31576040517f08c379a0000000000000000000000000000000000000000000000000000000008152600401610b28906137d2565b60405180910390fd5b6000600a6000848152602001908152602001600020905060016002811115610b5c57610b5b612d3d565b5b8160060160009054906101000a900460ff166002811115610b8057610b7f612d3d565b5b14158015610bc35750600280811115610b9c57610b9b612d3d565b5b8160060160009054906101000a900460ff166002811115610bc057610bbf612d3d565b5b14155b610c02576040517f08c379a0000000000000000000000000000000000000000000000000000000008152600401610bf99061383e565b60405180910390fd5b3373ffffffffffffffffffffffffffffffffffffffff168160020160009054906101000a900473ffffffffffffffffffffffffffffffffffffffff1673ffffffffffffffffffffffffffffffffffffffff1603610c94576040517f08c379a0000000000000000000000000000000000000000000000000000000008152600401610c8b906138aa565b60405180910390fd5b346008548260010154610ca79190613617565b1115610ce8576040517f08c379a0000000000000000000000000000000000000000000000000000000008152600401610cdf90613916565b60405180910390fd5b6000610cf46009611a9d565b9050610d006009611aab565b610d0a3382611ac1565b610da081836005018054610d1d906130a9565b80601f0160208091040260200160405190810160405280929190818152602001828054610d49906130a9565b8015610d965780601f10610d6b57610100808354040283529160200191610d96565b820191906000526020600020905b815481529060010190602001808311610d7957829003601f168201915b5050505050611adf565b60008260020160009054906101000a900473ffffffffffffffffffffffffffffffffffffffff1690508073ffffffffffffffffffffffffffffffffffffffff166108fc60085434610df1919061364b565b9081150290604051600060405180830381858888f19350505050158015610e1c573d6000803e3d6000fd5b5060018360060160006101000a81548160ff02191690836002811115610e4557610e44612d3d565b5b0217905550600b6000815480929190610e5d90613737565b91905055508073ffffffffffffffffffffffffffffffffffffffff163373ffffffffffffffffffffffffffffffffffffffff167fbd2b54e1f85ae4601994a407fca72f7633b50c17d1839dcdfe07b652d76ef6d242604051610ebf9190612bf5565b60405180910390a35050505050565b600080610eda83611b4c565b9050600073ffffffffffffffffffffffffffffffffffffffff168173ffffffffffffffffffffffffffffffffffffffff1603610f4b576040517f08c379a0000000000000000000000000000000000000000000000000000000008152600401610f4290613982565b60405180910390fd5b80915050919050565b60085481565b60008073ffffffffffffffffffffffffffffffffffffffff168273ffffffffffffffffffffffffffffffffffffffff1603610fca576040517f08c379a0000000000000000000000000000000000000000000000000000000008152600401610fc190613a14565b60405180910390fd5b600360008373ffffffffffffffffffffffffffffffffffffffff1673ffffffffffffffffffffffffffffffffffffffff168152602001908152602001600020549050919050565b606060018054611020906130a9565b80601f016020809104026020016040519081016040528092919081815260200182805461104c906130a9565b80156110995780601f1061106e57610100808354040283529160200191611099565b820191906000526020600020905b81548152906001019060200180831161107c57829003601f168201915b5050505050905090565b600b5481565b6110bb6110b461164e565b8383611b89565b5050565b60606000600b5467ffffffffffffffff8111156110df576110de612a00565b5b60405190808252806020026020018201604052801561111857816020015b611105612692565b8152602001906001900390816110fd5790505b509050600080600c54905060005b81811015611487576001600281111561114257611141612d3d565b5b600a600083815260200190815260200160002060060160009054906101000a900460ff16600281111561117857611177612d3d565b5b14806111ca575060028081111561119257611191612d3d565b5b600a600083815260200190815260200160002060060160009054906101000a900460ff1660028111156111c8576111c7612d3d565b5b145b61147457600a60008281526020019081526020016000206040518060e001604052908160008201548152602001600182015481526020016002820160009054906101000a900473ffffffffffffffffffffffffffffffffffffffff1673ffffffffffffffffffffffffffffffffffffffff1673ffffffffffffffffffffffffffffffffffffffff168152602001600382018054611266906130a9565b80601f0160208091040260200160405190810160405280929190818152602001828054611292906130a9565b80156112df5780601f106112b4576101008083540402835291602001916112df565b820191906000526020600020905b8154815290600101906020018083116112c257829003601f168201915b505050505081526020016004820180546112f8906130a9565b80601f0160208091040260200160405190810160405280929190818152602001828054611324906130a9565b80156113715780601f1061134657610100808354040283529160200191611371565b820191906000526020600020905b81548152906001019060200180831161135457829003601f168201915b5050505050815260200160058201805461138a906130a9565b80601f01602080910402602001604051908101604052809291908181526020018280546113b6906130a9565b80156114035780601f106113d857610100808354040283529160200191611403565b820191906000526020600020905b8154815290600101906020018083116113e657829003601f168201915b505050505081526020016006820160009054906101000a900460ff16600281111561143157611430612d3d565b5b600281111561144357611442612d3d565b5b8152505084848151811061145a57611459613a34565b5b6020026020010181905250828061147090613351565b9350505b808061147f90613351565b915050611126565b5082935050505090565b6114a261149c61164e565b8361170f565b6114e1576040517f08c379a00000000000000000000000000000000000000000000000000000000081526004016114d890613270565b60405180910390fd5b6114ed84848484611cf5565b50505050565b60606114fe82611d51565b9050919050565b6000600560008473ffffffffffffffffffffffffffffffffffffffff1673ffffffffffffffffffffffffffffffffffffffff16815260200190815260200160002060008373ffffffffffffffffffffffffffffffffffffffff1673ffffffffffffffffffffffffffffffffffffffff16815260200190815260200160002060009054906101000a900460ff16905092915050565b60007f01ffc9a7000000000000000000000000000000000000000000000000000000007bffffffffffffffffffffffffffffffffffffffffffffffffffffffff1916827bffffffffffffffffffffffffffffffffffffffffffffffffffffffff1916149050919050565b61160c81611e63565b61164b576040517f08c379a000000000000000000000000000000000000000000000000000000000815260040161164290613982565b60405180910390fd5b50565b600033905090565b816004600083815260200190815260200160002060006101000a81548173ffffffffffffffffffffffffffffffffffffffff021916908373ffffffffffffffffffffffffffffffffffffffff160217905550808273ffffffffffffffffffffffffffffffffffffffff166116c983610ece565b73ffffffffffffffffffffffffffffffffffffffff167f8c5be1e5ebec7d5bd14f71427d1e84f3dd0314c0f7b2291e5b200ac8c7c3b92560405160405180910390a45050565b60008061171b83610ece565b90508073ffffffffffffffffffffffffffffffffffffffff168473ffffffffffffffffffffffffffffffffffffffff16148061175d575061175c8185611505565b5b8061179b57508373ffffffffffffffffffffffffffffffffffffffff166117838461060d565b73ffffffffffffffffffffffffffffffffffffffff16145b91505092915050565b8273ffffffffffffffffffffffffffffffffffffffff166117c482610ece565b73ffffffffffffffffffffffffffffffffffffffff161461181a576040517f08c379a000000000000000000000000000000000000000000000000000000000815260040161181190613ad5565b60405180910390fd5b600073ffffffffffffffffffffffffffffffffffffffff168273ffffffffffffffffffffffffffffffffffffffff1603611889576040517f08c379a000000000000000000000000000000000000000000000000000000000815260040161188090613b67565b60405180910390fd5b6118968383836001611ea4565b8273ffffffffffffffffffffffffffffffffffffffff166118b682610ece565b73ffffffffffffffffffffffffffffffffffffffff161461190c576040517f08c379a000000000000000000000000000000000000000000000000000000000815260040161190390613ad5565b60405180910390fd5b6004600082815260200190815260200160002060006101000a81549073ffffffffffffffffffffffffffffffffffffffff02191690556001600360008573ffffffffffffffffffffffffffffffffffffffff1673ffffffffffffffffffffffffffffffffffffffff168152602001908152602001600020600082825403925050819055506001600360008473ffffffffffffffffffffffffffffffffffffffff1673ffffffffffffffffffffffffffffffffffffffff16815260200190815260200160002060008282540192505081905550816002600083815260200190815260200160002060006101000a81548173ffffffffffffffffffffffffffffffffffffffff021916908373ffffffffffffffffffffffffffffffffffffffff160217905550808273ffffffffffffffffffffffffffffffffffffffff168473ffffffffffffffffffffffffffffffffffffffff167fddf252ad1be2c89b69c2b068fc378daa952ba7f163c4a11628f55a4df523b3ef60405160405180910390a4611a988383836001611fca565b505050565b600081600001549050919050565b6001816000016000828254019250508190555050565b611adb828260405180602001604052806000815250611fd0565b5050565b611ae882611e63565b611b27576040517f08c379a0000000000000000000000000000000000000000000000000000000008152600401611b1e90613bf9565b60405180910390fd5b80600660008481526020019081526020016000209081611b479190613545565b505050565b60006002600083815260200190815260200160002060009054906101000a900473ffffffffffffffffffffffffffffffffffffffff169050919050565b8173ffffffffffffffffffffffffffffffffffffffff168373ffffffffffffffffffffffffffffffffffffffff1603611bf7576040517f08c379a0000000000000000000000000000000000000000000000000000000008152600401611bee90613c65565b60405180910390fd5b80600560008573ffffffffffffffffffffffffffffffffffffffff1673ffffffffffffffffffffffffffffffffffffffff16815260200190815260200160002060008473ffffffffffffffffffffffffffffffffffffffff1673ffffffffffffffffffffffffffffffffffffffff16815260200190815260200160002060006101000a81548160ff0219169083151502179055508173ffffffffffffffffffffffffffffffffffffffff168373ffffffffffffffffffffffffffffffffffffffff167f17307eab39ab6107e8899845ad3d59bd9653f200f220920489ca2b5937696c3183604051611ce891906127ab565b60405180910390a3505050565b611d008484846117a4565b611d0c8484848461202b565b611d4b576040517f08c379a0000000000000000000000000000000000000000000000000000000008152600401611d4290613cf7565b60405180910390fd5b50505050565b6060611d5c82611603565b6000600660008481526020019081526020016000208054611d7c906130a9565b80601f0160208091040260200160405190810160405280929190818152602001828054611da8906130a9565b8015611df55780601f10611dca57610100808354040283529160200191611df5565b820191906000526020600020905b815481529060010190602001808311611dd857829003601f168201915b505050505090506000611e066121b2565b90506000815103611e1b578192505050611e5e565b600082511115611e50578082604051602001611e38929190613d53565b60405160208183030381529060405292505050611e5e565b611e59846121c9565b925050505b919050565b60008073ffffffffffffffffffffffffffffffffffffffff16611e8583611b4c565b73ffffffffffffffffffffffffffffffffffffffff1614159050919050565b6001811115611fc457600073ffffffffffffffffffffffffffffffffffffffff168473ffffffffffffffffffffffffffffffffffffffff1614611f385780600360008673ffffffffffffffffffffffffffffffffffffffff1673ffffffffffffffffffffffffffffffffffffffff1681526020019081526020016000206000828254611f30919061364b565b925050819055505b600073ffffffffffffffffffffffffffffffffffffffff168373ffffffffffffffffffffffffffffffffffffffff1614611fc35780600360008573ffffffffffffffffffffffffffffffffffffffff1673ffffffffffffffffffffffffffffffffffffffff1681526020019081526020016000206000828254611fbb9190613617565b925050819055505b5b50505050565b50505050565b611fda8383612231565b611fe7600084848461202b565b612026576040517f08c379a000000000000000000000000000000000000000000000000000000000815260040161201d90613cf7565b60405180910390fd5b505050565b600061204c8473ffffffffffffffffffffffffffffffffffffffff1661244e565b156121a5578373ffffffffffffffffffffffffffffffffffffffff1663150b7a0261207561164e565b8786866040518563ffffffff1660e01b81526004016120979493929190613dcc565b6020604051808303816000875af19250505080156120d357506040513d601f19601f820116820180604052508101906120d09190613e2d565b60015b612155573d8060008114612103576040519150601f19603f3d011682016040523d82523d6000602084013e612108565b606091505b50600081510361214d576040517f08c379a000000000000000000000000000000000000000000000000000000000815260040161214490613cf7565b60405180910390fd5b805181602001fd5b63150b7a0260e01b7bffffffffffffffffffffffffffffffffffffffffffffffffffffffff1916817bffffffffffffffffffffffffffffffffffffffffffffffffffffffff1916149150506121aa565b600190505b949350505050565b606060405180602001604052806000815250905090565b60606121d482611603565b60006121de6121b2565b905060008151116121fe5760405180602001604052806000815250612229565b8061220884612471565b604051602001612219929190613d53565b6040516020818303038152906040525b915050919050565b600073ffffffffffffffffffffffffffffffffffffffff168273ffffffffffffffffffffffffffffffffffffffff16036122a0576040517f08c379a000000000000000000000000000000000000000000000000000000000815260040161229790613ea6565b60405180910390fd5b6122a981611e63565b156122e9576040517f08c379a00000000000000000000000000000000000000000000000000000000081526004016122e090613f12565b60405180910390fd5b6122f7600083836001611ea4565b61230081611e63565b15612340576040517f08c379a000000000000000000000000000000000000000000000000000000000815260040161233790613f12565b60405180910390fd5b6001600360008473ffffffffffffffffffffffffffffffffffffffff1673ffffffffffffffffffffffffffffffffffffffff16815260200190815260200160002060008282540192505081905550816002600083815260200190815260200160002060006101000a81548173ffffffffffffffffffffffffffffffffffffffff021916908373ffffffffffffffffffffffffffffffffffffffff160217905550808273ffffffffffffffffffffffffffffffffffffffff16600073ffffffffffffffffffffffffffffffffffffffff167fddf252ad1be2c89b69c2b068fc378daa952ba7f163c4a11628f55a4df523b3ef60405160405180910390a461244a600083836001611fca565b5050565b6000808273ffffffffffffffffffffffffffffffffffffffff163b119050919050565b6060600060016124808461253f565b01905060008167ffffffffffffffff81111561249f5761249e612a00565b5b6040519080825280601f01601f1916602001820160405280156124d15781602001600182028036833780820191505090505b509050600082602001820190505b600115612534578080600190039150507f3031323334353637383961626364656600000000000000000000000000000000600a86061a8153600a858161252857612527613f32565b5b049450600085036124df575b819350505050919050565b600080600090507a184f03e93ff9f4daa797ed6e38ed64bf6a1f010000000000000000831061259d577a184f03e93ff9f4daa797ed6e38ed64bf6a1f010000000000000000838161259357612592613f32565b5b0492506040810190505b6d04ee2d6d415b85acef810000000083106125da576d04ee2d6d415b85acef810000000083816125d0576125cf613f32565b5b0492506020810190505b662386f26fc10000831061260957662386f26fc1000083816125ff576125fe613f32565b5b0492506010810190505b6305f5e1008310612632576305f5e100838161262857612627613f32565b5b0492506008810190505b612710831061265757612710838161264d5761264c613f32565b5b0492506004810190505b6064831061267a57606483816126705761266f613f32565b5b0492506002810190505b600a8310612689576001810190505b80915050919050565b6040518060e001604052806000815260200160008152602001600073ffffffffffffffffffffffffffffffffffffffff168152602001606081526020016060815260200160608152602001600060028111156126f1576126f0612d3d565b5b81525090565b6000604051905090565b600080fd5b600080fd5b60007fffffffff0000000000000000000000000000000000000000000000000000000082169050919050565b6127408161270b565b811461274b57600080fd5b50565b60008135905061275d81612737565b92915050565b60006020828403121561277957612778612701565b5b60006127878482850161274e565b91505092915050565b60008115159050919050565b6127a581612790565b82525050565b60006020820190506127c0600083018461279c565b92915050565b600081519050919050565b600082825260208201905092915050565b60005b838110156128005780820151818401526020810190506127e5565b60008484015250505050565b6000601f19601f8301169050919050565b6000612828826127c6565b61283281856127d1565b93506128428185602086016127e2565b61284b8161280c565b840191505092915050565b60006020820190508181036000830152612870818461281d565b905092915050565b6000819050919050565b61288b81612878565b811461289657600080fd5b50565b6000813590506128a881612882565b92915050565b6000602082840312156128c4576128c3612701565b5b60006128d284828501612899565b91505092915050565b600073ffffffffffffffffffffffffffffffffffffffff82169050919050565b6000612906826128db565b9050919050565b612916816128fb565b82525050565b6000602082019050612931600083018461290d565b92915050565b612940816128fb565b811461294b57600080fd5b50565b60008135905061295d81612937565b92915050565b6000806040838503121561297a57612979612701565b5b60006129888582860161294e565b925050602061299985828601612899565b9150509250929050565b6000806000606084860312156129bc576129bb612701565b5b60006129ca8682870161294e565b93505060206129db8682870161294e565b92505060406129ec86828701612899565b9150509250925092565b600080fd5b600080fd5b7f4e487b7100000000000000000000000000000000000000000000000000000000600052604160045260246000fd5b612a388261280c565b810181811067ffffffffffffffff82111715612a5757612a56612a00565b5b80604052505050565b6000612a6a6126f7565b9050612a768282612a2f565b919050565b600067ffffffffffffffff821115612a9657612a95612a00565b5b612a9f8261280c565b9050602081019050919050565b82818337600083830152505050565b6000612ace612ac984612a7b565b612a60565b905082815260208101848484011115612aea57612ae96129fb565b5b612af5848285612aac565b509392505050565b600082601f830112612b1257612b116129f6565b5b8135612b22848260208601612abb565b91505092915050565b60008060008060808587031215612b4557612b44612701565b5b600085013567ffffffffffffffff811115612b6357612b62612706565b5b612b6f87828801612afd565b945050602085013567ffffffffffffffff811115612b9057612b8f612706565b5b612b9c87828801612afd565b935050604085013567ffffffffffffffff811115612bbd57612bbc612706565b5b612bc987828801612afd565b9250506060612bda87828801612899565b91505092959194509250565b612bef81612878565b82525050565b6000602082019050612c0a6000830184612be6565b92915050565b600060208284031215612c2657612c25612701565b5b6000612c348482850161294e565b91505092915050565b612c4681612790565b8114612c5157600080fd5b50565b600081359050612c6381612c3d565b92915050565b60008060408385031215612c8057612c7f612701565b5b6000612c8e8582860161294e565b9250506020612c9f85828601612c54565b9150509250929050565b600081519050919050565b600082825260208201905092915050565b6000819050602082019050919050565b612cde81612878565b82525050565b612ced816128fb565b82525050565b600082825260208201905092915050565b6000612d0f826127c6565b612d198185612cf3565b9350612d298185602086016127e2565b612d328161280c565b840191505092915050565b7f4e487b7100000000000000000000000000000000000000000000000000000000600052602160045260246000fd5b60038110612d7d57612d7c612d3d565b5b50565b6000819050612d8e82612d6c565b919050565b6000612d9e82612d80565b9050919050565b612dae81612d93565b82525050565b600060e083016000830151612dcc6000860182612cd5565b506020830151612ddf6020860182612cd5565b506040830151612df26040860182612ce4565b5060608301518482036060860152612e0a8282612d04565b91505060808301518482036080860152612e248282612d04565b91505060a083015184820360a0860152612e3e8282612d04565b91505060c0830151612e5360c0860182612da5565b508091505092915050565b6000612e6a8383612db4565b905092915050565b6000602082019050919050565b6000612e8a82612ca9565b612e948185612cb4565b935083602082028501612ea685612cc5565b8060005b85811015612ee25784840389528151612ec38582612e5e565b9450612ece83612e72565b925060208a01995050600181019050612eaa565b50829750879550505050505092915050565b60006020820190508181036000830152612f0e8184612e7f565b905092915050565b600067ffffffffffffffff821115612f3157612f30612a00565b5b612f3a8261280c565b9050602081019050919050565b6000612f5a612f5584612f16565b612a60565b905082815260208101848484011115612f7657612f756129fb565b5b612f81848285612aac565b509392505050565b600082601f830112612f9e57612f9d6129f6565b5b8135612fae848260208601612f47565b91505092915050565b60008060008060808587031215612fd157612fd0612701565b5b6000612fdf8782880161294e565b9450506020612ff08782880161294e565b935050604061300187828801612899565b925050606085013567ffffffffffffffff81111561302257613021612706565b5b61302e87828801612f89565b91505092959194509250565b6000806040838503121561305157613050612701565b5b600061305f8582860161294e565b92505060206130708582860161294e565b9150509250929050565b7f4e487b7100000000000000000000000000000000000000000000000000000000600052602260045260246000fd5b600060028204905060018216806130c157607f821691505b6020821081036130d4576130d361307a565b5b50919050565b7f4552433732313a20617070726f76616c20746f2063757272656e74206f776e6560008201527f7200000000000000000000000000000000000000000000000000000000000000602082015250565b60006131366021836127d1565b9150613141826130da565b604082019050919050565b6000602082019050818103600083015261316581613129565b9050919050565b7f4552433732313a20617070726f76652063616c6c6572206973206e6f7420746f60008201527f6b656e206f776e6572206f7220617070726f76656420666f7220616c6c000000602082015250565b60006131c8603d836127d1565b91506131d38261316c565b604082019050919050565b600060208201905081810360008301526131f7816131bb565b9050919050565b7f4552433732313a2063616c6c6572206973206e6f7420746f6b656e206f776e6560008201527f72206f7220617070726f76656400000000000000000000000000000000000000602082015250565b600061325a602d836127d1565b9150613265826131fe565b604082019050919050565b600060208201905081810360008301526132898161324d565b9050919050565b7f6d696e696d756d2070726963652073686f756c6420626520677265617465722060008201527f7468616e206d696e742050726963650000000000000000000000000000000000602082015250565b60006132ec602f836127d1565b91506132f782613290565b604082019050919050565b6000602082019050818103600083015261331b816132df565b9050919050565b7f4e487b7100000000000000000000000000000000000000000000000000000000600052601160045260246000fd5b600061335c82612878565b91507fffffffffffffffffffffffffffffffffffffffffffffffffffffffffffffffff820361338e5761338d613322565b5b600182019050919050565b60008190508160005260206000209050919050565b60006020601f8301049050919050565b600082821b905092915050565b6000600883026133fb7fffffffffffffffffffffffffffffffffffffffffffffffffffffffffffffffff826133be565b61340586836133be565b95508019841693508086168417925050509392505050565b6000819050919050565b600061344261343d61343884612878565b61341d565b612878565b9050919050565b6000819050919050565b61345c83613427565b61347061346882613449565b8484546133cb565b825550505050565b600090565b613485613478565b613490818484613453565b505050565b5b818110156134b4576134a960008261347d565b600181019050613496565b5050565b601f8211156134f9576134ca81613399565b6134d3846133ae565b810160208510156134e2578190505b6134f66134ee856133ae565b830182613495565b50505b505050565b600082821c905092915050565b600061351c600019846008026134fe565b1980831691505092915050565b6000613535838361350b565b9150826002028217905092915050565b61354e826127c6565b67ffffffffffffffff81111561356757613566612a00565b5b61357182546130a9565b61357c8282856134b8565b600060209050601f8311600181146135af576000841561359d578287015190505b6135a78582613529565b86555061360f565b601f1984166135bd86613399565b60005b828110156135e5578489015182556001820191506020850194506020810190506135c0565b8683101561360257848901516135fe601f89168261350b565b8355505b6001600288020188555050505b505050505050565b600061362282612878565b915061362d83612878565b925082820190508082111561364557613644613322565b5b92915050565b600061365682612878565b915061366183612878565b925082820390508181111561367957613678613322565b5b92915050565b7f596f7520617265206e6f7420746865206f776e6572206f6620746865206c697360008201527f74696e672c206f6e6c7920746865206f776e65722063616e2072656d6f76652060208201527f746865206c697374696e67000000000000000000000000000000000000000000604082015250565b6000613701604b836127d1565b915061370c8261367f565b606082019050919050565b60006020820190508181036000830152613730816136f4565b9050919050565b600061374282612878565b91506000820361375557613754613322565b5b600182039050919050565b7f456e74657220612076616c6964204964206f6620746865204c697374696e672060008201527f796f752077616e74000000000000000000000000000000000000000000000000602082015250565b60006137bc6028836127d1565b91506137c782613760565b604082019050919050565b600060208201905081810360008301526137eb816137af565b9050919050565b7f4c697374696e67206973206e6f74206163746976650000000000000000000000600082015250565b60006138286015836127d1565b9150613833826137f2565b602082019050919050565b600060208201905081810360008301526138578161381b565b9050919050565b7f43616e6e6f7420427579206f776e204c697374696e6700000000000000000000600082015250565b60006138946016836127d1565b915061389f8261385e565b602082019050919050565b600060208201905081810360008301526138c381613887565b9050919050565b7f6e6f7420656e6f7567682066756e64732073656e740000000000000000000000600082015250565b60006139006015836127d1565b915061390b826138ca565b602082019050919050565b6000602082019050818103600083015261392f816138f3565b9050919050565b7f4552433732313a20696e76616c696420746f6b656e2049440000000000000000600082015250565b600061396c6018836127d1565b915061397782613936565b602082019050919050565b6000602082019050818103600083015261399b8161395f565b9050919050565b7f4552433732313a2061646472657373207a65726f206973206e6f74206120766160008201527f6c6964206f776e65720000000000000000000000000000000000000000000000602082015250565b60006139fe6029836127d1565b9150613a09826139a2565b604082019050919050565b60006020820190508181036000830152613a2d816139f1565b9050919050565b7f4e487b7100000000000000000000000000000000000000000000000000000000600052603260045260246000fd5b7f4552433732313a207472616e736665722066726f6d20696e636f72726563742060008201527f6f776e6572000000000000000000000000000000000000000000000000000000602082015250565b6000613abf6025836127d1565b9150613aca82613a63565b604082019050919050565b60006020820190508181036000830152613aee81613ab2565b9050919050565b7f4552433732313a207472616e7366657220746f20746865207a65726f2061646460008201527f7265737300000000000000000000000000000000000000000000000000000000602082015250565b6000613b516024836127d1565b9150613b5c82613af5565b604082019050919050565b60006020820190508181036000830152613b8081613b44565b9050919050565b7f45524337323155524953746f726167653a2055524920736574206f66206e6f6e60008201527f6578697374656e7420746f6b656e000000000000000000000000000000000000602082015250565b6000613be3602e836127d1565b9150613bee82613b87565b604082019050919050565b60006020820190508181036000830152613c1281613bd6565b9050919050565b7f4552433732313a20617070726f766520746f2063616c6c657200000000000000600082015250565b6000613c4f6019836127d1565b9150613c5a82613c19565b602082019050919050565b60006020820190508181036000830152613c7e81613c42565b9050919050565b7f4552433732313a207472616e7366657220746f206e6f6e20455243373231526560008201527f63656976657220696d706c656d656e7465720000000000000000000000000000602082015250565b6000613ce16032836127d1565b9150613cec82613c85565b604082019050919050565b60006020820190508181036000830152613d1081613cd4565b9050919050565b600081905092915050565b6000613d2d826127c6565b613d378185613d17565b9350613d478185602086016127e2565b80840191505092915050565b6000613d5f8285613d22565b9150613d6b8284613d22565b91508190509392505050565b600081519050919050565b600082825260208201905092915050565b6000613d9e82613d77565b613da88185613d82565b9350613db88185602086016127e2565b613dc18161280c565b840191505092915050565b6000608082019050613de1600083018761290d565b613dee602083018661290d565b613dfb6040830185612be6565b8181036060830152613e0d8184613d93565b905095945050505050565b600081519050613e2781612737565b92915050565b600060208284031215613e4357613e42612701565b5b6000613e5184828501613e18565b91505092915050565b7f4552433732313a206d696e7420746f20746865207a65726f2061646472657373600082015250565b6000613e906020836127d1565b9150613e9b82613e5a565b602082019050919050565b60006020820190508181036000830152613ebf81613e83565b9050919050565b7f4552433732313a20746f6b656e20616c7265616479206d696e74656400000000600082015250565b6000613efc601c836127d1565b9150613f0782613ec6565b602082019050919050565b60006020820190508181036000830152613f2b81613eef565b9050919050565b7f4e487b7100000000000000000000000000000000000000000000000000000000600052601260045260246000fdfea2646970667358221220092c47f9cf55cbb6158144833dccf5f17f8e42f40e02cfe8fad21a3e8abe8f0064736f6c63430008130033",
			"opcodes": "PUSH1 0x80 PUSH1 0x40 MSTORE CALLVALUE DUP1 ISZERO PUSH3 0x11 JUMPI PUSH1 0x0 DUP1 REVERT JUMPDEST POP PUSH1 0x40 MLOAD PUSH3 0x45E7 CODESIZE SUB DUP1 PUSH3 0x45E7 DUP4 CODECOPY DUP2 DUP2 ADD PUSH1 0x40 MSTORE DUP2 ADD SWAP1 PUSH3 0x37 SWAP2 SWAP1 PUSH3 0x27E JUMP JUMPDEST DUP3 DUP3 DUP2 PUSH1 0x0 SWAP1 DUP2 PUSH3 0x4A SWAP2 SWAP1 PUSH3 0x559 JUMP JUMPDEST POP DUP1 PUSH1 0x1 SWAP1 DUP2 PUSH3 0x5C SWAP2 SWAP1 PUSH3 0x559 JUMP JUMPDEST POP POP POP CALLER PUSH1 0x7 PUSH1 0x0 PUSH2 0x100 EXP DUP2 SLOAD DUP2 PUSH20 0xFFFFFFFFFFFFFFFFFFFFFFFFFFFFFFFFFFFFFFFF MUL NOT AND SWAP1 DUP4 PUSH20 0xFFFFFFFFFFFFFFFFFFFFFFFFFFFFFFFFFFFFFFFF AND MUL OR SWAP1 SSTORE POP DUP1 PUSH1 0x8 DUP2 SWAP1 SSTORE POP POP POP POP PUSH3 0x640 JUMP JUMPDEST PUSH1 0x0 PUSH1 0x40 MLOAD SWAP1 POP SWAP1 JUMP JUMPDEST PUSH1 0x0 DUP1 REVERT JUMPDEST PUSH1 0x0 DUP1 REVERT JUMPDEST PUSH1 0x0 DUP1 REVERT JUMPDEST PUSH1 0x0 DUP1 REVERT JUMPDEST PUSH1 0x0 PUSH1 0x1F NOT PUSH1 0x1F DUP4 ADD AND SWAP1 POP SWAP2 SWAP1 POP JUMP JUMPDEST PUSH32 0x4E487B7100000000000000000000000000000000000000000000000000000000 PUSH1 0x0 MSTORE PUSH1 0x41 PUSH1 0x4 MSTORE PUSH1 0x24 PUSH1 0x0 REVERT JUMPDEST PUSH3 0x119 DUP3 PUSH3 0xCE JUMP JUMPDEST DUP2 ADD DUP2 DUP2 LT PUSH8 0xFFFFFFFFFFFFFFFF DUP3 GT OR ISZERO PUSH3 0x13B JUMPI PUSH3 0x13A PUSH3 0xDF JUMP JUMPDEST JUMPDEST DUP1 PUSH1 0x40 MSTORE POP POP POP JUMP JUMPDEST PUSH1 0x0 PUSH3 0x150 PUSH3 0xB0 JUMP JUMPDEST SWAP1 POP PUSH3 0x15E DUP3 DUP3 PUSH3 0x10E JUMP JUMPDEST SWAP2 SWAP1 POP JUMP JUMPDEST PUSH1 0x0 PUSH8 0xFFFFFFFFFFFFFFFF DUP3 GT ISZERO PUSH3 0x181 JUMPI PUSH3 0x180 PUSH3 0xDF JUMP JUMPDEST JUMPDEST PUSH3 0x18C DUP3 PUSH3 0xCE JUMP JUMPDEST SWAP1 POP PUSH1 0x20 DUP2 ADD SWAP1 POP SWAP2 SWAP1 POP JUMP JUMPDEST PUSH1 0x0 JUMPDEST DUP4 DUP2 LT ISZERO PUSH3 0x1B9 JUMPI DUP1 DUP3 ADD MLOAD DUP2 DUP5 ADD MSTORE PUSH1 0x20 DUP2 ADD SWAP1 POP PUSH3 0x19C JUMP JUMPDEST PUSH1 0x0 DUP5 DUP5 ADD MSTORE POP POP POP POP JUMP JUMPDEST PUSH1 0x0 PUSH3 0x1DC PUSH3 0x1D6 DUP5 PUSH3 0x163 JUMP JUMPDEST PUSH3 0x144 JUMP JUMPDEST SWAP1 POP DUP3 DUP2 MSTORE PUSH1 0x20 DUP2 ADD DUP5 DUP5 DUP5 ADD GT ISZERO PUSH3 0x1FB JUMPI PUSH3 0x1FA PUSH3 0xC9 JUMP JUMPDEST JUMPDEST PUSH3 0x208 DUP5 DUP3 DUP6 PUSH3 0x199 JUMP JUMPDEST POP SWAP4 SWAP3 POP POP POP JUMP JUMPDEST PUSH1 0x0 DUP3 PUSH1 0x1F DUP4 ADD SLT PUSH3 0x228 JUMPI PUSH3 0x227 PUSH3 0xC4 JUMP JUMPDEST JUMPDEST DUP2 MLOAD PUSH3 0x23A DUP5 DUP3 PUSH1 0x20 DUP7 ADD PUSH3 0x1C5 JUMP JUMPDEST SWAP2 POP POP SWAP3 SWAP2 POP POP JUMP JUMPDEST PUSH1 0x0 DUP2 SWAP1 POP SWAP2 SWAP1 POP JUMP JUMPDEST PUSH3 0x258 DUP2 PUSH3 0x243 JUMP JUMPDEST DUP2 EQ PUSH3 0x264 JUMPI PUSH1 0x0 DUP1 REVERT JUMPDEST POP JUMP JUMPDEST PUSH1 0x0 DUP2 MLOAD SWAP1 POP PUSH3 0x278 DUP2 PUSH3 0x24D JUMP JUMPDEST SWAP3 SWAP2 POP POP JUMP JUMPDEST PUSH1 0x0 DUP1 PUSH1 0x0 PUSH1 0x60 DUP5 DUP7 SUB SLT ISZERO PUSH3 0x29A JUMPI PUSH3 0x299 PUSH3 0xBA JUMP JUMPDEST JUMPDEST PUSH1 0x0 DUP5 ADD MLOAD PUSH8 0xFFFFFFFFFFFFFFFF DUP2 GT ISZERO PUSH3 0x2BB JUMPI PUSH3 0x2BA PUSH3 0xBF JUMP JUMPDEST JUMPDEST PUSH3 0x2C9 DUP7 DUP3 DUP8 ADD PUSH3 0x210 JUMP JUMPDEST SWAP4 POP POP PUSH1 0x20 DUP5 ADD MLOAD PUSH8 0xFFFFFFFFFFFFFFFF DUP2 GT ISZERO PUSH3 0x2ED JUMPI PUSH3 0x2EC PUSH3 0xBF JUMP JUMPDEST JUMPDEST PUSH3 0x2FB DUP7 DUP3 DUP8 ADD PUSH3 0x210 JUMP JUMPDEST SWAP3 POP POP PUSH1 0x40 PUSH3 0x30E DUP7 DUP3 DUP8 ADD PUSH3 0x267 JUMP JUMPDEST SWAP2 POP POP SWAP3 POP SWAP3 POP SWAP3 JUMP JUMPDEST PUSH1 0x0 DUP2 MLOAD SWAP1 POP SWAP2 SWAP1 POP JUMP JUMPDEST PUSH32 0x4E487B7100000000000000000000000000000000000000000000000000000000 PUSH1 0x0 MSTORE PUSH1 0x22 PUSH1 0x4 MSTORE PUSH1 0x24 PUSH1 0x0 REVERT JUMPDEST PUSH1 0x0 PUSH1 0x2 DUP3 DIV SWAP1 POP PUSH1 0x1 DUP3 AND DUP1 PUSH3 0x36B JUMPI PUSH1 0x7F DUP3 AND SWAP2 POP JUMPDEST PUSH1 0x20 DUP3 LT DUP2 SUB PUSH3 0x381 JUMPI PUSH3 0x380 PUSH3 0x323 JUMP JUMPDEST JUMPDEST POP SWAP2 SWAP1 POP JUMP JUMPDEST PUSH1 0x0 DUP2 SWAP1 POP DUP2 PUSH1 0x0 MSTORE PUSH1 0x20 PUSH1 0x0 KECCAK256 SWAP1 POP SWAP2 SWAP1 POP JUMP JUMPDEST PUSH1 0x0 PUSH1 0x20 PUSH1 0x1F DUP4 ADD DIV SWAP1 POP SWAP2 SWAP1 POP JUMP JUMPDEST PUSH1 0x0 DUP3 DUP3 SHL SWAP1 POP SWAP3 SWAP2 POP POP JUMP JUMPDEST PUSH1 0x0 PUSH1 0x8 DUP4 MUL PUSH3 0x3EB PUSH32 0xFFFFFFFFFFFFFFFFFFFFFFFFFFFFFFFFFFFFFFFFFFFFFFFFFFFFFFFFFFFFFFFF DUP3 PUSH3 0x3AC JUMP JUMPDEST PUSH3 0x3F7 DUP7 DUP4 PUSH3 0x3AC JUMP JUMPDEST SWAP6 POP DUP1 NOT DUP5 AND SWAP4 POP DUP1 DUP7 AND DUP5 OR SWAP3 POP POP POP SWAP4 SWAP3 POP POP POP JUMP JUMPDEST PUSH1 0x0 DUP2 SWAP1 POP SWAP2 SWAP1 POP JUMP JUMPDEST PUSH1 0x0 PUSH3 0x43A PUSH3 0x434 PUSH3 0x42E DUP5 PUSH3 0x243 JUMP JUMPDEST PUSH3 0x40F JUMP JUMPDEST PUSH3 0x243 JUMP JUMPDEST SWAP1 POP SWAP2 SWAP1 POP JUMP JUMPDEST PUSH1 0x0 DUP2 SWAP1 POP SWAP2 SWAP1 POP JUMP JUMPDEST PUSH3 0x456 DUP4 PUSH3 0x419 JUMP JUMPDEST PUSH3 0x46E PUSH3 0x465 DUP3 PUSH3 0x441 JUMP JUMPDEST DUP5 DUP5 SLOAD PUSH3 0x3B9 JUMP JUMPDEST DUP3 SSTORE POP POP POP POP JUMP JUMPDEST PUSH1 0x0 SWAP1 JUMP JUMPDEST PUSH3 0x485 PUSH3 0x476 JUMP JUMPDEST PUSH3 0x492 DUP2 DUP5 DUP5 PUSH3 0x44B JUMP JUMPDEST POP POP POP JUMP JUMPDEST JUMPDEST DUP2 DUP2 LT ISZERO PUSH3 0x4BA JUMPI PUSH3 0x4AE PUSH1 0x0 DUP3 PUSH3 0x47B JUMP JUMPDEST PUSH1 0x1 DUP2 ADD SWAP1 POP PUSH3 0x498 JUMP JUMPDEST POP POP JUMP JUMPDEST PUSH1 0x1F DUP3 GT ISZERO PUSH3 0x509 JUMPI PUSH3 0x4D3 DUP2 PUSH3 0x387 JUMP JUMPDEST PUSH3 0x4DE DUP5 PUSH3 0x39C JUMP JUMPDEST DUP2 ADD PUSH1 0x20 DUP6 LT ISZERO PUSH3 0x4EE JUMPI DUP2 SWAP1 POP JUMPDEST PUSH3 0x506 PUSH3 0x4FD DUP6 PUSH3 0x39C JUMP JUMPDEST DUP4 ADD DUP3 PUSH3 0x497 JUMP JUMPDEST POP POP JUMPDEST POP POP POP JUMP JUMPDEST PUSH1 0x0 DUP3 DUP3 SHR SWAP1 POP SWAP3 SWAP2 POP POP JUMP JUMPDEST PUSH1 0x0 PUSH3 0x52E PUSH1 0x0 NOT DUP5 PUSH1 0x8 MUL PUSH3 0x50E JUMP JUMPDEST NOT DUP1 DUP4 AND SWAP2 POP POP SWAP3 SWAP2 POP POP JUMP JUMPDEST PUSH1 0x0 PUSH3 0x549 DUP4 DUP4 PUSH3 0x51B JUMP JUMPDEST SWAP2 POP DUP3 PUSH1 0x2 MUL DUP3 OR SWAP1 POP SWAP3 SWAP2 POP POP JUMP JUMPDEST PUSH3 0x564 DUP3 PUSH3 0x318 JUMP JUMPDEST PUSH8 0xFFFFFFFFFFFFFFFF DUP2 GT ISZERO PUSH3 0x580 JUMPI PUSH3 0x57F PUSH3 0xDF JUMP JUMPDEST JUMPDEST PUSH3 0x58C DUP3 SLOAD PUSH3 0x352 JUMP JUMPDEST PUSH3 0x599 DUP3 DUP3 DUP6 PUSH3 0x4BE JUMP JUMPDEST PUSH1 0x0 PUSH1 0x20 SWAP1 POP PUSH1 0x1F DUP4 GT PUSH1 0x1 DUP2 EQ PUSH3 0x5D1 JUMPI PUSH1 0x0 DUP5 ISZERO PUSH3 0x5BC JUMPI DUP3 DUP8 ADD MLOAD SWAP1 POP JUMPDEST PUSH3 0x5C8 DUP6 DUP3 PUSH3 0x53B JUMP JUMPDEST DUP7 SSTORE POP PUSH3 0x638 JUMP JUMPDEST PUSH1 0x1F NOT DUP5 AND PUSH3 0x5E1 DUP7 PUSH3 0x387 JUMP JUMPDEST PUSH1 0x0 JUMPDEST DUP3 DUP2 LT ISZERO PUSH3 0x60B JUMPI DUP5 DUP10 ADD MLOAD DUP3 SSTORE PUSH1 0x1 DUP3 ADD SWAP2 POP PUSH1 0x20 DUP6 ADD SWAP5 POP PUSH1 0x20 DUP2 ADD SWAP1 POP PUSH3 0x5E4 JUMP JUMPDEST DUP7 DUP4 LT ISZERO PUSH3 0x62B JUMPI DUP5 DUP10 ADD MLOAD PUSH3 0x627 PUSH1 0x1F DUP10 AND DUP3 PUSH3 0x51B JUMP JUMPDEST DUP4 SSTORE POP JUMPDEST PUSH1 0x1 PUSH1 0x2 DUP9 MUL ADD DUP9 SSTORE POP POP POP JUMPDEST POP POP POP POP POP POP JUMP JUMPDEST PUSH2 0x3F97 DUP1 PUSH3 0x650 PUSH1 0x0 CODECOPY PUSH1 0x0 RETURN INVALID PUSH1 0x80 PUSH1 0x40 MSTORE PUSH1 0x4 CALLDATASIZE LT PUSH2 0x114 JUMPI PUSH1 0x0 CALLDATALOAD PUSH1 0xE0 SHR DUP1 PUSH4 0x6352211E GT PUSH2 0xA0 JUMPI DUP1 PUSH4 0xA22CB465 GT PUSH2 0x64 JUMPI DUP1 PUSH4 0xA22CB465 EQ PUSH2 0x3A2 JUMPI DUP1 PUSH4 0xB496C6C8 EQ PUSH2 0x3CB JUMPI DUP1 PUSH4 0xB88D4FDE EQ PUSH2 0x3F6 JUMPI DUP1 PUSH4 0xC87B56DD EQ PUSH2 0x41F JUMPI DUP1 PUSH4 0xE985E9C5 EQ PUSH2 0x45C JUMPI PUSH2 0x114 JUMP JUMPDEST DUP1 PUSH4 0x6352211E EQ PUSH2 0x2A7 JUMPI DUP1 PUSH4 0x6817C76C EQ PUSH2 0x2E4 JUMPI DUP1 PUSH4 0x70A08231 EQ PUSH2 0x30F JUMPI DUP1 PUSH4 0x95D89B41 EQ PUSH2 0x34C JUMPI DUP1 PUSH4 0x9D49D83D EQ PUSH2 0x377 JUMPI PUSH2 0x114 JUMP JUMPDEST DUP1 PUSH4 0x23B872DD GT PUSH2 0xE7 JUMPI DUP1 PUSH4 0x23B872DD EQ PUSH2 0x1E7 JUMPI DUP1 PUSH4 0x42842E0E EQ PUSH2 0x210 JUMPI DUP1 PUSH4 0x451D4107 EQ PUSH2 0x239 JUMPI DUP1 PUSH4 0x479AD4C3 EQ PUSH2 0x262 JUMPI DUP1 PUSH4 0x4884F459 EQ PUSH2 0x28B JUMPI PUSH2 0x114 JUMP JUMPDEST DUP1 PUSH4 0x1FFC9A7 EQ PUSH2 0x119 JUMPI DUP1 PUSH4 0x6FDDE03 EQ PUSH2 0x156 JUMPI DUP1 PUSH4 0x81812FC EQ PUSH2 0x181 JUMPI DUP1 PUSH4 0x95EA7B3 EQ PUSH2 0x1BE JUMPI JUMPDEST PUSH1 0x0 DUP1 REVERT JUMPDEST CALLVALUE DUP1 ISZERO PUSH2 0x125 JUMPI PUSH1 0x0 DUP1 REVERT JUMPDEST POP PUSH2 0x140 PUSH1 0x4 DUP1 CALLDATASIZE SUB DUP2 ADD SWAP1 PUSH2 0x13B SWAP2 SWAP1 PUSH2 0x2763 JUMP JUMPDEST PUSH2 0x499 JUMP JUMPDEST PUSH1 0x40 MLOAD PUSH2 0x14D SWAP2 SWAP1 PUSH2 0x27AB JUMP JUMPDEST PUSH1 0x40 MLOAD DUP1 SWAP2 SUB SWAP1 RETURN JUMPDEST CALLVALUE DUP1 ISZERO PUSH2 0x162 JUMPI PUSH1 0x0 DUP1 REVERT JUMPDEST POP PUSH2 0x16B PUSH2 0x57B JUMP JUMPDEST PUSH1 0x40 MLOAD PUSH2 0x178 SWAP2 SWAP1 PUSH2 0x2856 JUMP JUMPDEST PUSH1 0x40 MLOAD DUP1 SWAP2 SUB SWAP1 RETURN JUMPDEST CALLVALUE DUP1 ISZERO PUSH2 0x18D JUMPI PUSH1 0x0 DUP1 REVERT JUMPDEST POP PUSH2 0x1A8 PUSH1 0x4 DUP1 CALLDATASIZE SUB DUP2 ADD SWAP1 PUSH2 0x1A3 SWAP2 SWAP1 PUSH2 0x28AE JUMP JUMPDEST PUSH2 0x60D JUMP JUMPDEST PUSH1 0x40 MLOAD PUSH2 0x1B5 SWAP2 SWAP1 PUSH2 0x291C JUMP JUMPDEST PUSH1 0x40 MLOAD DUP1 SWAP2 SUB SWAP1 RETURN JUMPDEST CALLVALUE DUP1 ISZERO PUSH2 0x1CA JUMPI PUSH1 0x0 DUP1 REVERT JUMPDEST POP PUSH2 0x1E5 PUSH1 0x4 DUP1 CALLDATASIZE SUB DUP2 ADD SWAP1 PUSH2 0x1E0 SWAP2 SWAP1 PUSH2 0x2963 JUMP JUMPDEST PUSH2 0x653 JUMP JUMPDEST STOP JUMPDEST CALLVALUE DUP1 ISZERO PUSH2 0x1F3 JUMPI PUSH1 0x0 DUP1 REVERT JUMPDEST POP PUSH2 0x20E PUSH1 0x4 DUP1 CALLDATASIZE SUB DUP2 ADD SWAP1 PUSH2 0x209 SWAP2 SWAP1 PUSH2 0x29A3 JUMP JUMPDEST PUSH2 0x76A JUMP JUMPDEST STOP JUMPDEST CALLVALUE DUP1 ISZERO PUSH2 0x21C JUMPI PUSH1 0x0 DUP1 REVERT JUMPDEST POP PUSH2 0x237 PUSH1 0x4 DUP1 CALLDATASIZE SUB DUP2 ADD SWAP1 PUSH2 0x232 SWAP2 SWAP1 PUSH2 0x29A3 JUMP JUMPDEST PUSH2 0x7CA JUMP JUMPDEST STOP JUMPDEST CALLVALUE DUP1 ISZERO PUSH2 0x245 JUMPI PUSH1 0x0 DUP1 REVERT JUMPDEST POP PUSH2 0x260 PUSH1 0x4 DUP1 CALLDATASIZE SUB DUP2 ADD SWAP1 PUSH2 0x25B SWAP2 SWAP1 PUSH2 0x2B2B JUMP JUMPDEST PUSH2 0x7EA JUMP JUMPDEST STOP JUMPDEST CALLVALUE DUP1 ISZERO PUSH2 0x26E JUMPI PUSH1 0x0 DUP1 REVERT JUMPDEST POP PUSH2 0x289 PUSH1 0x4 DUP1 CALLDATASIZE SUB DUP2 ADD SWAP1 PUSH2 0x284 SWAP2 SWAP1 PUSH2 0x28AE JUMP JUMPDEST PUSH2 0x9B6 JUMP JUMPDEST STOP JUMPDEST PUSH2 0x2A5 PUSH1 0x4 DUP1 CALLDATASIZE SUB DUP2 ADD SWAP1 PUSH2 0x2A0 SWAP2 SWAP1 PUSH2 0x28AE JUMP JUMPDEST PUSH2 0xAEC JUMP JUMPDEST STOP JUMPDEST CALLVALUE DUP1 ISZERO PUSH2 0x2B3 JUMPI PUSH1 0x0 DUP1 REVERT JUMPDEST POP PUSH2 0x2CE PUSH1 0x4 DUP1 CALLDATASIZE SUB DUP2 ADD SWAP1 PUSH2 0x2C9 SWAP2 SWAP1 PUSH2 0x28AE JUMP JUMPDEST PUSH2 0xECE JUMP JUMPDEST PUSH1 0x40 MLOAD PUSH2 0x2DB SWAP2 SWAP1 PUSH2 0x291C JUMP JUMPDEST PUSH1 0x40 MLOAD DUP1 SWAP2 SUB SWAP1 RETURN JUMPDEST CALLVALUE DUP1 ISZERO PUSH2 0x2F0 JUMPI PUSH1 0x0 DUP1 REVERT JUMPDEST POP PUSH2 0x2F9 PUSH2 0xF54 JUMP JUMPDEST PUSH1 0x40 MLOAD PUSH2 0x306 SWAP2 SWAP1 PUSH2 0x2BF5 JUMP JUMPDEST PUSH1 0x40 MLOAD DUP1 SWAP2 SUB SWAP1 RETURN JUMPDEST CALLVALUE DUP1 ISZERO PUSH2 0x31B JUMPI PUSH1 0x0 DUP1 REVERT JUMPDEST POP PUSH2 0x336 PUSH1 0x4 DUP1 CALLDATASIZE SUB DUP2 ADD SWAP1 PUSH2 0x331 SWAP2 SWAP1 PUSH2 0x2C10 JUMP JUMPDEST PUSH2 0xF5A JUMP JUMPDEST PUSH1 0x40 MLOAD PUSH2 0x343 SWAP2 SWAP1 PUSH2 0x2BF5 JUMP JUMPDEST PUSH1 0x40 MLOAD DUP1 SWAP2 SUB SWAP1 RETURN JUMPDEST CALLVALUE DUP1 ISZERO PUSH2 0x358 JUMPI PUSH1 0x0 DUP1 REVERT JUMPDEST POP PUSH2 0x361 PUSH2 0x1011 JUMP JUMPDEST PUSH1 0x40 MLOAD PUSH2 0x36E SWAP2 SWAP1 PUSH2 0x2856 JUMP JUMPDEST PUSH1 0x40 MLOAD DUP1 SWAP2 SUB SWAP1 RETURN JUMPDEST CALLVALUE DUP1 ISZERO PUSH2 0x383 JUMPI PUSH1 0x0 DUP1 REVERT JUMPDEST POP PUSH2 0x38C PUSH2 0x10A3 JUMP JUMPDEST PUSH1 0x40 MLOAD PUSH2 0x399 SWAP2 SWAP1 PUSH2 0x2BF5 JUMP JUMPDEST PUSH1 0x40 MLOAD DUP1 SWAP2 SUB SWAP1 RETURN JUMPDEST CALLVALUE DUP1 ISZERO PUSH2 0x3AE JUMPI PUSH1 0x0 DUP1 REVERT JUMPDEST POP PUSH2 0x3C9 PUSH1 0x4 DUP1 CALLDATASIZE SUB DUP2 ADD SWAP1 PUSH2 0x3C4 SWAP2 SWAP1 PUSH2 0x2C69 JUMP JUMPDEST PUSH2 0x10A9 JUMP JUMPDEST STOP JUMPDEST CALLVALUE DUP1 ISZERO PUSH2 0x3D7 JUMPI PUSH1 0x0 DUP1 REVERT JUMPDEST POP PUSH2 0x3E0 PUSH2 0x10BF JUMP JUMPDEST PUSH1 0x40 MLOAD PUSH2 0x3ED SWAP2 SWAP1 PUSH2 0x2EF4 JUMP JUMPDEST PUSH1 0x40 MLOAD DUP1 SWAP2 SUB SWAP1 RETURN JUMPDEST CALLVALUE DUP1 ISZERO PUSH2 0x402 JUMPI PUSH1 0x0 DUP1 REVERT JUMPDEST POP PUSH2 0x41D PUSH1 0x4 DUP1 CALLDATASIZE SUB DUP2 ADD SWAP1 PUSH2 0x418 SWAP2 SWAP1 PUSH2 0x2FB7 JUMP JUMPDEST PUSH2 0x1491 JUMP JUMPDEST STOP JUMPDEST CALLVALUE DUP1 ISZERO PUSH2 0x42B JUMPI PUSH1 0x0 DUP1 REVERT JUMPDEST POP PUSH2 0x446 PUSH1 0x4 DUP1 CALLDATASIZE SUB DUP2 ADD SWAP1 PUSH2 0x441 SWAP2 SWAP1 PUSH2 0x28AE JUMP JUMPDEST PUSH2 0x14F3 JUMP JUMPDEST PUSH1 0x40 MLOAD PUSH2 0x453 SWAP2 SWAP1 PUSH2 0x2856 JUMP JUMPDEST PUSH1 0x40 MLOAD DUP1 SWAP2 SUB SWAP1 RETURN JUMPDEST CALLVALUE DUP1 ISZERO PUSH2 0x468 JUMPI PUSH1 0x0 DUP1 REVERT JUMPDEST POP PUSH2 0x483 PUSH1 0x4 DUP1 CALLDATASIZE SUB DUP2 ADD SWAP1 PUSH2 0x47E SWAP2 SWAP1 PUSH2 0x303A JUMP JUMPDEST PUSH2 0x1505 JUMP JUMPDEST PUSH1 0x40 MLOAD PUSH2 0x490 SWAP2 SWAP1 PUSH2 0x27AB JUMP JUMPDEST PUSH1 0x40 MLOAD DUP1 SWAP2 SUB SWAP1 RETURN JUMPDEST PUSH1 0x0 PUSH32 0x80AC58CD00000000000000000000000000000000000000000000000000000000 PUSH28 0xFFFFFFFFFFFFFFFFFFFFFFFFFFFFFFFFFFFFFFFFFFFFFFFFFFFFFFFF NOT AND DUP3 PUSH28 0xFFFFFFFFFFFFFFFFFFFFFFFFFFFFFFFFFFFFFFFFFFFFFFFFFFFFFFFF NOT AND EQ DUP1 PUSH2 0x564 JUMPI POP PUSH32 0x5B5E139F00000000000000000000000000000000000000000000000000000000 PUSH28 0xFFFFFFFFFFFFFFFFFFFFFFFFFFFFFFFFFFFFFFFFFFFFFFFFFFFFFFFF NOT AND DUP3 PUSH28 0xFFFFFFFFFFFFFFFFFFFFFFFFFFFFFFFFFFFFFFFFFFFFFFFFFFFFFFFF NOT AND EQ JUMPDEST DUP1 PUSH2 0x574 JUMPI POP PUSH2 0x573 DUP3 PUSH2 0x1599 JUMP JUMPDEST JUMPDEST SWAP1 POP SWAP2 SWAP1 POP JUMP JUMPDEST PUSH1 0x60 PUSH1 0x0 DUP1 SLOAD PUSH2 0x58A SWAP1 PUSH2 0x30A9 JUMP JUMPDEST DUP1 PUSH1 0x1F ADD PUSH1 0x20 DUP1 SWAP2 DIV MUL PUSH1 0x20 ADD PUSH1 0x40 MLOAD SWAP1 DUP2 ADD PUSH1 0x40 MSTORE DUP1 SWAP3 SWAP2 SWAP1 DUP2 DUP2 MSTORE PUSH1 0x20 ADD DUP3 DUP1 SLOAD PUSH2 0x5B6 SWAP1 PUSH2 0x30A9 JUMP JUMPDEST DUP1 ISZERO PUSH2 0x603 JUMPI DUP1 PUSH1 0x1F LT PUSH2 0x5D8 JUMPI PUSH2 0x100 DUP1 DUP4 SLOAD DIV MUL DUP4 MSTORE SWAP2 PUSH1 0x20 ADD SWAP2 PUSH2 0x603 JUMP JUMPDEST DUP3 ADD SWAP2 SWAP1 PUSH1 0x0 MSTORE PUSH1 0x20 PUSH1 0x0 KECCAK256 SWAP1 JUMPDEST DUP2 SLOAD DUP2 MSTORE SWAP1 PUSH1 0x1 ADD SWAP1 PUSH1 0x20 ADD DUP1 DUP4 GT PUSH2 0x5E6 JUMPI DUP3 SWAP1 SUB PUSH1 0x1F AND DUP3 ADD SWAP2 JUMPDEST POP POP POP POP POP SWAP1 POP SWAP1 JUMP JUMPDEST PUSH1 0x0 PUSH2 0x618 DUP3 PUSH2 0x1603 JUMP JUMPDEST PUSH1 0x4 PUSH1 0x0 DUP4 DUP2 MSTORE PUSH1 0x20 ADD SWAP1 DUP2 MSTORE PUSH1 0x20 ADD PUSH1 0x0 KECCAK256 PUSH1 0x0 SWAP1 SLOAD SWAP1 PUSH2 0x100 EXP SWAP1 DIV PUSH20 0xFFFFFFFFFFFFFFFFFFFFFFFFFFFFFFFFFFFFFFFF AND SWAP1 POP SWAP2 SWAP1 POP JUMP JUMPDEST PUSH1 0x0 PUSH2 0x65E DUP3 PUSH2 0xECE JUMP JUMPDEST SWAP1 POP DUP1 PUSH20 0xFFFFFFFFFFFFFFFFFFFFFFFFFFFFFFFFFFFFFFFF AND DUP4 PUSH20 0xFFFFFFFFFFFFFFFFFFFFFFFFFFFFFFFFFFFFFFFF AND SUB PUSH2 0x6CE JUMPI PUSH1 0x40 MLOAD PUSH32 0x8C379A000000000000000000000000000000000000000000000000000000000 DUP2 MSTORE PUSH1 0x4 ADD PUSH2 0x6C5 SWAP1 PUSH2 0x314C JUMP JUMPDEST PUSH1 0x40 MLOAD DUP1 SWAP2 SUB SWAP1 REVERT JUMPDEST DUP1 PUSH20 0xFFFFFFFFFFFFFFFFFFFFFFFFFFFFFFFFFFFFFFFF AND PUSH2 0x6ED PUSH2 0x164E JUMP JUMPDEST PUSH20 0xFFFFFFFFFFFFFFFFFFFFFFFFFFFFFFFFFFFFFFFF AND EQ DUP1 PUSH2 0x71C JUMPI POP PUSH2 0x71B DUP2 PUSH2 0x716 PUSH2 0x164E JUMP JUMPDEST PUSH2 0x1505 JUMP JUMPDEST JUMPDEST PUSH2 0x75B JUMPI PUSH1 0x40 MLOAD PUSH32 0x8C379A000000000000000000000000000000000000000000000000000000000 DUP2 MSTORE PUSH1 0x4 ADD PUSH2 0x752 SWAP1 PUSH2 0x31DE JUMP JUMPDEST PUSH1 0x40 MLOAD DUP1 SWAP2 SUB SWAP1 REVERT JUMPDEST PUSH2 0x765 DUP4 DUP4 PUSH2 0x1656 JUMP JUMPDEST POP POP POP JUMP JUMPDEST PUSH2 0x77B PUSH2 0x775 PUSH2 0x164E JUMP JUMPDEST DUP3 PUSH2 0x170F JUMP JUMPDEST PUSH2 0x7BA JUMPI PUSH1 0x40 MLOAD PUSH32 0x8C379A000000000000000000000000000000000000000000000000000000000 DUP2 MSTORE PUSH1 0x4 ADD PUSH2 0x7B1 SWAP1 PUSH2 0x3270 JUMP JUMPDEST PUSH1 0x40 MLOAD DUP1 SWAP2 SUB SWAP1 REVERT JUMPDEST PUSH2 0x7C5 DUP4 DUP4 DUP4 PUSH2 0x17A4 JUMP JUMPDEST POP POP POP JUMP JUMPDEST PUSH2 0x7E5 DUP4 DUP4 DUP4 PUSH1 0x40 MLOAD DUP1 PUSH1 0x20 ADD PUSH1 0x40 MSTORE DUP1 PUSH1 0x0 DUP2 MSTORE POP PUSH2 0x1491 JUMP JUMPDEST POP POP POP JUMP JUMPDEST DUP1 PUSH1 0x8 SLOAD DUP2 GT PUSH2 0x82F JUMPI PUSH1 0x40 MLOAD PUSH32 0x8C379A000000000000000000000000000000000000000000000000000000000 DUP2 MSTORE PUSH1 0x4 ADD PUSH2 0x826 SWAP1 PUSH2 0x3302 JUMP JUMPDEST PUSH1 0x40 MLOAD DUP1 SWAP2 SUB SWAP1 REVERT JUMPDEST PUSH1 0x0 PUSH1 0xA PUSH1 0x0 PUSH1 0xC SLOAD DUP2 MSTORE PUSH1 0x20 ADD SWAP1 DUP2 MSTORE PUSH1 0x20 ADD PUSH1 0x0 KECCAK256 SWAP1 POP PUSH1 0xB PUSH1 0x0 DUP2 SLOAD DUP1 SWAP3 SWAP2 SWAP1 PUSH2 0x85B SWAP1 PUSH2 0x3351 JUMP JUMPDEST SWAP2 SWAP1 POP SSTORE POP PUSH1 0xC PUSH1 0x0 DUP2 SLOAD DUP1 SWAP3 SWAP2 SWAP1 PUSH2 0x873 SWAP1 PUSH2 0x3351 JUMP JUMPDEST SWAP2 SWAP1 POP SSTORE POP CALLER DUP2 PUSH1 0x2 ADD PUSH1 0x0 PUSH2 0x100 EXP DUP2 SLOAD DUP2 PUSH20 0xFFFFFFFFFFFFFFFFFFFFFFFFFFFFFFFFFFFFFFFF MUL NOT AND SWAP1 DUP4 PUSH20 0xFFFFFFFFFFFFFFFFFFFFFFFFFFFFFFFFFFFFFFFF AND MUL OR SWAP1 SSTORE POP DUP6 DUP2 PUSH1 0x3 ADD SWAP1 DUP2 PUSH2 0x8CC SWAP2 SWAP1 PUSH2 0x3545 JUMP JUMPDEST POP DUP5 DUP2 PUSH1 0x4 ADD SWAP1 DUP2 PUSH2 0x8DE SWAP2 SWAP1 PUSH2 0x3545 JUMP JUMPDEST POP PUSH1 0x8 SLOAD DUP4 PUSH2 0x8ED SWAP2 SWAP1 PUSH2 0x3617 JUMP JUMPDEST DUP2 PUSH1 0x1 ADD DUP2 SWAP1 SSTORE POP DUP4 DUP2 PUSH1 0x5 ADD SWAP1 DUP2 PUSH2 0x906 SWAP2 SWAP1 PUSH2 0x3545 JUMP JUMPDEST POP PUSH1 0x0 DUP2 PUSH1 0x6 ADD PUSH1 0x0 PUSH2 0x100 EXP DUP2 SLOAD DUP2 PUSH1 0xFF MUL NOT AND SWAP1 DUP4 PUSH1 0x2 DUP2 GT ISZERO PUSH2 0x92F JUMPI PUSH2 0x92E PUSH2 0x2D3D JUMP JUMPDEST JUMPDEST MUL OR SWAP1 SSTORE POP PUSH1 0x1 PUSH1 0xC SLOAD PUSH2 0x943 SWAP2 SWAP1 PUSH2 0x364B JUMP JUMPDEST DUP2 PUSH1 0x0 ADD DUP2 SWAP1 SSTORE POP PUSH1 0x0 PUSH1 0x1 PUSH1 0xC SLOAD PUSH2 0x95C SWAP2 SWAP1 PUSH2 0x364B JUMP JUMPDEST SWAP1 POP DUP1 CALLER PUSH20 0xFFFFFFFFFFFFFFFFFFFFFFFFFFFFFFFFFFFFFFFF AND PUSH32 0x4A972DA4C8E16848FE02227C8A46659AC44BD5F4D0EBCBBBEC862E9F59CF1958 TIMESTAMP PUSH1 0x40 MLOAD PUSH2 0x9A5 SWAP2 SWAP1 PUSH2 0x2BF5 JUMP JUMPDEST PUSH1 0x40 MLOAD DUP1 SWAP2 SUB SWAP1 LOG3 POP POP POP POP POP POP POP JUMP JUMPDEST PUSH1 0x0 PUSH1 0xA PUSH1 0x0 DUP4 DUP2 MSTORE PUSH1 0x20 ADD SWAP1 DUP2 MSTORE PUSH1 0x20 ADD PUSH1 0x0 KECCAK256 SWAP1 POP CALLER PUSH20 0xFFFFFFFFFFFFFFFFFFFFFFFFFFFFFFFFFFFFFFFF AND DUP2 PUSH1 0x2 ADD PUSH1 0x0 SWAP1 SLOAD SWAP1 PUSH2 0x100 EXP SWAP1 DIV PUSH20 0xFFFFFFFFFFFFFFFFFFFFFFFFFFFFFFFFFFFFFFFF AND PUSH20 0xFFFFFFFFFFFFFFFFFFFFFFFFFFFFFFFFFFFFFFFF AND EQ PUSH2 0xA5F JUMPI PUSH1 0x40 MLOAD PUSH32 0x8C379A000000000000000000000000000000000000000000000000000000000 DUP2 MSTORE PUSH1 0x4 ADD PUSH2 0xA56 SWAP1 PUSH2 0x3717 JUMP JUMPDEST PUSH1 0x40 MLOAD DUP1 SWAP2 SUB SWAP1 REVERT JUMPDEST PUSH1 0x2 DUP2 PUSH1 0x6 ADD PUSH1 0x0 PUSH2 0x100 EXP DUP2 SLOAD DUP2 PUSH1 0xFF MUL NOT AND SWAP1 DUP4 PUSH1 0x2 DUP2 GT ISZERO PUSH2 0xA87 JUMPI PUSH2 0xA86 PUSH2 0x2D3D JUMP JUMPDEST JUMPDEST MUL OR SWAP1 SSTORE POP PUSH1 0xB PUSH1 0x0 DUP2 SLOAD DUP1 SWAP3 SWAP2 SWAP1 PUSH2 0xA9F SWAP1 PUSH2 0x3737 JUMP JUMPDEST SWAP2 SWAP1 POP SSTORE POP DUP2 CALLER PUSH20 0xFFFFFFFFFFFFFFFFFFFFFFFFFFFFFFFFFFFFFFFF AND PUSH32 0x99238ABF9AFA251F2118BD3BB2835A4B03F61BBF8583C23F7BCC16495B38DF9B PUSH1 0x40 MLOAD PUSH1 0x40 MLOAD DUP1 SWAP2 SUB SWAP1 LOG3 POP POP JUMP JUMPDEST DUP1 PUSH1 0xC SLOAD DUP2 LT PUSH2 0xB31 JUMPI PUSH1 0x40 MLOAD PUSH32 0x8C379A000000000000000000000000000000000000000000000000000000000 DUP2 MSTORE PUSH1 0x4 ADD PUSH2 0xB28 SWAP1 PUSH2 0x37D2 JUMP JUMPDEST PUSH1 0x40 MLOAD DUP1 SWAP2 SUB SWAP1 REVERT JUMPDEST PUSH1 0x0 PUSH1 0xA PUSH1 0x0 DUP5 DUP2 MSTORE PUSH1 0x20 ADD SWAP1 DUP2 MSTORE PUSH1 0x20 ADD PUSH1 0x0 KECCAK256 SWAP1 POP PUSH1 0x1 PUSH1 0x2 DUP2 GT ISZERO PUSH2 0xB5C JUMPI PUSH2 0xB5B PUSH2 0x2D3D JUMP JUMPDEST JUMPDEST DUP2 PUSH1 0x6 ADD PUSH1 0x0 SWAP1 SLOAD SWAP1 PUSH2 0x100 EXP SWAP1 DIV PUSH1 0xFF AND PUSH1 0x2 DUP2 GT ISZERO PUSH2 0xB80 JUMPI PUSH2 0xB7F PUSH2 0x2D3D JUMP JUMPDEST JUMPDEST EQ ISZERO DUP1 ISZERO PUSH2 0xBC3 JUMPI POP PUSH1 0x2 DUP1 DUP2 GT ISZERO PUSH2 0xB9C JUMPI PUSH2 0xB9B PUSH2 0x2D3D JUMP JUMPDEST JUMPDEST DUP2 PUSH1 0x6 ADD PUSH1 0x0 SWAP1 SLOAD SWAP1 PUSH2 0x100 EXP SWAP1 DIV PUSH1 0xFF AND PUSH1 0x2 DUP2 GT ISZERO PUSH2 0xBC0 JUMPI PUSH2 0xBBF PUSH2 0x2D3D JUMP JUMPDEST JUMPDEST EQ ISZERO JUMPDEST PUSH2 0xC02 JUMPI PUSH1 0x40 MLOAD PUSH32 0x8C379A000000000000000000000000000000000000000000000000000000000 DUP2 MSTORE PUSH1 0x4 ADD PUSH2 0xBF9 SWAP1 PUSH2 0x383E JUMP JUMPDEST PUSH1 0x40 MLOAD DUP1 SWAP2 SUB SWAP1 REVERT JUMPDEST CALLER PUSH20 0xFFFFFFFFFFFFFFFFFFFFFFFFFFFFFFFFFFFFFFFF AND DUP2 PUSH1 0x2 ADD PUSH1 0x0 SWAP1 SLOAD SWAP1 PUSH2 0x100 EXP SWAP1 DIV PUSH20 0xFFFFFFFFFFFFFFFFFFFFFFFFFFFFFFFFFFFFFFFF AND PUSH20 0xFFFFFFFFFFFFFFFFFFFFFFFFFFFFFFFFFFFFFFFF AND SUB PUSH2 0xC94 JUMPI PUSH1 0x40 MLOAD PUSH32 0x8C379A000000000000000000000000000000000000000000000000000000000 DUP2 MSTORE PUSH1 0x4 ADD PUSH2 0xC8B SWAP1 PUSH2 0x38AA JUMP JUMPDEST PUSH1 0x40 MLOAD DUP1 SWAP2 SUB SWAP1 REVERT JUMPDEST CALLVALUE PUSH1 0x8 SLOAD DUP3 PUSH1 0x1 ADD SLOAD PUSH2 0xCA7 SWAP2 SWAP1 PUSH2 0x3617 JUMP JUMPDEST GT ISZERO PUSH2 0xCE8 JUMPI PUSH1 0x40 MLOAD PUSH32 0x8C379A000000000000000000000000000000000000000000000000000000000 DUP2 MSTORE PUSH1 0x4 ADD PUSH2 0xCDF SWAP1 PUSH2 0x3916 JUMP JUMPDEST PUSH1 0x40 MLOAD DUP1 SWAP2 SUB SWAP1 REVERT JUMPDEST PUSH1 0x0 PUSH2 0xCF4 PUSH1 0x9 PUSH2 0x1A9D JUMP JUMPDEST SWAP1 POP PUSH2 0xD00 PUSH1 0x9 PUSH2 0x1AAB JUMP JUMPDEST PUSH2 0xD0A CALLER DUP3 PUSH2 0x1AC1 JUMP JUMPDEST PUSH2 0xDA0 DUP2 DUP4 PUSH1 0x5 ADD DUP1 SLOAD PUSH2 0xD1D SWAP1 PUSH2 0x30A9 JUMP JUMPDEST DUP1 PUSH1 0x1F ADD PUSH1 0x20 DUP1 SWAP2 DIV MUL PUSH1 0x20 ADD PUSH1 0x40 MLOAD SWAP1 DUP2 ADD PUSH1 0x40 MSTORE DUP1 SWAP3 SWAP2 SWAP1 DUP2 DUP2 MSTORE PUSH1 0x20 ADD DUP3 DUP1 SLOAD PUSH2 0xD49 SWAP1 PUSH2 0x30A9 JUMP JUMPDEST DUP1 ISZERO PUSH2 0xD96 JUMPI DUP1 PUSH1 0x1F LT PUSH2 0xD6B JUMPI PUSH2 0x100 DUP1 DUP4 SLOAD DIV MUL DUP4 MSTORE SWAP2 PUSH1 0x20 ADD SWAP2 PUSH2 0xD96 JUMP JUMPDEST DUP3 ADD SWAP2 SWAP1 PUSH1 0x0 MSTORE PUSH1 0x20 PUSH1 0x0 KECCAK256 SWAP1 JUMPDEST DUP2 SLOAD DUP2 MSTORE SWAP1 PUSH1 0x1 ADD SWAP1 PUSH1 0x20 ADD DUP1 DUP4 GT PUSH2 0xD79 JUMPI DUP3 SWAP1 SUB PUSH1 0x1F AND DUP3 ADD SWAP2 JUMPDEST POP POP POP POP POP PUSH2 0x1ADF JUMP JUMPDEST PUSH1 0x0 DUP3 PUSH1 0x2 ADD PUSH1 0x0 SWAP1 SLOAD SWAP1 PUSH2 0x100 EXP SWAP1 DIV PUSH20 0xFFFFFFFFFFFFFFFFFFFFFFFFFFFFFFFFFFFFFFFF AND SWAP1 POP DUP1 PUSH20 0xFFFFFFFFFFFFFFFFFFFFFFFFFFFFFFFFFFFFFFFF AND PUSH2 0x8FC PUSH1 0x8 SLOAD CALLVALUE PUSH2 0xDF1 SWAP2 SWAP1 PUSH2 0x364B JUMP JUMPDEST SWAP1 DUP2 ISZERO MUL SWAP1 PUSH1 0x40 MLOAD PUSH1 0x0 PUSH1 0x40 MLOAD DUP1 DUP4 SUB DUP2 DUP6 DUP9 DUP9 CALL SWAP4 POP POP POP POP ISZERO DUP1 ISZERO PUSH2 0xE1C JUMPI RETURNDATASIZE PUSH1 0x0 DUP1 RETURNDATACOPY RETURNDATASIZE PUSH1 0x0 REVERT JUMPDEST POP PUSH1 0x1 DUP4 PUSH1 0x6 ADD PUSH1 0x0 PUSH2 0x100 EXP DUP2 SLOAD DUP2 PUSH1 0xFF MUL NOT AND SWAP1 DUP4 PUSH1 0x2 DUP2 GT ISZERO PUSH2 0xE45 JUMPI PUSH2 0xE44 PUSH2 0x2D3D JUMP JUMPDEST JUMPDEST MUL OR SWAP1 SSTORE POP PUSH1 0xB PUSH1 0x0 DUP2 SLOAD DUP1 SWAP3 SWAP2 SWAP1 PUSH2 0xE5D SWAP1 PUSH2 0x3737 JUMP JUMPDEST SWAP2 SWAP1 POP SSTORE POP DUP1 PUSH20 0xFFFFFFFFFFFFFFFFFFFFFFFFFFFFFFFFFFFFFFFF AND CALLER PUSH20 0xFFFFFFFFFFFFFFFFFFFFFFFFFFFFFFFFFFFFFFFF AND PUSH32 0xBD2B54E1F85AE4601994A407FCA72F7633B50C17D1839DCDFE07B652D76EF6D2 TIMESTAMP PUSH1 0x40 MLOAD PUSH2 0xEBF SWAP2 SWAP1 PUSH2 0x2BF5 JUMP JUMPDEST PUSH1 0x40 MLOAD DUP1 SWAP2 SUB SWAP1 LOG3 POP POP POP POP POP JUMP JUMPDEST PUSH1 0x0 DUP1 PUSH2 0xEDA DUP4 PUSH2 0x1B4C JUMP JUMPDEST SWAP1 POP PUSH1 0x0 PUSH20 0xFFFFFFFFFFFFFFFFFFFFFFFFFFFFFFFFFFFFFFFF AND DUP2 PUSH20 0xFFFFFFFFFFFFFFFFFFFFFFFFFFFFFFFFFFFFFFFF AND SUB PUSH2 0xF4B JUMPI PUSH1 0x40 MLOAD PUSH32 0x8C379A000000000000000000000000000000000000000000000000000000000 DUP2 MSTORE PUSH1 0x4 ADD PUSH2 0xF42 SWAP1 PUSH2 0x3982 JUMP JUMPDEST PUSH1 0x40 MLOAD DUP1 SWAP2 SUB SWAP1 REVERT JUMPDEST DUP1 SWAP2 POP POP SWAP2 SWAP1 POP JUMP JUMPDEST PUSH1 0x8 SLOAD DUP2 JUMP JUMPDEST PUSH1 0x0 DUP1 PUSH20 0xFFFFFFFFFFFFFFFFFFFFFFFFFFFFFFFFFFFFFFFF AND DUP3 PUSH20 0xFFFFFFFFFFFFFFFFFFFFFFFFFFFFFFFFFFFFFFFF AND SUB PUSH2 0xFCA JUMPI PUSH1 0x40 MLOAD PUSH32 0x8C379A000000000000000000000000000000000000000000000000000000000 DUP2 MSTORE PUSH1 0x4 ADD PUSH2 0xFC1 SWAP1 PUSH2 0x3A14 JUMP JUMPDEST PUSH1 0x40 MLOAD DUP1 SWAP2 SUB SWAP1 REVERT JUMPDEST PUSH1 0x3 PUSH1 0x0 DUP4 PUSH20 0xFFFFFFFFFFFFFFFFFFFFFFFFFFFFFFFFFFFFFFFF AND PUSH20 0xFFFFFFFFFFFFFFFFFFFFFFFFFFFFFFFFFFFFFFFF AND DUP2 MSTORE PUSH1 0x20 ADD SWAP1 DUP2 MSTORE PUSH1 0x20 ADD PUSH1 0x0 KECCAK256 SLOAD SWAP1 POP SWAP2 SWAP1 POP JUMP JUMPDEST PUSH1 0x60 PUSH1 0x1 DUP1 SLOAD PUSH2 0x1020 SWAP1 PUSH2 0x30A9 JUMP JUMPDEST DUP1 PUSH1 0x1F ADD PUSH1 0x20 DUP1 SWAP2 DIV MUL PUSH1 0x20 ADD PUSH1 0x40 MLOAD SWAP1 DUP2 ADD PUSH1 0x40 MSTORE DUP1 SWAP3 SWAP2 SWAP1 DUP2 DUP2 MSTORE PUSH1 0x20 ADD DUP3 DUP1 SLOAD PUSH2 0x104C SWAP1 PUSH2 0x30A9 JUMP JUMPDEST DUP1 ISZERO PUSH2 0x1099 JUMPI DUP1 PUSH1 0x1F LT PUSH2 0x106E JUMPI PUSH2 0x100 DUP1 DUP4 SLOAD DIV MUL DUP4 MSTORE SWAP2 PUSH1 0x20 ADD SWAP2 PUSH2 0x1099 JUMP JUMPDEST DUP3 ADD SWAP2 SWAP1 PUSH1 0x0 MSTORE PUSH1 0x20 PUSH1 0x0 KECCAK256 SWAP1 JUMPDEST DUP2 SLOAD DUP2 MSTORE SWAP1 PUSH1 0x1 ADD SWAP1 PUSH1 0x20 ADD DUP1 DUP4 GT PUSH2 0x107C JUMPI DUP3 SWAP1 SUB PUSH1 0x1F AND DUP3 ADD SWAP2 JUMPDEST POP POP POP POP POP SWAP1 POP SWAP1 JUMP JUMPDEST PUSH1 0xB SLOAD DUP2 JUMP JUMPDEST PUSH2 0x10BB PUSH2 0x10B4 PUSH2 0x164E JUMP JUMPDEST DUP4 DUP4 PUSH2 0x1B89 JUMP JUMPDEST POP POP JUMP JUMPDEST PUSH1 0x60 PUSH1 0x0 PUSH1 0xB SLOAD PUSH8 0xFFFFFFFFFFFFFFFF DUP2 GT ISZERO PUSH2 0x10DF JUMPI PUSH2 0x10DE PUSH2 0x2A00 JUMP JUMPDEST JUMPDEST PUSH1 0x40 MLOAD SWAP1 DUP1 DUP3 MSTORE DUP1 PUSH1 0x20 MUL PUSH1 0x20 ADD DUP3 ADD PUSH1 0x40 MSTORE DUP1 ISZERO PUSH2 0x1118 JUMPI DUP2 PUSH1 0x20 ADD JUMPDEST PUSH2 0x1105 PUSH2 0x2692 JUMP JUMPDEST DUP2 MSTORE PUSH1 0x20 ADD SWAP1 PUSH1 0x1 SWAP1 SUB SWAP1 DUP2 PUSH2 0x10FD JUMPI SWAP1 POP JUMPDEST POP SWAP1 POP PUSH1 0x0 DUP1 PUSH1 0xC SLOAD SWAP1 POP PUSH1 0x0 JUMPDEST DUP2 DUP2 LT ISZERO PUSH2 0x1487 JUMPI PUSH1 0x1 PUSH1 0x2 DUP2 GT ISZERO PUSH2 0x1142 JUMPI PUSH2 0x1141 PUSH2 0x2D3D JUMP JUMPDEST JUMPDEST PUSH1 0xA PUSH1 0x0 DUP4 DUP2 MSTORE PUSH1 0x20 ADD SWAP1 DUP2 MSTORE PUSH1 0x20 ADD PUSH1 0x0 KECCAK256 PUSH1 0x6 ADD PUSH1 0x0 SWAP1 SLOAD SWAP1 PUSH2 0x100 EXP SWAP1 DIV PUSH1 0xFF AND PUSH1 0x2 DUP2 GT ISZERO PUSH2 0x1178 JUMPI PUSH2 0x1177 PUSH2 0x2D3D JUMP JUMPDEST JUMPDEST EQ DUP1 PUSH2 0x11CA JUMPI POP PUSH1 0x2 DUP1 DUP2 GT ISZERO PUSH2 0x1192 JUMPI PUSH2 0x1191 PUSH2 0x2D3D JUMP JUMPDEST JUMPDEST PUSH1 0xA PUSH1 0x0 DUP4 DUP2 MSTORE PUSH1 0x20 ADD SWAP1 DUP2 MSTORE PUSH1 0x20 ADD PUSH1 0x0 KECCAK256 PUSH1 0x6 ADD PUSH1 0x0 SWAP1 SLOAD SWAP1 PUSH2 0x100 EXP SWAP1 DIV PUSH1 0xFF AND PUSH1 0x2 DUP2 GT ISZERO PUSH2 0x11C8 JUMPI PUSH2 0x11C7 PUSH2 0x2D3D JUMP JUMPDEST JUMPDEST EQ JUMPDEST PUSH2 0x1474 JUMPI PUSH1 0xA PUSH1 0x0 DUP3 DUP2 MSTORE PUSH1 0x20 ADD SWAP1 DUP2 MSTORE PUSH1 0x20 ADD PUSH1 0x0 KECCAK256 PUSH1 0x40 MLOAD DUP1 PUSH1 0xE0 ADD PUSH1 0x40 MSTORE SWAP1 DUP2 PUSH1 0x0 DUP3 ADD SLOAD DUP2 MSTORE PUSH1 0x20 ADD PUSH1 0x1 DUP3 ADD SLOAD DUP2 MSTORE PUSH1 0x20 ADD PUSH1 0x2 DUP3 ADD PUSH1 0x0 SWAP1 SLOAD SWAP1 PUSH2 0x100 EXP SWAP1 DIV PUSH20 0xFFFFFFFFFFFFFFFFFFFFFFFFFFFFFFFFFFFFFFFF AND PUSH20 0xFFFFFFFFFFFFFFFFFFFFFFFFFFFFFFFFFFFFFFFF AND PUSH20 0xFFFFFFFFFFFFFFFFFFFFFFFFFFFFFFFFFFFFFFFF AND DUP2 MSTORE PUSH1 0x20 ADD PUSH1 0x3 DUP3 ADD DUP1 SLOAD PUSH2 0x1266 SWAP1 PUSH2 0x30A9 JUMP JUMPDEST DUP1 PUSH1 0x1F ADD PUSH1 0x20 DUP1 SWAP2 DIV MUL PUSH1 0x20 ADD PUSH1 0x40 MLOAD SWAP1 DUP2 ADD PUSH1 0x40 MSTORE DUP1 SWAP3 SWAP2 SWAP1 DUP2 DUP2 MSTORE PUSH1 0x20 ADD DUP3 DUP1 SLOAD PUSH2 0x1292 SWAP1 PUSH2 0x30A9 JUMP JUMPDEST DUP1 ISZERO PUSH2 0x12DF JUMPI DUP1 PUSH1 0x1F LT PUSH2 0x12B4 JUMPI PUSH2 0x100 DUP1 DUP4 SLOAD DIV MUL DUP4 MSTORE SWAP2 PUSH1 0x20 ADD SWAP2 PUSH2 0x12DF JUMP JUMPDEST DUP3 ADD SWAP2 SWAP1 PUSH1 0x0 MSTORE PUSH1 0x20 PUSH1 0x0 KECCAK256 SWAP1 JUMPDEST DUP2 SLOAD DUP2 MSTORE SWAP1 PUSH1 0x1 ADD SWAP1 PUSH1 0x20 ADD DUP1 DUP4 GT PUSH2 0x12C2 JUMPI DUP3 SWAP1 SUB PUSH1 0x1F AND DUP3 ADD SWAP2 JUMPDEST POP POP POP POP POP DUP2 MSTORE PUSH1 0x20 ADD PUSH1 0x4 DUP3 ADD DUP1 SLOAD PUSH2 0x12F8 SWAP1 PUSH2 0x30A9 JUMP JUMPDEST DUP1 PUSH1 0x1F ADD PUSH1 0x20 DUP1 SWAP2 DIV MUL PUSH1 0x20 ADD PUSH1 0x40 MLOAD SWAP1 DUP2 ADD PUSH1 0x40 MSTORE DUP1 SWAP3 SWAP2 SWAP1 DUP2 DUP2 MSTORE PUSH1 0x20 ADD DUP3 DUP1 SLOAD PUSH2 0x1324 SWAP1 PUSH2 0x30A9 JUMP JUMPDEST DUP1 ISZERO PUSH2 0x1371 JUMPI DUP1 PUSH1 0x1F LT PUSH2 0x1346 JUMPI PUSH2 0x100 DUP1 DUP4 SLOAD DIV MUL DUP4 MSTORE SWAP2 PUSH1 0x20 ADD SWAP2 PUSH2 0x1371 JUMP JUMPDEST DUP3 ADD SWAP2 SWAP1 PUSH1 0x0 MSTORE PUSH1 0x20 PUSH1 0x0 KECCAK256 SWAP1 JUMPDEST DUP2 SLOAD DUP2 MSTORE SWAP1 PUSH1 0x1 ADD SWAP1 PUSH1 0x20 ADD DUP1 DUP4 GT PUSH2 0x1354 JUMPI DUP3 SWAP1 SUB PUSH1 0x1F AND DUP3 ADD SWAP2 JUMPDEST POP POP POP POP POP DUP2 MSTORE PUSH1 0x20 ADD PUSH1 0x5 DUP3 ADD DUP1 SLOAD PUSH2 0x138A SWAP1 PUSH2 0x30A9 JUMP JUMPDEST DUP1 PUSH1 0x1F ADD PUSH1 0x20 DUP1 SWAP2 DIV MUL PUSH1 0x20 ADD PUSH1 0x40 MLOAD SWAP1 DUP2 ADD PUSH1 0x40 MSTORE DUP1 SWAP3 SWAP2 SWAP1 DUP2 DUP2 MSTORE PUSH1 0x20 ADD DUP3 DUP1 SLOAD PUSH2 0x13B6 SWAP1 PUSH2 0x30A9 JUMP JUMPDEST DUP1 ISZERO PUSH2 0x1403 JUMPI DUP1 PUSH1 0x1F LT PUSH2 0x13D8 JUMPI PUSH2 0x100 DUP1 DUP4 SLOAD DIV MUL DUP4 MSTORE SWAP2 PUSH1 0x20 ADD SWAP2 PUSH2 0x1403 JUMP JUMPDEST DUP3 ADD SWAP2 SWAP1 PUSH1 0x0 MSTORE PUSH1 0x20 PUSH1 0x0 KECCAK256 SWAP1 JUMPDEST DUP2 SLOAD DUP2 MSTORE SWAP1 PUSH1 0x1 ADD SWAP1 PUSH1 0x20 ADD DUP1 DUP4 GT PUSH2 0x13E6 JUMPI DUP3 SWAP1 SUB PUSH1 0x1F AND DUP3 ADD SWAP2 JUMPDEST POP POP POP POP POP DUP2 MSTORE PUSH1 0x20 ADD PUSH1 0x6 DUP3 ADD PUSH1 0x0 SWAP1 SLOAD SWAP1 PUSH2 0x100 EXP SWAP1 DIV PUSH1 0xFF AND PUSH1 0x2 DUP2 GT ISZERO PUSH2 0x1431 JUMPI PUSH2 0x1430 PUSH2 0x2D3D JUMP JUMPDEST JUMPDEST PUSH1 0x2 DUP2 GT ISZERO PUSH2 0x1443 JUMPI PUSH2 0x1442 PUSH2 0x2D3D JUMP JUMPDEST JUMPDEST DUP2 MSTORE POP POP DUP5 DUP5 DUP2 MLOAD DUP2 LT PUSH2 0x145A JUMPI PUSH2 0x1459 PUSH2 0x3A34 JUMP JUMPDEST JUMPDEST PUSH1 0x20 MUL PUSH1 0x20 ADD ADD DUP2 SWAP1 MSTORE POP DUP3 DUP1 PUSH2 0x1470 SWAP1 PUSH2 0x3351 JUMP JUMPDEST SWAP4 POP POP JUMPDEST DUP1 DUP1 PUSH2 0x147F SWAP1 PUSH2 0x3351 JUMP JUMPDEST SWAP2 POP POP PUSH2 0x1126 JUMP JUMPDEST POP DUP3 SWAP4 POP POP POP POP SWAP1 JUMP JUMPDEST PUSH2 0x14A2 PUSH2 0x149C PUSH2 0x164E JUMP JUMPDEST DUP4 PUSH2 0x170F JUMP JUMPDEST PUSH2 0x14E1 JUMPI PUSH1 0x40 MLOAD PUSH32 0x8C379A000000000000000000000000000000000000000000000000000000000 DUP2 MSTORE PUSH1 0x4 ADD PUSH2 0x14D8 SWAP1 PUSH2 0x3270 JUMP JUMPDEST PUSH1 0x40 MLOAD DUP1 SWAP2 SUB SWAP1 REVERT JUMPDEST PUSH2 0x14ED DUP5 DUP5 DUP5 DUP5 PUSH2 0x1CF5 JUMP JUMPDEST POP POP POP POP JUMP JUMPDEST PUSH1 0x60 PUSH2 0x14FE DUP3 PUSH2 0x1D51 JUMP JUMPDEST SWAP1 POP SWAP2 SWAP1 POP JUMP JUMPDEST PUSH1 0x0 PUSH1 0x5 PUSH1 0x0 DUP5 PUSH20 0xFFFFFFFFFFFFFFFFFFFFFFFFFFFFFFFFFFFFFFFF AND PUSH20 0xFFFFFFFFFFFFFFFFFFFFFFFFFFFFFFFFFFFFFFFF AND DUP2 MSTORE PUSH1 0x20 ADD SWAP1 DUP2 MSTORE PUSH1 0x20 ADD PUSH1 0x0 KECCAK256 PUSH1 0x0 DUP4 PUSH20 0xFFFFFFFFFFFFFFFFFFFFFFFFFFFFFFFFFFFFFFFF AND PUSH20 0xFFFFFFFFFFFFFFFFFFFFFFFFFFFFFFFFFFFFFFFF AND DUP2 MSTORE PUSH1 0x20 ADD SWAP1 DUP2 MSTORE PUSH1 0x20 ADD PUSH1 0x0 KECCAK256 PUSH1 0x0 SWAP1 SLOAD SWAP1 PUSH2 0x100 EXP SWAP1 DIV PUSH1 0xFF AND SWAP1 POP SWAP3 SWAP2 POP POP JUMP JUMPDEST PUSH1 0x0 PUSH32 0x1FFC9A700000000000000000000000000000000000000000000000000000000 PUSH28 0xFFFFFFFFFFFFFFFFFFFFFFFFFFFFFFFFFFFFFFFFFFFFFFFFFFFFFFFF NOT AND DUP3 PUSH28 0xFFFFFFFFFFFFFFFFFFFFFFFFFFFFFFFFFFFFFFFFFFFFFFFFFFFFFFFF NOT AND EQ SWAP1 POP SWAP2 SWAP1 POP JUMP JUMPDEST PUSH2 0x160C DUP2 PUSH2 0x1E63 JUMP JUMPDEST PUSH2 0x164B JUMPI PUSH1 0x40 MLOAD PUSH32 0x8C379A000000000000000000000000000000000000000000000000000000000 DUP2 MSTORE PUSH1 0x4 ADD PUSH2 0x1642 SWAP1 PUSH2 0x3982 JUMP JUMPDEST PUSH1 0x40 MLOAD DUP1 SWAP2 SUB SWAP1 REVERT JUMPDEST POP JUMP JUMPDEST PUSH1 0x0 CALLER SWAP1 POP SWAP1 JUMP JUMPDEST DUP2 PUSH1 0x4 PUSH1 0x0 DUP4 DUP2 MSTORE PUSH1 0x20 ADD SWAP1 DUP2 MSTORE PUSH1 0x20 ADD PUSH1 0x0 KECCAK256 PUSH1 0x0 PUSH2 0x100 EXP DUP2 SLOAD DUP2 PUSH20 0xFFFFFFFFFFFFFFFFFFFFFFFFFFFFFFFFFFFFFFFF MUL NOT AND SWAP1 DUP4 PUSH20 0xFFFFFFFFFFFFFFFFFFFFFFFFFFFFFFFFFFFFFFFF AND MUL OR SWAP1 SSTORE POP DUP1 DUP3 PUSH20 0xFFFFFFFFFFFFFFFFFFFFFFFFFFFFFFFFFFFFFFFF AND PUSH2 0x16C9 DUP4 PUSH2 0xECE JUMP JUMPDEST PUSH20 0xFFFFFFFFFFFFFFFFFFFFFFFFFFFFFFFFFFFFFFFF AND PUSH32 0x8C5BE1E5EBEC7D5BD14F71427D1E84F3DD0314C0F7B2291E5B200AC8C7C3B925 PUSH1 0x40 MLOAD PUSH1 0x40 MLOAD DUP1 SWAP2 SUB SWAP1 LOG4 POP POP JUMP JUMPDEST PUSH1 0x0 DUP1 PUSH2 0x171B DUP4 PUSH2 0xECE JUMP JUMPDEST SWAP1 POP DUP1 PUSH20 0xFFFFFFFFFFFFFFFFFFFFFFFFFFFFFFFFFFFFFFFF AND DUP5 PUSH20 0xFFFFFFFFFFFFFFFFFFFFFFFFFFFFFFFFFFFFFFFF AND EQ DUP1 PUSH2 0x175D JUMPI POP PUSH2 0x175C DUP2 DUP6 PUSH2 0x1505 JUMP JUMPDEST JUMPDEST DUP1 PUSH2 0x179B JUMPI POP DUP4 PUSH20 0xFFFFFFFFFFFFFFFFFFFFFFFFFFFFFFFFFFFFFFFF AND PUSH2 0x1783 DUP5 PUSH2 0x60D JUMP JUMPDEST PUSH20 0xFFFFFFFFFFFFFFFFFFFFFFFFFFFFFFFFFFFFFFFF AND EQ JUMPDEST SWAP2 POP POP SWAP3 SWAP2 POP POP JUMP JUMPDEST DUP3 PUSH20 0xFFFFFFFFFFFFFFFFFFFFFFFFFFFFFFFFFFFFFFFF AND PUSH2 0x17C4 DUP3 PUSH2 0xECE JUMP JUMPDEST PUSH20 0xFFFFFFFFFFFFFFFFFFFFFFFFFFFFFFFFFFFFFFFF AND EQ PUSH2 0x181A JUMPI PUSH1 0x40 MLOAD PUSH32 0x8C379A000000000000000000000000000000000000000000000000000000000 DUP2 MSTORE PUSH1 0x4 ADD PUSH2 0x1811 SWAP1 PUSH2 0x3AD5 JUMP JUMPDEST PUSH1 0x40 MLOAD DUP1 SWAP2 SUB SWAP1 REVERT JUMPDEST PUSH1 0x0 PUSH20 0xFFFFFFFFFFFFFFFFFFFFFFFFFFFFFFFFFFFFFFFF AND DUP3 PUSH20 0xFFFFFFFFFFFFFFFFFFFFFFFFFFFFFFFFFFFFFFFF AND SUB PUSH2 0x1889 JUMPI PUSH1 0x40 MLOAD PUSH32 0x8C379A000000000000000000000000000000000000000000000000000000000 DUP2 MSTORE PUSH1 0x4 ADD PUSH2 0x1880 SWAP1 PUSH2 0x3B67 JUMP JUMPDEST PUSH1 0x40 MLOAD DUP1 SWAP2 SUB SWAP1 REVERT JUMPDEST PUSH2 0x1896 DUP4 DUP4 DUP4 PUSH1 0x1 PUSH2 0x1EA4 JUMP JUMPDEST DUP3 PUSH20 0xFFFFFFFFFFFFFFFFFFFFFFFFFFFFFFFFFFFFFFFF AND PUSH2 0x18B6 DUP3 PUSH2 0xECE JUMP JUMPDEST PUSH20 0xFFFFFFFFFFFFFFFFFFFFFFFFFFFFFFFFFFFFFFFF AND EQ PUSH2 0x190C JUMPI PUSH1 0x40 MLOAD PUSH32 0x8C379A000000000000000000000000000000000000000000000000000000000 DUP2 MSTORE PUSH1 0x4 ADD PUSH2 0x1903 SWAP1 PUSH2 0x3AD5 JUMP JUMPDEST PUSH1 0x40 MLOAD DUP1 SWAP2 SUB SWAP1 REVERT JUMPDEST PUSH1 0x4 PUSH1 0x0 DUP3 DUP2 MSTORE PUSH1 0x20 ADD SWAP1 DUP2 MSTORE PUSH1 0x20 ADD PUSH1 0x0 KECCAK256 PUSH1 0x0 PUSH2 0x100 EXP DUP2 SLOAD SWAP1 PUSH20 0xFFFFFFFFFFFFFFFFFFFFFFFFFFFFFFFFFFFFFFFF MUL NOT AND SWAP1 SSTORE PUSH1 0x1 PUSH1 0x3 PUSH1 0x0 DUP6 PUSH20 0xFFFFFFFFFFFFFFFFFFFFFFFFFFFFFFFFFFFFFFFF AND PUSH20 0xFFFFFFFFFFFFFFFFFFFFFFFFFFFFFFFFFFFFFFFF AND DUP2 MSTORE PUSH1 0x20 ADD SWAP1 DUP2 MSTORE PUSH1 0x20 ADD PUSH1 0x0 KECCAK256 PUSH1 0x0 DUP3 DUP3 SLOAD SUB SWAP3 POP POP DUP2 SWAP1 SSTORE POP PUSH1 0x1 PUSH1 0x3 PUSH1 0x0 DUP5 PUSH20 0xFFFFFFFFFFFFFFFFFFFFFFFFFFFFFFFFFFFFFFFF AND PUSH20 0xFFFFFFFFFFFFFFFFFFFFFFFFFFFFFFFFFFFFFFFF AND DUP2 MSTORE PUSH1 0x20 ADD SWAP1 DUP2 MSTORE PUSH1 0x20 ADD PUSH1 0x0 KECCAK256 PUSH1 0x0 DUP3 DUP3 SLOAD ADD SWAP3 POP POP DUP2 SWAP1 SSTORE POP DUP2 PUSH1 0x2 PUSH1 0x0 DUP4 DUP2 MSTORE PUSH1 0x20 ADD SWAP1 DUP2 MSTORE PUSH1 0x20 ADD PUSH1 0x0 KECCAK256 PUSH1 0x0 PUSH2 0x100 EXP DUP2 SLOAD DUP2 PUSH20 0xFFFFFFFFFFFFFFFFFFFFFFFFFFFFFFFFFFFFFFFF MUL NOT AND SWAP1 DUP4 PUSH20 0xFFFFFFFFFFFFFFFFFFFFFFFFFFFFFFFFFFFFFFFF AND MUL OR SWAP1 SSTORE POP DUP1 DUP3 PUSH20 0xFFFFFFFFFFFFFFFFFFFFFFFFFFFFFFFFFFFFFFFF AND DUP5 PUSH20 0xFFFFFFFFFFFFFFFFFFFFFFFFFFFFFFFFFFFFFFFF AND PUSH32 0xDDF252AD1BE2C89B69C2B068FC378DAA952BA7F163C4A11628F55A4DF523B3EF PUSH1 0x40 MLOAD PUSH1 0x40 MLOAD DUP1 SWAP2 SUB SWAP1 LOG4 PUSH2 0x1A98 DUP4 DUP4 DUP4 PUSH1 0x1 PUSH2 0x1FCA JUMP JUMPDEST POP POP POP JUMP JUMPDEST PUSH1 0x0 DUP2 PUSH1 0x0 ADD SLOAD SWAP1 POP SWAP2 SWAP1 POP JUMP JUMPDEST PUSH1 0x1 DUP2 PUSH1 0x0 ADD PUSH1 0x0 DUP3 DUP3 SLOAD ADD SWAP3 POP POP DUP2 SWAP1 SSTORE POP POP JUMP JUMPDEST PUSH2 0x1ADB DUP3 DUP3 PUSH1 0x40 MLOAD DUP1 PUSH1 0x20 ADD PUSH1 0x40 MSTORE DUP1 PUSH1 0x0 DUP2 MSTORE POP PUSH2 0x1FD0 JUMP JUMPDEST POP POP JUMP JUMPDEST PUSH2 0x1AE8 DUP3 PUSH2 0x1E63 JUMP JUMPDEST PUSH2 0x1B27 JUMPI PUSH1 0x40 MLOAD PUSH32 0x8C379A000000000000000000000000000000000000000000000000000000000 DUP2 MSTORE PUSH1 0x4 ADD PUSH2 0x1B1E SWAP1 PUSH2 0x3BF9 JUMP JUMPDEST PUSH1 0x40 MLOAD DUP1 SWAP2 SUB SWAP1 REVERT JUMPDEST DUP1 PUSH1 0x6 PUSH1 0x0 DUP5 DUP2 MSTORE PUSH1 0x20 ADD SWAP1 DUP2 MSTORE PUSH1 0x20 ADD PUSH1 0x0 KECCAK256 SWAP1 DUP2 PUSH2 0x1B47 SWAP2 SWAP1 PUSH2 0x3545 JUMP JUMPDEST POP POP POP JUMP JUMPDEST PUSH1 0x0 PUSH1 0x2 PUSH1 0x0 DUP4 DUP2 MSTORE PUSH1 0x20 ADD SWAP1 DUP2 MSTORE PUSH1 0x20 ADD PUSH1 0x0 KECCAK256 PUSH1 0x0 SWAP1 SLOAD SWAP1 PUSH2 0x100 EXP SWAP1 DIV PUSH20 0xFFFFFFFFFFFFFFFFFFFFFFFFFFFFFFFFFFFFFFFF AND SWAP1 POP SWAP2 SWAP1 POP JUMP JUMPDEST DUP2 PUSH20 0xFFFFFFFFFFFFFFFFFFFFFFFFFFFFFFFFFFFFFFFF AND DUP4 PUSH20 0xFFFFFFFFFFFFFFFFFFFFFFFFFFFFFFFFFFFFFFFF AND SUB PUSH2 0x1BF7 JUMPI PUSH1 0x40 MLOAD PUSH32 0x8C379A000000000000000000000000000000000000000000000000000000000 DUP2 MSTORE PUSH1 0x4 ADD PUSH2 0x1BEE SWAP1 PUSH2 0x3C65 JUMP JUMPDEST PUSH1 0x40 MLOAD DUP1 SWAP2 SUB SWAP1 REVERT JUMPDEST DUP1 PUSH1 0x5 PUSH1 0x0 DUP6 PUSH20 0xFFFFFFFFFFFFFFFFFFFFFFFFFFFFFFFFFFFFFFFF AND PUSH20 0xFFFFFFFFFFFFFFFFFFFFFFFFFFFFFFFFFFFFFFFF AND DUP2 MSTORE PUSH1 0x20 ADD SWAP1 DUP2 MSTORE PUSH1 0x20 ADD PUSH1 0x0 KECCAK256 PUSH1 0x0 DUP5 PUSH20 0xFFFFFFFFFFFFFFFFFFFFFFFFFFFFFFFFFFFFFFFF AND PUSH20 0xFFFFFFFFFFFFFFFFFFFFFFFFFFFFFFFFFFFFFFFF AND DUP2 MSTORE PUSH1 0x20 ADD SWAP1 DUP2 MSTORE PUSH1 0x20 ADD PUSH1 0x0 KECCAK256 PUSH1 0x0 PUSH2 0x100 EXP DUP2 SLOAD DUP2 PUSH1 0xFF MUL NOT AND SWAP1 DUP4 ISZERO ISZERO MUL OR SWAP1 SSTORE POP DUP2 PUSH20 0xFFFFFFFFFFFFFFFFFFFFFFFFFFFFFFFFFFFFFFFF AND DUP4 PUSH20 0xFFFFFFFFFFFFFFFFFFFFFFFFFFFFFFFFFFFFFFFF AND PUSH32 0x17307EAB39AB6107E8899845AD3D59BD9653F200F220920489CA2B5937696C31 DUP4 PUSH1 0x40 MLOAD PUSH2 0x1CE8 SWAP2 SWAP1 PUSH2 0x27AB JUMP JUMPDEST PUSH1 0x40 MLOAD DUP1 SWAP2 SUB SWAP1 LOG3 POP POP POP JUMP JUMPDEST PUSH2 0x1D00 DUP5 DUP5 DUP5 PUSH2 0x17A4 JUMP JUMPDEST PUSH2 0x1D0C DUP5 DUP5 DUP5 DUP5 PUSH2 0x202B JUMP JUMPDEST PUSH2 0x1D4B JUMPI PUSH1 0x40 MLOAD PUSH32 0x8C379A000000000000000000000000000000000000000000000000000000000 DUP2 MSTORE PUSH1 0x4 ADD PUSH2 0x1D42 SWAP1 PUSH2 0x3CF7 JUMP JUMPDEST PUSH1 0x40 MLOAD DUP1 SWAP2 SUB SWAP1 REVERT JUMPDEST POP POP POP POP JUMP JUMPDEST PUSH1 0x60 PUSH2 0x1D5C DUP3 PUSH2 0x1603 JUMP JUMPDEST PUSH1 0x0 PUSH1 0x6 PUSH1 0x0 DUP5 DUP2 MSTORE PUSH1 0x20 ADD SWAP1 DUP2 MSTORE PUSH1 0x20 ADD PUSH1 0x0 KECCAK256 DUP1 SLOAD PUSH2 0x1D7C SWAP1 PUSH2 0x30A9 JUMP JUMPDEST DUP1 PUSH1 0x1F ADD PUSH1 0x20 DUP1 SWAP2 DIV MUL PUSH1 0x20 ADD PUSH1 0x40 MLOAD SWAP1 DUP2 ADD PUSH1 0x40 MSTORE DUP1 SWAP3 SWAP2 SWAP1 DUP2 DUP2 MSTORE PUSH1 0x20 ADD DUP3 DUP1 SLOAD PUSH2 0x1DA8 SWAP1 PUSH2 0x30A9 JUMP JUMPDEST DUP1 ISZERO PUSH2 0x1DF5 JUMPI DUP1 PUSH1 0x1F LT PUSH2 0x1DCA JUMPI PUSH2 0x100 DUP1 DUP4 SLOAD DIV MUL DUP4 MSTORE SWAP2 PUSH1 0x20 ADD SWAP2 PUSH2 0x1DF5 JUMP JUMPDEST DUP3 ADD SWAP2 SWAP1 PUSH1 0x0 MSTORE PUSH1 0x20 PUSH1 0x0 KECCAK256 SWAP1 JUMPDEST DUP2 SLOAD DUP2 MSTORE SWAP1 PUSH1 0x1 ADD SWAP1 PUSH1 0x20 ADD DUP1 DUP4 GT PUSH2 0x1DD8 JUMPI DUP3 SWAP1 SUB PUSH1 0x1F AND DUP3 ADD SWAP2 JUMPDEST POP POP POP POP POP SWAP1 POP PUSH1 0x0 PUSH2 0x1E06 PUSH2 0x21B2 JUMP JUMPDEST SWAP1 POP PUSH1 0x0 DUP2 MLOAD SUB PUSH2 0x1E1B JUMPI DUP2 SWAP3 POP POP POP PUSH2 0x1E5E JUMP JUMPDEST PUSH1 0x0 DUP3 MLOAD GT ISZERO PUSH2 0x1E50 JUMPI DUP1 DUP3 PUSH1 0x40 MLOAD PUSH1 0x20 ADD PUSH2 0x1E38 SWAP3 SWAP2 SWAP1 PUSH2 0x3D53 JUMP JUMPDEST PUSH1 0x40 MLOAD PUSH1 0x20 DUP2 DUP4 SUB SUB DUP2 MSTORE SWAP1 PUSH1 0x40 MSTORE SWAP3 POP POP POP PUSH2 0x1E5E JUMP JUMPDEST PUSH2 0x1E59 DUP5 PUSH2 0x21C9 JUMP JUMPDEST SWAP3 POP POP POP JUMPDEST SWAP2 SWAP1 POP JUMP JUMPDEST PUSH1 0x0 DUP1 PUSH20 0xFFFFFFFFFFFFFFFFFFFFFFFFFFFFFFFFFFFFFFFF AND PUSH2 0x1E85 DUP4 PUSH2 0x1B4C JUMP JUMPDEST PUSH20 0xFFFFFFFFFFFFFFFFFFFFFFFFFFFFFFFFFFFFFFFF AND EQ ISZERO SWAP1 POP SWAP2 SWAP1 POP JUMP JUMPDEST PUSH1 0x1 DUP2 GT ISZERO PUSH2 0x1FC4 JUMPI PUSH1 0x0 PUSH20 0xFFFFFFFFFFFFFFFFFFFFFFFFFFFFFFFFFFFFFFFF AND DUP5 PUSH20 0xFFFFFFFFFFFFFFFFFFFFFFFFFFFFFFFFFFFFFFFF AND EQ PUSH2 0x1F38 JUMPI DUP1 PUSH1 0x3 PUSH1 0x0 DUP7 PUSH20 0xFFFFFFFFFFFFFFFFFFFFFFFFFFFFFFFFFFFFFFFF AND PUSH20 0xFFFFFFFFFFFFFFFFFFFFFFFFFFFFFFFFFFFFFFFF AND DUP2 MSTORE PUSH1 0x20 ADD SWAP1 DUP2 MSTORE PUSH1 0x20 ADD PUSH1 0x0 KECCAK256 PUSH1 0x0 DUP3 DUP3 SLOAD PUSH2 0x1F30 SWAP2 SWAP1 PUSH2 0x364B JUMP JUMPDEST SWAP3 POP POP DUP2 SWAP1 SSTORE POP JUMPDEST PUSH1 0x0 PUSH20 0xFFFFFFFFFFFFFFFFFFFFFFFFFFFFFFFFFFFFFFFF AND DUP4 PUSH20 0xFFFFFFFFFFFFFFFFFFFFFFFFFFFFFFFFFFFFFFFF AND EQ PUSH2 0x1FC3 JUMPI DUP1 PUSH1 0x3 PUSH1 0x0 DUP6 PUSH20 0xFFFFFFFFFFFFFFFFFFFFFFFFFFFFFFFFFFFFFFFF AND PUSH20 0xFFFFFFFFFFFFFFFFFFFFFFFFFFFFFFFFFFFFFFFF AND DUP2 MSTORE PUSH1 0x20 ADD SWAP1 DUP2 MSTORE PUSH1 0x20 ADD PUSH1 0x0 KECCAK256 PUSH1 0x0 DUP3 DUP3 SLOAD PUSH2 0x1FBB SWAP2 SWAP1 PUSH2 0x3617 JUMP JUMPDEST SWAP3 POP POP DUP2 SWAP1 SSTORE POP JUMPDEST JUMPDEST POP POP POP POP JUMP JUMPDEST POP POP POP POP JUMP JUMPDEST PUSH2 0x1FDA DUP4 DUP4 PUSH2 0x2231 JUMP JUMPDEST PUSH2 0x1FE7 PUSH1 0x0 DUP5 DUP5 DUP5 PUSH2 0x202B JUMP JUMPDEST PUSH2 0x2026 JUMPI PUSH1 0x40 MLOAD PUSH32 0x8C379A000000000000000000000000000000000000000000000000000000000 DUP2 MSTORE PUSH1 0x4 ADD PUSH2 0x201D SWAP1 PUSH2 0x3CF7 JUMP JUMPDEST PUSH1 0x40 MLOAD DUP1 SWAP2 SUB SWAP1 REVERT JUMPDEST POP POP POP JUMP JUMPDEST PUSH1 0x0 PUSH2 0x204C DUP5 PUSH20 0xFFFFFFFFFFFFFFFFFFFFFFFFFFFFFFFFFFFFFFFF AND PUSH2 0x244E JUMP JUMPDEST ISZERO PUSH2 0x21A5 JUMPI DUP4 PUSH20 0xFFFFFFFFFFFFFFFFFFFFFFFFFFFFFFFFFFFFFFFF AND PUSH4 0x150B7A02 PUSH2 0x2075 PUSH2 0x164E JUMP JUMPDEST DUP8 DUP7 DUP7 PUSH1 0x40 MLOAD DUP6 PUSH4 0xFFFFFFFF AND PUSH1 0xE0 SHL DUP2 MSTORE PUSH1 0x4 ADD PUSH2 0x2097 SWAP5 SWAP4 SWAP3 SWAP2 SWAP1 PUSH2 0x3DCC JUMP JUMPDEST PUSH1 0x20 PUSH1 0x40 MLOAD DUP1 DUP4 SUB DUP2 PUSH1 0x0 DUP8 GAS CALL SWAP3 POP POP POP DUP1 ISZERO PUSH2 0x20D3 JUMPI POP PUSH1 0x40 MLOAD RETURNDATASIZE PUSH1 0x1F NOT PUSH1 0x1F DUP3 ADD AND DUP3 ADD DUP1 PUSH1 0x40 MSTORE POP DUP2 ADD SWAP1 PUSH2 0x20D0 SWAP2 SWAP1 PUSH2 0x3E2D JUMP JUMPDEST PUSH1 0x1 JUMPDEST PUSH2 0x2155 JUMPI RETURNDATASIZE DUP1 PUSH1 0x0 DUP2 EQ PUSH2 0x2103 JUMPI PUSH1 0x40 MLOAD SWAP2 POP PUSH1 0x1F NOT PUSH1 0x3F RETURNDATASIZE ADD AND DUP3 ADD PUSH1 0x40 MSTORE RETURNDATASIZE DUP3 MSTORE RETURNDATASIZE PUSH1 0x0 PUSH1 0x20 DUP5 ADD RETURNDATACOPY PUSH2 0x2108 JUMP JUMPDEST PUSH1 0x60 SWAP2 POP JUMPDEST POP PUSH1 0x0 DUP2 MLOAD SUB PUSH2 0x214D JUMPI PUSH1 0x40 MLOAD PUSH32 0x8C379A000000000000000000000000000000000000000000000000000000000 DUP2 MSTORE PUSH1 0x4 ADD PUSH2 0x2144 SWAP1 PUSH2 0x3CF7 JUMP JUMPDEST PUSH1 0x40 MLOAD DUP1 SWAP2 SUB SWAP1 REVERT JUMPDEST DUP1 MLOAD DUP2 PUSH1 0x20 ADD REVERT JUMPDEST PUSH4 0x150B7A02 PUSH1 0xE0 SHL PUSH28 0xFFFFFFFFFFFFFFFFFFFFFFFFFFFFFFFFFFFFFFFFFFFFFFFFFFFFFFFF NOT AND DUP2 PUSH28 0xFFFFFFFFFFFFFFFFFFFFFFFFFFFFFFFFFFFFFFFFFFFFFFFFFFFFFFFF NOT AND EQ SWAP2 POP POP PUSH2 0x21AA JUMP JUMPDEST PUSH1 0x1 SWAP1 POP JUMPDEST SWAP5 SWAP4 POP POP POP POP JUMP JUMPDEST PUSH1 0x60 PUSH1 0x40 MLOAD DUP1 PUSH1 0x20 ADD PUSH1 0x40 MSTORE DUP1 PUSH1 0x0 DUP2 MSTORE POP SWAP1 POP SWAP1 JUMP JUMPDEST PUSH1 0x60 PUSH2 0x21D4 DUP3 PUSH2 0x1603 JUMP JUMPDEST PUSH1 0x0 PUSH2 0x21DE PUSH2 0x21B2 JUMP JUMPDEST SWAP1 POP PUSH1 0x0 DUP2 MLOAD GT PUSH2 0x21FE JUMPI PUSH1 0x40 MLOAD DUP1 PUSH1 0x20 ADD PUSH1 0x40 MSTORE DUP1 PUSH1 0x0 DUP2 MSTORE POP PUSH2 0x2229 JUMP JUMPDEST DUP1 PUSH2 0x2208 DUP5 PUSH2 0x2471 JUMP JUMPDEST PUSH1 0x40 MLOAD PUSH1 0x20 ADD PUSH2 0x2219 SWAP3 SWAP2 SWAP1 PUSH2 0x3D53 JUMP JUMPDEST PUSH1 0x40 MLOAD PUSH1 0x20 DUP2 DUP4 SUB SUB DUP2 MSTORE SWAP1 PUSH1 0x40 MSTORE JUMPDEST SWAP2 POP POP SWAP2 SWAP1 POP JUMP JUMPDEST PUSH1 0x0 PUSH20 0xFFFFFFFFFFFFFFFFFFFFFFFFFFFFFFFFFFFFFFFF AND DUP3 PUSH20 0xFFFFFFFFFFFFFFFFFFFFFFFFFFFFFFFFFFFFFFFF AND SUB PUSH2 0x22A0 JUMPI PUSH1 0x40 MLOAD PUSH32 0x8C379A000000000000000000000000000000000000000000000000000000000 DUP2 MSTORE PUSH1 0x4 ADD PUSH2 0x2297 SWAP1 PUSH2 0x3EA6 JUMP JUMPDEST PUSH1 0x40 MLOAD DUP1 SWAP2 SUB SWAP1 REVERT JUMPDEST PUSH2 0x22A9 DUP2 PUSH2 0x1E63 JUMP JUMPDEST ISZERO PUSH2 0x22E9 JUMPI PUSH1 0x40 MLOAD PUSH32 0x8C379A000000000000000000000000000000000000000000000000000000000 DUP2 MSTORE PUSH1 0x4 ADD PUSH2 0x22E0 SWAP1 PUSH2 0x3F12 JUMP JUMPDEST PUSH1 0x40 MLOAD DUP1 SWAP2 SUB SWAP1 REVERT JUMPDEST PUSH2 0x22F7 PUSH1 0x0 DUP4 DUP4 PUSH1 0x1 PUSH2 0x1EA4 JUMP JUMPDEST PUSH2 0x2300 DUP2 PUSH2 0x1E63 JUMP JUMPDEST ISZERO PUSH2 0x2340 JUMPI PUSH1 0x40 MLOAD PUSH32 0x8C379A000000000000000000000000000000000000000000000000000000000 DUP2 MSTORE PUSH1 0x4 ADD PUSH2 0x2337 SWAP1 PUSH2 0x3F12 JUMP JUMPDEST PUSH1 0x40 MLOAD DUP1 SWAP2 SUB SWAP1 REVERT JUMPDEST PUSH1 0x1 PUSH1 0x3 PUSH1 0x0 DUP5 PUSH20 0xFFFFFFFFFFFFFFFFFFFFFFFFFFFFFFFFFFFFFFFF AND PUSH20 0xFFFFFFFFFFFFFFFFFFFFFFFFFFFFFFFFFFFFFFFF AND DUP2 MSTORE PUSH1 0x20 ADD SWAP1 DUP2 MSTORE PUSH1 0x20 ADD PUSH1 0x0 KECCAK256 PUSH1 0x0 DUP3 DUP3 SLOAD ADD SWAP3 POP POP DUP2 SWAP1 SSTORE POP DUP2 PUSH1 0x2 PUSH1 0x0 DUP4 DUP2 MSTORE PUSH1 0x20 ADD SWAP1 DUP2 MSTORE PUSH1 0x20 ADD PUSH1 0x0 KECCAK256 PUSH1 0x0 PUSH2 0x100 EXP DUP2 SLOAD DUP2 PUSH20 0xFFFFFFFFFFFFFFFFFFFFFFFFFFFFFFFFFFFFFFFF MUL NOT AND SWAP1 DUP4 PUSH20 0xFFFFFFFFFFFFFFFFFFFFFFFFFFFFFFFFFFFFFFFF AND MUL OR SWAP1 SSTORE POP DUP1 DUP3 PUSH20 0xFFFFFFFFFFFFFFFFFFFFFFFFFFFFFFFFFFFFFFFF AND PUSH1 0x0 PUSH20 0xFFFFFFFFFFFFFFFFFFFFFFFFFFFFFFFFFFFFFFFF AND PUSH32 0xDDF252AD1BE2C89B69C2B068FC378DAA952BA7F163C4A11628F55A4DF523B3EF PUSH1 0x40 MLOAD PUSH1 0x40 MLOAD DUP1 SWAP2 SUB SWAP1 LOG4 PUSH2 0x244A PUSH1 0x0 DUP4 DUP4 PUSH1 0x1 PUSH2 0x1FCA JUMP JUMPDEST POP POP JUMP JUMPDEST PUSH1 0x0 DUP1 DUP3 PUSH20 0xFFFFFFFFFFFFFFFFFFFFFFFFFFFFFFFFFFFFFFFF AND EXTCODESIZE GT SWAP1 POP SWAP2 SWAP1 POP JUMP JUMPDEST PUSH1 0x60 PUSH1 0x0 PUSH1 0x1 PUSH2 0x2480 DUP5 PUSH2 0x253F JUMP JUMPDEST ADD SWAP1 POP PUSH1 0x0 DUP2 PUSH8 0xFFFFFFFFFFFFFFFF DUP2 GT ISZERO PUSH2 0x249F JUMPI PUSH2 0x249E PUSH2 0x2A00 JUMP JUMPDEST JUMPDEST PUSH1 0x40 MLOAD SWAP1 DUP1 DUP3 MSTORE DUP1 PUSH1 0x1F ADD PUSH1 0x1F NOT AND PUSH1 0x20 ADD DUP3 ADD PUSH1 0x40 MSTORE DUP1 ISZERO PUSH2 0x24D1 JUMPI DUP2 PUSH1 0x20 ADD PUSH1 0x1 DUP3 MUL DUP1 CALLDATASIZE DUP4 CALLDATACOPY DUP1 DUP3 ADD SWAP2 POP POP SWAP1 POP JUMPDEST POP SWAP1 POP PUSH1 0x0 DUP3 PUSH1 0x20 ADD DUP3 ADD SWAP1 POP JUMPDEST PUSH1 0x1 ISZERO PUSH2 0x2534 JUMPI DUP1 DUP1 PUSH1 0x1 SWAP1 SUB SWAP2 POP POP PUSH32 0x3031323334353637383961626364656600000000000000000000000000000000 PUSH1 0xA DUP7 MOD BYTE DUP2 MSTORE8 PUSH1 0xA DUP6 DUP2 PUSH2 0x2528 JUMPI PUSH2 0x2527 PUSH2 0x3F32 JUMP JUMPDEST JUMPDEST DIV SWAP5 POP PUSH1 0x0 DUP6 SUB PUSH2 0x24DF JUMPI JUMPDEST DUP2 SWAP4 POP POP POP POP SWAP2 SWAP1 POP JUMP JUMPDEST PUSH1 0x0 DUP1 PUSH1 0x0 SWAP1 POP PUSH27 0x184F03E93FF9F4DAA797ED6E38ED64BF6A1F010000000000000000 DUP4 LT PUSH2 0x259D JUMPI PUSH27 0x184F03E93FF9F4DAA797ED6E38ED64BF6A1F010000000000000000 DUP4 DUP2 PUSH2 0x2593 JUMPI PUSH2 0x2592 PUSH2 0x3F32 JUMP JUMPDEST JUMPDEST DIV SWAP3 POP PUSH1 0x40 DUP2 ADD SWAP1 POP JUMPDEST PUSH14 0x4EE2D6D415B85ACEF8100000000 DUP4 LT PUSH2 0x25DA JUMPI PUSH14 0x4EE2D6D415B85ACEF8100000000 DUP4 DUP2 PUSH2 0x25D0 JUMPI PUSH2 0x25CF PUSH2 0x3F32 JUMP JUMPDEST JUMPDEST DIV SWAP3 POP PUSH1 0x20 DUP2 ADD SWAP1 POP JUMPDEST PUSH7 0x2386F26FC10000 DUP4 LT PUSH2 0x2609 JUMPI PUSH7 0x2386F26FC10000 DUP4 DUP2 PUSH2 0x25FF JUMPI PUSH2 0x25FE PUSH2 0x3F32 JUMP JUMPDEST JUMPDEST DIV SWAP3 POP PUSH1 0x10 DUP2 ADD SWAP1 POP JUMPDEST PUSH4 0x5F5E100 DUP4 LT PUSH2 0x2632 JUMPI PUSH4 0x5F5E100 DUP4 DUP2 PUSH2 0x2628 JUMPI PUSH2 0x2627 PUSH2 0x3F32 JUMP JUMPDEST JUMPDEST DIV SWAP3 POP PUSH1 0x8 DUP2 ADD SWAP1 POP JUMPDEST PUSH2 0x2710 DUP4 LT PUSH2 0x2657 JUMPI PUSH2 0x2710 DUP4 DUP2 PUSH2 0x264D JUMPI PUSH2 0x264C PUSH2 0x3F32 JUMP JUMPDEST JUMPDEST DIV SWAP3 POP PUSH1 0x4 DUP2 ADD SWAP1 POP JUMPDEST PUSH1 0x64 DUP4 LT PUSH2 0x267A JUMPI PUSH1 0x64 DUP4 DUP2 PUSH2 0x2670 JUMPI PUSH2 0x266F PUSH2 0x3F32 JUMP JUMPDEST JUMPDEST DIV SWAP3 POP PUSH1 0x2 DUP2 ADD SWAP1 POP JUMPDEST PUSH1 0xA DUP4 LT PUSH2 0x2689 JUMPI PUSH1 0x1 DUP2 ADD SWAP1 POP JUMPDEST DUP1 SWAP2 POP POP SWAP2 SWAP1 POP JUMP JUMPDEST PUSH1 0x40 MLOAD DUP1 PUSH1 0xE0 ADD PUSH1 0x40 MSTORE DUP1 PUSH1 0x0 DUP2 MSTORE PUSH1 0x20 ADD PUSH1 0x0 DUP2 MSTORE PUSH1 0x20 ADD PUSH1 0x0 PUSH20 0xFFFFFFFFFFFFFFFFFFFFFFFFFFFFFFFFFFFFFFFF AND DUP2 MSTORE PUSH1 0x20 ADD PUSH1 0x60 DUP2 MSTORE PUSH1 0x20 ADD PUSH1 0x60 DUP2 MSTORE PUSH1 0x20 ADD PUSH1 0x60 DUP2 MSTORE PUSH1 0x20 ADD PUSH1 0x0 PUSH1 0x2 DUP2 GT ISZERO PUSH2 0x26F1 JUMPI PUSH2 0x26F0 PUSH2 0x2D3D JUMP JUMPDEST JUMPDEST DUP2 MSTORE POP SWAP1 JUMP JUMPDEST PUSH1 0x0 PUSH1 0x40 MLOAD SWAP1 POP SWAP1 JUMP JUMPDEST PUSH1 0x0 DUP1 REVERT JUMPDEST PUSH1 0x0 DUP1 REVERT JUMPDEST PUSH1 0x0 PUSH32 0xFFFFFFFF00000000000000000000000000000000000000000000000000000000 DUP3 AND SWAP1 POP SWAP2 SWAP1 POP JUMP JUMPDEST PUSH2 0x2740 DUP2 PUSH2 0x270B JUMP JUMPDEST DUP2 EQ PUSH2 0x274B JUMPI PUSH1 0x0 DUP1 REVERT JUMPDEST POP JUMP JUMPDEST PUSH1 0x0 DUP2 CALLDATALOAD SWAP1 POP PUSH2 0x275D DUP2 PUSH2 0x2737 JUMP JUMPDEST SWAP3 SWAP2 POP POP JUMP JUMPDEST PUSH1 0x0 PUSH1 0x20 DUP3 DUP5 SUB SLT ISZERO PUSH2 0x2779 JUMPI PUSH2 0x2778 PUSH2 0x2701 JUMP JUMPDEST JUMPDEST PUSH1 0x0 PUSH2 0x2787 DUP5 DUP3 DUP6 ADD PUSH2 0x274E JUMP JUMPDEST SWAP2 POP POP SWAP3 SWAP2 POP POP JUMP JUMPDEST PUSH1 0x0 DUP2 ISZERO ISZERO SWAP1 POP SWAP2 SWAP1 POP JUMP JUMPDEST PUSH2 0x27A5 DUP2 PUSH2 0x2790 JUMP JUMPDEST DUP3 MSTORE POP POP JUMP JUMPDEST PUSH1 0x0 PUSH1 0x20 DUP3 ADD SWAP1 POP PUSH2 0x27C0 PUSH1 0x0 DUP4 ADD DUP5 PUSH2 0x279C JUMP JUMPDEST SWAP3 SWAP2 POP POP JUMP JUMPDEST PUSH1 0x0 DUP2 MLOAD SWAP1 POP SWAP2 SWAP1 POP JUMP JUMPDEST PUSH1 0x0 DUP3 DUP3 MSTORE PUSH1 0x20 DUP3 ADD SWAP1 POP SWAP3 SWAP2 POP POP JUMP JUMPDEST PUSH1 0x0 JUMPDEST DUP4 DUP2 LT ISZERO PUSH2 0x2800 JUMPI DUP1 DUP3 ADD MLOAD DUP2 DUP5 ADD MSTORE PUSH1 0x20 DUP2 ADD SWAP1 POP PUSH2 0x27E5 JUMP JUMPDEST PUSH1 0x0 DUP5 DUP5 ADD MSTORE POP POP POP POP JUMP JUMPDEST PUSH1 0x0 PUSH1 0x1F NOT PUSH1 0x1F DUP4 ADD AND SWAP1 POP SWAP2 SWAP1 POP JUMP JUMPDEST PUSH1 0x0 PUSH2 0x2828 DUP3 PUSH2 0x27C6 JUMP JUMPDEST PUSH2 0x2832 DUP2 DUP6 PUSH2 0x27D1 JUMP JUMPDEST SWAP4 POP PUSH2 0x2842 DUP2 DUP6 PUSH1 0x20 DUP7 ADD PUSH2 0x27E2 JUMP JUMPDEST PUSH2 0x284B DUP2 PUSH2 0x280C JUMP JUMPDEST DUP5 ADD SWAP2 POP POP SWAP3 SWAP2 POP POP JUMP JUMPDEST PUSH1 0x0 PUSH1 0x20 DUP3 ADD SWAP1 POP DUP2 DUP2 SUB PUSH1 0x0 DUP4 ADD MSTORE PUSH2 0x2870 DUP2 DUP5 PUSH2 0x281D JUMP JUMPDEST SWAP1 POP SWAP3 SWAP2 POP POP JUMP JUMPDEST PUSH1 0x0 DUP2 SWAP1 POP SWAP2 SWAP1 POP JUMP JUMPDEST PUSH2 0x288B DUP2 PUSH2 0x2878 JUMP JUMPDEST DUP2 EQ PUSH2 0x2896 JUMPI PUSH1 0x0 DUP1 REVERT JUMPDEST POP JUMP JUMPDEST PUSH1 0x0 DUP2 CALLDATALOAD SWAP1 POP PUSH2 0x28A8 DUP2 PUSH2 0x2882 JUMP JUMPDEST SWAP3 SWAP2 POP POP JUMP JUMPDEST PUSH1 0x0 PUSH1 0x20 DUP3 DUP5 SUB SLT ISZERO PUSH2 0x28C4 JUMPI PUSH2 0x28C3 PUSH2 0x2701 JUMP JUMPDEST JUMPDEST PUSH1 0x0 PUSH2 0x28D2 DUP5 DUP3 DUP6 ADD PUSH2 0x2899 JUMP JUMPDEST SWAP2 POP POP SWAP3 SWAP2 POP POP JUMP JUMPDEST PUSH1 0x0 PUSH20 0xFFFFFFFFFFFFFFFFFFFFFFFFFFFFFFFFFFFFFFFF DUP3 AND SWAP1 POP SWAP2 SWAP1 POP JUMP JUMPDEST PUSH1 0x0 PUSH2 0x2906 DUP3 PUSH2 0x28DB JUMP JUMPDEST SWAP1 POP SWAP2 SWAP1 POP JUMP JUMPDEST PUSH2 0x2916 DUP2 PUSH2 0x28FB JUMP JUMPDEST DUP3 MSTORE POP POP JUMP JUMPDEST PUSH1 0x0 PUSH1 0x20 DUP3 ADD SWAP1 POP PUSH2 0x2931 PUSH1 0x0 DUP4 ADD DUP5 PUSH2 0x290D JUMP JUMPDEST SWAP3 SWAP2 POP POP JUMP JUMPDEST PUSH2 0x2940 DUP2 PUSH2 0x28FB JUMP JUMPDEST DUP2 EQ PUSH2 0x294B JUMPI PUSH1 0x0 DUP1 REVERT JUMPDEST POP JUMP JUMPDEST PUSH1 0x0 DUP2 CALLDATALOAD SWAP1 POP PUSH2 0x295D DUP2 PUSH2 0x2937 JUMP JUMPDEST SWAP3 SWAP2 POP POP JUMP JUMPDEST PUSH1 0x0 DUP1 PUSH1 0x40 DUP4 DUP6 SUB SLT ISZERO PUSH2 0x297A JUMPI PUSH2 0x2979 PUSH2 0x2701 JUMP JUMPDEST JUMPDEST PUSH1 0x0 PUSH2 0x2988 DUP6 DUP3 DUP7 ADD PUSH2 0x294E JUMP JUMPDEST SWAP3 POP POP PUSH1 0x20 PUSH2 0x2999 DUP6 DUP3 DUP7 ADD PUSH2 0x2899 JUMP JUMPDEST SWAP2 POP POP SWAP3 POP SWAP3 SWAP1 POP JUMP JUMPDEST PUSH1 0x0 DUP1 PUSH1 0x0 PUSH1 0x60 DUP5 DUP7 SUB SLT ISZERO PUSH2 0x29BC JUMPI PUSH2 0x29BB PUSH2 0x2701 JUMP JUMPDEST JUMPDEST PUSH1 0x0 PUSH2 0x29CA DUP7 DUP3 DUP8 ADD PUSH2 0x294E JUMP JUMPDEST SWAP4 POP POP PUSH1 0x20 PUSH2 0x29DB DUP7 DUP3 DUP8 ADD PUSH2 0x294E JUMP JUMPDEST SWAP3 POP POP PUSH1 0x40 PUSH2 0x29EC DUP7 DUP3 DUP8 ADD PUSH2 0x2899 JUMP JUMPDEST SWAP2 POP POP SWAP3 POP SWAP3 POP SWAP3 JUMP JUMPDEST PUSH1 0x0 DUP1 REVERT JUMPDEST PUSH1 0x0 DUP1 REVERT JUMPDEST PUSH32 0x4E487B7100000000000000000000000000000000000000000000000000000000 PUSH1 0x0 MSTORE PUSH1 0x41 PUSH1 0x4 MSTORE PUSH1 0x24 PUSH1 0x0 REVERT JUMPDEST PUSH2 0x2A38 DUP3 PUSH2 0x280C JUMP JUMPDEST DUP2 ADD DUP2 DUP2 LT PUSH8 0xFFFFFFFFFFFFFFFF DUP3 GT OR ISZERO PUSH2 0x2A57 JUMPI PUSH2 0x2A56 PUSH2 0x2A00 JUMP JUMPDEST JUMPDEST DUP1 PUSH1 0x40 MSTORE POP POP POP JUMP JUMPDEST PUSH1 0x0 PUSH2 0x2A6A PUSH2 0x26F7 JUMP JUMPDEST SWAP1 POP PUSH2 0x2A76 DUP3 DUP3 PUSH2 0x2A2F JUMP JUMPDEST SWAP2 SWAP1 POP JUMP JUMPDEST PUSH1 0x0 PUSH8 0xFFFFFFFFFFFFFFFF DUP3 GT ISZERO PUSH2 0x2A96 JUMPI PUSH2 0x2A95 PUSH2 0x2A00 JUMP JUMPDEST JUMPDEST PUSH2 0x2A9F DUP3 PUSH2 0x280C JUMP JUMPDEST SWAP1 POP PUSH1 0x20 DUP2 ADD SWAP1 POP SWAP2 SWAP1 POP JUMP JUMPDEST DUP3 DUP2 DUP4 CALLDATACOPY PUSH1 0x0 DUP4 DUP4 ADD MSTORE POP POP POP JUMP JUMPDEST PUSH1 0x0 PUSH2 0x2ACE PUSH2 0x2AC9 DUP5 PUSH2 0x2A7B JUMP JUMPDEST PUSH2 0x2A60 JUMP JUMPDEST SWAP1 POP DUP3 DUP2 MSTORE PUSH1 0x20 DUP2 ADD DUP5 DUP5 DUP5 ADD GT ISZERO PUSH2 0x2AEA JUMPI PUSH2 0x2AE9 PUSH2 0x29FB JUMP JUMPDEST JUMPDEST PUSH2 0x2AF5 DUP5 DUP3 DUP6 PUSH2 0x2AAC JUMP JUMPDEST POP SWAP4 SWAP3 POP POP POP JUMP JUMPDEST PUSH1 0x0 DUP3 PUSH1 0x1F DUP4 ADD SLT PUSH2 0x2B12 JUMPI PUSH2 0x2B11 PUSH2 0x29F6 JUMP JUMPDEST JUMPDEST DUP2 CALLDATALOAD PUSH2 0x2B22 DUP5 DUP3 PUSH1 0x20 DUP7 ADD PUSH2 0x2ABB JUMP JUMPDEST SWAP2 POP POP SWAP3 SWAP2 POP POP JUMP JUMPDEST PUSH1 0x0 DUP1 PUSH1 0x0 DUP1 PUSH1 0x80 DUP6 DUP8 SUB SLT ISZERO PUSH2 0x2B45 JUMPI PUSH2 0x2B44 PUSH2 0x2701 JUMP JUMPDEST JUMPDEST PUSH1 0x0 DUP6 ADD CALLDATALOAD PUSH8 0xFFFFFFFFFFFFFFFF DUP2 GT ISZERO PUSH2 0x2B63 JUMPI PUSH2 0x2B62 PUSH2 0x2706 JUMP JUMPDEST JUMPDEST PUSH2 0x2B6F DUP8 DUP3 DUP9 ADD PUSH2 0x2AFD JUMP JUMPDEST SWAP5 POP POP PUSH1 0x20 DUP6 ADD CALLDATALOAD PUSH8 0xFFFFFFFFFFFFFFFF DUP2 GT ISZERO PUSH2 0x2B90 JUMPI PUSH2 0x2B8F PUSH2 0x2706 JUMP JUMPDEST JUMPDEST PUSH2 0x2B9C DUP8 DUP3 DUP9 ADD PUSH2 0x2AFD JUMP JUMPDEST SWAP4 POP POP PUSH1 0x40 DUP6 ADD CALLDATALOAD PUSH8 0xFFFFFFFFFFFFFFFF DUP2 GT ISZERO PUSH2 0x2BBD JUMPI PUSH2 0x2BBC PUSH2 0x2706 JUMP JUMPDEST JUMPDEST PUSH2 0x2BC9 DUP8 DUP3 DUP9 ADD PUSH2 0x2AFD JUMP JUMPDEST SWAP3 POP POP PUSH1 0x60 PUSH2 0x2BDA DUP8 DUP3 DUP9 ADD PUSH2 0x2899 JUMP JUMPDEST SWAP2 POP POP SWAP3 SWAP6 SWAP2 SWAP5 POP SWAP3 POP JUMP JUMPDEST PUSH2 0x2BEF DUP2 PUSH2 0x2878 JUMP JUMPDEST DUP3 MSTORE POP POP JUMP JUMPDEST PUSH1 0x0 PUSH1 0x20 DUP3 ADD SWAP1 POP PUSH2 0x2C0A PUSH1 0x0 DUP4 ADD DUP5 PUSH2 0x2BE6 JUMP JUMPDEST SWAP3 SWAP2 POP POP JUMP JUMPDEST PUSH1 0x0 PUSH1 0x20 DUP3 DUP5 SUB SLT ISZERO PUSH2 0x2C26 JUMPI PUSH2 0x2C25 PUSH2 0x2701 JUMP JUMPDEST JUMPDEST PUSH1 0x0 PUSH2 0x2C34 DUP5 DUP3 DUP6 ADD PUSH2 0x294E JUMP JUMPDEST SWAP2 POP POP SWAP3 SWAP2 POP POP JUMP JUMPDEST PUSH2 0x2C46 DUP2 PUSH2 0x2790 JUMP JUMPDEST DUP2 EQ PUSH2 0x2C51 JUMPI PUSH1 0x0 DUP1 REVERT JUMPDEST POP JUMP JUMPDEST PUSH1 0x0 DUP2 CALLDATALOAD SWAP1 POP PUSH2 0x2C63 DUP2 PUSH2 0x2C3D JUMP JUMPDEST SWAP3 SWAP2 POP POP JUMP JUMPDEST PUSH1 0x0 DUP1 PUSH1 0x40 DUP4 DUP6 SUB SLT ISZERO PUSH2 0x2C80 JUMPI PUSH2 0x2C7F PUSH2 0x2701 JUMP JUMPDEST JUMPDEST PUSH1 0x0 PUSH2 0x2C8E DUP6 DUP3 DUP7 ADD PUSH2 0x294E JUMP JUMPDEST SWAP3 POP POP PUSH1 0x20 PUSH2 0x2C9F DUP6 DUP3 DUP7 ADD PUSH2 0x2C54 JUMP JUMPDEST SWAP2 POP POP SWAP3 POP SWAP3 SWAP1 POP JUMP JUMPDEST PUSH1 0x0 DUP2 MLOAD SWAP1 POP SWAP2 SWAP1 POP JUMP JUMPDEST PUSH1 0x0 DUP3 DUP3 MSTORE PUSH1 0x20 DUP3 ADD SWAP1 POP SWAP3 SWAP2 POP POP JUMP JUMPDEST PUSH1 0x0 DUP2 SWAP1 POP PUSH1 0x20 DUP3 ADD SWAP1 POP SWAP2 SWAP1 POP JUMP JUMPDEST PUSH2 0x2CDE DUP2 PUSH2 0x2878 JUMP JUMPDEST DUP3 MSTORE POP POP JUMP JUMPDEST PUSH2 0x2CED DUP2 PUSH2 0x28FB JUMP JUMPDEST DUP3 MSTORE POP POP JUMP JUMPDEST PUSH1 0x0 DUP3 DUP3 MSTORE PUSH1 0x20 DUP3 ADD SWAP1 POP SWAP3 SWAP2 POP POP JUMP JUMPDEST PUSH1 0x0 PUSH2 0x2D0F DUP3 PUSH2 0x27C6 JUMP JUMPDEST PUSH2 0x2D19 DUP2 DUP6 PUSH2 0x2CF3 JUMP JUMPDEST SWAP4 POP PUSH2 0x2D29 DUP2 DUP6 PUSH1 0x20 DUP7 ADD PUSH2 0x27E2 JUMP JUMPDEST PUSH2 0x2D32 DUP2 PUSH2 0x280C JUMP JUMPDEST DUP5 ADD SWAP2 POP POP SWAP3 SWAP2 POP POP JUMP JUMPDEST PUSH32 0x4E487B7100000000000000000000000000000000000000000000000000000000 PUSH1 0x0 MSTORE PUSH1 0x21 PUSH1 0x4 MSTORE PUSH1 0x24 PUSH1 0x0 REVERT JUMPDEST PUSH1 0x3 DUP2 LT PUSH2 0x2D7D JUMPI PUSH2 0x2D7C PUSH2 0x2D3D JUMP JUMPDEST JUMPDEST POP JUMP JUMPDEST PUSH1 0x0 DUP2 SWAP1 POP PUSH2 0x2D8E DUP3 PUSH2 0x2D6C JUMP JUMPDEST SWAP2 SWAP1 POP JUMP JUMPDEST PUSH1 0x0 PUSH2 0x2D9E DUP3 PUSH2 0x2D80 JUMP JUMPDEST SWAP1 POP SWAP2 SWAP1 POP JUMP JUMPDEST PUSH2 0x2DAE DUP2 PUSH2 0x2D93 JUMP JUMPDEST DUP3 MSTORE POP POP JUMP JUMPDEST PUSH1 0x0 PUSH1 0xE0 DUP4 ADD PUSH1 0x0 DUP4 ADD MLOAD PUSH2 0x2DCC PUSH1 0x0 DUP7 ADD DUP3 PUSH2 0x2CD5 JUMP JUMPDEST POP PUSH1 0x20 DUP4 ADD MLOAD PUSH2 0x2DDF PUSH1 0x20 DUP7 ADD DUP3 PUSH2 0x2CD5 JUMP JUMPDEST POP PUSH1 0x40 DUP4 ADD MLOAD PUSH2 0x2DF2 PUSH1 0x40 DUP7 ADD DUP3 PUSH2 0x2CE4 JUMP JUMPDEST POP PUSH1 0x60 DUP4 ADD MLOAD DUP5 DUP3 SUB PUSH1 0x60 DUP7 ADD MSTORE PUSH2 0x2E0A DUP3 DUP3 PUSH2 0x2D04 JUMP JUMPDEST SWAP2 POP POP PUSH1 0x80 DUP4 ADD MLOAD DUP5 DUP3 SUB PUSH1 0x80 DUP7 ADD MSTORE PUSH2 0x2E24 DUP3 DUP3 PUSH2 0x2D04 JUMP JUMPDEST SWAP2 POP POP PUSH1 0xA0 DUP4 ADD MLOAD DUP5 DUP3 SUB PUSH1 0xA0 DUP7 ADD MSTORE PUSH2 0x2E3E DUP3 DUP3 PUSH2 0x2D04 JUMP JUMPDEST SWAP2 POP POP PUSH1 0xC0 DUP4 ADD MLOAD PUSH2 0x2E53 PUSH1 0xC0 DUP7 ADD DUP3 PUSH2 0x2DA5 JUMP JUMPDEST POP DUP1 SWAP2 POP POP SWAP3 SWAP2 POP POP JUMP JUMPDEST PUSH1 0x0 PUSH2 0x2E6A DUP4 DUP4 PUSH2 0x2DB4 JUMP JUMPDEST SWAP1 POP SWAP3 SWAP2 POP POP JUMP JUMPDEST PUSH1 0x0 PUSH1 0x20 DUP3 ADD SWAP1 POP SWAP2 SWAP1 POP JUMP JUMPDEST PUSH1 0x0 PUSH2 0x2E8A DUP3 PUSH2 0x2CA9 JUMP JUMPDEST PUSH2 0x2E94 DUP2 DUP6 PUSH2 0x2CB4 JUMP JUMPDEST SWAP4 POP DUP4 PUSH1 0x20 DUP3 MUL DUP6 ADD PUSH2 0x2EA6 DUP6 PUSH2 0x2CC5 JUMP JUMPDEST DUP1 PUSH1 0x0 JUMPDEST DUP6 DUP2 LT ISZERO PUSH2 0x2EE2 JUMPI DUP5 DUP5 SUB DUP10 MSTORE DUP2 MLOAD PUSH2 0x2EC3 DUP6 DUP3 PUSH2 0x2E5E JUMP JUMPDEST SWAP5 POP PUSH2 0x2ECE DUP4 PUSH2 0x2E72 JUMP JUMPDEST SWAP3 POP PUSH1 0x20 DUP11 ADD SWAP10 POP POP PUSH1 0x1 DUP2 ADD SWAP1 POP PUSH2 0x2EAA JUMP JUMPDEST POP DUP3 SWAP8 POP DUP8 SWAP6 POP POP POP POP POP POP SWAP3 SWAP2 POP POP JUMP JUMPDEST PUSH1 0x0 PUSH1 0x20 DUP3 ADD SWAP1 POP DUP2 DUP2 SUB PUSH1 0x0 DUP4 ADD MSTORE PUSH2 0x2F0E DUP2 DUP5 PUSH2 0x2E7F JUMP JUMPDEST SWAP1 POP SWAP3 SWAP2 POP POP JUMP JUMPDEST PUSH1 0x0 PUSH8 0xFFFFFFFFFFFFFFFF DUP3 GT ISZERO PUSH2 0x2F31 JUMPI PUSH2 0x2F30 PUSH2 0x2A00 JUMP JUMPDEST JUMPDEST PUSH2 0x2F3A DUP3 PUSH2 0x280C JUMP JUMPDEST SWAP1 POP PUSH1 0x20 DUP2 ADD SWAP1 POP SWAP2 SWAP1 POP JUMP JUMPDEST PUSH1 0x0 PUSH2 0x2F5A PUSH2 0x2F55 DUP5 PUSH2 0x2F16 JUMP JUMPDEST PUSH2 0x2A60 JUMP JUMPDEST SWAP1 POP DUP3 DUP2 MSTORE PUSH1 0x20 DUP2 ADD DUP5 DUP5 DUP5 ADD GT ISZERO PUSH2 0x2F76 JUMPI PUSH2 0x2F75 PUSH2 0x29FB JUMP JUMPDEST JUMPDEST PUSH2 0x2F81 DUP5 DUP3 DUP6 PUSH2 0x2AAC JUMP JUMPDEST POP SWAP4 SWAP3 POP POP POP JUMP JUMPDEST PUSH1 0x0 DUP3 PUSH1 0x1F DUP4 ADD SLT PUSH2 0x2F9E JUMPI PUSH2 0x2F9D PUSH2 0x29F6 JUMP JUMPDEST JUMPDEST DUP2 CALLDATALOAD PUSH2 0x2FAE DUP5 DUP3 PUSH1 0x20 DUP7 ADD PUSH2 0x2F47 JUMP JUMPDEST SWAP2 POP POP SWAP3 SWAP2 POP POP JUMP JUMPDEST PUSH1 0x0 DUP1 PUSH1 0x0 DUP1 PUSH1 0x80 DUP6 DUP8 SUB SLT ISZERO PUSH2 0x2FD1 JUMPI PUSH2 0x2FD0 PUSH2 0x2701 JUMP JUMPDEST JUMPDEST PUSH1 0x0 PUSH2 0x2FDF DUP8 DUP3 DUP9 ADD PUSH2 0x294E JUMP JUMPDEST SWAP5 POP POP PUSH1 0x20 PUSH2 0x2FF0 DUP8 DUP3 DUP9 ADD PUSH2 0x294E JUMP JUMPDEST SWAP4 POP POP PUSH1 0x40 PUSH2 0x3001 DUP8 DUP3 DUP9 ADD PUSH2 0x2899 JUMP JUMPDEST SWAP3 POP POP PUSH1 0x60 DUP6 ADD CALLDATALOAD PUSH8 0xFFFFFFFFFFFFFFFF DUP2 GT ISZERO PUSH2 0x3022 JUMPI PUSH2 0x3021 PUSH2 0x2706 JUMP JUMPDEST JUMPDEST PUSH2 0x302E DUP8 DUP3 DUP9 ADD PUSH2 0x2F89 JUMP JUMPDEST SWAP2 POP POP SWAP3 SWAP6 SWAP2 SWAP5 POP SWAP3 POP JUMP JUMPDEST PUSH1 0x0 DUP1 PUSH1 0x40 DUP4 DUP6 SUB SLT ISZERO PUSH2 0x3051 JUMPI PUSH2 0x3050 PUSH2 0x2701 JUMP JUMPDEST JUMPDEST PUSH1 0x0 PUSH2 0x305F DUP6 DUP3 DUP7 ADD PUSH2 0x294E JUMP JUMPDEST SWAP3 POP POP PUSH1 0x20 PUSH2 0x3070 DUP6 DUP3 DUP7 ADD PUSH2 0x294E JUMP JUMPDEST SWAP2 POP POP SWAP3 POP SWAP3 SWAP1 POP JUMP JUMPDEST PUSH32 0x4E487B7100000000000000000000000000000000000000000000000000000000 PUSH1 0x0 MSTORE PUSH1 0x22 PUSH1 0x4 MSTORE PUSH1 0x24 PUSH1 0x0 REVERT JUMPDEST PUSH1 0x0 PUSH1 0x2 DUP3 DIV SWAP1 POP PUSH1 0x1 DUP3 AND DUP1 PUSH2 0x30C1 JUMPI PUSH1 0x7F DUP3 AND SWAP2 POP JUMPDEST PUSH1 0x20 DUP3 LT DUP2 SUB PUSH2 0x30D4 JUMPI PUSH2 0x30D3 PUSH2 0x307A JUMP JUMPDEST JUMPDEST POP SWAP2 SWAP1 POP JUMP JUMPDEST PUSH32 0x4552433732313A20617070726F76616C20746F2063757272656E74206F776E65 PUSH1 0x0 DUP3 ADD MSTORE PUSH32 0x7200000000000000000000000000000000000000000000000000000000000000 PUSH1 0x20 DUP3 ADD MSTORE POP JUMP JUMPDEST PUSH1 0x0 PUSH2 0x3136 PUSH1 0x21 DUP4 PUSH2 0x27D1 JUMP JUMPDEST SWAP2 POP PUSH2 0x3141 DUP3 PUSH2 0x30DA JUMP JUMPDEST PUSH1 0x40 DUP3 ADD SWAP1 POP SWAP2 SWAP1 POP JUMP JUMPDEST PUSH1 0x0 PUSH1 0x20 DUP3 ADD SWAP1 POP DUP2 DUP2 SUB PUSH1 0x0 DUP4 ADD MSTORE PUSH2 0x3165 DUP2 PUSH2 0x3129 JUMP JUMPDEST SWAP1 POP SWAP2 SWAP1 POP JUMP JUMPDEST PUSH32 0x4552433732313A20617070726F76652063616C6C6572206973206E6F7420746F PUSH1 0x0 DUP3 ADD MSTORE PUSH32 0x6B656E206F776E6572206F7220617070726F76656420666F7220616C6C000000 PUSH1 0x20 DUP3 ADD MSTORE POP JUMP JUMPDEST PUSH1 0x0 PUSH2 0x31C8 PUSH1 0x3D DUP4 PUSH2 0x27D1 JUMP JUMPDEST SWAP2 POP PUSH2 0x31D3 DUP3 PUSH2 0x316C JUMP JUMPDEST PUSH1 0x40 DUP3 ADD SWAP1 POP SWAP2 SWAP1 POP JUMP JUMPDEST PUSH1 0x0 PUSH1 0x20 DUP3 ADD SWAP1 POP DUP2 DUP2 SUB PUSH1 0x0 DUP4 ADD MSTORE PUSH2 0x31F7 DUP2 PUSH2 0x31BB JUMP JUMPDEST SWAP1 POP SWAP2 SWAP1 POP JUMP JUMPDEST PUSH32 0x4552433732313A2063616C6C6572206973206E6F7420746F6B656E206F776E65 PUSH1 0x0 DUP3 ADD MSTORE PUSH32 0x72206F7220617070726F76656400000000000000000000000000000000000000 PUSH1 0x20 DUP3 ADD MSTORE POP JUMP JUMPDEST PUSH1 0x0 PUSH2 0x325A PUSH1 0x2D DUP4 PUSH2 0x27D1 JUMP JUMPDEST SWAP2 POP PUSH2 0x3265 DUP3 PUSH2 0x31FE JUMP JUMPDEST PUSH1 0x40 DUP3 ADD SWAP1 POP SWAP2 SWAP1 POP JUMP JUMPDEST PUSH1 0x0 PUSH1 0x20 DUP3 ADD SWAP1 POP DUP2 DUP2 SUB PUSH1 0x0 DUP4 ADD MSTORE PUSH2 0x3289 DUP2 PUSH2 0x324D JUMP JUMPDEST SWAP1 POP SWAP2 SWAP1 POP JUMP JUMPDEST PUSH32 0x6D696E696D756D2070726963652073686F756C64206265206772656174657220 PUSH1 0x0 DUP3 ADD MSTORE PUSH32 0x7468616E206D696E742050726963650000000000000000000000000000000000 PUSH1 0x20 DUP3 ADD MSTORE POP JUMP JUMPDEST PUSH1 0x0 PUSH2 0x32EC PUSH1 0x2F DUP4 PUSH2 0x27D1 JUMP JUMPDEST SWAP2 POP PUSH2 0x32F7 DUP3 PUSH2 0x3290 JUMP JUMPDEST PUSH1 0x40 DUP3 ADD SWAP1 POP SWAP2 SWAP1 POP JUMP JUMPDEST PUSH1 0x0 PUSH1 0x20 DUP3 ADD SWAP1 POP DUP2 DUP2 SUB PUSH1 0x0 DUP4 ADD MSTORE PUSH2 0x331B DUP2 PUSH2 0x32DF JUMP JUMPDEST SWAP1 POP SWAP2 SWAP1 POP JUMP JUMPDEST PUSH32 0x4E487B7100000000000000000000000000000000000000000000000000000000 PUSH1 0x0 MSTORE PUSH1 0x11 PUSH1 0x4 MSTORE PUSH1 0x24 PUSH1 0x0 REVERT JUMPDEST PUSH1 0x0 PUSH2 0x335C DUP3 PUSH2 0x2878 JUMP JUMPDEST SWAP2 POP PUSH32 0xFFFFFFFFFFFFFFFFFFFFFFFFFFFFFFFFFFFFFFFFFFFFFFFFFFFFFFFFFFFFFFFF DUP3 SUB PUSH2 0x338E JUMPI PUSH2 0x338D PUSH2 0x3322 JUMP JUMPDEST JUMPDEST PUSH1 0x1 DUP3 ADD SWAP1 POP SWAP2 SWAP1 POP JUMP JUMPDEST PUSH1 0x0 DUP2 SWAP1 POP DUP2 PUSH1 0x0 MSTORE PUSH1 0x20 PUSH1 0x0 KECCAK256 SWAP1 POP SWAP2 SWAP1 POP JUMP JUMPDEST PUSH1 0x0 PUSH1 0x20 PUSH1 0x1F DUP4 ADD DIV SWAP1 POP SWAP2 SWAP1 POP JUMP JUMPDEST PUSH1 0x0 DUP3 DUP3 SHL SWAP1 POP SWAP3 SWAP2 POP POP JUMP JUMPDEST PUSH1 0x0 PUSH1 0x8 DUP4 MUL PUSH2 0x33FB PUSH32 0xFFFFFFFFFFFFFFFFFFFFFFFFFFFFFFFFFFFFFFFFFFFFFFFFFFFFFFFFFFFFFFFF DUP3 PUSH2 0x33BE JUMP JUMPDEST PUSH2 0x3405 DUP7 DUP4 PUSH2 0x33BE JUMP JUMPDEST SWAP6 POP DUP1 NOT DUP5 AND SWAP4 POP DUP1 DUP7 AND DUP5 OR SWAP3 POP POP POP SWAP4 SWAP3 POP POP POP JUMP JUMPDEST PUSH1 0x0 DUP2 SWAP1 POP SWAP2 SWAP1 POP JUMP JUMPDEST PUSH1 0x0 PUSH2 0x3442 PUSH2 0x343D PUSH2 0x3438 DUP5 PUSH2 0x2878 JUMP JUMPDEST PUSH2 0x341D JUMP JUMPDEST PUSH2 0x2878 JUMP JUMPDEST SWAP1 POP SWAP2 SWAP1 POP JUMP JUMPDEST PUSH1 0x0 DUP2 SWAP1 POP SWAP2 SWAP1 POP JUMP JUMPDEST PUSH2 0x345C DUP4 PUSH2 0x3427 JUMP JUMPDEST PUSH2 0x3470 PUSH2 0x3468 DUP3 PUSH2 0x3449 JUMP JUMPDEST DUP5 DUP5 SLOAD PUSH2 0x33CB JUMP JUMPDEST DUP3 SSTORE POP POP POP POP JUMP JUMPDEST PUSH1 0x0 SWAP1 JUMP JUMPDEST PUSH2 0x3485 PUSH2 0x3478 JUMP JUMPDEST PUSH2 0x3490 DUP2 DUP5 DUP5 PUSH2 0x3453 JUMP JUMPDEST POP POP POP JUMP JUMPDEST JUMPDEST DUP2 DUP2 LT ISZERO PUSH2 0x34B4 JUMPI PUSH2 0x34A9 PUSH1 0x0 DUP3 PUSH2 0x347D JUMP JUMPDEST PUSH1 0x1 DUP2 ADD SWAP1 POP PUSH2 0x3496 JUMP JUMPDEST POP POP JUMP JUMPDEST PUSH1 0x1F DUP3 GT ISZERO PUSH2 0x34F9 JUMPI PUSH2 0x34CA DUP2 PUSH2 0x3399 JUMP JUMPDEST PUSH2 0x34D3 DUP5 PUSH2 0x33AE JUMP JUMPDEST DUP2 ADD PUSH1 0x20 DUP6 LT ISZERO PUSH2 0x34E2 JUMPI DUP2 SWAP1 POP JUMPDEST PUSH2 0x34F6 PUSH2 0x34EE DUP6 PUSH2 0x33AE JUMP JUMPDEST DUP4 ADD DUP3 PUSH2 0x3495 JUMP JUMPDEST POP POP JUMPDEST POP POP POP JUMP JUMPDEST PUSH1 0x0 DUP3 DUP3 SHR SWAP1 POP SWAP3 SWAP2 POP POP JUMP JUMPDEST PUSH1 0x0 PUSH2 0x351C PUSH1 0x0 NOT DUP5 PUSH1 0x8 MUL PUSH2 0x34FE JUMP JUMPDEST NOT DUP1 DUP4 AND SWAP2 POP POP SWAP3 SWAP2 POP POP JUMP JUMPDEST PUSH1 0x0 PUSH2 0x3535 DUP4 DUP4 PUSH2 0x350B JUMP JUMPDEST SWAP2 POP DUP3 PUSH1 0x2 MUL DUP3 OR SWAP1 POP SWAP3 SWAP2 POP POP JUMP JUMPDEST PUSH2 0x354E DUP3 PUSH2 0x27C6 JUMP JUMPDEST PUSH8 0xFFFFFFFFFFFFFFFF DUP2 GT ISZERO PUSH2 0x3567 JUMPI PUSH2 0x3566 PUSH2 0x2A00 JUMP JUMPDEST JUMPDEST PUSH2 0x3571 DUP3 SLOAD PUSH2 0x30A9 JUMP JUMPDEST PUSH2 0x357C DUP3 DUP3 DUP6 PUSH2 0x34B8 JUMP JUMPDEST PUSH1 0x0 PUSH1 0x20 SWAP1 POP PUSH1 0x1F DUP4 GT PUSH1 0x1 DUP2 EQ PUSH2 0x35AF JUMPI PUSH1 0x0 DUP5 ISZERO PUSH2 0x359D JUMPI DUP3 DUP8 ADD MLOAD SWAP1 POP JUMPDEST PUSH2 0x35A7 DUP6 DUP3 PUSH2 0x3529 JUMP JUMPDEST DUP7 SSTORE POP PUSH2 0x360F JUMP JUMPDEST PUSH1 0x1F NOT DUP5 AND PUSH2 0x35BD DUP7 PUSH2 0x3399 JUMP JUMPDEST PUSH1 0x0 JUMPDEST DUP3 DUP2 LT ISZERO PUSH2 0x35E5 JUMPI DUP5 DUP10 ADD MLOAD DUP3 SSTORE PUSH1 0x1 DUP3 ADD SWAP2 POP PUSH1 0x20 DUP6 ADD SWAP5 POP PUSH1 0x20 DUP2 ADD SWAP1 POP PUSH2 0x35C0 JUMP JUMPDEST DUP7 DUP4 LT ISZERO PUSH2 0x3602 JUMPI DUP5 DUP10 ADD MLOAD PUSH2 0x35FE PUSH1 0x1F DUP10 AND DUP3 PUSH2 0x350B JUMP JUMPDEST DUP4 SSTORE POP JUMPDEST PUSH1 0x1 PUSH1 0x2 DUP9 MUL ADD DUP9 SSTORE POP POP POP JUMPDEST POP POP POP POP POP POP JUMP JUMPDEST PUSH1 0x0 PUSH2 0x3622 DUP3 PUSH2 0x2878 JUMP JUMPDEST SWAP2 POP PUSH2 0x362D DUP4 PUSH2 0x2878 JUMP JUMPDEST SWAP3 POP DUP3 DUP3 ADD SWAP1 POP DUP1 DUP3 GT ISZERO PUSH2 0x3645 JUMPI PUSH2 0x3644 PUSH2 0x3322 JUMP JUMPDEST JUMPDEST SWAP3 SWAP2 POP POP JUMP JUMPDEST PUSH1 0x0 PUSH2 0x3656 DUP3 PUSH2 0x2878 JUMP JUMPDEST SWAP2 POP PUSH2 0x3661 DUP4 PUSH2 0x2878 JUMP JUMPDEST SWAP3 POP DUP3 DUP3 SUB SWAP1 POP DUP2 DUP2 GT ISZERO PUSH2 0x3679 JUMPI PUSH2 0x3678 PUSH2 0x3322 JUMP JUMPDEST JUMPDEST SWAP3 SWAP2 POP POP JUMP JUMPDEST PUSH32 0x596F7520617265206E6F7420746865206F776E6572206F6620746865206C6973 PUSH1 0x0 DUP3 ADD MSTORE PUSH32 0x74696E672C206F6E6C7920746865206F776E65722063616E2072656D6F766520 PUSH1 0x20 DUP3 ADD MSTORE PUSH32 0x746865206C697374696E67000000000000000000000000000000000000000000 PUSH1 0x40 DUP3 ADD MSTORE POP JUMP JUMPDEST PUSH1 0x0 PUSH2 0x3701 PUSH1 0x4B DUP4 PUSH2 0x27D1 JUMP JUMPDEST SWAP2 POP PUSH2 0x370C DUP3 PUSH2 0x367F JUMP JUMPDEST PUSH1 0x60 DUP3 ADD SWAP1 POP SWAP2 SWAP1 POP JUMP JUMPDEST PUSH1 0x0 PUSH1 0x20 DUP3 ADD SWAP1 POP DUP2 DUP2 SUB PUSH1 0x0 DUP4 ADD MSTORE PUSH2 0x3730 DUP2 PUSH2 0x36F4 JUMP JUMPDEST SWAP1 POP SWAP2 SWAP1 POP JUMP JUMPDEST PUSH1 0x0 PUSH2 0x3742 DUP3 PUSH2 0x2878 JUMP JUMPDEST SWAP2 POP PUSH1 0x0 DUP3 SUB PUSH2 0x3755 JUMPI PUSH2 0x3754 PUSH2 0x3322 JUMP JUMPDEST JUMPDEST PUSH1 0x1 DUP3 SUB SWAP1 POP SWAP2 SWAP1 POP JUMP JUMPDEST PUSH32 0x456E74657220612076616C6964204964206F6620746865204C697374696E6720 PUSH1 0x0 DUP3 ADD MSTORE PUSH32 0x796F752077616E74000000000000000000000000000000000000000000000000 PUSH1 0x20 DUP3 ADD MSTORE POP JUMP JUMPDEST PUSH1 0x0 PUSH2 0x37BC PUSH1 0x28 DUP4 PUSH2 0x27D1 JUMP JUMPDEST SWAP2 POP PUSH2 0x37C7 DUP3 PUSH2 0x3760 JUMP JUMPDEST PUSH1 0x40 DUP3 ADD SWAP1 POP SWAP2 SWAP1 POP JUMP JUMPDEST PUSH1 0x0 PUSH1 0x20 DUP3 ADD SWAP1 POP DUP2 DUP2 SUB PUSH1 0x0 DUP4 ADD MSTORE PUSH2 0x37EB DUP2 PUSH2 0x37AF JUMP JUMPDEST SWAP1 POP SWAP2 SWAP1 POP JUMP JUMPDEST PUSH32 0x4C697374696E67206973206E6F74206163746976650000000000000000000000 PUSH1 0x0 DUP3 ADD MSTORE POP JUMP JUMPDEST PUSH1 0x0 PUSH2 0x3828 PUSH1 0x15 DUP4 PUSH2 0x27D1 JUMP JUMPDEST SWAP2 POP PUSH2 0x3833 DUP3 PUSH2 0x37F2 JUMP JUMPDEST PUSH1 0x20 DUP3 ADD SWAP1 POP SWAP2 SWAP1 POP JUMP JUMPDEST PUSH1 0x0 PUSH1 0x20 DUP3 ADD SWAP1 POP DUP2 DUP2 SUB PUSH1 0x0 DUP4 ADD MSTORE PUSH2 0x3857 DUP2 PUSH2 0x381B JUMP JUMPDEST SWAP1 POP SWAP2 SWAP1 POP JUMP JUMPDEST PUSH32 0x43616E6E6F7420427579206F776E204C697374696E6700000000000000000000 PUSH1 0x0 DUP3 ADD MSTORE POP JUMP JUMPDEST PUSH1 0x0 PUSH2 0x3894 PUSH1 0x16 DUP4 PUSH2 0x27D1 JUMP JUMPDEST SWAP2 POP PUSH2 0x389F DUP3 PUSH2 0x385E JUMP JUMPDEST PUSH1 0x20 DUP3 ADD SWAP1 POP SWAP2 SWAP1 POP JUMP JUMPDEST PUSH1 0x0 PUSH1 0x20 DUP3 ADD SWAP1 POP DUP2 DUP2 SUB PUSH1 0x0 DUP4 ADD MSTORE PUSH2 0x38C3 DUP2 PUSH2 0x3887 JUMP JUMPDEST SWAP1 POP SWAP2 SWAP1 POP JUMP JUMPDEST PUSH32 0x6E6F7420656E6F7567682066756E64732073656E740000000000000000000000 PUSH1 0x0 DUP3 ADD MSTORE POP JUMP JUMPDEST PUSH1 0x0 PUSH2 0x3900 PUSH1 0x15 DUP4 PUSH2 0x27D1 JUMP JUMPDEST SWAP2 POP PUSH2 0x390B DUP3 PUSH2 0x38CA JUMP JUMPDEST PUSH1 0x20 DUP3 ADD SWAP1 POP SWAP2 SWAP1 POP JUMP JUMPDEST PUSH1 0x0 PUSH1 0x20 DUP3 ADD SWAP1 POP DUP2 DUP2 SUB PUSH1 0x0 DUP4 ADD MSTORE PUSH2 0x392F DUP2 PUSH2 0x38F3 JUMP JUMPDEST SWAP1 POP SWAP2 SWAP1 POP JUMP JUMPDEST PUSH32 0x4552433732313A20696E76616C696420746F6B656E2049440000000000000000 PUSH1 0x0 DUP3 ADD MSTORE POP JUMP JUMPDEST PUSH1 0x0 PUSH2 0x396C PUSH1 0x18 DUP4 PUSH2 0x27D1 JUMP JUMPDEST SWAP2 POP PUSH2 0x3977 DUP3 PUSH2 0x3936 JUMP JUMPDEST PUSH1 0x20 DUP3 ADD SWAP1 POP SWAP2 SWAP1 POP JUMP JUMPDEST PUSH1 0x0 PUSH1 0x20 DUP3 ADD SWAP1 POP DUP2 DUP2 SUB PUSH1 0x0 DUP4 ADD MSTORE PUSH2 0x399B DUP2 PUSH2 0x395F JUMP JUMPDEST SWAP1 POP SWAP2 SWAP1 POP JUMP JUMPDEST PUSH32 0x4552433732313A2061646472657373207A65726F206973206E6F742061207661 PUSH1 0x0 DUP3 ADD MSTORE PUSH32 0x6C6964206F776E65720000000000000000000000000000000000000000000000 PUSH1 0x20 DUP3 ADD MSTORE POP JUMP JUMPDEST PUSH1 0x0 PUSH2 0x39FE PUSH1 0x29 DUP4 PUSH2 0x27D1 JUMP JUMPDEST SWAP2 POP PUSH2 0x3A09 DUP3 PUSH2 0x39A2 JUMP JUMPDEST PUSH1 0x40 DUP3 ADD SWAP1 POP SWAP2 SWAP1 POP JUMP JUMPDEST PUSH1 0x0 PUSH1 0x20 DUP3 ADD SWAP1 POP DUP2 DUP2 SUB PUSH1 0x0 DUP4 ADD MSTORE PUSH2 0x3A2D DUP2 PUSH2 0x39F1 JUMP JUMPDEST SWAP1 POP SWAP2 SWAP1 POP JUMP JUMPDEST PUSH32 0x4E487B7100000000000000000000000000000000000000000000000000000000 PUSH1 0x0 MSTORE PUSH1 0x32 PUSH1 0x4 MSTORE PUSH1 0x24 PUSH1 0x0 REVERT JUMPDEST PUSH32 0x4552433732313A207472616E736665722066726F6D20696E636F727265637420 PUSH1 0x0 DUP3 ADD MSTORE PUSH32 0x6F776E6572000000000000000000000000000000000000000000000000000000 PUSH1 0x20 DUP3 ADD MSTORE POP JUMP JUMPDEST PUSH1 0x0 PUSH2 0x3ABF PUSH1 0x25 DUP4 PUSH2 0x27D1 JUMP JUMPDEST SWAP2 POP PUSH2 0x3ACA DUP3 PUSH2 0x3A63 JUMP JUMPDEST PUSH1 0x40 DUP3 ADD SWAP1 POP SWAP2 SWAP1 POP JUMP JUMPDEST PUSH1 0x0 PUSH1 0x20 DUP3 ADD SWAP1 POP DUP2 DUP2 SUB PUSH1 0x0 DUP4 ADD MSTORE PUSH2 0x3AEE DUP2 PUSH2 0x3AB2 JUMP JUMPDEST SWAP1 POP SWAP2 SWAP1 POP JUMP JUMPDEST PUSH32 0x4552433732313A207472616E7366657220746F20746865207A65726F20616464 PUSH1 0x0 DUP3 ADD MSTORE PUSH32 0x7265737300000000000000000000000000000000000000000000000000000000 PUSH1 0x20 DUP3 ADD MSTORE POP JUMP JUMPDEST PUSH1 0x0 PUSH2 0x3B51 PUSH1 0x24 DUP4 PUSH2 0x27D1 JUMP JUMPDEST SWAP2 POP PUSH2 0x3B5C DUP3 PUSH2 0x3AF5 JUMP JUMPDEST PUSH1 0x40 DUP3 ADD SWAP1 POP SWAP2 SWAP1 POP JUMP JUMPDEST PUSH1 0x0 PUSH1 0x20 DUP3 ADD SWAP1 POP DUP2 DUP2 SUB PUSH1 0x0 DUP4 ADD MSTORE PUSH2 0x3B80 DUP2 PUSH2 0x3B44 JUMP JUMPDEST SWAP1 POP SWAP2 SWAP1 POP JUMP JUMPDEST PUSH32 0x45524337323155524953746F726167653A2055524920736574206F66206E6F6E PUSH1 0x0 DUP3 ADD MSTORE PUSH32 0x6578697374656E7420746F6B656E000000000000000000000000000000000000 PUSH1 0x20 DUP3 ADD MSTORE POP JUMP JUMPDEST PUSH1 0x0 PUSH2 0x3BE3 PUSH1 0x2E DUP4 PUSH2 0x27D1 JUMP JUMPDEST SWAP2 POP PUSH2 0x3BEE DUP3 PUSH2 0x3B87 JUMP JUMPDEST PUSH1 0x40 DUP3 ADD SWAP1 POP SWAP2 SWAP1 POP JUMP JUMPDEST PUSH1 0x0 PUSH1 0x20 DUP3 ADD SWAP1 POP DUP2 DUP2 SUB PUSH1 0x0 DUP4 ADD MSTORE PUSH2 0x3C12 DUP2 PUSH2 0x3BD6 JUMP JUMPDEST SWAP1 POP SWAP2 SWAP1 POP JUMP JUMPDEST PUSH32 0x4552433732313A20617070726F766520746F2063616C6C657200000000000000 PUSH1 0x0 DUP3 ADD MSTORE POP JUMP JUMPDEST PUSH1 0x0 PUSH2 0x3C4F PUSH1 0x19 DUP4 PUSH2 0x27D1 JUMP JUMPDEST SWAP2 POP PUSH2 0x3C5A DUP3 PUSH2 0x3C19 JUMP JUMPDEST PUSH1 0x20 DUP3 ADD SWAP1 POP SWAP2 SWAP1 POP JUMP JUMPDEST PUSH1 0x0 PUSH1 0x20 DUP3 ADD SWAP1 POP DUP2 DUP2 SUB PUSH1 0x0 DUP4 ADD MSTORE PUSH2 0x3C7E DUP2 PUSH2 0x3C42 JUMP JUMPDEST SWAP1 POP SWAP2 SWAP1 POP JUMP JUMPDEST PUSH32 0x4552433732313A207472616E7366657220746F206E6F6E204552433732315265 PUSH1 0x0 DUP3 ADD MSTORE PUSH32 0x63656976657220696D706C656D656E7465720000000000000000000000000000 PUSH1 0x20 DUP3 ADD MSTORE POP JUMP JUMPDEST PUSH1 0x0 PUSH2 0x3CE1 PUSH1 0x32 DUP4 PUSH2 0x27D1 JUMP JUMPDEST SWAP2 POP PUSH2 0x3CEC DUP3 PUSH2 0x3C85 JUMP JUMPDEST PUSH1 0x40 DUP3 ADD SWAP1 POP SWAP2 SWAP1 POP JUMP JUMPDEST PUSH1 0x0 PUSH1 0x20 DUP3 ADD SWAP1 POP DUP2 DUP2 SUB PUSH1 0x0 DUP4 ADD MSTORE PUSH2 0x3D10 DUP2 PUSH2 0x3CD4 JUMP JUMPDEST SWAP1 POP SWAP2 SWAP1 POP JUMP JUMPDEST PUSH1 0x0 DUP2 SWAP1 POP SWAP3 SWAP2 POP POP JUMP JUMPDEST PUSH1 0x0 PUSH2 0x3D2D DUP3 PUSH2 0x27C6 JUMP JUMPDEST PUSH2 0x3D37 DUP2 DUP6 PUSH2 0x3D17 JUMP JUMPDEST SWAP4 POP PUSH2 0x3D47 DUP2 DUP6 PUSH1 0x20 DUP7 ADD PUSH2 0x27E2 JUMP JUMPDEST DUP1 DUP5 ADD SWAP2 POP POP SWAP3 SWAP2 POP POP JUMP JUMPDEST PUSH1 0x0 PUSH2 0x3D5F DUP3 DUP6 PUSH2 0x3D22 JUMP JUMPDEST SWAP2 POP PUSH2 0x3D6B DUP3 DUP5 PUSH2 0x3D22 JUMP JUMPDEST SWAP2 POP DUP2 SWAP1 POP SWAP4 SWAP3 POP POP POP JUMP JUMPDEST PUSH1 0x0 DUP2 MLOAD SWAP1 POP SWAP2 SWAP1 POP JUMP JUMPDEST PUSH1 0x0 DUP3 DUP3 MSTORE PUSH1 0x20 DUP3 ADD SWAP1 POP SWAP3 SWAP2 POP POP JUMP JUMPDEST PUSH1 0x0 PUSH2 0x3D9E DUP3 PUSH2 0x3D77 JUMP JUMPDEST PUSH2 0x3DA8 DUP2 DUP6 PUSH2 0x3D82 JUMP JUMPDEST SWAP4 POP PUSH2 0x3DB8 DUP2 DUP6 PUSH1 0x20 DUP7 ADD PUSH2 0x27E2 JUMP JUMPDEST PUSH2 0x3DC1 DUP2 PUSH2 0x280C JUMP JUMPDEST DUP5 ADD SWAP2 POP POP SWAP3 SWAP2 POP POP JUMP JUMPDEST PUSH1 0x0 PUSH1 0x80 DUP3 ADD SWAP1 POP PUSH2 0x3DE1 PUSH1 0x0 DUP4 ADD DUP8 PUSH2 0x290D JUMP JUMPDEST PUSH2 0x3DEE PUSH1 0x20 DUP4 ADD DUP7 PUSH2 0x290D JUMP JUMPDEST PUSH2 0x3DFB PUSH1 0x40 DUP4 ADD DUP6 PUSH2 0x2BE6 JUMP JUMPDEST DUP2 DUP2 SUB PUSH1 0x60 DUP4 ADD MSTORE PUSH2 0x3E0D DUP2 DUP5 PUSH2 0x3D93 JUMP JUMPDEST SWAP1 POP SWAP6 SWAP5 POP POP POP POP POP JUMP JUMPDEST PUSH1 0x0 DUP2 MLOAD SWAP1 POP PUSH2 0x3E27 DUP2 PUSH2 0x2737 JUMP JUMPDEST SWAP3 SWAP2 POP POP JUMP JUMPDEST PUSH1 0x0 PUSH1 0x20 DUP3 DUP5 SUB SLT ISZERO PUSH2 0x3E43 JUMPI PUSH2 0x3E42 PUSH2 0x2701 JUMP JUMPDEST JUMPDEST PUSH1 0x0 PUSH2 0x3E51 DUP5 DUP3 DUP6 ADD PUSH2 0x3E18 JUMP JUMPDEST SWAP2 POP POP SWAP3 SWAP2 POP POP JUMP JUMPDEST PUSH32 0x4552433732313A206D696E7420746F20746865207A65726F2061646472657373 PUSH1 0x0 DUP3 ADD MSTORE POP JUMP JUMPDEST PUSH1 0x0 PUSH2 0x3E90 PUSH1 0x20 DUP4 PUSH2 0x27D1 JUMP JUMPDEST SWAP2 POP PUSH2 0x3E9B DUP3 PUSH2 0x3E5A JUMP JUMPDEST PUSH1 0x20 DUP3 ADD SWAP1 POP SWAP2 SWAP1 POP JUMP JUMPDEST PUSH1 0x0 PUSH1 0x20 DUP3 ADD SWAP1 POP DUP2 DUP2 SUB PUSH1 0x0 DUP4 ADD MSTORE PUSH2 0x3EBF DUP2 PUSH2 0x3E83 JUMP JUMPDEST SWAP1 POP SWAP2 SWAP1 POP JUMP JUMPDEST PUSH32 0x4552433732313A20746F6B656E20616C7265616479206D696E74656400000000 PUSH1 0x0 DUP3 ADD MSTORE POP JUMP JUMPDEST PUSH1 0x0 PUSH2 0x3EFC PUSH1 0x1C DUP4 PUSH2 0x27D1 JUMP JUMPDEST SWAP2 POP PUSH2 0x3F07 DUP3 PUSH2 0x3EC6 JUMP JUMPDEST PUSH1 0x20 DUP3 ADD SWAP1 POP SWAP2 SWAP1 POP JUMP JUMPDEST PUSH1 0x0 PUSH1 0x20 DUP3 ADD SWAP1 POP DUP2 DUP2 SUB PUSH1 0x0 DUP4 ADD MSTORE PUSH2 0x3F2B DUP2 PUSH2 0x3EEF JUMP JUMPDEST SWAP1 POP SWAP2 SWAP1 POP JUMP JUMPDEST PUSH32 0x4E487B7100000000000000000000000000000000000000000000000000000000 PUSH1 0x0 MSTORE PUSH1 0x12 PUSH1 0x4 MSTORE PUSH1 0x24 PUSH1 0x0 REVERT INVALID LOG2 PUSH5 0x6970667358 0x22 SLT KECCAK256 MULMOD 0x2C SELFBALANCE 0xF9 0xCF SSTORE 0xCB 0xB6 ISZERO DUP2 PREVRANDAO DUP4 RETURNDATASIZE 0xCC CREATE2 CALL PUSH32 0x8E42F40E02CFE8FAD21A3E8ABE8F0064736F6C63430008130033000000000000 "
		},
		"gasEstimates": {
			"creation": {
				"codeDepositCost": "3255800",
				"executionCost": "infinite",
				"totalCost": "infinite"
			},
			"external": {
				"actualCount()": "2540",
				"approve(address,uint256)": "infinite",
				"balanceOf(address)": "2943",
				"buyListing(uint256)": "infinite",
				"createListing(string,string,string,uint256)": "infinite",
				"getApproved(uint256)": "5300",
				"isApprovedForAll(address,address)": "infinite",
				"mintPrice()": "2474",
				"name()": "infinite",
				"ownerOf(uint256)": "3022",
				"removeListing(uint256)": "infinite",
				"safeTransferFrom(address,address,uint256)": "infinite",
				"safeTransferFrom(address,address,uint256,bytes)": "infinite",
				"setApprovalForAll(address,bool)": "infinite",
				"supportsInterface(bytes4)": "797",
				"symbol()": "infinite",
				"tokenURI(uint256)": "infinite",
				"transferFrom(address,address,uint256)": "infinite",
				"viewListings()": "infinite"
			},
			"internal": {
				"_burn(uint256)": "infinite"
			}
		},
		"methodIdentifiers": {
			"actualCount()": "9d49d83d",
			"approve(address,uint256)": "095ea7b3",
			"balanceOf(address)": "70a08231",
			"buyListing(uint256)": "4884f459",
			"createListing(string,string,string,uint256)": "451d4107",
			"getApproved(uint256)": "081812fc",
			"isApprovedForAll(address,address)": "e985e9c5",
			"mintPrice()": "6817c76c",
			"name()": "06fdde03",
			"ownerOf(uint256)": "6352211e",
			"removeListing(uint256)": "479ad4c3",
			"safeTransferFrom(address,address,uint256)": "42842e0e",
			"safeTransferFrom(address,address,uint256,bytes)": "b88d4fde",
			"setApprovalForAll(address,bool)": "a22cb465",
			"supportsInterface(bytes4)": "01ffc9a7",
			"symbol()": "95d89b41",
			"tokenURI(uint256)": "c87b56dd",
			"transferFrom(address,address,uint256)": "23b872dd",
			"viewListings()": "b496c6c8"
		}
	},
	"abi": [
		{
			"inputs": [
				{
					"internalType": "string",
					"name": "name",
					"type": "string"
				},
				{
					"internalType": "string",
					"name": "symbol",
					"type": "string"
				},
				{
					"internalType": "uint256",
					"name": "_mintPrice",
					"type": "uint256"
				}
			],
			"stateMutability": "nonpayable",
			"type": "constructor"
		},
		{
			"anonymous": false,
			"inputs": [
				{
					"indexed": true,
					"internalType": "address",
					"name": "owner",
					"type": "address"
				},
				{
					"indexed": true,
					"internalType": "address",
					"name": "approved",
					"type": "address"
				},
				{
					"indexed": true,
					"internalType": "uint256",
					"name": "tokenId",
					"type": "uint256"
				}
			],
			"name": "Approval",
			"type": "event"
		},
		{
			"anonymous": false,
			"inputs": [
				{
					"indexed": true,
					"internalType": "address",
					"name": "owner",
					"type": "address"
				},
				{
					"indexed": true,
					"internalType": "address",
					"name": "operator",
					"type": "address"
				},
				{
					"indexed": false,
					"internalType": "bool",
					"name": "approved",
					"type": "bool"
				}
			],
			"name": "ApprovalForAll",
			"type": "event"
		},
		{
			"anonymous": false,
			"inputs": [
				{
					"indexed": true,
					"internalType": "address",
					"name": "from",
					"type": "address"
				},
				{
					"indexed": true,
					"internalType": "address",
					"name": "to",
					"type": "address"
				},
				{
					"indexed": true,
					"internalType": "uint256",
					"name": "tokenId",
					"type": "uint256"
				}
			],
			"name": "Transfer",
			"type": "event"
		},
		{
			"anonymous": false,
			"inputs": [
				{
					"indexed": true,
					"internalType": "address",
					"name": "Buyer",
					"type": "address"
				},
				{
					"indexed": true,
					"internalType": "address",
					"name": "Seller",
					"type": "address"
				},
				{
					"indexed": false,
					"internalType": "uint256",
					"name": "time",
					"type": "uint256"
				}
			],
			"name": "listingBought",
			"type": "event"
		},
		{
			"anonymous": false,
			"inputs": [
				{
					"indexed": true,
					"internalType": "address",
					"name": "Lister",
					"type": "address"
				},
				{
					"indexed": true,
					"internalType": "uint256",
					"name": "listing_id",
					"type": "uint256"
				},
				{
					"indexed": false,
					"internalType": "uint256",
					"name": "time",
					"type": "uint256"
				}
			],
			"name": "listingCreated",
			"type": "event"
		},
		{
			"anonymous": false,
			"inputs": [
				{
					"indexed": true,
					"internalType": "address",
					"name": "from",
					"type": "address"
				},
				{
					"indexed": true,
					"internalType": "uint256",
					"name": "listingid",
					"type": "uint256"
				}
			],
			"name": "listingRemoved",
			"type": "event"
		},
		{
			"inputs": [],
			"name": "actualCount",
			"outputs": [
				{
					"internalType": "uint256",
					"name": "",
					"type": "uint256"
				}
			],
			"stateMutability": "view",
			"type": "function"
		},
		{
			"inputs": [
				{
					"internalType": "address",
					"name": "to",
					"type": "address"
				},
				{
					"internalType": "uint256",
					"name": "tokenId",
					"type": "uint256"
				}
			],
			"name": "approve",
			"outputs": [],
			"stateMutability": "nonpayable",
			"type": "function"
		},
		{
			"inputs": [
				{
					"internalType": "address",
					"name": "owner",
					"type": "address"
				}
			],
			"name": "balanceOf",
			"outputs": [
				{
					"internalType": "uint256",
					"name": "",
					"type": "uint256"
				}
			],
			"stateMutability": "view",
			"type": "function"
		},
		{
			"inputs": [
				{
					"internalType": "uint256",
					"name": "_listingId",
					"type": "uint256"
				}
			],
			"name": "buyListing",
			"outputs": [],
			"stateMutability": "payable",
			"type": "function"
		},
		{
			"inputs": [
				{
					"internalType": "string",
					"name": "_title",
					"type": "string"
				},
				{
					"internalType": "string",
					"name": "_description",
					"type": "string"
				},
				{
					"internalType": "string",
					"name": "_uri",
					"type": "string"
				},
				{
					"internalType": "uint256",
					"name": "_price",
					"type": "uint256"
				}
			],
			"name": "createListing",
			"outputs": [],
			"stateMutability": "nonpayable",
			"type": "function"
		},
		{
			"inputs": [
				{
					"internalType": "uint256",
					"name": "tokenId",
					"type": "uint256"
				}
			],
			"name": "getApproved",
			"outputs": [
				{
					"internalType": "address",
					"name": "",
					"type": "address"
				}
			],
			"stateMutability": "view",
			"type": "function"
		},
		{
			"inputs": [
				{
					"internalType": "address",
					"name": "owner",
					"type": "address"
				},
				{
					"internalType": "address",
					"name": "operator",
					"type": "address"
				}
			],
			"name": "isApprovedForAll",
			"outputs": [
				{
					"internalType": "bool",
					"name": "",
					"type": "bool"
				}
			],
			"stateMutability": "view",
			"type": "function"
		},
		{
			"inputs": [],
			"name": "mintPrice",
			"outputs": [
				{
					"internalType": "uint256",
					"name": "",
					"type": "uint256"
				}
			],
			"stateMutability": "view",
			"type": "function"
		},
		{
			"inputs": [],
			"name": "name",
			"outputs": [
				{
					"internalType": "string",
					"name": "",
					"type": "string"
				}
			],
			"stateMutability": "view",
			"type": "function"
		},
		{
			"inputs": [
				{
					"internalType": "uint256",
					"name": "tokenId",
					"type": "uint256"
				}
			],
			"name": "ownerOf",
			"outputs": [
				{
					"internalType": "address",
					"name": "",
					"type": "address"
				}
			],
			"stateMutability": "view",
			"type": "function"
		},
		{
			"inputs": [
				{
					"internalType": "uint256",
					"name": "_listingId",
					"type": "uint256"
				}
			],
			"name": "removeListing",
			"outputs": [],
			"stateMutability": "nonpayable",
			"type": "function"
		},
		{
			"inputs": [
				{
					"internalType": "address",
					"name": "from",
					"type": "address"
				},
				{
					"internalType": "address",
					"name": "to",
					"type": "address"
				},
				{
					"internalType": "uint256",
					"name": "tokenId",
					"type": "uint256"
				}
			],
			"name": "safeTransferFrom",
			"outputs": [],
			"stateMutability": "nonpayable",
			"type": "function"
		},
		{
			"inputs": [
				{
					"internalType": "address",
					"name": "from",
					"type": "address"
				},
				{
					"internalType": "address",
					"name": "to",
					"type": "address"
				},
				{
					"internalType": "uint256",
					"name": "tokenId",
					"type": "uint256"
				},
				{
					"internalType": "bytes",
					"name": "data",
					"type": "bytes"
				}
			],
			"name": "safeTransferFrom",
			"outputs": [],
			"stateMutability": "nonpayable",
			"type": "function"
		},
		{
			"inputs": [
				{
					"internalType": "address",
					"name": "operator",
					"type": "address"
				},
				{
					"internalType": "bool",
					"name": "approved",
					"type": "bool"
				}
			],
			"name": "setApprovalForAll",
			"outputs": [],
			"stateMutability": "nonpayable",
			"type": "function"
		},
		{
			"inputs": [
				{
					"internalType": "bytes4",
					"name": "interfaceId",
					"type": "bytes4"
				}
			],
			"name": "supportsInterface",
			"outputs": [
				{
					"internalType": "bool",
					"name": "",
					"type": "bool"
				}
			],
			"stateMutability": "view",
			"type": "function"
		},
		{
			"inputs": [],
			"name": "symbol",
			"outputs": [
				{
					"internalType": "string",
					"name": "",
					"type": "string"
				}
			],
			"stateMutability": "view",
			"type": "function"
		},
		{
			"inputs": [
				{
					"internalType": "uint256",
					"name": "tokenId",
					"type": "uint256"
				}
			],
			"name": "tokenURI",
			"outputs": [
				{
					"internalType": "string",
					"name": "",
					"type": "string"
				}
			],
			"stateMutability": "view",
			"type": "function"
		},
		{
			"inputs": [
				{
					"internalType": "address",
					"name": "from",
					"type": "address"
				},
				{
					"internalType": "address",
					"name": "to",
					"type": "address"
				},
				{
					"internalType": "uint256",
					"name": "tokenId",
					"type": "uint256"
				}
			],
			"name": "transferFrom",
			"outputs": [],
			"stateMutability": "nonpayable",
			"type": "function"
		},
		{
			"inputs": [],
			"name": "viewListings",
			"outputs": [
				{
					"components": [
						{
							"internalType": "uint256",
							"name": "listingId",
							"type": "uint256"
						},
						{
							"internalType": "uint256",
							"name": "price",
							"type": "uint256"
						},
						{
							"internalType": "address",
							"name": "owner",
							"type": "address"
						},
						{
							"internalType": "string",
							"name": "title",
							"type": "string"
						},
						{
							"internalType": "string",
							"name": "description",
							"type": "string"
						},
						{
							"internalType": "string",
							"name": "uri",
							"type": "string"
						},
						{
							"internalType": "enum PaintingTo.ListingStatus",
							"name": "status",
							"type": "uint8"
						}
					],
					"internalType": "struct PaintingTo.Listing[]",
					"name": "",
					"type": "tuple[]"
				}
			],
			"stateMutability": "view",
			"type": "function"
		}
	]
}