{
	"Project-1-AuctionPlatform/Auction.sol": {
		"Auction": {
			"abi": [
				{
					"constant": true,
					"inputs": [],
					"name": "getDescription",
					"outputs": [
						{
							"name": "",
							"type": "string"
						}
					],
					"payable": false,
					"stateMutability": "view",
					"type": "function"
				},
				{
					"constant": true,
					"inputs": [],
					"name": "getBidsMade",
					"outputs": [
						{
							"name": "",
							"type": "bool"
						}
					],
					"payable": false,
					"stateMutability": "view",
					"type": "function"
				},
				{
					"constant": false,
					"inputs": [
						{
							"name": "_bidVal",
							"type": "uint256"
						}
					],
					"name": "updateBid",
					"outputs": [],
					"payable": false,
					"stateMutability": "nonpayable",
					"type": "function"
				},
				{
					"constant": true,
					"inputs": [],
					"name": "getEndTime",
					"outputs": [
						{
							"name": "",
							"type": "uint256"
						}
					],
					"payable": false,
					"stateMutability": "view",
					"type": "function"
				},
				{
					"constant": true,
					"inputs": [
						{
							"name": "",
							"type": "address"
						}
					],
					"name": "bids",
					"outputs": [
						{
							"name": "",
							"type": "uint256"
						}
					],
					"payable": false,
					"stateMutability": "view",
					"type": "function"
				},
				{
					"constant": false,
					"inputs": [
						{
							"name": "_bidVal",
							"type": "uint256"
						}
					],
					"name": "createBid",
					"outputs": [],
					"payable": false,
					"stateMutability": "nonpayable",
					"type": "function"
				},
				{
					"constant": true,
					"inputs": [],
					"name": "getListOfBids",
					"outputs": [
						{
							"name": "",
							"type": "uint256[]"
						}
					],
					"payable": false,
					"stateMutability": "view",
					"type": "function"
				},
				{
					"constant": true,
					"inputs": [],
					"name": "getMinBidVal",
					"outputs": [
						{
							"name": "",
							"type": "uint256"
						}
					],
					"payable": false,
					"stateMutability": "view",
					"type": "function"
				},
				{
					"constant": true,
					"inputs": [],
					"name": "getStartTime",
					"outputs": [
						{
							"name": "",
							"type": "uint256"
						}
					],
					"payable": false,
					"stateMutability": "view",
					"type": "function"
				},
				{
					"constant": true,
					"inputs": [],
					"name": "getMaximumBid",
					"outputs": [
						{
							"name": "",
							"type": "uint256"
						}
					],
					"payable": false,
					"stateMutability": "view",
					"type": "function"
				},
				{
					"constant": false,
					"inputs": [
						{
							"name": "bid",
							"type": "uint256"
						}
					],
					"name": "endAuctionWithSelectedBid",
					"outputs": [
						{
							"name": "",
							"type": "address"
						}
					],
					"payable": false,
					"stateMutability": "nonpayable",
					"type": "function"
				},
				{
					"inputs": [
						{
							"name": "_description",
							"type": "string"
						},
						{
							"name": "_startTime",
							"type": "uint256"
						},
						{
							"name": "_endTime",
							"type": "uint256"
						},
						{
							"name": "_minBidVal",
							"type": "uint256"
						}
					],
					"payable": false,
					"stateMutability": "nonpayable",
					"type": "constructor"
				}
			],
			"devdoc": {
				"methods": {}
			},
			"evm": {
				"assembly": "    /* \"Project-1-AuctionPlatform/Auction.sol\":59:5633  contract Auction {... */\n  mstore(0x40, 0x80)\n    /* \"Project-1-AuctionPlatform/Auction.sol\":2182:2490  constructor(... */\n  callvalue\n    /* \"--CODEGEN--\":8:17   */\n  dup1\n    /* \"--CODEGEN--\":5:7   */\n  iszero\n  tag_1\n  jumpi\n    /* \"--CODEGEN--\":30:31   */\n  0x0\n    /* \"--CODEGEN--\":27:28   */\n  dup1\n    /* \"--CODEGEN--\":20:32   */\n  revert\n    /* \"--CODEGEN--\":5:7   */\ntag_1:\n    /* \"Project-1-AuctionPlatform/Auction.sol\":2182:2490  constructor(... */\n  pop\n  mload(0x40)\n  sub(codesize, bytecodeSize)\n  dup1\n  bytecodeSize\n  dup4\n  codecopy\n  dup2\n  add\n  dup1\n  0x40\n  mstore\n  dup2\n  add\n  swap1\n  dup1\n  dup1\n  mload\n  dup3\n  add\n  swap3\n  swap2\n  swap1\n  0x20\n  add\n  dup1\n  mload\n  swap1\n  0x20\n  add\n  swap1\n  swap3\n  swap2\n  swap1\n  dup1\n  mload\n  swap1\n  0x20\n  add\n  swap1\n  swap3\n  swap2\n  swap1\n  dup1\n  mload\n  swap1\n  0x20\n  add\n  swap1\n  swap3\n  swap2\n  swap1\n  pop\n  pop\n  pop\n    /* \"Project-1-AuctionPlatform/Auction.sol\":2379:2391  _description */\n  dup4\n    /* \"Project-1-AuctionPlatform/Auction.sol\":2365:2376  description */\n  0x0\n    /* \"Project-1-AuctionPlatform/Auction.sol\":2365:2391  description = _description */\n  swap1\n  dup1\n  mload\n  swap1\n  0x20\n  add\n  swap1\n  tag_4\n  swap3\n  swap2\n  swap1\n  jump\t// in(tag_5)\ntag_4:\n  pop\n    /* \"Project-1-AuctionPlatform/Auction.sol\":2413:2423  _startTime */\n  dup3\n    /* \"Project-1-AuctionPlatform/Auction.sol\":2401:2410  startTime */\n  0x1\n    /* \"Project-1-AuctionPlatform/Auction.sol\":2401:2423  startTime = _startTime */\n  dup2\n  swap1\n  sstore\n  pop\n    /* \"Project-1-AuctionPlatform/Auction.sol\":2443:2451  _endTime */\n  dup2\n    /* \"Project-1-AuctionPlatform/Auction.sol\":2433:2440  endTime */\n  0x2\n    /* \"Project-1-AuctionPlatform/Auction.sol\":2433:2451  endTime = _endTime */\n  dup2\n  swap1\n  sstore\n  pop\n    /* \"Project-1-AuctionPlatform/Auction.sol\":2473:2483  _minBidVal */\n  dup1\n    /* \"Project-1-AuctionPlatform/Auction.sol\":2461:2470  minBidVal */\n  0x3\n    /* \"Project-1-AuctionPlatform/Auction.sol\":2461:2483  minBidVal = _minBidVal */\n  dup2\n  swap1\n  sstore\n  pop\n    /* \"Project-1-AuctionPlatform/Auction.sol\":2182:2490  constructor(... */\n  pop\n  pop\n  pop\n  pop\n    /* \"Project-1-AuctionPlatform/Auction.sol\":59:5633  contract Auction {... */\n  jump(tag_6)\ntag_5:\n  dup3\n  dup1\n  sload\n  0x1\n  dup2\n  0x1\n  and\n  iszero\n  0x100\n  mul\n  sub\n  and\n  0x2\n  swap1\n  div\n  swap1\n  0x0\n  mstore\n  keccak256(0x0, 0x20)\n  swap1\n  0x1f\n  add\n  0x20\n  swap1\n  div\n  dup2\n  add\n  swap3\n  dup3\n  0x1f\n  lt\n  tag_8\n  jumpi\n  dup1\n  mload\n  not(0xff)\n  and\n  dup4\n  dup1\n  add\n  or\n  dup6\n  sstore\n  jump(tag_7)\ntag_8:\n  dup3\n  dup1\n  add\n  0x1\n  add\n  dup6\n  sstore\n  dup3\n  iszero\n  tag_7\n  jumpi\n  swap2\n  dup3\n  add\ntag_9:\n  dup3\n  dup2\n  gt\n  iszero\n  tag_10\n  jumpi\n  dup3\n  mload\n  dup3\n  sstore\n  swap2\n  0x20\n  add\n  swap2\n  swap1\n  0x1\n  add\n  swap1\n  jump(tag_9)\ntag_10:\ntag_7:\n  pop\n  swap1\n  pop\n  tag_11\n  swap2\n  swap1\n  jump\t// in(tag_12)\ntag_11:\n  pop\n  swap1\n  jump\t// out\ntag_12:\n  tag_13\n  swap2\n  swap1\ntag_14:\n  dup1\n  dup3\n  gt\n  iszero\n  tag_15\n  jumpi\n  0x0\n  dup2\n  0x0\n  swap1\n  sstore\n  pop\n  0x1\n  add\n  jump(tag_14)\ntag_15:\n  pop\n  swap1\n  jump\ntag_13:\n  swap1\n  jump\t// out\ntag_6:\n  dataSize(sub_0)\n  dup1\n  dataOffset(sub_0)\n  0x0\n  codecopy\n  0x0\n  return\nstop\n\nsub_0: assembly {\n        /* \"Project-1-AuctionPlatform/Auction.sol\":59:5633  contract Auction {... */\n      mstore(0x40, 0x80)\n      jumpi(tag_1, lt(calldatasize, 0x4))\n      calldataload(0x0)\n      0x100000000000000000000000000000000000000000000000000000000\n      swap1\n      div\n      0xffffffff\n      and\n      dup1\n      0x1a092541\n      eq\n      tag_2\n      jumpi\n      dup1\n      0x409766e6\n      eq\n      tag_3\n      jumpi\n      dup1\n      0x43129de1\n      eq\n      tag_4\n      jumpi\n      dup1\n      0x439f5ac2\n      eq\n      tag_5\n      jumpi\n      dup1\n      0x62ea82db\n      eq\n      tag_6\n      jumpi\n      dup1\n      0x659dd2b4\n      eq\n      tag_7\n      jumpi\n      dup1\n      0x679dbf0c\n      eq\n      tag_8\n      jumpi\n      dup1\n      0xad934674\n      eq\n      tag_9\n      jumpi\n      dup1\n      0xc828371e\n      eq\n      tag_10\n      jumpi\n      dup1\n      0xdd06ba1a\n      eq\n      tag_11\n      jumpi\n      dup1\n      0xdee37a8e\n      eq\n      tag_12\n      jumpi\n    tag_1:\n      0x0\n      dup1\n      revert\n        /* \"Project-1-AuctionPlatform/Auction.sol\":704:801  function getDescription() external view returns(string memory){... */\n    tag_2:\n      callvalue\n        /* \"--CODEGEN--\":8:17   */\n      dup1\n        /* \"--CODEGEN--\":5:7   */\n      iszero\n      tag_13\n      jumpi\n        /* \"--CODEGEN--\":30:31   */\n      0x0\n        /* \"--CODEGEN--\":27:28   */\n      dup1\n        /* \"--CODEGEN--\":20:32   */\n      revert\n        /* \"--CODEGEN--\":5:7   */\n    tag_13:\n        /* \"Project-1-AuctionPlatform/Auction.sol\":704:801  function getDescription() external view returns(string memory){... */\n      pop\n      tag_14\n      jump(tag_15)\n    tag_14:\n      mload(0x40)\n      dup1\n      dup1\n      0x20\n      add\n      dup3\n      dup2\n      sub\n      dup3\n      mstore\n      dup4\n      dup2\n      dup2\n      mload\n      dup2\n      mstore\n      0x20\n      add\n      swap2\n      pop\n      dup1\n      mload\n      swap1\n      0x20\n      add\n      swap1\n      dup1\n      dup4\n      dup4\n        /* \"--CODEGEN--\":23:24   */\n      0x0\n        /* \"--CODEGEN--\":8:108   */\n    tag_16:\n        /* \"--CODEGEN--\":33:36   */\n      dup4\n        /* \"--CODEGEN--\":30:31   */\n      dup2\n        /* \"--CODEGEN--\":27:37   */\n      lt\n        /* \"--CODEGEN--\":8:108   */\n      iszero\n      tag_17\n      jumpi\n        /* \"--CODEGEN--\":99:100   */\n      dup1\n        /* \"--CODEGEN--\":94:97   */\n      dup3\n        /* \"--CODEGEN--\":90:101   */\n      add\n        /* \"--CODEGEN--\":84:102   */\n      mload\n        /* \"--CODEGEN--\":80:81   */\n      dup2\n        /* \"--CODEGEN--\":75:78   */\n      dup5\n        /* \"--CODEGEN--\":71:82   */\n      add\n        /* \"--CODEGEN--\":64:103   */\n      mstore\n        /* \"--CODEGEN--\":52:54   */\n      0x20\n        /* \"--CODEGEN--\":49:50   */\n      dup2\n        /* \"--CODEGEN--\":45:55   */\n      add\n        /* \"--CODEGEN--\":40:55   */\n      swap1\n      pop\n        /* \"--CODEGEN--\":8:108   */\n      jump(tag_16)\n    tag_17:\n        /* \"--CODEGEN--\":12:26   */\n      pop\n        /* \"Project-1-AuctionPlatform/Auction.sol\":704:801  function getDescription() external view returns(string memory){... */\n      pop\n      pop\n      pop\n      swap1\n      pop\n      swap1\n      dup2\n      add\n      swap1\n      0x1f\n      and\n      dup1\n      iszero\n      tag_19\n      jumpi\n      dup1\n      dup3\n      sub\n      dup1\n      mload\n      0x1\n      dup4\n      0x20\n      sub\n      0x100\n      exp\n      sub\n      not\n      and\n      dup2\n      mstore\n      0x20\n      add\n      swap2\n      pop\n    tag_19:\n      pop\n      swap3\n      pop\n      pop\n      pop\n      mload(0x40)\n      dup1\n      swap2\n      sub\n      swap1\n      return\n        /* \"Project-1-AuctionPlatform/Auction.sol\":1001:1085  function getBidsMade() external view returns (bool) {... */\n    tag_3:\n      callvalue\n        /* \"--CODEGEN--\":8:17   */\n      dup1\n        /* \"--CODEGEN--\":5:7   */\n      iszero\n      tag_20\n      jumpi\n        /* \"--CODEGEN--\":30:31   */\n      0x0\n        /* \"--CODEGEN--\":27:28   */\n      dup1\n        /* \"--CODEGEN--\":20:32   */\n      revert\n        /* \"--CODEGEN--\":5:7   */\n    tag_20:\n        /* \"Project-1-AuctionPlatform/Auction.sol\":1001:1085  function getBidsMade() external view returns (bool) {... */\n      pop\n      tag_21\n      jump(tag_22)\n    tag_21:\n      mload(0x40)\n      dup1\n      dup3\n      iszero\n      iszero\n      iszero\n      iszero\n      dup2\n      mstore\n      0x20\n      add\n      swap2\n      pop\n      pop\n      mload(0x40)\n      dup1\n      swap2\n      sub\n      swap1\n      return\n        /* \"Project-1-AuctionPlatform/Auction.sol\":3046:3347  function updateBid(uint256 _bidVal) external validBidVal(_bidVal) isActive {... */\n    tag_4:\n      callvalue\n        /* \"--CODEGEN--\":8:17   */\n      dup1\n        /* \"--CODEGEN--\":5:7   */\n      iszero\n      tag_23\n      jumpi\n        /* \"--CODEGEN--\":30:31   */\n      0x0\n        /* \"--CODEGEN--\":27:28   */\n      dup1\n        /* \"--CODEGEN--\":20:32   */\n      revert\n        /* \"--CODEGEN--\":5:7   */\n    tag_23:\n        /* \"Project-1-AuctionPlatform/Auction.sol\":3046:3347  function updateBid(uint256 _bidVal) external validBidVal(_bidVal) isActive {... */\n      pop\n      tag_24\n      0x4\n      dup1\n      calldatasize\n      sub\n      dup2\n      add\n      swap1\n      dup1\n      dup1\n      calldataload\n      swap1\n      0x20\n      add\n      swap1\n      swap3\n      swap2\n      swap1\n      pop\n      pop\n      pop\n      jump(tag_25)\n    tag_24:\n      stop\n        /* \"Project-1-AuctionPlatform/Auction.sol\":1141:1226  function getEndTime() external view returns (uint256) {... */\n    tag_5:\n      callvalue\n        /* \"--CODEGEN--\":8:17   */\n      dup1\n        /* \"--CODEGEN--\":5:7   */\n      iszero\n      tag_26\n      jumpi\n        /* \"--CODEGEN--\":30:31   */\n      0x0\n        /* \"--CODEGEN--\":27:28   */\n      dup1\n        /* \"--CODEGEN--\":20:32   */\n      revert\n        /* \"--CODEGEN--\":5:7   */\n    tag_26:\n        /* \"Project-1-AuctionPlatform/Auction.sol\":1141:1226  function getEndTime() external view returns (uint256) {... */\n      pop\n      tag_27\n      jump(tag_28)\n    tag_27:\n      mload(0x40)\n      dup1\n      dup3\n      dup2\n      mstore\n      0x20\n      add\n      swap2\n      pop\n      pop\n      mload(0x40)\n      dup1\n      swap2\n      sub\n      swap1\n      return\n        /* \"Project-1-AuctionPlatform/Auction.sol\":440:479  mapping(address => uint256) public bids */\n    tag_6:\n      callvalue\n        /* \"--CODEGEN--\":8:17   */\n      dup1\n        /* \"--CODEGEN--\":5:7   */\n      iszero\n      tag_29\n      jumpi\n        /* \"--CODEGEN--\":30:31   */\n      0x0\n        /* \"--CODEGEN--\":27:28   */\n      dup1\n        /* \"--CODEGEN--\":20:32   */\n      revert\n        /* \"--CODEGEN--\":5:7   */\n    tag_29:\n        /* \"Project-1-AuctionPlatform/Auction.sol\":440:479  mapping(address => uint256) public bids */\n      pop\n      tag_30\n      0x4\n      dup1\n      calldatasize\n      sub\n      dup2\n      add\n      swap1\n      dup1\n      dup1\n      calldataload\n      0xffffffffffffffffffffffffffffffffffffffff\n      and\n      swap1\n      0x20\n      add\n      swap1\n      swap3\n      swap2\n      swap1\n      pop\n      pop\n      pop\n      jump(tag_31)\n    tag_30:\n      mload(0x40)\n      dup1\n      dup3\n      dup2\n      mstore\n      0x20\n      add\n      swap2\n      pop\n      pop\n      mload(0x40)\n      dup1\n      swap2\n      sub\n      swap1\n      return\n        /* \"Project-1-AuctionPlatform/Auction.sol\":2553:2985  function createBid(uint256 _bidVal)... */\n    tag_7:\n      callvalue\n        /* \"--CODEGEN--\":8:17   */\n      dup1\n        /* \"--CODEGEN--\":5:7   */\n      iszero\n      tag_32\n      jumpi\n        /* \"--CODEGEN--\":30:31   */\n      0x0\n        /* \"--CODEGEN--\":27:28   */\n      dup1\n        /* \"--CODEGEN--\":20:32   */\n      revert\n        /* \"--CODEGEN--\":5:7   */\n    tag_32:\n        /* \"Project-1-AuctionPlatform/Auction.sol\":2553:2985  function createBid(uint256 _bidVal)... */\n      pop\n      tag_33\n      0x4\n      dup1\n      calldatasize\n      sub\n      dup2\n      add\n      swap1\n      dup1\n      dup1\n      calldataload\n      swap1\n      0x20\n      add\n      swap1\n      swap3\n      swap2\n      swap1\n      pop\n      pop\n      pop\n      jump(tag_34)\n    tag_33:\n      stop\n        /* \"Project-1-AuctionPlatform/Auction.sol\":1618:2063  function getListOfBids() external view isActive returns (uint256[]) {... */\n    tag_8:\n      callvalue\n        /* \"--CODEGEN--\":8:17   */\n      dup1\n        /* \"--CODEGEN--\":5:7   */\n      iszero\n      tag_35\n      jumpi\n        /* \"--CODEGEN--\":30:31   */\n      0x0\n        /* \"--CODEGEN--\":27:28   */\n      dup1\n        /* \"--CODEGEN--\":20:32   */\n      revert\n        /* \"--CODEGEN--\":5:7   */\n    tag_35:\n        /* \"Project-1-AuctionPlatform/Auction.sol\":1618:2063  function getListOfBids() external view isActive returns (uint256[]) {... */\n      pop\n      tag_36\n      jump(tag_37)\n    tag_36:\n      mload(0x40)\n      dup1\n      dup1\n      0x20\n      add\n      dup3\n      dup2\n      sub\n      dup3\n      mstore\n      dup4\n      dup2\n      dup2\n      mload\n      dup2\n      mstore\n      0x20\n      add\n      swap2\n      pop\n      dup1\n      mload\n      swap1\n      0x20\n      add\n      swap1\n      0x20\n      mul\n      dup1\n      dup4\n      dup4\n        /* \"--CODEGEN--\":23:24   */\n      0x0\n        /* \"--CODEGEN--\":8:108   */\n    tag_38:\n        /* \"--CODEGEN--\":33:36   */\n      dup4\n        /* \"--CODEGEN--\":30:31   */\n      dup2\n        /* \"--CODEGEN--\":27:37   */\n      lt\n        /* \"--CODEGEN--\":8:108   */\n      iszero\n      tag_39\n      jumpi\n        /* \"--CODEGEN--\":99:100   */\n      dup1\n        /* \"--CODEGEN--\":94:97   */\n      dup3\n        /* \"--CODEGEN--\":90:101   */\n      add\n        /* \"--CODEGEN--\":84:102   */\n      mload\n        /* \"--CODEGEN--\":80:81   */\n      dup2\n        /* \"--CODEGEN--\":75:78   */\n      dup5\n        /* \"--CODEGEN--\":71:82   */\n      add\n        /* \"--CODEGEN--\":64:103   */\n      mstore\n        /* \"--CODEGEN--\":52:54   */\n      0x20\n        /* \"--CODEGEN--\":49:50   */\n      dup2\n        /* \"--CODEGEN--\":45:55   */\n      add\n        /* \"--CODEGEN--\":40:55   */\n      swap1\n      pop\n        /* \"--CODEGEN--\":8:108   */\n      jump(tag_38)\n    tag_39:\n        /* \"--CODEGEN--\":12:26   */\n      pop\n        /* \"Project-1-AuctionPlatform/Auction.sol\":1618:2063  function getListOfBids() external view isActive returns (uint256[]) {... */\n      pop\n      pop\n      pop\n      swap1\n      pop\n      add\n      swap3\n      pop\n      pop\n      pop\n      mload(0x40)\n      dup1\n      swap2\n      sub\n      swap1\n      return\n        /* \"Project-1-AuctionPlatform/Auction.sol\":1260:1358  function getMinBidVal() external view isActive returns (uint256) {... */\n    tag_9:\n      callvalue\n        /* \"--CODEGEN--\":8:17   */\n      dup1\n        /* \"--CODEGEN--\":5:7   */\n      iszero\n      tag_41\n      jumpi\n        /* \"--CODEGEN--\":30:31   */\n      0x0\n        /* \"--CODEGEN--\":27:28   */\n      dup1\n        /* \"--CODEGEN--\":20:32   */\n      revert\n        /* \"--CODEGEN--\":5:7   */\n    tag_41:\n        /* \"Project-1-AuctionPlatform/Auction.sol\":1260:1358  function getMinBidVal() external view isActive returns (uint256) {... */\n      pop\n      tag_42\n      jump(tag_43)\n    tag_42:\n      mload(0x40)\n      dup1\n      dup3\n      dup2\n      mstore\n      0x20\n      add\n      swap2\n      pop\n      pop\n      mload(0x40)\n      dup1\n      swap2\n      sub\n      swap1\n      return\n        /* \"Project-1-AuctionPlatform/Auction.sol\":860:944  function getStartTime() external view returns(uint){... */\n    tag_10:\n      callvalue\n        /* \"--CODEGEN--\":8:17   */\n      dup1\n        /* \"--CODEGEN--\":5:7   */\n      iszero\n      tag_44\n      jumpi\n        /* \"--CODEGEN--\":30:31   */\n      0x0\n        /* \"--CODEGEN--\":27:28   */\n      dup1\n        /* \"--CODEGEN--\":20:32   */\n      revert\n        /* \"--CODEGEN--\":5:7   */\n    tag_44:\n        /* \"Project-1-AuctionPlatform/Auction.sol\":860:944  function getStartTime() external view returns(uint){... */\n      pop\n      tag_45\n      jump(tag_46)\n    tag_45:\n      mload(0x40)\n      dup1\n      dup3\n      dup2\n      mstore\n      0x20\n      add\n      swap2\n      pop\n      pop\n      mload(0x40)\n      dup1\n      swap2\n      sub\n      swap1\n      return\n        /* \"Project-1-AuctionPlatform/Auction.sol\":4266:4691  function getMaximumBid() external view isActive returns (uint256) {... */\n    tag_11:\n      callvalue\n        /* \"--CODEGEN--\":8:17   */\n      dup1\n        /* \"--CODEGEN--\":5:7   */\n      iszero\n      tag_47\n      jumpi\n        /* \"--CODEGEN--\":30:31   */\n      0x0\n        /* \"--CODEGEN--\":27:28   */\n      dup1\n        /* \"--CODEGEN--\":20:32   */\n      revert\n        /* \"--CODEGEN--\":5:7   */\n    tag_47:\n        /* \"Project-1-AuctionPlatform/Auction.sol\":4266:4691  function getMaximumBid() external view isActive returns (uint256) {... */\n      pop\n      tag_48\n      jump(tag_49)\n    tag_48:\n      mload(0x40)\n      dup1\n      dup3\n      dup2\n      mstore\n      0x20\n      add\n      swap2\n      pop\n      pop\n      mload(0x40)\n      dup1\n      swap2\n      sub\n      swap1\n      return\n        /* \"Project-1-AuctionPlatform/Auction.sol\":3435:4203  function endAuctionWithSelectedBid(uint256 bid)... */\n    tag_12:\n      callvalue\n        /* \"--CODEGEN--\":8:17   */\n      dup1\n        /* \"--CODEGEN--\":5:7   */\n      iszero\n      tag_50\n      jumpi\n        /* \"--CODEGEN--\":30:31   */\n      0x0\n        /* \"--CODEGEN--\":27:28   */\n      dup1\n        /* \"--CODEGEN--\":20:32   */\n      revert\n        /* \"--CODEGEN--\":5:7   */\n    tag_50:\n        /* \"Project-1-AuctionPlatform/Auction.sol\":3435:4203  function endAuctionWithSelectedBid(uint256 bid)... */\n      pop\n      tag_51\n      0x4\n      dup1\n      calldatasize\n      sub\n      dup2\n      add\n      swap1\n      dup1\n      dup1\n      calldataload\n      swap1\n      0x20\n      add\n      swap1\n      swap3\n      swap2\n      swap1\n      pop\n      pop\n      pop\n      jump(tag_52)\n    tag_51:\n      mload(0x40)\n      dup1\n      dup3\n      0xffffffffffffffffffffffffffffffffffffffff\n      and\n      0xffffffffffffffffffffffffffffffffffffffff\n      and\n      dup2\n      mstore\n      0x20\n      add\n      swap2\n      pop\n      pop\n      mload(0x40)\n      dup1\n      swap2\n      sub\n      swap1\n      return\n        /* \"Project-1-AuctionPlatform/Auction.sol\":704:801  function getDescription() external view returns(string memory){... */\n    tag_15:\n        /* \"Project-1-AuctionPlatform/Auction.sol\":752:758  string */\n      0x60\n        /* \"Project-1-AuctionPlatform/Auction.sol\":783:794  description */\n      0x0\n        /* \"Project-1-AuctionPlatform/Auction.sol\":776:794  return description */\n      dup1\n      sload\n      0x1\n      dup2\n      0x1\n      and\n      iszero\n      0x100\n      mul\n      sub\n      and\n      0x2\n      swap1\n      div\n      dup1\n      0x1f\n      add\n      0x20\n      dup1\n      swap2\n      div\n      mul\n      0x20\n      add\n      mload(0x40)\n      swap1\n      dup2\n      add\n      0x40\n      mstore\n      dup1\n      swap3\n      swap2\n      swap1\n      dup2\n      dup2\n      mstore\n      0x20\n      add\n      dup3\n      dup1\n      sload\n      0x1\n      dup2\n      0x1\n      and\n      iszero\n      0x100\n      mul\n      sub\n      and\n      0x2\n      swap1\n      div\n      dup1\n      iszero\n      tag_54\n      jumpi\n      dup1\n      0x1f\n      lt\n      tag_55\n      jumpi\n      0x100\n      dup1\n      dup4\n      sload\n      div\n      mul\n      dup4\n      mstore\n      swap2\n      0x20\n      add\n      swap2\n      jump(tag_54)\n    tag_55:\n      dup3\n      add\n      swap2\n      swap1\n      0x0\n      mstore\n      keccak256(0x0, 0x20)\n      swap1\n    tag_56:\n      dup2\n      sload\n      dup2\n      mstore\n      swap1\n      0x1\n      add\n      swap1\n      0x20\n      add\n      dup1\n      dup4\n      gt\n      tag_56\n      jumpi\n      dup3\n      swap1\n      sub\n      0x1f\n      and\n      dup3\n      add\n      swap2\n    tag_54:\n      pop\n      pop\n      pop\n      pop\n      pop\n      swap1\n      pop\n        /* \"Project-1-AuctionPlatform/Auction.sol\":704:801  function getDescription() external view returns(string memory){... */\n      swap1\n      jump\t// out\n        /* \"Project-1-AuctionPlatform/Auction.sol\":1001:1085  function getBidsMade() external view returns (bool) {... */\n    tag_22:\n        /* \"Project-1-AuctionPlatform/Auction.sol\":1047:1051  bool */\n      0x0\n        /* \"Project-1-AuctionPlatform/Auction.sol\":1070:1078  bidsMade */\n      0x4\n      0x0\n      swap1\n      sload\n      swap1\n      0x100\n      exp\n      swap1\n      div\n      0xff\n      and\n        /* \"Project-1-AuctionPlatform/Auction.sol\":1063:1078  return bidsMade */\n      swap1\n      pop\n        /* \"Project-1-AuctionPlatform/Auction.sol\":1001:1085  function getBidsMade() external view returns (bool) {... */\n      swap1\n      jump\t// out\n        /* \"Project-1-AuctionPlatform/Auction.sol\":3046:3347  function updateBid(uint256 _bidVal) external validBidVal(_bidVal) isActive {... */\n    tag_25:\n        /* \"Project-1-AuctionPlatform/Auction.sol\":3103:3110  _bidVal */\n      dup1\n        /* \"Project-1-AuctionPlatform/Auction.sol\":5281:5290  minBidVal */\n      sload(0x3)\n        /* \"Project-1-AuctionPlatform/Auction.sol\":5271:5278  _bidVal */\n      dup2\n        /* \"Project-1-AuctionPlatform/Auction.sol\":5271:5290  _bidVal > minBidVal */\n      gt\n        /* \"Project-1-AuctionPlatform/Auction.sol\":5250:5385  require(... */\n      iszero\n      iszero\n      tag_59\n      jumpi\n      mload(0x40)\n      0x8c379a000000000000000000000000000000000000000000000000000000000\n      dup2\n      mstore\n      0x4\n      add\n      dup1\n      dup1\n      0x20\n      add\n      dup3\n      dup2\n      sub\n      dup3\n      mstore\n      0x45\n      dup2\n      mstore\n      0x20\n      add\n      dup1\n      0x506c6561736520656e7465722061206269642067726561746572207468616e20\n      dup2\n      mstore\n      0x20\n      add\n      0x6d696e696d756d20726571756972656420626964206f6620676976656e206175\n      dup2\n      mstore\n      0x20\n      add\n      0x6374696f6e000000000000000000000000000000000000000000000000000000\n      dup2\n      mstore\n      pop\n      0x60\n      add\n      swap2\n      pop\n      pop\n      mload(0x40)\n      dup1\n      swap2\n      sub\n      swap1\n      revert\n    tag_59:\n        /* \"Project-1-AuctionPlatform/Auction.sol\":4873:4880  endTime */\n      sload(0x2)\n        /* \"Project-1-AuctionPlatform/Auction.sol\":4855:4870  block.timestamp */\n      timestamp\n        /* \"Project-1-AuctionPlatform/Auction.sol\":4855:4880  block.timestamp < endTime */\n      lt\n        /* \"Project-1-AuctionPlatform/Auction.sol\":4847:4905  require(block.timestamp < endTime, \"Auction is Inactive \") */\n      iszero\n      iszero\n      tag_61\n      jumpi\n      mload(0x40)\n      0x8c379a000000000000000000000000000000000000000000000000000000000\n      dup2\n      mstore\n      0x4\n      add\n      dup1\n      dup1\n      0x20\n      add\n      dup3\n      dup2\n      sub\n      dup3\n      mstore\n      0x14\n      dup2\n      mstore\n      0x20\n      add\n      dup1\n      0x41756374696f6e20697320496e61637469766520000000000000000000000000\n      dup2\n      mstore\n      pop\n      0x20\n      add\n      swap2\n      pop\n      pop\n      mload(0x40)\n      dup1\n      swap2\n      sub\n      swap1\n      revert\n    tag_61:\n        /* \"Project-1-AuctionPlatform/Auction.sol\":3171:3172  0 */\n      0x0\n        /* \"Project-1-AuctionPlatform/Auction.sol\":3152:3156  bids */\n      0x5\n        /* \"Project-1-AuctionPlatform/Auction.sol\":3152:3167  bids[tx.origin] */\n      0x0\n        /* \"Project-1-AuctionPlatform/Auction.sol\":3157:3166  tx.origin */\n      origin\n        /* \"Project-1-AuctionPlatform/Auction.sol\":3152:3167  bids[tx.origin] */\n      0xffffffffffffffffffffffffffffffffffffffff\n      and\n      0xffffffffffffffffffffffffffffffffffffffff\n      and\n      dup2\n      mstore\n      0x20\n      add\n      swap1\n      dup2\n      mstore\n      0x20\n      add\n      0x0\n      keccak256\n      sload\n        /* \"Project-1-AuctionPlatform/Auction.sol\":3152:3172  bids[tx.origin] != 0 */\n      eq\n      iszero\n        /* \"Project-1-AuctionPlatform/Auction.sol\":3131:3257  require(... */\n      iszero\n      iszero\n      tag_63\n      jumpi\n      mload(0x40)\n      0x8c379a000000000000000000000000000000000000000000000000000000000\n      dup2\n      mstore\n      0x4\n      add\n      dup1\n      dup1\n      0x20\n      add\n      dup3\n      dup2\n      sub\n      dup3\n      mstore\n      0x3b\n      dup2\n      mstore\n      0x20\n      add\n      dup1\n      0x596f7520686176656e2774206372656174656420616e79206269642c20757365\n      dup2\n      mstore\n      0x20\n      add\n      0x2063726561746542696420666f72206372656174696e67206f6e650000000000\n      dup2\n      mstore\n      pop\n      0x40\n      add\n      swap2\n      pop\n      pop\n      mload(0x40)\n      dup1\n      swap2\n      sub\n      swap1\n      revert\n    tag_63:\n        /* \"Project-1-AuctionPlatform/Auction.sol\":3333:3340  _bidVal */\n      dup2\n        /* \"Project-1-AuctionPlatform/Auction.sol\":3315:3319  bids */\n      0x5\n        /* \"Project-1-AuctionPlatform/Auction.sol\":3315:3330  bids[tx.origin] */\n      0x0\n        /* \"Project-1-AuctionPlatform/Auction.sol\":3320:3329  tx.origin */\n      origin\n        /* \"Project-1-AuctionPlatform/Auction.sol\":3315:3330  bids[tx.origin] */\n      0xffffffffffffffffffffffffffffffffffffffff\n      and\n      0xffffffffffffffffffffffffffffffffffffffff\n      and\n      dup2\n      mstore\n      0x20\n      add\n      swap1\n      dup2\n      mstore\n      0x20\n      add\n      0x0\n      keccak256\n        /* \"Project-1-AuctionPlatform/Auction.sol\":3315:3340  bids[tx.origin] = _bidVal */\n      dup2\n      swap1\n      sstore\n      pop\n        /* \"Project-1-AuctionPlatform/Auction.sol\":3046:3347  function updateBid(uint256 _bidVal) external validBidVal(_bidVal) isActive {... */\n      pop\n      pop\n      jump\t// out\n        /* \"Project-1-AuctionPlatform/Auction.sol\":1141:1226  function getEndTime() external view returns (uint256) {... */\n    tag_28:\n        /* \"Project-1-AuctionPlatform/Auction.sol\":1186:1193  uint256 */\n      0x0\n        /* \"Project-1-AuctionPlatform/Auction.sol\":1212:1219  endTime */\n      sload(0x2)\n        /* \"Project-1-AuctionPlatform/Auction.sol\":1205:1219  return endTime */\n      swap1\n      pop\n        /* \"Project-1-AuctionPlatform/Auction.sol\":1141:1226  function getEndTime() external view returns (uint256) {... */\n      swap1\n      jump\t// out\n        /* \"Project-1-AuctionPlatform/Auction.sol\":440:479  mapping(address => uint256) public bids */\n    tag_31:\n      mstore(0x20, 0x5)\n      dup1\n      0x0\n      mstore\n      keccak256(0x0, 0x40)\n      0x0\n      swap2\n      pop\n      swap1\n      pop\n      sload\n      dup2\n      jump\t// out\n        /* \"Project-1-AuctionPlatform/Auction.sol\":2553:2985  function createBid(uint256 _bidVal)... */\n    tag_34:\n        /* \"Project-1-AuctionPlatform/Auction.sol\":2626:2633  _bidVal */\n      dup1\n        /* \"Project-1-AuctionPlatform/Auction.sol\":5281:5290  minBidVal */\n      sload(0x3)\n        /* \"Project-1-AuctionPlatform/Auction.sol\":5271:5278  _bidVal */\n      dup2\n        /* \"Project-1-AuctionPlatform/Auction.sol\":5271:5290  _bidVal > minBidVal */\n      gt\n        /* \"Project-1-AuctionPlatform/Auction.sol\":5250:5385  require(... */\n      iszero\n      iszero\n      tag_66\n      jumpi\n      mload(0x40)\n      0x8c379a000000000000000000000000000000000000000000000000000000000\n      dup2\n      mstore\n      0x4\n      add\n      dup1\n      dup1\n      0x20\n      add\n      dup3\n      dup2\n      sub\n      dup3\n      mstore\n      0x45\n      dup2\n      mstore\n      0x20\n      add\n      dup1\n      0x506c6561736520656e7465722061206269642067726561746572207468616e20\n      dup2\n      mstore\n      0x20\n      add\n      0x6d696e696d756d20726571756972656420626964206f6620676976656e206175\n      dup2\n      mstore\n      0x20\n      add\n      0x6374696f6e000000000000000000000000000000000000000000000000000000\n      dup2\n      mstore\n      pop\n      0x60\n      add\n      swap2\n      pop\n      pop\n      mload(0x40)\n      dup1\n      swap2\n      sub\n      swap1\n      revert\n    tag_66:\n        /* \"Project-1-AuctionPlatform/Auction.sol\":4873:4880  endTime */\n      sload(0x2)\n        /* \"Project-1-AuctionPlatform/Auction.sol\":4855:4870  block.timestamp */\n      timestamp\n        /* \"Project-1-AuctionPlatform/Auction.sol\":4855:4880  block.timestamp < endTime */\n      lt\n        /* \"Project-1-AuctionPlatform/Auction.sol\":4847:4905  require(block.timestamp < endTime, \"Auction is Inactive \") */\n      iszero\n      iszero\n      tag_68\n      jumpi\n      mload(0x40)\n      0x8c379a000000000000000000000000000000000000000000000000000000000\n      dup2\n      mstore\n      0x4\n      add\n      dup1\n      dup1\n      0x20\n      add\n      dup3\n      dup2\n      sub\n      dup3\n      mstore\n      0x14\n      dup2\n      mstore\n      0x20\n      add\n      dup1\n      0x41756374696f6e20697320496e61637469766520000000000000000000000000\n      dup2\n      mstore\n      pop\n      0x20\n      add\n      swap2\n      pop\n      pop\n      mload(0x40)\n      dup1\n      swap2\n      sub\n      swap1\n      revert\n    tag_68:\n        /* \"Project-1-AuctionPlatform/Auction.sol\":5052:5053  0 */\n      0x0\n        /* \"Project-1-AuctionPlatform/Auction.sol\":5033:5037  bids */\n      0x5\n        /* \"Project-1-AuctionPlatform/Auction.sol\":5033:5048  bids[tx.origin] */\n      0x0\n        /* \"Project-1-AuctionPlatform/Auction.sol\":5038:5047  tx.origin */\n      origin\n        /* \"Project-1-AuctionPlatform/Auction.sol\":5033:5048  bids[tx.origin] */\n      0xffffffffffffffffffffffffffffffffffffffff\n      and\n      0xffffffffffffffffffffffffffffffffffffffff\n      and\n      dup2\n      mstore\n      0x20\n      add\n      swap1\n      dup2\n      mstore\n      0x20\n      add\n      0x0\n      keccak256\n      sload\n        /* \"Project-1-AuctionPlatform/Auction.sol\":5033:5053  bids[tx.origin] == 0 */\n      eq\n        /* \"Project-1-AuctionPlatform/Auction.sol\":5025:5088  require(bids[tx.origin] == 0, \"You have already created a bid\") */\n      iszero\n      iszero\n      tag_70\n      jumpi\n      mload(0x40)\n      0x8c379a000000000000000000000000000000000000000000000000000000000\n      dup2\n      mstore\n      0x4\n      add\n      dup1\n      dup1\n      0x20\n      add\n      dup3\n      dup2\n      sub\n      dup3\n      mstore\n      0x1e\n      dup2\n      mstore\n      0x20\n      add\n      dup1\n      0x596f75206861766520616c726561647920637265617465642061206269640000\n      dup2\n      mstore\n      pop\n      0x20\n      add\n      swap2\n      pop\n      pop\n      mload(0x40)\n      dup1\n      swap2\n      sub\n      swap1\n      revert\n    tag_70:\n        /* \"Project-1-AuctionPlatform/Auction.sol\":2698:2702  true */\n      0x1\n        /* \"Project-1-AuctionPlatform/Auction.sol\":2687:2695  bidsMade */\n      0x4\n      0x0\n        /* \"Project-1-AuctionPlatform/Auction.sol\":2687:2702  bidsMade = true */\n      0x100\n      exp\n      dup2\n      sload\n      dup2\n      0xff\n      mul\n      not\n      and\n      swap1\n      dup4\n      iszero\n      iszero\n      mul\n      or\n      swap1\n      sstore\n      pop\n        /* \"Project-1-AuctionPlatform/Auction.sol\":2765:2772  _bidVal */\n      dup2\n        /* \"Project-1-AuctionPlatform/Auction.sol\":2747:2751  bids */\n      0x5\n        /* \"Project-1-AuctionPlatform/Auction.sol\":2747:2762  bids[tx.origin] */\n      0x0\n        /* \"Project-1-AuctionPlatform/Auction.sol\":2752:2761  tx.origin */\n      origin\n        /* \"Project-1-AuctionPlatform/Auction.sol\":2747:2762  bids[tx.origin] */\n      0xffffffffffffffffffffffffffffffffffffffff\n      and\n      0xffffffffffffffffffffffffffffffffffffffff\n      and\n      dup2\n      mstore\n      0x20\n      add\n      swap1\n      dup2\n      mstore\n      0x20\n      add\n      0x0\n      keccak256\n        /* \"Project-1-AuctionPlatform/Auction.sol\":2747:2772  bids[tx.origin] = _bidVal */\n      dup2\n      swap1\n      sstore\n      pop\n        /* \"Project-1-AuctionPlatform/Auction.sol\":2861:2872  biddersList */\n      0x6\n        /* \"Project-1-AuctionPlatform/Auction.sol\":2878:2887  tx.origin */\n      origin\n        /* \"Project-1-AuctionPlatform/Auction.sol\":2861:2888  biddersList.push(tx.origin) */\n      swap1\n      dup1\n        /* \"--CODEGEN--\":39:40   */\n      0x1\n        /* \"--CODEGEN--\":33:36   */\n      dup2\n        /* \"--CODEGEN--\":27:37   */\n      sload\n        /* \"--CODEGEN--\":23:41   */\n      add\n        /* \"--CODEGEN--\":57:67   */\n      dup1\n        /* \"--CODEGEN--\":52:55   */\n      dup3\n        /* \"--CODEGEN--\":45:68   */\n      sstore\n        /* \"--CODEGEN--\":79:89   */\n      dup1\n        /* \"--CODEGEN--\":72:89   */\n      swap2\n      pop\n        /* \"--CODEGEN--\":0:93   */\n      pop\n        /* \"Project-1-AuctionPlatform/Auction.sol\":2861:2888  biddersList.push(tx.origin) */\n      swap1\n      0x1\n      dup3\n      sub\n      swap1\n      0x0\n      mstore\n      keccak256(0x0, 0x20)\n      add\n      0x0\n      swap1\n      swap2\n      swap3\n      swap1\n      swap2\n      swap1\n      swap2\n      0x100\n      exp\n      dup2\n      sload\n      dup2\n      0xffffffffffffffffffffffffffffffffffffffff\n      mul\n      not\n      and\n      swap1\n      dup4\n      0xffffffffffffffffffffffffffffffffffffffff\n      and\n      mul\n      or\n      swap1\n      sstore\n      pop\n      pop\n        /* \"Project-1-AuctionPlatform/Auction.sol\":2553:2985  function createBid(uint256 _bidVal)... */\n      pop\n      pop\n      jump\t// out\n        /* \"Project-1-AuctionPlatform/Auction.sol\":1618:2063  function getListOfBids() external view isActive returns (uint256[]) {... */\n    tag_37:\n        /* \"Project-1-AuctionPlatform/Auction.sol\":1675:1684  uint256[] */\n      0x60\n        /* \"Project-1-AuctionPlatform/Auction.sol\":1756:1777  uint256[] memory list */\n      dup1\n        /* \"Project-1-AuctionPlatform/Auction.sol\":1940:1949  uint256 i */\n      0x0\n        /* \"Project-1-AuctionPlatform/Auction.sol\":4873:4880  endTime */\n      sload(0x2)\n        /* \"Project-1-AuctionPlatform/Auction.sol\":4855:4870  block.timestamp */\n      timestamp\n        /* \"Project-1-AuctionPlatform/Auction.sol\":4855:4880  block.timestamp < endTime */\n      lt\n        /* \"Project-1-AuctionPlatform/Auction.sol\":4847:4905  require(block.timestamp < endTime, \"Auction is Inactive \") */\n      iszero\n      iszero\n      tag_74\n      jumpi\n      mload(0x40)\n      0x8c379a000000000000000000000000000000000000000000000000000000000\n      dup2\n      mstore\n      0x4\n      add\n      dup1\n      dup1\n      0x20\n      add\n      dup3\n      dup2\n      sub\n      dup3\n      mstore\n      0x14\n      dup2\n      mstore\n      0x20\n      add\n      dup1\n      0x41756374696f6e20697320496e61637469766520000000000000000000000000\n      dup2\n      mstore\n      pop\n      0x20\n      add\n      swap2\n      pop\n      pop\n      mload(0x40)\n      dup1\n      swap2\n      sub\n      swap1\n      revert\n    tag_74:\n        /* \"Project-1-AuctionPlatform/Auction.sol\":1794:1805  biddersList */\n      0x6\n        /* \"Project-1-AuctionPlatform/Auction.sol\":1794:1812  biddersList.length */\n      dup1\n      sload\n      swap1\n      pop\n        /* \"Project-1-AuctionPlatform/Auction.sol\":1780:1813  new uint256[](biddersList.length) */\n      mload(0x40)\n      swap1\n      dup1\n      dup3\n      mstore\n      dup1\n      0x20\n      mul\n      0x20\n      add\n      dup3\n      add\n      0x40\n      mstore\n      dup1\n      iszero\n      tag_76\n      jumpi\n      dup2\n      0x20\n      add\n        /* \"--CODEGEN--\":29:31   */\n      0x20\n        /* \"--CODEGEN--\":21:27   */\n      dup3\n        /* \"--CODEGEN--\":17:32   */\n      mul\n        /* \"--CODEGEN--\":117:121   */\n      dup1\n        /* \"--CODEGEN--\":105:115   */\n      codesize\n        /* \"--CODEGEN--\":97:103   */\n      dup4\n        /* \"--CODEGEN--\":88:122   */\n      codecopy\n        /* \"--CODEGEN--\":148:152   */\n      dup1\n        /* \"--CODEGEN--\":140:146   */\n      dup3\n        /* \"--CODEGEN--\":136:153   */\n      add\n        /* \"--CODEGEN--\":126:153   */\n      swap2\n      pop\n        /* \"--CODEGEN--\":0:157   */\n      pop\n        /* \"Project-1-AuctionPlatform/Auction.sol\":1780:1813  new uint256[](biddersList.length) */\n      swap1\n      pop\n    tag_76:\n      pop\n        /* \"Project-1-AuctionPlatform/Auction.sol\":1756:1813  uint256[] memory list = new uint256[](biddersList.length) */\n      swap2\n      pop\n        /* \"Project-1-AuctionPlatform/Auction.sol\":1935:2035  for (uint256 i; i < biddersList.length; i++) {... */\n    tag_77:\n        /* \"Project-1-AuctionPlatform/Auction.sol\":1955:1966  biddersList */\n      0x6\n        /* \"Project-1-AuctionPlatform/Auction.sol\":1955:1973  biddersList.length */\n      dup1\n      sload\n      swap1\n      pop\n        /* \"Project-1-AuctionPlatform/Auction.sol\":1951:1952  i */\n      dup2\n        /* \"Project-1-AuctionPlatform/Auction.sol\":1951:1973  i < biddersList.length */\n      lt\n        /* \"Project-1-AuctionPlatform/Auction.sol\":1935:2035  for (uint256 i; i < biddersList.length; i++) {... */\n      iszero\n      tag_78\n      jumpi\n        /* \"Project-1-AuctionPlatform/Auction.sol\":2004:2008  bids */\n      0x5\n        /* \"Project-1-AuctionPlatform/Auction.sol\":2004:2024  bids[biddersList[i]] */\n      0x0\n        /* \"Project-1-AuctionPlatform/Auction.sol\":2009:2020  biddersList */\n      0x6\n        /* \"Project-1-AuctionPlatform/Auction.sol\":2021:2022  i */\n      dup4\n        /* \"Project-1-AuctionPlatform/Auction.sol\":2009:2023  biddersList[i] */\n      dup2\n      sload\n      dup2\n      lt\n      iszero\n      iszero\n      tag_80\n      jumpi\n      invalid\n    tag_80:\n      swap1\n      0x0\n      mstore\n      keccak256(0x0, 0x20)\n      add\n      0x0\n      swap1\n      sload\n      swap1\n      0x100\n      exp\n      swap1\n      div\n      0xffffffffffffffffffffffffffffffffffffffff\n      and\n        /* \"Project-1-AuctionPlatform/Auction.sol\":2004:2024  bids[biddersList[i]] */\n      0xffffffffffffffffffffffffffffffffffffffff\n      and\n      0xffffffffffffffffffffffffffffffffffffffff\n      and\n      dup2\n      mstore\n      0x20\n      add\n      swap1\n      dup2\n      mstore\n      0x20\n      add\n      0x0\n      keccak256\n      sload\n        /* \"Project-1-AuctionPlatform/Auction.sol\":1994:1998  list */\n      dup3\n        /* \"Project-1-AuctionPlatform/Auction.sol\":1999:2000  i */\n      dup3\n        /* \"Project-1-AuctionPlatform/Auction.sol\":1994:2001  list[i] */\n      dup2\n      mload\n      dup2\n      lt\n      iszero\n      iszero\n      tag_82\n      jumpi\n      invalid\n    tag_82:\n      swap1\n      0x20\n      add\n      swap1\n      0x20\n      mul\n      add\n        /* \"Project-1-AuctionPlatform/Auction.sol\":1994:2024  list[i] = bids[biddersList[i]] */\n      dup2\n      dup2\n      mstore\n      pop\n      pop\n        /* \"Project-1-AuctionPlatform/Auction.sol\":1975:1978  i++ */\n      dup1\n      dup1\n      0x1\n      add\n      swap2\n      pop\n      pop\n        /* \"Project-1-AuctionPlatform/Auction.sol\":1935:2035  for (uint256 i; i < biddersList.length; i++) {... */\n      jump(tag_77)\n    tag_78:\n        /* \"Project-1-AuctionPlatform/Auction.sol\":2052:2056  list */\n      dup2\n        /* \"Project-1-AuctionPlatform/Auction.sol\":2045:2056  return list */\n      swap3\n      pop\n        /* \"Project-1-AuctionPlatform/Auction.sol\":1618:2063  function getListOfBids() external view isActive returns (uint256[]) {... */\n      pop\n      pop\n      swap1\n      jump\t// out\n        /* \"Project-1-AuctionPlatform/Auction.sol\":1260:1358  function getMinBidVal() external view isActive returns (uint256) {... */\n    tag_43:\n        /* \"Project-1-AuctionPlatform/Auction.sol\":1316:1323  uint256 */\n      0x0\n        /* \"Project-1-AuctionPlatform/Auction.sol\":4873:4880  endTime */\n      sload(0x2)\n        /* \"Project-1-AuctionPlatform/Auction.sol\":4855:4870  block.timestamp */\n      timestamp\n        /* \"Project-1-AuctionPlatform/Auction.sol\":4855:4880  block.timestamp < endTime */\n      lt\n        /* \"Project-1-AuctionPlatform/Auction.sol\":4847:4905  require(block.timestamp < endTime, \"Auction is Inactive \") */\n      iszero\n      iszero\n      tag_84\n      jumpi\n      mload(0x40)\n      0x8c379a000000000000000000000000000000000000000000000000000000000\n      dup2\n      mstore\n      0x4\n      add\n      dup1\n      dup1\n      0x20\n      add\n      dup3\n      dup2\n      sub\n      dup3\n      mstore\n      0x14\n      dup2\n      mstore\n      0x20\n      add\n      dup1\n      0x41756374696f6e20697320496e61637469766520000000000000000000000000\n      dup2\n      mstore\n      pop\n      0x20\n      add\n      swap2\n      pop\n      pop\n      mload(0x40)\n      dup1\n      swap2\n      sub\n      swap1\n      revert\n    tag_84:\n        /* \"Project-1-AuctionPlatform/Auction.sol\":1342:1351  minBidVal */\n      sload(0x3)\n        /* \"Project-1-AuctionPlatform/Auction.sol\":1335:1351  return minBidVal */\n      swap1\n      pop\n        /* \"Project-1-AuctionPlatform/Auction.sol\":1260:1358  function getMinBidVal() external view isActive returns (uint256) {... */\n      swap1\n      jump\t// out\n        /* \"Project-1-AuctionPlatform/Auction.sol\":860:944  function getStartTime() external view returns(uint){... */\n    tag_46:\n        /* \"Project-1-AuctionPlatform/Auction.sol\":906:910  uint */\n      0x0\n        /* \"Project-1-AuctionPlatform/Auction.sol\":928:937  startTime */\n      sload(0x1)\n        /* \"Project-1-AuctionPlatform/Auction.sol\":921:937  return startTime */\n      swap1\n      pop\n        /* \"Project-1-AuctionPlatform/Auction.sol\":860:944  function getStartTime() external view returns(uint){... */\n      swap1\n      jump\t// out\n        /* \"Project-1-AuctionPlatform/Auction.sol\":4266:4691  function getMaximumBid() external view isActive returns (uint256) {... */\n    tag_49:\n        /* \"Project-1-AuctionPlatform/Auction.sol\":4323:4330  uint256 */\n      0x0\n        /* \"Project-1-AuctionPlatform/Auction.sol\":4342:4356  uint256 maxBid */\n      dup1\n        /* \"Project-1-AuctionPlatform/Auction.sol\":4425:4434  uint256 i */\n      0x0\n        /* \"Project-1-AuctionPlatform/Auction.sol\":4873:4880  endTime */\n      sload(0x2)\n        /* \"Project-1-AuctionPlatform/Auction.sol\":4855:4870  block.timestamp */\n      timestamp\n        /* \"Project-1-AuctionPlatform/Auction.sol\":4855:4880  block.timestamp < endTime */\n      lt\n        /* \"Project-1-AuctionPlatform/Auction.sol\":4847:4905  require(block.timestamp < endTime, \"Auction is Inactive \") */\n      iszero\n      iszero\n      tag_88\n      jumpi\n      mload(0x40)\n      0x8c379a000000000000000000000000000000000000000000000000000000000\n      dup2\n      mstore\n      0x4\n      add\n      dup1\n      dup1\n      0x20\n      add\n      dup3\n      dup2\n      sub\n      dup3\n      mstore\n      0x14\n      dup2\n      mstore\n      0x20\n      add\n      dup1\n      0x41756374696f6e20697320496e61637469766520000000000000000000000000\n      dup2\n      mstore\n      pop\n      0x20\n      add\n      swap2\n      pop\n      pop\n      mload(0x40)\n      dup1\n      swap2\n      sub\n      swap1\n      revert\n    tag_88:\n        /* \"Project-1-AuctionPlatform/Auction.sol\":4359:4360  0 */\n      0x0\n        /* \"Project-1-AuctionPlatform/Auction.sol\":4342:4360  uint256 maxBid = 0 */\n      swap2\n      pop\n        /* \"Project-1-AuctionPlatform/Auction.sol\":4420:4662  for (uint256 i; i < biddersList.length; i++) {... */\n    tag_90:\n        /* \"Project-1-AuctionPlatform/Auction.sol\":4440:4451  biddersList */\n      0x6\n        /* \"Project-1-AuctionPlatform/Auction.sol\":4440:4458  biddersList.length */\n      dup1\n      sload\n      swap1\n      pop\n        /* \"Project-1-AuctionPlatform/Auction.sol\":4436:4437  i */\n      dup2\n        /* \"Project-1-AuctionPlatform/Auction.sol\":4436:4458  i < biddersList.length */\n      lt\n        /* \"Project-1-AuctionPlatform/Auction.sol\":4420:4662  for (uint256 i; i < biddersList.length; i++) {... */\n      iszero\n      tag_91\n      jumpi\n        /* \"Project-1-AuctionPlatform/Auction.sol\":4561:4594  max(bids[biddersList[i]], maxBid) */\n      tag_93\n        /* \"Project-1-AuctionPlatform/Auction.sol\":4565:4569  bids */\n      0x5\n        /* \"Project-1-AuctionPlatform/Auction.sol\":4565:4585  bids[biddersList[i]] */\n      0x0\n        /* \"Project-1-AuctionPlatform/Auction.sol\":4570:4581  biddersList */\n      0x6\n        /* \"Project-1-AuctionPlatform/Auction.sol\":4582:4583  i */\n      dup5\n        /* \"Project-1-AuctionPlatform/Auction.sol\":4570:4584  biddersList[i] */\n      dup2\n      sload\n      dup2\n      lt\n      iszero\n      iszero\n      tag_94\n      jumpi\n      invalid\n    tag_94:\n      swap1\n      0x0\n      mstore\n      keccak256(0x0, 0x20)\n      add\n      0x0\n      swap1\n      sload\n      swap1\n      0x100\n      exp\n      swap1\n      div\n      0xffffffffffffffffffffffffffffffffffffffff\n      and\n        /* \"Project-1-AuctionPlatform/Auction.sol\":4565:4585  bids[biddersList[i]] */\n      0xffffffffffffffffffffffffffffffffffffffff\n      and\n      0xffffffffffffffffffffffffffffffffffffffff\n      and\n      dup2\n      mstore\n      0x20\n      add\n      swap1\n      dup2\n      mstore\n      0x20\n      add\n      0x0\n      keccak256\n      sload\n        /* \"Project-1-AuctionPlatform/Auction.sol\":4587:4593  maxBid */\n      dup4\n        /* \"Project-1-AuctionPlatform/Auction.sol\":4561:4564  max */\n      tag_96\n        /* \"Project-1-AuctionPlatform/Auction.sol\":4561:4594  max(bids[biddersList[i]], maxBid) */\n      jump\t// in\n    tag_93:\n        /* \"Project-1-AuctionPlatform/Auction.sol\":4552:4594  maxBid = max(bids[biddersList[i]], maxBid) */\n      swap2\n      pop\n        /* \"Project-1-AuctionPlatform/Auction.sol\":4460:4463  i++ */\n      dup1\n      dup1\n      0x1\n      add\n      swap2\n      pop\n      pop\n        /* \"Project-1-AuctionPlatform/Auction.sol\":4420:4662  for (uint256 i; i < biddersList.length; i++) {... */\n      jump(tag_90)\n    tag_91:\n        /* \"Project-1-AuctionPlatform/Auction.sol\":4678:4684  maxBid */\n      dup2\n        /* \"Project-1-AuctionPlatform/Auction.sol\":4671:4684  return maxBid */\n      swap3\n      pop\n        /* \"Project-1-AuctionPlatform/Auction.sol\":4266:4691  function getMaximumBid() external view isActive returns (uint256) {... */\n      pop\n      pop\n      swap1\n      jump\t// out\n        /* \"Project-1-AuctionPlatform/Auction.sol\":3435:4203  function endAuctionWithSelectedBid(uint256 bid)... */\n    tag_52:\n        /* \"Project-1-AuctionPlatform/Auction.sol\":3553:3560  address */\n      0x0\n        /* \"Project-1-AuctionPlatform/Auction.sol\":3670:3684  address winner */\n      dup1\n        /* \"Project-1-AuctionPlatform/Auction.sol\":3749:3758  uint256 i */\n      0x0\n        /* \"Project-1-AuctionPlatform/Auction.sol\":4873:4880  endTime */\n      sload(0x2)\n        /* \"Project-1-AuctionPlatform/Auction.sol\":4855:4870  block.timestamp */\n      timestamp\n        /* \"Project-1-AuctionPlatform/Auction.sol\":4855:4880  block.timestamp < endTime */\n      lt\n        /* \"Project-1-AuctionPlatform/Auction.sol\":4847:4905  require(block.timestamp < endTime, \"Auction is Inactive \") */\n      iszero\n      iszero\n      tag_98\n      jumpi\n      mload(0x40)\n      0x8c379a000000000000000000000000000000000000000000000000000000000\n      dup2\n      mstore\n      0x4\n      add\n      dup1\n      dup1\n      0x20\n      add\n      dup3\n      dup2\n      sub\n      dup3\n      mstore\n      0x14\n      dup2\n      mstore\n      0x20\n      add\n      dup1\n      0x41756374696f6e20697320496e61637469766520000000000000000000000000\n      dup2\n      mstore\n      pop\n      0x20\n      add\n      swap2\n      pop\n      pop\n      mload(0x40)\n      dup1\n      swap2\n      sub\n      swap1\n      revert\n    tag_98:\n        /* \"Project-1-AuctionPlatform/Auction.sol\":5512:5523  uint256 len */\n      0x0\n        /* \"Project-1-AuctionPlatform/Auction.sol\":5526:5537  biddersList */\n      0x6\n        /* \"Project-1-AuctionPlatform/Auction.sol\":5526:5544  biddersList.length */\n      dup1\n      sload\n      swap1\n      pop\n        /* \"Project-1-AuctionPlatform/Auction.sol\":5512:5544  uint256 len = biddersList.length */\n      swap1\n      pop\n        /* \"Project-1-AuctionPlatform/Auction.sol\":5568:5569  0 */\n      0x0\n        /* \"Project-1-AuctionPlatform/Auction.sol\":5562:5565  len */\n      dup2\n        /* \"Project-1-AuctionPlatform/Auction.sol\":5562:5569  len > 0 */\n      gt\n        /* \"Project-1-AuctionPlatform/Auction.sol\":5554:5613  require(len > 0, \"Can't end as no bids have been made yet\") */\n      iszero\n      iszero\n      tag_100\n      jumpi\n      mload(0x40)\n      0x8c379a000000000000000000000000000000000000000000000000000000000\n      dup2\n      mstore\n      0x4\n      add\n      dup1\n      dup1\n      0x20\n      add\n      dup3\n      dup2\n      sub\n      dup3\n      mstore\n      0x27\n      dup2\n      mstore\n      0x20\n      add\n      dup1\n      0x43616e277420656e64206173206e6f20626964732068617665206265656e206d\n      dup2\n      mstore\n      0x20\n      add\n      0x6164652079657400000000000000000000000000000000000000000000000000\n      dup2\n      mstore\n      pop\n      0x40\n      add\n      swap2\n      pop\n      pop\n      mload(0x40)\n      dup1\n      swap2\n      sub\n      swap1\n      revert\n    tag_100:\n        /* \"Project-1-AuctionPlatform/Auction.sol\":3586:3601  block.timestamp */\n      timestamp\n        /* \"Project-1-AuctionPlatform/Auction.sol\":3576:3583  endTime */\n      0x2\n        /* \"Project-1-AuctionPlatform/Auction.sol\":3576:3601  endTime = block.timestamp */\n      dup2\n      swap1\n      sstore\n      pop\n        /* \"Project-1-AuctionPlatform/Auction.sol\":3761:3762  0 */\n      0x0\n        /* \"Project-1-AuctionPlatform/Auction.sol\":3749:3762  uint256 i = 0 */\n      swap2\n      pop\n        /* \"Project-1-AuctionPlatform/Auction.sol\":3744:4076  for (uint256 i = 0; i < biddersList.length; i++) {... */\n    tag_102:\n        /* \"Project-1-AuctionPlatform/Auction.sol\":3768:3779  biddersList */\n      0x6\n        /* \"Project-1-AuctionPlatform/Auction.sol\":3768:3786  biddersList.length */\n      dup1\n      sload\n      swap1\n      pop\n        /* \"Project-1-AuctionPlatform/Auction.sol\":3764:3765  i */\n      dup3\n        /* \"Project-1-AuctionPlatform/Auction.sol\":3764:3786  i < biddersList.length */\n      lt\n        /* \"Project-1-AuctionPlatform/Auction.sol\":3744:4076  for (uint256 i = 0; i < biddersList.length; i++) {... */\n      iszero\n      tag_103\n      jumpi\n        /* \"Project-1-AuctionPlatform/Auction.sol\":3926:3929  bid */\n      dup5\n        /* \"Project-1-AuctionPlatform/Auction.sol\":3902:3906  bids */\n      0x5\n        /* \"Project-1-AuctionPlatform/Auction.sol\":3902:3922  bids[biddersList[i]] */\n      0x0\n        /* \"Project-1-AuctionPlatform/Auction.sol\":3907:3918  biddersList */\n      0x6\n        /* \"Project-1-AuctionPlatform/Auction.sol\":3919:3920  i */\n      dup6\n        /* \"Project-1-AuctionPlatform/Auction.sol\":3907:3921  biddersList[i] */\n      dup2\n      sload\n      dup2\n      lt\n      iszero\n      iszero\n      tag_105\n      jumpi\n      invalid\n    tag_105:\n      swap1\n      0x0\n      mstore\n      keccak256(0x0, 0x20)\n      add\n      0x0\n      swap1\n      sload\n      swap1\n      0x100\n      exp\n      swap1\n      div\n      0xffffffffffffffffffffffffffffffffffffffff\n      and\n        /* \"Project-1-AuctionPlatform/Auction.sol\":3902:3922  bids[biddersList[i]] */\n      0xffffffffffffffffffffffffffffffffffffffff\n      and\n      0xffffffffffffffffffffffffffffffffffffffff\n      and\n      dup2\n      mstore\n      0x20\n      add\n      swap1\n      dup2\n      mstore\n      0x20\n      add\n      0x0\n      keccak256\n      sload\n        /* \"Project-1-AuctionPlatform/Auction.sol\":3902:3929  bids[biddersList[i]] == bid */\n      eq\n        /* \"Project-1-AuctionPlatform/Auction.sol\":3898:4066  if (bids[biddersList[i]] == bid) {... */\n      iszero\n      tag_107\n      jumpi\n        /* \"Project-1-AuctionPlatform/Auction.sol\":4014:4025  biddersList */\n      0x6\n        /* \"Project-1-AuctionPlatform/Auction.sol\":4026:4027  i */\n      dup3\n        /* \"Project-1-AuctionPlatform/Auction.sol\":4014:4028  biddersList[i] */\n      dup2\n      sload\n      dup2\n      lt\n      iszero\n      iszero\n      tag_108\n      jumpi\n      invalid\n    tag_108:\n      swap1\n      0x0\n      mstore\n      keccak256(0x0, 0x20)\n      add\n      0x0\n      swap1\n      sload\n      swap1\n      0x100\n      exp\n      swap1\n      div\n      0xffffffffffffffffffffffffffffffffffffffff\n      and\n        /* \"Project-1-AuctionPlatform/Auction.sol\":4005:4028  winner = biddersList[i] */\n      swap3\n      pop\n        /* \"Project-1-AuctionPlatform/Auction.sol\":4046:4051  break */\n      jump(tag_103)\n        /* \"Project-1-AuctionPlatform/Auction.sol\":3898:4066  if (bids[biddersList[i]] == bid) {... */\n    tag_107:\n        /* \"Project-1-AuctionPlatform/Auction.sol\":3788:3791  i++ */\n      dup2\n      dup1\n      0x1\n      add\n      swap3\n      pop\n      pop\n        /* \"Project-1-AuctionPlatform/Auction.sol\":3744:4076  for (uint256 i = 0; i < biddersList.length; i++) {... */\n      jump(tag_102)\n    tag_103:\n        /* \"Project-1-AuctionPlatform/Auction.sol\":4111:4112  0 */\n      0x0\n        /* \"Project-1-AuctionPlatform/Auction.sol\":4093:4113  winner != address(0) */\n      0xffffffffffffffffffffffffffffffffffffffff\n      and\n        /* \"Project-1-AuctionPlatform/Auction.sol\":4093:4099  winner */\n      dup4\n        /* \"Project-1-AuctionPlatform/Auction.sol\":4093:4113  winner != address(0) */\n      0xffffffffffffffffffffffffffffffffffffffff\n      and\n      eq\n      iszero\n        /* \"Project-1-AuctionPlatform/Auction.sol\":4085:4144  require(winner != address(0), \"This bid has not been made\") */\n      iszero\n      iszero\n      tag_110\n      jumpi\n      mload(0x40)\n      0x8c379a000000000000000000000000000000000000000000000000000000000\n      dup2\n      mstore\n      0x4\n      add\n      dup1\n      dup1\n      0x20\n      add\n      dup3\n      dup2\n      sub\n      dup3\n      mstore\n      0x1a\n      dup2\n      mstore\n      0x20\n      add\n      dup1\n      0x546869732062696420686173206e6f74206265656e206d616465000000000000\n      dup2\n      mstore\n      pop\n      0x20\n      add\n      swap2\n      pop\n      pop\n      mload(0x40)\n      dup1\n      swap2\n      sub\n      swap1\n      revert\n    tag_110:\n        /* \"Project-1-AuctionPlatform/Auction.sol\":4190:4196  winner */\n      dup3\n        /* \"Project-1-AuctionPlatform/Auction.sol\":4183:4196  return winner */\n      swap4\n      pop\n        /* \"Project-1-AuctionPlatform/Auction.sol\":4915:4916  _ */\n      pop\n        /* \"Project-1-AuctionPlatform/Auction.sol\":3435:4203  function endAuctionWithSelectedBid(uint256 bid)... */\n      pop\n      pop\n      swap2\n      swap1\n      pop\n      jump\t// out\n        /* \"Project-1-AuctionPlatform/Auction.sol\":1451:1556  function max(uint256 a, uint256 b) internal pure returns (uint256) {... */\n    tag_96:\n        /* \"Project-1-AuctionPlatform/Auction.sol\":1509:1516  uint256 */\n      0x0\n        /* \"Project-1-AuctionPlatform/Auction.sol\":1540:1541  b */\n      dup2\n        /* \"Project-1-AuctionPlatform/Auction.sol\":1535:1536  a */\n      dup4\n        /* \"Project-1-AuctionPlatform/Auction.sol\":1535:1541  a >= b */\n      lt\n      iszero\n        /* \"Project-1-AuctionPlatform/Auction.sol\":1535:1549  a >= b ? a : b */\n      tag_112\n      jumpi\n        /* \"Project-1-AuctionPlatform/Auction.sol\":1548:1549  b */\n      dup2\n        /* \"Project-1-AuctionPlatform/Auction.sol\":1535:1549  a >= b ? a : b */\n      jump(tag_113)\n    tag_112:\n        /* \"Project-1-AuctionPlatform/Auction.sol\":1544:1545  a */\n      dup3\n        /* \"Project-1-AuctionPlatform/Auction.sol\":1535:1549  a >= b ? a : b */\n    tag_113:\n        /* \"Project-1-AuctionPlatform/Auction.sol\":1528:1549  return a >= b ? a : b */\n      swap1\n      pop\n        /* \"Project-1-AuctionPlatform/Auction.sol\":1451:1556  function max(uint256 a, uint256 b) internal pure returns (uint256) {... */\n      swap3\n      swap2\n      pop\n      pop\n      jump\t// out\n\n    auxdata: 0xa165627a7a72305820676e6926073d3ac47685d80883d8dfcc46f2f7969d0049053c8fc6bd3fef01fc0029\n}\n",
				"bytecode": {
					"linkReferences": {},
					"object": "608060405234801561001057600080fd5b5060405161110b38038061110b83398101806040528101908080518201929190602001805190602001909291908051906020019092919080519060200190929190505050836000908051906020019061006a929190610089565b508260018190555081600281905550806003819055505050505061012e565b828054600181600116156101000203166002900490600052602060002090601f016020900481019282601f106100ca57805160ff19168380011785556100f8565b828001600101855582156100f8579182015b828111156100f75782518255916020019190600101906100dc565b5b5090506101059190610109565b5090565b61012b91905b8082111561012757600081600090555060010161010f565b5090565b90565b610fce8061013d6000396000f3006080604052600436106100af576000357c0100000000000000000000000000000000000000000000000000000000900463ffffffff1680631a092541146100b4578063409766e61461014457806343129de114610173578063439f5ac2146101a057806362ea82db146101cb578063659dd2b414610222578063679dbf0c1461024f578063ad934674146102bb578063c828371e146102e6578063dd06ba1a14610311578063dee37a8e1461033c575b600080fd5b3480156100c057600080fd5b506100c96103a9565b6040518080602001828103825283818151815260200191508051906020019080838360005b838110156101095780820151818401526020810190506100ee565b50505050905090810190601f1680156101365780820380516001836020036101000a031916815260200191505b509250505060405180910390f35b34801561015057600080fd5b5061015961044b565b604051808215151515815260200191505060405180910390f35b34801561017f57600080fd5b5061019e60048036038101908080359060200190929190505050610462565b005b3480156101ac57600080fd5b506101b56106c7565b6040518082815260200191505060405180910390f35b3480156101d757600080fd5b5061020c600480360381019080803573ffffffffffffffffffffffffffffffffffffffff1690602001909291905050506106d1565b6040518082815260200191505060405180910390f35b34801561022e57600080fd5b5061024d600480360381019080803590602001909291905050506106e9565b005b34801561025b57600080fd5b506102646109a8565b6040518080602001828103825283818151815260200191508051906020019060200280838360005b838110156102a757808201518184015260208101905061028c565b505050509050019250505060405180910390f35b3480156102c757600080fd5b506102d0610b15565b6040518082815260200191505060405180910390f35b3480156102f257600080fd5b506102fb610b98565b6040518082815260200191505060405180910390f35b34801561031d57600080fd5b50610326610ba2565b6040518082815260200191505060405180910390f35b34801561034857600080fd5b5061036760048036038101908080359060200190929190505050610ccb565b604051808273ffffffffffffffffffffffffffffffffffffffff1673ffffffffffffffffffffffffffffffffffffffff16815260200191505060405180910390f35b606060008054600181600116156101000203166002900480601f0160208091040260200160405190810160405280929190818152602001828054600181600116156101000203166002900480156104415780601f1061041657610100808354040283529160200191610441565b820191906000526020600020905b81548152906001019060200180831161042457829003601f168201915b5050505050905090565b6000600460009054906101000a900460ff16905090565b8060035481111515610528576040517f08c379a00000000000000000000000000000000000000000000000000000000081526004018080602001828103825260458152602001807f506c6561736520656e7465722061206269642067726561746572207468616e2081526020017f6d696e696d756d20726571756972656420626964206f6620676976656e20617581526020017f6374696f6e00000000000000000000000000000000000000000000000000000081525060600191505060405180910390fd5b600254421015156105a1576040517f08c379a00000000000000000000000000000000000000000000000000000000081526004018080602001828103825260148152602001807f41756374696f6e20697320496e6163746976652000000000000000000000000081525060200191505060405180910390fd5b6000600560003273ffffffffffffffffffffffffffffffffffffffff1673ffffffffffffffffffffffffffffffffffffffff168152602001908152602001600020541415151561067f576040517f08c379a000000000000000000000000000000000000000000000000000000000815260040180806020018281038252603b8152602001807f596f7520686176656e2774206372656174656420616e79206269642c2075736581526020017f2063726561746542696420666f72206372656174696e67206f6e65000000000081525060400191505060405180910390fd5b81600560003273ffffffffffffffffffffffffffffffffffffffff1673ffffffffffffffffffffffffffffffffffffffff168152602001908152602001600020819055505050565b6000600254905090565b60056020528060005260406000206000915090505481565b80600354811115156107af576040517f08c379a00000000000000000000000000000000000000000000000000000000081526004018080602001828103825260458152602001807f506c6561736520656e7465722061206269642067726561746572207468616e2081526020017f6d696e696d756d20726571756972656420626964206f6620676976656e20617581526020017f6374696f6e00000000000000000000000000000000000000000000000000000081525060600191505060405180910390fd5b60025442101515610828576040517f08c379a00000000000000000000000000000000000000000000000000000000081526004018080602001828103825260148152602001807f41756374696f6e20697320496e6163746976652000000000000000000000000081525060200191505060405180910390fd5b6000600560003273ffffffffffffffffffffffffffffffffffffffff1673ffffffffffffffffffffffffffffffffffffffff168152602001908152602001600020541415156108df576040517f08c379a000000000000000000000000000000000000000000000000000000000815260040180806020018281038252601e8152602001807f596f75206861766520616c72656164792063726561746564206120626964000081525060200191505060405180910390fd5b6001600460006101000a81548160ff02191690831515021790555081600560003273ffffffffffffffffffffffffffffffffffffffff1673ffffffffffffffffffffffffffffffffffffffff1681526020019081526020016000208190555060063290806001815401808255809150509060018203906000526020600020016000909192909190916101000a81548173ffffffffffffffffffffffffffffffffffffffff021916908373ffffffffffffffffffffffffffffffffffffffff160217905550505050565b606080600060025442101515610a26576040517f08c379a00000000000000000000000000000000000000000000000000000000081526004018080602001828103825260148152602001807f41756374696f6e20697320496e6163746976652000000000000000000000000081525060200191505060405180910390fd5b600680549050604051908082528060200260200182016040528015610a5a5781602001602082028038833980820191505090505b5091505b600680549050811015610b0d5760056000600683815481101515610a7e57fe5b9060005260206000200160009054906101000a900473ffffffffffffffffffffffffffffffffffffffff1673ffffffffffffffffffffffffffffffffffffffff1673ffffffffffffffffffffffffffffffffffffffff168152602001908152602001600020548282815181101515610af257fe5b90602001906020020181815250508080600101915050610a5e565b819250505090565b600060025442101515610b90576040517f08c379a00000000000000000000000000000000000000000000000000000000081526004018080602001828103825260148152602001807f41756374696f6e20697320496e6163746976652000000000000000000000000081525060200191505060405180910390fd5b600354905090565b6000600154905090565b600080600060025442101515610c20576040517f08c379a00000000000000000000000000000000000000000000000000000000081526004018080602001828103825260148152602001807f41756374696f6e20697320496e6163746976652000000000000000000000000081525060200191505060405180910390fd5b600091505b600680549050811015610cc357610cb460056000600684815481101515610c4857fe5b9060005260206000200160009054906101000a900473ffffffffffffffffffffffffffffffffffffffff1673ffffffffffffffffffffffffffffffffffffffff1673ffffffffffffffffffffffffffffffffffffffff1681526020019081526020016000205483610f88565b91508080600101915050610c25565b819250505090565b600080600060025442101515610d49576040517f08c379a00000000000000000000000000000000000000000000000000000000081526004018080602001828103825260148152602001807f41756374696f6e20697320496e6163746976652000000000000000000000000081525060200191505060405180910390fd5b60006006805490509050600081111515610df1576040517f08c379a00000000000000000000000000000000000000000000000000000000081526004018080602001828103825260278152602001807f43616e277420656e64206173206e6f20626964732068617665206265656e206d81526020017f616465207965740000000000000000000000000000000000000000000000000081525060400191505060405180910390fd5b42600281905550600091505b600680549050821015610ed8578460056000600685815481101515610e1e57fe5b9060005260206000200160009054906101000a900473ffffffffffffffffffffffffffffffffffffffff1673ffffffffffffffffffffffffffffffffffffffff1673ffffffffffffffffffffffffffffffffffffffff168152602001908152602001600020541415610ecb57600682815481101515610e9957fe5b9060005260206000200160009054906101000a900473ffffffffffffffffffffffffffffffffffffffff169250610ed8565b8180600101925050610dfd565b600073ffffffffffffffffffffffffffffffffffffffff168373ffffffffffffffffffffffffffffffffffffffff1614151515610f7d576040517f08c379a000000000000000000000000000000000000000000000000000000000815260040180806020018281038252601a8152602001807f546869732062696420686173206e6f74206265656e206d61646500000000000081525060200191505060405180910390fd5b829350505050919050565b600081831015610f985781610f9a565b825b9050929150505600a165627a7a72305820676e6926073d3ac47685d80883d8dfcc46f2f7969d0049053c8fc6bd3fef01fc0029",
					"opcodes": "PUSH1 0x80 PUSH1 0x40 MSTORE CALLVALUE DUP1 ISZERO PUSH2 0x10 JUMPI PUSH1 0x0 DUP1 REVERT JUMPDEST POP PUSH1 0x40 MLOAD PUSH2 0x110B CODESIZE SUB DUP1 PUSH2 0x110B DUP4 CODECOPY DUP2 ADD DUP1 PUSH1 0x40 MSTORE DUP2 ADD SWAP1 DUP1 DUP1 MLOAD DUP3 ADD SWAP3 SWAP2 SWAP1 PUSH1 0x20 ADD DUP1 MLOAD SWAP1 PUSH1 0x20 ADD SWAP1 SWAP3 SWAP2 SWAP1 DUP1 MLOAD SWAP1 PUSH1 0x20 ADD SWAP1 SWAP3 SWAP2 SWAP1 DUP1 MLOAD SWAP1 PUSH1 0x20 ADD SWAP1 SWAP3 SWAP2 SWAP1 POP POP POP DUP4 PUSH1 0x0 SWAP1 DUP1 MLOAD SWAP1 PUSH1 0x20 ADD SWAP1 PUSH2 0x6A SWAP3 SWAP2 SWAP1 PUSH2 0x89 JUMP JUMPDEST POP DUP3 PUSH1 0x1 DUP2 SWAP1 SSTORE POP DUP2 PUSH1 0x2 DUP2 SWAP1 SSTORE POP DUP1 PUSH1 0x3 DUP2 SWAP1 SSTORE POP POP POP POP POP PUSH2 0x12E JUMP JUMPDEST DUP3 DUP1 SLOAD PUSH1 0x1 DUP2 PUSH1 0x1 AND ISZERO PUSH2 0x100 MUL SUB AND PUSH1 0x2 SWAP1 DIV SWAP1 PUSH1 0x0 MSTORE PUSH1 0x20 PUSH1 0x0 KECCAK256 SWAP1 PUSH1 0x1F ADD PUSH1 0x20 SWAP1 DIV DUP2 ADD SWAP3 DUP3 PUSH1 0x1F LT PUSH2 0xCA JUMPI DUP1 MLOAD PUSH1 0xFF NOT AND DUP4 DUP1 ADD OR DUP6 SSTORE PUSH2 0xF8 JUMP JUMPDEST DUP3 DUP1 ADD PUSH1 0x1 ADD DUP6 SSTORE DUP3 ISZERO PUSH2 0xF8 JUMPI SWAP2 DUP3 ADD JUMPDEST DUP3 DUP2 GT ISZERO PUSH2 0xF7 JUMPI DUP3 MLOAD DUP3 SSTORE SWAP2 PUSH1 0x20 ADD SWAP2 SWAP1 PUSH1 0x1 ADD SWAP1 PUSH2 0xDC JUMP JUMPDEST JUMPDEST POP SWAP1 POP PUSH2 0x105 SWAP2 SWAP1 PUSH2 0x109 JUMP JUMPDEST POP SWAP1 JUMP JUMPDEST PUSH2 0x12B SWAP2 SWAP1 JUMPDEST DUP1 DUP3 GT ISZERO PUSH2 0x127 JUMPI PUSH1 0x0 DUP2 PUSH1 0x0 SWAP1 SSTORE POP PUSH1 0x1 ADD PUSH2 0x10F JUMP JUMPDEST POP SWAP1 JUMP JUMPDEST SWAP1 JUMP JUMPDEST PUSH2 0xFCE DUP1 PUSH2 0x13D PUSH1 0x0 CODECOPY PUSH1 0x0 RETURN STOP PUSH1 0x80 PUSH1 0x40 MSTORE PUSH1 0x4 CALLDATASIZE LT PUSH2 0xAF JUMPI PUSH1 0x0 CALLDATALOAD PUSH29 0x100000000000000000000000000000000000000000000000000000000 SWAP1 DIV PUSH4 0xFFFFFFFF AND DUP1 PUSH4 0x1A092541 EQ PUSH2 0xB4 JUMPI DUP1 PUSH4 0x409766E6 EQ PUSH2 0x144 JUMPI DUP1 PUSH4 0x43129DE1 EQ PUSH2 0x173 JUMPI DUP1 PUSH4 0x439F5AC2 EQ PUSH2 0x1A0 JUMPI DUP1 PUSH4 0x62EA82DB EQ PUSH2 0x1CB JUMPI DUP1 PUSH4 0x659DD2B4 EQ PUSH2 0x222 JUMPI DUP1 PUSH4 0x679DBF0C EQ PUSH2 0x24F JUMPI DUP1 PUSH4 0xAD934674 EQ PUSH2 0x2BB JUMPI DUP1 PUSH4 0xC828371E EQ PUSH2 0x2E6 JUMPI DUP1 PUSH4 0xDD06BA1A EQ PUSH2 0x311 JUMPI DUP1 PUSH4 0xDEE37A8E EQ PUSH2 0x33C JUMPI JUMPDEST PUSH1 0x0 DUP1 REVERT JUMPDEST CALLVALUE DUP1 ISZERO PUSH2 0xC0 JUMPI PUSH1 0x0 DUP1 REVERT JUMPDEST POP PUSH2 0xC9 PUSH2 0x3A9 JUMP JUMPDEST PUSH1 0x40 MLOAD DUP1 DUP1 PUSH1 0x20 ADD DUP3 DUP2 SUB DUP3 MSTORE DUP4 DUP2 DUP2 MLOAD DUP2 MSTORE PUSH1 0x20 ADD SWAP2 POP DUP1 MLOAD SWAP1 PUSH1 0x20 ADD SWAP1 DUP1 DUP4 DUP4 PUSH1 0x0 JUMPDEST DUP4 DUP2 LT ISZERO PUSH2 0x109 JUMPI DUP1 DUP3 ADD MLOAD DUP2 DUP5 ADD MSTORE PUSH1 0x20 DUP2 ADD SWAP1 POP PUSH2 0xEE JUMP JUMPDEST POP POP POP POP SWAP1 POP SWAP1 DUP2 ADD SWAP1 PUSH1 0x1F AND DUP1 ISZERO PUSH2 0x136 JUMPI DUP1 DUP3 SUB DUP1 MLOAD PUSH1 0x1 DUP4 PUSH1 0x20 SUB PUSH2 0x100 EXP SUB NOT AND DUP2 MSTORE PUSH1 0x20 ADD SWAP2 POP JUMPDEST POP SWAP3 POP POP POP PUSH1 0x40 MLOAD DUP1 SWAP2 SUB SWAP1 RETURN JUMPDEST CALLVALUE DUP1 ISZERO PUSH2 0x150 JUMPI PUSH1 0x0 DUP1 REVERT JUMPDEST POP PUSH2 0x159 PUSH2 0x44B JUMP JUMPDEST PUSH1 0x40 MLOAD DUP1 DUP3 ISZERO ISZERO ISZERO ISZERO DUP2 MSTORE PUSH1 0x20 ADD SWAP2 POP POP PUSH1 0x40 MLOAD DUP1 SWAP2 SUB SWAP1 RETURN JUMPDEST CALLVALUE DUP1 ISZERO PUSH2 0x17F JUMPI PUSH1 0x0 DUP1 REVERT JUMPDEST POP PUSH2 0x19E PUSH1 0x4 DUP1 CALLDATASIZE SUB DUP2 ADD SWAP1 DUP1 DUP1 CALLDATALOAD SWAP1 PUSH1 0x20 ADD SWAP1 SWAP3 SWAP2 SWAP1 POP POP POP PUSH2 0x462 JUMP JUMPDEST STOP JUMPDEST CALLVALUE DUP1 ISZERO PUSH2 0x1AC JUMPI PUSH1 0x0 DUP1 REVERT JUMPDEST POP PUSH2 0x1B5 PUSH2 0x6C7 JUMP JUMPDEST PUSH1 0x40 MLOAD DUP1 DUP3 DUP2 MSTORE PUSH1 0x20 ADD SWAP2 POP POP PUSH1 0x40 MLOAD DUP1 SWAP2 SUB SWAP1 RETURN JUMPDEST CALLVALUE DUP1 ISZERO PUSH2 0x1D7 JUMPI PUSH1 0x0 DUP1 REVERT JUMPDEST POP PUSH2 0x20C PUSH1 0x4 DUP1 CALLDATASIZE SUB DUP2 ADD SWAP1 DUP1 DUP1 CALLDATALOAD PUSH20 0xFFFFFFFFFFFFFFFFFFFFFFFFFFFFFFFFFFFFFFFF AND SWAP1 PUSH1 0x20 ADD SWAP1 SWAP3 SWAP2 SWAP1 POP POP POP PUSH2 0x6D1 JUMP JUMPDEST PUSH1 0x40 MLOAD DUP1 DUP3 DUP2 MSTORE PUSH1 0x20 ADD SWAP2 POP POP PUSH1 0x40 MLOAD DUP1 SWAP2 SUB SWAP1 RETURN JUMPDEST CALLVALUE DUP1 ISZERO PUSH2 0x22E JUMPI PUSH1 0x0 DUP1 REVERT JUMPDEST POP PUSH2 0x24D PUSH1 0x4 DUP1 CALLDATASIZE SUB DUP2 ADD SWAP1 DUP1 DUP1 CALLDATALOAD SWAP1 PUSH1 0x20 ADD SWAP1 SWAP3 SWAP2 SWAP1 POP POP POP PUSH2 0x6E9 JUMP JUMPDEST STOP JUMPDEST CALLVALUE DUP1 ISZERO PUSH2 0x25B JUMPI PUSH1 0x0 DUP1 REVERT JUMPDEST POP PUSH2 0x264 PUSH2 0x9A8 JUMP JUMPDEST PUSH1 0x40 MLOAD DUP1 DUP1 PUSH1 0x20 ADD DUP3 DUP2 SUB DUP3 MSTORE DUP4 DUP2 DUP2 MLOAD DUP2 MSTORE PUSH1 0x20 ADD SWAP2 POP DUP1 MLOAD SWAP1 PUSH1 0x20 ADD SWAP1 PUSH1 0x20 MUL DUP1 DUP4 DUP4 PUSH1 0x0 JUMPDEST DUP4 DUP2 LT ISZERO PUSH2 0x2A7 JUMPI DUP1 DUP3 ADD MLOAD DUP2 DUP5 ADD MSTORE PUSH1 0x20 DUP2 ADD SWAP1 POP PUSH2 0x28C JUMP JUMPDEST POP POP POP POP SWAP1 POP ADD SWAP3 POP POP POP PUSH1 0x40 MLOAD DUP1 SWAP2 SUB SWAP1 RETURN JUMPDEST CALLVALUE DUP1 ISZERO PUSH2 0x2C7 JUMPI PUSH1 0x0 DUP1 REVERT JUMPDEST POP PUSH2 0x2D0 PUSH2 0xB15 JUMP JUMPDEST PUSH1 0x40 MLOAD DUP1 DUP3 DUP2 MSTORE PUSH1 0x20 ADD SWAP2 POP POP PUSH1 0x40 MLOAD DUP1 SWAP2 SUB SWAP1 RETURN JUMPDEST CALLVALUE DUP1 ISZERO PUSH2 0x2F2 JUMPI PUSH1 0x0 DUP1 REVERT JUMPDEST POP PUSH2 0x2FB PUSH2 0xB98 JUMP JUMPDEST PUSH1 0x40 MLOAD DUP1 DUP3 DUP2 MSTORE PUSH1 0x20 ADD SWAP2 POP POP PUSH1 0x40 MLOAD DUP1 SWAP2 SUB SWAP1 RETURN JUMPDEST CALLVALUE DUP1 ISZERO PUSH2 0x31D JUMPI PUSH1 0x0 DUP1 REVERT JUMPDEST POP PUSH2 0x326 PUSH2 0xBA2 JUMP JUMPDEST PUSH1 0x40 MLOAD DUP1 DUP3 DUP2 MSTORE PUSH1 0x20 ADD SWAP2 POP POP PUSH1 0x40 MLOAD DUP1 SWAP2 SUB SWAP1 RETURN JUMPDEST CALLVALUE DUP1 ISZERO PUSH2 0x348 JUMPI PUSH1 0x0 DUP1 REVERT JUMPDEST POP PUSH2 0x367 PUSH1 0x4 DUP1 CALLDATASIZE SUB DUP2 ADD SWAP1 DUP1 DUP1 CALLDATALOAD SWAP1 PUSH1 0x20 ADD SWAP1 SWAP3 SWAP2 SWAP1 POP POP POP PUSH2 0xCCB JUMP JUMPDEST PUSH1 0x40 MLOAD DUP1 DUP3 PUSH20 0xFFFFFFFFFFFFFFFFFFFFFFFFFFFFFFFFFFFFFFFF AND PUSH20 0xFFFFFFFFFFFFFFFFFFFFFFFFFFFFFFFFFFFFFFFF AND DUP2 MSTORE PUSH1 0x20 ADD SWAP2 POP POP PUSH1 0x40 MLOAD DUP1 SWAP2 SUB SWAP1 RETURN JUMPDEST PUSH1 0x60 PUSH1 0x0 DUP1 SLOAD PUSH1 0x1 DUP2 PUSH1 0x1 AND ISZERO PUSH2 0x100 MUL SUB AND PUSH1 0x2 SWAP1 DIV DUP1 PUSH1 0x1F ADD PUSH1 0x20 DUP1 SWAP2 DIV MUL PUSH1 0x20 ADD PUSH1 0x40 MLOAD SWAP1 DUP2 ADD PUSH1 0x40 MSTORE DUP1 SWAP3 SWAP2 SWAP1 DUP2 DUP2 MSTORE PUSH1 0x20 ADD DUP3 DUP1 SLOAD PUSH1 0x1 DUP2 PUSH1 0x1 AND ISZERO PUSH2 0x100 MUL SUB AND PUSH1 0x2 SWAP1 DIV DUP1 ISZERO PUSH2 0x441 JUMPI DUP1 PUSH1 0x1F LT PUSH2 0x416 JUMPI PUSH2 0x100 DUP1 DUP4 SLOAD DIV MUL DUP4 MSTORE SWAP2 PUSH1 0x20 ADD SWAP2 PUSH2 0x441 JUMP JUMPDEST DUP3 ADD SWAP2 SWAP1 PUSH1 0x0 MSTORE PUSH1 0x20 PUSH1 0x0 KECCAK256 SWAP1 JUMPDEST DUP2 SLOAD DUP2 MSTORE SWAP1 PUSH1 0x1 ADD SWAP1 PUSH1 0x20 ADD DUP1 DUP4 GT PUSH2 0x424 JUMPI DUP3 SWAP1 SUB PUSH1 0x1F AND DUP3 ADD SWAP2 JUMPDEST POP POP POP POP POP SWAP1 POP SWAP1 JUMP JUMPDEST PUSH1 0x0 PUSH1 0x4 PUSH1 0x0 SWAP1 SLOAD SWAP1 PUSH2 0x100 EXP SWAP1 DIV PUSH1 0xFF AND SWAP1 POP SWAP1 JUMP JUMPDEST DUP1 PUSH1 0x3 SLOAD DUP2 GT ISZERO ISZERO PUSH2 0x528 JUMPI PUSH1 0x40 MLOAD PUSH32 0x8C379A000000000000000000000000000000000000000000000000000000000 DUP2 MSTORE PUSH1 0x4 ADD DUP1 DUP1 PUSH1 0x20 ADD DUP3 DUP2 SUB DUP3 MSTORE PUSH1 0x45 DUP2 MSTORE PUSH1 0x20 ADD DUP1 PUSH32 0x506C6561736520656E7465722061206269642067726561746572207468616E20 DUP2 MSTORE PUSH1 0x20 ADD PUSH32 0x6D696E696D756D20726571756972656420626964206F6620676976656E206175 DUP2 MSTORE PUSH1 0x20 ADD PUSH32 0x6374696F6E000000000000000000000000000000000000000000000000000000 DUP2 MSTORE POP PUSH1 0x60 ADD SWAP2 POP POP PUSH1 0x40 MLOAD DUP1 SWAP2 SUB SWAP1 REVERT JUMPDEST PUSH1 0x2 SLOAD TIMESTAMP LT ISZERO ISZERO PUSH2 0x5A1 JUMPI PUSH1 0x40 MLOAD PUSH32 0x8C379A000000000000000000000000000000000000000000000000000000000 DUP2 MSTORE PUSH1 0x4 ADD DUP1 DUP1 PUSH1 0x20 ADD DUP3 DUP2 SUB DUP3 MSTORE PUSH1 0x14 DUP2 MSTORE PUSH1 0x20 ADD DUP1 PUSH32 0x41756374696F6E20697320496E61637469766520000000000000000000000000 DUP2 MSTORE POP PUSH1 0x20 ADD SWAP2 POP POP PUSH1 0x40 MLOAD DUP1 SWAP2 SUB SWAP1 REVERT JUMPDEST PUSH1 0x0 PUSH1 0x5 PUSH1 0x0 ORIGIN PUSH20 0xFFFFFFFFFFFFFFFFFFFFFFFFFFFFFFFFFFFFFFFF AND PUSH20 0xFFFFFFFFFFFFFFFFFFFFFFFFFFFFFFFFFFFFFFFF AND DUP2 MSTORE PUSH1 0x20 ADD SWAP1 DUP2 MSTORE PUSH1 0x20 ADD PUSH1 0x0 KECCAK256 SLOAD EQ ISZERO ISZERO ISZERO PUSH2 0x67F JUMPI PUSH1 0x40 MLOAD PUSH32 0x8C379A000000000000000000000000000000000000000000000000000000000 DUP2 MSTORE PUSH1 0x4 ADD DUP1 DUP1 PUSH1 0x20 ADD DUP3 DUP2 SUB DUP3 MSTORE PUSH1 0x3B DUP2 MSTORE PUSH1 0x20 ADD DUP1 PUSH32 0x596F7520686176656E2774206372656174656420616E79206269642C20757365 DUP2 MSTORE PUSH1 0x20 ADD PUSH32 0x2063726561746542696420666F72206372656174696E67206F6E650000000000 DUP2 MSTORE POP PUSH1 0x40 ADD SWAP2 POP POP PUSH1 0x40 MLOAD DUP1 SWAP2 SUB SWAP1 REVERT JUMPDEST DUP2 PUSH1 0x5 PUSH1 0x0 ORIGIN PUSH20 0xFFFFFFFFFFFFFFFFFFFFFFFFFFFFFFFFFFFFFFFF AND PUSH20 0xFFFFFFFFFFFFFFFFFFFFFFFFFFFFFFFFFFFFFFFF AND DUP2 MSTORE PUSH1 0x20 ADD SWAP1 DUP2 MSTORE PUSH1 0x20 ADD PUSH1 0x0 KECCAK256 DUP2 SWAP1 SSTORE POP POP POP JUMP JUMPDEST PUSH1 0x0 PUSH1 0x2 SLOAD SWAP1 POP SWAP1 JUMP JUMPDEST PUSH1 0x5 PUSH1 0x20 MSTORE DUP1 PUSH1 0x0 MSTORE PUSH1 0x40 PUSH1 0x0 KECCAK256 PUSH1 0x0 SWAP2 POP SWAP1 POP SLOAD DUP2 JUMP JUMPDEST DUP1 PUSH1 0x3 SLOAD DUP2 GT ISZERO ISZERO PUSH2 0x7AF JUMPI PUSH1 0x40 MLOAD PUSH32 0x8C379A000000000000000000000000000000000000000000000000000000000 DUP2 MSTORE PUSH1 0x4 ADD DUP1 DUP1 PUSH1 0x20 ADD DUP3 DUP2 SUB DUP3 MSTORE PUSH1 0x45 DUP2 MSTORE PUSH1 0x20 ADD DUP1 PUSH32 0x506C6561736520656E7465722061206269642067726561746572207468616E20 DUP2 MSTORE PUSH1 0x20 ADD PUSH32 0x6D696E696D756D20726571756972656420626964206F6620676976656E206175 DUP2 MSTORE PUSH1 0x20 ADD PUSH32 0x6374696F6E000000000000000000000000000000000000000000000000000000 DUP2 MSTORE POP PUSH1 0x60 ADD SWAP2 POP POP PUSH1 0x40 MLOAD DUP1 SWAP2 SUB SWAP1 REVERT JUMPDEST PUSH1 0x2 SLOAD TIMESTAMP LT ISZERO ISZERO PUSH2 0x828 JUMPI PUSH1 0x40 MLOAD PUSH32 0x8C379A000000000000000000000000000000000000000000000000000000000 DUP2 MSTORE PUSH1 0x4 ADD DUP1 DUP1 PUSH1 0x20 ADD DUP3 DUP2 SUB DUP3 MSTORE PUSH1 0x14 DUP2 MSTORE PUSH1 0x20 ADD DUP1 PUSH32 0x41756374696F6E20697320496E61637469766520000000000000000000000000 DUP2 MSTORE POP PUSH1 0x20 ADD SWAP2 POP POP PUSH1 0x40 MLOAD DUP1 SWAP2 SUB SWAP1 REVERT JUMPDEST PUSH1 0x0 PUSH1 0x5 PUSH1 0x0 ORIGIN PUSH20 0xFFFFFFFFFFFFFFFFFFFFFFFFFFFFFFFFFFFFFFFF AND PUSH20 0xFFFFFFFFFFFFFFFFFFFFFFFFFFFFFFFFFFFFFFFF AND DUP2 MSTORE PUSH1 0x20 ADD SWAP1 DUP2 MSTORE PUSH1 0x20 ADD PUSH1 0x0 KECCAK256 SLOAD EQ ISZERO ISZERO PUSH2 0x8DF JUMPI PUSH1 0x40 MLOAD PUSH32 0x8C379A000000000000000000000000000000000000000000000000000000000 DUP2 MSTORE PUSH1 0x4 ADD DUP1 DUP1 PUSH1 0x20 ADD DUP3 DUP2 SUB DUP3 MSTORE PUSH1 0x1E DUP2 MSTORE PUSH1 0x20 ADD DUP1 PUSH32 0x596F75206861766520616C726561647920637265617465642061206269640000 DUP2 MSTORE POP PUSH1 0x20 ADD SWAP2 POP POP PUSH1 0x40 MLOAD DUP1 SWAP2 SUB SWAP1 REVERT JUMPDEST PUSH1 0x1 PUSH1 0x4 PUSH1 0x0 PUSH2 0x100 EXP DUP2 SLOAD DUP2 PUSH1 0xFF MUL NOT AND SWAP1 DUP4 ISZERO ISZERO MUL OR SWAP1 SSTORE POP DUP2 PUSH1 0x5 PUSH1 0x0 ORIGIN PUSH20 0xFFFFFFFFFFFFFFFFFFFFFFFFFFFFFFFFFFFFFFFF AND PUSH20 0xFFFFFFFFFFFFFFFFFFFFFFFFFFFFFFFFFFFFFFFF AND DUP2 MSTORE PUSH1 0x20 ADD SWAP1 DUP2 MSTORE PUSH1 0x20 ADD PUSH1 0x0 KECCAK256 DUP2 SWAP1 SSTORE POP PUSH1 0x6 ORIGIN SWAP1 DUP1 PUSH1 0x1 DUP2 SLOAD ADD DUP1 DUP3 SSTORE DUP1 SWAP2 POP POP SWAP1 PUSH1 0x1 DUP3 SUB SWAP1 PUSH1 0x0 MSTORE PUSH1 0x20 PUSH1 0x0 KECCAK256 ADD PUSH1 0x0 SWAP1 SWAP2 SWAP3 SWAP1 SWAP2 SWAP1 SWAP2 PUSH2 0x100 EXP DUP2 SLOAD DUP2 PUSH20 0xFFFFFFFFFFFFFFFFFFFFFFFFFFFFFFFFFFFFFFFF MUL NOT AND SWAP1 DUP4 PUSH20 0xFFFFFFFFFFFFFFFFFFFFFFFFFFFFFFFFFFFFFFFF AND MUL OR SWAP1 SSTORE POP POP POP POP JUMP JUMPDEST PUSH1 0x60 DUP1 PUSH1 0x0 PUSH1 0x2 SLOAD TIMESTAMP LT ISZERO ISZERO PUSH2 0xA26 JUMPI PUSH1 0x40 MLOAD PUSH32 0x8C379A000000000000000000000000000000000000000000000000000000000 DUP2 MSTORE PUSH1 0x4 ADD DUP1 DUP1 PUSH1 0x20 ADD DUP3 DUP2 SUB DUP3 MSTORE PUSH1 0x14 DUP2 MSTORE PUSH1 0x20 ADD DUP1 PUSH32 0x41756374696F6E20697320496E61637469766520000000000000000000000000 DUP2 MSTORE POP PUSH1 0x20 ADD SWAP2 POP POP PUSH1 0x40 MLOAD DUP1 SWAP2 SUB SWAP1 REVERT JUMPDEST PUSH1 0x6 DUP1 SLOAD SWAP1 POP PUSH1 0x40 MLOAD SWAP1 DUP1 DUP3 MSTORE DUP1 PUSH1 0x20 MUL PUSH1 0x20 ADD DUP3 ADD PUSH1 0x40 MSTORE DUP1 ISZERO PUSH2 0xA5A JUMPI DUP2 PUSH1 0x20 ADD PUSH1 0x20 DUP3 MUL DUP1 CODESIZE DUP4 CODECOPY DUP1 DUP3 ADD SWAP2 POP POP SWAP1 POP JUMPDEST POP SWAP2 POP JUMPDEST PUSH1 0x6 DUP1 SLOAD SWAP1 POP DUP2 LT ISZERO PUSH2 0xB0D JUMPI PUSH1 0x5 PUSH1 0x0 PUSH1 0x6 DUP4 DUP2 SLOAD DUP2 LT ISZERO ISZERO PUSH2 0xA7E JUMPI INVALID JUMPDEST SWAP1 PUSH1 0x0 MSTORE PUSH1 0x20 PUSH1 0x0 KECCAK256 ADD PUSH1 0x0 SWAP1 SLOAD SWAP1 PUSH2 0x100 EXP SWAP1 DIV PUSH20 0xFFFFFFFFFFFFFFFFFFFFFFFFFFFFFFFFFFFFFFFF AND PUSH20 0xFFFFFFFFFFFFFFFFFFFFFFFFFFFFFFFFFFFFFFFF AND PUSH20 0xFFFFFFFFFFFFFFFFFFFFFFFFFFFFFFFFFFFFFFFF AND DUP2 MSTORE PUSH1 0x20 ADD SWAP1 DUP2 MSTORE PUSH1 0x20 ADD PUSH1 0x0 KECCAK256 SLOAD DUP3 DUP3 DUP2 MLOAD DUP2 LT ISZERO ISZERO PUSH2 0xAF2 JUMPI INVALID JUMPDEST SWAP1 PUSH1 0x20 ADD SWAP1 PUSH1 0x20 MUL ADD DUP2 DUP2 MSTORE POP POP DUP1 DUP1 PUSH1 0x1 ADD SWAP2 POP POP PUSH2 0xA5E JUMP JUMPDEST DUP2 SWAP3 POP POP POP SWAP1 JUMP JUMPDEST PUSH1 0x0 PUSH1 0x2 SLOAD TIMESTAMP LT ISZERO ISZERO PUSH2 0xB90 JUMPI PUSH1 0x40 MLOAD PUSH32 0x8C379A000000000000000000000000000000000000000000000000000000000 DUP2 MSTORE PUSH1 0x4 ADD DUP1 DUP1 PUSH1 0x20 ADD DUP3 DUP2 SUB DUP3 MSTORE PUSH1 0x14 DUP2 MSTORE PUSH1 0x20 ADD DUP1 PUSH32 0x41756374696F6E20697320496E61637469766520000000000000000000000000 DUP2 MSTORE POP PUSH1 0x20 ADD SWAP2 POP POP PUSH1 0x40 MLOAD DUP1 SWAP2 SUB SWAP1 REVERT JUMPDEST PUSH1 0x3 SLOAD SWAP1 POP SWAP1 JUMP JUMPDEST PUSH1 0x0 PUSH1 0x1 SLOAD SWAP1 POP SWAP1 JUMP JUMPDEST PUSH1 0x0 DUP1 PUSH1 0x0 PUSH1 0x2 SLOAD TIMESTAMP LT ISZERO ISZERO PUSH2 0xC20 JUMPI PUSH1 0x40 MLOAD PUSH32 0x8C379A000000000000000000000000000000000000000000000000000000000 DUP2 MSTORE PUSH1 0x4 ADD DUP1 DUP1 PUSH1 0x20 ADD DUP3 DUP2 SUB DUP3 MSTORE PUSH1 0x14 DUP2 MSTORE PUSH1 0x20 ADD DUP1 PUSH32 0x41756374696F6E20697320496E61637469766520000000000000000000000000 DUP2 MSTORE POP PUSH1 0x20 ADD SWAP2 POP POP PUSH1 0x40 MLOAD DUP1 SWAP2 SUB SWAP1 REVERT JUMPDEST PUSH1 0x0 SWAP2 POP JUMPDEST PUSH1 0x6 DUP1 SLOAD SWAP1 POP DUP2 LT ISZERO PUSH2 0xCC3 JUMPI PUSH2 0xCB4 PUSH1 0x5 PUSH1 0x0 PUSH1 0x6 DUP5 DUP2 SLOAD DUP2 LT ISZERO ISZERO PUSH2 0xC48 JUMPI INVALID JUMPDEST SWAP1 PUSH1 0x0 MSTORE PUSH1 0x20 PUSH1 0x0 KECCAK256 ADD PUSH1 0x0 SWAP1 SLOAD SWAP1 PUSH2 0x100 EXP SWAP1 DIV PUSH20 0xFFFFFFFFFFFFFFFFFFFFFFFFFFFFFFFFFFFFFFFF AND PUSH20 0xFFFFFFFFFFFFFFFFFFFFFFFFFFFFFFFFFFFFFFFF AND PUSH20 0xFFFFFFFFFFFFFFFFFFFFFFFFFFFFFFFFFFFFFFFF AND DUP2 MSTORE PUSH1 0x20 ADD SWAP1 DUP2 MSTORE PUSH1 0x20 ADD PUSH1 0x0 KECCAK256 SLOAD DUP4 PUSH2 0xF88 JUMP JUMPDEST SWAP2 POP DUP1 DUP1 PUSH1 0x1 ADD SWAP2 POP POP PUSH2 0xC25 JUMP JUMPDEST DUP2 SWAP3 POP POP POP SWAP1 JUMP JUMPDEST PUSH1 0x0 DUP1 PUSH1 0x0 PUSH1 0x2 SLOAD TIMESTAMP LT ISZERO ISZERO PUSH2 0xD49 JUMPI PUSH1 0x40 MLOAD PUSH32 0x8C379A000000000000000000000000000000000000000000000000000000000 DUP2 MSTORE PUSH1 0x4 ADD DUP1 DUP1 PUSH1 0x20 ADD DUP3 DUP2 SUB DUP3 MSTORE PUSH1 0x14 DUP2 MSTORE PUSH1 0x20 ADD DUP1 PUSH32 0x41756374696F6E20697320496E61637469766520000000000000000000000000 DUP2 MSTORE POP PUSH1 0x20 ADD SWAP2 POP POP PUSH1 0x40 MLOAD DUP1 SWAP2 SUB SWAP1 REVERT JUMPDEST PUSH1 0x0 PUSH1 0x6 DUP1 SLOAD SWAP1 POP SWAP1 POP PUSH1 0x0 DUP2 GT ISZERO ISZERO PUSH2 0xDF1 JUMPI PUSH1 0x40 MLOAD PUSH32 0x8C379A000000000000000000000000000000000000000000000000000000000 DUP2 MSTORE PUSH1 0x4 ADD DUP1 DUP1 PUSH1 0x20 ADD DUP3 DUP2 SUB DUP3 MSTORE PUSH1 0x27 DUP2 MSTORE PUSH1 0x20 ADD DUP1 PUSH32 0x43616E277420656E64206173206E6F20626964732068617665206265656E206D DUP2 MSTORE PUSH1 0x20 ADD PUSH32 0x6164652079657400000000000000000000000000000000000000000000000000 DUP2 MSTORE POP PUSH1 0x40 ADD SWAP2 POP POP PUSH1 0x40 MLOAD DUP1 SWAP2 SUB SWAP1 REVERT JUMPDEST TIMESTAMP PUSH1 0x2 DUP2 SWAP1 SSTORE POP PUSH1 0x0 SWAP2 POP JUMPDEST PUSH1 0x6 DUP1 SLOAD SWAP1 POP DUP3 LT ISZERO PUSH2 0xED8 JUMPI DUP5 PUSH1 0x5 PUSH1 0x0 PUSH1 0x6 DUP6 DUP2 SLOAD DUP2 LT ISZERO ISZERO PUSH2 0xE1E JUMPI INVALID JUMPDEST SWAP1 PUSH1 0x0 MSTORE PUSH1 0x20 PUSH1 0x0 KECCAK256 ADD PUSH1 0x0 SWAP1 SLOAD SWAP1 PUSH2 0x100 EXP SWAP1 DIV PUSH20 0xFFFFFFFFFFFFFFFFFFFFFFFFFFFFFFFFFFFFFFFF AND PUSH20 0xFFFFFFFFFFFFFFFFFFFFFFFFFFFFFFFFFFFFFFFF AND PUSH20 0xFFFFFFFFFFFFFFFFFFFFFFFFFFFFFFFFFFFFFFFF AND DUP2 MSTORE PUSH1 0x20 ADD SWAP1 DUP2 MSTORE PUSH1 0x20 ADD PUSH1 0x0 KECCAK256 SLOAD EQ ISZERO PUSH2 0xECB JUMPI PUSH1 0x6 DUP3 DUP2 SLOAD DUP2 LT ISZERO ISZERO PUSH2 0xE99 JUMPI INVALID JUMPDEST SWAP1 PUSH1 0x0 MSTORE PUSH1 0x20 PUSH1 0x0 KECCAK256 ADD PUSH1 0x0 SWAP1 SLOAD SWAP1 PUSH2 0x100 EXP SWAP1 DIV PUSH20 0xFFFFFFFFFFFFFFFFFFFFFFFFFFFFFFFFFFFFFFFF AND SWAP3 POP PUSH2 0xED8 JUMP JUMPDEST DUP2 DUP1 PUSH1 0x1 ADD SWAP3 POP POP PUSH2 0xDFD JUMP JUMPDEST PUSH1 0x0 PUSH20 0xFFFFFFFFFFFFFFFFFFFFFFFFFFFFFFFFFFFFFFFF AND DUP4 PUSH20 0xFFFFFFFFFFFFFFFFFFFFFFFFFFFFFFFFFFFFFFFF AND EQ ISZERO ISZERO ISZERO PUSH2 0xF7D JUMPI PUSH1 0x40 MLOAD PUSH32 0x8C379A000000000000000000000000000000000000000000000000000000000 DUP2 MSTORE PUSH1 0x4 ADD DUP1 DUP1 PUSH1 0x20 ADD DUP3 DUP2 SUB DUP3 MSTORE PUSH1 0x1A DUP2 MSTORE PUSH1 0x20 ADD DUP1 PUSH32 0x546869732062696420686173206E6F74206265656E206D616465000000000000 DUP2 MSTORE POP PUSH1 0x20 ADD SWAP2 POP POP PUSH1 0x40 MLOAD DUP1 SWAP2 SUB SWAP1 REVERT JUMPDEST DUP3 SWAP4 POP POP POP POP SWAP2 SWAP1 POP JUMP JUMPDEST PUSH1 0x0 DUP2 DUP4 LT ISZERO PUSH2 0xF98 JUMPI DUP2 PUSH2 0xF9A JUMP JUMPDEST DUP3 JUMPDEST SWAP1 POP SWAP3 SWAP2 POP POP JUMP STOP LOG1 PUSH6 0x627A7A723058 KECCAK256 PUSH8 0x6E6926073D3AC476 DUP6 0xd8 ADDMOD DUP4 0xd8 0xdf 0xcc 0x46 CALLCODE 0xf7 SWAP7 SWAP14 STOP 0x49 SDIV EXTCODECOPY DUP16 0xc6 0xbd 0x3f 0xef ADD 0xfc STOP 0x29 "
				},
				"gasEstimates": {
					"creation": {
						"codeDepositCost": "809200",
						"executionCost": "infinite",
						"totalCost": "infinite"
					},
					"external": {
						"bids(address)": "620",
						"createBid(uint256)": "82037",
						"endAuctionWithSelectedBid(uint256)": "infinite",
						"getBidsMade()": "472",
						"getDescription()": "infinite",
						"getEndTime()": "468",
						"getListOfBids()": "infinite",
						"getMaximumBid()": "infinite",
						"getMinBidVal()": "784",
						"getStartTime()": "578",
						"updateBid(uint256)": "21121"
					},
					"internal": {
						"max(uint256,uint256)": "67"
					}
				},
				"methodIdentifiers": {
					"bids(address)": "62ea82db",
					"createBid(uint256)": "659dd2b4",
					"endAuctionWithSelectedBid(uint256)": "dee37a8e",
					"getBidsMade()": "409766e6",
					"getDescription()": "1a092541",
					"getEndTime()": "439f5ac2",
					"getListOfBids()": "679dbf0c",
					"getMaximumBid()": "dd06ba1a",
					"getMinBidVal()": "ad934674",
					"getStartTime()": "c828371e",
					"updateBid(uint256)": "43129de1"
				}
			},
			"userdoc": {
				"methods": {}
			}
		}
	}
}