{
	"Project-1-AuctionPlatform/AuctionPlatform.sol": {
		"AuctionPlatform": {
			"abi": [
				{
					"constant": true,
					"inputs": [],
					"name": "aucId",
					"outputs": [
						{
							"name": "",
							"type": "uint256"
						}
					],
					"payable": false,
					"stateMutability": "view",
					"type": "function"
				},
				{
					"constant": true,
					"inputs": [
						{
							"name": "_aucId",
							"type": "uint256"
						}
					],
					"name": "getBidValOnAuction",
					"outputs": [
						{
							"name": "",
							"type": "uint256"
						}
					],
					"payable": false,
					"stateMutability": "view",
					"type": "function"
				},
				{
					"constant": false,
					"inputs": [
						{
							"name": "_aucId",
							"type": "uint256"
						},
						{
							"name": "_bidVal",
							"type": "uint256"
						}
					],
					"name": "updateBid",
					"outputs": [],
					"payable": false,
					"stateMutability": "nonpayable",
					"type": "function"
				},
				{
					"constant": true,
					"inputs": [
						{
							"name": "_aucId",
							"type": "uint256"
						}
					],
					"name": "getMaxBid",
					"outputs": [
						{
							"name": "",
							"type": "uint256"
						}
					],
					"payable": false,
					"stateMutability": "view",
					"type": "function"
				},
				{
					"constant": true,
					"inputs": [],
					"name": "getMaxBid",
					"outputs": [
						{
							"name": "",
							"type": "uint256"
						}
					],
					"payable": false,
					"stateMutability": "view",
					"type": "function"
				},
				{
					"constant": false,
					"inputs": [
						{
							"name": "_aucId",
							"type": "uint256"
						},
						{
							"name": "_bidVal",
							"type": "uint256"
						}
					],
					"name": "bidOnAuction",
					"outputs": [],
					"payable": false,
					"stateMutability": "nonpayable",
					"type": "function"
				},
				{
					"constant": false,
					"inputs": [
						{
							"name": "_bid",
							"type": "uint256"
						}
					],
					"name": "endAuction",
					"outputs": [],
					"payable": false,
					"stateMutability": "nonpayable",
					"type": "function"
				},
				{
					"constant": true,
					"inputs": [],
					"name": "getListOfOwnBids",
					"outputs": [
						{
							"name": "",
							"type": "uint256[]"
						}
					],
					"payable": false,
					"stateMutability": "view",
					"type": "function"
				},
				{
					"constant": false,
					"inputs": [
						{
							"name": "_description",
							"type": "string"
						},
						{
							"name": "_startTimeYear",
							"type": "uint256"
						},
						{
							"name": "_startTimeMonth",
							"type": "uint256"
						},
						{
							"name": "_startTimeDay",
							"type": "uint256"
						},
						{
							"name": "_endTimeYear",
							"type": "uint256"
						},
						{
							"name": "_endTimeMonth",
							"type": "uint256"
						},
						{
							"name": "_endTimeDay",
							"type": "uint256"
						},
						{
							"name": "_minBidVal",
							"type": "uint256"
						}
					],
					"name": "createAuction",
					"outputs": [],
					"payable": false,
					"stateMutability": "nonpayable",
					"type": "function"
				},
				{
					"constant": true,
					"inputs": [],
					"name": "getListOfBidsOnAuction",
					"outputs": [
						{
							"name": "",
							"type": "uint256[]"
						}
					],
					"payable": false,
					"stateMutability": "view",
					"type": "function"
				},
				{
					"constant": false,
					"inputs": [],
					"name": "endAuction",
					"outputs": [
						{
							"name": "",
							"type": "address"
						}
					],
					"payable": false,
					"stateMutability": "nonpayable",
					"type": "function"
				},
				{
					"anonymous": false,
					"inputs": [
						{
							"indexed": true,
							"name": "_aucId",
							"type": "uint256"
						},
						{
							"indexed": true,
							"name": "_timeStamp",
							"type": "uint256"
						},
						{
							"indexed": false,
							"name": "from",
							"type": "address"
						}
					],
					"name": "auctionCreated",
					"type": "event"
				},
				{
					"anonymous": false,
					"inputs": [
						{
							"indexed": true,
							"name": "_winner",
							"type": "address"
						},
						{
							"indexed": true,
							"name": "_winningBid",
							"type": "uint256"
						}
					],
					"name": "auctionEnded",
					"type": "event"
				},
				{
					"anonymous": false,
					"inputs": [
						{
							"indexed": true,
							"name": "from",
							"type": "address"
						},
						{
							"indexed": true,
							"name": "_aucId",
							"type": "uint256"
						}
					],
					"name": "biddedOnAuction",
					"type": "event"
				},
				{
					"anonymous": false,
					"inputs": [
						{
							"indexed": true,
							"name": "from",
							"type": "address"
						},
						{
							"indexed": true,
							"name": "_aucId",
							"type": "uint256"
						}
					],
					"name": "updatedBid",
					"type": "event"
				}
			],
			"devdoc": {
				"methods": {}
			},
			"evm": {
				"assembly": "    /* \"Project-1-AuctionPlatform/AuctionPlatform.sol\":375:9166  contract AuctionPlatform {... */\n  mstore(0x40, 0x80)\n    /* \"Project-1-AuctionPlatform/AuctionPlatform.sol\":429:430  0 */\n  0x0\n    /* \"Project-1-AuctionPlatform/AuctionPlatform.sol\":406:430  uint256 public aucId = 0 */\n  dup1\n  sstore\n    /* \"Project-1-AuctionPlatform/AuctionPlatform.sol\":375:9166  contract AuctionPlatform {... */\n  callvalue\n    /* \"--CODEGEN--\":8:17   */\n  dup1\n    /* \"--CODEGEN--\":5:7   */\n  iszero\n  tag_1\n  jumpi\n    /* \"--CODEGEN--\":30:31   */\n  0x0\n    /* \"--CODEGEN--\":27:28   */\n  dup1\n    /* \"--CODEGEN--\":20:32   */\n  revert\n    /* \"--CODEGEN--\":5:7   */\ntag_1:\n    /* \"Project-1-AuctionPlatform/AuctionPlatform.sol\":375:9166  contract AuctionPlatform {... */\n  pop\n  dataSize(sub_0)\n  dup1\n  dataOffset(sub_0)\n  0x0\n  codecopy\n  0x0\n  return\nstop\n\nsub_0: assembly {\n        /* \"Project-1-AuctionPlatform/AuctionPlatform.sol\":375:9166  contract AuctionPlatform {... */\n      mstore(0x40, 0x80)\n      jumpi(tag_1, lt(calldatasize, 0x4))\n      calldataload(0x0)\n      0x100000000000000000000000000000000000000000000000000000000\n      swap1\n      div\n      0xffffffff\n      and\n      dup1\n      0x25c0cdaa\n      eq\n      tag_2\n      jumpi\n      dup1\n      0x2ae9285f\n      eq\n      tag_3\n      jumpi\n      dup1\n      0x60365e0c\n      eq\n      tag_4\n      jumpi\n      dup1\n      0x617fbce9\n      eq\n      tag_5\n      jumpi\n      dup1\n      0x7e12a251\n      eq\n      tag_6\n      jumpi\n      dup1\n      0x9f635120\n      eq\n      tag_7\n      jumpi\n      dup1\n      0xb9a2de3a\n      eq\n      tag_8\n      jumpi\n      dup1\n      0xd1fda965\n      eq\n      tag_9\n      jumpi\n      dup1\n      0xe3a57e65\n      eq\n      tag_10\n      jumpi\n      dup1\n      0xf2f58fcf\n      eq\n      tag_11\n      jumpi\n      dup1\n      0xfe67a54b\n      eq\n      tag_12\n      jumpi\n    tag_1:\n      0x0\n      dup1\n      revert\n        /* \"Project-1-AuctionPlatform/AuctionPlatform.sol\":406:430  uint256 public aucId = 0 */\n    tag_2:\n      callvalue\n        /* \"--CODEGEN--\":8:17   */\n      dup1\n        /* \"--CODEGEN--\":5:7   */\n      iszero\n      tag_13\n      jumpi\n        /* \"--CODEGEN--\":30:31   */\n      0x0\n        /* \"--CODEGEN--\":27:28   */\n      dup1\n        /* \"--CODEGEN--\":20:32   */\n      revert\n        /* \"--CODEGEN--\":5:7   */\n    tag_13:\n        /* \"Project-1-AuctionPlatform/AuctionPlatform.sol\":406:430  uint256 public aucId = 0 */\n      pop\n      tag_14\n      jump(tag_15)\n    tag_14:\n      mload(0x40)\n      dup1\n      dup3\n      dup2\n      mstore\n      0x20\n      add\n      swap2\n      pop\n      pop\n      mload(0x40)\n      dup1\n      swap2\n      sub\n      swap1\n      return\n        /* \"Project-1-AuctionPlatform/AuctionPlatform.sol\":2022:2227  function getBidValOnAuction(uint256 _aucId)... */\n    tag_3:\n      callvalue\n        /* \"--CODEGEN--\":8:17   */\n      dup1\n        /* \"--CODEGEN--\":5:7   */\n      iszero\n      tag_16\n      jumpi\n        /* \"--CODEGEN--\":30:31   */\n      0x0\n        /* \"--CODEGEN--\":27:28   */\n      dup1\n        /* \"--CODEGEN--\":20:32   */\n      revert\n        /* \"--CODEGEN--\":5:7   */\n    tag_16:\n        /* \"Project-1-AuctionPlatform/AuctionPlatform.sol\":2022:2227  function getBidValOnAuction(uint256 _aucId)... */\n      pop\n      tag_17\n      0x4\n      dup1\n      calldatasize\n      sub\n      dup2\n      add\n      swap1\n      dup1\n      dup1\n      calldataload\n      swap1\n      0x20\n      add\n      swap1\n      swap3\n      swap2\n      swap1\n      pop\n      pop\n      pop\n      jump(tag_18)\n    tag_17:\n      mload(0x40)\n      dup1\n      dup3\n      dup2\n      mstore\n      0x20\n      add\n      swap2\n      pop\n      pop\n      mload(0x40)\n      dup1\n      swap2\n      sub\n      swap1\n      return\n        /* \"Project-1-AuctionPlatform/AuctionPlatform.sol\":5031:5300  function updateBid(uint256 _aucId, uint256 _bidVal)... */\n    tag_4:\n      callvalue\n        /* \"--CODEGEN--\":8:17   */\n      dup1\n        /* \"--CODEGEN--\":5:7   */\n      iszero\n      tag_19\n      jumpi\n        /* \"--CODEGEN--\":30:31   */\n      0x0\n        /* \"--CODEGEN--\":27:28   */\n      dup1\n        /* \"--CODEGEN--\":20:32   */\n      revert\n        /* \"--CODEGEN--\":5:7   */\n    tag_19:\n        /* \"Project-1-AuctionPlatform/AuctionPlatform.sol\":5031:5300  function updateBid(uint256 _aucId, uint256 _bidVal)... */\n      pop\n      tag_20\n      0x4\n      dup1\n      calldatasize\n      sub\n      dup2\n      add\n      swap1\n      dup1\n      dup1\n      calldataload\n      swap1\n      0x20\n      add\n      swap1\n      swap3\n      swap2\n      swap1\n      dup1\n      calldataload\n      swap1\n      0x20\n      add\n      swap1\n      swap3\n      swap2\n      swap1\n      pop\n      pop\n      pop\n      jump(tag_21)\n    tag_20:\n      stop\n        /* \"Project-1-AuctionPlatform/AuctionPlatform.sol\":2719:2890  function getMaxBid(uint256 _aucId)... */\n    tag_5:\n      callvalue\n        /* \"--CODEGEN--\":8:17   */\n      dup1\n        /* \"--CODEGEN--\":5:7   */\n      iszero\n      tag_22\n      jumpi\n        /* \"--CODEGEN--\":30:31   */\n      0x0\n        /* \"--CODEGEN--\":27:28   */\n      dup1\n        /* \"--CODEGEN--\":20:32   */\n      revert\n        /* \"--CODEGEN--\":5:7   */\n    tag_22:\n        /* \"Project-1-AuctionPlatform/AuctionPlatform.sol\":2719:2890  function getMaxBid(uint256 _aucId)... */\n      pop\n      tag_23\n      0x4\n      dup1\n      calldatasize\n      sub\n      dup2\n      add\n      swap1\n      dup1\n      dup1\n      calldataload\n      swap1\n      0x20\n      add\n      swap1\n      swap3\n      swap2\n      swap1\n      pop\n      pop\n      pop\n      jump(tag_24)\n    tag_23:\n      mload(0x40)\n      dup1\n      dup3\n      dup2\n      mstore\n      0x20\n      add\n      swap2\n      pop\n      pop\n      mload(0x40)\n      dup1\n      swap2\n      sub\n      swap1\n      return\n        /* \"Project-1-AuctionPlatform/AuctionPlatform.sol\":2303:2713  function getMaxBid()... */\n    tag_6:\n      callvalue\n        /* \"--CODEGEN--\":8:17   */\n      dup1\n        /* \"--CODEGEN--\":5:7   */\n      iszero\n      tag_25\n      jumpi\n        /* \"--CODEGEN--\":30:31   */\n      0x0\n        /* \"--CODEGEN--\":27:28   */\n      dup1\n        /* \"--CODEGEN--\":20:32   */\n      revert\n        /* \"--CODEGEN--\":5:7   */\n    tag_25:\n        /* \"Project-1-AuctionPlatform/AuctionPlatform.sol\":2303:2713  function getMaxBid()... */\n      pop\n      tag_26\n      jump(tag_27)\n    tag_26:\n      mload(0x40)\n      dup1\n      dup3\n      dup2\n      mstore\n      0x20\n      add\n      swap2\n      pop\n      pop\n      mload(0x40)\n      dup1\n      swap2\n      sub\n      swap1\n      return\n        /* \"Project-1-AuctionPlatform/AuctionPlatform.sol\":4152:5025  function bidOnAuction(uint256 _aucId, uint256 _bidVal)... */\n    tag_7:\n      callvalue\n        /* \"--CODEGEN--\":8:17   */\n      dup1\n        /* \"--CODEGEN--\":5:7   */\n      iszero\n      tag_28\n      jumpi\n        /* \"--CODEGEN--\":30:31   */\n      0x0\n        /* \"--CODEGEN--\":27:28   */\n      dup1\n        /* \"--CODEGEN--\":20:32   */\n      revert\n        /* \"--CODEGEN--\":5:7   */\n    tag_28:\n        /* \"Project-1-AuctionPlatform/AuctionPlatform.sol\":4152:5025  function bidOnAuction(uint256 _aucId, uint256 _bidVal)... */\n      pop\n      tag_29\n      0x4\n      dup1\n      calldatasize\n      sub\n      dup2\n      add\n      swap1\n      dup1\n      dup1\n      calldataload\n      swap1\n      0x20\n      add\n      swap1\n      swap3\n      swap2\n      swap1\n      dup1\n      calldataload\n      swap1\n      0x20\n      add\n      swap1\n      swap3\n      swap2\n      swap1\n      pop\n      pop\n      pop\n      jump(tag_30)\n    tag_29:\n      stop\n        /* \"Project-1-AuctionPlatform/AuctionPlatform.sol\":3797:4073  function endAuction(uint256 _bid) public ifAuctionOwner {... */\n    tag_8:\n      callvalue\n        /* \"--CODEGEN--\":8:17   */\n      dup1\n        /* \"--CODEGEN--\":5:7   */\n      iszero\n      tag_31\n      jumpi\n        /* \"--CODEGEN--\":30:31   */\n      0x0\n        /* \"--CODEGEN--\":27:28   */\n      dup1\n        /* \"--CODEGEN--\":20:32   */\n      revert\n        /* \"--CODEGEN--\":5:7   */\n    tag_31:\n        /* \"Project-1-AuctionPlatform/AuctionPlatform.sol\":3797:4073  function endAuction(uint256 _bid) public ifAuctionOwner {... */\n      pop\n      tag_32\n      0x4\n      dup1\n      calldatasize\n      sub\n      dup2\n      add\n      swap1\n      dup1\n      dup1\n      calldataload\n      swap1\n      0x20\n      add\n      swap1\n      swap3\n      swap2\n      swap1\n      pop\n      pop\n      pop\n      jump(tag_33)\n    tag_32:\n      stop\n        /* \"Project-1-AuctionPlatform/AuctionPlatform.sol\":1831:1945  function getListOfOwnBids() public view ifBidded returns (uint256[]) {... */\n    tag_9:\n      callvalue\n        /* \"--CODEGEN--\":8:17   */\n      dup1\n        /* \"--CODEGEN--\":5:7   */\n      iszero\n      tag_34\n      jumpi\n        /* \"--CODEGEN--\":30:31   */\n      0x0\n        /* \"--CODEGEN--\":27:28   */\n      dup1\n        /* \"--CODEGEN--\":20:32   */\n      revert\n        /* \"--CODEGEN--\":5:7   */\n    tag_34:\n        /* \"Project-1-AuctionPlatform/AuctionPlatform.sol\":1831:1945  function getListOfOwnBids() public view ifBidded returns (uint256[]) {... */\n      pop\n      tag_35\n      jump(tag_36)\n    tag_35:\n      mload(0x40)\n      dup1\n      dup1\n      0x20\n      add\n      dup3\n      dup2\n      sub\n      dup3\n      mstore\n      dup4\n      dup2\n      dup2\n      mload\n      dup2\n      mstore\n      0x20\n      add\n      swap2\n      pop\n      dup1\n      mload\n      swap1\n      0x20\n      add\n      swap1\n      0x20\n      mul\n      dup1\n      dup4\n      dup4\n        /* \"--CODEGEN--\":23:24   */\n      0x0\n        /* \"--CODEGEN--\":8:108   */\n    tag_37:\n        /* \"--CODEGEN--\":33:36   */\n      dup4\n        /* \"--CODEGEN--\":30:31   */\n      dup2\n        /* \"--CODEGEN--\":27:37   */\n      lt\n        /* \"--CODEGEN--\":8:108   */\n      iszero\n      tag_38\n      jumpi\n        /* \"--CODEGEN--\":99:100   */\n      dup1\n        /* \"--CODEGEN--\":94:97   */\n      dup3\n        /* \"--CODEGEN--\":90:101   */\n      add\n        /* \"--CODEGEN--\":84:102   */\n      mload\n        /* \"--CODEGEN--\":80:81   */\n      dup2\n        /* \"--CODEGEN--\":75:78   */\n      dup5\n        /* \"--CODEGEN--\":71:82   */\n      add\n        /* \"--CODEGEN--\":64:103   */\n      mstore\n        /* \"--CODEGEN--\":52:54   */\n      0x20\n        /* \"--CODEGEN--\":49:50   */\n      dup2\n        /* \"--CODEGEN--\":45:55   */\n      add\n        /* \"--CODEGEN--\":40:55   */\n      swap1\n      pop\n        /* \"--CODEGEN--\":8:108   */\n      jump(tag_37)\n    tag_38:\n        /* \"--CODEGEN--\":12:26   */\n      pop\n        /* \"Project-1-AuctionPlatform/AuctionPlatform.sol\":1831:1945  function getListOfOwnBids() public view ifBidded returns (uint256[]) {... */\n      pop\n      pop\n      pop\n      swap1\n      pop\n      add\n      swap3\n      pop\n      pop\n      pop\n      mload(0x40)\n      dup1\n      swap2\n      sub\n      swap1\n      return\n        /* \"Project-1-AuctionPlatform/AuctionPlatform.sol\":5306:7885  function createAuction(... */\n    tag_10:\n      callvalue\n        /* \"--CODEGEN--\":8:17   */\n      dup1\n        /* \"--CODEGEN--\":5:7   */\n      iszero\n      tag_40\n      jumpi\n        /* \"--CODEGEN--\":30:31   */\n      0x0\n        /* \"--CODEGEN--\":27:28   */\n      dup1\n        /* \"--CODEGEN--\":20:32   */\n      revert\n        /* \"--CODEGEN--\":5:7   */\n    tag_40:\n        /* \"Project-1-AuctionPlatform/AuctionPlatform.sol\":5306:7885  function createAuction(... */\n      pop\n      tag_41\n      0x4\n      dup1\n      calldatasize\n      sub\n      dup2\n      add\n      swap1\n      dup1\n      dup1\n      calldataload\n      swap1\n      0x20\n      add\n      swap1\n      dup3\n      add\n      dup1\n      calldataload\n      swap1\n      0x20\n      add\n      swap1\n      dup1\n      dup1\n      0x1f\n      add\n      0x20\n      dup1\n      swap2\n      div\n      mul\n      0x20\n      add\n      mload(0x40)\n      swap1\n      dup2\n      add\n      0x40\n      mstore\n      dup1\n      swap4\n      swap3\n      swap2\n      swap1\n      dup2\n      dup2\n      mstore\n      0x20\n      add\n      dup4\n      dup4\n      dup1\n      dup3\n      dup5\n      calldatacopy\n      dup3\n      add\n      swap2\n      pop\n      pop\n      pop\n      pop\n      pop\n      pop\n      swap2\n      swap3\n      swap2\n      swap3\n      swap1\n      dup1\n      calldataload\n      swap1\n      0x20\n      add\n      swap1\n      swap3\n      swap2\n      swap1\n      dup1\n      calldataload\n      swap1\n      0x20\n      add\n      swap1\n      swap3\n      swap2\n      swap1\n      dup1\n      calldataload\n      swap1\n      0x20\n      add\n      swap1\n      swap3\n      swap2\n      swap1\n      dup1\n      calldataload\n      swap1\n      0x20\n      add\n      swap1\n      swap3\n      swap2\n      swap1\n      dup1\n      calldataload\n      swap1\n      0x20\n      add\n      swap1\n      swap3\n      swap2\n      swap1\n      dup1\n      calldataload\n      swap1\n      0x20\n      add\n      swap1\n      swap3\n      swap2\n      swap1\n      dup1\n      calldataload\n      swap1\n      0x20\n      add\n      swap1\n      swap3\n      swap2\n      swap1\n      pop\n      pop\n      pop\n      jump(tag_42)\n    tag_41:\n      stop\n        /* \"Project-1-AuctionPlatform/AuctionPlatform.sol\":1521:1731  function getListOfBidsOnAuction()... */\n    tag_11:\n      callvalue\n        /* \"--CODEGEN--\":8:17   */\n      dup1\n        /* \"--CODEGEN--\":5:7   */\n      iszero\n      tag_43\n      jumpi\n        /* \"--CODEGEN--\":30:31   */\n      0x0\n        /* \"--CODEGEN--\":27:28   */\n      dup1\n        /* \"--CODEGEN--\":20:32   */\n      revert\n        /* \"--CODEGEN--\":5:7   */\n    tag_43:\n        /* \"Project-1-AuctionPlatform/AuctionPlatform.sol\":1521:1731  function getListOfBidsOnAuction()... */\n      pop\n      tag_44\n      jump(tag_45)\n    tag_44:\n      mload(0x40)\n      dup1\n      dup1\n      0x20\n      add\n      dup3\n      dup2\n      sub\n      dup3\n      mstore\n      dup4\n      dup2\n      dup2\n      mload\n      dup2\n      mstore\n      0x20\n      add\n      swap2\n      pop\n      dup1\n      mload\n      swap1\n      0x20\n      add\n      swap1\n      0x20\n      mul\n      dup1\n      dup4\n      dup4\n        /* \"--CODEGEN--\":23:24   */\n      0x0\n        /* \"--CODEGEN--\":8:108   */\n    tag_46:\n        /* \"--CODEGEN--\":33:36   */\n      dup4\n        /* \"--CODEGEN--\":30:31   */\n      dup2\n        /* \"--CODEGEN--\":27:37   */\n      lt\n        /* \"--CODEGEN--\":8:108   */\n      iszero\n      tag_47\n      jumpi\n        /* \"--CODEGEN--\":99:100   */\n      dup1\n        /* \"--CODEGEN--\":94:97   */\n      dup3\n        /* \"--CODEGEN--\":90:101   */\n      add\n        /* \"--CODEGEN--\":84:102   */\n      mload\n        /* \"--CODEGEN--\":80:81   */\n      dup2\n        /* \"--CODEGEN--\":75:78   */\n      dup5\n        /* \"--CODEGEN--\":71:82   */\n      add\n        /* \"--CODEGEN--\":64:103   */\n      mstore\n        /* \"--CODEGEN--\":52:54   */\n      0x20\n        /* \"--CODEGEN--\":49:50   */\n      dup2\n        /* \"--CODEGEN--\":45:55   */\n      add\n        /* \"--CODEGEN--\":40:55   */\n      swap1\n      pop\n        /* \"--CODEGEN--\":8:108   */\n      jump(tag_46)\n    tag_47:\n        /* \"--CODEGEN--\":12:26   */\n      pop\n        /* \"Project-1-AuctionPlatform/AuctionPlatform.sol\":1521:1731  function getListOfBidsOnAuction()... */\n      pop\n      pop\n      pop\n      swap1\n      pop\n      add\n      swap3\n      pop\n      pop\n      pop\n      mload(0x40)\n      dup1\n      swap2\n      sub\n      swap1\n      return\n        /* \"Project-1-AuctionPlatform/AuctionPlatform.sol\":3031:3642  function endAuction() public ifAuctionOwner returns (address) {... */\n    tag_12:\n      callvalue\n        /* \"--CODEGEN--\":8:17   */\n      dup1\n        /* \"--CODEGEN--\":5:7   */\n      iszero\n      tag_49\n      jumpi\n        /* \"--CODEGEN--\":30:31   */\n      0x0\n        /* \"--CODEGEN--\":27:28   */\n      dup1\n        /* \"--CODEGEN--\":20:32   */\n      revert\n        /* \"--CODEGEN--\":5:7   */\n    tag_49:\n        /* \"Project-1-AuctionPlatform/AuctionPlatform.sol\":3031:3642  function endAuction() public ifAuctionOwner returns (address) {... */\n      pop\n      tag_50\n      jump(tag_51)\n    tag_50:\n      mload(0x40)\n      dup1\n      dup3\n      0xffffffffffffffffffffffffffffffffffffffff\n      and\n      0xffffffffffffffffffffffffffffffffffffffff\n      and\n      dup2\n      mstore\n      0x20\n      add\n      swap2\n      pop\n      pop\n      mload(0x40)\n      dup1\n      swap2\n      sub\n      swap1\n      return\n        /* \"Project-1-AuctionPlatform/AuctionPlatform.sol\":406:430  uint256 public aucId = 0 */\n    tag_15:\n      sload(0x0)\n      dup2\n      jump\t// out\n        /* \"Project-1-AuctionPlatform/AuctionPlatform.sol\":2022:2227  function getBidValOnAuction(uint256 _aucId)... */\n    tag_18:\n        /* \"Project-1-AuctionPlatform/AuctionPlatform.sol\":2154:2161  uint256 */\n      0x0\n        /* \"Project-1-AuctionPlatform/AuctionPlatform.sol\":9001:9002  0 */\n      dup1\n        /* \"Project-1-AuctionPlatform/AuctionPlatform.sol\":8969:8978  bidOwners */\n      0x67\n        /* \"Project-1-AuctionPlatform/AuctionPlatform.sol\":8969:8990  bidOwners[msg.sender] */\n      0x0\n        /* \"Project-1-AuctionPlatform/AuctionPlatform.sol\":8979:8989  msg.sender */\n      caller\n        /* \"Project-1-AuctionPlatform/AuctionPlatform.sol\":8969:8990  bidOwners[msg.sender] */\n      0xffffffffffffffffffffffffffffffffffffffff\n      and\n      0xffffffffffffffffffffffffffffffffffffffff\n      and\n      dup2\n      mstore\n      0x20\n      add\n      swap1\n      dup2\n      mstore\n      0x20\n      add\n      0x0\n      keccak256\n        /* \"Project-1-AuctionPlatform/AuctionPlatform.sol\":8969:8997  bidOwners[msg.sender].length */\n      dup1\n      sload\n      swap1\n      pop\n        /* \"Project-1-AuctionPlatform/AuctionPlatform.sol\":8969:9002  bidOwners[msg.sender].length != 0 */\n      eq\n      iszero\n        /* \"Project-1-AuctionPlatform/AuctionPlatform.sol\":8961:9030  require(bidOwners[msg.sender].length != 0, \"You don't have any Bids\") */\n      iszero\n      iszero\n      tag_53\n      jumpi\n      mload(0x40)\n      0x8c379a000000000000000000000000000000000000000000000000000000000\n      dup2\n      mstore\n      0x4\n      add\n      dup1\n      dup1\n      0x20\n      add\n      dup3\n      dup2\n      sub\n      dup3\n      mstore\n      0x17\n      dup2\n      mstore\n      0x20\n      add\n      dup1\n      0x596f7520646f6e2774206861766520616e792042696473000000000000000000\n      dup2\n      mstore\n      pop\n      0x20\n      add\n      swap2\n      pop\n      pop\n      mload(0x40)\n      dup1\n      swap2\n      sub\n      swap1\n      revert\n    tag_53:\n        /* \"Project-1-AuctionPlatform/AuctionPlatform.sol\":2129:2135  _aucId */\n      dup2\n        /* \"Project-1-AuctionPlatform/AuctionPlatform.sol\":8293:8298  aucId */\n      sload(0x0)\n        /* \"Project-1-AuctionPlatform/AuctionPlatform.sol\":8283:8289  _aucId */\n      dup2\n        /* \"Project-1-AuctionPlatform/AuctionPlatform.sol\":8283:8298  _aucId <= aucId */\n      gt\n      iszero\n        /* \"Project-1-AuctionPlatform/AuctionPlatform.sol\":8283:8368  _aucId <= aucId &&... */\n      dup1\n      iszero\n      tag_55\n      jumpi\n      pop\n        /* \"Project-1-AuctionPlatform/AuctionPlatform.sol\":8353:8368  block.timestamp */\n      timestamp\n        /* \"Project-1-AuctionPlatform/AuctionPlatform.sol\":8318:8329  auctionList */\n      0x1\n        /* \"Project-1-AuctionPlatform/AuctionPlatform.sol\":8330:8336  _aucId */\n      dup3\n        /* \"Project-1-AuctionPlatform/AuctionPlatform.sol\":8318:8337  auctionList[_aucId] */\n      0x65\n      dup2\n      lt\n      iszero\n      iszero\n      tag_56\n      jumpi\n      invalid\n    tag_56:\n      add\n      0x0\n      swap1\n      sload\n      swap1\n      0x100\n      exp\n      swap1\n      div\n      0xffffffffffffffffffffffffffffffffffffffff\n      and\n        /* \"Project-1-AuctionPlatform/AuctionPlatform.sol\":8318:8348  auctionList[_aucId].getEndTime */\n      0xffffffffffffffffffffffffffffffffffffffff\n      and\n      0x439f5ac2\n        /* \"Project-1-AuctionPlatform/AuctionPlatform.sol\":8318:8350  auctionList[_aucId].getEndTime() */\n      mload(0x40)\n      dup2\n      0xffffffff\n      and\n      0x100000000000000000000000000000000000000000000000000000000\n      mul\n      dup2\n      mstore\n      0x4\n      add\n      0x20\n      mload(0x40)\n      dup1\n      dup4\n      sub\n      dup2\n      0x0\n      dup8\n      dup1\n      extcodesize\n      iszero\n        /* \"--CODEGEN--\":8:17   */\n      dup1\n        /* \"--CODEGEN--\":5:7   */\n      iszero\n      tag_58\n      jumpi\n        /* \"--CODEGEN--\":30:31   */\n      0x0\n        /* \"--CODEGEN--\":27:28   */\n      dup1\n        /* \"--CODEGEN--\":20:32   */\n      revert\n        /* \"--CODEGEN--\":5:7   */\n    tag_58:\n        /* \"Project-1-AuctionPlatform/AuctionPlatform.sol\":8318:8350  auctionList[_aucId].getEndTime() */\n      pop\n      gas\n      call\n      iszero\n        /* \"--CODEGEN--\":8:17   */\n      dup1\n        /* \"--CODEGEN--\":5:7   */\n      iszero\n      tag_59\n      jumpi\n        /* \"--CODEGEN--\":45:61   */\n      returndatasize\n        /* \"--CODEGEN--\":42:43   */\n      0x0\n        /* \"--CODEGEN--\":39:40   */\n      dup1\n        /* \"--CODEGEN--\":24:62   */\n      returndatacopy\n        /* \"--CODEGEN--\":77:93   */\n      returndatasize\n        /* \"--CODEGEN--\":74:75   */\n      0x0\n        /* \"--CODEGEN--\":67:94   */\n      revert\n        /* \"--CODEGEN--\":5:7   */\n    tag_59:\n        /* \"Project-1-AuctionPlatform/AuctionPlatform.sol\":8318:8350  auctionList[_aucId].getEndTime() */\n      pop\n      pop\n      pop\n      pop\n      mload(0x40)\n      returndatasize\n        /* \"--CODEGEN--\":13:15   */\n      0x20\n        /* \"--CODEGEN--\":8:11   */\n      dup2\n        /* \"--CODEGEN--\":5:16   */\n      lt\n        /* \"--CODEGEN--\":2:4   */\n      iszero\n      tag_60\n      jumpi\n        /* \"--CODEGEN--\":29:30   */\n      0x0\n        /* \"--CODEGEN--\":26:27   */\n      dup1\n        /* \"--CODEGEN--\":19:31   */\n      revert\n        /* \"--CODEGEN--\":2:4   */\n    tag_60:\n        /* \"Project-1-AuctionPlatform/AuctionPlatform.sol\":8318:8350  auctionList[_aucId].getEndTime() */\n      dup2\n      add\n      swap1\n      dup1\n      dup1\n      mload\n      swap1\n      0x20\n      add\n      swap1\n      swap3\n      swap2\n      swap1\n      pop\n      pop\n      pop\n        /* \"Project-1-AuctionPlatform/AuctionPlatform.sol\":8318:8368  auctionList[_aucId].getEndTime() > block.timestamp */\n      gt\n        /* \"Project-1-AuctionPlatform/AuctionPlatform.sol\":8283:8368  _aucId <= aucId &&... */\n    tag_55:\n        /* \"Project-1-AuctionPlatform/AuctionPlatform.sol\":8262:8413  require(... */\n      iszero\n      iszero\n      tag_61\n      jumpi\n      mload(0x40)\n      0x8c379a000000000000000000000000000000000000000000000000000000000\n      dup2\n      mstore\n      0x4\n      add\n      dup1\n      dup1\n      0x20\n      add\n      dup3\n      dup2\n      sub\n      dup3\n      mstore\n      0x13\n      dup2\n      mstore\n      0x20\n      add\n      dup1\n      0x41756374696f6e20697320496e61637469766500000000000000000000000000\n      dup2\n      mstore\n      pop\n      0x20\n      add\n      swap2\n      pop\n      pop\n      mload(0x40)\n      dup1\n      swap2\n      sub\n      swap1\n      revert\n    tag_61:\n        /* \"Project-1-AuctionPlatform/AuctionPlatform.sol\":2184:2195  auctionList */\n      0x1\n        /* \"Project-1-AuctionPlatform/AuctionPlatform.sol\":2196:2202  _aucId */\n      dup4\n        /* \"Project-1-AuctionPlatform/AuctionPlatform.sol\":2184:2203  auctionList[_aucId] */\n      0x65\n      dup2\n      lt\n      iszero\n      iszero\n      tag_63\n      jumpi\n      invalid\n    tag_63:\n      add\n      0x0\n      swap1\n      sload\n      swap1\n      0x100\n      exp\n      swap1\n      div\n      0xffffffffffffffffffffffffffffffffffffffff\n      and\n        /* \"Project-1-AuctionPlatform/AuctionPlatform.sol\":2184:2208  auctionList[_aucId].bids */\n      0xffffffffffffffffffffffffffffffffffffffff\n      and\n      0x62ea82db\n        /* \"Project-1-AuctionPlatform/AuctionPlatform.sol\":2209:2219  msg.sender */\n      caller\n        /* \"Project-1-AuctionPlatform/AuctionPlatform.sol\":2184:2220  auctionList[_aucId].bids(msg.sender) */\n      mload(0x40)\n      dup3\n      0xffffffff\n      and\n      0x100000000000000000000000000000000000000000000000000000000\n      mul\n      dup2\n      mstore\n      0x4\n      add\n      dup1\n      dup3\n      0xffffffffffffffffffffffffffffffffffffffff\n      and\n      0xffffffffffffffffffffffffffffffffffffffff\n      and\n      dup2\n      mstore\n      0x20\n      add\n      swap2\n      pop\n      pop\n      0x20\n      mload(0x40)\n      dup1\n      dup4\n      sub\n      dup2\n      0x0\n      dup8\n      dup1\n      extcodesize\n      iszero\n        /* \"--CODEGEN--\":8:17   */\n      dup1\n        /* \"--CODEGEN--\":5:7   */\n      iszero\n      tag_65\n      jumpi\n        /* \"--CODEGEN--\":30:31   */\n      0x0\n        /* \"--CODEGEN--\":27:28   */\n      dup1\n        /* \"--CODEGEN--\":20:32   */\n      revert\n        /* \"--CODEGEN--\":5:7   */\n    tag_65:\n        /* \"Project-1-AuctionPlatform/AuctionPlatform.sol\":2184:2220  auctionList[_aucId].bids(msg.sender) */\n      pop\n      gas\n      call\n      iszero\n        /* \"--CODEGEN--\":8:17   */\n      dup1\n        /* \"--CODEGEN--\":5:7   */\n      iszero\n      tag_66\n      jumpi\n        /* \"--CODEGEN--\":45:61   */\n      returndatasize\n        /* \"--CODEGEN--\":42:43   */\n      0x0\n        /* \"--CODEGEN--\":39:40   */\n      dup1\n        /* \"--CODEGEN--\":24:62   */\n      returndatacopy\n        /* \"--CODEGEN--\":77:93   */\n      returndatasize\n        /* \"--CODEGEN--\":74:75   */\n      0x0\n        /* \"--CODEGEN--\":67:94   */\n      revert\n        /* \"--CODEGEN--\":5:7   */\n    tag_66:\n        /* \"Project-1-AuctionPlatform/AuctionPlatform.sol\":2184:2220  auctionList[_aucId].bids(msg.sender) */\n      pop\n      pop\n      pop\n      pop\n      mload(0x40)\n      returndatasize\n        /* \"--CODEGEN--\":13:15   */\n      0x20\n        /* \"--CODEGEN--\":8:11   */\n      dup2\n        /* \"--CODEGEN--\":5:16   */\n      lt\n        /* \"--CODEGEN--\":2:4   */\n      iszero\n      tag_67\n      jumpi\n        /* \"--CODEGEN--\":29:30   */\n      0x0\n        /* \"--CODEGEN--\":26:27   */\n      dup1\n        /* \"--CODEGEN--\":19:31   */\n      revert\n        /* \"--CODEGEN--\":2:4   */\n    tag_67:\n        /* \"Project-1-AuctionPlatform/AuctionPlatform.sol\":2184:2220  auctionList[_aucId].bids(msg.sender) */\n      dup2\n      add\n      swap1\n      dup1\n      dup1\n      mload\n      swap1\n      0x20\n      add\n      swap1\n      swap3\n      swap2\n      swap1\n      pop\n      pop\n      pop\n        /* \"Project-1-AuctionPlatform/AuctionPlatform.sol\":2177:2220  return auctionList[_aucId].bids(msg.sender) */\n      swap2\n      pop\n        /* \"Project-1-AuctionPlatform/AuctionPlatform.sol\":9040:9041  _ */\n      pop\n        /* \"Project-1-AuctionPlatform/AuctionPlatform.sol\":2022:2227  function getBidValOnAuction(uint256 _aucId)... */\n      swap2\n      swap1\n      pop\n      jump\t// out\n        /* \"Project-1-AuctionPlatform/AuctionPlatform.sol\":5031:5300  function updateBid(uint256 _aucId, uint256 _bidVal)... */\n    tag_21:\n        /* \"Project-1-AuctionPlatform/AuctionPlatform.sol\":5116:5122  _aucId */\n      dup2\n        /* \"Project-1-AuctionPlatform/AuctionPlatform.sol\":8293:8298  aucId */\n      sload(0x0)\n        /* \"Project-1-AuctionPlatform/AuctionPlatform.sol\":8283:8289  _aucId */\n      dup2\n        /* \"Project-1-AuctionPlatform/AuctionPlatform.sol\":8283:8298  _aucId <= aucId */\n      gt\n      iszero\n        /* \"Project-1-AuctionPlatform/AuctionPlatform.sol\":8283:8368  _aucId <= aucId &&... */\n      dup1\n      iszero\n      tag_69\n      jumpi\n      pop\n        /* \"Project-1-AuctionPlatform/AuctionPlatform.sol\":8353:8368  block.timestamp */\n      timestamp\n        /* \"Project-1-AuctionPlatform/AuctionPlatform.sol\":8318:8329  auctionList */\n      0x1\n        /* \"Project-1-AuctionPlatform/AuctionPlatform.sol\":8330:8336  _aucId */\n      dup3\n        /* \"Project-1-AuctionPlatform/AuctionPlatform.sol\":8318:8337  auctionList[_aucId] */\n      0x65\n      dup2\n      lt\n      iszero\n      iszero\n      tag_70\n      jumpi\n      invalid\n    tag_70:\n      add\n      0x0\n      swap1\n      sload\n      swap1\n      0x100\n      exp\n      swap1\n      div\n      0xffffffffffffffffffffffffffffffffffffffff\n      and\n        /* \"Project-1-AuctionPlatform/AuctionPlatform.sol\":8318:8348  auctionList[_aucId].getEndTime */\n      0xffffffffffffffffffffffffffffffffffffffff\n      and\n      0x439f5ac2\n        /* \"Project-1-AuctionPlatform/AuctionPlatform.sol\":8318:8350  auctionList[_aucId].getEndTime() */\n      mload(0x40)\n      dup2\n      0xffffffff\n      and\n      0x100000000000000000000000000000000000000000000000000000000\n      mul\n      dup2\n      mstore\n      0x4\n      add\n      0x20\n      mload(0x40)\n      dup1\n      dup4\n      sub\n      dup2\n      0x0\n      dup8\n      dup1\n      extcodesize\n      iszero\n        /* \"--CODEGEN--\":8:17   */\n      dup1\n        /* \"--CODEGEN--\":5:7   */\n      iszero\n      tag_72\n      jumpi\n        /* \"--CODEGEN--\":30:31   */\n      0x0\n        /* \"--CODEGEN--\":27:28   */\n      dup1\n        /* \"--CODEGEN--\":20:32   */\n      revert\n        /* \"--CODEGEN--\":5:7   */\n    tag_72:\n        /* \"Project-1-AuctionPlatform/AuctionPlatform.sol\":8318:8350  auctionList[_aucId].getEndTime() */\n      pop\n      gas\n      call\n      iszero\n        /* \"--CODEGEN--\":8:17   */\n      dup1\n        /* \"--CODEGEN--\":5:7   */\n      iszero\n      tag_73\n      jumpi\n        /* \"--CODEGEN--\":45:61   */\n      returndatasize\n        /* \"--CODEGEN--\":42:43   */\n      0x0\n        /* \"--CODEGEN--\":39:40   */\n      dup1\n        /* \"--CODEGEN--\":24:62   */\n      returndatacopy\n        /* \"--CODEGEN--\":77:93   */\n      returndatasize\n        /* \"--CODEGEN--\":74:75   */\n      0x0\n        /* \"--CODEGEN--\":67:94   */\n      revert\n        /* \"--CODEGEN--\":5:7   */\n    tag_73:\n        /* \"Project-1-AuctionPlatform/AuctionPlatform.sol\":8318:8350  auctionList[_aucId].getEndTime() */\n      pop\n      pop\n      pop\n      pop\n      mload(0x40)\n      returndatasize\n        /* \"--CODEGEN--\":13:15   */\n      0x20\n        /* \"--CODEGEN--\":8:11   */\n      dup2\n        /* \"--CODEGEN--\":5:16   */\n      lt\n        /* \"--CODEGEN--\":2:4   */\n      iszero\n      tag_74\n      jumpi\n        /* \"--CODEGEN--\":29:30   */\n      0x0\n        /* \"--CODEGEN--\":26:27   */\n      dup1\n        /* \"--CODEGEN--\":19:31   */\n      revert\n        /* \"--CODEGEN--\":2:4   */\n    tag_74:\n        /* \"Project-1-AuctionPlatform/AuctionPlatform.sol\":8318:8350  auctionList[_aucId].getEndTime() */\n      dup2\n      add\n      swap1\n      dup1\n      dup1\n      mload\n      swap1\n      0x20\n      add\n      swap1\n      swap3\n      swap2\n      swap1\n      pop\n      pop\n      pop\n        /* \"Project-1-AuctionPlatform/AuctionPlatform.sol\":8318:8368  auctionList[_aucId].getEndTime() > block.timestamp */\n      gt\n        /* \"Project-1-AuctionPlatform/AuctionPlatform.sol\":8283:8368  _aucId <= aucId &&... */\n    tag_69:\n        /* \"Project-1-AuctionPlatform/AuctionPlatform.sol\":8262:8413  require(... */\n      iszero\n      iszero\n      tag_75\n      jumpi\n      mload(0x40)\n      0x8c379a000000000000000000000000000000000000000000000000000000000\n      dup2\n      mstore\n      0x4\n      add\n      dup1\n      dup1\n      0x20\n      add\n      dup3\n      dup2\n      sub\n      dup3\n      mstore\n      0x13\n      dup2\n      mstore\n      0x20\n      add\n      dup1\n      0x41756374696f6e20697320496e61637469766500000000000000000000000000\n      dup2\n      mstore\n      pop\n      0x20\n      add\n      swap2\n      pop\n      pop\n      mload(0x40)\n      dup1\n      swap2\n      sub\n      swap1\n      revert\n    tag_75:\n        /* \"Project-1-AuctionPlatform/AuctionPlatform.sol\":5138:5149  auctionList */\n      0x1\n        /* \"Project-1-AuctionPlatform/AuctionPlatform.sol\":5150:5156  _aucId */\n      dup4\n        /* \"Project-1-AuctionPlatform/AuctionPlatform.sol\":5138:5157  auctionList[_aucId] */\n      0x65\n      dup2\n      lt\n      iszero\n      iszero\n      tag_77\n      jumpi\n      invalid\n    tag_77:\n      add\n      0x0\n      swap1\n      sload\n      swap1\n      0x100\n      exp\n      swap1\n      div\n      0xffffffffffffffffffffffffffffffffffffffff\n      and\n        /* \"Project-1-AuctionPlatform/AuctionPlatform.sol\":5138:5167  auctionList[_aucId].updateBid */\n      0xffffffffffffffffffffffffffffffffffffffff\n      and\n      0x43129de1\n        /* \"Project-1-AuctionPlatform/AuctionPlatform.sol\":5168:5175  _bidVal */\n      dup4\n        /* \"Project-1-AuctionPlatform/AuctionPlatform.sol\":5138:5176  auctionList[_aucId].updateBid(_bidVal) */\n      mload(0x40)\n      dup3\n      0xffffffff\n      and\n      0x100000000000000000000000000000000000000000000000000000000\n      mul\n      dup2\n      mstore\n      0x4\n      add\n      dup1\n      dup3\n      dup2\n      mstore\n      0x20\n      add\n      swap2\n      pop\n      pop\n      0x0\n      mload(0x40)\n      dup1\n      dup4\n      sub\n      dup2\n      0x0\n      dup8\n      dup1\n      extcodesize\n      iszero\n        /* \"--CODEGEN--\":8:17   */\n      dup1\n        /* \"--CODEGEN--\":5:7   */\n      iszero\n      tag_79\n      jumpi\n        /* \"--CODEGEN--\":30:31   */\n      0x0\n        /* \"--CODEGEN--\":27:28   */\n      dup1\n        /* \"--CODEGEN--\":20:32   */\n      revert\n        /* \"--CODEGEN--\":5:7   */\n    tag_79:\n        /* \"Project-1-AuctionPlatform/AuctionPlatform.sol\":5138:5176  auctionList[_aucId].updateBid(_bidVal) */\n      pop\n      gas\n      call\n      iszero\n        /* \"--CODEGEN--\":8:17   */\n      dup1\n        /* \"--CODEGEN--\":5:7   */\n      iszero\n      tag_80\n      jumpi\n        /* \"--CODEGEN--\":45:61   */\n      returndatasize\n        /* \"--CODEGEN--\":42:43   */\n      0x0\n        /* \"--CODEGEN--\":39:40   */\n      dup1\n        /* \"--CODEGEN--\":24:62   */\n      returndatacopy\n        /* \"--CODEGEN--\":77:93   */\n      returndatasize\n        /* \"--CODEGEN--\":74:75   */\n      0x0\n        /* \"--CODEGEN--\":67:94   */\n      revert\n        /* \"--CODEGEN--\":5:7   */\n    tag_80:\n        /* \"Project-1-AuctionPlatform/AuctionPlatform.sol\":5138:5176  auctionList[_aucId].updateBid(_bidVal) */\n      pop\n      pop\n      pop\n      pop\n        /* \"Project-1-AuctionPlatform/AuctionPlatform.sol\":5286:5292  _aucId */\n      dup3\n        /* \"Project-1-AuctionPlatform/AuctionPlatform.sol\":5274:5284  msg.sender */\n      caller\n        /* \"Project-1-AuctionPlatform/AuctionPlatform.sol\":5263:5293  updatedBid(msg.sender, _aucId) */\n      0xffffffffffffffffffffffffffffffffffffffff\n      and\n      0xb722ccec10268690bf7ef3a9603076baf9b304a59def91157d4a80c98d557aae\n      mload(0x40)\n      mload(0x40)\n      dup1\n      swap2\n      sub\n      swap1\n      log3\n        /* \"Project-1-AuctionPlatform/AuctionPlatform.sol\":5031:5300  function updateBid(uint256 _aucId, uint256 _bidVal)... */\n      pop\n      pop\n      pop\n      jump\t// out\n        /* \"Project-1-AuctionPlatform/AuctionPlatform.sol\":2719:2890  function getMaxBid(uint256 _aucId)... */\n    tag_24:\n        /* \"Project-1-AuctionPlatform/AuctionPlatform.sol\":2818:2825  uint256 */\n      0x0\n        /* \"Project-1-AuctionPlatform/AuctionPlatform.sol\":8039:8050  auctionList */\n      0x1\n        /* \"Project-1-AuctionPlatform/AuctionPlatform.sol\":8051:8060  aucOwners */\n      0x66\n        /* \"Project-1-AuctionPlatform/AuctionPlatform.sol\":8051:8072  aucOwners[msg.sender] */\n      0x0\n        /* \"Project-1-AuctionPlatform/AuctionPlatform.sol\":8061:8071  msg.sender */\n      caller\n        /* \"Project-1-AuctionPlatform/AuctionPlatform.sol\":8051:8072  aucOwners[msg.sender] */\n      0xffffffffffffffffffffffffffffffffffffffff\n      and\n      0xffffffffffffffffffffffffffffffffffffffff\n      and\n      dup2\n      mstore\n      0x20\n      add\n      swap1\n      dup2\n      mstore\n      0x20\n      add\n      0x0\n      keccak256\n      sload\n        /* \"Project-1-AuctionPlatform/AuctionPlatform.sol\":8039:8073  auctionList[aucOwners[msg.sender]] */\n      0x65\n      dup2\n      lt\n      iszero\n      iszero\n      tag_82\n      jumpi\n      invalid\n    tag_82:\n      add\n      0x0\n      swap1\n      sload\n      swap1\n      0x100\n      exp\n      swap1\n      div\n      0xffffffffffffffffffffffffffffffffffffffff\n      and\n        /* \"Project-1-AuctionPlatform/AuctionPlatform.sol\":8039:8085  auctionList[aucOwners[msg.sender]].getBidsMade */\n      0xffffffffffffffffffffffffffffffffffffffff\n      and\n      0x409766e6\n        /* \"Project-1-AuctionPlatform/AuctionPlatform.sol\":8039:8087  auctionList[aucOwners[msg.sender]].getBidsMade() */\n      mload(0x40)\n      dup2\n      0xffffffff\n      and\n      0x100000000000000000000000000000000000000000000000000000000\n      mul\n      dup2\n      mstore\n      0x4\n      add\n      0x20\n      mload(0x40)\n      dup1\n      dup4\n      sub\n      dup2\n      0x0\n      dup8\n      dup1\n      extcodesize\n      iszero\n        /* \"--CODEGEN--\":8:17   */\n      dup1\n        /* \"--CODEGEN--\":5:7   */\n      iszero\n      tag_84\n      jumpi\n        /* \"--CODEGEN--\":30:31   */\n      0x0\n        /* \"--CODEGEN--\":27:28   */\n      dup1\n        /* \"--CODEGEN--\":20:32   */\n      revert\n        /* \"--CODEGEN--\":5:7   */\n    tag_84:\n        /* \"Project-1-AuctionPlatform/AuctionPlatform.sol\":8039:8087  auctionList[aucOwners[msg.sender]].getBidsMade() */\n      pop\n      gas\n      call\n      iszero\n        /* \"--CODEGEN--\":8:17   */\n      dup1\n        /* \"--CODEGEN--\":5:7   */\n      iszero\n      tag_85\n      jumpi\n        /* \"--CODEGEN--\":45:61   */\n      returndatasize\n        /* \"--CODEGEN--\":42:43   */\n      0x0\n        /* \"--CODEGEN--\":39:40   */\n      dup1\n        /* \"--CODEGEN--\":24:62   */\n      returndatacopy\n        /* \"--CODEGEN--\":77:93   */\n      returndatasize\n        /* \"--CODEGEN--\":74:75   */\n      0x0\n        /* \"--CODEGEN--\":67:94   */\n      revert\n        /* \"--CODEGEN--\":5:7   */\n    tag_85:\n        /* \"Project-1-AuctionPlatform/AuctionPlatform.sol\":8039:8087  auctionList[aucOwners[msg.sender]].getBidsMade() */\n      pop\n      pop\n      pop\n      pop\n      mload(0x40)\n      returndatasize\n        /* \"--CODEGEN--\":13:15   */\n      0x20\n        /* \"--CODEGEN--\":8:11   */\n      dup2\n        /* \"--CODEGEN--\":5:16   */\n      lt\n        /* \"--CODEGEN--\":2:4   */\n      iszero\n      tag_86\n      jumpi\n        /* \"--CODEGEN--\":29:30   */\n      0x0\n        /* \"--CODEGEN--\":26:27   */\n      dup1\n        /* \"--CODEGEN--\":19:31   */\n      revert\n        /* \"--CODEGEN--\":2:4   */\n    tag_86:\n        /* \"Project-1-AuctionPlatform/AuctionPlatform.sol\":8039:8087  auctionList[aucOwners[msg.sender]].getBidsMade() */\n      dup2\n      add\n      swap1\n      dup1\n      dup1\n      mload\n      swap1\n      0x20\n      add\n      swap1\n      swap3\n      swap2\n      swap1\n      pop\n      pop\n      pop\n        /* \"Project-1-AuctionPlatform/AuctionPlatform.sol\":8018:8149  require(... */\n      iszero\n      iszero\n      tag_87\n      jumpi\n      mload(0x40)\n      0x8c379a000000000000000000000000000000000000000000000000000000000\n      dup2\n      mstore\n      0x4\n      add\n      dup1\n      dup1\n      0x20\n      add\n      dup3\n      dup2\n      sub\n      dup3\n      mstore\n      0x24\n      dup2\n      mstore\n      0x20\n      add\n      dup1\n      0x5468657265206172656e277420616e792062696473206f6e2074686520417563\n      dup2\n      mstore\n      0x20\n      add\n      0x74696f6e00000000000000000000000000000000000000000000000000000000\n      dup2\n      mstore\n      pop\n      0x40\n      add\n      swap2\n      pop\n      pop\n      mload(0x40)\n      dup1\n      swap2\n      sub\n      swap1\n      revert\n    tag_87:\n        /* \"Project-1-AuctionPlatform/AuctionPlatform.sol\":2848:2859  auctionList */\n      0x1\n        /* \"Project-1-AuctionPlatform/AuctionPlatform.sol\":2860:2866  _aucId */\n      dup3\n        /* \"Project-1-AuctionPlatform/AuctionPlatform.sol\":2848:2867  auctionList[_aucId] */\n      0x65\n      dup2\n      lt\n      iszero\n      iszero\n      tag_89\n      jumpi\n      invalid\n    tag_89:\n      add\n      0x0\n      swap1\n      sload\n      swap1\n      0x100\n      exp\n      swap1\n      div\n      0xffffffffffffffffffffffffffffffffffffffff\n      and\n        /* \"Project-1-AuctionPlatform/AuctionPlatform.sol\":2848:2881  auctionList[_aucId].getMaximumBid */\n      0xffffffffffffffffffffffffffffffffffffffff\n      and\n      0xdd06ba1a\n        /* \"Project-1-AuctionPlatform/AuctionPlatform.sol\":2848:2883  auctionList[_aucId].getMaximumBid() */\n      mload(0x40)\n      dup2\n      0xffffffff\n      and\n      0x100000000000000000000000000000000000000000000000000000000\n      mul\n      dup2\n      mstore\n      0x4\n      add\n      0x20\n      mload(0x40)\n      dup1\n      dup4\n      sub\n      dup2\n      0x0\n      dup8\n      dup1\n      extcodesize\n      iszero\n        /* \"--CODEGEN--\":8:17   */\n      dup1\n        /* \"--CODEGEN--\":5:7   */\n      iszero\n      tag_91\n      jumpi\n        /* \"--CODEGEN--\":30:31   */\n      0x0\n        /* \"--CODEGEN--\":27:28   */\n      dup1\n        /* \"--CODEGEN--\":20:32   */\n      revert\n        /* \"--CODEGEN--\":5:7   */\n    tag_91:\n        /* \"Project-1-AuctionPlatform/AuctionPlatform.sol\":2848:2883  auctionList[_aucId].getMaximumBid() */\n      pop\n      gas\n      call\n      iszero\n        /* \"--CODEGEN--\":8:17   */\n      dup1\n        /* \"--CODEGEN--\":5:7   */\n      iszero\n      tag_92\n      jumpi\n        /* \"--CODEGEN--\":45:61   */\n      returndatasize\n        /* \"--CODEGEN--\":42:43   */\n      0x0\n        /* \"--CODEGEN--\":39:40   */\n      dup1\n        /* \"--CODEGEN--\":24:62   */\n      returndatacopy\n        /* \"--CODEGEN--\":77:93   */\n      returndatasize\n        /* \"--CODEGEN--\":74:75   */\n      0x0\n        /* \"--CODEGEN--\":67:94   */\n      revert\n        /* \"--CODEGEN--\":5:7   */\n    tag_92:\n        /* \"Project-1-AuctionPlatform/AuctionPlatform.sol\":2848:2883  auctionList[_aucId].getMaximumBid() */\n      pop\n      pop\n      pop\n      pop\n      mload(0x40)\n      returndatasize\n        /* \"--CODEGEN--\":13:15   */\n      0x20\n        /* \"--CODEGEN--\":8:11   */\n      dup2\n        /* \"--CODEGEN--\":5:16   */\n      lt\n        /* \"--CODEGEN--\":2:4   */\n      iszero\n      tag_93\n      jumpi\n        /* \"--CODEGEN--\":29:30   */\n      0x0\n        /* \"--CODEGEN--\":26:27   */\n      dup1\n        /* \"--CODEGEN--\":19:31   */\n      revert\n        /* \"--CODEGEN--\":2:4   */\n    tag_93:\n        /* \"Project-1-AuctionPlatform/AuctionPlatform.sol\":2848:2883  auctionList[_aucId].getMaximumBid() */\n      dup2\n      add\n      swap1\n      dup1\n      dup1\n      mload\n      swap1\n      0x20\n      add\n      swap1\n      swap3\n      swap2\n      swap1\n      pop\n      pop\n      pop\n        /* \"Project-1-AuctionPlatform/AuctionPlatform.sol\":2841:2883  return auctionList[_aucId].getMaximumBid() */\n      swap1\n      pop\n        /* \"Project-1-AuctionPlatform/AuctionPlatform.sol\":2719:2890  function getMaxBid(uint256 _aucId)... */\n      swap2\n      swap1\n      pop\n      jump\t// out\n        /* \"Project-1-AuctionPlatform/AuctionPlatform.sol\":2303:2713  function getMaxBid()... */\n    tag_27:\n        /* \"Project-1-AuctionPlatform/AuctionPlatform.sol\":2411:2418  uint256 */\n      0x0\n        /* \"Project-1-AuctionPlatform/AuctionPlatform.sol\":8814:8815  0 */\n      dup1\n        /* \"Project-1-AuctionPlatform/AuctionPlatform.sol\":8789:8798  aucOwners */\n      0x66\n        /* \"Project-1-AuctionPlatform/AuctionPlatform.sol\":8789:8810  aucOwners[msg.sender] */\n      0x0\n        /* \"Project-1-AuctionPlatform/AuctionPlatform.sol\":8799:8809  msg.sender */\n      caller\n        /* \"Project-1-AuctionPlatform/AuctionPlatform.sol\":8789:8810  aucOwners[msg.sender] */\n      0xffffffffffffffffffffffffffffffffffffffff\n      and\n      0xffffffffffffffffffffffffffffffffffffffff\n      and\n      dup2\n      mstore\n      0x20\n      add\n      swap1\n      dup2\n      mstore\n      0x20\n      add\n      0x0\n      keccak256\n      sload\n        /* \"Project-1-AuctionPlatform/AuctionPlatform.sol\":8789:8815  aucOwners[msg.sender] != 0 */\n      eq\n      iszero\n        /* \"Project-1-AuctionPlatform/AuctionPlatform.sol\":8781:8852  require(aucOwners[msg.sender] != 0, \"You haven't created any Auctions\") */\n      iszero\n      iszero\n      tag_95\n      jumpi\n      mload(0x40)\n      0x8c379a000000000000000000000000000000000000000000000000000000000\n      dup2\n      mstore\n      0x4\n      add\n      dup1\n      dup1\n      0x20\n      add\n      dup3\n      dup2\n      sub\n      dup3\n      mstore\n      0x20\n      dup2\n      mstore\n      0x20\n      add\n      dup1\n      0x596f7520686176656e2774206372656174656420616e792041756374696f6e73\n      dup2\n      mstore\n      pop\n      0x20\n      add\n      swap2\n      pop\n      pop\n      mload(0x40)\n      dup1\n      swap2\n      sub\n      swap1\n      revert\n    tag_95:\n        /* \"Project-1-AuctionPlatform/AuctionPlatform.sol\":8039:8050  auctionList */\n      0x1\n        /* \"Project-1-AuctionPlatform/AuctionPlatform.sol\":8051:8060  aucOwners */\n      0x66\n        /* \"Project-1-AuctionPlatform/AuctionPlatform.sol\":8051:8072  aucOwners[msg.sender] */\n      0x0\n        /* \"Project-1-AuctionPlatform/AuctionPlatform.sol\":8061:8071  msg.sender */\n      caller\n        /* \"Project-1-AuctionPlatform/AuctionPlatform.sol\":8051:8072  aucOwners[msg.sender] */\n      0xffffffffffffffffffffffffffffffffffffffff\n      and\n      0xffffffffffffffffffffffffffffffffffffffff\n      and\n      dup2\n      mstore\n      0x20\n      add\n      swap1\n      dup2\n      mstore\n      0x20\n      add\n      0x0\n      keccak256\n      sload\n        /* \"Project-1-AuctionPlatform/AuctionPlatform.sol\":8039:8073  auctionList[aucOwners[msg.sender]] */\n      0x65\n      dup2\n      lt\n      iszero\n      iszero\n      tag_97\n      jumpi\n      invalid\n    tag_97:\n      add\n      0x0\n      swap1\n      sload\n      swap1\n      0x100\n      exp\n      swap1\n      div\n      0xffffffffffffffffffffffffffffffffffffffff\n      and\n        /* \"Project-1-AuctionPlatform/AuctionPlatform.sol\":8039:8085  auctionList[aucOwners[msg.sender]].getBidsMade */\n      0xffffffffffffffffffffffffffffffffffffffff\n      and\n      0x409766e6\n        /* \"Project-1-AuctionPlatform/AuctionPlatform.sol\":8039:8087  auctionList[aucOwners[msg.sender]].getBidsMade() */\n      mload(0x40)\n      dup2\n      0xffffffff\n      and\n      0x100000000000000000000000000000000000000000000000000000000\n      mul\n      dup2\n      mstore\n      0x4\n      add\n      0x20\n      mload(0x40)\n      dup1\n      dup4\n      sub\n      dup2\n      0x0\n      dup8\n      dup1\n      extcodesize\n      iszero\n        /* \"--CODEGEN--\":8:17   */\n      dup1\n        /* \"--CODEGEN--\":5:7   */\n      iszero\n      tag_99\n      jumpi\n        /* \"--CODEGEN--\":30:31   */\n      0x0\n        /* \"--CODEGEN--\":27:28   */\n      dup1\n        /* \"--CODEGEN--\":20:32   */\n      revert\n        /* \"--CODEGEN--\":5:7   */\n    tag_99:\n        /* \"Project-1-AuctionPlatform/AuctionPlatform.sol\":8039:8087  auctionList[aucOwners[msg.sender]].getBidsMade() */\n      pop\n      gas\n      call\n      iszero\n        /* \"--CODEGEN--\":8:17   */\n      dup1\n        /* \"--CODEGEN--\":5:7   */\n      iszero\n      tag_100\n      jumpi\n        /* \"--CODEGEN--\":45:61   */\n      returndatasize\n        /* \"--CODEGEN--\":42:43   */\n      0x0\n        /* \"--CODEGEN--\":39:40   */\n      dup1\n        /* \"--CODEGEN--\":24:62   */\n      returndatacopy\n        /* \"--CODEGEN--\":77:93   */\n      returndatasize\n        /* \"--CODEGEN--\":74:75   */\n      0x0\n        /* \"--CODEGEN--\":67:94   */\n      revert\n        /* \"--CODEGEN--\":5:7   */\n    tag_100:\n        /* \"Project-1-AuctionPlatform/AuctionPlatform.sol\":8039:8087  auctionList[aucOwners[msg.sender]].getBidsMade() */\n      pop\n      pop\n      pop\n      pop\n      mload(0x40)\n      returndatasize\n        /* \"--CODEGEN--\":13:15   */\n      0x20\n        /* \"--CODEGEN--\":8:11   */\n      dup2\n        /* \"--CODEGEN--\":5:16   */\n      lt\n        /* \"--CODEGEN--\":2:4   */\n      iszero\n      tag_101\n      jumpi\n        /* \"--CODEGEN--\":29:30   */\n      0x0\n        /* \"--CODEGEN--\":26:27   */\n      dup1\n        /* \"--CODEGEN--\":19:31   */\n      revert\n        /* \"--CODEGEN--\":2:4   */\n    tag_101:\n        /* \"Project-1-AuctionPlatform/AuctionPlatform.sol\":8039:8087  auctionList[aucOwners[msg.sender]].getBidsMade() */\n      dup2\n      add\n      swap1\n      dup1\n      dup1\n      mload\n      swap1\n      0x20\n      add\n      swap1\n      swap3\n      swap2\n      swap1\n      pop\n      pop\n      pop\n        /* \"Project-1-AuctionPlatform/AuctionPlatform.sol\":8018:8149  require(... */\n      iszero\n      iszero\n      tag_102\n      jumpi\n      mload(0x40)\n      0x8c379a000000000000000000000000000000000000000000000000000000000\n      dup2\n      mstore\n      0x4\n      add\n      dup1\n      dup1\n      0x20\n      add\n      dup3\n      dup2\n      sub\n      dup3\n      mstore\n      0x24\n      dup2\n      mstore\n      0x20\n      add\n      dup1\n      0x5468657265206172656e277420616e792062696473206f6e2074686520417563\n      dup2\n      mstore\n      0x20\n      add\n      0x74696f6e00000000000000000000000000000000000000000000000000000000\n      dup2\n      mstore\n      pop\n      0x40\n      add\n      swap2\n      pop\n      pop\n      mload(0x40)\n      dup1\n      swap2\n      sub\n      swap1\n      revert\n    tag_102:\n        /* \"Project-1-AuctionPlatform/AuctionPlatform.sol\":2656:2667  auctionList */\n      0x1\n        /* \"Project-1-AuctionPlatform/AuctionPlatform.sol\":2668:2677  aucOwners */\n      0x66\n        /* \"Project-1-AuctionPlatform/AuctionPlatform.sol\":2668:2689  aucOwners[msg.sender] */\n      0x0\n        /* \"Project-1-AuctionPlatform/AuctionPlatform.sol\":2678:2688  msg.sender */\n      caller\n        /* \"Project-1-AuctionPlatform/AuctionPlatform.sol\":2668:2689  aucOwners[msg.sender] */\n      0xffffffffffffffffffffffffffffffffffffffff\n      and\n      0xffffffffffffffffffffffffffffffffffffffff\n      and\n      dup2\n      mstore\n      0x20\n      add\n      swap1\n      dup2\n      mstore\n      0x20\n      add\n      0x0\n      keccak256\n      sload\n        /* \"Project-1-AuctionPlatform/AuctionPlatform.sol\":2656:2690  auctionList[aucOwners[msg.sender]] */\n      0x65\n      dup2\n      lt\n      iszero\n      iszero\n      tag_104\n      jumpi\n      invalid\n    tag_104:\n      add\n      0x0\n      swap1\n      sload\n      swap1\n      0x100\n      exp\n      swap1\n      div\n      0xffffffffffffffffffffffffffffffffffffffff\n      and\n        /* \"Project-1-AuctionPlatform/AuctionPlatform.sol\":2656:2704  auctionList[aucOwners[msg.sender]].getMaximumBid */\n      0xffffffffffffffffffffffffffffffffffffffff\n      and\n      0xdd06ba1a\n        /* \"Project-1-AuctionPlatform/AuctionPlatform.sol\":2656:2706  auctionList[aucOwners[msg.sender]].getMaximumBid() */\n      mload(0x40)\n      dup2\n      0xffffffff\n      and\n      0x100000000000000000000000000000000000000000000000000000000\n      mul\n      dup2\n      mstore\n      0x4\n      add\n      0x20\n      mload(0x40)\n      dup1\n      dup4\n      sub\n      dup2\n      0x0\n      dup8\n      dup1\n      extcodesize\n      iszero\n        /* \"--CODEGEN--\":8:17   */\n      dup1\n        /* \"--CODEGEN--\":5:7   */\n      iszero\n      tag_106\n      jumpi\n        /* \"--CODEGEN--\":30:31   */\n      0x0\n        /* \"--CODEGEN--\":27:28   */\n      dup1\n        /* \"--CODEGEN--\":20:32   */\n      revert\n        /* \"--CODEGEN--\":5:7   */\n    tag_106:\n        /* \"Project-1-AuctionPlatform/AuctionPlatform.sol\":2656:2706  auctionList[aucOwners[msg.sender]].getMaximumBid() */\n      pop\n      gas\n      call\n      iszero\n        /* \"--CODEGEN--\":8:17   */\n      dup1\n        /* \"--CODEGEN--\":5:7   */\n      iszero\n      tag_107\n      jumpi\n        /* \"--CODEGEN--\":45:61   */\n      returndatasize\n        /* \"--CODEGEN--\":42:43   */\n      0x0\n        /* \"--CODEGEN--\":39:40   */\n      dup1\n        /* \"--CODEGEN--\":24:62   */\n      returndatacopy\n        /* \"--CODEGEN--\":77:93   */\n      returndatasize\n        /* \"--CODEGEN--\":74:75   */\n      0x0\n        /* \"--CODEGEN--\":67:94   */\n      revert\n        /* \"--CODEGEN--\":5:7   */\n    tag_107:\n        /* \"Project-1-AuctionPlatform/AuctionPlatform.sol\":2656:2706  auctionList[aucOwners[msg.sender]].getMaximumBid() */\n      pop\n      pop\n      pop\n      pop\n      mload(0x40)\n      returndatasize\n        /* \"--CODEGEN--\":13:15   */\n      0x20\n        /* \"--CODEGEN--\":8:11   */\n      dup2\n        /* \"--CODEGEN--\":5:16   */\n      lt\n        /* \"--CODEGEN--\":2:4   */\n      iszero\n      tag_108\n      jumpi\n        /* \"--CODEGEN--\":29:30   */\n      0x0\n        /* \"--CODEGEN--\":26:27   */\n      dup1\n        /* \"--CODEGEN--\":19:31   */\n      revert\n        /* \"--CODEGEN--\":2:4   */\n    tag_108:\n        /* \"Project-1-AuctionPlatform/AuctionPlatform.sol\":2656:2706  auctionList[aucOwners[msg.sender]].getMaximumBid() */\n      dup2\n      add\n      swap1\n      dup1\n      dup1\n      mload\n      swap1\n      0x20\n      add\n      swap1\n      swap3\n      swap2\n      swap1\n      pop\n      pop\n      pop\n        /* \"Project-1-AuctionPlatform/AuctionPlatform.sol\":2649:2706  return auctionList[aucOwners[msg.sender]].getMaximumBid() */\n      swap1\n      pop\n        /* \"Project-1-AuctionPlatform/AuctionPlatform.sol\":2303:2713  function getMaxBid()... */\n      swap1\n      jump\t// out\n        /* \"Project-1-AuctionPlatform/AuctionPlatform.sol\":4152:5025  function bidOnAuction(uint256 _aucId, uint256 _bidVal)... */\n    tag_30:\n        /* \"Project-1-AuctionPlatform/AuctionPlatform.sol\":4240:4246  _aucId */\n      dup2\n        /* \"Project-1-AuctionPlatform/AuctionPlatform.sol\":8293:8298  aucId */\n      sload(0x0)\n        /* \"Project-1-AuctionPlatform/AuctionPlatform.sol\":8283:8289  _aucId */\n      dup2\n        /* \"Project-1-AuctionPlatform/AuctionPlatform.sol\":8283:8298  _aucId <= aucId */\n      gt\n      iszero\n        /* \"Project-1-AuctionPlatform/AuctionPlatform.sol\":8283:8368  _aucId <= aucId &&... */\n      dup1\n      iszero\n      tag_110\n      jumpi\n      pop\n        /* \"Project-1-AuctionPlatform/AuctionPlatform.sol\":8353:8368  block.timestamp */\n      timestamp\n        /* \"Project-1-AuctionPlatform/AuctionPlatform.sol\":8318:8329  auctionList */\n      0x1\n        /* \"Project-1-AuctionPlatform/AuctionPlatform.sol\":8330:8336  _aucId */\n      dup3\n        /* \"Project-1-AuctionPlatform/AuctionPlatform.sol\":8318:8337  auctionList[_aucId] */\n      0x65\n      dup2\n      lt\n      iszero\n      iszero\n      tag_111\n      jumpi\n      invalid\n    tag_111:\n      add\n      0x0\n      swap1\n      sload\n      swap1\n      0x100\n      exp\n      swap1\n      div\n      0xffffffffffffffffffffffffffffffffffffffff\n      and\n        /* \"Project-1-AuctionPlatform/AuctionPlatform.sol\":8318:8348  auctionList[_aucId].getEndTime */\n      0xffffffffffffffffffffffffffffffffffffffff\n      and\n      0x439f5ac2\n        /* \"Project-1-AuctionPlatform/AuctionPlatform.sol\":8318:8350  auctionList[_aucId].getEndTime() */\n      mload(0x40)\n      dup2\n      0xffffffff\n      and\n      0x100000000000000000000000000000000000000000000000000000000\n      mul\n      dup2\n      mstore\n      0x4\n      add\n      0x20\n      mload(0x40)\n      dup1\n      dup4\n      sub\n      dup2\n      0x0\n      dup8\n      dup1\n      extcodesize\n      iszero\n        /* \"--CODEGEN--\":8:17   */\n      dup1\n        /* \"--CODEGEN--\":5:7   */\n      iszero\n      tag_113\n      jumpi\n        /* \"--CODEGEN--\":30:31   */\n      0x0\n        /* \"--CODEGEN--\":27:28   */\n      dup1\n        /* \"--CODEGEN--\":20:32   */\n      revert\n        /* \"--CODEGEN--\":5:7   */\n    tag_113:\n        /* \"Project-1-AuctionPlatform/AuctionPlatform.sol\":8318:8350  auctionList[_aucId].getEndTime() */\n      pop\n      gas\n      call\n      iszero\n        /* \"--CODEGEN--\":8:17   */\n      dup1\n        /* \"--CODEGEN--\":5:7   */\n      iszero\n      tag_114\n      jumpi\n        /* \"--CODEGEN--\":45:61   */\n      returndatasize\n        /* \"--CODEGEN--\":42:43   */\n      0x0\n        /* \"--CODEGEN--\":39:40   */\n      dup1\n        /* \"--CODEGEN--\":24:62   */\n      returndatacopy\n        /* \"--CODEGEN--\":77:93   */\n      returndatasize\n        /* \"--CODEGEN--\":74:75   */\n      0x0\n        /* \"--CODEGEN--\":67:94   */\n      revert\n        /* \"--CODEGEN--\":5:7   */\n    tag_114:\n        /* \"Project-1-AuctionPlatform/AuctionPlatform.sol\":8318:8350  auctionList[_aucId].getEndTime() */\n      pop\n      pop\n      pop\n      pop\n      mload(0x40)\n      returndatasize\n        /* \"--CODEGEN--\":13:15   */\n      0x20\n        /* \"--CODEGEN--\":8:11   */\n      dup2\n        /* \"--CODEGEN--\":5:16   */\n      lt\n        /* \"--CODEGEN--\":2:4   */\n      iszero\n      tag_115\n      jumpi\n        /* \"--CODEGEN--\":29:30   */\n      0x0\n        /* \"--CODEGEN--\":26:27   */\n      dup1\n        /* \"--CODEGEN--\":19:31   */\n      revert\n        /* \"--CODEGEN--\":2:4   */\n    tag_115:\n        /* \"Project-1-AuctionPlatform/AuctionPlatform.sol\":8318:8350  auctionList[_aucId].getEndTime() */\n      dup2\n      add\n      swap1\n      dup1\n      dup1\n      mload\n      swap1\n      0x20\n      add\n      swap1\n      swap3\n      swap2\n      swap1\n      pop\n      pop\n      pop\n        /* \"Project-1-AuctionPlatform/AuctionPlatform.sol\":8318:8368  auctionList[_aucId].getEndTime() > block.timestamp */\n      gt\n        /* \"Project-1-AuctionPlatform/AuctionPlatform.sol\":8283:8368  _aucId <= aucId &&... */\n    tag_110:\n        /* \"Project-1-AuctionPlatform/AuctionPlatform.sol\":8262:8413  require(... */\n      iszero\n      iszero\n      tag_116\n      jumpi\n      mload(0x40)\n      0x8c379a000000000000000000000000000000000000000000000000000000000\n      dup2\n      mstore\n      0x4\n      add\n      dup1\n      dup1\n      0x20\n      add\n      dup3\n      dup2\n      sub\n      dup3\n      mstore\n      0x13\n      dup2\n      mstore\n      0x20\n      add\n      dup1\n      0x41756374696f6e20697320496e61637469766500000000000000000000000000\n      dup2\n      mstore\n      pop\n      0x20\n      add\n      swap2\n      pop\n      pop\n      mload(0x40)\n      dup1\n      swap2\n      sub\n      swap1\n      revert\n    tag_116:\n        /* \"Project-1-AuctionPlatform/AuctionPlatform.sol\":4470:4477  _bidVal */\n      dup2\n        /* \"Project-1-AuctionPlatform/AuctionPlatform.sol\":4433:4444  auctionList */\n      0x1\n        /* \"Project-1-AuctionPlatform/AuctionPlatform.sol\":4445:4451  _aucId */\n      dup5\n        /* \"Project-1-AuctionPlatform/AuctionPlatform.sol\":4433:4452  auctionList[_aucId] */\n      0x65\n      dup2\n      lt\n      iszero\n      iszero\n      tag_118\n      jumpi\n      invalid\n    tag_118:\n      add\n      0x0\n      swap1\n      sload\n      swap1\n      0x100\n      exp\n      swap1\n      div\n      0xffffffffffffffffffffffffffffffffffffffff\n      and\n        /* \"Project-1-AuctionPlatform/AuctionPlatform.sol\":4433:4465  auctionList[_aucId].getMinBidVal */\n      0xffffffffffffffffffffffffffffffffffffffff\n      and\n      0xad934674\n        /* \"Project-1-AuctionPlatform/AuctionPlatform.sol\":4433:4467  auctionList[_aucId].getMinBidVal() */\n      mload(0x40)\n      dup2\n      0xffffffff\n      and\n      0x100000000000000000000000000000000000000000000000000000000\n      mul\n      dup2\n      mstore\n      0x4\n      add\n      0x20\n      mload(0x40)\n      dup1\n      dup4\n      sub\n      dup2\n      0x0\n      dup8\n      dup1\n      extcodesize\n      iszero\n        /* \"--CODEGEN--\":8:17   */\n      dup1\n        /* \"--CODEGEN--\":5:7   */\n      iszero\n      tag_120\n      jumpi\n        /* \"--CODEGEN--\":30:31   */\n      0x0\n        /* \"--CODEGEN--\":27:28   */\n      dup1\n        /* \"--CODEGEN--\":20:32   */\n      revert\n        /* \"--CODEGEN--\":5:7   */\n    tag_120:\n        /* \"Project-1-AuctionPlatform/AuctionPlatform.sol\":4433:4467  auctionList[_aucId].getMinBidVal() */\n      pop\n      gas\n      call\n      iszero\n        /* \"--CODEGEN--\":8:17   */\n      dup1\n        /* \"--CODEGEN--\":5:7   */\n      iszero\n      tag_121\n      jumpi\n        /* \"--CODEGEN--\":45:61   */\n      returndatasize\n        /* \"--CODEGEN--\":42:43   */\n      0x0\n        /* \"--CODEGEN--\":39:40   */\n      dup1\n        /* \"--CODEGEN--\":24:62   */\n      returndatacopy\n        /* \"--CODEGEN--\":77:93   */\n      returndatasize\n        /* \"--CODEGEN--\":74:75   */\n      0x0\n        /* \"--CODEGEN--\":67:94   */\n      revert\n        /* \"--CODEGEN--\":5:7   */\n    tag_121:\n        /* \"Project-1-AuctionPlatform/AuctionPlatform.sol\":4433:4467  auctionList[_aucId].getMinBidVal() */\n      pop\n      pop\n      pop\n      pop\n      mload(0x40)\n      returndatasize\n        /* \"--CODEGEN--\":13:15   */\n      0x20\n        /* \"--CODEGEN--\":8:11   */\n      dup2\n        /* \"--CODEGEN--\":5:16   */\n      lt\n        /* \"--CODEGEN--\":2:4   */\n      iszero\n      tag_122\n      jumpi\n        /* \"--CODEGEN--\":29:30   */\n      0x0\n        /* \"--CODEGEN--\":26:27   */\n      dup1\n        /* \"--CODEGEN--\":19:31   */\n      revert\n        /* \"--CODEGEN--\":2:4   */\n    tag_122:\n        /* \"Project-1-AuctionPlatform/AuctionPlatform.sol\":4433:4467  auctionList[_aucId].getMinBidVal() */\n      dup2\n      add\n      swap1\n      dup1\n      dup1\n      mload\n      swap1\n      0x20\n      add\n      swap1\n      swap3\n      swap2\n      swap1\n      pop\n      pop\n      pop\n        /* \"Project-1-AuctionPlatform/AuctionPlatform.sol\":4433:4477  auctionList[_aucId].getMinBidVal() < _bidVal */\n      lt\n        /* \"Project-1-AuctionPlatform/AuctionPlatform.sol\":4412:4561  require(... */\n      iszero\n      iszero\n      tag_123\n      jumpi\n      mload(0x40)\n      0x8c379a000000000000000000000000000000000000000000000000000000000\n      dup2\n      mstore\n      0x4\n      add\n      dup1\n      dup1\n      0x20\n      add\n      dup3\n      dup2\n      sub\n      dup3\n      mstore\n      0x3a\n      dup2\n      mstore\n      0x20\n      add\n      dup1\n      0x4269642076616c75652063616e6e6f74206265206c657373207468616e206d69\n      dup2\n      mstore\n      0x20\n      add\n      0x6e696e756d206269642076616c7565206f662061756374696f6e000000000000\n      dup2\n      mstore\n      pop\n      0x40\n      add\n      swap2\n      pop\n      pop\n      mload(0x40)\n      dup1\n      swap2\n      sub\n      swap1\n      revert\n    tag_123:\n        /* \"Project-1-AuctionPlatform/AuctionPlatform.sol\":4605:4611  _aucId */\n      dup3\n        /* \"Project-1-AuctionPlatform/AuctionPlatform.sol\":4580:4589  aucOwners */\n      0x66\n        /* \"Project-1-AuctionPlatform/AuctionPlatform.sol\":4580:4601  aucOwners[msg.sender] */\n      0x0\n        /* \"Project-1-AuctionPlatform/AuctionPlatform.sol\":4590:4600  msg.sender */\n      caller\n        /* \"Project-1-AuctionPlatform/AuctionPlatform.sol\":4580:4601  aucOwners[msg.sender] */\n      0xffffffffffffffffffffffffffffffffffffffff\n      and\n      0xffffffffffffffffffffffffffffffffffffffff\n      and\n      dup2\n      mstore\n      0x20\n      add\n      swap1\n      dup2\n      mstore\n      0x20\n      add\n      0x0\n      keccak256\n      sload\n        /* \"Project-1-AuctionPlatform/AuctionPlatform.sol\":4580:4611  aucOwners[msg.sender] != _aucId */\n      eq\n      iszero\n        /* \"Project-1-AuctionPlatform/AuctionPlatform.sol\":4572:4640  require(aucOwners[msg.sender] != _aucId, \"Can't bid on own Auction\") */\n      iszero\n      iszero\n      tag_124\n      jumpi\n      mload(0x40)\n      0x8c379a000000000000000000000000000000000000000000000000000000000\n      dup2\n      mstore\n      0x4\n      add\n      dup1\n      dup1\n      0x20\n      add\n      dup3\n      dup2\n      sub\n      dup3\n      mstore\n      0x18\n      dup2\n      mstore\n      0x20\n      add\n      dup1\n      0x43616e277420626964206f6e206f776e2041756374696f6e0000000000000000\n      dup2\n      mstore\n      pop\n      0x20\n      add\n      swap2\n      pop\n      pop\n      mload(0x40)\n      dup1\n      swap2\n      sub\n      swap1\n      revert\n    tag_124:\n        /* \"Project-1-AuctionPlatform/AuctionPlatform.sol\":4795:4806  auctionList */\n      0x1\n        /* \"Project-1-AuctionPlatform/AuctionPlatform.sol\":4807:4813  _aucId */\n      dup4\n        /* \"Project-1-AuctionPlatform/AuctionPlatform.sol\":4795:4814  auctionList[_aucId] */\n      0x65\n      dup2\n      lt\n      iszero\n      iszero\n      tag_125\n      jumpi\n      invalid\n    tag_125:\n      add\n      0x0\n      swap1\n      sload\n      swap1\n      0x100\n      exp\n      swap1\n      div\n      0xffffffffffffffffffffffffffffffffffffffff\n      and\n        /* \"Project-1-AuctionPlatform/AuctionPlatform.sol\":4795:4824  auctionList[_aucId].createBid */\n      0xffffffffffffffffffffffffffffffffffffffff\n      and\n      0x659dd2b4\n        /* \"Project-1-AuctionPlatform/AuctionPlatform.sol\":4825:4832  _bidVal */\n      dup4\n        /* \"Project-1-AuctionPlatform/AuctionPlatform.sol\":4795:4833  auctionList[_aucId].createBid(_bidVal) */\n      mload(0x40)\n      dup3\n      0xffffffff\n      and\n      0x100000000000000000000000000000000000000000000000000000000\n      mul\n      dup2\n      mstore\n      0x4\n      add\n      dup1\n      dup3\n      dup2\n      mstore\n      0x20\n      add\n      swap2\n      pop\n      pop\n      0x0\n      mload(0x40)\n      dup1\n      dup4\n      sub\n      dup2\n      0x0\n      dup8\n      dup1\n      extcodesize\n      iszero\n        /* \"--CODEGEN--\":8:17   */\n      dup1\n        /* \"--CODEGEN--\":5:7   */\n      iszero\n      tag_127\n      jumpi\n        /* \"--CODEGEN--\":30:31   */\n      0x0\n        /* \"--CODEGEN--\":27:28   */\n      dup1\n        /* \"--CODEGEN--\":20:32   */\n      revert\n        /* \"--CODEGEN--\":5:7   */\n    tag_127:\n        /* \"Project-1-AuctionPlatform/AuctionPlatform.sol\":4795:4833  auctionList[_aucId].createBid(_bidVal) */\n      pop\n      gas\n      call\n      iszero\n        /* \"--CODEGEN--\":8:17   */\n      dup1\n        /* \"--CODEGEN--\":5:7   */\n      iszero\n      tag_128\n      jumpi\n        /* \"--CODEGEN--\":45:61   */\n      returndatasize\n        /* \"--CODEGEN--\":42:43   */\n      0x0\n        /* \"--CODEGEN--\":39:40   */\n      dup1\n        /* \"--CODEGEN--\":24:62   */\n      returndatacopy\n        /* \"--CODEGEN--\":77:93   */\n      returndatasize\n        /* \"--CODEGEN--\":74:75   */\n      0x0\n        /* \"--CODEGEN--\":67:94   */\n      revert\n        /* \"--CODEGEN--\":5:7   */\n    tag_128:\n        /* \"Project-1-AuctionPlatform/AuctionPlatform.sol\":4795:4833  auctionList[_aucId].createBid(_bidVal) */\n      pop\n      pop\n      pop\n      pop\n        /* \"Project-1-AuctionPlatform/AuctionPlatform.sol\":4933:4942  bidOwners */\n      0x67\n        /* \"Project-1-AuctionPlatform/AuctionPlatform.sol\":4933:4954  bidOwners[msg.sender] */\n      0x0\n        /* \"Project-1-AuctionPlatform/AuctionPlatform.sol\":4943:4953  msg.sender */\n      caller\n        /* \"Project-1-AuctionPlatform/AuctionPlatform.sol\":4933:4954  bidOwners[msg.sender] */\n      0xffffffffffffffffffffffffffffffffffffffff\n      and\n      0xffffffffffffffffffffffffffffffffffffffff\n      and\n      dup2\n      mstore\n      0x20\n      add\n      swap1\n      dup2\n      mstore\n      0x20\n      add\n      0x0\n      keccak256\n        /* \"Project-1-AuctionPlatform/AuctionPlatform.sol\":4960:4966  _aucId */\n      dup4\n        /* \"Project-1-AuctionPlatform/AuctionPlatform.sol\":4933:4967  bidOwners[msg.sender].push(_aucId) */\n      swap1\n      dup1\n        /* \"--CODEGEN--\":39:40   */\n      0x1\n        /* \"--CODEGEN--\":33:36   */\n      dup2\n        /* \"--CODEGEN--\":27:37   */\n      sload\n        /* \"--CODEGEN--\":23:41   */\n      add\n        /* \"--CODEGEN--\":57:67   */\n      dup1\n        /* \"--CODEGEN--\":52:55   */\n      dup3\n        /* \"--CODEGEN--\":45:68   */\n      sstore\n        /* \"--CODEGEN--\":79:89   */\n      dup1\n        /* \"--CODEGEN--\":72:89   */\n      swap2\n      pop\n        /* \"--CODEGEN--\":0:93   */\n      pop\n        /* \"Project-1-AuctionPlatform/AuctionPlatform.sol\":4933:4967  bidOwners[msg.sender].push(_aucId) */\n      swap1\n      0x1\n      dup3\n      sub\n      swap1\n      0x0\n      mstore\n      keccak256(0x0, 0x20)\n      add\n      0x0\n      swap1\n      swap2\n      swap3\n      swap1\n      swap2\n      swap1\n      swap2\n      pop\n      sstore\n      pop\n        /* \"Project-1-AuctionPlatform/AuctionPlatform.sol\":5011:5017  _aucId */\n      dup3\n        /* \"Project-1-AuctionPlatform/AuctionPlatform.sol\":4999:5009  msg.sender */\n      caller\n        /* \"Project-1-AuctionPlatform/AuctionPlatform.sol\":4983:5018  biddedOnAuction(msg.sender, _aucId) */\n      0xffffffffffffffffffffffffffffffffffffffff\n      and\n      0x248176d18d0b2664c1964de940d9d88115d4d632e9047ec131dc7cfd5b41535e\n      mload(0x40)\n      mload(0x40)\n      dup1\n      swap2\n      sub\n      swap1\n      log3\n        /* \"Project-1-AuctionPlatform/AuctionPlatform.sol\":4152:5025  function bidOnAuction(uint256 _aucId, uint256 _bidVal)... */\n      pop\n      pop\n      pop\n      jump\t// out\n        /* \"Project-1-AuctionPlatform/AuctionPlatform.sol\":3797:4073  function endAuction(uint256 _bid) public ifAuctionOwner {... */\n    tag_33:\n        /* \"Project-1-AuctionPlatform/AuctionPlatform.sol\":3929:3943  address winner */\n      0x0\n        /* \"Project-1-AuctionPlatform/AuctionPlatform.sol\":8814:8815  0 */\n      dup1\n        /* \"Project-1-AuctionPlatform/AuctionPlatform.sol\":8789:8798  aucOwners */\n      0x66\n        /* \"Project-1-AuctionPlatform/AuctionPlatform.sol\":8789:8810  aucOwners[msg.sender] */\n      0x0\n        /* \"Project-1-AuctionPlatform/AuctionPlatform.sol\":8799:8809  msg.sender */\n      caller\n        /* \"Project-1-AuctionPlatform/AuctionPlatform.sol\":8789:8810  aucOwners[msg.sender] */\n      0xffffffffffffffffffffffffffffffffffffffff\n      and\n      0xffffffffffffffffffffffffffffffffffffffff\n      and\n      dup2\n      mstore\n      0x20\n      add\n      swap1\n      dup2\n      mstore\n      0x20\n      add\n      0x0\n      keccak256\n      sload\n        /* \"Project-1-AuctionPlatform/AuctionPlatform.sol\":8789:8815  aucOwners[msg.sender] != 0 */\n      eq\n      iszero\n        /* \"Project-1-AuctionPlatform/AuctionPlatform.sol\":8781:8852  require(aucOwners[msg.sender] != 0, \"You haven't created any Auctions\") */\n      iszero\n      iszero\n      tag_131\n      jumpi\n      mload(0x40)\n      0x8c379a000000000000000000000000000000000000000000000000000000000\n      dup2\n      mstore\n      0x4\n      add\n      dup1\n      dup1\n      0x20\n      add\n      dup3\n      dup2\n      sub\n      dup3\n      mstore\n      0x20\n      dup2\n      mstore\n      0x20\n      add\n      dup1\n      0x596f7520686176656e2774206372656174656420616e792041756374696f6e73\n      dup2\n      mstore\n      pop\n      0x20\n      add\n      swap2\n      pop\n      pop\n      mload(0x40)\n      dup1\n      swap2\n      sub\n      swap1\n      revert\n    tag_131:\n        /* \"Project-1-AuctionPlatform/AuctionPlatform.sol\":3946:3957  auctionList */\n      0x1\n        /* \"Project-1-AuctionPlatform/AuctionPlatform.sol\":3958:3967  aucOwners */\n      0x66\n        /* \"Project-1-AuctionPlatform/AuctionPlatform.sol\":3958:3979  aucOwners[msg.sender] */\n      0x0\n        /* \"Project-1-AuctionPlatform/AuctionPlatform.sol\":3968:3978  msg.sender */\n      caller\n        /* \"Project-1-AuctionPlatform/AuctionPlatform.sol\":3958:3979  aucOwners[msg.sender] */\n      0xffffffffffffffffffffffffffffffffffffffff\n      and\n      0xffffffffffffffffffffffffffffffffffffffff\n      and\n      dup2\n      mstore\n      0x20\n      add\n      swap1\n      dup2\n      mstore\n      0x20\n      add\n      0x0\n      keccak256\n      sload\n        /* \"Project-1-AuctionPlatform/AuctionPlatform.sol\":3946:3980  auctionList[aucOwners[msg.sender]] */\n      0x65\n      dup2\n      lt\n      iszero\n      iszero\n      tag_133\n      jumpi\n      invalid\n    tag_133:\n      add\n      0x0\n      swap1\n      sload\n      swap1\n      0x100\n      exp\n      swap1\n      div\n      0xffffffffffffffffffffffffffffffffffffffff\n      and\n        /* \"Project-1-AuctionPlatform/AuctionPlatform.sol\":3946:4019  auctionList[aucOwners[msg.sender]]... */\n      0xffffffffffffffffffffffffffffffffffffffff\n      and\n      0xdee37a8e\n        /* \"Project-1-AuctionPlatform/AuctionPlatform.sol\":4020:4024  _bid */\n      dup4\n        /* \"Project-1-AuctionPlatform/AuctionPlatform.sol\":3946:4025  auctionList[aucOwners[msg.sender]]... */\n      mload(0x40)\n      dup3\n      0xffffffff\n      and\n      0x100000000000000000000000000000000000000000000000000000000\n      mul\n      dup2\n      mstore\n      0x4\n      add\n      dup1\n      dup3\n      dup2\n      mstore\n      0x20\n      add\n      swap2\n      pop\n      pop\n      0x20\n      mload(0x40)\n      dup1\n      dup4\n      sub\n      dup2\n      0x0\n      dup8\n      dup1\n      extcodesize\n      iszero\n        /* \"--CODEGEN--\":8:17   */\n      dup1\n        /* \"--CODEGEN--\":5:7   */\n      iszero\n      tag_135\n      jumpi\n        /* \"--CODEGEN--\":30:31   */\n      0x0\n        /* \"--CODEGEN--\":27:28   */\n      dup1\n        /* \"--CODEGEN--\":20:32   */\n      revert\n        /* \"--CODEGEN--\":5:7   */\n    tag_135:\n        /* \"Project-1-AuctionPlatform/AuctionPlatform.sol\":3946:4025  auctionList[aucOwners[msg.sender]]... */\n      pop\n      gas\n      call\n      iszero\n        /* \"--CODEGEN--\":8:17   */\n      dup1\n        /* \"--CODEGEN--\":5:7   */\n      iszero\n      tag_136\n      jumpi\n        /* \"--CODEGEN--\":45:61   */\n      returndatasize\n        /* \"--CODEGEN--\":42:43   */\n      0x0\n        /* \"--CODEGEN--\":39:40   */\n      dup1\n        /* \"--CODEGEN--\":24:62   */\n      returndatacopy\n        /* \"--CODEGEN--\":77:93   */\n      returndatasize\n        /* \"--CODEGEN--\":74:75   */\n      0x0\n        /* \"--CODEGEN--\":67:94   */\n      revert\n        /* \"--CODEGEN--\":5:7   */\n    tag_136:\n        /* \"Project-1-AuctionPlatform/AuctionPlatform.sol\":3946:4025  auctionList[aucOwners[msg.sender]]... */\n      pop\n      pop\n      pop\n      pop\n      mload(0x40)\n      returndatasize\n        /* \"--CODEGEN--\":13:15   */\n      0x20\n        /* \"--CODEGEN--\":8:11   */\n      dup2\n        /* \"--CODEGEN--\":5:16   */\n      lt\n        /* \"--CODEGEN--\":2:4   */\n      iszero\n      tag_137\n      jumpi\n        /* \"--CODEGEN--\":29:30   */\n      0x0\n        /* \"--CODEGEN--\":26:27   */\n      dup1\n        /* \"--CODEGEN--\":19:31   */\n      revert\n        /* \"--CODEGEN--\":2:4   */\n    tag_137:\n        /* \"Project-1-AuctionPlatform/AuctionPlatform.sol\":3946:4025  auctionList[aucOwners[msg.sender]]... */\n      dup2\n      add\n      swap1\n      dup1\n      dup1\n      mload\n      swap1\n      0x20\n      add\n      swap1\n      swap3\n      swap2\n      swap1\n      pop\n      pop\n      pop\n        /* \"Project-1-AuctionPlatform/AuctionPlatform.sol\":3929:4025  address winner = auctionList[aucOwners[msg.sender]]... */\n      swap1\n      pop\n        /* \"Project-1-AuctionPlatform/AuctionPlatform.sol\":4061:4065  _bid */\n      dup2\n        /* \"Project-1-AuctionPlatform/AuctionPlatform.sol\":4053:4059  winner */\n      dup2\n        /* \"Project-1-AuctionPlatform/AuctionPlatform.sol\":4040:4066  auctionEnded(winner, _bid) */\n      0xffffffffffffffffffffffffffffffffffffffff\n      and\n      0x6e0e2174dbf7b77c08b6f9a2799b9feda84a6d54a5644864582040100a47d4c5\n      mload(0x40)\n      mload(0x40)\n      dup1\n      swap2\n      sub\n      swap1\n      log3\n        /* \"Project-1-AuctionPlatform/AuctionPlatform.sol\":3797:4073  function endAuction(uint256 _bid) public ifAuctionOwner {... */\n      pop\n      pop\n      jump\t// out\n        /* \"Project-1-AuctionPlatform/AuctionPlatform.sol\":1831:1945  function getListOfOwnBids() public view ifBidded returns (uint256[]) {... */\n    tag_36:\n        /* \"Project-1-AuctionPlatform/AuctionPlatform.sol\":1889:1898  uint256[] */\n      0x60\n        /* \"Project-1-AuctionPlatform/AuctionPlatform.sol\":9001:9002  0 */\n      0x0\n        /* \"Project-1-AuctionPlatform/AuctionPlatform.sol\":8969:8978  bidOwners */\n      0x67\n        /* \"Project-1-AuctionPlatform/AuctionPlatform.sol\":8969:8990  bidOwners[msg.sender] */\n      0x0\n        /* \"Project-1-AuctionPlatform/AuctionPlatform.sol\":8979:8989  msg.sender */\n      caller\n        /* \"Project-1-AuctionPlatform/AuctionPlatform.sol\":8969:8990  bidOwners[msg.sender] */\n      0xffffffffffffffffffffffffffffffffffffffff\n      and\n      0xffffffffffffffffffffffffffffffffffffffff\n      and\n      dup2\n      mstore\n      0x20\n      add\n      swap1\n      dup2\n      mstore\n      0x20\n      add\n      0x0\n      keccak256\n        /* \"Project-1-AuctionPlatform/AuctionPlatform.sol\":8969:8997  bidOwners[msg.sender].length */\n      dup1\n      sload\n      swap1\n      pop\n        /* \"Project-1-AuctionPlatform/AuctionPlatform.sol\":8969:9002  bidOwners[msg.sender].length != 0 */\n      eq\n      iszero\n        /* \"Project-1-AuctionPlatform/AuctionPlatform.sol\":8961:9030  require(bidOwners[msg.sender].length != 0, \"You don't have any Bids\") */\n      iszero\n      iszero\n      tag_139\n      jumpi\n      mload(0x40)\n      0x8c379a000000000000000000000000000000000000000000000000000000000\n      dup2\n      mstore\n      0x4\n      add\n      dup1\n      dup1\n      0x20\n      add\n      dup3\n      dup2\n      sub\n      dup3\n      mstore\n      0x17\n      dup2\n      mstore\n      0x20\n      add\n      dup1\n      0x596f7520646f6e2774206861766520616e792042696473000000000000000000\n      dup2\n      mstore\n      pop\n      0x20\n      add\n      swap2\n      pop\n      pop\n      mload(0x40)\n      dup1\n      swap2\n      sub\n      swap1\n      revert\n    tag_139:\n        /* \"Project-1-AuctionPlatform/AuctionPlatform.sol\":1917:1926  bidOwners */\n      0x67\n        /* \"Project-1-AuctionPlatform/AuctionPlatform.sol\":1917:1938  bidOwners[msg.sender] */\n      0x0\n        /* \"Project-1-AuctionPlatform/AuctionPlatform.sol\":1927:1937  msg.sender */\n      caller\n        /* \"Project-1-AuctionPlatform/AuctionPlatform.sol\":1917:1938  bidOwners[msg.sender] */\n      0xffffffffffffffffffffffffffffffffffffffff\n      and\n      0xffffffffffffffffffffffffffffffffffffffff\n      and\n      dup2\n      mstore\n      0x20\n      add\n      swap1\n      dup2\n      mstore\n      0x20\n      add\n      0x0\n      keccak256\n        /* \"Project-1-AuctionPlatform/AuctionPlatform.sol\":1910:1938  return bidOwners[msg.sender] */\n      dup1\n      sload\n      dup1\n      0x20\n      mul\n      0x20\n      add\n      mload(0x40)\n      swap1\n      dup2\n      add\n      0x40\n      mstore\n      dup1\n      swap3\n      swap2\n      swap1\n      dup2\n      dup2\n      mstore\n      0x20\n      add\n      dup3\n      dup1\n      sload\n      dup1\n      iszero\n      tag_141\n      jumpi\n      0x20\n      mul\n      dup3\n      add\n      swap2\n      swap1\n      0x0\n      mstore\n      keccak256(0x0, 0x20)\n      swap1\n    tag_142:\n      dup2\n      sload\n      dup2\n      mstore\n      0x20\n      add\n      swap1\n      0x1\n      add\n      swap1\n      dup1\n      dup4\n      gt\n      tag_142\n      jumpi\n    tag_141:\n      pop\n      pop\n      pop\n      pop\n      pop\n      swap1\n      pop\n        /* \"Project-1-AuctionPlatform/AuctionPlatform.sol\":1831:1945  function getListOfOwnBids() public view ifBidded returns (uint256[]) {... */\n      swap1\n      jump\t// out\n        /* \"Project-1-AuctionPlatform/AuctionPlatform.sol\":5306:7885  function createAuction(... */\n    tag_42:\n        /* \"Project-1-AuctionPlatform/AuctionPlatform.sol\":6663:6681  uint256 start_time */\n      0x0\n        /* \"Project-1-AuctionPlatform/AuctionPlatform.sol\":6834:6850  uint256 end_time */\n      dup1\n        /* \"Project-1-AuctionPlatform/AuctionPlatform.sol\":7406:7419  Auction TempA */\n      0x0\n        /* \"Project-1-AuctionPlatform/AuctionPlatform.sol\":8594:8595  0 */\n      dup1\n        /* \"Project-1-AuctionPlatform/AuctionPlatform.sol\":8569:8578  aucOwners */\n      0x66\n        /* \"Project-1-AuctionPlatform/AuctionPlatform.sol\":8569:8590  aucOwners[msg.sender] */\n      0x0\n        /* \"Project-1-AuctionPlatform/AuctionPlatform.sol\":8579:8589  msg.sender */\n      caller\n        /* \"Project-1-AuctionPlatform/AuctionPlatform.sol\":8569:8590  aucOwners[msg.sender] */\n      0xffffffffffffffffffffffffffffffffffffffff\n      and\n      0xffffffffffffffffffffffffffffffffffffffff\n      and\n      dup2\n      mstore\n      0x20\n      add\n      swap1\n      dup2\n      mstore\n      0x20\n      add\n      0x0\n      keccak256\n      sload\n        /* \"Project-1-AuctionPlatform/AuctionPlatform.sol\":8569:8595  aucOwners[msg.sender] == 0 */\n      eq\n        /* \"Project-1-AuctionPlatform/AuctionPlatform.sol\":8548:8656  require(... */\n      iszero\n      iszero\n      tag_144\n      jumpi\n      mload(0x40)\n      0x8c379a000000000000000000000000000000000000000000000000000000000\n      dup2\n      mstore\n      0x4\n      add\n      dup1\n      dup1\n      0x20\n      add\n      dup3\n      dup2\n      sub\n      dup3\n      mstore\n      0x23\n      dup2\n      mstore\n      0x20\n      add\n      dup1\n      0x596f75206861766520616c7265616479206372656174656420616e2041756374\n      dup2\n      mstore\n      0x20\n      add\n      0x696f6e0000000000000000000000000000000000000000000000000000000000\n      dup2\n      mstore\n      pop\n      0x40\n      add\n      swap2\n      pop\n      pop\n      mload(0x40)\n      dup1\n      swap2\n      sub\n      swap1\n      revert\n    tag_144:\n        /* \"Project-1-AuctionPlatform/AuctionPlatform.sol\":6001:6211  BokkyPooBahsDateTimeLibrary.isValidDateTime(... */\n      tag_146\n        /* \"Project-1-AuctionPlatform/AuctionPlatform.sol\":6062:6076  _startTimeYear */\n      dup11\n        /* \"Project-1-AuctionPlatform/AuctionPlatform.sol\":6094:6109  _startTimeMonth */\n      dup11\n        /* \"Project-1-AuctionPlatform/AuctionPlatform.sol\":6127:6140  _startTimeDay */\n      dup11\n        /* \"Project-1-AuctionPlatform/AuctionPlatform.sol\":6158:6159  0 */\n      0x0\n        /* \"Project-1-AuctionPlatform/AuctionPlatform.sol\":6177:6178  0 */\n      dup1\n        /* \"Project-1-AuctionPlatform/AuctionPlatform.sol\":6196:6197  0 */\n      0x0\n        /* \"Project-1-AuctionPlatform/AuctionPlatform.sol\":6001:6044  BokkyPooBahsDateTimeLibrary.isValidDateTime */\n      tag_147\n        /* \"Project-1-AuctionPlatform/AuctionPlatform.sol\":6001:6211  BokkyPooBahsDateTimeLibrary.isValidDateTime(... */\n      jump\t// in\n    tag_146:\n        /* \"Project-1-AuctionPlatform/AuctionPlatform.sol\":5980:6259  require(... */\n      iszero\n      iszero\n      tag_148\n      jumpi\n      mload(0x40)\n      0x8c379a000000000000000000000000000000000000000000000000000000000\n      dup2\n      mstore\n      0x4\n      add\n      dup1\n      dup1\n      0x20\n      add\n      dup3\n      dup2\n      sub\n      dup3\n      mstore\n      0x16\n      dup2\n      mstore\n      0x20\n      add\n      dup1\n      0x456e7465722056616c6964205374617274204461746500000000000000000000\n      dup2\n      mstore\n      pop\n      0x20\n      add\n      swap2\n      pop\n      pop\n      mload(0x40)\n      dup1\n      swap2\n      sub\n      swap1\n      revert\n    tag_148:\n        /* \"Project-1-AuctionPlatform/AuctionPlatform.sol\":6290:6494  BokkyPooBahsDateTimeLibrary.isValidDateTime(... */\n      tag_149\n        /* \"Project-1-AuctionPlatform/AuctionPlatform.sol\":6351:6363  _endTimeYear */\n      dup8\n        /* \"Project-1-AuctionPlatform/AuctionPlatform.sol\":6381:6394  _endTimeMonth */\n      dup8\n        /* \"Project-1-AuctionPlatform/AuctionPlatform.sol\":6412:6423  _endTimeDay */\n      dup8\n        /* \"Project-1-AuctionPlatform/AuctionPlatform.sol\":6441:6442  0 */\n      0x0\n        /* \"Project-1-AuctionPlatform/AuctionPlatform.sol\":6460:6461  0 */\n      dup1\n        /* \"Project-1-AuctionPlatform/AuctionPlatform.sol\":6479:6480  0 */\n      0x0\n        /* \"Project-1-AuctionPlatform/AuctionPlatform.sol\":6290:6333  BokkyPooBahsDateTimeLibrary.isValidDateTime */\n      tag_147\n        /* \"Project-1-AuctionPlatform/AuctionPlatform.sol\":6290:6494  BokkyPooBahsDateTimeLibrary.isValidDateTime(... */\n      jump\t// in\n    tag_149:\n        /* \"Project-1-AuctionPlatform/AuctionPlatform.sol\":6269:6540  require(... */\n      iszero\n      iszero\n      tag_150\n      jumpi\n      mload(0x40)\n      0x8c379a000000000000000000000000000000000000000000000000000000000\n      dup2\n      mstore\n      0x4\n      add\n      dup1\n      dup1\n      0x20\n      add\n      dup3\n      dup2\n      sub\n      dup3\n      mstore\n      0x14\n      dup2\n      mstore\n      0x20\n      add\n      dup1\n      0x456e7465722056616c696420456e642044617465000000000000000000000000\n      dup2\n      mstore\n      pop\n      0x20\n      add\n      swap2\n      pop\n      pop\n      mload(0x40)\n      dup1\n      swap2\n      sub\n      swap1\n      revert\n    tag_150:\n        /* \"Project-1-AuctionPlatform/AuctionPlatform.sol\":6684:6823  BokkyPooBahsDateTimeLibrary.timestampFromDate(... */\n      tag_151\n        /* \"Project-1-AuctionPlatform/AuctionPlatform.sol\":6743:6757  _startTimeYear */\n      dup11\n        /* \"Project-1-AuctionPlatform/AuctionPlatform.sol\":6771:6786  _startTimeMonth */\n      dup11\n        /* \"Project-1-AuctionPlatform/AuctionPlatform.sol\":6800:6813  _startTimeDay */\n      dup11\n        /* \"Project-1-AuctionPlatform/AuctionPlatform.sol\":6684:6729  BokkyPooBahsDateTimeLibrary.timestampFromDate */\n      tag_152\n        /* \"Project-1-AuctionPlatform/AuctionPlatform.sol\":6684:6823  BokkyPooBahsDateTimeLibrary.timestampFromDate(... */\n      jump\t// in\n    tag_151:\n        /* \"Project-1-AuctionPlatform/AuctionPlatform.sol\":6663:6823  uint256 start_time = BokkyPooBahsDateTimeLibrary.timestampFromDate(... */\n      swap3\n      pop\n        /* \"Project-1-AuctionPlatform/AuctionPlatform.sol\":6853:6986  BokkyPooBahsDateTimeLibrary.timestampFromDate(... */\n      tag_153\n        /* \"Project-1-AuctionPlatform/AuctionPlatform.sol\":6912:6924  _endTimeYear */\n      dup8\n        /* \"Project-1-AuctionPlatform/AuctionPlatform.sol\":6938:6951  _endTimeMonth */\n      dup8\n        /* \"Project-1-AuctionPlatform/AuctionPlatform.sol\":6965:6976  _endTimeDay */\n      dup8\n        /* \"Project-1-AuctionPlatform/AuctionPlatform.sol\":6853:6898  BokkyPooBahsDateTimeLibrary.timestampFromDate */\n      tag_152\n        /* \"Project-1-AuctionPlatform/AuctionPlatform.sol\":6853:6986  BokkyPooBahsDateTimeLibrary.timestampFromDate(... */\n      jump\t// in\n    tag_153:\n        /* \"Project-1-AuctionPlatform/AuctionPlatform.sol\":6834:6986  uint256 end_time = BokkyPooBahsDateTimeLibrary.timestampFromDate(... */\n      swap2\n      pop\n        /* \"Project-1-AuctionPlatform/AuctionPlatform.sol\":7126:7136  start_time */\n      dup3\n        /* \"Project-1-AuctionPlatform/AuctionPlatform.sol\":7108:7123  block.timestamp */\n      timestamp\n        /* \"Project-1-AuctionPlatform/AuctionPlatform.sol\":7108:7136  block.timestamp < start_time */\n      lt\n        /* \"Project-1-AuctionPlatform/AuctionPlatform.sol\":7108:7182  block.timestamp < start_time &&... */\n      dup1\n      iszero\n      tag_154\n      jumpi\n      pop\n        /* \"Project-1-AuctionPlatform/AuctionPlatform.sol\":7174:7182  end_time */\n      dup2\n        /* \"Project-1-AuctionPlatform/AuctionPlatform.sol\":7156:7171  block.timestamp */\n      timestamp\n        /* \"Project-1-AuctionPlatform/AuctionPlatform.sol\":7156:7182  block.timestamp < end_time */\n      lt\n        /* \"Project-1-AuctionPlatform/AuctionPlatform.sol\":7108:7182  block.timestamp < start_time &&... */\n    tag_154:\n        /* \"Project-1-AuctionPlatform/AuctionPlatform.sol\":7108:7223  block.timestamp < start_time &&... */\n      dup1\n      iszero\n      tag_155\n      jumpi\n      pop\n        /* \"Project-1-AuctionPlatform/AuctionPlatform.sol\":7215:7223  end_time */\n      dup2\n        /* \"Project-1-AuctionPlatform/AuctionPlatform.sol\":7202:7212  start_time */\n      dup4\n        /* \"Project-1-AuctionPlatform/AuctionPlatform.sol\":7202:7223  start_time < end_time */\n      lt\n        /* \"Project-1-AuctionPlatform/AuctionPlatform.sol\":7108:7223  block.timestamp < start_time &&... */\n    tag_155:\n        /* \"Project-1-AuctionPlatform/AuctionPlatform.sol\":7087:7295  require(... */\n      iszero\n      iszero\n      tag_156\n      jumpi\n      mload(0x40)\n      0x8c379a000000000000000000000000000000000000000000000000000000000\n      dup2\n      mstore\n      0x4\n      add\n      dup1\n      dup1\n      0x20\n      add\n      dup3\n      dup2\n      sub\n      dup3\n      mstore\n      0x2e\n      dup2\n      mstore\n      0x20\n      add\n      dup1\n      0x20506c6561736520656e74657220612076616c696420696e74657276616c2066\n      dup2\n      mstore\n      0x20\n      add\n      0x6f72207468652041756374696f6e000000000000000000000000000000000000\n      dup2\n      mstore\n      pop\n      0x40\n      add\n      swap2\n      pop\n      pop\n      mload(0x40)\n      dup1\n      swap2\n      sub\n      swap1\n      revert\n    tag_156:\n        /* \"Project-1-AuctionPlatform/AuctionPlatform.sol\":7322:7323  1 */\n      0x1\n        /* \"Project-1-AuctionPlatform/AuctionPlatform.sol\":7314:7319  aucId */\n      sload(0x0)\n        /* \"Project-1-AuctionPlatform/AuctionPlatform.sol\":7314:7323  aucId + 1 */\n      add\n        /* \"Project-1-AuctionPlatform/AuctionPlatform.sol\":7306:7311  aucId */\n      0x0\n        /* \"Project-1-AuctionPlatform/AuctionPlatform.sol\":7306:7323  aucId = aucId + 1 */\n      dup2\n      swap1\n      sstore\n      pop\n        /* \"Project-1-AuctionPlatform/AuctionPlatform.sol\":7447:7459  _description */\n      dup11\n        /* \"Project-1-AuctionPlatform/AuctionPlatform.sol\":7473:7483  start_time */\n      dup4\n        /* \"Project-1-AuctionPlatform/AuctionPlatform.sol\":7497:7505  end_time */\n      dup4\n        /* \"Project-1-AuctionPlatform/AuctionPlatform.sol\":7519:7529  _minBidVal */\n      dup7\n        /* \"Project-1-AuctionPlatform/AuctionPlatform.sol\":7422:7539  new Auction(... */\n      tag_157\n      jump\t// in(tag_158)\n    tag_157:\n      dup1\n      dup1\n      0x20\n      add\n      dup6\n      dup2\n      mstore\n      0x20\n      add\n      dup5\n      dup2\n      mstore\n      0x20\n      add\n      dup4\n      dup2\n      mstore\n      0x20\n      add\n      dup3\n      dup2\n      sub\n      dup3\n      mstore\n      dup7\n      dup2\n      dup2\n      mload\n      dup2\n      mstore\n      0x20\n      add\n      swap2\n      pop\n      dup1\n      mload\n      swap1\n      0x20\n      add\n      swap1\n      dup1\n      dup4\n      dup4\n        /* \"--CODEGEN--\":23:24   */\n      0x0\n        /* \"--CODEGEN--\":8:108   */\n    tag_159:\n        /* \"--CODEGEN--\":33:36   */\n      dup4\n        /* \"--CODEGEN--\":30:31   */\n      dup2\n        /* \"--CODEGEN--\":27:37   */\n      lt\n        /* \"--CODEGEN--\":8:108   */\n      iszero\n      tag_160\n      jumpi\n        /* \"--CODEGEN--\":99:100   */\n      dup1\n        /* \"--CODEGEN--\":94:97   */\n      dup3\n        /* \"--CODEGEN--\":90:101   */\n      add\n        /* \"--CODEGEN--\":84:102   */\n      mload\n        /* \"--CODEGEN--\":80:81   */\n      dup2\n        /* \"--CODEGEN--\":75:78   */\n      dup5\n        /* \"--CODEGEN--\":71:82   */\n      add\n        /* \"--CODEGEN--\":64:103   */\n      mstore\n        /* \"--CODEGEN--\":52:54   */\n      0x20\n        /* \"--CODEGEN--\":49:50   */\n      dup2\n        /* \"--CODEGEN--\":45:55   */\n      add\n        /* \"--CODEGEN--\":40:55   */\n      swap1\n      pop\n        /* \"--CODEGEN--\":8:108   */\n      jump(tag_159)\n    tag_160:\n        /* \"--CODEGEN--\":12:26   */\n      pop\n        /* \"Project-1-AuctionPlatform/AuctionPlatform.sol\":7422:7539  new Auction(... */\n      pop\n      pop\n      pop\n      swap1\n      pop\n      swap1\n      dup2\n      add\n      swap1\n      0x1f\n      and\n      dup1\n      iszero\n      tag_162\n      jumpi\n      dup1\n      dup3\n      sub\n      dup1\n      mload\n      0x1\n      dup4\n      0x20\n      sub\n      0x100\n      exp\n      sub\n      not\n      and\n      dup2\n      mstore\n      0x20\n      add\n      swap2\n      pop\n    tag_162:\n      pop\n      swap6\n      pop\n      pop\n      pop\n      pop\n      pop\n      pop\n      mload(0x40)\n      dup1\n      swap2\n      sub\n      swap1\n      0x0\n      create\n      dup1\n      iszero\n        /* \"--CODEGEN--\":8:17   */\n      dup1\n        /* \"--CODEGEN--\":5:7   */\n      iszero\n      tag_163\n      jumpi\n        /* \"--CODEGEN--\":45:61   */\n      returndatasize\n        /* \"--CODEGEN--\":42:43   */\n      0x0\n        /* \"--CODEGEN--\":39:40   */\n      dup1\n        /* \"--CODEGEN--\":24:62   */\n      returndatacopy\n        /* \"--CODEGEN--\":77:93   */\n      returndatasize\n        /* \"--CODEGEN--\":74:75   */\n      0x0\n        /* \"--CODEGEN--\":67:94   */\n      revert\n        /* \"--CODEGEN--\":5:7   */\n    tag_163:\n        /* \"Project-1-AuctionPlatform/AuctionPlatform.sol\":7422:7539  new Auction(... */\n      pop\n        /* \"Project-1-AuctionPlatform/AuctionPlatform.sol\":7406:7539  Auction TempA = new Auction(... */\n      swap1\n      pop\n        /* \"Project-1-AuctionPlatform/AuctionPlatform.sol\":7619:7624  TempA */\n      dup1\n        /* \"Project-1-AuctionPlatform/AuctionPlatform.sol\":7598:7609  auctionList */\n      0x1\n        /* \"Project-1-AuctionPlatform/AuctionPlatform.sol\":7610:7615  aucId */\n      sload(0x0)\n        /* \"Project-1-AuctionPlatform/AuctionPlatform.sol\":7598:7616  auctionList[aucId] */\n      0x65\n      dup2\n      lt\n      iszero\n      iszero\n      tag_164\n      jumpi\n      invalid\n    tag_164:\n      add\n      0x0\n        /* \"Project-1-AuctionPlatform/AuctionPlatform.sol\":7598:7624  auctionList[aucId] = TempA */\n      0x100\n      exp\n      dup2\n      sload\n      dup2\n      0xffffffffffffffffffffffffffffffffffffffff\n      mul\n      not\n      and\n      swap1\n      dup4\n      0xffffffffffffffffffffffffffffffffffffffff\n      and\n      mul\n      or\n      swap1\n      sstore\n      pop\n        /* \"Project-1-AuctionPlatform/AuctionPlatform.sol\":7718:7723  aucId */\n      sload(0x0)\n        /* \"Project-1-AuctionPlatform/AuctionPlatform.sol\":7694:7703  aucOwners */\n      0x66\n        /* \"Project-1-AuctionPlatform/AuctionPlatform.sol\":7694:7715  aucOwners[msg.sender] */\n      0x0\n        /* \"Project-1-AuctionPlatform/AuctionPlatform.sol\":7704:7714  msg.sender */\n      caller\n        /* \"Project-1-AuctionPlatform/AuctionPlatform.sol\":7694:7715  aucOwners[msg.sender] */\n      0xffffffffffffffffffffffffffffffffffffffff\n      and\n      0xffffffffffffffffffffffffffffffffffffffff\n      and\n      dup2\n      mstore\n      0x20\n      add\n      swap1\n      dup2\n      mstore\n      0x20\n      add\n      0x0\n      keccak256\n        /* \"Project-1-AuctionPlatform/AuctionPlatform.sol\":7694:7723  aucOwners[msg.sender] = aucId */\n      dup2\n      swap1\n      sstore\n      pop\n        /* \"Project-1-AuctionPlatform/AuctionPlatform.sol\":7850:7865  block.timestamp */\n      timestamp\n        /* \"Project-1-AuctionPlatform/AuctionPlatform.sol\":7843:7848  aucId */\n      sload(0x0)\n        /* \"Project-1-AuctionPlatform/AuctionPlatform.sol\":7828:7878  auctionCreated(aucId, block.timestamp, msg.sender) */\n      0x737a59893603ef25305aef11ac201c15bb5fa4f4195223c5dd69109857781504\n        /* \"Project-1-AuctionPlatform/AuctionPlatform.sol\":7867:7877  msg.sender */\n      caller\n        /* \"Project-1-AuctionPlatform/AuctionPlatform.sol\":7828:7878  auctionCreated(aucId, block.timestamp, msg.sender) */\n      mload(0x40)\n      dup1\n      dup3\n      0xffffffffffffffffffffffffffffffffffffffff\n      and\n      0xffffffffffffffffffffffffffffffffffffffff\n      and\n      dup2\n      mstore\n      0x20\n      add\n      swap2\n      pop\n      pop\n      mload(0x40)\n      dup1\n      swap2\n      sub\n      swap1\n      log3\n        /* \"Project-1-AuctionPlatform/AuctionPlatform.sol\":5306:7885  function createAuction(... */\n      pop\n      pop\n      pop\n      pop\n      pop\n      pop\n      pop\n      pop\n      pop\n      pop\n      pop\n      jump\t// out\n        /* \"Project-1-AuctionPlatform/AuctionPlatform.sol\":1521:1731  function getListOfBidsOnAuction()... */\n    tag_45:\n        /* \"Project-1-AuctionPlatform/AuctionPlatform.sol\":1642:1651  uint256[] */\n      0x60\n        /* \"Project-1-AuctionPlatform/AuctionPlatform.sol\":8814:8815  0 */\n      0x0\n        /* \"Project-1-AuctionPlatform/AuctionPlatform.sol\":8789:8798  aucOwners */\n      0x66\n        /* \"Project-1-AuctionPlatform/AuctionPlatform.sol\":8789:8810  aucOwners[msg.sender] */\n      0x0\n        /* \"Project-1-AuctionPlatform/AuctionPlatform.sol\":8799:8809  msg.sender */\n      caller\n        /* \"Project-1-AuctionPlatform/AuctionPlatform.sol\":8789:8810  aucOwners[msg.sender] */\n      0xffffffffffffffffffffffffffffffffffffffff\n      and\n      0xffffffffffffffffffffffffffffffffffffffff\n      and\n      dup2\n      mstore\n      0x20\n      add\n      swap1\n      dup2\n      mstore\n      0x20\n      add\n      0x0\n      keccak256\n      sload\n        /* \"Project-1-AuctionPlatform/AuctionPlatform.sol\":8789:8815  aucOwners[msg.sender] != 0 */\n      eq\n      iszero\n        /* \"Project-1-AuctionPlatform/AuctionPlatform.sol\":8781:8852  require(aucOwners[msg.sender] != 0, \"You haven't created any Auctions\") */\n      iszero\n      iszero\n      tag_167\n      jumpi\n      mload(0x40)\n      0x8c379a000000000000000000000000000000000000000000000000000000000\n      dup2\n      mstore\n      0x4\n      add\n      dup1\n      dup1\n      0x20\n      add\n      dup3\n      dup2\n      sub\n      dup3\n      mstore\n      0x20\n      dup2\n      mstore\n      0x20\n      add\n      dup1\n      0x596f7520686176656e2774206372656174656420616e792041756374696f6e73\n      dup2\n      mstore\n      pop\n      0x20\n      add\n      swap2\n      pop\n      pop\n      mload(0x40)\n      dup1\n      swap2\n      sub\n      swap1\n      revert\n    tag_167:\n        /* \"Project-1-AuctionPlatform/AuctionPlatform.sol\":8039:8050  auctionList */\n      0x1\n        /* \"Project-1-AuctionPlatform/AuctionPlatform.sol\":8051:8060  aucOwners */\n      0x66\n        /* \"Project-1-AuctionPlatform/AuctionPlatform.sol\":8051:8072  aucOwners[msg.sender] */\n      0x0\n        /* \"Project-1-AuctionPlatform/AuctionPlatform.sol\":8061:8071  msg.sender */\n      caller\n        /* \"Project-1-AuctionPlatform/AuctionPlatform.sol\":8051:8072  aucOwners[msg.sender] */\n      0xffffffffffffffffffffffffffffffffffffffff\n      and\n      0xffffffffffffffffffffffffffffffffffffffff\n      and\n      dup2\n      mstore\n      0x20\n      add\n      swap1\n      dup2\n      mstore\n      0x20\n      add\n      0x0\n      keccak256\n      sload\n        /* \"Project-1-AuctionPlatform/AuctionPlatform.sol\":8039:8073  auctionList[aucOwners[msg.sender]] */\n      0x65\n      dup2\n      lt\n      iszero\n      iszero\n      tag_169\n      jumpi\n      invalid\n    tag_169:\n      add\n      0x0\n      swap1\n      sload\n      swap1\n      0x100\n      exp\n      swap1\n      div\n      0xffffffffffffffffffffffffffffffffffffffff\n      and\n        /* \"Project-1-AuctionPlatform/AuctionPlatform.sol\":8039:8085  auctionList[aucOwners[msg.sender]].getBidsMade */\n      0xffffffffffffffffffffffffffffffffffffffff\n      and\n      0x409766e6\n        /* \"Project-1-AuctionPlatform/AuctionPlatform.sol\":8039:8087  auctionList[aucOwners[msg.sender]].getBidsMade() */\n      mload(0x40)\n      dup2\n      0xffffffff\n      and\n      0x100000000000000000000000000000000000000000000000000000000\n      mul\n      dup2\n      mstore\n      0x4\n      add\n      0x20\n      mload(0x40)\n      dup1\n      dup4\n      sub\n      dup2\n      0x0\n      dup8\n      dup1\n      extcodesize\n      iszero\n        /* \"--CODEGEN--\":8:17   */\n      dup1\n        /* \"--CODEGEN--\":5:7   */\n      iszero\n      tag_171\n      jumpi\n        /* \"--CODEGEN--\":30:31   */\n      0x0\n        /* \"--CODEGEN--\":27:28   */\n      dup1\n        /* \"--CODEGEN--\":20:32   */\n      revert\n        /* \"--CODEGEN--\":5:7   */\n    tag_171:\n        /* \"Project-1-AuctionPlatform/AuctionPlatform.sol\":8039:8087  auctionList[aucOwners[msg.sender]].getBidsMade() */\n      pop\n      gas\n      call\n      iszero\n        /* \"--CODEGEN--\":8:17   */\n      dup1\n        /* \"--CODEGEN--\":5:7   */\n      iszero\n      tag_172\n      jumpi\n        /* \"--CODEGEN--\":45:61   */\n      returndatasize\n        /* \"--CODEGEN--\":42:43   */\n      0x0\n        /* \"--CODEGEN--\":39:40   */\n      dup1\n        /* \"--CODEGEN--\":24:62   */\n      returndatacopy\n        /* \"--CODEGEN--\":77:93   */\n      returndatasize\n        /* \"--CODEGEN--\":74:75   */\n      0x0\n        /* \"--CODEGEN--\":67:94   */\n      revert\n        /* \"--CODEGEN--\":5:7   */\n    tag_172:\n        /* \"Project-1-AuctionPlatform/AuctionPlatform.sol\":8039:8087  auctionList[aucOwners[msg.sender]].getBidsMade() */\n      pop\n      pop\n      pop\n      pop\n      mload(0x40)\n      returndatasize\n        /* \"--CODEGEN--\":13:15   */\n      0x20\n        /* \"--CODEGEN--\":8:11   */\n      dup2\n        /* \"--CODEGEN--\":5:16   */\n      lt\n        /* \"--CODEGEN--\":2:4   */\n      iszero\n      tag_173\n      jumpi\n        /* \"--CODEGEN--\":29:30   */\n      0x0\n        /* \"--CODEGEN--\":26:27   */\n      dup1\n        /* \"--CODEGEN--\":19:31   */\n      revert\n        /* \"--CODEGEN--\":2:4   */\n    tag_173:\n        /* \"Project-1-AuctionPlatform/AuctionPlatform.sol\":8039:8087  auctionList[aucOwners[msg.sender]].getBidsMade() */\n      dup2\n      add\n      swap1\n      dup1\n      dup1\n      mload\n      swap1\n      0x20\n      add\n      swap1\n      swap3\n      swap2\n      swap1\n      pop\n      pop\n      pop\n        /* \"Project-1-AuctionPlatform/AuctionPlatform.sol\":8018:8149  require(... */\n      iszero\n      iszero\n      tag_174\n      jumpi\n      mload(0x40)\n      0x8c379a000000000000000000000000000000000000000000000000000000000\n      dup2\n      mstore\n      0x4\n      add\n      dup1\n      dup1\n      0x20\n      add\n      dup3\n      dup2\n      sub\n      dup3\n      mstore\n      0x24\n      dup2\n      mstore\n      0x20\n      add\n      dup1\n      0x5468657265206172656e277420616e792062696473206f6e2074686520417563\n      dup2\n      mstore\n      0x20\n      add\n      0x74696f6e00000000000000000000000000000000000000000000000000000000\n      dup2\n      mstore\n      pop\n      0x40\n      add\n      swap2\n      pop\n      pop\n      mload(0x40)\n      dup1\n      swap2\n      sub\n      swap1\n      revert\n    tag_174:\n        /* \"Project-1-AuctionPlatform/AuctionPlatform.sol\":1674:1685  auctionList */\n      0x1\n        /* \"Project-1-AuctionPlatform/AuctionPlatform.sol\":1686:1695  aucOwners */\n      0x66\n        /* \"Project-1-AuctionPlatform/AuctionPlatform.sol\":1686:1707  aucOwners[msg.sender] */\n      0x0\n        /* \"Project-1-AuctionPlatform/AuctionPlatform.sol\":1696:1706  msg.sender */\n      caller\n        /* \"Project-1-AuctionPlatform/AuctionPlatform.sol\":1686:1707  aucOwners[msg.sender] */\n      0xffffffffffffffffffffffffffffffffffffffff\n      and\n      0xffffffffffffffffffffffffffffffffffffffff\n      and\n      dup2\n      mstore\n      0x20\n      add\n      swap1\n      dup2\n      mstore\n      0x20\n      add\n      0x0\n      keccak256\n      sload\n        /* \"Project-1-AuctionPlatform/AuctionPlatform.sol\":1674:1708  auctionList[aucOwners[msg.sender]] */\n      0x65\n      dup2\n      lt\n      iszero\n      iszero\n      tag_176\n      jumpi\n      invalid\n    tag_176:\n      add\n      0x0\n      swap1\n      sload\n      swap1\n      0x100\n      exp\n      swap1\n      div\n      0xffffffffffffffffffffffffffffffffffffffff\n      and\n        /* \"Project-1-AuctionPlatform/AuctionPlatform.sol\":1674:1722  auctionList[aucOwners[msg.sender]].getListOfBids */\n      0xffffffffffffffffffffffffffffffffffffffff\n      and\n      0x679dbf0c\n        /* \"Project-1-AuctionPlatform/AuctionPlatform.sol\":1674:1724  auctionList[aucOwners[msg.sender]].getListOfBids() */\n      mload(0x40)\n      dup2\n      0xffffffff\n      and\n      0x100000000000000000000000000000000000000000000000000000000\n      mul\n      dup2\n      mstore\n      0x4\n      add\n      0x0\n      mload(0x40)\n      dup1\n      dup4\n      sub\n      dup2\n      0x0\n      dup8\n      dup1\n      extcodesize\n      iszero\n        /* \"--CODEGEN--\":8:17   */\n      dup1\n        /* \"--CODEGEN--\":5:7   */\n      iszero\n      tag_178\n      jumpi\n        /* \"--CODEGEN--\":30:31   */\n      0x0\n        /* \"--CODEGEN--\":27:28   */\n      dup1\n        /* \"--CODEGEN--\":20:32   */\n      revert\n        /* \"--CODEGEN--\":5:7   */\n    tag_178:\n        /* \"Project-1-AuctionPlatform/AuctionPlatform.sol\":1674:1724  auctionList[aucOwners[msg.sender]].getListOfBids() */\n      pop\n      gas\n      call\n      iszero\n        /* \"--CODEGEN--\":8:17   */\n      dup1\n        /* \"--CODEGEN--\":5:7   */\n      iszero\n      tag_179\n      jumpi\n        /* \"--CODEGEN--\":45:61   */\n      returndatasize\n        /* \"--CODEGEN--\":42:43   */\n      0x0\n        /* \"--CODEGEN--\":39:40   */\n      dup1\n        /* \"--CODEGEN--\":24:62   */\n      returndatacopy\n        /* \"--CODEGEN--\":77:93   */\n      returndatasize\n        /* \"--CODEGEN--\":74:75   */\n      0x0\n        /* \"--CODEGEN--\":67:94   */\n      revert\n        /* \"--CODEGEN--\":5:7   */\n    tag_179:\n        /* \"Project-1-AuctionPlatform/AuctionPlatform.sol\":1674:1724  auctionList[aucOwners[msg.sender]].getListOfBids() */\n      pop\n      pop\n      pop\n      pop\n      mload(0x40)\n        /* \"--CODEGEN--\":39:55   */\n      returndatasize\n        /* \"--CODEGEN--\":36:37   */\n      0x0\n        /* \"--CODEGEN--\":17:34   */\n      dup3\n        /* \"--CODEGEN--\":2:56   */\n      returndatacopy\n        /* \"Project-1-AuctionPlatform/AuctionPlatform.sol\":1674:1724  auctionList[aucOwners[msg.sender]].getListOfBids() */\n      returndatasize\n        /* \"--CODEGEN--\":101:105   */\n      0x1f\n        /* \"--CODEGEN--\":97:106   */\n      not\n        /* \"--CODEGEN--\":90:94   */\n      0x1f\n        /* \"--CODEGEN--\":84:88   */\n      dup3\n        /* \"--CODEGEN--\":80:95   */\n      add\n        /* \"--CODEGEN--\":76:107   */\n      and\n        /* \"--CODEGEN--\":69:74   */\n      dup3\n        /* \"--CODEGEN--\":65:108   */\n      add\n        /* \"--CODEGEN--\":126:132   */\n      dup1\n        /* \"--CODEGEN--\":120:124   */\n      0x40\n        /* \"--CODEGEN--\":113:133   */\n      mstore\n        /* \"--CODEGEN--\":0:138   */\n      pop\n        /* \"--CODEGEN--\":13:15   */\n      0x20\n        /* \"--CODEGEN--\":8:11   */\n      dup2\n        /* \"--CODEGEN--\":5:16   */\n      lt\n        /* \"--CODEGEN--\":2:4   */\n      iszero\n      tag_180\n      jumpi\n        /* \"--CODEGEN--\":29:30   */\n      0x0\n        /* \"--CODEGEN--\":26:27   */\n      dup1\n        /* \"--CODEGEN--\":19:31   */\n      revert\n        /* \"--CODEGEN--\":2:4   */\n    tag_180:\n        /* \"Project-1-AuctionPlatform/AuctionPlatform.sol\":1674:1724  auctionList[aucOwners[msg.sender]].getListOfBids() */\n      dup2\n      add\n      swap1\n      dup1\n      dup1\n      mload\n        /* \"--CODEGEN--\":20:31   */\n      0x100000000\n        /* \"--CODEGEN--\":15:18   */\n      dup2\n        /* \"--CODEGEN--\":12:32   */\n      gt\n        /* \"--CODEGEN--\":9:11   */\n      iszero\n      tag_181\n      jumpi\n        /* \"--CODEGEN--\":45:46   */\n      0x0\n        /* \"--CODEGEN--\":42:43   */\n      dup1\n        /* \"--CODEGEN--\":35:47   */\n      revert\n        /* \"--CODEGEN--\":9:11   */\n    tag_181:\n        /* \"--CODEGEN--\":73:84   */\n      dup3\n        /* \"--CODEGEN--\":68:71   */\n      dup2\n        /* \"--CODEGEN--\":64:85   */\n      add\n        /* \"--CODEGEN--\":57:85   */\n      swap1\n      pop\n        /* \"--CODEGEN--\":126:130   */\n      0x20\n        /* \"--CODEGEN--\":121:124   */\n      dup2\n        /* \"--CODEGEN--\":117:131   */\n      add\n        /* \"--CODEGEN--\":163:172   */\n      dup5\n        /* \"--CODEGEN--\":145:161   */\n      dup2\n        /* \"--CODEGEN--\":142:173   */\n      gt\n        /* \"--CODEGEN--\":139:141   */\n      iszero\n      tag_182\n      jumpi\n        /* \"--CODEGEN--\":186:187   */\n      0x0\n        /* \"--CODEGEN--\":183:184   */\n      dup1\n        /* \"--CODEGEN--\":176:188   */\n      revert\n        /* \"--CODEGEN--\":139:141   */\n    tag_182:\n        /* \"--CODEGEN--\":224:227   */\n      dup2\n        /* \"--CODEGEN--\":218:228   */\n      mload\n        /* \"--CODEGEN--\":339:348   */\n      dup6\n        /* \"--CODEGEN--\":333:335   */\n      0x20\n        /* \"--CODEGEN--\":319:331   */\n      dup3\n        /* \"--CODEGEN--\":315:336   */\n      mul\n        /* \"--CODEGEN--\":297:313   */\n      dup4\n        /* \"--CODEGEN--\":293:337   */\n      add\n        /* \"--CODEGEN--\":290:349   */\n      gt\n        /* \"--CODEGEN--\":268:279   */\n      0x100000000\n        /* \"--CODEGEN--\":254:266   */\n      dup3\n        /* \"--CODEGEN--\":251:280   */\n      gt\n        /* \"--CODEGEN--\":239:358   */\n      or\n        /* \"--CODEGEN--\":236:238   */\n      iszero\n      tag_183\n      jumpi\n        /* \"--CODEGEN--\":371:372   */\n      0x0\n        /* \"--CODEGEN--\":368:369   */\n      dup1\n        /* \"--CODEGEN--\":361:373   */\n      revert\n        /* \"--CODEGEN--\":236:238   */\n    tag_183:\n        /* \"--CODEGEN--\":0:383   */\n      pop\n      pop\n        /* \"Project-1-AuctionPlatform/AuctionPlatform.sol\":1674:1724  auctionList[aucOwners[msg.sender]].getListOfBids() */\n      swap3\n      swap2\n      swap1\n      pop\n      pop\n      pop\n        /* \"Project-1-AuctionPlatform/AuctionPlatform.sol\":1667:1724  return auctionList[aucOwners[msg.sender]].getListOfBids() */\n      swap1\n      pop\n        /* \"Project-1-AuctionPlatform/AuctionPlatform.sol\":1521:1731  function getListOfBidsOnAuction()... */\n      swap1\n      jump\t// out\n        /* \"Project-1-AuctionPlatform/AuctionPlatform.sol\":3031:3642  function endAuction() public ifAuctionOwner returns (address) {... */\n    tag_51:\n        /* \"Project-1-AuctionPlatform/AuctionPlatform.sol\":3084:3091  address */\n      0x0\n        /* \"Project-1-AuctionPlatform/AuctionPlatform.sol\":3130:3144  uint256 maxBid */\n      dup1\n        /* \"Project-1-AuctionPlatform/AuctionPlatform.sol\":3469:3483  address winner */\n      0x0\n        /* \"Project-1-AuctionPlatform/AuctionPlatform.sol\":8814:8815  0 */\n      dup1\n        /* \"Project-1-AuctionPlatform/AuctionPlatform.sol\":8789:8798  aucOwners */\n      0x66\n        /* \"Project-1-AuctionPlatform/AuctionPlatform.sol\":8789:8810  aucOwners[msg.sender] */\n      0x0\n        /* \"Project-1-AuctionPlatform/AuctionPlatform.sol\":8799:8809  msg.sender */\n      caller\n        /* \"Project-1-AuctionPlatform/AuctionPlatform.sol\":8789:8810  aucOwners[msg.sender] */\n      0xffffffffffffffffffffffffffffffffffffffff\n      and\n      0xffffffffffffffffffffffffffffffffffffffff\n      and\n      dup2\n      mstore\n      0x20\n      add\n      swap1\n      dup2\n      mstore\n      0x20\n      add\n      0x0\n      keccak256\n      sload\n        /* \"Project-1-AuctionPlatform/AuctionPlatform.sol\":8789:8815  aucOwners[msg.sender] != 0 */\n      eq\n      iszero\n        /* \"Project-1-AuctionPlatform/AuctionPlatform.sol\":8781:8852  require(aucOwners[msg.sender] != 0, \"You haven't created any Auctions\") */\n      iszero\n      iszero\n      tag_185\n      jumpi\n      mload(0x40)\n      0x8c379a000000000000000000000000000000000000000000000000000000000\n      dup2\n      mstore\n      0x4\n      add\n      dup1\n      dup1\n      0x20\n      add\n      dup3\n      dup2\n      sub\n      dup3\n      mstore\n      0x20\n      dup2\n      mstore\n      0x20\n      add\n      dup1\n      0x596f7520686176656e2774206372656174656420616e792041756374696f6e73\n      dup2\n      mstore\n      pop\n      0x20\n      add\n      swap2\n      pop\n      pop\n      mload(0x40)\n      dup1\n      swap2\n      sub\n      swap1\n      revert\n    tag_185:\n        /* \"Project-1-AuctionPlatform/AuctionPlatform.sol\":3147:3158  auctionList */\n      0x1\n        /* \"Project-1-AuctionPlatform/AuctionPlatform.sol\":3159:3168  aucOwners */\n      0x66\n        /* \"Project-1-AuctionPlatform/AuctionPlatform.sol\":3159:3180  aucOwners[msg.sender] */\n      0x0\n        /* \"Project-1-AuctionPlatform/AuctionPlatform.sol\":3169:3179  msg.sender */\n      caller\n        /* \"Project-1-AuctionPlatform/AuctionPlatform.sol\":3159:3180  aucOwners[msg.sender] */\n      0xffffffffffffffffffffffffffffffffffffffff\n      and\n      0xffffffffffffffffffffffffffffffffffffffff\n      and\n      dup2\n      mstore\n      0x20\n      add\n      swap1\n      dup2\n      mstore\n      0x20\n      add\n      0x0\n      keccak256\n      sload\n        /* \"Project-1-AuctionPlatform/AuctionPlatform.sol\":3147:3181  auctionList[aucOwners[msg.sender]] */\n      0x65\n      dup2\n      lt\n      iszero\n      iszero\n      tag_187\n      jumpi\n      invalid\n    tag_187:\n      add\n      0x0\n      swap1\n      sload\n      swap1\n      0x100\n      exp\n      swap1\n      div\n      0xffffffffffffffffffffffffffffffffffffffff\n      and\n        /* \"Project-1-AuctionPlatform/AuctionPlatform.sol\":3147:3195  auctionList[aucOwners[msg.sender]].getMaximumBid */\n      0xffffffffffffffffffffffffffffffffffffffff\n      and\n      0xdd06ba1a\n        /* \"Project-1-AuctionPlatform/AuctionPlatform.sol\":3147:3197  auctionList[aucOwners[msg.sender]].getMaximumBid() */\n      mload(0x40)\n      dup2\n      0xffffffff\n      and\n      0x100000000000000000000000000000000000000000000000000000000\n      mul\n      dup2\n      mstore\n      0x4\n      add\n      0x20\n      mload(0x40)\n      dup1\n      dup4\n      sub\n      dup2\n      0x0\n      dup8\n      dup1\n      extcodesize\n      iszero\n        /* \"--CODEGEN--\":8:17   */\n      dup1\n        /* \"--CODEGEN--\":5:7   */\n      iszero\n      tag_189\n      jumpi\n        /* \"--CODEGEN--\":30:31   */\n      0x0\n        /* \"--CODEGEN--\":27:28   */\n      dup1\n        /* \"--CODEGEN--\":20:32   */\n      revert\n        /* \"--CODEGEN--\":5:7   */\n    tag_189:\n        /* \"Project-1-AuctionPlatform/AuctionPlatform.sol\":3147:3197  auctionList[aucOwners[msg.sender]].getMaximumBid() */\n      pop\n      gas\n      call\n      iszero\n        /* \"--CODEGEN--\":8:17   */\n      dup1\n        /* \"--CODEGEN--\":5:7   */\n      iszero\n      tag_190\n      jumpi\n        /* \"--CODEGEN--\":45:61   */\n      returndatasize\n        /* \"--CODEGEN--\":42:43   */\n      0x0\n        /* \"--CODEGEN--\":39:40   */\n      dup1\n        /* \"--CODEGEN--\":24:62   */\n      returndatacopy\n        /* \"--CODEGEN--\":77:93   */\n      returndatasize\n        /* \"--CODEGEN--\":74:75   */\n      0x0\n        /* \"--CODEGEN--\":67:94   */\n      revert\n        /* \"--CODEGEN--\":5:7   */\n    tag_190:\n        /* \"Project-1-AuctionPlatform/AuctionPlatform.sol\":3147:3197  auctionList[aucOwners[msg.sender]].getMaximumBid() */\n      pop\n      pop\n      pop\n      pop\n      mload(0x40)\n      returndatasize\n        /* \"--CODEGEN--\":13:15   */\n      0x20\n        /* \"--CODEGEN--\":8:11   */\n      dup2\n        /* \"--CODEGEN--\":5:16   */\n      lt\n        /* \"--CODEGEN--\":2:4   */\n      iszero\n      tag_191\n      jumpi\n        /* \"--CODEGEN--\":29:30   */\n      0x0\n        /* \"--CODEGEN--\":26:27   */\n      dup1\n        /* \"--CODEGEN--\":19:31   */\n      revert\n        /* \"--CODEGEN--\":2:4   */\n    tag_191:\n        /* \"Project-1-AuctionPlatform/AuctionPlatform.sol\":3147:3197  auctionList[aucOwners[msg.sender]].getMaximumBid() */\n      dup2\n      add\n      swap1\n      dup1\n      dup1\n      mload\n      swap1\n      0x20\n      add\n      swap1\n      swap3\n      swap2\n      swap1\n      pop\n      pop\n      pop\n        /* \"Project-1-AuctionPlatform/AuctionPlatform.sol\":3130:3197  uint256 maxBid = auctionList[aucOwners[msg.sender]].getMaximumBid() */\n      swap2\n      pop\n        /* \"Project-1-AuctionPlatform/AuctionPlatform.sol\":3486:3497  auctionList */\n      0x1\n        /* \"Project-1-AuctionPlatform/AuctionPlatform.sol\":3498:3507  aucOwners */\n      0x66\n        /* \"Project-1-AuctionPlatform/AuctionPlatform.sol\":3498:3519  aucOwners[msg.sender] */\n      0x0\n        /* \"Project-1-AuctionPlatform/AuctionPlatform.sol\":3508:3518  msg.sender */\n      caller\n        /* \"Project-1-AuctionPlatform/AuctionPlatform.sol\":3498:3519  aucOwners[msg.sender] */\n      0xffffffffffffffffffffffffffffffffffffffff\n      and\n      0xffffffffffffffffffffffffffffffffffffffff\n      and\n      dup2\n      mstore\n      0x20\n      add\n      swap1\n      dup2\n      mstore\n      0x20\n      add\n      0x0\n      keccak256\n      sload\n        /* \"Project-1-AuctionPlatform/AuctionPlatform.sol\":3486:3520  auctionList[aucOwners[msg.sender]] */\n      0x65\n      dup2\n      lt\n      iszero\n      iszero\n      tag_192\n      jumpi\n      invalid\n    tag_192:\n      add\n      0x0\n      swap1\n      sload\n      swap1\n      0x100\n      exp\n      swap1\n      div\n      0xffffffffffffffffffffffffffffffffffffffff\n      and\n        /* \"Project-1-AuctionPlatform/AuctionPlatform.sol\":3486:3559  auctionList[aucOwners[msg.sender]]... */\n      0xffffffffffffffffffffffffffffffffffffffff\n      and\n      0xdee37a8e\n        /* \"Project-1-AuctionPlatform/AuctionPlatform.sol\":3560:3566  maxBid */\n      dup4\n        /* \"Project-1-AuctionPlatform/AuctionPlatform.sol\":3486:3567  auctionList[aucOwners[msg.sender]]... */\n      mload(0x40)\n      dup3\n      0xffffffff\n      and\n      0x100000000000000000000000000000000000000000000000000000000\n      mul\n      dup2\n      mstore\n      0x4\n      add\n      dup1\n      dup3\n      dup2\n      mstore\n      0x20\n      add\n      swap2\n      pop\n      pop\n      0x20\n      mload(0x40)\n      dup1\n      dup4\n      sub\n      dup2\n      0x0\n      dup8\n      dup1\n      extcodesize\n      iszero\n        /* \"--CODEGEN--\":8:17   */\n      dup1\n        /* \"--CODEGEN--\":5:7   */\n      iszero\n      tag_194\n      jumpi\n        /* \"--CODEGEN--\":30:31   */\n      0x0\n        /* \"--CODEGEN--\":27:28   */\n      dup1\n        /* \"--CODEGEN--\":20:32   */\n      revert\n        /* \"--CODEGEN--\":5:7   */\n    tag_194:\n        /* \"Project-1-AuctionPlatform/AuctionPlatform.sol\":3486:3567  auctionList[aucOwners[msg.sender]]... */\n      pop\n      gas\n      call\n      iszero\n        /* \"--CODEGEN--\":8:17   */\n      dup1\n        /* \"--CODEGEN--\":5:7   */\n      iszero\n      tag_195\n      jumpi\n        /* \"--CODEGEN--\":45:61   */\n      returndatasize\n        /* \"--CODEGEN--\":42:43   */\n      0x0\n        /* \"--CODEGEN--\":39:40   */\n      dup1\n        /* \"--CODEGEN--\":24:62   */\n      returndatacopy\n        /* \"--CODEGEN--\":77:93   */\n      returndatasize\n        /* \"--CODEGEN--\":74:75   */\n      0x0\n        /* \"--CODEGEN--\":67:94   */\n      revert\n        /* \"--CODEGEN--\":5:7   */\n    tag_195:\n        /* \"Project-1-AuctionPlatform/AuctionPlatform.sol\":3486:3567  auctionList[aucOwners[msg.sender]]... */\n      pop\n      pop\n      pop\n      pop\n      mload(0x40)\n      returndatasize\n        /* \"--CODEGEN--\":13:15   */\n      0x20\n        /* \"--CODEGEN--\":8:11   */\n      dup2\n        /* \"--CODEGEN--\":5:16   */\n      lt\n        /* \"--CODEGEN--\":2:4   */\n      iszero\n      tag_196\n      jumpi\n        /* \"--CODEGEN--\":29:30   */\n      0x0\n        /* \"--CODEGEN--\":26:27   */\n      dup1\n        /* \"--CODEGEN--\":19:31   */\n      revert\n        /* \"--CODEGEN--\":2:4   */\n    tag_196:\n        /* \"Project-1-AuctionPlatform/AuctionPlatform.sol\":3486:3567  auctionList[aucOwners[msg.sender]]... */\n      dup2\n      add\n      swap1\n      dup1\n      dup1\n      mload\n      swap1\n      0x20\n      add\n      swap1\n      swap3\n      swap2\n      swap1\n      pop\n      pop\n      pop\n        /* \"Project-1-AuctionPlatform/AuctionPlatform.sol\":3469:3567  address winner = auctionList[aucOwners[msg.sender]]... */\n      swap1\n      pop\n        /* \"Project-1-AuctionPlatform/AuctionPlatform.sol\":3604:3610  maxBid */\n      dup2\n        /* \"Project-1-AuctionPlatform/AuctionPlatform.sol\":3596:3602  winner */\n      dup2\n        /* \"Project-1-AuctionPlatform/AuctionPlatform.sol\":3583:3611  auctionEnded(winner, maxBid) */\n      0xffffffffffffffffffffffffffffffffffffffff\n      and\n      0x6e0e2174dbf7b77c08b6f9a2799b9feda84a6d54a5644864582040100a47d4c5\n      mload(0x40)\n      mload(0x40)\n      dup1\n      swap2\n      sub\n      swap1\n      log3\n        /* \"Project-1-AuctionPlatform/AuctionPlatform.sol\":3629:3635  winner */\n      dup1\n        /* \"Project-1-AuctionPlatform/AuctionPlatform.sol\":3622:3635  return winner */\n      swap3\n      pop\n        /* \"Project-1-AuctionPlatform/AuctionPlatform.sol\":3031:3642  function endAuction() public ifAuctionOwner returns (address) {... */\n      pop\n      pop\n      swap1\n      jump\t// out\n        /* \"https://github.com/bokkypoobah/BokkyPooBahsDateTimeLibrary/blob/1ea8ef42b3d8db17b910b46e4f8c124b59d77c03/contracts/BokkyPooBahsDateTimeLibrary.sol\":5368:5663  function isValidDateTime(uint year, uint month, uint day, uint hour, uint minute, uint second) internal pure returns (bool valid) {... */\n    tag_147:\n        /* \"https://github.com/bokkypoobah/BokkyPooBahsDateTimeLibrary/blob/1ea8ef42b3d8db17b910b46e4f8c124b59d77c03/contracts/BokkyPooBahsDateTimeLibrary.sol\":5486:5496  bool valid */\n      0x0\n        /* \"https://github.com/bokkypoobah/BokkyPooBahsDateTimeLibrary/blob/1ea8ef42b3d8db17b910b46e4f8c124b59d77c03/contracts/BokkyPooBahsDateTimeLibrary.sol\":5512:5541  isValidDate(year, month, day) */\n      tag_198\n        /* \"https://github.com/bokkypoobah/BokkyPooBahsDateTimeLibrary/blob/1ea8ef42b3d8db17b910b46e4f8c124b59d77c03/contracts/BokkyPooBahsDateTimeLibrary.sol\":5524:5528  year */\n      dup8\n        /* \"https://github.com/bokkypoobah/BokkyPooBahsDateTimeLibrary/blob/1ea8ef42b3d8db17b910b46e4f8c124b59d77c03/contracts/BokkyPooBahsDateTimeLibrary.sol\":5530:5535  month */\n      dup8\n        /* \"https://github.com/bokkypoobah/BokkyPooBahsDateTimeLibrary/blob/1ea8ef42b3d8db17b910b46e4f8c124b59d77c03/contracts/BokkyPooBahsDateTimeLibrary.sol\":5537:5540  day */\n      dup8\n        /* \"https://github.com/bokkypoobah/BokkyPooBahsDateTimeLibrary/blob/1ea8ef42b3d8db17b910b46e4f8c124b59d77c03/contracts/BokkyPooBahsDateTimeLibrary.sol\":5512:5523  isValidDate */\n      tag_199\n        /* \"https://github.com/bokkypoobah/BokkyPooBahsDateTimeLibrary/blob/1ea8ef42b3d8db17b910b46e4f8c124b59d77c03/contracts/BokkyPooBahsDateTimeLibrary.sol\":5512:5541  isValidDate(year, month, day) */\n      jump\t// in\n    tag_198:\n        /* \"https://github.com/bokkypoobah/BokkyPooBahsDateTimeLibrary/blob/1ea8ef42b3d8db17b910b46e4f8c124b59d77c03/contracts/BokkyPooBahsDateTimeLibrary.sol\":5508:5657  if (isValidDate(year, month, day)) {... */\n      iszero\n      tag_200\n      jumpi\n        /* \"https://github.com/bokkypoobah/BokkyPooBahsDateTimeLibrary/blob/1ea8ef42b3d8db17b910b46e4f8c124b59d77c03/contracts/BokkyPooBahsDateTimeLibrary.sol\":5568:5570  24 */\n      0x18\n        /* \"https://github.com/bokkypoobah/BokkyPooBahsDateTimeLibrary/blob/1ea8ef42b3d8db17b910b46e4f8c124b59d77c03/contracts/BokkyPooBahsDateTimeLibrary.sol\":5561:5565  hour */\n      dup5\n        /* \"https://github.com/bokkypoobah/BokkyPooBahsDateTimeLibrary/blob/1ea8ef42b3d8db17b910b46e4f8c124b59d77c03/contracts/BokkyPooBahsDateTimeLibrary.sol\":5561:5570  hour < 24 */\n      lt\n        /* \"https://github.com/bokkypoobah/BokkyPooBahsDateTimeLibrary/blob/1ea8ef42b3d8db17b910b46e4f8c124b59d77c03/contracts/BokkyPooBahsDateTimeLibrary.sol\":5561:5585  hour < 24 && minute < 60 */\n      dup1\n      iszero\n      tag_201\n      jumpi\n      pop\n        /* \"https://github.com/bokkypoobah/BokkyPooBahsDateTimeLibrary/blob/1ea8ef42b3d8db17b910b46e4f8c124b59d77c03/contracts/BokkyPooBahsDateTimeLibrary.sol\":5583:5585  60 */\n      0x3c\n        /* \"https://github.com/bokkypoobah/BokkyPooBahsDateTimeLibrary/blob/1ea8ef42b3d8db17b910b46e4f8c124b59d77c03/contracts/BokkyPooBahsDateTimeLibrary.sol\":5574:5580  minute */\n      dup4\n        /* \"https://github.com/bokkypoobah/BokkyPooBahsDateTimeLibrary/blob/1ea8ef42b3d8db17b910b46e4f8c124b59d77c03/contracts/BokkyPooBahsDateTimeLibrary.sol\":5574:5585  minute < 60 */\n      lt\n        /* \"https://github.com/bokkypoobah/BokkyPooBahsDateTimeLibrary/blob/1ea8ef42b3d8db17b910b46e4f8c124b59d77c03/contracts/BokkyPooBahsDateTimeLibrary.sol\":5561:5585  hour < 24 && minute < 60 */\n    tag_201:\n        /* \"https://github.com/bokkypoobah/BokkyPooBahsDateTimeLibrary/blob/1ea8ef42b3d8db17b910b46e4f8c124b59d77c03/contracts/BokkyPooBahsDateTimeLibrary.sol\":5561:5600  hour < 24 && minute < 60 && second < 60 */\n      dup1\n      iszero\n      tag_202\n      jumpi\n      pop\n        /* \"https://github.com/bokkypoobah/BokkyPooBahsDateTimeLibrary/blob/1ea8ef42b3d8db17b910b46e4f8c124b59d77c03/contracts/BokkyPooBahsDateTimeLibrary.sol\":5598:5600  60 */\n      0x3c\n        /* \"https://github.com/bokkypoobah/BokkyPooBahsDateTimeLibrary/blob/1ea8ef42b3d8db17b910b46e4f8c124b59d77c03/contracts/BokkyPooBahsDateTimeLibrary.sol\":5589:5595  second */\n      dup3\n        /* \"https://github.com/bokkypoobah/BokkyPooBahsDateTimeLibrary/blob/1ea8ef42b3d8db17b910b46e4f8c124b59d77c03/contracts/BokkyPooBahsDateTimeLibrary.sol\":5589:5600  second < 60 */\n      lt\n        /* \"https://github.com/bokkypoobah/BokkyPooBahsDateTimeLibrary/blob/1ea8ef42b3d8db17b910b46e4f8c124b59d77c03/contracts/BokkyPooBahsDateTimeLibrary.sol\":5561:5600  hour < 24 && minute < 60 && second < 60 */\n    tag_202:\n        /* \"https://github.com/bokkypoobah/BokkyPooBahsDateTimeLibrary/blob/1ea8ef42b3d8db17b910b46e4f8c124b59d77c03/contracts/BokkyPooBahsDateTimeLibrary.sol\":5557:5647  if (hour < 24 && minute < 60 && second < 60) {... */\n      iszero\n      tag_203\n      jumpi\n        /* \"https://github.com/bokkypoobah/BokkyPooBahsDateTimeLibrary/blob/1ea8ef42b3d8db17b910b46e4f8c124b59d77c03/contracts/BokkyPooBahsDateTimeLibrary.sol\":5628:5632  true */\n      0x1\n        /* \"https://github.com/bokkypoobah/BokkyPooBahsDateTimeLibrary/blob/1ea8ef42b3d8db17b910b46e4f8c124b59d77c03/contracts/BokkyPooBahsDateTimeLibrary.sol\":5620:5632  valid = true */\n      swap1\n      pop\n        /* \"https://github.com/bokkypoobah/BokkyPooBahsDateTimeLibrary/blob/1ea8ef42b3d8db17b910b46e4f8c124b59d77c03/contracts/BokkyPooBahsDateTimeLibrary.sol\":5557:5647  if (hour < 24 && minute < 60 && second < 60) {... */\n    tag_203:\n        /* \"https://github.com/bokkypoobah/BokkyPooBahsDateTimeLibrary/blob/1ea8ef42b3d8db17b910b46e4f8c124b59d77c03/contracts/BokkyPooBahsDateTimeLibrary.sol\":5508:5657  if (isValidDate(year, month, day)) {... */\n    tag_200:\n        /* \"https://github.com/bokkypoobah/BokkyPooBahsDateTimeLibrary/blob/1ea8ef42b3d8db17b910b46e4f8c124b59d77c03/contracts/BokkyPooBahsDateTimeLibrary.sol\":5368:5663  function isValidDateTime(uint year, uint month, uint day, uint hour, uint minute, uint second) internal pure returns (bool valid) {... */\n      swap7\n      swap6\n      pop\n      pop\n      pop\n      pop\n      pop\n      pop\n      jump\t// out\n        /* \"https://github.com/bokkypoobah/BokkyPooBahsDateTimeLibrary/blob/1ea8ef42b3d8db17b910b46e4f8c124b59d77c03/contracts/BokkyPooBahsDateTimeLibrary.sol\":3958:4135  function timestampFromDate(uint year, uint month, uint day) internal pure returns (uint timestamp) {... */\n    tag_152:\n        /* \"https://github.com/bokkypoobah/BokkyPooBahsDateTimeLibrary/blob/1ea8ef42b3d8db17b910b46e4f8c124b59d77c03/contracts/BokkyPooBahsDateTimeLibrary.sol\":4041:4055  uint timestamp */\n      0x0\n        /* \"https://github.com/bokkypoobah/BokkyPooBahsDateTimeLibrary/blob/1ea8ef42b3d8db17b910b46e4f8c124b59d77c03/contracts/BokkyPooBahsDateTimeLibrary.sol\":1058:1070  24 * 60 * 60 */\n      0x15180\n        /* \"https://github.com/bokkypoobah/BokkyPooBahsDateTimeLibrary/blob/1ea8ef42b3d8db17b910b46e4f8c124b59d77c03/contracts/BokkyPooBahsDateTimeLibrary.sol\":4079:4110  _daysFromDate(year, month, day) */\n      tag_205\n        /* \"https://github.com/bokkypoobah/BokkyPooBahsDateTimeLibrary/blob/1ea8ef42b3d8db17b910b46e4f8c124b59d77c03/contracts/BokkyPooBahsDateTimeLibrary.sol\":4093:4097  year */\n      dup6\n        /* \"https://github.com/bokkypoobah/BokkyPooBahsDateTimeLibrary/blob/1ea8ef42b3d8db17b910b46e4f8c124b59d77c03/contracts/BokkyPooBahsDateTimeLibrary.sol\":4099:4104  month */\n      dup6\n        /* \"https://github.com/bokkypoobah/BokkyPooBahsDateTimeLibrary/blob/1ea8ef42b3d8db17b910b46e4f8c124b59d77c03/contracts/BokkyPooBahsDateTimeLibrary.sol\":4106:4109  day */\n      dup6\n        /* \"https://github.com/bokkypoobah/BokkyPooBahsDateTimeLibrary/blob/1ea8ef42b3d8db17b910b46e4f8c124b59d77c03/contracts/BokkyPooBahsDateTimeLibrary.sol\":4079:4092  _daysFromDate */\n      tag_206\n        /* \"https://github.com/bokkypoobah/BokkyPooBahsDateTimeLibrary/blob/1ea8ef42b3d8db17b910b46e4f8c124b59d77c03/contracts/BokkyPooBahsDateTimeLibrary.sol\":4079:4110  _daysFromDate(year, month, day) */\n      jump\t// in\n    tag_205:\n        /* \"https://github.com/bokkypoobah/BokkyPooBahsDateTimeLibrary/blob/1ea8ef42b3d8db17b910b46e4f8c124b59d77c03/contracts/BokkyPooBahsDateTimeLibrary.sol\":4079:4128  _daysFromDate(year, month, day) * SECONDS_PER_DAY */\n      mul\n        /* \"https://github.com/bokkypoobah/BokkyPooBahsDateTimeLibrary/blob/1ea8ef42b3d8db17b910b46e4f8c124b59d77c03/contracts/BokkyPooBahsDateTimeLibrary.sol\":4067:4128  timestamp = _daysFromDate(year, month, day) * SECONDS_PER_DAY */\n      swap1\n      pop\n        /* \"https://github.com/bokkypoobah/BokkyPooBahsDateTimeLibrary/blob/1ea8ef42b3d8db17b910b46e4f8c124b59d77c03/contracts/BokkyPooBahsDateTimeLibrary.sol\":3958:4135  function timestampFromDate(uint year, uint month, uint day) internal pure returns (uint timestamp) {... */\n      swap4\n      swap3\n      pop\n      pop\n      pop\n      jump\t// out\n        /* \"https://github.com/bokkypoobah/BokkyPooBahsDateTimeLibrary/blob/1ea8ef42b3d8db17b910b46e4f8c124b59d77c03/contracts/BokkyPooBahsDateTimeLibrary.sol\":5047:5363  function isValidDate(uint year, uint month, uint day) internal pure returns (bool valid) {... */\n    tag_199:\n        /* \"https://github.com/bokkypoobah/BokkyPooBahsDateTimeLibrary/blob/1ea8ef42b3d8db17b910b46e4f8c124b59d77c03/contracts/BokkyPooBahsDateTimeLibrary.sol\":5124:5134  bool valid */\n      0x0\n        /* \"https://github.com/bokkypoobah/BokkyPooBahsDateTimeLibrary/blob/1ea8ef42b3d8db17b910b46e4f8c124b59d77c03/contracts/BokkyPooBahsDateTimeLibrary.sol\":5206:5222  uint daysInMonth */\n      dup1\n        /* \"https://github.com/bokkypoobah/BokkyPooBahsDateTimeLibrary/blob/1ea8ef42b3d8db17b910b46e4f8c124b59d77c03/contracts/BokkyPooBahsDateTimeLibrary.sol\":5158:5162  1970 */\n      0x7b2\n        /* \"https://github.com/bokkypoobah/BokkyPooBahsDateTimeLibrary/blob/1ea8ef42b3d8db17b910b46e4f8c124b59d77c03/contracts/BokkyPooBahsDateTimeLibrary.sol\":5150:5154  year */\n      dup6\n        /* \"https://github.com/bokkypoobah/BokkyPooBahsDateTimeLibrary/blob/1ea8ef42b3d8db17b910b46e4f8c124b59d77c03/contracts/BokkyPooBahsDateTimeLibrary.sol\":5150:5162  year >= 1970 */\n      lt\n      iszero\n        /* \"https://github.com/bokkypoobah/BokkyPooBahsDateTimeLibrary/blob/1ea8ef42b3d8db17b910b46e4f8c124b59d77c03/contracts/BokkyPooBahsDateTimeLibrary.sol\":5150:5175  year >= 1970 && month > 0 */\n      dup1\n      iszero\n      tag_208\n      jumpi\n      pop\n        /* \"https://github.com/bokkypoobah/BokkyPooBahsDateTimeLibrary/blob/1ea8ef42b3d8db17b910b46e4f8c124b59d77c03/contracts/BokkyPooBahsDateTimeLibrary.sol\":5174:5175  0 */\n      0x0\n        /* \"https://github.com/bokkypoobah/BokkyPooBahsDateTimeLibrary/blob/1ea8ef42b3d8db17b910b46e4f8c124b59d77c03/contracts/BokkyPooBahsDateTimeLibrary.sol\":5166:5171  month */\n      dup5\n        /* \"https://github.com/bokkypoobah/BokkyPooBahsDateTimeLibrary/blob/1ea8ef42b3d8db17b910b46e4f8c124b59d77c03/contracts/BokkyPooBahsDateTimeLibrary.sol\":5166:5175  month > 0 */\n      gt\n        /* \"https://github.com/bokkypoobah/BokkyPooBahsDateTimeLibrary/blob/1ea8ef42b3d8db17b910b46e4f8c124b59d77c03/contracts/BokkyPooBahsDateTimeLibrary.sol\":5150:5175  year >= 1970 && month > 0 */\n    tag_208:\n        /* \"https://github.com/bokkypoobah/BokkyPooBahsDateTimeLibrary/blob/1ea8ef42b3d8db17b910b46e4f8c124b59d77c03/contracts/BokkyPooBahsDateTimeLibrary.sol\":5150:5190  year >= 1970 && month > 0 && month <= 12 */\n      dup1\n      iszero\n      tag_209\n      jumpi\n      pop\n        /* \"https://github.com/bokkypoobah/BokkyPooBahsDateTimeLibrary/blob/1ea8ef42b3d8db17b910b46e4f8c124b59d77c03/contracts/BokkyPooBahsDateTimeLibrary.sol\":5188:5190  12 */\n      0xc\n        /* \"https://github.com/bokkypoobah/BokkyPooBahsDateTimeLibrary/blob/1ea8ef42b3d8db17b910b46e4f8c124b59d77c03/contracts/BokkyPooBahsDateTimeLibrary.sol\":5179:5184  month */\n      dup5\n        /* \"https://github.com/bokkypoobah/BokkyPooBahsDateTimeLibrary/blob/1ea8ef42b3d8db17b910b46e4f8c124b59d77c03/contracts/BokkyPooBahsDateTimeLibrary.sol\":5179:5190  month <= 12 */\n      gt\n      iszero\n        /* \"https://github.com/bokkypoobah/BokkyPooBahsDateTimeLibrary/blob/1ea8ef42b3d8db17b910b46e4f8c124b59d77c03/contracts/BokkyPooBahsDateTimeLibrary.sol\":5150:5190  year >= 1970 && month > 0 && month <= 12 */\n    tag_209:\n        /* \"https://github.com/bokkypoobah/BokkyPooBahsDateTimeLibrary/blob/1ea8ef42b3d8db17b910b46e4f8c124b59d77c03/contracts/BokkyPooBahsDateTimeLibrary.sol\":5146:5357  if (year >= 1970 && month > 0 && month <= 12) {... */\n      iszero\n      tag_210\n      jumpi\n        /* \"https://github.com/bokkypoobah/BokkyPooBahsDateTimeLibrary/blob/1ea8ef42b3d8db17b910b46e4f8c124b59d77c03/contracts/BokkyPooBahsDateTimeLibrary.sol\":5225:5253  _getDaysInMonth(year, month) */\n      tag_211\n        /* \"https://github.com/bokkypoobah/BokkyPooBahsDateTimeLibrary/blob/1ea8ef42b3d8db17b910b46e4f8c124b59d77c03/contracts/BokkyPooBahsDateTimeLibrary.sol\":5241:5245  year */\n      dup6\n        /* \"https://github.com/bokkypoobah/BokkyPooBahsDateTimeLibrary/blob/1ea8ef42b3d8db17b910b46e4f8c124b59d77c03/contracts/BokkyPooBahsDateTimeLibrary.sol\":5247:5252  month */\n      dup6\n        /* \"https://github.com/bokkypoobah/BokkyPooBahsDateTimeLibrary/blob/1ea8ef42b3d8db17b910b46e4f8c124b59d77c03/contracts/BokkyPooBahsDateTimeLibrary.sol\":5225:5240  _getDaysInMonth */\n      tag_212\n        /* \"https://github.com/bokkypoobah/BokkyPooBahsDateTimeLibrary/blob/1ea8ef42b3d8db17b910b46e4f8c124b59d77c03/contracts/BokkyPooBahsDateTimeLibrary.sol\":5225:5253  _getDaysInMonth(year, month) */\n      jump\t// in\n    tag_211:\n        /* \"https://github.com/bokkypoobah/BokkyPooBahsDateTimeLibrary/blob/1ea8ef42b3d8db17b910b46e4f8c124b59d77c03/contracts/BokkyPooBahsDateTimeLibrary.sol\":5206:5253  uint daysInMonth = _getDaysInMonth(year, month) */\n      swap1\n      pop\n        /* \"https://github.com/bokkypoobah/BokkyPooBahsDateTimeLibrary/blob/1ea8ef42b3d8db17b910b46e4f8c124b59d77c03/contracts/BokkyPooBahsDateTimeLibrary.sol\":5277:5278  0 */\n      0x0\n        /* \"https://github.com/bokkypoobah/BokkyPooBahsDateTimeLibrary/blob/1ea8ef42b3d8db17b910b46e4f8c124b59d77c03/contracts/BokkyPooBahsDateTimeLibrary.sol\":5271:5274  day */\n      dup4\n        /* \"https://github.com/bokkypoobah/BokkyPooBahsDateTimeLibrary/blob/1ea8ef42b3d8db17b910b46e4f8c124b59d77c03/contracts/BokkyPooBahsDateTimeLibrary.sol\":5271:5278  day > 0 */\n      gt\n        /* \"https://github.com/bokkypoobah/BokkyPooBahsDateTimeLibrary/blob/1ea8ef42b3d8db17b910b46e4f8c124b59d77c03/contracts/BokkyPooBahsDateTimeLibrary.sol\":5271:5300  day > 0 && day <= daysInMonth */\n      dup1\n      iszero\n      tag_213\n      jumpi\n      pop\n        /* \"https://github.com/bokkypoobah/BokkyPooBahsDateTimeLibrary/blob/1ea8ef42b3d8db17b910b46e4f8c124b59d77c03/contracts/BokkyPooBahsDateTimeLibrary.sol\":5289:5300  daysInMonth */\n      dup1\n        /* \"https://github.com/bokkypoobah/BokkyPooBahsDateTimeLibrary/blob/1ea8ef42b3d8db17b910b46e4f8c124b59d77c03/contracts/BokkyPooBahsDateTimeLibrary.sol\":5282:5285  day */\n      dup4\n        /* \"https://github.com/bokkypoobah/BokkyPooBahsDateTimeLibrary/blob/1ea8ef42b3d8db17b910b46e4f8c124b59d77c03/contracts/BokkyPooBahsDateTimeLibrary.sol\":5282:5300  day <= daysInMonth */\n      gt\n      iszero\n        /* \"https://github.com/bokkypoobah/BokkyPooBahsDateTimeLibrary/blob/1ea8ef42b3d8db17b910b46e4f8c124b59d77c03/contracts/BokkyPooBahsDateTimeLibrary.sol\":5271:5300  day > 0 && day <= daysInMonth */\n    tag_213:\n        /* \"https://github.com/bokkypoobah/BokkyPooBahsDateTimeLibrary/blob/1ea8ef42b3d8db17b910b46e4f8c124b59d77c03/contracts/BokkyPooBahsDateTimeLibrary.sol\":5267:5347  if (day > 0 && day <= daysInMonth) {... */\n      iszero\n      tag_214\n      jumpi\n        /* \"https://github.com/bokkypoobah/BokkyPooBahsDateTimeLibrary/blob/1ea8ef42b3d8db17b910b46e4f8c124b59d77c03/contracts/BokkyPooBahsDateTimeLibrary.sol\":5328:5332  true */\n      0x1\n        /* \"https://github.com/bokkypoobah/BokkyPooBahsDateTimeLibrary/blob/1ea8ef42b3d8db17b910b46e4f8c124b59d77c03/contracts/BokkyPooBahsDateTimeLibrary.sol\":5320:5332  valid = true */\n      swap2\n      pop\n        /* \"https://github.com/bokkypoobah/BokkyPooBahsDateTimeLibrary/blob/1ea8ef42b3d8db17b910b46e4f8c124b59d77c03/contracts/BokkyPooBahsDateTimeLibrary.sol\":5267:5347  if (day > 0 && day <= daysInMonth) {... */\n    tag_214:\n        /* \"https://github.com/bokkypoobah/BokkyPooBahsDateTimeLibrary/blob/1ea8ef42b3d8db17b910b46e4f8c124b59d77c03/contracts/BokkyPooBahsDateTimeLibrary.sol\":5146:5357  if (year >= 1970 && month > 0 && month <= 12) {... */\n    tag_210:\n        /* \"https://github.com/bokkypoobah/BokkyPooBahsDateTimeLibrary/blob/1ea8ef42b3d8db17b910b46e4f8c124b59d77c03/contracts/BokkyPooBahsDateTimeLibrary.sol\":5047:5363  function isValidDate(uint year, uint month, uint day) internal pure returns (bool valid) {... */\n      pop\n      swap4\n      swap3\n      pop\n      pop\n      pop\n      jump\t// out\n        /* \"https://github.com/bokkypoobah/BokkyPooBahsDateTimeLibrary/blob/1ea8ef42b3d8db17b910b46e4f8c124b59d77c03/contracts/BokkyPooBahsDateTimeLibrary.sol\":2083:2594  function _daysFromDate(uint year, uint month, uint day) internal pure returns (uint _days) {... */\n    tag_206:\n        /* \"https://github.com/bokkypoobah/BokkyPooBahsDateTimeLibrary/blob/1ea8ef42b3d8db17b910b46e4f8c124b59d77c03/contracts/BokkyPooBahsDateTimeLibrary.sol\":2162:2172  uint _days */\n      0x0\n        /* \"https://github.com/bokkypoobah/BokkyPooBahsDateTimeLibrary/blob/1ea8ef42b3d8db17b910b46e4f8c124b59d77c03/contracts/BokkyPooBahsDateTimeLibrary.sol\":2215:2224  int _year */\n      dup1\n        /* \"https://github.com/bokkypoobah/BokkyPooBahsDateTimeLibrary/blob/1ea8ef42b3d8db17b910b46e4f8c124b59d77c03/contracts/BokkyPooBahsDateTimeLibrary.sol\":2246:2256  int _month */\n      0x0\n        /* \"https://github.com/bokkypoobah/BokkyPooBahsDateTimeLibrary/blob/1ea8ef42b3d8db17b910b46e4f8c124b59d77c03/contracts/BokkyPooBahsDateTimeLibrary.sol\":2279:2287  int _day */\n      dup1\n        /* \"https://github.com/bokkypoobah/BokkyPooBahsDateTimeLibrary/blob/1ea8ef42b3d8db17b910b46e4f8c124b59d77c03/contracts/BokkyPooBahsDateTimeLibrary.sol\":2309:2319  int __days */\n      0x0\n        /* \"https://github.com/bokkypoobah/BokkyPooBahsDateTimeLibrary/blob/1ea8ef42b3d8db17b910b46e4f8c124b59d77c03/contracts/BokkyPooBahsDateTimeLibrary.sol\":2200:2204  1970 */\n      0x7b2\n        /* \"https://github.com/bokkypoobah/BokkyPooBahsDateTimeLibrary/blob/1ea8ef42b3d8db17b910b46e4f8c124b59d77c03/contracts/BokkyPooBahsDateTimeLibrary.sol\":2192:2196  year */\n      dup9\n        /* \"https://github.com/bokkypoobah/BokkyPooBahsDateTimeLibrary/blob/1ea8ef42b3d8db17b910b46e4f8c124b59d77c03/contracts/BokkyPooBahsDateTimeLibrary.sol\":2192:2204  year >= 1970 */\n      lt\n      iszero\n        /* \"https://github.com/bokkypoobah/BokkyPooBahsDateTimeLibrary/blob/1ea8ef42b3d8db17b910b46e4f8c124b59d77c03/contracts/BokkyPooBahsDateTimeLibrary.sol\":2184:2205  require(year >= 1970) */\n      iszero\n      iszero\n      tag_216\n      jumpi\n      0x0\n      dup1\n      revert\n    tag_216:\n        /* \"https://github.com/bokkypoobah/BokkyPooBahsDateTimeLibrary/blob/1ea8ef42b3d8db17b910b46e4f8c124b59d77c03/contracts/BokkyPooBahsDateTimeLibrary.sol\":2231:2235  year */\n      dup8\n        /* \"https://github.com/bokkypoobah/BokkyPooBahsDateTimeLibrary/blob/1ea8ef42b3d8db17b910b46e4f8c124b59d77c03/contracts/BokkyPooBahsDateTimeLibrary.sol\":2215:2236  int _year = int(year) */\n      swap4\n      pop\n        /* \"https://github.com/bokkypoobah/BokkyPooBahsDateTimeLibrary/blob/1ea8ef42b3d8db17b910b46e4f8c124b59d77c03/contracts/BokkyPooBahsDateTimeLibrary.sol\":2263:2268  month */\n      dup7\n        /* \"https://github.com/bokkypoobah/BokkyPooBahsDateTimeLibrary/blob/1ea8ef42b3d8db17b910b46e4f8c124b59d77c03/contracts/BokkyPooBahsDateTimeLibrary.sol\":2246:2269  int _month = int(month) */\n      swap3\n      pop\n        /* \"https://github.com/bokkypoobah/BokkyPooBahsDateTimeLibrary/blob/1ea8ef42b3d8db17b910b46e4f8c124b59d77c03/contracts/BokkyPooBahsDateTimeLibrary.sol\":2294:2297  day */\n      dup6\n        /* \"https://github.com/bokkypoobah/BokkyPooBahsDateTimeLibrary/blob/1ea8ef42b3d8db17b910b46e4f8c124b59d77c03/contracts/BokkyPooBahsDateTimeLibrary.sol\":2279:2298  int _day = int(day) */\n      swap2\n      pop\n        /* \"https://github.com/bokkypoobah/BokkyPooBahsDateTimeLibrary/blob/1ea8ef42b3d8db17b910b46e4f8c124b59d77c03/contracts/BokkyPooBahsDateTimeLibrary.sol\":1195:1202  2440588 */\n      0x253d8c\n        /* \"https://github.com/bokkypoobah/BokkyPooBahsDateTimeLibrary/blob/1ea8ef42b3d8db17b910b46e4f8c124b59d77c03/contracts/BokkyPooBahsDateTimeLibrary.sol\":2528:2529  4 */\n      0x4\n        /* \"https://github.com/bokkypoobah/BokkyPooBahsDateTimeLibrary/blob/1ea8ef42b3d8db17b910b46e4f8c124b59d77c03/contracts/BokkyPooBahsDateTimeLibrary.sol\":2521:2524  100 */\n      0x64\n        /* \"https://github.com/bokkypoobah/BokkyPooBahsDateTimeLibrary/blob/1ea8ef42b3d8db17b910b46e4f8c124b59d77c03/contracts/BokkyPooBahsDateTimeLibrary.sol\":2515:2517  12 */\n      0xc\n        /* \"https://github.com/bokkypoobah/BokkyPooBahsDateTimeLibrary/blob/1ea8ef42b3d8db17b910b46e4f8c124b59d77c03/contracts/BokkyPooBahsDateTimeLibrary.sol\":2509:2511  14 */\n      0xe\n        /* \"https://github.com/bokkypoobah/BokkyPooBahsDateTimeLibrary/blob/1ea8ef42b3d8db17b910b46e4f8c124b59d77c03/contracts/BokkyPooBahsDateTimeLibrary.sol\":2500:2506  _month */\n      dup8\n        /* \"https://github.com/bokkypoobah/BokkyPooBahsDateTimeLibrary/blob/1ea8ef42b3d8db17b910b46e4f8c124b59d77c03/contracts/BokkyPooBahsDateTimeLibrary.sol\":2500:2511  _month - 14 */\n      sub\n        /* \"https://github.com/bokkypoobah/BokkyPooBahsDateTimeLibrary/blob/1ea8ef42b3d8db17b910b46e4f8c124b59d77c03/contracts/BokkyPooBahsDateTimeLibrary.sol\":2499:2517  (_month - 14) / 12 */\n      dup2\n      iszero\n      iszero\n      tag_217\n      jumpi\n      invalid\n    tag_217:\n      sdiv\n        /* \"https://github.com/bokkypoobah/BokkyPooBahsDateTimeLibrary/blob/1ea8ef42b3d8db17b910b46e4f8c124b59d77c03/contracts/BokkyPooBahsDateTimeLibrary.sol\":2492:2496  4900 */\n      0x1324\n        /* \"https://github.com/bokkypoobah/BokkyPooBahsDateTimeLibrary/blob/1ea8ef42b3d8db17b910b46e4f8c124b59d77c03/contracts/BokkyPooBahsDateTimeLibrary.sol\":2484:2489  _year */\n      dup9\n        /* \"https://github.com/bokkypoobah/BokkyPooBahsDateTimeLibrary/blob/1ea8ef42b3d8db17b910b46e4f8c124b59d77c03/contracts/BokkyPooBahsDateTimeLibrary.sol\":2484:2496  _year + 4900 */\n      add\n        /* \"https://github.com/bokkypoobah/BokkyPooBahsDateTimeLibrary/blob/1ea8ef42b3d8db17b910b46e4f8c124b59d77c03/contracts/BokkyPooBahsDateTimeLibrary.sol\":2484:2517  _year + 4900 + (_month - 14) / 12 */\n      add\n        /* \"https://github.com/bokkypoobah/BokkyPooBahsDateTimeLibrary/blob/1ea8ef42b3d8db17b910b46e4f8c124b59d77c03/contracts/BokkyPooBahsDateTimeLibrary.sol\":2483:2524  (_year + 4900 + (_month - 14) / 12) / 100 */\n      dup2\n      iszero\n      iszero\n      tag_218\n      jumpi\n      invalid\n    tag_218:\n      sdiv\n        /* \"https://github.com/bokkypoobah/BokkyPooBahsDateTimeLibrary/blob/1ea8ef42b3d8db17b910b46e4f8c124b59d77c03/contracts/BokkyPooBahsDateTimeLibrary.sol\":2478:2479  3 */\n      0x3\n        /* \"https://github.com/bokkypoobah/BokkyPooBahsDateTimeLibrary/blob/1ea8ef42b3d8db17b910b46e4f8c124b59d77c03/contracts/BokkyPooBahsDateTimeLibrary.sol\":2478:2525  3 * ((_year + 4900 + (_month - 14) / 12) / 100) */\n      mul\n        /* \"https://github.com/bokkypoobah/BokkyPooBahsDateTimeLibrary/blob/1ea8ef42b3d8db17b910b46e4f8c124b59d77c03/contracts/BokkyPooBahsDateTimeLibrary.sol\":2478:2529  3 * ((_year + 4900 + (_month - 14) / 12) / 100) / 4 */\n      dup2\n      iszero\n      iszero\n      tag_219\n      jumpi\n      invalid\n    tag_219:\n      sdiv\n        /* \"https://github.com/bokkypoobah/BokkyPooBahsDateTimeLibrary/blob/1ea8ef42b3d8db17b910b46e4f8c124b59d77c03/contracts/BokkyPooBahsDateTimeLibrary.sol\":2463:2465  12 */\n      0xc\n        /* \"https://github.com/bokkypoobah/BokkyPooBahsDateTimeLibrary/blob/1ea8ef42b3d8db17b910b46e4f8c124b59d77c03/contracts/BokkyPooBahsDateTimeLibrary.sol\":2457:2459  12 */\n      dup1\n        /* \"https://github.com/bokkypoobah/BokkyPooBahsDateTimeLibrary/blob/1ea8ef42b3d8db17b910b46e4f8c124b59d77c03/contracts/BokkyPooBahsDateTimeLibrary.sol\":2452:2454  12 */\n      0xc\n        /* \"https://github.com/bokkypoobah/BokkyPooBahsDateTimeLibrary/blob/1ea8ef42b3d8db17b910b46e4f8c124b59d77c03/contracts/BokkyPooBahsDateTimeLibrary.sol\":2446:2448  14 */\n      0xe\n        /* \"https://github.com/bokkypoobah/BokkyPooBahsDateTimeLibrary/blob/1ea8ef42b3d8db17b910b46e4f8c124b59d77c03/contracts/BokkyPooBahsDateTimeLibrary.sol\":2437:2443  _month */\n      dup9\n        /* \"https://github.com/bokkypoobah/BokkyPooBahsDateTimeLibrary/blob/1ea8ef42b3d8db17b910b46e4f8c124b59d77c03/contracts/BokkyPooBahsDateTimeLibrary.sol\":2437:2448  _month - 14 */\n      sub\n        /* \"https://github.com/bokkypoobah/BokkyPooBahsDateTimeLibrary/blob/1ea8ef42b3d8db17b910b46e4f8c124b59d77c03/contracts/BokkyPooBahsDateTimeLibrary.sol\":2436:2454  (_month - 14) / 12 */\n      dup2\n      iszero\n      iszero\n      tag_220\n      jumpi\n      invalid\n    tag_220:\n      sdiv\n        /* \"https://github.com/bokkypoobah/BokkyPooBahsDateTimeLibrary/blob/1ea8ef42b3d8db17b910b46e4f8c124b59d77c03/contracts/BokkyPooBahsDateTimeLibrary.sol\":2436:2459  (_month - 14) / 12 * 12 */\n      mul\n        /* \"https://github.com/bokkypoobah/BokkyPooBahsDateTimeLibrary/blob/1ea8ef42b3d8db17b910b46e4f8c124b59d77c03/contracts/BokkyPooBahsDateTimeLibrary.sol\":2432:2433  2 */\n      0x2\n        /* \"https://github.com/bokkypoobah/BokkyPooBahsDateTimeLibrary/blob/1ea8ef42b3d8db17b910b46e4f8c124b59d77c03/contracts/BokkyPooBahsDateTimeLibrary.sol\":2423:2429  _month */\n      dup8\n        /* \"https://github.com/bokkypoobah/BokkyPooBahsDateTimeLibrary/blob/1ea8ef42b3d8db17b910b46e4f8c124b59d77c03/contracts/BokkyPooBahsDateTimeLibrary.sol\":2423:2433  _month - 2 */\n      sub\n        /* \"https://github.com/bokkypoobah/BokkyPooBahsDateTimeLibrary/blob/1ea8ef42b3d8db17b910b46e4f8c124b59d77c03/contracts/BokkyPooBahsDateTimeLibrary.sol\":2423:2459  _month - 2 - (_month - 14) / 12 * 12 */\n      sub\n        /* \"https://github.com/bokkypoobah/BokkyPooBahsDateTimeLibrary/blob/1ea8ef42b3d8db17b910b46e4f8c124b59d77c03/contracts/BokkyPooBahsDateTimeLibrary.sol\":2416:2419  367 */\n      0x16f\n        /* \"https://github.com/bokkypoobah/BokkyPooBahsDateTimeLibrary/blob/1ea8ef42b3d8db17b910b46e4f8c124b59d77c03/contracts/BokkyPooBahsDateTimeLibrary.sol\":2416:2460  367 * (_month - 2 - (_month - 14) / 12 * 12) */\n      mul\n        /* \"https://github.com/bokkypoobah/BokkyPooBahsDateTimeLibrary/blob/1ea8ef42b3d8db17b910b46e4f8c124b59d77c03/contracts/BokkyPooBahsDateTimeLibrary.sol\":2416:2465  367 * (_month - 2 - (_month - 14) / 12 * 12) / 12 */\n      dup2\n      iszero\n      iszero\n      tag_221\n      jumpi\n      invalid\n    tag_221:\n      sdiv\n        /* \"https://github.com/bokkypoobah/BokkyPooBahsDateTimeLibrary/blob/1ea8ef42b3d8db17b910b46e4f8c124b59d77c03/contracts/BokkyPooBahsDateTimeLibrary.sol\":2402:2403  4 */\n      0x4\n        /* \"https://github.com/bokkypoobah/BokkyPooBahsDateTimeLibrary/blob/1ea8ef42b3d8db17b910b46e4f8c124b59d77c03/contracts/BokkyPooBahsDateTimeLibrary.sol\":2396:2398  12 */\n      0xc\n        /* \"https://github.com/bokkypoobah/BokkyPooBahsDateTimeLibrary/blob/1ea8ef42b3d8db17b910b46e4f8c124b59d77c03/contracts/BokkyPooBahsDateTimeLibrary.sol\":2390:2392  14 */\n      0xe\n        /* \"https://github.com/bokkypoobah/BokkyPooBahsDateTimeLibrary/blob/1ea8ef42b3d8db17b910b46e4f8c124b59d77c03/contracts/BokkyPooBahsDateTimeLibrary.sol\":2381:2387  _month */\n      dup9\n        /* \"https://github.com/bokkypoobah/BokkyPooBahsDateTimeLibrary/blob/1ea8ef42b3d8db17b910b46e4f8c124b59d77c03/contracts/BokkyPooBahsDateTimeLibrary.sol\":2381:2392  _month - 14 */\n      sub\n        /* \"https://github.com/bokkypoobah/BokkyPooBahsDateTimeLibrary/blob/1ea8ef42b3d8db17b910b46e4f8c124b59d77c03/contracts/BokkyPooBahsDateTimeLibrary.sol\":2380:2398  (_month - 14) / 12 */\n      dup2\n      iszero\n      iszero\n      tag_222\n      jumpi\n      invalid\n    tag_222:\n      sdiv\n        /* \"https://github.com/bokkypoobah/BokkyPooBahsDateTimeLibrary/blob/1ea8ef42b3d8db17b910b46e4f8c124b59d77c03/contracts/BokkyPooBahsDateTimeLibrary.sol\":2373:2377  4800 */\n      0x12c0\n        /* \"https://github.com/bokkypoobah/BokkyPooBahsDateTimeLibrary/blob/1ea8ef42b3d8db17b910b46e4f8c124b59d77c03/contracts/BokkyPooBahsDateTimeLibrary.sol\":2365:2370  _year */\n      dup10\n        /* \"https://github.com/bokkypoobah/BokkyPooBahsDateTimeLibrary/blob/1ea8ef42b3d8db17b910b46e4f8c124b59d77c03/contracts/BokkyPooBahsDateTimeLibrary.sol\":2365:2377  _year + 4800 */\n      add\n        /* \"https://github.com/bokkypoobah/BokkyPooBahsDateTimeLibrary/blob/1ea8ef42b3d8db17b910b46e4f8c124b59d77c03/contracts/BokkyPooBahsDateTimeLibrary.sol\":2365:2398  _year + 4800 + (_month - 14) / 12 */\n      add\n        /* \"https://github.com/bokkypoobah/BokkyPooBahsDateTimeLibrary/blob/1ea8ef42b3d8db17b910b46e4f8c124b59d77c03/contracts/BokkyPooBahsDateTimeLibrary.sol\":2357:2361  1461 */\n      0x5b5\n        /* \"https://github.com/bokkypoobah/BokkyPooBahsDateTimeLibrary/blob/1ea8ef42b3d8db17b910b46e4f8c124b59d77c03/contracts/BokkyPooBahsDateTimeLibrary.sol\":2357:2399  1461 * (_year + 4800 + (_month - 14) / 12) */\n      mul\n        /* \"https://github.com/bokkypoobah/BokkyPooBahsDateTimeLibrary/blob/1ea8ef42b3d8db17b910b46e4f8c124b59d77c03/contracts/BokkyPooBahsDateTimeLibrary.sol\":2357:2403  1461 * (_year + 4800 + (_month - 14) / 12) / 4 */\n      dup2\n      iszero\n      iszero\n      tag_223\n      jumpi\n      invalid\n    tag_223:\n      sdiv\n        /* \"https://github.com/bokkypoobah/BokkyPooBahsDateTimeLibrary/blob/1ea8ef42b3d8db17b910b46e4f8c124b59d77c03/contracts/BokkyPooBahsDateTimeLibrary.sol\":2339:2344  32075 */\n      0x7d4b\n        /* \"https://github.com/bokkypoobah/BokkyPooBahsDateTimeLibrary/blob/1ea8ef42b3d8db17b910b46e4f8c124b59d77c03/contracts/BokkyPooBahsDateTimeLibrary.sol\":2322:2326  _day */\n      dup7\n        /* \"https://github.com/bokkypoobah/BokkyPooBahsDateTimeLibrary/blob/1ea8ef42b3d8db17b910b46e4f8c124b59d77c03/contracts/BokkyPooBahsDateTimeLibrary.sol\":2322:2344  _day... */\n      sub\n        /* \"https://github.com/bokkypoobah/BokkyPooBahsDateTimeLibrary/blob/1ea8ef42b3d8db17b910b46e4f8c124b59d77c03/contracts/BokkyPooBahsDateTimeLibrary.sol\":2322:2403  _day... */\n      add\n        /* \"https://github.com/bokkypoobah/BokkyPooBahsDateTimeLibrary/blob/1ea8ef42b3d8db17b910b46e4f8c124b59d77c03/contracts/BokkyPooBahsDateTimeLibrary.sol\":2322:2465  _day... */\n      add\n        /* \"https://github.com/bokkypoobah/BokkyPooBahsDateTimeLibrary/blob/1ea8ef42b3d8db17b910b46e4f8c124b59d77c03/contracts/BokkyPooBahsDateTimeLibrary.sol\":2322:2529  _day... */\n      sub\n        /* \"https://github.com/bokkypoobah/BokkyPooBahsDateTimeLibrary/blob/1ea8ef42b3d8db17b910b46e4f8c124b59d77c03/contracts/BokkyPooBahsDateTimeLibrary.sol\":2322:2556  _day... */\n      sub\n        /* \"https://github.com/bokkypoobah/BokkyPooBahsDateTimeLibrary/blob/1ea8ef42b3d8db17b910b46e4f8c124b59d77c03/contracts/BokkyPooBahsDateTimeLibrary.sol\":2309:2556  int __days = _day... */\n      swap1\n      pop\n        /* \"https://github.com/bokkypoobah/BokkyPooBahsDateTimeLibrary/blob/1ea8ef42b3d8db17b910b46e4f8c124b59d77c03/contracts/BokkyPooBahsDateTimeLibrary.sol\":2580:2586  __days */\n      dup1\n        /* \"https://github.com/bokkypoobah/BokkyPooBahsDateTimeLibrary/blob/1ea8ef42b3d8db17b910b46e4f8c124b59d77c03/contracts/BokkyPooBahsDateTimeLibrary.sol\":2567:2587  _days = uint(__days) */\n      swap5\n      pop\n        /* \"https://github.com/bokkypoobah/BokkyPooBahsDateTimeLibrary/blob/1ea8ef42b3d8db17b910b46e4f8c124b59d77c03/contracts/BokkyPooBahsDateTimeLibrary.sol\":2083:2594  function _daysFromDate(uint year, uint month, uint day) internal pure returns (uint _days) {... */\n      pop\n      pop\n      pop\n      pop\n      swap4\n      swap3\n      pop\n      pop\n      pop\n      jump\t// out\n        /* \"https://github.com/bokkypoobah/BokkyPooBahsDateTimeLibrary/blob/1ea8ef42b3d8db17b910b46e4f8c124b59d77c03/contracts/BokkyPooBahsDateTimeLibrary.sol\":6631:7014  function _getDaysInMonth(uint year, uint month) internal pure returns (uint daysInMonth) {... */\n    tag_212:\n        /* \"https://github.com/bokkypoobah/BokkyPooBahsDateTimeLibrary/blob/1ea8ef42b3d8db17b910b46e4f8c124b59d77c03/contracts/BokkyPooBahsDateTimeLibrary.sol\":6702:6718  uint daysInMonth */\n      0x0\n        /* \"https://github.com/bokkypoobah/BokkyPooBahsDateTimeLibrary/blob/1ea8ef42b3d8db17b910b46e4f8c124b59d77c03/contracts/BokkyPooBahsDateTimeLibrary.sol\":6743:6744  1 */\n      0x1\n        /* \"https://github.com/bokkypoobah/BokkyPooBahsDateTimeLibrary/blob/1ea8ef42b3d8db17b910b46e4f8c124b59d77c03/contracts/BokkyPooBahsDateTimeLibrary.sol\":6734:6739  month */\n      dup3\n        /* \"https://github.com/bokkypoobah/BokkyPooBahsDateTimeLibrary/blob/1ea8ef42b3d8db17b910b46e4f8c124b59d77c03/contracts/BokkyPooBahsDateTimeLibrary.sol\":6734:6744  month == 1 */\n      eq\n        /* \"https://github.com/bokkypoobah/BokkyPooBahsDateTimeLibrary/blob/1ea8ef42b3d8db17b910b46e4f8c124b59d77c03/contracts/BokkyPooBahsDateTimeLibrary.sol\":6734:6758  month == 1 || month == 3 */\n      dup1\n      tag_225\n      jumpi\n      pop\n        /* \"https://github.com/bokkypoobah/BokkyPooBahsDateTimeLibrary/blob/1ea8ef42b3d8db17b910b46e4f8c124b59d77c03/contracts/BokkyPooBahsDateTimeLibrary.sol\":6757:6758  3 */\n      0x3\n        /* \"https://github.com/bokkypoobah/BokkyPooBahsDateTimeLibrary/blob/1ea8ef42b3d8db17b910b46e4f8c124b59d77c03/contracts/BokkyPooBahsDateTimeLibrary.sol\":6748:6753  month */\n      dup3\n        /* \"https://github.com/bokkypoobah/BokkyPooBahsDateTimeLibrary/blob/1ea8ef42b3d8db17b910b46e4f8c124b59d77c03/contracts/BokkyPooBahsDateTimeLibrary.sol\":6748:6758  month == 3 */\n      eq\n        /* \"https://github.com/bokkypoobah/BokkyPooBahsDateTimeLibrary/blob/1ea8ef42b3d8db17b910b46e4f8c124b59d77c03/contracts/BokkyPooBahsDateTimeLibrary.sol\":6734:6758  month == 1 || month == 3 */\n    tag_225:\n        /* \"https://github.com/bokkypoobah/BokkyPooBahsDateTimeLibrary/blob/1ea8ef42b3d8db17b910b46e4f8c124b59d77c03/contracts/BokkyPooBahsDateTimeLibrary.sol\":6734:6772  month == 1 || month == 3 || month == 5 */\n      dup1\n      tag_226\n      jumpi\n      pop\n        /* \"https://github.com/bokkypoobah/BokkyPooBahsDateTimeLibrary/blob/1ea8ef42b3d8db17b910b46e4f8c124b59d77c03/contracts/BokkyPooBahsDateTimeLibrary.sol\":6771:6772  5 */\n      0x5\n        /* \"https://github.com/bokkypoobah/BokkyPooBahsDateTimeLibrary/blob/1ea8ef42b3d8db17b910b46e4f8c124b59d77c03/contracts/BokkyPooBahsDateTimeLibrary.sol\":6762:6767  month */\n      dup3\n        /* \"https://github.com/bokkypoobah/BokkyPooBahsDateTimeLibrary/blob/1ea8ef42b3d8db17b910b46e4f8c124b59d77c03/contracts/BokkyPooBahsDateTimeLibrary.sol\":6762:6772  month == 5 */\n      eq\n        /* \"https://github.com/bokkypoobah/BokkyPooBahsDateTimeLibrary/blob/1ea8ef42b3d8db17b910b46e4f8c124b59d77c03/contracts/BokkyPooBahsDateTimeLibrary.sol\":6734:6772  month == 1 || month == 3 || month == 5 */\n    tag_226:\n        /* \"https://github.com/bokkypoobah/BokkyPooBahsDateTimeLibrary/blob/1ea8ef42b3d8db17b910b46e4f8c124b59d77c03/contracts/BokkyPooBahsDateTimeLibrary.sol\":6734:6786  month == 1 || month == 3 || month == 5 || month == 7 */\n      dup1\n      tag_227\n      jumpi\n      pop\n        /* \"https://github.com/bokkypoobah/BokkyPooBahsDateTimeLibrary/blob/1ea8ef42b3d8db17b910b46e4f8c124b59d77c03/contracts/BokkyPooBahsDateTimeLibrary.sol\":6785:6786  7 */\n      0x7\n        /* \"https://github.com/bokkypoobah/BokkyPooBahsDateTimeLibrary/blob/1ea8ef42b3d8db17b910b46e4f8c124b59d77c03/contracts/BokkyPooBahsDateTimeLibrary.sol\":6776:6781  month */\n      dup3\n        /* \"https://github.com/bokkypoobah/BokkyPooBahsDateTimeLibrary/blob/1ea8ef42b3d8db17b910b46e4f8c124b59d77c03/contracts/BokkyPooBahsDateTimeLibrary.sol\":6776:6786  month == 7 */\n      eq\n        /* \"https://github.com/bokkypoobah/BokkyPooBahsDateTimeLibrary/blob/1ea8ef42b3d8db17b910b46e4f8c124b59d77c03/contracts/BokkyPooBahsDateTimeLibrary.sol\":6734:6786  month == 1 || month == 3 || month == 5 || month == 7 */\n    tag_227:\n        /* \"https://github.com/bokkypoobah/BokkyPooBahsDateTimeLibrary/blob/1ea8ef42b3d8db17b910b46e4f8c124b59d77c03/contracts/BokkyPooBahsDateTimeLibrary.sol\":6734:6800  month == 1 || month == 3 || month == 5 || month == 7 || month == 8 */\n      dup1\n      tag_228\n      jumpi\n      pop\n        /* \"https://github.com/bokkypoobah/BokkyPooBahsDateTimeLibrary/blob/1ea8ef42b3d8db17b910b46e4f8c124b59d77c03/contracts/BokkyPooBahsDateTimeLibrary.sol\":6799:6800  8 */\n      0x8\n        /* \"https://github.com/bokkypoobah/BokkyPooBahsDateTimeLibrary/blob/1ea8ef42b3d8db17b910b46e4f8c124b59d77c03/contracts/BokkyPooBahsDateTimeLibrary.sol\":6790:6795  month */\n      dup3\n        /* \"https://github.com/bokkypoobah/BokkyPooBahsDateTimeLibrary/blob/1ea8ef42b3d8db17b910b46e4f8c124b59d77c03/contracts/BokkyPooBahsDateTimeLibrary.sol\":6790:6800  month == 8 */\n      eq\n        /* \"https://github.com/bokkypoobah/BokkyPooBahsDateTimeLibrary/blob/1ea8ef42b3d8db17b910b46e4f8c124b59d77c03/contracts/BokkyPooBahsDateTimeLibrary.sol\":6734:6800  month == 1 || month == 3 || month == 5 || month == 7 || month == 8 */\n    tag_228:\n        /* \"https://github.com/bokkypoobah/BokkyPooBahsDateTimeLibrary/blob/1ea8ef42b3d8db17b910b46e4f8c124b59d77c03/contracts/BokkyPooBahsDateTimeLibrary.sol\":6734:6815  month == 1 || month == 3 || month == 5 || month == 7 || month == 8 || month == 10 */\n      dup1\n      tag_229\n      jumpi\n      pop\n        /* \"https://github.com/bokkypoobah/BokkyPooBahsDateTimeLibrary/blob/1ea8ef42b3d8db17b910b46e4f8c124b59d77c03/contracts/BokkyPooBahsDateTimeLibrary.sol\":6813:6815  10 */\n      0xa\n        /* \"https://github.com/bokkypoobah/BokkyPooBahsDateTimeLibrary/blob/1ea8ef42b3d8db17b910b46e4f8c124b59d77c03/contracts/BokkyPooBahsDateTimeLibrary.sol\":6804:6809  month */\n      dup3\n        /* \"https://github.com/bokkypoobah/BokkyPooBahsDateTimeLibrary/blob/1ea8ef42b3d8db17b910b46e4f8c124b59d77c03/contracts/BokkyPooBahsDateTimeLibrary.sol\":6804:6815  month == 10 */\n      eq\n        /* \"https://github.com/bokkypoobah/BokkyPooBahsDateTimeLibrary/blob/1ea8ef42b3d8db17b910b46e4f8c124b59d77c03/contracts/BokkyPooBahsDateTimeLibrary.sol\":6734:6815  month == 1 || month == 3 || month == 5 || month == 7 || month == 8 || month == 10 */\n    tag_229:\n        /* \"https://github.com/bokkypoobah/BokkyPooBahsDateTimeLibrary/blob/1ea8ef42b3d8db17b910b46e4f8c124b59d77c03/contracts/BokkyPooBahsDateTimeLibrary.sol\":6734:6830  month == 1 || month == 3 || month == 5 || month == 7 || month == 8 || month == 10 || month == 12 */\n      dup1\n      tag_230\n      jumpi\n      pop\n        /* \"https://github.com/bokkypoobah/BokkyPooBahsDateTimeLibrary/blob/1ea8ef42b3d8db17b910b46e4f8c124b59d77c03/contracts/BokkyPooBahsDateTimeLibrary.sol\":6828:6830  12 */\n      0xc\n        /* \"https://github.com/bokkypoobah/BokkyPooBahsDateTimeLibrary/blob/1ea8ef42b3d8db17b910b46e4f8c124b59d77c03/contracts/BokkyPooBahsDateTimeLibrary.sol\":6819:6824  month */\n      dup3\n        /* \"https://github.com/bokkypoobah/BokkyPooBahsDateTimeLibrary/blob/1ea8ef42b3d8db17b910b46e4f8c124b59d77c03/contracts/BokkyPooBahsDateTimeLibrary.sol\":6819:6830  month == 12 */\n      eq\n        /* \"https://github.com/bokkypoobah/BokkyPooBahsDateTimeLibrary/blob/1ea8ef42b3d8db17b910b46e4f8c124b59d77c03/contracts/BokkyPooBahsDateTimeLibrary.sol\":6734:6830  month == 1 || month == 3 || month == 5 || month == 7 || month == 8 || month == 10 || month == 12 */\n    tag_230:\n        /* \"https://github.com/bokkypoobah/BokkyPooBahsDateTimeLibrary/blob/1ea8ef42b3d8db17b910b46e4f8c124b59d77c03/contracts/BokkyPooBahsDateTimeLibrary.sol\":6730:7008  if (month == 1 || month == 3 || month == 5 || month == 7 || month == 8 || month == 10 || month == 12) {... */\n      iszero\n      tag_231\n      jumpi\n        /* \"https://github.com/bokkypoobah/BokkyPooBahsDateTimeLibrary/blob/1ea8ef42b3d8db17b910b46e4f8c124b59d77c03/contracts/BokkyPooBahsDateTimeLibrary.sol\":6860:6862  31 */\n      0x1f\n        /* \"https://github.com/bokkypoobah/BokkyPooBahsDateTimeLibrary/blob/1ea8ef42b3d8db17b910b46e4f8c124b59d77c03/contracts/BokkyPooBahsDateTimeLibrary.sol\":6846:6862  daysInMonth = 31 */\n      swap1\n      pop\n        /* \"https://github.com/bokkypoobah/BokkyPooBahsDateTimeLibrary/blob/1ea8ef42b3d8db17b910b46e4f8c124b59d77c03/contracts/BokkyPooBahsDateTimeLibrary.sol\":6730:7008  if (month == 1 || month == 3 || month == 5 || month == 7 || month == 8 || month == 10 || month == 12) {... */\n      jump(tag_232)\n    tag_231:\n        /* \"https://github.com/bokkypoobah/BokkyPooBahsDateTimeLibrary/blob/1ea8ef42b3d8db17b910b46e4f8c124b59d77c03/contracts/BokkyPooBahsDateTimeLibrary.sol\":6892:6893  2 */\n      0x2\n        /* \"https://github.com/bokkypoobah/BokkyPooBahsDateTimeLibrary/blob/1ea8ef42b3d8db17b910b46e4f8c124b59d77c03/contracts/BokkyPooBahsDateTimeLibrary.sol\":6883:6888  month */\n      dup3\n        /* \"https://github.com/bokkypoobah/BokkyPooBahsDateTimeLibrary/blob/1ea8ef42b3d8db17b910b46e4f8c124b59d77c03/contracts/BokkyPooBahsDateTimeLibrary.sol\":6883:6893  month != 2 */\n      eq\n      iszero\n        /* \"https://github.com/bokkypoobah/BokkyPooBahsDateTimeLibrary/blob/1ea8ef42b3d8db17b910b46e4f8c124b59d77c03/contracts/BokkyPooBahsDateTimeLibrary.sol\":6879:7008  if (month != 2) {... */\n      iszero\n      tag_233\n      jumpi\n        /* \"https://github.com/bokkypoobah/BokkyPooBahsDateTimeLibrary/blob/1ea8ef42b3d8db17b910b46e4f8c124b59d77c03/contracts/BokkyPooBahsDateTimeLibrary.sol\":6923:6925  30 */\n      0x1e\n        /* \"https://github.com/bokkypoobah/BokkyPooBahsDateTimeLibrary/blob/1ea8ef42b3d8db17b910b46e4f8c124b59d77c03/contracts/BokkyPooBahsDateTimeLibrary.sol\":6909:6925  daysInMonth = 30 */\n      swap1\n      pop\n        /* \"https://github.com/bokkypoobah/BokkyPooBahsDateTimeLibrary/blob/1ea8ef42b3d8db17b910b46e4f8c124b59d77c03/contracts/BokkyPooBahsDateTimeLibrary.sol\":6879:7008  if (month != 2) {... */\n      jump(tag_234)\n    tag_233:\n        /* \"https://github.com/bokkypoobah/BokkyPooBahsDateTimeLibrary/blob/1ea8ef42b3d8db17b910b46e4f8c124b59d77c03/contracts/BokkyPooBahsDateTimeLibrary.sol\":6970:6987  _isLeapYear(year) */\n      tag_235\n        /* \"https://github.com/bokkypoobah/BokkyPooBahsDateTimeLibrary/blob/1ea8ef42b3d8db17b910b46e4f8c124b59d77c03/contracts/BokkyPooBahsDateTimeLibrary.sol\":6982:6986  year */\n      dup4\n        /* \"https://github.com/bokkypoobah/BokkyPooBahsDateTimeLibrary/blob/1ea8ef42b3d8db17b910b46e4f8c124b59d77c03/contracts/BokkyPooBahsDateTimeLibrary.sol\":6970:6981  _isLeapYear */\n      tag_236\n        /* \"https://github.com/bokkypoobah/BokkyPooBahsDateTimeLibrary/blob/1ea8ef42b3d8db17b910b46e4f8c124b59d77c03/contracts/BokkyPooBahsDateTimeLibrary.sol\":6970:6987  _isLeapYear(year) */\n      jump\t// in\n    tag_235:\n        /* \"https://github.com/bokkypoobah/BokkyPooBahsDateTimeLibrary/blob/1ea8ef42b3d8db17b910b46e4f8c124b59d77c03/contracts/BokkyPooBahsDateTimeLibrary.sol\":6970:6997  _isLeapYear(year) ? 29 : 28 */\n      tag_237\n      jumpi\n        /* \"https://github.com/bokkypoobah/BokkyPooBahsDateTimeLibrary/blob/1ea8ef42b3d8db17b910b46e4f8c124b59d77c03/contracts/BokkyPooBahsDateTimeLibrary.sol\":6995:6997  28 */\n      0x1c\n        /* \"https://github.com/bokkypoobah/BokkyPooBahsDateTimeLibrary/blob/1ea8ef42b3d8db17b910b46e4f8c124b59d77c03/contracts/BokkyPooBahsDateTimeLibrary.sol\":6970:6997  _isLeapYear(year) ? 29 : 28 */\n      jump(tag_238)\n    tag_237:\n        /* \"https://github.com/bokkypoobah/BokkyPooBahsDateTimeLibrary/blob/1ea8ef42b3d8db17b910b46e4f8c124b59d77c03/contracts/BokkyPooBahsDateTimeLibrary.sol\":6990:6992  29 */\n      0x1d\n        /* \"https://github.com/bokkypoobah/BokkyPooBahsDateTimeLibrary/blob/1ea8ef42b3d8db17b910b46e4f8c124b59d77c03/contracts/BokkyPooBahsDateTimeLibrary.sol\":6970:6997  _isLeapYear(year) ? 29 : 28 */\n    tag_238:\n        /* \"https://github.com/bokkypoobah/BokkyPooBahsDateTimeLibrary/blob/1ea8ef42b3d8db17b910b46e4f8c124b59d77c03/contracts/BokkyPooBahsDateTimeLibrary.sol\":6956:6997  daysInMonth = _isLeapYear(year) ? 29 : 28 */\n      0xff\n      and\n      swap1\n      pop\n        /* \"https://github.com/bokkypoobah/BokkyPooBahsDateTimeLibrary/blob/1ea8ef42b3d8db17b910b46e4f8c124b59d77c03/contracts/BokkyPooBahsDateTimeLibrary.sol\":6879:7008  if (month != 2) {... */\n    tag_234:\n        /* \"https://github.com/bokkypoobah/BokkyPooBahsDateTimeLibrary/blob/1ea8ef42b3d8db17b910b46e4f8c124b59d77c03/contracts/BokkyPooBahsDateTimeLibrary.sol\":6730:7008  if (month == 1 || month == 3 || month == 5 || month == 7 || month == 8 || month == 10 || month == 12) {... */\n    tag_232:\n        /* \"https://github.com/bokkypoobah/BokkyPooBahsDateTimeLibrary/blob/1ea8ef42b3d8db17b910b46e4f8c124b59d77c03/contracts/BokkyPooBahsDateTimeLibrary.sol\":6631:7014  function _getDaysInMonth(uint year, uint month) internal pure returns (uint daysInMonth) {... */\n      swap3\n      swap2\n      pop\n      pop\n      jump\t// out\n        /* \"https://github.com/bokkypoobah/BokkyPooBahsDateTimeLibrary/blob/1ea8ef42b3d8db17b910b46e4f8c124b59d77c03/contracts/BokkyPooBahsDateTimeLibrary.sol\":5920:6077  function _isLeapYear(uint year) internal pure returns (bool leapYear) {... */\n    tag_236:\n        /* \"https://github.com/bokkypoobah/BokkyPooBahsDateTimeLibrary/blob/1ea8ef42b3d8db17b910b46e4f8c124b59d77c03/contracts/BokkyPooBahsDateTimeLibrary.sol\":5975:5988  bool leapYear */\n      0x0\n        /* \"https://github.com/bokkypoobah/BokkyPooBahsDateTimeLibrary/blob/1ea8ef42b3d8db17b910b46e4f8c124b59d77c03/contracts/BokkyPooBahsDateTimeLibrary.sol\":6025:6026  0 */\n      dup1\n        /* \"https://github.com/bokkypoobah/BokkyPooBahsDateTimeLibrary/blob/1ea8ef42b3d8db17b910b46e4f8c124b59d77c03/contracts/BokkyPooBahsDateTimeLibrary.sol\":6020:6021  4 */\n      0x4\n        /* \"https://github.com/bokkypoobah/BokkyPooBahsDateTimeLibrary/blob/1ea8ef42b3d8db17b910b46e4f8c124b59d77c03/contracts/BokkyPooBahsDateTimeLibrary.sol\":6013:6017  year */\n      dup4\n        /* \"https://github.com/bokkypoobah/BokkyPooBahsDateTimeLibrary/blob/1ea8ef42b3d8db17b910b46e4f8c124b59d77c03/contracts/BokkyPooBahsDateTimeLibrary.sol\":6013:6021  year % 4 */\n      dup2\n      iszero\n      iszero\n      tag_240\n      jumpi\n      invalid\n    tag_240:\n      mod\n        /* \"https://github.com/bokkypoobah/BokkyPooBahsDateTimeLibrary/blob/1ea8ef42b3d8db17b910b46e4f8c124b59d77c03/contracts/BokkyPooBahsDateTimeLibrary.sol\":6013:6026  year % 4 == 0 */\n      eq\n        /* \"https://github.com/bokkypoobah/BokkyPooBahsDateTimeLibrary/blob/1ea8ef42b3d8db17b910b46e4f8c124b59d77c03/contracts/BokkyPooBahsDateTimeLibrary.sol\":6012:6048  (year % 4 == 0) && (year % 100 != 0) */\n      dup1\n      iszero\n      tag_241\n      jumpi\n      pop\n        /* \"https://github.com/bokkypoobah/BokkyPooBahsDateTimeLibrary/blob/1ea8ef42b3d8db17b910b46e4f8c124b59d77c03/contracts/BokkyPooBahsDateTimeLibrary.sol\":6046:6047  0 */\n      0x0\n        /* \"https://github.com/bokkypoobah/BokkyPooBahsDateTimeLibrary/blob/1ea8ef42b3d8db17b910b46e4f8c124b59d77c03/contracts/BokkyPooBahsDateTimeLibrary.sol\":6039:6042  100 */\n      0x64\n        /* \"https://github.com/bokkypoobah/BokkyPooBahsDateTimeLibrary/blob/1ea8ef42b3d8db17b910b46e4f8c124b59d77c03/contracts/BokkyPooBahsDateTimeLibrary.sol\":6032:6036  year */\n      dup4\n        /* \"https://github.com/bokkypoobah/BokkyPooBahsDateTimeLibrary/blob/1ea8ef42b3d8db17b910b46e4f8c124b59d77c03/contracts/BokkyPooBahsDateTimeLibrary.sol\":6032:6042  year % 100 */\n      dup2\n      iszero\n      iszero\n      tag_242\n      jumpi\n      invalid\n    tag_242:\n      mod\n        /* \"https://github.com/bokkypoobah/BokkyPooBahsDateTimeLibrary/blob/1ea8ef42b3d8db17b910b46e4f8c124b59d77c03/contracts/BokkyPooBahsDateTimeLibrary.sol\":6032:6047  year % 100 != 0 */\n      eq\n      iszero\n        /* \"https://github.com/bokkypoobah/BokkyPooBahsDateTimeLibrary/blob/1ea8ef42b3d8db17b910b46e4f8c124b59d77c03/contracts/BokkyPooBahsDateTimeLibrary.sol\":6012:6048  (year % 4 == 0) && (year % 100 != 0) */\n    tag_241:\n        /* \"https://github.com/bokkypoobah/BokkyPooBahsDateTimeLibrary/blob/1ea8ef42b3d8db17b910b46e4f8c124b59d77c03/contracts/BokkyPooBahsDateTimeLibrary.sol\":6011:6070  ((year % 4 == 0) && (year % 100 != 0)) || (year % 400 == 0) */\n      dup1\n      tag_243\n      jumpi\n      pop\n        /* \"https://github.com/bokkypoobah/BokkyPooBahsDateTimeLibrary/blob/1ea8ef42b3d8db17b910b46e4f8c124b59d77c03/contracts/BokkyPooBahsDateTimeLibrary.sol\":6068:6069  0 */\n      0x0\n        /* \"https://github.com/bokkypoobah/BokkyPooBahsDateTimeLibrary/blob/1ea8ef42b3d8db17b910b46e4f8c124b59d77c03/contracts/BokkyPooBahsDateTimeLibrary.sol\":6061:6064  400 */\n      0x190\n        /* \"https://github.com/bokkypoobah/BokkyPooBahsDateTimeLibrary/blob/1ea8ef42b3d8db17b910b46e4f8c124b59d77c03/contracts/BokkyPooBahsDateTimeLibrary.sol\":6054:6058  year */\n      dup4\n        /* \"https://github.com/bokkypoobah/BokkyPooBahsDateTimeLibrary/blob/1ea8ef42b3d8db17b910b46e4f8c124b59d77c03/contracts/BokkyPooBahsDateTimeLibrary.sol\":6054:6064  year % 400 */\n      dup2\n      iszero\n      iszero\n      tag_244\n      jumpi\n      invalid\n    tag_244:\n      mod\n        /* \"https://github.com/bokkypoobah/BokkyPooBahsDateTimeLibrary/blob/1ea8ef42b3d8db17b910b46e4f8c124b59d77c03/contracts/BokkyPooBahsDateTimeLibrary.sol\":6054:6069  year % 400 == 0 */\n      eq\n        /* \"https://github.com/bokkypoobah/BokkyPooBahsDateTimeLibrary/blob/1ea8ef42b3d8db17b910b46e4f8c124b59d77c03/contracts/BokkyPooBahsDateTimeLibrary.sol\":6011:6070  ((year % 4 == 0) && (year % 100 != 0)) || (year % 400 == 0) */\n    tag_243:\n        /* \"https://github.com/bokkypoobah/BokkyPooBahsDateTimeLibrary/blob/1ea8ef42b3d8db17b910b46e4f8c124b59d77c03/contracts/BokkyPooBahsDateTimeLibrary.sol\":6000:6070  leapYear = ((year % 4 == 0) && (year % 100 != 0)) || (year % 400 == 0) */\n      swap1\n      pop\n        /* \"https://github.com/bokkypoobah/BokkyPooBahsDateTimeLibrary/blob/1ea8ef42b3d8db17b910b46e4f8c124b59d77c03/contracts/BokkyPooBahsDateTimeLibrary.sol\":5920:6077  function _isLeapYear(uint year) internal pure returns (bool leapYear) {... */\n      swap2\n      swap1\n      pop\n      jump\t// out\n        /* \"Project-1-AuctionPlatform/AuctionPlatform.sol\":375:9166  contract AuctionPlatform {... */\n    tag_158:\n      mload(0x40)\n      dataSize(sub_0)\n      dup1\n      dataOffset(sub_0)\n      dup4\n      codecopy\n      add\n      swap1\n      jump\t// out\n    stop\n\n    sub_0: assembly {\n            /* \"Project-1-AuctionPlatform/Auction.sol\":59:5333  contract Auction {... */\n          mstore(0x40, 0x80)\n            /* \"Project-1-AuctionPlatform/Auction.sol\":1882:2190  constructor(... */\n          callvalue\n            /* \"--CODEGEN--\":8:17   */\n          dup1\n            /* \"--CODEGEN--\":5:7   */\n          iszero\n          tag_1\n          jumpi\n            /* \"--CODEGEN--\":30:31   */\n          0x0\n            /* \"--CODEGEN--\":27:28   */\n          dup1\n            /* \"--CODEGEN--\":20:32   */\n          revert\n            /* \"--CODEGEN--\":5:7   */\n        tag_1:\n            /* \"Project-1-AuctionPlatform/Auction.sol\":1882:2190  constructor(... */\n          pop\n          mload(0x40)\n          sub(codesize, bytecodeSize)\n          dup1\n          bytecodeSize\n          dup4\n          codecopy\n          dup2\n          add\n          dup1\n          0x40\n          mstore\n          dup2\n          add\n          swap1\n          dup1\n          dup1\n          mload\n          dup3\n          add\n          swap3\n          swap2\n          swap1\n          0x20\n          add\n          dup1\n          mload\n          swap1\n          0x20\n          add\n          swap1\n          swap3\n          swap2\n          swap1\n          dup1\n          mload\n          swap1\n          0x20\n          add\n          swap1\n          swap3\n          swap2\n          swap1\n          dup1\n          mload\n          swap1\n          0x20\n          add\n          swap1\n          swap3\n          swap2\n          swap1\n          pop\n          pop\n          pop\n            /* \"Project-1-AuctionPlatform/Auction.sol\":2079:2091  _description */\n          dup4\n            /* \"Project-1-AuctionPlatform/Auction.sol\":2065:2076  description */\n          0x0\n            /* \"Project-1-AuctionPlatform/Auction.sol\":2065:2091  description = _description */\n          swap1\n          dup1\n          mload\n          swap1\n          0x20\n          add\n          swap1\n          tag_4\n          swap3\n          swap2\n          swap1\n          jump\t// in(tag_5)\n        tag_4:\n          pop\n            /* \"Project-1-AuctionPlatform/Auction.sol\":2113:2123  _startTime */\n          dup3\n            /* \"Project-1-AuctionPlatform/Auction.sol\":2101:2110  startTime */\n          0x1\n            /* \"Project-1-AuctionPlatform/Auction.sol\":2101:2123  startTime = _startTime */\n          dup2\n          swap1\n          sstore\n          pop\n            /* \"Project-1-AuctionPlatform/Auction.sol\":2143:2151  _endTime */\n          dup2\n            /* \"Project-1-AuctionPlatform/Auction.sol\":2133:2140  endTime */\n          0x2\n            /* \"Project-1-AuctionPlatform/Auction.sol\":2133:2151  endTime = _endTime */\n          dup2\n          swap1\n          sstore\n          pop\n            /* \"Project-1-AuctionPlatform/Auction.sol\":2173:2183  _minBidVal */\n          dup1\n            /* \"Project-1-AuctionPlatform/Auction.sol\":2161:2170  minBidVal */\n          0x3\n            /* \"Project-1-AuctionPlatform/Auction.sol\":2161:2183  minBidVal = _minBidVal */\n          dup2\n          swap1\n          sstore\n          pop\n            /* \"Project-1-AuctionPlatform/Auction.sol\":1882:2190  constructor(... */\n          pop\n          pop\n          pop\n          pop\n            /* \"Project-1-AuctionPlatform/Auction.sol\":59:5333  contract Auction {... */\n          jump(tag_6)\n        tag_5:\n          dup3\n          dup1\n          sload\n          0x1\n          dup2\n          0x1\n          and\n          iszero\n          0x100\n          mul\n          sub\n          and\n          0x2\n          swap1\n          div\n          swap1\n          0x0\n          mstore\n          keccak256(0x0, 0x20)\n          swap1\n          0x1f\n          add\n          0x20\n          swap1\n          div\n          dup2\n          add\n          swap3\n          dup3\n          0x1f\n          lt\n          tag_8\n          jumpi\n          dup1\n          mload\n          not(0xff)\n          and\n          dup4\n          dup1\n          add\n          or\n          dup6\n          sstore\n          jump(tag_7)\n        tag_8:\n          dup3\n          dup1\n          add\n          0x1\n          add\n          dup6\n          sstore\n          dup3\n          iszero\n          tag_7\n          jumpi\n          swap2\n          dup3\n          add\n        tag_9:\n          dup3\n          dup2\n          gt\n          iszero\n          tag_10\n          jumpi\n          dup3\n          mload\n          dup3\n          sstore\n          swap2\n          0x20\n          add\n          swap2\n          swap1\n          0x1\n          add\n          swap1\n          jump(tag_9)\n        tag_10:\n        tag_7:\n          pop\n          swap1\n          pop\n          tag_11\n          swap2\n          swap1\n          jump\t// in(tag_12)\n        tag_11:\n          pop\n          swap1\n          jump\t// out\n        tag_12:\n          tag_13\n          swap2\n          swap1\n        tag_14:\n          dup1\n          dup3\n          gt\n          iszero\n          tag_15\n          jumpi\n          0x0\n          dup2\n          0x0\n          swap1\n          sstore\n          pop\n          0x1\n          add\n          jump(tag_14)\n        tag_15:\n          pop\n          swap1\n          jump\n        tag_13:\n          swap1\n          jump\t// out\n        tag_6:\n          dataSize(sub_0)\n          dup1\n          dataOffset(sub_0)\n          0x0\n          codecopy\n          0x0\n          return\n        stop\n\n        sub_0: assembly {\n                /* \"Project-1-AuctionPlatform/Auction.sol\":59:5333  contract Auction {... */\n              mstore(0x40, 0x80)\n              jumpi(tag_1, lt(calldatasize, 0x4))\n              calldataload(0x0)\n              0x100000000000000000000000000000000000000000000000000000000\n              swap1\n              div\n              0xffffffff\n              and\n              dup1\n              0x409766e6\n              eq\n              tag_2\n              jumpi\n              dup1\n              0x43129de1\n              eq\n              tag_3\n              jumpi\n              dup1\n              0x439f5ac2\n              eq\n              tag_4\n              jumpi\n              dup1\n              0x62ea82db\n              eq\n              tag_5\n              jumpi\n              dup1\n              0x659dd2b4\n              eq\n              tag_6\n              jumpi\n              dup1\n              0x679dbf0c\n              eq\n              tag_7\n              jumpi\n              dup1\n              0xad934674\n              eq\n              tag_8\n              jumpi\n              dup1\n              0xdd06ba1a\n              eq\n              tag_9\n              jumpi\n              dup1\n              0xdee37a8e\n              eq\n              tag_10\n              jumpi\n            tag_1:\n              0x0\n              dup1\n              revert\n                /* \"Project-1-AuctionPlatform/Auction.sol\":701:785  function getBidsMade() external view returns (bool) {... */\n            tag_2:\n              callvalue\n                /* \"--CODEGEN--\":8:17   */\n              dup1\n                /* \"--CODEGEN--\":5:7   */\n              iszero\n              tag_11\n              jumpi\n                /* \"--CODEGEN--\":30:31   */\n              0x0\n                /* \"--CODEGEN--\":27:28   */\n              dup1\n                /* \"--CODEGEN--\":20:32   */\n              revert\n                /* \"--CODEGEN--\":5:7   */\n            tag_11:\n                /* \"Project-1-AuctionPlatform/Auction.sol\":701:785  function getBidsMade() external view returns (bool) {... */\n              pop\n              tag_12\n              jump(tag_13)\n            tag_12:\n              mload(0x40)\n              dup1\n              dup3\n              iszero\n              iszero\n              iszero\n              iszero\n              dup2\n              mstore\n              0x20\n              add\n              swap2\n              pop\n              pop\n              mload(0x40)\n              dup1\n              swap2\n              sub\n              swap1\n              return\n                /* \"Project-1-AuctionPlatform/Auction.sol\":2746:3047  function updateBid(uint256 _bidVal) external validBidVal(_bidVal) isActive {... */\n            tag_3:\n              callvalue\n                /* \"--CODEGEN--\":8:17   */\n              dup1\n                /* \"--CODEGEN--\":5:7   */\n              iszero\n              tag_14\n              jumpi\n                /* \"--CODEGEN--\":30:31   */\n              0x0\n                /* \"--CODEGEN--\":27:28   */\n              dup1\n                /* \"--CODEGEN--\":20:32   */\n              revert\n                /* \"--CODEGEN--\":5:7   */\n            tag_14:\n                /* \"Project-1-AuctionPlatform/Auction.sol\":2746:3047  function updateBid(uint256 _bidVal) external validBidVal(_bidVal) isActive {... */\n              pop\n              tag_15\n              0x4\n              dup1\n              calldatasize\n              sub\n              dup2\n              add\n              swap1\n              dup1\n              dup1\n              calldataload\n              swap1\n              0x20\n              add\n              swap1\n              swap3\n              swap2\n              swap1\n              pop\n              pop\n              pop\n              jump(tag_16)\n            tag_15:\n              stop\n                /* \"Project-1-AuctionPlatform/Auction.sol\":841:926  function getEndTime() external view returns (uint256) {... */\n            tag_4:\n              callvalue\n                /* \"--CODEGEN--\":8:17   */\n              dup1\n                /* \"--CODEGEN--\":5:7   */\n              iszero\n              tag_17\n              jumpi\n                /* \"--CODEGEN--\":30:31   */\n              0x0\n                /* \"--CODEGEN--\":27:28   */\n              dup1\n                /* \"--CODEGEN--\":20:32   */\n              revert\n                /* \"--CODEGEN--\":5:7   */\n            tag_17:\n                /* \"Project-1-AuctionPlatform/Auction.sol\":841:926  function getEndTime() external view returns (uint256) {... */\n              pop\n              tag_18\n              jump(tag_19)\n            tag_18:\n              mload(0x40)\n              dup1\n              dup3\n              dup2\n              mstore\n              0x20\n              add\n              swap2\n              pop\n              pop\n              mload(0x40)\n              dup1\n              swap2\n              sub\n              swap1\n              return\n                /* \"Project-1-AuctionPlatform/Auction.sol\":440:479  mapping(address => uint256) public bids */\n            tag_5:\n              callvalue\n                /* \"--CODEGEN--\":8:17   */\n              dup1\n                /* \"--CODEGEN--\":5:7   */\n              iszero\n              tag_20\n              jumpi\n                /* \"--CODEGEN--\":30:31   */\n              0x0\n                /* \"--CODEGEN--\":27:28   */\n              dup1\n                /* \"--CODEGEN--\":20:32   */\n              revert\n                /* \"--CODEGEN--\":5:7   */\n            tag_20:\n                /* \"Project-1-AuctionPlatform/Auction.sol\":440:479  mapping(address => uint256) public bids */\n              pop\n              tag_21\n              0x4\n              dup1\n              calldatasize\n              sub\n              dup2\n              add\n              swap1\n              dup1\n              dup1\n              calldataload\n              0xffffffffffffffffffffffffffffffffffffffff\n              and\n              swap1\n              0x20\n              add\n              swap1\n              swap3\n              swap2\n              swap1\n              pop\n              pop\n              pop\n              jump(tag_22)\n            tag_21:\n              mload(0x40)\n              dup1\n              dup3\n              dup2\n              mstore\n              0x20\n              add\n              swap2\n              pop\n              pop\n              mload(0x40)\n              dup1\n              swap2\n              sub\n              swap1\n              return\n                /* \"Project-1-AuctionPlatform/Auction.sol\":2253:2685  function createBid(uint256 _bidVal)... */\n            tag_6:\n              callvalue\n                /* \"--CODEGEN--\":8:17   */\n              dup1\n                /* \"--CODEGEN--\":5:7   */\n              iszero\n              tag_23\n              jumpi\n                /* \"--CODEGEN--\":30:31   */\n              0x0\n                /* \"--CODEGEN--\":27:28   */\n              dup1\n                /* \"--CODEGEN--\":20:32   */\n              revert\n                /* \"--CODEGEN--\":5:7   */\n            tag_23:\n                /* \"Project-1-AuctionPlatform/Auction.sol\":2253:2685  function createBid(uint256 _bidVal)... */\n              pop\n              tag_24\n              0x4\n              dup1\n              calldatasize\n              sub\n              dup2\n              add\n              swap1\n              dup1\n              dup1\n              calldataload\n              swap1\n              0x20\n              add\n              swap1\n              swap3\n              swap2\n              swap1\n              pop\n              pop\n              pop\n              jump(tag_25)\n            tag_24:\n              stop\n                /* \"Project-1-AuctionPlatform/Auction.sol\":1318:1763  function getListOfBids() external view isActive returns (uint256[]) {... */\n            tag_7:\n              callvalue\n                /* \"--CODEGEN--\":8:17   */\n              dup1\n                /* \"--CODEGEN--\":5:7   */\n              iszero\n              tag_26\n              jumpi\n                /* \"--CODEGEN--\":30:31   */\n              0x0\n                /* \"--CODEGEN--\":27:28   */\n              dup1\n                /* \"--CODEGEN--\":20:32   */\n              revert\n                /* \"--CODEGEN--\":5:7   */\n            tag_26:\n                /* \"Project-1-AuctionPlatform/Auction.sol\":1318:1763  function getListOfBids() external view isActive returns (uint256[]) {... */\n              pop\n              tag_27\n              jump(tag_28)\n            tag_27:\n              mload(0x40)\n              dup1\n              dup1\n              0x20\n              add\n              dup3\n              dup2\n              sub\n              dup3\n              mstore\n              dup4\n              dup2\n              dup2\n              mload\n              dup2\n              mstore\n              0x20\n              add\n              swap2\n              pop\n              dup1\n              mload\n              swap1\n              0x20\n              add\n              swap1\n              0x20\n              mul\n              dup1\n              dup4\n              dup4\n                /* \"--CODEGEN--\":23:24   */\n              0x0\n                /* \"--CODEGEN--\":8:108   */\n            tag_29:\n                /* \"--CODEGEN--\":33:36   */\n              dup4\n                /* \"--CODEGEN--\":30:31   */\n              dup2\n                /* \"--CODEGEN--\":27:37   */\n              lt\n                /* \"--CODEGEN--\":8:108   */\n              iszero\n              tag_30\n              jumpi\n                /* \"--CODEGEN--\":99:100   */\n              dup1\n                /* \"--CODEGEN--\":94:97   */\n              dup3\n                /* \"--CODEGEN--\":90:101   */\n              add\n                /* \"--CODEGEN--\":84:102   */\n              mload\n                /* \"--CODEGEN--\":80:81   */\n              dup2\n                /* \"--CODEGEN--\":75:78   */\n              dup5\n                /* \"--CODEGEN--\":71:82   */\n              add\n                /* \"--CODEGEN--\":64:103   */\n              mstore\n                /* \"--CODEGEN--\":52:54   */\n              0x20\n                /* \"--CODEGEN--\":49:50   */\n              dup2\n                /* \"--CODEGEN--\":45:55   */\n              add\n                /* \"--CODEGEN--\":40:55   */\n              swap1\n              pop\n                /* \"--CODEGEN--\":8:108   */\n              jump(tag_29)\n            tag_30:\n                /* \"--CODEGEN--\":12:26   */\n              pop\n                /* \"Project-1-AuctionPlatform/Auction.sol\":1318:1763  function getListOfBids() external view isActive returns (uint256[]) {... */\n              pop\n              pop\n              pop\n              swap1\n              pop\n              add\n              swap3\n              pop\n              pop\n              pop\n              mload(0x40)\n              dup1\n              swap2\n              sub\n              swap1\n              return\n                /* \"Project-1-AuctionPlatform/Auction.sol\":960:1058  function getMinBidVal() external view isActive returns (uint256) {... */\n            tag_8:\n              callvalue\n                /* \"--CODEGEN--\":8:17   */\n              dup1\n                /* \"--CODEGEN--\":5:7   */\n              iszero\n              tag_32\n              jumpi\n                /* \"--CODEGEN--\":30:31   */\n              0x0\n                /* \"--CODEGEN--\":27:28   */\n              dup1\n                /* \"--CODEGEN--\":20:32   */\n              revert\n                /* \"--CODEGEN--\":5:7   */\n            tag_32:\n                /* \"Project-1-AuctionPlatform/Auction.sol\":960:1058  function getMinBidVal() external view isActive returns (uint256) {... */\n              pop\n              tag_33\n              jump(tag_34)\n            tag_33:\n              mload(0x40)\n              dup1\n              dup3\n              dup2\n              mstore\n              0x20\n              add\n              swap2\n              pop\n              pop\n              mload(0x40)\n              dup1\n              swap2\n              sub\n              swap1\n              return\n                /* \"Project-1-AuctionPlatform/Auction.sol\":3966:4391  function getMaximumBid() external view isActive returns (uint256) {... */\n            tag_9:\n              callvalue\n                /* \"--CODEGEN--\":8:17   */\n              dup1\n                /* \"--CODEGEN--\":5:7   */\n              iszero\n              tag_35\n              jumpi\n                /* \"--CODEGEN--\":30:31   */\n              0x0\n                /* \"--CODEGEN--\":27:28   */\n              dup1\n                /* \"--CODEGEN--\":20:32   */\n              revert\n                /* \"--CODEGEN--\":5:7   */\n            tag_35:\n                /* \"Project-1-AuctionPlatform/Auction.sol\":3966:4391  function getMaximumBid() external view isActive returns (uint256) {... */\n              pop\n              tag_36\n              jump(tag_37)\n            tag_36:\n              mload(0x40)\n              dup1\n              dup3\n              dup2\n              mstore\n              0x20\n              add\n              swap2\n              pop\n              pop\n              mload(0x40)\n              dup1\n              swap2\n              sub\n              swap1\n              return\n                /* \"Project-1-AuctionPlatform/Auction.sol\":3135:3903  function endAuctionWithSelectedBid(uint256 bid)... */\n            tag_10:\n              callvalue\n                /* \"--CODEGEN--\":8:17   */\n              dup1\n                /* \"--CODEGEN--\":5:7   */\n              iszero\n              tag_38\n              jumpi\n                /* \"--CODEGEN--\":30:31   */\n              0x0\n                /* \"--CODEGEN--\":27:28   */\n              dup1\n                /* \"--CODEGEN--\":20:32   */\n              revert\n                /* \"--CODEGEN--\":5:7   */\n            tag_38:\n                /* \"Project-1-AuctionPlatform/Auction.sol\":3135:3903  function endAuctionWithSelectedBid(uint256 bid)... */\n              pop\n              tag_39\n              0x4\n              dup1\n              calldatasize\n              sub\n              dup2\n              add\n              swap1\n              dup1\n              dup1\n              calldataload\n              swap1\n              0x20\n              add\n              swap1\n              swap3\n              swap2\n              swap1\n              pop\n              pop\n              pop\n              jump(tag_40)\n            tag_39:\n              mload(0x40)\n              dup1\n              dup3\n              0xffffffffffffffffffffffffffffffffffffffff\n              and\n              0xffffffffffffffffffffffffffffffffffffffff\n              and\n              dup2\n              mstore\n              0x20\n              add\n              swap2\n              pop\n              pop\n              mload(0x40)\n              dup1\n              swap2\n              sub\n              swap1\n              return\n                /* \"Project-1-AuctionPlatform/Auction.sol\":701:785  function getBidsMade() external view returns (bool) {... */\n            tag_13:\n                /* \"Project-1-AuctionPlatform/Auction.sol\":747:751  bool */\n              0x0\n                /* \"Project-1-AuctionPlatform/Auction.sol\":770:778  bidsMade */\n              0x4\n              0x0\n              swap1\n              sload\n              swap1\n              0x100\n              exp\n              swap1\n              div\n              0xff\n              and\n                /* \"Project-1-AuctionPlatform/Auction.sol\":763:778  return bidsMade */\n              swap1\n              pop\n                /* \"Project-1-AuctionPlatform/Auction.sol\":701:785  function getBidsMade() external view returns (bool) {... */\n              swap1\n              jump\t// out\n                /* \"Project-1-AuctionPlatform/Auction.sol\":2746:3047  function updateBid(uint256 _bidVal) external validBidVal(_bidVal) isActive {... */\n            tag_16:\n                /* \"Project-1-AuctionPlatform/Auction.sol\":2803:2810  _bidVal */\n              dup1\n                /* \"Project-1-AuctionPlatform/Auction.sol\":4981:4990  minBidVal */\n              sload(0x3)\n                /* \"Project-1-AuctionPlatform/Auction.sol\":4971:4978  _bidVal */\n              dup2\n                /* \"Project-1-AuctionPlatform/Auction.sol\":4971:4990  _bidVal > minBidVal */\n              gt\n                /* \"Project-1-AuctionPlatform/Auction.sol\":4950:5085  require(... */\n              iszero\n              iszero\n              tag_43\n              jumpi\n              mload(0x40)\n              0x8c379a000000000000000000000000000000000000000000000000000000000\n              dup2\n              mstore\n              0x4\n              add\n              dup1\n              dup1\n              0x20\n              add\n              dup3\n              dup2\n              sub\n              dup3\n              mstore\n              0x45\n              dup2\n              mstore\n              0x20\n              add\n              dup1\n              0x506c6561736520656e7465722061206269642067726561746572207468616e20\n              dup2\n              mstore\n              0x20\n              add\n              0x6d696e696d756d20726571756972656420626964206f6620676976656e206175\n              dup2\n              mstore\n              0x20\n              add\n              0x6374696f6e000000000000000000000000000000000000000000000000000000\n              dup2\n              mstore\n              pop\n              0x60\n              add\n              swap2\n              pop\n              pop\n              mload(0x40)\n              dup1\n              swap2\n              sub\n              swap1\n              revert\n            tag_43:\n                /* \"Project-1-AuctionPlatform/Auction.sol\":4573:4580  endTime */\n              sload(0x2)\n                /* \"Project-1-AuctionPlatform/Auction.sol\":4555:4570  block.timestamp */\n              timestamp\n                /* \"Project-1-AuctionPlatform/Auction.sol\":4555:4580  block.timestamp < endTime */\n              lt\n                /* \"Project-1-AuctionPlatform/Auction.sol\":4547:4605  require(block.timestamp < endTime, \"Auction is Inactive \") */\n              iszero\n              iszero\n              tag_45\n              jumpi\n              mload(0x40)\n              0x8c379a000000000000000000000000000000000000000000000000000000000\n              dup2\n              mstore\n              0x4\n              add\n              dup1\n              dup1\n              0x20\n              add\n              dup3\n              dup2\n              sub\n              dup3\n              mstore\n              0x14\n              dup2\n              mstore\n              0x20\n              add\n              dup1\n              0x41756374696f6e20697320496e61637469766520000000000000000000000000\n              dup2\n              mstore\n              pop\n              0x20\n              add\n              swap2\n              pop\n              pop\n              mload(0x40)\n              dup1\n              swap2\n              sub\n              swap1\n              revert\n            tag_45:\n                /* \"Project-1-AuctionPlatform/Auction.sol\":2871:2872  0 */\n              0x0\n                /* \"Project-1-AuctionPlatform/Auction.sol\":2852:2856  bids */\n              0x5\n                /* \"Project-1-AuctionPlatform/Auction.sol\":2852:2867  bids[tx.origin] */\n              0x0\n                /* \"Project-1-AuctionPlatform/Auction.sol\":2857:2866  tx.origin */\n              origin\n                /* \"Project-1-AuctionPlatform/Auction.sol\":2852:2867  bids[tx.origin] */\n              0xffffffffffffffffffffffffffffffffffffffff\n              and\n              0xffffffffffffffffffffffffffffffffffffffff\n              and\n              dup2\n              mstore\n              0x20\n              add\n              swap1\n              dup2\n              mstore\n              0x20\n              add\n              0x0\n              keccak256\n              sload\n                /* \"Project-1-AuctionPlatform/Auction.sol\":2852:2872  bids[tx.origin] != 0 */\n              eq\n              iszero\n                /* \"Project-1-AuctionPlatform/Auction.sol\":2831:2957  require(... */\n              iszero\n              iszero\n              tag_47\n              jumpi\n              mload(0x40)\n              0x8c379a000000000000000000000000000000000000000000000000000000000\n              dup2\n              mstore\n              0x4\n              add\n              dup1\n              dup1\n              0x20\n              add\n              dup3\n              dup2\n              sub\n              dup3\n              mstore\n              0x3b\n              dup2\n              mstore\n              0x20\n              add\n              dup1\n              0x596f7520686176656e2774206372656174656420616e79206269642c20757365\n              dup2\n              mstore\n              0x20\n              add\n              0x2063726561746542696420666f72206372656174696e67206f6e650000000000\n              dup2\n              mstore\n              pop\n              0x40\n              add\n              swap2\n              pop\n              pop\n              mload(0x40)\n              dup1\n              swap2\n              sub\n              swap1\n              revert\n            tag_47:\n                /* \"Project-1-AuctionPlatform/Auction.sol\":3033:3040  _bidVal */\n              dup2\n                /* \"Project-1-AuctionPlatform/Auction.sol\":3015:3019  bids */\n              0x5\n                /* \"Project-1-AuctionPlatform/Auction.sol\":3015:3030  bids[tx.origin] */\n              0x0\n                /* \"Project-1-AuctionPlatform/Auction.sol\":3020:3029  tx.origin */\n              origin\n                /* \"Project-1-AuctionPlatform/Auction.sol\":3015:3030  bids[tx.origin] */\n              0xffffffffffffffffffffffffffffffffffffffff\n              and\n              0xffffffffffffffffffffffffffffffffffffffff\n              and\n              dup2\n              mstore\n              0x20\n              add\n              swap1\n              dup2\n              mstore\n              0x20\n              add\n              0x0\n              keccak256\n                /* \"Project-1-AuctionPlatform/Auction.sol\":3015:3040  bids[tx.origin] = _bidVal */\n              dup2\n              swap1\n              sstore\n              pop\n                /* \"Project-1-AuctionPlatform/Auction.sol\":2746:3047  function updateBid(uint256 _bidVal) external validBidVal(_bidVal) isActive {... */\n              pop\n              pop\n              jump\t// out\n                /* \"Project-1-AuctionPlatform/Auction.sol\":841:926  function getEndTime() external view returns (uint256) {... */\n            tag_19:\n                /* \"Project-1-AuctionPlatform/Auction.sol\":886:893  uint256 */\n              0x0\n                /* \"Project-1-AuctionPlatform/Auction.sol\":912:919  endTime */\n              sload(0x2)\n                /* \"Project-1-AuctionPlatform/Auction.sol\":905:919  return endTime */\n              swap1\n              pop\n                /* \"Project-1-AuctionPlatform/Auction.sol\":841:926  function getEndTime() external view returns (uint256) {... */\n              swap1\n              jump\t// out\n                /* \"Project-1-AuctionPlatform/Auction.sol\":440:479  mapping(address => uint256) public bids */\n            tag_22:\n              mstore(0x20, 0x5)\n              dup1\n              0x0\n              mstore\n              keccak256(0x0, 0x40)\n              0x0\n              swap2\n              pop\n              swap1\n              pop\n              sload\n              dup2\n              jump\t// out\n                /* \"Project-1-AuctionPlatform/Auction.sol\":2253:2685  function createBid(uint256 _bidVal)... */\n            tag_25:\n                /* \"Project-1-AuctionPlatform/Auction.sol\":2326:2333  _bidVal */\n              dup1\n                /* \"Project-1-AuctionPlatform/Auction.sol\":4981:4990  minBidVal */\n              sload(0x3)\n                /* \"Project-1-AuctionPlatform/Auction.sol\":4971:4978  _bidVal */\n              dup2\n                /* \"Project-1-AuctionPlatform/Auction.sol\":4971:4990  _bidVal > minBidVal */\n              gt\n                /* \"Project-1-AuctionPlatform/Auction.sol\":4950:5085  require(... */\n              iszero\n              iszero\n              tag_50\n              jumpi\n              mload(0x40)\n              0x8c379a000000000000000000000000000000000000000000000000000000000\n              dup2\n              mstore\n              0x4\n              add\n              dup1\n              dup1\n              0x20\n              add\n              dup3\n              dup2\n              sub\n              dup3\n              mstore\n              0x45\n              dup2\n              mstore\n              0x20\n              add\n              dup1\n              0x506c6561736520656e7465722061206269642067726561746572207468616e20\n              dup2\n              mstore\n              0x20\n              add\n              0x6d696e696d756d20726571756972656420626964206f6620676976656e206175\n              dup2\n              mstore\n              0x20\n              add\n              0x6374696f6e000000000000000000000000000000000000000000000000000000\n              dup2\n              mstore\n              pop\n              0x60\n              add\n              swap2\n              pop\n              pop\n              mload(0x40)\n              dup1\n              swap2\n              sub\n              swap1\n              revert\n            tag_50:\n                /* \"Project-1-AuctionPlatform/Auction.sol\":4573:4580  endTime */\n              sload(0x2)\n                /* \"Project-1-AuctionPlatform/Auction.sol\":4555:4570  block.timestamp */\n              timestamp\n                /* \"Project-1-AuctionPlatform/Auction.sol\":4555:4580  block.timestamp < endTime */\n              lt\n                /* \"Project-1-AuctionPlatform/Auction.sol\":4547:4605  require(block.timestamp < endTime, \"Auction is Inactive \") */\n              iszero\n              iszero\n              tag_52\n              jumpi\n              mload(0x40)\n              0x8c379a000000000000000000000000000000000000000000000000000000000\n              dup2\n              mstore\n              0x4\n              add\n              dup1\n              dup1\n              0x20\n              add\n              dup3\n              dup2\n              sub\n              dup3\n              mstore\n              0x14\n              dup2\n              mstore\n              0x20\n              add\n              dup1\n              0x41756374696f6e20697320496e61637469766520000000000000000000000000\n              dup2\n              mstore\n              pop\n              0x20\n              add\n              swap2\n              pop\n              pop\n              mload(0x40)\n              dup1\n              swap2\n              sub\n              swap1\n              revert\n            tag_52:\n                /* \"Project-1-AuctionPlatform/Auction.sol\":4752:4753  0 */\n              0x0\n                /* \"Project-1-AuctionPlatform/Auction.sol\":4733:4737  bids */\n              0x5\n                /* \"Project-1-AuctionPlatform/Auction.sol\":4733:4748  bids[tx.origin] */\n              0x0\n                /* \"Project-1-AuctionPlatform/Auction.sol\":4738:4747  tx.origin */\n              origin\n                /* \"Project-1-AuctionPlatform/Auction.sol\":4733:4748  bids[tx.origin] */\n              0xffffffffffffffffffffffffffffffffffffffff\n              and\n              0xffffffffffffffffffffffffffffffffffffffff\n              and\n              dup2\n              mstore\n              0x20\n              add\n              swap1\n              dup2\n              mstore\n              0x20\n              add\n              0x0\n              keccak256\n              sload\n                /* \"Project-1-AuctionPlatform/Auction.sol\":4733:4753  bids[tx.origin] == 0 */\n              eq\n                /* \"Project-1-AuctionPlatform/Auction.sol\":4725:4788  require(bids[tx.origin] == 0, \"You have already created a bid\") */\n              iszero\n              iszero\n              tag_54\n              jumpi\n              mload(0x40)\n              0x8c379a000000000000000000000000000000000000000000000000000000000\n              dup2\n              mstore\n              0x4\n              add\n              dup1\n              dup1\n              0x20\n              add\n              dup3\n              dup2\n              sub\n              dup3\n              mstore\n              0x1e\n              dup2\n              mstore\n              0x20\n              add\n              dup1\n              0x596f75206861766520616c726561647920637265617465642061206269640000\n              dup2\n              mstore\n              pop\n              0x20\n              add\n              swap2\n              pop\n              pop\n              mload(0x40)\n              dup1\n              swap2\n              sub\n              swap1\n              revert\n            tag_54:\n                /* \"Project-1-AuctionPlatform/Auction.sol\":2398:2402  true */\n              0x1\n                /* \"Project-1-AuctionPlatform/Auction.sol\":2387:2395  bidsMade */\n              0x4\n              0x0\n                /* \"Project-1-AuctionPlatform/Auction.sol\":2387:2402  bidsMade = true */\n              0x100\n              exp\n              dup2\n              sload\n              dup2\n              0xff\n              mul\n              not\n              and\n              swap1\n              dup4\n              iszero\n              iszero\n              mul\n              or\n              swap1\n              sstore\n              pop\n                /* \"Project-1-AuctionPlatform/Auction.sol\":2465:2472  _bidVal */\n              dup2\n                /* \"Project-1-AuctionPlatform/Auction.sol\":2447:2451  bids */\n              0x5\n                /* \"Project-1-AuctionPlatform/Auction.sol\":2447:2462  bids[tx.origin] */\n              0x0\n                /* \"Project-1-AuctionPlatform/Auction.sol\":2452:2461  tx.origin */\n              origin\n                /* \"Project-1-AuctionPlatform/Auction.sol\":2447:2462  bids[tx.origin] */\n              0xffffffffffffffffffffffffffffffffffffffff\n              and\n              0xffffffffffffffffffffffffffffffffffffffff\n              and\n              dup2\n              mstore\n              0x20\n              add\n              swap1\n              dup2\n              mstore\n              0x20\n              add\n              0x0\n              keccak256\n                /* \"Project-1-AuctionPlatform/Auction.sol\":2447:2472  bids[tx.origin] = _bidVal */\n              dup2\n              swap1\n              sstore\n              pop\n                /* \"Project-1-AuctionPlatform/Auction.sol\":2561:2572  biddersList */\n              0x6\n                /* \"Project-1-AuctionPlatform/Auction.sol\":2578:2587  tx.origin */\n              origin\n                /* \"Project-1-AuctionPlatform/Auction.sol\":2561:2588  biddersList.push(tx.origin) */\n              swap1\n              dup1\n                /* \"--CODEGEN--\":39:40   */\n              0x1\n                /* \"--CODEGEN--\":33:36   */\n              dup2\n                /* \"--CODEGEN--\":27:37   */\n              sload\n                /* \"--CODEGEN--\":23:41   */\n              add\n                /* \"--CODEGEN--\":57:67   */\n              dup1\n                /* \"--CODEGEN--\":52:55   */\n              dup3\n                /* \"--CODEGEN--\":45:68   */\n              sstore\n                /* \"--CODEGEN--\":79:89   */\n              dup1\n                /* \"--CODEGEN--\":72:89   */\n              swap2\n              pop\n                /* \"--CODEGEN--\":0:93   */\n              pop\n                /* \"Project-1-AuctionPlatform/Auction.sol\":2561:2588  biddersList.push(tx.origin) */\n              swap1\n              0x1\n              dup3\n              sub\n              swap1\n              0x0\n              mstore\n              keccak256(0x0, 0x20)\n              add\n              0x0\n              swap1\n              swap2\n              swap3\n              swap1\n              swap2\n              swap1\n              swap2\n              0x100\n              exp\n              dup2\n              sload\n              dup2\n              0xffffffffffffffffffffffffffffffffffffffff\n              mul\n              not\n              and\n              swap1\n              dup4\n              0xffffffffffffffffffffffffffffffffffffffff\n              and\n              mul\n              or\n              swap1\n              sstore\n              pop\n              pop\n                /* \"Project-1-AuctionPlatform/Auction.sol\":2253:2685  function createBid(uint256 _bidVal)... */\n              pop\n              pop\n              jump\t// out\n                /* \"Project-1-AuctionPlatform/Auction.sol\":1318:1763  function getListOfBids() external view isActive returns (uint256[]) {... */\n            tag_28:\n                /* \"Project-1-AuctionPlatform/Auction.sol\":1375:1384  uint256[] */\n              0x60\n                /* \"Project-1-AuctionPlatform/Auction.sol\":1456:1477  uint256[] memory list */\n              dup1\n                /* \"Project-1-AuctionPlatform/Auction.sol\":1640:1649  uint256 i */\n              0x0\n                /* \"Project-1-AuctionPlatform/Auction.sol\":4573:4580  endTime */\n              sload(0x2)\n                /* \"Project-1-AuctionPlatform/Auction.sol\":4555:4570  block.timestamp */\n              timestamp\n                /* \"Project-1-AuctionPlatform/Auction.sol\":4555:4580  block.timestamp < endTime */\n              lt\n                /* \"Project-1-AuctionPlatform/Auction.sol\":4547:4605  require(block.timestamp < endTime, \"Auction is Inactive \") */\n              iszero\n              iszero\n              tag_58\n              jumpi\n              mload(0x40)\n              0x8c379a000000000000000000000000000000000000000000000000000000000\n              dup2\n              mstore\n              0x4\n              add\n              dup1\n              dup1\n              0x20\n              add\n              dup3\n              dup2\n              sub\n              dup3\n              mstore\n              0x14\n              dup2\n              mstore\n              0x20\n              add\n              dup1\n              0x41756374696f6e20697320496e61637469766520000000000000000000000000\n              dup2\n              mstore\n              pop\n              0x20\n              add\n              swap2\n              pop\n              pop\n              mload(0x40)\n              dup1\n              swap2\n              sub\n              swap1\n              revert\n            tag_58:\n                /* \"Project-1-AuctionPlatform/Auction.sol\":1494:1505  biddersList */\n              0x6\n                /* \"Project-1-AuctionPlatform/Auction.sol\":1494:1512  biddersList.length */\n              dup1\n              sload\n              swap1\n              pop\n                /* \"Project-1-AuctionPlatform/Auction.sol\":1480:1513  new uint256[](biddersList.length) */\n              mload(0x40)\n              swap1\n              dup1\n              dup3\n              mstore\n              dup1\n              0x20\n              mul\n              0x20\n              add\n              dup3\n              add\n              0x40\n              mstore\n              dup1\n              iszero\n              tag_60\n              jumpi\n              dup2\n              0x20\n              add\n                /* \"--CODEGEN--\":29:31   */\n              0x20\n                /* \"--CODEGEN--\":21:27   */\n              dup3\n                /* \"--CODEGEN--\":17:32   */\n              mul\n                /* \"--CODEGEN--\":117:121   */\n              dup1\n                /* \"--CODEGEN--\":105:115   */\n              codesize\n                /* \"--CODEGEN--\":97:103   */\n              dup4\n                /* \"--CODEGEN--\":88:122   */\n              codecopy\n                /* \"--CODEGEN--\":148:152   */\n              dup1\n                /* \"--CODEGEN--\":140:146   */\n              dup3\n                /* \"--CODEGEN--\":136:153   */\n              add\n                /* \"--CODEGEN--\":126:153   */\n              swap2\n              pop\n                /* \"--CODEGEN--\":0:157   */\n              pop\n                /* \"Project-1-AuctionPlatform/Auction.sol\":1480:1513  new uint256[](biddersList.length) */\n              swap1\n              pop\n            tag_60:\n              pop\n                /* \"Project-1-AuctionPlatform/Auction.sol\":1456:1513  uint256[] memory list = new uint256[](biddersList.length) */\n              swap2\n              pop\n                /* \"Project-1-AuctionPlatform/Auction.sol\":1635:1735  for (uint256 i; i < biddersList.length; i++) {... */\n            tag_61:\n                /* \"Project-1-AuctionPlatform/Auction.sol\":1655:1666  biddersList */\n              0x6\n                /* \"Project-1-AuctionPlatform/Auction.sol\":1655:1673  biddersList.length */\n              dup1\n              sload\n              swap1\n              pop\n                /* \"Project-1-AuctionPlatform/Auction.sol\":1651:1652  i */\n              dup2\n                /* \"Project-1-AuctionPlatform/Auction.sol\":1651:1673  i < biddersList.length */\n              lt\n                /* \"Project-1-AuctionPlatform/Auction.sol\":1635:1735  for (uint256 i; i < biddersList.length; i++) {... */\n              iszero\n              tag_62\n              jumpi\n                /* \"Project-1-AuctionPlatform/Auction.sol\":1704:1708  bids */\n              0x5\n                /* \"Project-1-AuctionPlatform/Auction.sol\":1704:1724  bids[biddersList[i]] */\n              0x0\n                /* \"Project-1-AuctionPlatform/Auction.sol\":1709:1720  biddersList */\n              0x6\n                /* \"Project-1-AuctionPlatform/Auction.sol\":1721:1722  i */\n              dup4\n                /* \"Project-1-AuctionPlatform/Auction.sol\":1709:1723  biddersList[i] */\n              dup2\n              sload\n              dup2\n              lt\n              iszero\n              iszero\n              tag_64\n              jumpi\n              invalid\n            tag_64:\n              swap1\n              0x0\n              mstore\n              keccak256(0x0, 0x20)\n              add\n              0x0\n              swap1\n              sload\n              swap1\n              0x100\n              exp\n              swap1\n              div\n              0xffffffffffffffffffffffffffffffffffffffff\n              and\n                /* \"Project-1-AuctionPlatform/Auction.sol\":1704:1724  bids[biddersList[i]] */\n              0xffffffffffffffffffffffffffffffffffffffff\n              and\n              0xffffffffffffffffffffffffffffffffffffffff\n              and\n              dup2\n              mstore\n              0x20\n              add\n              swap1\n              dup2\n              mstore\n              0x20\n              add\n              0x0\n              keccak256\n              sload\n                /* \"Project-1-AuctionPlatform/Auction.sol\":1694:1698  list */\n              dup3\n                /* \"Project-1-AuctionPlatform/Auction.sol\":1699:1700  i */\n              dup3\n                /* \"Project-1-AuctionPlatform/Auction.sol\":1694:1701  list[i] */\n              dup2\n              mload\n              dup2\n              lt\n              iszero\n              iszero\n              tag_66\n              jumpi\n              invalid\n            tag_66:\n              swap1\n              0x20\n              add\n              swap1\n              0x20\n              mul\n              add\n                /* \"Project-1-AuctionPlatform/Auction.sol\":1694:1724  list[i] = bids[biddersList[i]] */\n              dup2\n              dup2\n              mstore\n              pop\n              pop\n                /* \"Project-1-AuctionPlatform/Auction.sol\":1675:1678  i++ */\n              dup1\n              dup1\n              0x1\n              add\n              swap2\n              pop\n              pop\n                /* \"Project-1-AuctionPlatform/Auction.sol\":1635:1735  for (uint256 i; i < biddersList.length; i++) {... */\n              jump(tag_61)\n            tag_62:\n                /* \"Project-1-AuctionPlatform/Auction.sol\":1752:1756  list */\n              dup2\n                /* \"Project-1-AuctionPlatform/Auction.sol\":1745:1756  return list */\n              swap3\n              pop\n                /* \"Project-1-AuctionPlatform/Auction.sol\":1318:1763  function getListOfBids() external view isActive returns (uint256[]) {... */\n              pop\n              pop\n              swap1\n              jump\t// out\n                /* \"Project-1-AuctionPlatform/Auction.sol\":960:1058  function getMinBidVal() external view isActive returns (uint256) {... */\n            tag_34:\n                /* \"Project-1-AuctionPlatform/Auction.sol\":1016:1023  uint256 */\n              0x0\n                /* \"Project-1-AuctionPlatform/Auction.sol\":4573:4580  endTime */\n              sload(0x2)\n                /* \"Project-1-AuctionPlatform/Auction.sol\":4555:4570  block.timestamp */\n              timestamp\n                /* \"Project-1-AuctionPlatform/Auction.sol\":4555:4580  block.timestamp < endTime */\n              lt\n                /* \"Project-1-AuctionPlatform/Auction.sol\":4547:4605  require(block.timestamp < endTime, \"Auction is Inactive \") */\n              iszero\n              iszero\n              tag_68\n              jumpi\n              mload(0x40)\n              0x8c379a000000000000000000000000000000000000000000000000000000000\n              dup2\n              mstore\n              0x4\n              add\n              dup1\n              dup1\n              0x20\n              add\n              dup3\n              dup2\n              sub\n              dup3\n              mstore\n              0x14\n              dup2\n              mstore\n              0x20\n              add\n              dup1\n              0x41756374696f6e20697320496e61637469766520000000000000000000000000\n              dup2\n              mstore\n              pop\n              0x20\n              add\n              swap2\n              pop\n              pop\n              mload(0x40)\n              dup1\n              swap2\n              sub\n              swap1\n              revert\n            tag_68:\n                /* \"Project-1-AuctionPlatform/Auction.sol\":1042:1051  minBidVal */\n              sload(0x3)\n                /* \"Project-1-AuctionPlatform/Auction.sol\":1035:1051  return minBidVal */\n              swap1\n              pop\n                /* \"Project-1-AuctionPlatform/Auction.sol\":960:1058  function getMinBidVal() external view isActive returns (uint256) {... */\n              swap1\n              jump\t// out\n                /* \"Project-1-AuctionPlatform/Auction.sol\":3966:4391  function getMaximumBid() external view isActive returns (uint256) {... */\n            tag_37:\n                /* \"Project-1-AuctionPlatform/Auction.sol\":4023:4030  uint256 */\n              0x0\n                /* \"Project-1-AuctionPlatform/Auction.sol\":4042:4056  uint256 maxBid */\n              dup1\n                /* \"Project-1-AuctionPlatform/Auction.sol\":4125:4134  uint256 i */\n              0x0\n                /* \"Project-1-AuctionPlatform/Auction.sol\":4573:4580  endTime */\n              sload(0x2)\n                /* \"Project-1-AuctionPlatform/Auction.sol\":4555:4570  block.timestamp */\n              timestamp\n                /* \"Project-1-AuctionPlatform/Auction.sol\":4555:4580  block.timestamp < endTime */\n              lt\n                /* \"Project-1-AuctionPlatform/Auction.sol\":4547:4605  require(block.timestamp < endTime, \"Auction is Inactive \") */\n              iszero\n              iszero\n              tag_71\n              jumpi\n              mload(0x40)\n              0x8c379a000000000000000000000000000000000000000000000000000000000\n              dup2\n              mstore\n              0x4\n              add\n              dup1\n              dup1\n              0x20\n              add\n              dup3\n              dup2\n              sub\n              dup3\n              mstore\n              0x14\n              dup2\n              mstore\n              0x20\n              add\n              dup1\n              0x41756374696f6e20697320496e61637469766520000000000000000000000000\n              dup2\n              mstore\n              pop\n              0x20\n              add\n              swap2\n              pop\n              pop\n              mload(0x40)\n              dup1\n              swap2\n              sub\n              swap1\n              revert\n            tag_71:\n                /* \"Project-1-AuctionPlatform/Auction.sol\":4059:4060  0 */\n              0x0\n                /* \"Project-1-AuctionPlatform/Auction.sol\":4042:4060  uint256 maxBid = 0 */\n              swap2\n              pop\n                /* \"Project-1-AuctionPlatform/Auction.sol\":4120:4362  for (uint256 i; i < biddersList.length; i++) {... */\n            tag_73:\n                /* \"Project-1-AuctionPlatform/Auction.sol\":4140:4151  biddersList */\n              0x6\n                /* \"Project-1-AuctionPlatform/Auction.sol\":4140:4158  biddersList.length */\n              dup1\n              sload\n              swap1\n              pop\n                /* \"Project-1-AuctionPlatform/Auction.sol\":4136:4137  i */\n              dup2\n                /* \"Project-1-AuctionPlatform/Auction.sol\":4136:4158  i < biddersList.length */\n              lt\n                /* \"Project-1-AuctionPlatform/Auction.sol\":4120:4362  for (uint256 i; i < biddersList.length; i++) {... */\n              iszero\n              tag_74\n              jumpi\n                /* \"Project-1-AuctionPlatform/Auction.sol\":4261:4294  max(bids[biddersList[i]], maxBid) */\n              tag_76\n                /* \"Project-1-AuctionPlatform/Auction.sol\":4265:4269  bids */\n              0x5\n                /* \"Project-1-AuctionPlatform/Auction.sol\":4265:4285  bids[biddersList[i]] */\n              0x0\n                /* \"Project-1-AuctionPlatform/Auction.sol\":4270:4281  biddersList */\n              0x6\n                /* \"Project-1-AuctionPlatform/Auction.sol\":4282:4283  i */\n              dup5\n                /* \"Project-1-AuctionPlatform/Auction.sol\":4270:4284  biddersList[i] */\n              dup2\n              sload\n              dup2\n              lt\n              iszero\n              iszero\n              tag_77\n              jumpi\n              invalid\n            tag_77:\n              swap1\n              0x0\n              mstore\n              keccak256(0x0, 0x20)\n              add\n              0x0\n              swap1\n              sload\n              swap1\n              0x100\n              exp\n              swap1\n              div\n              0xffffffffffffffffffffffffffffffffffffffff\n              and\n                /* \"Project-1-AuctionPlatform/Auction.sol\":4265:4285  bids[biddersList[i]] */\n              0xffffffffffffffffffffffffffffffffffffffff\n              and\n              0xffffffffffffffffffffffffffffffffffffffff\n              and\n              dup2\n              mstore\n              0x20\n              add\n              swap1\n              dup2\n              mstore\n              0x20\n              add\n              0x0\n              keccak256\n              sload\n                /* \"Project-1-AuctionPlatform/Auction.sol\":4287:4293  maxBid */\n              dup4\n                /* \"Project-1-AuctionPlatform/Auction.sol\":4261:4264  max */\n              tag_79\n                /* \"Project-1-AuctionPlatform/Auction.sol\":4261:4294  max(bids[biddersList[i]], maxBid) */\n              jump\t// in\n            tag_76:\n                /* \"Project-1-AuctionPlatform/Auction.sol\":4252:4294  maxBid = max(bids[biddersList[i]], maxBid) */\n              swap2\n              pop\n                /* \"Project-1-AuctionPlatform/Auction.sol\":4160:4163  i++ */\n              dup1\n              dup1\n              0x1\n              add\n              swap2\n              pop\n              pop\n                /* \"Project-1-AuctionPlatform/Auction.sol\":4120:4362  for (uint256 i; i < biddersList.length; i++) {... */\n              jump(tag_73)\n            tag_74:\n                /* \"Project-1-AuctionPlatform/Auction.sol\":4378:4384  maxBid */\n              dup2\n                /* \"Project-1-AuctionPlatform/Auction.sol\":4371:4384  return maxBid */\n              swap3\n              pop\n                /* \"Project-1-AuctionPlatform/Auction.sol\":3966:4391  function getMaximumBid() external view isActive returns (uint256) {... */\n              pop\n              pop\n              swap1\n              jump\t// out\n                /* \"Project-1-AuctionPlatform/Auction.sol\":3135:3903  function endAuctionWithSelectedBid(uint256 bid)... */\n            tag_40:\n                /* \"Project-1-AuctionPlatform/Auction.sol\":3253:3260  address */\n              0x0\n                /* \"Project-1-AuctionPlatform/Auction.sol\":3370:3384  address winner */\n              dup1\n                /* \"Project-1-AuctionPlatform/Auction.sol\":3449:3458  uint256 i */\n              0x0\n                /* \"Project-1-AuctionPlatform/Auction.sol\":4573:4580  endTime */\n              sload(0x2)\n                /* \"Project-1-AuctionPlatform/Auction.sol\":4555:4570  block.timestamp */\n              timestamp\n                /* \"Project-1-AuctionPlatform/Auction.sol\":4555:4580  block.timestamp < endTime */\n              lt\n                /* \"Project-1-AuctionPlatform/Auction.sol\":4547:4605  require(block.timestamp < endTime, \"Auction is Inactive \") */\n              iszero\n              iszero\n              tag_81\n              jumpi\n              mload(0x40)\n              0x8c379a000000000000000000000000000000000000000000000000000000000\n              dup2\n              mstore\n              0x4\n              add\n              dup1\n              dup1\n              0x20\n              add\n              dup3\n              dup2\n              sub\n              dup3\n              mstore\n              0x14\n              dup2\n              mstore\n              0x20\n              add\n              dup1\n              0x41756374696f6e20697320496e61637469766520000000000000000000000000\n              dup2\n              mstore\n              pop\n              0x20\n              add\n              swap2\n              pop\n              pop\n              mload(0x40)\n              dup1\n              swap2\n              sub\n              swap1\n              revert\n            tag_81:\n                /* \"Project-1-AuctionPlatform/Auction.sol\":5212:5223  uint256 len */\n              0x0\n                /* \"Project-1-AuctionPlatform/Auction.sol\":5226:5237  biddersList */\n              0x6\n                /* \"Project-1-AuctionPlatform/Auction.sol\":5226:5244  biddersList.length */\n              dup1\n              sload\n              swap1\n              pop\n                /* \"Project-1-AuctionPlatform/Auction.sol\":5212:5244  uint256 len = biddersList.length */\n              swap1\n              pop\n                /* \"Project-1-AuctionPlatform/Auction.sol\":5268:5269  0 */\n              0x0\n                /* \"Project-1-AuctionPlatform/Auction.sol\":5262:5265  len */\n              dup2\n                /* \"Project-1-AuctionPlatform/Auction.sol\":5262:5269  len > 0 */\n              gt\n                /* \"Project-1-AuctionPlatform/Auction.sol\":5254:5313  require(len > 0, \"Can't end as no bids have been made yet\") */\n              iszero\n              iszero\n              tag_83\n              jumpi\n              mload(0x40)\n              0x8c379a000000000000000000000000000000000000000000000000000000000\n              dup2\n              mstore\n              0x4\n              add\n              dup1\n              dup1\n              0x20\n              add\n              dup3\n              dup2\n              sub\n              dup3\n              mstore\n              0x27\n              dup2\n              mstore\n              0x20\n              add\n              dup1\n              0x43616e277420656e64206173206e6f20626964732068617665206265656e206d\n              dup2\n              mstore\n              0x20\n              add\n              0x6164652079657400000000000000000000000000000000000000000000000000\n              dup2\n              mstore\n              pop\n              0x40\n              add\n              swap2\n              pop\n              pop\n              mload(0x40)\n              dup1\n              swap2\n              sub\n              swap1\n              revert\n            tag_83:\n                /* \"Project-1-AuctionPlatform/Auction.sol\":3286:3301  block.timestamp */\n              timestamp\n                /* \"Project-1-AuctionPlatform/Auction.sol\":3276:3283  endTime */\n              0x2\n                /* \"Project-1-AuctionPlatform/Auction.sol\":3276:3301  endTime = block.timestamp */\n              dup2\n              swap1\n              sstore\n              pop\n                /* \"Project-1-AuctionPlatform/Auction.sol\":3461:3462  0 */\n              0x0\n                /* \"Project-1-AuctionPlatform/Auction.sol\":3449:3462  uint256 i = 0 */\n              swap2\n              pop\n                /* \"Project-1-AuctionPlatform/Auction.sol\":3444:3776  for (uint256 i = 0; i < biddersList.length; i++) {... */\n            tag_85:\n                /* \"Project-1-AuctionPlatform/Auction.sol\":3468:3479  biddersList */\n              0x6\n                /* \"Project-1-AuctionPlatform/Auction.sol\":3468:3486  biddersList.length */\n              dup1\n              sload\n              swap1\n              pop\n                /* \"Project-1-AuctionPlatform/Auction.sol\":3464:3465  i */\n              dup3\n                /* \"Project-1-AuctionPlatform/Auction.sol\":3464:3486  i < biddersList.length */\n              lt\n                /* \"Project-1-AuctionPlatform/Auction.sol\":3444:3776  for (uint256 i = 0; i < biddersList.length; i++) {... */\n              iszero\n              tag_86\n              jumpi\n                /* \"Project-1-AuctionPlatform/Auction.sol\":3626:3629  bid */\n              dup5\n                /* \"Project-1-AuctionPlatform/Auction.sol\":3602:3606  bids */\n              0x5\n                /* \"Project-1-AuctionPlatform/Auction.sol\":3602:3622  bids[biddersList[i]] */\n              0x0\n                /* \"Project-1-AuctionPlatform/Auction.sol\":3607:3618  biddersList */\n              0x6\n                /* \"Project-1-AuctionPlatform/Auction.sol\":3619:3620  i */\n              dup6\n                /* \"Project-1-AuctionPlatform/Auction.sol\":3607:3621  biddersList[i] */\n              dup2\n              sload\n              dup2\n              lt\n              iszero\n              iszero\n              tag_88\n              jumpi\n              invalid\n            tag_88:\n              swap1\n              0x0\n              mstore\n              keccak256(0x0, 0x20)\n              add\n              0x0\n              swap1\n              sload\n              swap1\n              0x100\n              exp\n              swap1\n              div\n              0xffffffffffffffffffffffffffffffffffffffff\n              and\n                /* \"Project-1-AuctionPlatform/Auction.sol\":3602:3622  bids[biddersList[i]] */\n              0xffffffffffffffffffffffffffffffffffffffff\n              and\n              0xffffffffffffffffffffffffffffffffffffffff\n              and\n              dup2\n              mstore\n              0x20\n              add\n              swap1\n              dup2\n              mstore\n              0x20\n              add\n              0x0\n              keccak256\n              sload\n                /* \"Project-1-AuctionPlatform/Auction.sol\":3602:3629  bids[biddersList[i]] == bid */\n              eq\n                /* \"Project-1-AuctionPlatform/Auction.sol\":3598:3766  if (bids[biddersList[i]] == bid) {... */\n              iszero\n              tag_90\n              jumpi\n                /* \"Project-1-AuctionPlatform/Auction.sol\":3714:3725  biddersList */\n              0x6\n                /* \"Project-1-AuctionPlatform/Auction.sol\":3726:3727  i */\n              dup3\n                /* \"Project-1-AuctionPlatform/Auction.sol\":3714:3728  biddersList[i] */\n              dup2\n              sload\n              dup2\n              lt\n              iszero\n              iszero\n              tag_91\n              jumpi\n              invalid\n            tag_91:\n              swap1\n              0x0\n              mstore\n              keccak256(0x0, 0x20)\n              add\n              0x0\n              swap1\n              sload\n              swap1\n              0x100\n              exp\n              swap1\n              div\n              0xffffffffffffffffffffffffffffffffffffffff\n              and\n                /* \"Project-1-AuctionPlatform/Auction.sol\":3705:3728  winner = biddersList[i] */\n              swap3\n              pop\n                /* \"Project-1-AuctionPlatform/Auction.sol\":3746:3751  break */\n              jump(tag_86)\n                /* \"Project-1-AuctionPlatform/Auction.sol\":3598:3766  if (bids[biddersList[i]] == bid) {... */\n            tag_90:\n                /* \"Project-1-AuctionPlatform/Auction.sol\":3488:3491  i++ */\n              dup2\n              dup1\n              0x1\n              add\n              swap3\n              pop\n              pop\n                /* \"Project-1-AuctionPlatform/Auction.sol\":3444:3776  for (uint256 i = 0; i < biddersList.length; i++) {... */\n              jump(tag_85)\n            tag_86:\n                /* \"Project-1-AuctionPlatform/Auction.sol\":3811:3812  0 */\n              0x0\n                /* \"Project-1-AuctionPlatform/Auction.sol\":3793:3813  winner != address(0) */\n              0xffffffffffffffffffffffffffffffffffffffff\n              and\n                /* \"Project-1-AuctionPlatform/Auction.sol\":3793:3799  winner */\n              dup4\n                /* \"Project-1-AuctionPlatform/Auction.sol\":3793:3813  winner != address(0) */\n              0xffffffffffffffffffffffffffffffffffffffff\n              and\n              eq\n              iszero\n                /* \"Project-1-AuctionPlatform/Auction.sol\":3785:3844  require(winner != address(0), \"This bid has not been made\") */\n              iszero\n              iszero\n              tag_93\n              jumpi\n              mload(0x40)\n              0x8c379a000000000000000000000000000000000000000000000000000000000\n              dup2\n              mstore\n              0x4\n              add\n              dup1\n              dup1\n              0x20\n              add\n              dup3\n              dup2\n              sub\n              dup3\n              mstore\n              0x1a\n              dup2\n              mstore\n              0x20\n              add\n              dup1\n              0x546869732062696420686173206e6f74206265656e206d616465000000000000\n              dup2\n              mstore\n              pop\n              0x20\n              add\n              swap2\n              pop\n              pop\n              mload(0x40)\n              dup1\n              swap2\n              sub\n              swap1\n              revert\n            tag_93:\n                /* \"Project-1-AuctionPlatform/Auction.sol\":3890:3896  winner */\n              dup3\n                /* \"Project-1-AuctionPlatform/Auction.sol\":3883:3896  return winner */\n              swap4\n              pop\n                /* \"Project-1-AuctionPlatform/Auction.sol\":4615:4616  _ */\n              pop\n                /* \"Project-1-AuctionPlatform/Auction.sol\":3135:3903  function endAuctionWithSelectedBid(uint256 bid)... */\n              pop\n              pop\n              swap2\n              swap1\n              pop\n              jump\t// out\n                /* \"Project-1-AuctionPlatform/Auction.sol\":1151:1256  function max(uint256 a, uint256 b) internal pure returns (uint256) {... */\n            tag_79:\n                /* \"Project-1-AuctionPlatform/Auction.sol\":1209:1216  uint256 */\n              0x0\n                /* \"Project-1-AuctionPlatform/Auction.sol\":1240:1241  b */\n              dup2\n                /* \"Project-1-AuctionPlatform/Auction.sol\":1235:1236  a */\n              dup4\n                /* \"Project-1-AuctionPlatform/Auction.sol\":1235:1241  a >= b */\n              lt\n              iszero\n                /* \"Project-1-AuctionPlatform/Auction.sol\":1235:1249  a >= b ? a : b */\n              tag_95\n              jumpi\n                /* \"Project-1-AuctionPlatform/Auction.sol\":1248:1249  b */\n              dup2\n                /* \"Project-1-AuctionPlatform/Auction.sol\":1235:1249  a >= b ? a : b */\n              jump(tag_96)\n            tag_95:\n                /* \"Project-1-AuctionPlatform/Auction.sol\":1244:1245  a */\n              dup3\n                /* \"Project-1-AuctionPlatform/Auction.sol\":1235:1249  a >= b ? a : b */\n            tag_96:\n                /* \"Project-1-AuctionPlatform/Auction.sol\":1228:1249  return a >= b ? a : b */\n              swap1\n              pop\n                /* \"Project-1-AuctionPlatform/Auction.sol\":1151:1256  function max(uint256 a, uint256 b) internal pure returns (uint256) {... */\n              swap3\n              swap2\n              pop\n              pop\n              jump\t// out\n\n            auxdata: 0xa165627a7a723058200550c4aac2c0de35e99d9a6e132c1e48b083d67a014b46838691528a40ddbadc0029\n        }\n    }\n\n    auxdata: 0xa165627a7a723058206553708cf4e6a9983a73c403591aba7304c55cf5e12bd3989435ca285afe7a3e0029\n}\n",
				"bytecode": {
					"linkReferences": {},
					"object": "60806040526000805534801561001457600080fd5b5061360c806100246000396000f300608060405260043610620000bb576000357c0100000000000000000000000000000000000000000000000000000000900463ffffffff16806325c0cdaa14620000c05780632ae9285f14620000ee57806360365e0c1462000132578063617fbce9146200016c5780637e12a25114620001b05780639f63512014620001de578063b9a2de3a1462000218578063d1fda9651462000248578063e3a57e6514620002b9578063f2f58fcf146200036b578063fe67a54b14620003dc575b600080fd5b348015620000cd57600080fd5b50620000d862000436565b6040518082815260200191505060405180910390f35b348015620000fb57600080fd5b506200011c600480360381019080803590602001909291905050506200043c565b6040518082815260200191505060405180910390f35b3480156200013f57600080fd5b506200016a600480360381019080803590602001909291908035906020019092919050505062000765565b005b3480156200017957600080fd5b506200019a60048036038101908080359060200190929190505050620009c2565b6040518082815260200191505060405180910390f35b348015620001bd57600080fd5b50620001c862000c4b565b6040518082815260200191505060405180910390f35b348015620001eb57600080fd5b5062000216600480360381019080803590602001909291908035906020019092919050505062000fc9565b005b3480156200022557600080fd5b506200024660048036038101908080359060200190929190505050620014b7565b005b3480156200025557600080fd5b5062000260620016d8565b6040518080602001828103825283818151815260200191508051906020019060200280838360005b83811015620002a557808201518184015260208101905062000288565b505050509050019250505060405180910390f35b348015620002c657600080fd5b5062000369600480360381019080803590602001908201803590602001908080601f0160208091040260200160405190810160405280939291908181526020018383808284378201915050505050509192919290803590602001909291908035906020019092919080359060200190929190803590602001909291908035906020019092919080359060200190929190803590602001909291905050506200182b565b005b3480156200037857600080fd5b506200038362001cbc565b6040518080602001828103825283818151815260200191508051906020019060200280838360005b83811015620003c8578082015181840152602081019050620003ab565b505050509050019250505060405180910390f35b348015620003e957600080fd5b50620003f462002094565b604051808273ffffffffffffffffffffffffffffffffffffffff1673ffffffffffffffffffffffffffffffffffffffff16815260200191505060405180910390f35b60005481565b600080606760003373ffffffffffffffffffffffffffffffffffffffff1673ffffffffffffffffffffffffffffffffffffffff1681526020019081526020016000208054905014151515620004f9576040517f08c379a00000000000000000000000000000000000000000000000000000000081526004018080602001828103825260178152602001807f596f7520646f6e2774206861766520616e79204269647300000000000000000081525060200191505060405180910390fd5b816000548111158015620005de5750426001826065811015156200051957fe5b0160009054906101000a900473ffffffffffffffffffffffffffffffffffffffff1673ffffffffffffffffffffffffffffffffffffffff1663439f5ac26040518163ffffffff167c0100000000000000000000000000000000000000000000000000000000028152600401602060405180830381600087803b1580156200059f57600080fd5b505af1158015620005b4573d6000803e3d6000fd5b505050506040513d6020811015620005cb57600080fd5b8101908080519060200190929190505050115b151562000653576040517f08c379a00000000000000000000000000000000000000000000000000000000081526004018080602001828103825260138152602001807f41756374696f6e20697320496e6163746976650000000000000000000000000081525060200191505060405180910390fd5b6001836065811015156200066357fe5b0160009054906101000a900473ffffffffffffffffffffffffffffffffffffffff1673ffffffffffffffffffffffffffffffffffffffff166362ea82db336040518263ffffffff167c0100000000000000000000000000000000000000000000000000000000028152600401808273ffffffffffffffffffffffffffffffffffffffff1673ffffffffffffffffffffffffffffffffffffffff168152602001915050602060405180830381600087803b1580156200072057600080fd5b505af115801562000735573d6000803e3d6000fd5b505050506040513d60208110156200074c57600080fd5b8101908080519060200190929190505050915050919050565b8160005481111580156200084a5750426001826065811015156200078557fe5b0160009054906101000a900473ffffffffffffffffffffffffffffffffffffffff1673ffffffffffffffffffffffffffffffffffffffff1663439f5ac26040518163ffffffff167c0100000000000000000000000000000000000000000000000000000000028152600401602060405180830381600087803b1580156200080b57600080fd5b505af115801562000820573d6000803e3d6000fd5b505050506040513d60208110156200083757600080fd5b8101908080519060200190929190505050115b1515620008bf576040517f08c379a00000000000000000000000000000000000000000000000000000000081526004018080602001828103825260138152602001807f41756374696f6e20697320496e6163746976650000000000000000000000000081525060200191505060405180910390fd5b600183606581101515620008cf57fe5b0160009054906101000a900473ffffffffffffffffffffffffffffffffffffffff1673ffffffffffffffffffffffffffffffffffffffff166343129de1836040518263ffffffff167c010000000000000000000000000000000000000000000000000000000002815260040180828152602001915050600060405180830381600087803b1580156200096057600080fd5b505af115801562000975573d6000803e3d6000fd5b50505050823373ffffffffffffffffffffffffffffffffffffffff167fb722ccec10268690bf7ef3a9603076baf9b304a59def91157d4a80c98d557aae60405160405180910390a3505050565b60006001606660003373ffffffffffffffffffffffffffffffffffffffff1673ffffffffffffffffffffffffffffffffffffffff1681526020019081526020016000205460658110151562000a1357fe5b0160009054906101000a900473ffffffffffffffffffffffffffffffffffffffff1673ffffffffffffffffffffffffffffffffffffffff1663409766e66040518163ffffffff167c0100000000000000000000000000000000000000000000000000000000028152600401602060405180830381600087803b15801562000a9957600080fd5b505af115801562000aae573d6000803e3d6000fd5b505050506040513d602081101562000ac557600080fd5b8101908080519060200190929190505050151562000b71576040517f08c379a00000000000000000000000000000000000000000000000000000000081526004018080602001828103825260248152602001807f5468657265206172656e277420616e792062696473206f6e207468652041756381526020017f74696f6e0000000000000000000000000000000000000000000000000000000081525060400191505060405180910390fd5b60018260658110151562000b8157fe5b0160009054906101000a900473ffffffffffffffffffffffffffffffffffffffff1673ffffffffffffffffffffffffffffffffffffffff1663dd06ba1a6040518163ffffffff167c0100000000000000000000000000000000000000000000000000000000028152600401602060405180830381600087803b15801562000c0757600080fd5b505af115801562000c1c573d6000803e3d6000fd5b505050506040513d602081101562000c3357600080fd5b81019080805190602001909291905050509050919050565b600080606660003373ffffffffffffffffffffffffffffffffffffffff1673ffffffffffffffffffffffffffffffffffffffff168152602001908152602001600020541415151562000d05576040517f08c379a00000000000000000000000000000000000000000000000000000000081526004018080602001828103825260208152602001807f596f7520686176656e2774206372656174656420616e792041756374696f6e7381525060200191505060405180910390fd5b6001606660003373ffffffffffffffffffffffffffffffffffffffff1673ffffffffffffffffffffffffffffffffffffffff1681526020019081526020016000205460658110151562000d5457fe5b0160009054906101000a900473ffffffffffffffffffffffffffffffffffffffff1673ffffffffffffffffffffffffffffffffffffffff1663409766e66040518163ffffffff167c0100000000000000000000000000000000000000000000000000000000028152600401602060405180830381600087803b15801562000dda57600080fd5b505af115801562000def573d6000803e3d6000fd5b505050506040513d602081101562000e0657600080fd5b8101908080519060200190929190505050151562000eb2576040517f08c379a00000000000000000000000000000000000000000000000000000000081526004018080602001828103825260248152602001807f5468657265206172656e277420616e792062696473206f6e207468652041756381526020017f74696f6e0000000000000000000000000000000000000000000000000000000081525060400191505060405180910390fd5b6001606660003373ffffffffffffffffffffffffffffffffffffffff1673ffffffffffffffffffffffffffffffffffffffff1681526020019081526020016000205460658110151562000f0157fe5b0160009054906101000a900473ffffffffffffffffffffffffffffffffffffffff1673ffffffffffffffffffffffffffffffffffffffff1663dd06ba1a6040518163ffffffff167c0100000000000000000000000000000000000000000000000000000000028152600401602060405180830381600087803b15801562000f8757600080fd5b505af115801562000f9c573d6000803e3d6000fd5b505050506040513d602081101562000fb357600080fd5b8101908080519060200190929190505050905090565b816000548111158015620010ae57504260018260658110151562000fe957fe5b0160009054906101000a900473ffffffffffffffffffffffffffffffffffffffff1673ffffffffffffffffffffffffffffffffffffffff1663439f5ac26040518163ffffffff167c0100000000000000000000000000000000000000000000000000000000028152600401602060405180830381600087803b1580156200106f57600080fd5b505af115801562001084573d6000803e3d6000fd5b505050506040513d60208110156200109b57600080fd5b8101908080519060200190929190505050115b151562001123576040517f08c379a00000000000000000000000000000000000000000000000000000000081526004018080602001828103825260138152602001807f41756374696f6e20697320496e6163746976650000000000000000000000000081525060200191505060405180910390fd5b816001846065811015156200113457fe5b0160009054906101000a900473ffffffffffffffffffffffffffffffffffffffff1673ffffffffffffffffffffffffffffffffffffffff1663ad9346746040518163ffffffff167c0100000000000000000000000000000000000000000000000000000000028152600401602060405180830381600087803b158015620011ba57600080fd5b505af1158015620011cf573d6000803e3d6000fd5b505050506040513d6020811015620011e657600080fd5b810190808051906020019092919050505010151562001293576040517f08c379a000000000000000000000000000000000000000000000000000000000815260040180806020018281038252603a8152602001807f4269642076616c75652063616e6e6f74206265206c657373207468616e206d6981526020017f6e696e756d206269642076616c7565206f662061756374696f6e00000000000081525060400191505060405180910390fd5b82606660003373ffffffffffffffffffffffffffffffffffffffff1673ffffffffffffffffffffffffffffffffffffffff16815260200190815260200160002054141515156200134b576040517f08c379a00000000000000000000000000000000000000000000000000000000081526004018080602001828103825260188152602001807f43616e277420626964206f6e206f776e2041756374696f6e000000000000000081525060200191505060405180910390fd5b6001836065811015156200135b57fe5b0160009054906101000a900473ffffffffffffffffffffffffffffffffffffffff1673ffffffffffffffffffffffffffffffffffffffff1663659dd2b4836040518263ffffffff167c010000000000000000000000000000000000000000000000000000000002815260040180828152602001915050600060405180830381600087803b158015620013ec57600080fd5b505af115801562001401573d6000803e3d6000fd5b50505050606760003373ffffffffffffffffffffffffffffffffffffffff1673ffffffffffffffffffffffffffffffffffffffff168152602001908152602001600020839080600181540180825580915050906001820390600052602060002001600090919290919091505550823373ffffffffffffffffffffffffffffffffffffffff167f248176d18d0b2664c1964de940d9d88115d4d632e9047ec131dc7cfd5b41535e60405160405180910390a3505050565b600080606660003373ffffffffffffffffffffffffffffffffffffffff1673ffffffffffffffffffffffffffffffffffffffff168152602001908152602001600020541415151562001571576040517f08c379a00000000000000000000000000000000000000000000000000000000081526004018080602001828103825260208152602001807f596f7520686176656e2774206372656174656420616e792041756374696f6e7381525060200191505060405180910390fd5b6001606660003373ffffffffffffffffffffffffffffffffffffffff1673ffffffffffffffffffffffffffffffffffffffff16815260200190815260200160002054606581101515620015c057fe5b0160009054906101000a900473ffffffffffffffffffffffffffffffffffffffff1673ffffffffffffffffffffffffffffffffffffffff1663dee37a8e836040518263ffffffff167c010000000000000000000000000000000000000000000000000000000002815260040180828152602001915050602060405180830381600087803b1580156200165157600080fd5b505af115801562001666573d6000803e3d6000fd5b505050506040513d60208110156200167d57600080fd5b81019080805190602001909291905050509050818173ffffffffffffffffffffffffffffffffffffffff167f6e0e2174dbf7b77c08b6f9a2799b9feda84a6d54a5644864582040100a47d4c560405160405180910390a35050565b60606000606760003373ffffffffffffffffffffffffffffffffffffffff1673ffffffffffffffffffffffffffffffffffffffff168152602001908152602001600020805490501415151562001796576040517f08c379a00000000000000000000000000000000000000000000000000000000081526004018080602001828103825260178152602001807f596f7520646f6e2774206861766520616e79204269647300000000000000000081525060200191505060405180910390fd5b606760003373ffffffffffffffffffffffffffffffffffffffff1673ffffffffffffffffffffffffffffffffffffffff1681526020019081526020016000208054806020026020016040519081016040528092919081815260200182805480156200182157602002820191906000526020600020905b8154815260200190600101908083116200180c575b5050505050905090565b600080600080606660003373ffffffffffffffffffffffffffffffffffffffff1673ffffffffffffffffffffffffffffffffffffffff168152602001908152602001600020541415156200190d576040517f08c379a00000000000000000000000000000000000000000000000000000000081526004018080602001828103825260238152602001807f596f75206861766520616c7265616479206372656174656420616e204175637481526020017f696f6e000000000000000000000000000000000000000000000000000000000081525060400191505060405180910390fd5b6200191f8a8a8a6000806000620023d0565b151562001994576040517f08c379a00000000000000000000000000000000000000000000000000000000081526004018080602001828103825260168152602001807f456e7465722056616c696420537461727420446174650000000000000000000081525060200191505060405180910390fd5b620019a68787876000806000620023d0565b151562001a1b576040517f08c379a00000000000000000000000000000000000000000000000000000000081526004018080602001828103825260148152602001807f456e7465722056616c696420456e64204461746500000000000000000000000081525060200191505060405180910390fd5b62001a288a8a8a62002419565b925062001a3787878762002419565b9150824210801562001a4857508142105b801562001a5457508183105b151562001aef576040517f08c379a000000000000000000000000000000000000000000000000000000000815260040180806020018281038252602e8152602001807f20506c6561736520656e74657220612076616c696420696e74657276616c206681526020017f6f72207468652041756374696f6e00000000000000000000000000000000000081525060400191505060405180910390fd5b6001600054016000819055508a83838662001b0962002641565b8080602001858152602001848152602001838152602001828103825286818151815260200191508051906020019080838360005b8381101562001b5a57808201518184015260208101905062001b3d565b50505050905090810190601f16801562001b885780820380516001836020036101000a031916815260200191505b5095505050505050604051809103906000f08015801562001bad573d6000803e3d6000fd5b50905080600160005460658110151562001bc357fe5b0160006101000a81548173ffffffffffffffffffffffffffffffffffffffff021916908373ffffffffffffffffffffffffffffffffffffffff160217905550600054606660003373ffffffffffffffffffffffffffffffffffffffff1673ffffffffffffffffffffffffffffffffffffffff16815260200190815260200160002081905550426000547f737a59893603ef25305aef11ac201c15bb5fa4f4195223c5dd6910985778150433604051808273ffffffffffffffffffffffffffffffffffffffff1673ffffffffffffffffffffffffffffffffffffffff16815260200191505060405180910390a35050505050505050505050565b60606000606660003373ffffffffffffffffffffffffffffffffffffffff1673ffffffffffffffffffffffffffffffffffffffff168152602001908152602001600020541415151562001d77576040517f08c379a00000000000000000000000000000000000000000000000000000000081526004018080602001828103825260208152602001807f596f7520686176656e2774206372656174656420616e792041756374696f6e7381525060200191505060405180910390fd5b6001606660003373ffffffffffffffffffffffffffffffffffffffff1673ffffffffffffffffffffffffffffffffffffffff1681526020019081526020016000205460658110151562001dc657fe5b0160009054906101000a900473ffffffffffffffffffffffffffffffffffffffff1673ffffffffffffffffffffffffffffffffffffffff1663409766e66040518163ffffffff167c0100000000000000000000000000000000000000000000000000000000028152600401602060405180830381600087803b15801562001e4c57600080fd5b505af115801562001e61573d6000803e3d6000fd5b505050506040513d602081101562001e7857600080fd5b8101908080519060200190929190505050151562001f24576040517f08c379a00000000000000000000000000000000000000000000000000000000081526004018080602001828103825260248152602001807f5468657265206172656e277420616e792062696473206f6e207468652041756381526020017f74696f6e0000000000000000000000000000000000000000000000000000000081525060400191505060405180910390fd5b6001606660003373ffffffffffffffffffffffffffffffffffffffff1673ffffffffffffffffffffffffffffffffffffffff1681526020019081526020016000205460658110151562001f7357fe5b0160009054906101000a900473ffffffffffffffffffffffffffffffffffffffff1673ffffffffffffffffffffffffffffffffffffffff1663679dbf0c6040518163ffffffff167c0100000000000000000000000000000000000000000000000000000000028152600401600060405180830381600087803b15801562001ff957600080fd5b505af11580156200200e573d6000803e3d6000fd5b505050506040513d6000823e3d601f19601f8201168201806040525060208110156200203957600080fd5b8101908080516401000000008111156200205257600080fd5b828101905060208101848111156200206957600080fd5b81518560208202830111640100000000821117156200208757600080fd5b5050929190505050905090565b600080600080606660003373ffffffffffffffffffffffffffffffffffffffff1673ffffffffffffffffffffffffffffffffffffffff168152602001908152602001600020541415151562002151576040517f08c379a00000000000000000000000000000000000000000000000000000000081526004018080602001828103825260208152602001807f596f7520686176656e2774206372656174656420616e792041756374696f6e7381525060200191505060405180910390fd5b6001606660003373ffffffffffffffffffffffffffffffffffffffff1673ffffffffffffffffffffffffffffffffffffffff16815260200190815260200160002054606581101515620021a057fe5b0160009054906101000a900473ffffffffffffffffffffffffffffffffffffffff1673ffffffffffffffffffffffffffffffffffffffff1663dd06ba1a6040518163ffffffff167c0100000000000000000000000000000000000000000000000000000000028152600401602060405180830381600087803b1580156200222657600080fd5b505af11580156200223b573d6000803e3d6000fd5b505050506040513d60208110156200225257600080fd5b810190808051906020019092919050505091506001606660003373ffffffffffffffffffffffffffffffffffffffff1673ffffffffffffffffffffffffffffffffffffffff16815260200190815260200160002054606581101515620022b457fe5b0160009054906101000a900473ffffffffffffffffffffffffffffffffffffffff1673ffffffffffffffffffffffffffffffffffffffff1663dee37a8e836040518263ffffffff167c010000000000000000000000000000000000000000000000000000000002815260040180828152602001915050602060405180830381600087803b1580156200234557600080fd5b505af11580156200235a573d6000803e3d6000fd5b505050506040513d60208110156200237157600080fd5b81019080805190602001909291905050509050818173ffffffffffffffffffffffffffffffffffffffff167f6e0e2174dbf7b77c08b6f9a2799b9feda84a6d54a5644864582040100a47d4c560405160405180910390a3809250505090565b6000620023df87878762002436565b156200240f57601884108015620023f65750603c83105b8015620024035750603c82105b156200240e57600190505b5b9695505050505050565b6000620151806200242c85858562002493565b0290509392505050565b6000806107b285101580156200244c5750600084115b80156200245a5750600c8411155b156200248b576200246c858562002558565b90506000831180156200247f5750808311155b156200248a57600191505b5b509392505050565b60008060008060006107b28810151515620024ad57600080fd5b87935086925085915062253d8c60046064600c600e8703811515620024ce57fe5b05611324880101811515620024df57fe5b05600302811515620024ed57fe5b05600c80600c600e88038115156200250157fe5b0502600287030361016f028115156200251657fe5b056004600c600e88038115156200252957fe5b056112c08901016105b5028115156200253e57fe5b05617d4b8603010103039050809450505050509392505050565b600060018214806200256a5750600382145b80620025765750600582145b80620025825750600782145b806200258e5750600882145b806200259a5750600a82145b80620025a65750600c82145b15620025b657601f9050620025ed565b600282141515620025cb57601e9050620025ec565b620025d683620025f3565b620025e357601c620025e6565b601d5b60ff1690505b5b92915050565b6000806004838115156200260357fe5b0614801562002620575060006064838115156200261c57fe5b0614155b806200263a57506000610190838115156200263757fe5b06145b9050919050565b604051610f8e8062002653833901905600608060405234801561001057600080fd5b50604051610f8e380380610f8e83398101806040528101908080518201929190602001805190602001909291908051906020019092919080519060200190929190505050836000908051906020019061006a929190610089565b508260018190555081600281905550806003819055505050505061012e565b828054600181600116156101000203166002900490600052602060002090601f016020900481019282601f106100ca57805160ff19168380011785556100f8565b828001600101855582156100f8579182015b828111156100f75782518255916020019190600101906100dc565b5b5090506101059190610109565b5090565b61012b91905b8082111561012757600081600090555060010161010f565b5090565b90565b610e518061013d6000396000f300608060405260043610610099576000357c0100000000000000000000000000000000000000000000000000000000900463ffffffff168063409766e61461009e57806343129de1146100cd578063439f5ac2146100fa57806362ea82db14610125578063659dd2b41461017c578063679dbf0c146101a9578063ad93467414610215578063dd06ba1a14610240578063dee37a8e1461026b575b600080fd5b3480156100aa57600080fd5b506100b36102d8565b604051808215151515815260200191505060405180910390f35b3480156100d957600080fd5b506100f8600480360381019080803590602001909291905050506102ef565b005b34801561010657600080fd5b5061010f610554565b6040518082815260200191505060405180910390f35b34801561013157600080fd5b50610166600480360381019080803573ffffffffffffffffffffffffffffffffffffffff16906020019092919050505061055e565b6040518082815260200191505060405180910390f35b34801561018857600080fd5b506101a760048036038101908080359060200190929190505050610576565b005b3480156101b557600080fd5b506101be610835565b6040518080602001828103825283818151815260200191508051906020019060200280838360005b838110156102015780820151818401526020810190506101e6565b505050509050019250505060405180910390f35b34801561022157600080fd5b5061022a6109a2565b6040518082815260200191505060405180910390f35b34801561024c57600080fd5b50610255610a25565b6040518082815260200191505060405180910390f35b34801561027757600080fd5b5061029660048036038101908080359060200190929190505050610b4e565b604051808273ffffffffffffffffffffffffffffffffffffffff1673ffffffffffffffffffffffffffffffffffffffff16815260200191505060405180910390f35b6000600460009054906101000a900460ff16905090565b80600354811115156103b5576040517f08c379a00000000000000000000000000000000000000000000000000000000081526004018080602001828103825260458152602001807f506c6561736520656e7465722061206269642067726561746572207468616e2081526020017f6d696e696d756d20726571756972656420626964206f6620676976656e20617581526020017f6374696f6e00000000000000000000000000000000000000000000000000000081525060600191505060405180910390fd5b6002544210151561042e576040517f08c379a00000000000000000000000000000000000000000000000000000000081526004018080602001828103825260148152602001807f41756374696f6e20697320496e6163746976652000000000000000000000000081525060200191505060405180910390fd5b6000600560003273ffffffffffffffffffffffffffffffffffffffff1673ffffffffffffffffffffffffffffffffffffffff168152602001908152602001600020541415151561050c576040517f08c379a000000000000000000000000000000000000000000000000000000000815260040180806020018281038252603b8152602001807f596f7520686176656e2774206372656174656420616e79206269642c2075736581526020017f2063726561746542696420666f72206372656174696e67206f6e65000000000081525060400191505060405180910390fd5b81600560003273ffffffffffffffffffffffffffffffffffffffff1673ffffffffffffffffffffffffffffffffffffffff168152602001908152602001600020819055505050565b6000600254905090565b60056020528060005260406000206000915090505481565b806003548111151561063c576040517f08c379a00000000000000000000000000000000000000000000000000000000081526004018080602001828103825260458152602001807f506c6561736520656e7465722061206269642067726561746572207468616e2081526020017f6d696e696d756d20726571756972656420626964206f6620676976656e20617581526020017f6374696f6e00000000000000000000000000000000000000000000000000000081525060600191505060405180910390fd5b600254421015156106b5576040517f08c379a00000000000000000000000000000000000000000000000000000000081526004018080602001828103825260148152602001807f41756374696f6e20697320496e6163746976652000000000000000000000000081525060200191505060405180910390fd5b6000600560003273ffffffffffffffffffffffffffffffffffffffff1673ffffffffffffffffffffffffffffffffffffffff1681526020019081526020016000205414151561076c576040517f08c379a000000000000000000000000000000000000000000000000000000000815260040180806020018281038252601e8152602001807f596f75206861766520616c72656164792063726561746564206120626964000081525060200191505060405180910390fd5b6001600460006101000a81548160ff02191690831515021790555081600560003273ffffffffffffffffffffffffffffffffffffffff1673ffffffffffffffffffffffffffffffffffffffff1681526020019081526020016000208190555060063290806001815401808255809150509060018203906000526020600020016000909192909190916101000a81548173ffffffffffffffffffffffffffffffffffffffff021916908373ffffffffffffffffffffffffffffffffffffffff160217905550505050565b6060806000600254421015156108b3576040517f08c379a00000000000000000000000000000000000000000000000000000000081526004018080602001828103825260148152602001807f41756374696f6e20697320496e6163746976652000000000000000000000000081525060200191505060405180910390fd5b6006805490506040519080825280602002602001820160405280156108e75781602001602082028038833980820191505090505b5091505b60068054905081101561099a576005600060068381548110151561090b57fe5b9060005260206000200160009054906101000a900473ffffffffffffffffffffffffffffffffffffffff1673ffffffffffffffffffffffffffffffffffffffff1673ffffffffffffffffffffffffffffffffffffffff16815260200190815260200160002054828281518110151561097f57fe5b906020019060200201818152505080806001019150506108eb565b819250505090565b600060025442101515610a1d576040517f08c379a00000000000000000000000000000000000000000000000000000000081526004018080602001828103825260148152602001807f41756374696f6e20697320496e6163746976652000000000000000000000000081525060200191505060405180910390fd5b600354905090565b600080600060025442101515610aa3576040517f08c379a00000000000000000000000000000000000000000000000000000000081526004018080602001828103825260148152602001807f41756374696f6e20697320496e6163746976652000000000000000000000000081525060200191505060405180910390fd5b600091505b600680549050811015610b4657610b3760056000600684815481101515610acb57fe5b9060005260206000200160009054906101000a900473ffffffffffffffffffffffffffffffffffffffff1673ffffffffffffffffffffffffffffffffffffffff1673ffffffffffffffffffffffffffffffffffffffff1681526020019081526020016000205483610e0b565b91508080600101915050610aa8565b819250505090565b600080600060025442101515610bcc576040517f08c379a00000000000000000000000000000000000000000000000000000000081526004018080602001828103825260148152602001807f41756374696f6e20697320496e6163746976652000000000000000000000000081525060200191505060405180910390fd5b60006006805490509050600081111515610c74576040517f08c379a00000000000000000000000000000000000000000000000000000000081526004018080602001828103825260278152602001807f43616e277420656e64206173206e6f20626964732068617665206265656e206d81526020017f616465207965740000000000000000000000000000000000000000000000000081525060400191505060405180910390fd5b42600281905550600091505b600680549050821015610d5b578460056000600685815481101515610ca157fe5b9060005260206000200160009054906101000a900473ffffffffffffffffffffffffffffffffffffffff1673ffffffffffffffffffffffffffffffffffffffff1673ffffffffffffffffffffffffffffffffffffffff168152602001908152602001600020541415610d4e57600682815481101515610d1c57fe5b9060005260206000200160009054906101000a900473ffffffffffffffffffffffffffffffffffffffff169250610d5b565b8180600101925050610c80565b600073ffffffffffffffffffffffffffffffffffffffff168373ffffffffffffffffffffffffffffffffffffffff1614151515610e00576040517f08c379a000000000000000000000000000000000000000000000000000000000815260040180806020018281038252601a8152602001807f546869732062696420686173206e6f74206265656e206d61646500000000000081525060200191505060405180910390fd5b829350505050919050565b600081831015610e1b5781610e1d565b825b9050929150505600a165627a7a723058200550c4aac2c0de35e99d9a6e132c1e48b083d67a014b46838691528a40ddbadc0029a165627a7a723058206553708cf4e6a9983a73c403591aba7304c55cf5e12bd3989435ca285afe7a3e0029",
					"opcodes": "PUSH1 0x80 PUSH1 0x40 MSTORE PUSH1 0x0 DUP1 SSTORE CALLVALUE DUP1 ISZERO PUSH2 0x14 JUMPI PUSH1 0x0 DUP1 REVERT JUMPDEST POP PUSH2 0x360C DUP1 PUSH2 0x24 PUSH1 0x0 CODECOPY PUSH1 0x0 RETURN STOP PUSH1 0x80 PUSH1 0x40 MSTORE PUSH1 0x4 CALLDATASIZE LT PUSH3 0xBB JUMPI PUSH1 0x0 CALLDATALOAD PUSH29 0x100000000000000000000000000000000000000000000000000000000 SWAP1 DIV PUSH4 0xFFFFFFFF AND DUP1 PUSH4 0x25C0CDAA EQ PUSH3 0xC0 JUMPI DUP1 PUSH4 0x2AE9285F EQ PUSH3 0xEE JUMPI DUP1 PUSH4 0x60365E0C EQ PUSH3 0x132 JUMPI DUP1 PUSH4 0x617FBCE9 EQ PUSH3 0x16C JUMPI DUP1 PUSH4 0x7E12A251 EQ PUSH3 0x1B0 JUMPI DUP1 PUSH4 0x9F635120 EQ PUSH3 0x1DE JUMPI DUP1 PUSH4 0xB9A2DE3A EQ PUSH3 0x218 JUMPI DUP1 PUSH4 0xD1FDA965 EQ PUSH3 0x248 JUMPI DUP1 PUSH4 0xE3A57E65 EQ PUSH3 0x2B9 JUMPI DUP1 PUSH4 0xF2F58FCF EQ PUSH3 0x36B JUMPI DUP1 PUSH4 0xFE67A54B EQ PUSH3 0x3DC JUMPI JUMPDEST PUSH1 0x0 DUP1 REVERT JUMPDEST CALLVALUE DUP1 ISZERO PUSH3 0xCD JUMPI PUSH1 0x0 DUP1 REVERT JUMPDEST POP PUSH3 0xD8 PUSH3 0x436 JUMP JUMPDEST PUSH1 0x40 MLOAD DUP1 DUP3 DUP2 MSTORE PUSH1 0x20 ADD SWAP2 POP POP PUSH1 0x40 MLOAD DUP1 SWAP2 SUB SWAP1 RETURN JUMPDEST CALLVALUE DUP1 ISZERO PUSH3 0xFB JUMPI PUSH1 0x0 DUP1 REVERT JUMPDEST POP PUSH3 0x11C PUSH1 0x4 DUP1 CALLDATASIZE SUB DUP2 ADD SWAP1 DUP1 DUP1 CALLDATALOAD SWAP1 PUSH1 0x20 ADD SWAP1 SWAP3 SWAP2 SWAP1 POP POP POP PUSH3 0x43C JUMP JUMPDEST PUSH1 0x40 MLOAD DUP1 DUP3 DUP2 MSTORE PUSH1 0x20 ADD SWAP2 POP POP PUSH1 0x40 MLOAD DUP1 SWAP2 SUB SWAP1 RETURN JUMPDEST CALLVALUE DUP1 ISZERO PUSH3 0x13F JUMPI PUSH1 0x0 DUP1 REVERT JUMPDEST POP PUSH3 0x16A PUSH1 0x4 DUP1 CALLDATASIZE SUB DUP2 ADD SWAP1 DUP1 DUP1 CALLDATALOAD SWAP1 PUSH1 0x20 ADD SWAP1 SWAP3 SWAP2 SWAP1 DUP1 CALLDATALOAD SWAP1 PUSH1 0x20 ADD SWAP1 SWAP3 SWAP2 SWAP1 POP POP POP PUSH3 0x765 JUMP JUMPDEST STOP JUMPDEST CALLVALUE DUP1 ISZERO PUSH3 0x179 JUMPI PUSH1 0x0 DUP1 REVERT JUMPDEST POP PUSH3 0x19A PUSH1 0x4 DUP1 CALLDATASIZE SUB DUP2 ADD SWAP1 DUP1 DUP1 CALLDATALOAD SWAP1 PUSH1 0x20 ADD SWAP1 SWAP3 SWAP2 SWAP1 POP POP POP PUSH3 0x9C2 JUMP JUMPDEST PUSH1 0x40 MLOAD DUP1 DUP3 DUP2 MSTORE PUSH1 0x20 ADD SWAP2 POP POP PUSH1 0x40 MLOAD DUP1 SWAP2 SUB SWAP1 RETURN JUMPDEST CALLVALUE DUP1 ISZERO PUSH3 0x1BD JUMPI PUSH1 0x0 DUP1 REVERT JUMPDEST POP PUSH3 0x1C8 PUSH3 0xC4B JUMP JUMPDEST PUSH1 0x40 MLOAD DUP1 DUP3 DUP2 MSTORE PUSH1 0x20 ADD SWAP2 POP POP PUSH1 0x40 MLOAD DUP1 SWAP2 SUB SWAP1 RETURN JUMPDEST CALLVALUE DUP1 ISZERO PUSH3 0x1EB JUMPI PUSH1 0x0 DUP1 REVERT JUMPDEST POP PUSH3 0x216 PUSH1 0x4 DUP1 CALLDATASIZE SUB DUP2 ADD SWAP1 DUP1 DUP1 CALLDATALOAD SWAP1 PUSH1 0x20 ADD SWAP1 SWAP3 SWAP2 SWAP1 DUP1 CALLDATALOAD SWAP1 PUSH1 0x20 ADD SWAP1 SWAP3 SWAP2 SWAP1 POP POP POP PUSH3 0xFC9 JUMP JUMPDEST STOP JUMPDEST CALLVALUE DUP1 ISZERO PUSH3 0x225 JUMPI PUSH1 0x0 DUP1 REVERT JUMPDEST POP PUSH3 0x246 PUSH1 0x4 DUP1 CALLDATASIZE SUB DUP2 ADD SWAP1 DUP1 DUP1 CALLDATALOAD SWAP1 PUSH1 0x20 ADD SWAP1 SWAP3 SWAP2 SWAP1 POP POP POP PUSH3 0x14B7 JUMP JUMPDEST STOP JUMPDEST CALLVALUE DUP1 ISZERO PUSH3 0x255 JUMPI PUSH1 0x0 DUP1 REVERT JUMPDEST POP PUSH3 0x260 PUSH3 0x16D8 JUMP JUMPDEST PUSH1 0x40 MLOAD DUP1 DUP1 PUSH1 0x20 ADD DUP3 DUP2 SUB DUP3 MSTORE DUP4 DUP2 DUP2 MLOAD DUP2 MSTORE PUSH1 0x20 ADD SWAP2 POP DUP1 MLOAD SWAP1 PUSH1 0x20 ADD SWAP1 PUSH1 0x20 MUL DUP1 DUP4 DUP4 PUSH1 0x0 JUMPDEST DUP4 DUP2 LT ISZERO PUSH3 0x2A5 JUMPI DUP1 DUP3 ADD MLOAD DUP2 DUP5 ADD MSTORE PUSH1 0x20 DUP2 ADD SWAP1 POP PUSH3 0x288 JUMP JUMPDEST POP POP POP POP SWAP1 POP ADD SWAP3 POP POP POP PUSH1 0x40 MLOAD DUP1 SWAP2 SUB SWAP1 RETURN JUMPDEST CALLVALUE DUP1 ISZERO PUSH3 0x2C6 JUMPI PUSH1 0x0 DUP1 REVERT JUMPDEST POP PUSH3 0x369 PUSH1 0x4 DUP1 CALLDATASIZE SUB DUP2 ADD SWAP1 DUP1 DUP1 CALLDATALOAD SWAP1 PUSH1 0x20 ADD SWAP1 DUP3 ADD DUP1 CALLDATALOAD SWAP1 PUSH1 0x20 ADD SWAP1 DUP1 DUP1 PUSH1 0x1F ADD PUSH1 0x20 DUP1 SWAP2 DIV MUL PUSH1 0x20 ADD PUSH1 0x40 MLOAD SWAP1 DUP2 ADD PUSH1 0x40 MSTORE DUP1 SWAP4 SWAP3 SWAP2 SWAP1 DUP2 DUP2 MSTORE PUSH1 0x20 ADD DUP4 DUP4 DUP1 DUP3 DUP5 CALLDATACOPY DUP3 ADD SWAP2 POP POP POP POP POP POP SWAP2 SWAP3 SWAP2 SWAP3 SWAP1 DUP1 CALLDATALOAD SWAP1 PUSH1 0x20 ADD SWAP1 SWAP3 SWAP2 SWAP1 DUP1 CALLDATALOAD SWAP1 PUSH1 0x20 ADD SWAP1 SWAP3 SWAP2 SWAP1 DUP1 CALLDATALOAD SWAP1 PUSH1 0x20 ADD SWAP1 SWAP3 SWAP2 SWAP1 DUP1 CALLDATALOAD SWAP1 PUSH1 0x20 ADD SWAP1 SWAP3 SWAP2 SWAP1 DUP1 CALLDATALOAD SWAP1 PUSH1 0x20 ADD SWAP1 SWAP3 SWAP2 SWAP1 DUP1 CALLDATALOAD SWAP1 PUSH1 0x20 ADD SWAP1 SWAP3 SWAP2 SWAP1 DUP1 CALLDATALOAD SWAP1 PUSH1 0x20 ADD SWAP1 SWAP3 SWAP2 SWAP1 POP POP POP PUSH3 0x182B JUMP JUMPDEST STOP JUMPDEST CALLVALUE DUP1 ISZERO PUSH3 0x378 JUMPI PUSH1 0x0 DUP1 REVERT JUMPDEST POP PUSH3 0x383 PUSH3 0x1CBC JUMP JUMPDEST PUSH1 0x40 MLOAD DUP1 DUP1 PUSH1 0x20 ADD DUP3 DUP2 SUB DUP3 MSTORE DUP4 DUP2 DUP2 MLOAD DUP2 MSTORE PUSH1 0x20 ADD SWAP2 POP DUP1 MLOAD SWAP1 PUSH1 0x20 ADD SWAP1 PUSH1 0x20 MUL DUP1 DUP4 DUP4 PUSH1 0x0 JUMPDEST DUP4 DUP2 LT ISZERO PUSH3 0x3C8 JUMPI DUP1 DUP3 ADD MLOAD DUP2 DUP5 ADD MSTORE PUSH1 0x20 DUP2 ADD SWAP1 POP PUSH3 0x3AB JUMP JUMPDEST POP POP POP POP SWAP1 POP ADD SWAP3 POP POP POP PUSH1 0x40 MLOAD DUP1 SWAP2 SUB SWAP1 RETURN JUMPDEST CALLVALUE DUP1 ISZERO PUSH3 0x3E9 JUMPI PUSH1 0x0 DUP1 REVERT JUMPDEST POP PUSH3 0x3F4 PUSH3 0x2094 JUMP JUMPDEST PUSH1 0x40 MLOAD DUP1 DUP3 PUSH20 0xFFFFFFFFFFFFFFFFFFFFFFFFFFFFFFFFFFFFFFFF AND PUSH20 0xFFFFFFFFFFFFFFFFFFFFFFFFFFFFFFFFFFFFFFFF AND DUP2 MSTORE PUSH1 0x20 ADD SWAP2 POP POP PUSH1 0x40 MLOAD DUP1 SWAP2 SUB SWAP1 RETURN JUMPDEST PUSH1 0x0 SLOAD DUP2 JUMP JUMPDEST PUSH1 0x0 DUP1 PUSH1 0x67 PUSH1 0x0 CALLER PUSH20 0xFFFFFFFFFFFFFFFFFFFFFFFFFFFFFFFFFFFFFFFF AND PUSH20 0xFFFFFFFFFFFFFFFFFFFFFFFFFFFFFFFFFFFFFFFF AND DUP2 MSTORE PUSH1 0x20 ADD SWAP1 DUP2 MSTORE PUSH1 0x20 ADD PUSH1 0x0 KECCAK256 DUP1 SLOAD SWAP1 POP EQ ISZERO ISZERO ISZERO PUSH3 0x4F9 JUMPI PUSH1 0x40 MLOAD PUSH32 0x8C379A000000000000000000000000000000000000000000000000000000000 DUP2 MSTORE PUSH1 0x4 ADD DUP1 DUP1 PUSH1 0x20 ADD DUP3 DUP2 SUB DUP3 MSTORE PUSH1 0x17 DUP2 MSTORE PUSH1 0x20 ADD DUP1 PUSH32 0x596F7520646F6E2774206861766520616E792042696473000000000000000000 DUP2 MSTORE POP PUSH1 0x20 ADD SWAP2 POP POP PUSH1 0x40 MLOAD DUP1 SWAP2 SUB SWAP1 REVERT JUMPDEST DUP2 PUSH1 0x0 SLOAD DUP2 GT ISZERO DUP1 ISZERO PUSH3 0x5DE JUMPI POP TIMESTAMP PUSH1 0x1 DUP3 PUSH1 0x65 DUP2 LT ISZERO ISZERO PUSH3 0x519 JUMPI INVALID JUMPDEST ADD PUSH1 0x0 SWAP1 SLOAD SWAP1 PUSH2 0x100 EXP SWAP1 DIV PUSH20 0xFFFFFFFFFFFFFFFFFFFFFFFFFFFFFFFFFFFFFFFF AND PUSH20 0xFFFFFFFFFFFFFFFFFFFFFFFFFFFFFFFFFFFFFFFF AND PUSH4 0x439F5AC2 PUSH1 0x40 MLOAD DUP2 PUSH4 0xFFFFFFFF AND PUSH29 0x100000000000000000000000000000000000000000000000000000000 MUL DUP2 MSTORE PUSH1 0x4 ADD PUSH1 0x20 PUSH1 0x40 MLOAD DUP1 DUP4 SUB DUP2 PUSH1 0x0 DUP8 DUP1 EXTCODESIZE ISZERO DUP1 ISZERO PUSH3 0x59F JUMPI PUSH1 0x0 DUP1 REVERT JUMPDEST POP GAS CALL ISZERO DUP1 ISZERO PUSH3 0x5B4 JUMPI RETURNDATASIZE PUSH1 0x0 DUP1 RETURNDATACOPY RETURNDATASIZE PUSH1 0x0 REVERT JUMPDEST POP POP POP POP PUSH1 0x40 MLOAD RETURNDATASIZE PUSH1 0x20 DUP2 LT ISZERO PUSH3 0x5CB JUMPI PUSH1 0x0 DUP1 REVERT JUMPDEST DUP2 ADD SWAP1 DUP1 DUP1 MLOAD SWAP1 PUSH1 0x20 ADD SWAP1 SWAP3 SWAP2 SWAP1 POP POP POP GT JUMPDEST ISZERO ISZERO PUSH3 0x653 JUMPI PUSH1 0x40 MLOAD PUSH32 0x8C379A000000000000000000000000000000000000000000000000000000000 DUP2 MSTORE PUSH1 0x4 ADD DUP1 DUP1 PUSH1 0x20 ADD DUP3 DUP2 SUB DUP3 MSTORE PUSH1 0x13 DUP2 MSTORE PUSH1 0x20 ADD DUP1 PUSH32 0x41756374696F6E20697320496E61637469766500000000000000000000000000 DUP2 MSTORE POP PUSH1 0x20 ADD SWAP2 POP POP PUSH1 0x40 MLOAD DUP1 SWAP2 SUB SWAP1 REVERT JUMPDEST PUSH1 0x1 DUP4 PUSH1 0x65 DUP2 LT ISZERO ISZERO PUSH3 0x663 JUMPI INVALID JUMPDEST ADD PUSH1 0x0 SWAP1 SLOAD SWAP1 PUSH2 0x100 EXP SWAP1 DIV PUSH20 0xFFFFFFFFFFFFFFFFFFFFFFFFFFFFFFFFFFFFFFFF AND PUSH20 0xFFFFFFFFFFFFFFFFFFFFFFFFFFFFFFFFFFFFFFFF AND PUSH4 0x62EA82DB CALLER PUSH1 0x40 MLOAD DUP3 PUSH4 0xFFFFFFFF AND PUSH29 0x100000000000000000000000000000000000000000000000000000000 MUL DUP2 MSTORE PUSH1 0x4 ADD DUP1 DUP3 PUSH20 0xFFFFFFFFFFFFFFFFFFFFFFFFFFFFFFFFFFFFFFFF AND PUSH20 0xFFFFFFFFFFFFFFFFFFFFFFFFFFFFFFFFFFFFFFFF AND DUP2 MSTORE PUSH1 0x20 ADD SWAP2 POP POP PUSH1 0x20 PUSH1 0x40 MLOAD DUP1 DUP4 SUB DUP2 PUSH1 0x0 DUP8 DUP1 EXTCODESIZE ISZERO DUP1 ISZERO PUSH3 0x720 JUMPI PUSH1 0x0 DUP1 REVERT JUMPDEST POP GAS CALL ISZERO DUP1 ISZERO PUSH3 0x735 JUMPI RETURNDATASIZE PUSH1 0x0 DUP1 RETURNDATACOPY RETURNDATASIZE PUSH1 0x0 REVERT JUMPDEST POP POP POP POP PUSH1 0x40 MLOAD RETURNDATASIZE PUSH1 0x20 DUP2 LT ISZERO PUSH3 0x74C JUMPI PUSH1 0x0 DUP1 REVERT JUMPDEST DUP2 ADD SWAP1 DUP1 DUP1 MLOAD SWAP1 PUSH1 0x20 ADD SWAP1 SWAP3 SWAP2 SWAP1 POP POP POP SWAP2 POP POP SWAP2 SWAP1 POP JUMP JUMPDEST DUP2 PUSH1 0x0 SLOAD DUP2 GT ISZERO DUP1 ISZERO PUSH3 0x84A JUMPI POP TIMESTAMP PUSH1 0x1 DUP3 PUSH1 0x65 DUP2 LT ISZERO ISZERO PUSH3 0x785 JUMPI INVALID JUMPDEST ADD PUSH1 0x0 SWAP1 SLOAD SWAP1 PUSH2 0x100 EXP SWAP1 DIV PUSH20 0xFFFFFFFFFFFFFFFFFFFFFFFFFFFFFFFFFFFFFFFF AND PUSH20 0xFFFFFFFFFFFFFFFFFFFFFFFFFFFFFFFFFFFFFFFF AND PUSH4 0x439F5AC2 PUSH1 0x40 MLOAD DUP2 PUSH4 0xFFFFFFFF AND PUSH29 0x100000000000000000000000000000000000000000000000000000000 MUL DUP2 MSTORE PUSH1 0x4 ADD PUSH1 0x20 PUSH1 0x40 MLOAD DUP1 DUP4 SUB DUP2 PUSH1 0x0 DUP8 DUP1 EXTCODESIZE ISZERO DUP1 ISZERO PUSH3 0x80B JUMPI PUSH1 0x0 DUP1 REVERT JUMPDEST POP GAS CALL ISZERO DUP1 ISZERO PUSH3 0x820 JUMPI RETURNDATASIZE PUSH1 0x0 DUP1 RETURNDATACOPY RETURNDATASIZE PUSH1 0x0 REVERT JUMPDEST POP POP POP POP PUSH1 0x40 MLOAD RETURNDATASIZE PUSH1 0x20 DUP2 LT ISZERO PUSH3 0x837 JUMPI PUSH1 0x0 DUP1 REVERT JUMPDEST DUP2 ADD SWAP1 DUP1 DUP1 MLOAD SWAP1 PUSH1 0x20 ADD SWAP1 SWAP3 SWAP2 SWAP1 POP POP POP GT JUMPDEST ISZERO ISZERO PUSH3 0x8BF JUMPI PUSH1 0x40 MLOAD PUSH32 0x8C379A000000000000000000000000000000000000000000000000000000000 DUP2 MSTORE PUSH1 0x4 ADD DUP1 DUP1 PUSH1 0x20 ADD DUP3 DUP2 SUB DUP3 MSTORE PUSH1 0x13 DUP2 MSTORE PUSH1 0x20 ADD DUP1 PUSH32 0x41756374696F6E20697320496E61637469766500000000000000000000000000 DUP2 MSTORE POP PUSH1 0x20 ADD SWAP2 POP POP PUSH1 0x40 MLOAD DUP1 SWAP2 SUB SWAP1 REVERT JUMPDEST PUSH1 0x1 DUP4 PUSH1 0x65 DUP2 LT ISZERO ISZERO PUSH3 0x8CF JUMPI INVALID JUMPDEST ADD PUSH1 0x0 SWAP1 SLOAD SWAP1 PUSH2 0x100 EXP SWAP1 DIV PUSH20 0xFFFFFFFFFFFFFFFFFFFFFFFFFFFFFFFFFFFFFFFF AND PUSH20 0xFFFFFFFFFFFFFFFFFFFFFFFFFFFFFFFFFFFFFFFF AND PUSH4 0x43129DE1 DUP4 PUSH1 0x40 MLOAD DUP3 PUSH4 0xFFFFFFFF AND PUSH29 0x100000000000000000000000000000000000000000000000000000000 MUL DUP2 MSTORE PUSH1 0x4 ADD DUP1 DUP3 DUP2 MSTORE PUSH1 0x20 ADD SWAP2 POP POP PUSH1 0x0 PUSH1 0x40 MLOAD DUP1 DUP4 SUB DUP2 PUSH1 0x0 DUP8 DUP1 EXTCODESIZE ISZERO DUP1 ISZERO PUSH3 0x960 JUMPI PUSH1 0x0 DUP1 REVERT JUMPDEST POP GAS CALL ISZERO DUP1 ISZERO PUSH3 0x975 JUMPI RETURNDATASIZE PUSH1 0x0 DUP1 RETURNDATACOPY RETURNDATASIZE PUSH1 0x0 REVERT JUMPDEST POP POP POP POP DUP3 CALLER PUSH20 0xFFFFFFFFFFFFFFFFFFFFFFFFFFFFFFFFFFFFFFFF AND PUSH32 0xB722CCEC10268690BF7EF3A9603076BAF9B304A59DEF91157D4A80C98D557AAE PUSH1 0x40 MLOAD PUSH1 0x40 MLOAD DUP1 SWAP2 SUB SWAP1 LOG3 POP POP POP JUMP JUMPDEST PUSH1 0x0 PUSH1 0x1 PUSH1 0x66 PUSH1 0x0 CALLER PUSH20 0xFFFFFFFFFFFFFFFFFFFFFFFFFFFFFFFFFFFFFFFF AND PUSH20 0xFFFFFFFFFFFFFFFFFFFFFFFFFFFFFFFFFFFFFFFF AND DUP2 MSTORE PUSH1 0x20 ADD SWAP1 DUP2 MSTORE PUSH1 0x20 ADD PUSH1 0x0 KECCAK256 SLOAD PUSH1 0x65 DUP2 LT ISZERO ISZERO PUSH3 0xA13 JUMPI INVALID JUMPDEST ADD PUSH1 0x0 SWAP1 SLOAD SWAP1 PUSH2 0x100 EXP SWAP1 DIV PUSH20 0xFFFFFFFFFFFFFFFFFFFFFFFFFFFFFFFFFFFFFFFF AND PUSH20 0xFFFFFFFFFFFFFFFFFFFFFFFFFFFFFFFFFFFFFFFF AND PUSH4 0x409766E6 PUSH1 0x40 MLOAD DUP2 PUSH4 0xFFFFFFFF AND PUSH29 0x100000000000000000000000000000000000000000000000000000000 MUL DUP2 MSTORE PUSH1 0x4 ADD PUSH1 0x20 PUSH1 0x40 MLOAD DUP1 DUP4 SUB DUP2 PUSH1 0x0 DUP8 DUP1 EXTCODESIZE ISZERO DUP1 ISZERO PUSH3 0xA99 JUMPI PUSH1 0x0 DUP1 REVERT JUMPDEST POP GAS CALL ISZERO DUP1 ISZERO PUSH3 0xAAE JUMPI RETURNDATASIZE PUSH1 0x0 DUP1 RETURNDATACOPY RETURNDATASIZE PUSH1 0x0 REVERT JUMPDEST POP POP POP POP PUSH1 0x40 MLOAD RETURNDATASIZE PUSH1 0x20 DUP2 LT ISZERO PUSH3 0xAC5 JUMPI PUSH1 0x0 DUP1 REVERT JUMPDEST DUP2 ADD SWAP1 DUP1 DUP1 MLOAD SWAP1 PUSH1 0x20 ADD SWAP1 SWAP3 SWAP2 SWAP1 POP POP POP ISZERO ISZERO PUSH3 0xB71 JUMPI PUSH1 0x40 MLOAD PUSH32 0x8C379A000000000000000000000000000000000000000000000000000000000 DUP2 MSTORE PUSH1 0x4 ADD DUP1 DUP1 PUSH1 0x20 ADD DUP3 DUP2 SUB DUP3 MSTORE PUSH1 0x24 DUP2 MSTORE PUSH1 0x20 ADD DUP1 PUSH32 0x5468657265206172656E277420616E792062696473206F6E2074686520417563 DUP2 MSTORE PUSH1 0x20 ADD PUSH32 0x74696F6E00000000000000000000000000000000000000000000000000000000 DUP2 MSTORE POP PUSH1 0x40 ADD SWAP2 POP POP PUSH1 0x40 MLOAD DUP1 SWAP2 SUB SWAP1 REVERT JUMPDEST PUSH1 0x1 DUP3 PUSH1 0x65 DUP2 LT ISZERO ISZERO PUSH3 0xB81 JUMPI INVALID JUMPDEST ADD PUSH1 0x0 SWAP1 SLOAD SWAP1 PUSH2 0x100 EXP SWAP1 DIV PUSH20 0xFFFFFFFFFFFFFFFFFFFFFFFFFFFFFFFFFFFFFFFF AND PUSH20 0xFFFFFFFFFFFFFFFFFFFFFFFFFFFFFFFFFFFFFFFF AND PUSH4 0xDD06BA1A PUSH1 0x40 MLOAD DUP2 PUSH4 0xFFFFFFFF AND PUSH29 0x100000000000000000000000000000000000000000000000000000000 MUL DUP2 MSTORE PUSH1 0x4 ADD PUSH1 0x20 PUSH1 0x40 MLOAD DUP1 DUP4 SUB DUP2 PUSH1 0x0 DUP8 DUP1 EXTCODESIZE ISZERO DUP1 ISZERO PUSH3 0xC07 JUMPI PUSH1 0x0 DUP1 REVERT JUMPDEST POP GAS CALL ISZERO DUP1 ISZERO PUSH3 0xC1C JUMPI RETURNDATASIZE PUSH1 0x0 DUP1 RETURNDATACOPY RETURNDATASIZE PUSH1 0x0 REVERT JUMPDEST POP POP POP POP PUSH1 0x40 MLOAD RETURNDATASIZE PUSH1 0x20 DUP2 LT ISZERO PUSH3 0xC33 JUMPI PUSH1 0x0 DUP1 REVERT JUMPDEST DUP2 ADD SWAP1 DUP1 DUP1 MLOAD SWAP1 PUSH1 0x20 ADD SWAP1 SWAP3 SWAP2 SWAP1 POP POP POP SWAP1 POP SWAP2 SWAP1 POP JUMP JUMPDEST PUSH1 0x0 DUP1 PUSH1 0x66 PUSH1 0x0 CALLER PUSH20 0xFFFFFFFFFFFFFFFFFFFFFFFFFFFFFFFFFFFFFFFF AND PUSH20 0xFFFFFFFFFFFFFFFFFFFFFFFFFFFFFFFFFFFFFFFF AND DUP2 MSTORE PUSH1 0x20 ADD SWAP1 DUP2 MSTORE PUSH1 0x20 ADD PUSH1 0x0 KECCAK256 SLOAD EQ ISZERO ISZERO ISZERO PUSH3 0xD05 JUMPI PUSH1 0x40 MLOAD PUSH32 0x8C379A000000000000000000000000000000000000000000000000000000000 DUP2 MSTORE PUSH1 0x4 ADD DUP1 DUP1 PUSH1 0x20 ADD DUP3 DUP2 SUB DUP3 MSTORE PUSH1 0x20 DUP2 MSTORE PUSH1 0x20 ADD DUP1 PUSH32 0x596F7520686176656E2774206372656174656420616E792041756374696F6E73 DUP2 MSTORE POP PUSH1 0x20 ADD SWAP2 POP POP PUSH1 0x40 MLOAD DUP1 SWAP2 SUB SWAP1 REVERT JUMPDEST PUSH1 0x1 PUSH1 0x66 PUSH1 0x0 CALLER PUSH20 0xFFFFFFFFFFFFFFFFFFFFFFFFFFFFFFFFFFFFFFFF AND PUSH20 0xFFFFFFFFFFFFFFFFFFFFFFFFFFFFFFFFFFFFFFFF AND DUP2 MSTORE PUSH1 0x20 ADD SWAP1 DUP2 MSTORE PUSH1 0x20 ADD PUSH1 0x0 KECCAK256 SLOAD PUSH1 0x65 DUP2 LT ISZERO ISZERO PUSH3 0xD54 JUMPI INVALID JUMPDEST ADD PUSH1 0x0 SWAP1 SLOAD SWAP1 PUSH2 0x100 EXP SWAP1 DIV PUSH20 0xFFFFFFFFFFFFFFFFFFFFFFFFFFFFFFFFFFFFFFFF AND PUSH20 0xFFFFFFFFFFFFFFFFFFFFFFFFFFFFFFFFFFFFFFFF AND PUSH4 0x409766E6 PUSH1 0x40 MLOAD DUP2 PUSH4 0xFFFFFFFF AND PUSH29 0x100000000000000000000000000000000000000000000000000000000 MUL DUP2 MSTORE PUSH1 0x4 ADD PUSH1 0x20 PUSH1 0x40 MLOAD DUP1 DUP4 SUB DUP2 PUSH1 0x0 DUP8 DUP1 EXTCODESIZE ISZERO DUP1 ISZERO PUSH3 0xDDA JUMPI PUSH1 0x0 DUP1 REVERT JUMPDEST POP GAS CALL ISZERO DUP1 ISZERO PUSH3 0xDEF JUMPI RETURNDATASIZE PUSH1 0x0 DUP1 RETURNDATACOPY RETURNDATASIZE PUSH1 0x0 REVERT JUMPDEST POP POP POP POP PUSH1 0x40 MLOAD RETURNDATASIZE PUSH1 0x20 DUP2 LT ISZERO PUSH3 0xE06 JUMPI PUSH1 0x0 DUP1 REVERT JUMPDEST DUP2 ADD SWAP1 DUP1 DUP1 MLOAD SWAP1 PUSH1 0x20 ADD SWAP1 SWAP3 SWAP2 SWAP1 POP POP POP ISZERO ISZERO PUSH3 0xEB2 JUMPI PUSH1 0x40 MLOAD PUSH32 0x8C379A000000000000000000000000000000000000000000000000000000000 DUP2 MSTORE PUSH1 0x4 ADD DUP1 DUP1 PUSH1 0x20 ADD DUP3 DUP2 SUB DUP3 MSTORE PUSH1 0x24 DUP2 MSTORE PUSH1 0x20 ADD DUP1 PUSH32 0x5468657265206172656E277420616E792062696473206F6E2074686520417563 DUP2 MSTORE PUSH1 0x20 ADD PUSH32 0x74696F6E00000000000000000000000000000000000000000000000000000000 DUP2 MSTORE POP PUSH1 0x40 ADD SWAP2 POP POP PUSH1 0x40 MLOAD DUP1 SWAP2 SUB SWAP1 REVERT JUMPDEST PUSH1 0x1 PUSH1 0x66 PUSH1 0x0 CALLER PUSH20 0xFFFFFFFFFFFFFFFFFFFFFFFFFFFFFFFFFFFFFFFF AND PUSH20 0xFFFFFFFFFFFFFFFFFFFFFFFFFFFFFFFFFFFFFFFF AND DUP2 MSTORE PUSH1 0x20 ADD SWAP1 DUP2 MSTORE PUSH1 0x20 ADD PUSH1 0x0 KECCAK256 SLOAD PUSH1 0x65 DUP2 LT ISZERO ISZERO PUSH3 0xF01 JUMPI INVALID JUMPDEST ADD PUSH1 0x0 SWAP1 SLOAD SWAP1 PUSH2 0x100 EXP SWAP1 DIV PUSH20 0xFFFFFFFFFFFFFFFFFFFFFFFFFFFFFFFFFFFFFFFF AND PUSH20 0xFFFFFFFFFFFFFFFFFFFFFFFFFFFFFFFFFFFFFFFF AND PUSH4 0xDD06BA1A PUSH1 0x40 MLOAD DUP2 PUSH4 0xFFFFFFFF AND PUSH29 0x100000000000000000000000000000000000000000000000000000000 MUL DUP2 MSTORE PUSH1 0x4 ADD PUSH1 0x20 PUSH1 0x40 MLOAD DUP1 DUP4 SUB DUP2 PUSH1 0x0 DUP8 DUP1 EXTCODESIZE ISZERO DUP1 ISZERO PUSH3 0xF87 JUMPI PUSH1 0x0 DUP1 REVERT JUMPDEST POP GAS CALL ISZERO DUP1 ISZERO PUSH3 0xF9C JUMPI RETURNDATASIZE PUSH1 0x0 DUP1 RETURNDATACOPY RETURNDATASIZE PUSH1 0x0 REVERT JUMPDEST POP POP POP POP PUSH1 0x40 MLOAD RETURNDATASIZE PUSH1 0x20 DUP2 LT ISZERO PUSH3 0xFB3 JUMPI PUSH1 0x0 DUP1 REVERT JUMPDEST DUP2 ADD SWAP1 DUP1 DUP1 MLOAD SWAP1 PUSH1 0x20 ADD SWAP1 SWAP3 SWAP2 SWAP1 POP POP POP SWAP1 POP SWAP1 JUMP JUMPDEST DUP2 PUSH1 0x0 SLOAD DUP2 GT ISZERO DUP1 ISZERO PUSH3 0x10AE JUMPI POP TIMESTAMP PUSH1 0x1 DUP3 PUSH1 0x65 DUP2 LT ISZERO ISZERO PUSH3 0xFE9 JUMPI INVALID JUMPDEST ADD PUSH1 0x0 SWAP1 SLOAD SWAP1 PUSH2 0x100 EXP SWAP1 DIV PUSH20 0xFFFFFFFFFFFFFFFFFFFFFFFFFFFFFFFFFFFFFFFF AND PUSH20 0xFFFFFFFFFFFFFFFFFFFFFFFFFFFFFFFFFFFFFFFF AND PUSH4 0x439F5AC2 PUSH1 0x40 MLOAD DUP2 PUSH4 0xFFFFFFFF AND PUSH29 0x100000000000000000000000000000000000000000000000000000000 MUL DUP2 MSTORE PUSH1 0x4 ADD PUSH1 0x20 PUSH1 0x40 MLOAD DUP1 DUP4 SUB DUP2 PUSH1 0x0 DUP8 DUP1 EXTCODESIZE ISZERO DUP1 ISZERO PUSH3 0x106F JUMPI PUSH1 0x0 DUP1 REVERT JUMPDEST POP GAS CALL ISZERO DUP1 ISZERO PUSH3 0x1084 JUMPI RETURNDATASIZE PUSH1 0x0 DUP1 RETURNDATACOPY RETURNDATASIZE PUSH1 0x0 REVERT JUMPDEST POP POP POP POP PUSH1 0x40 MLOAD RETURNDATASIZE PUSH1 0x20 DUP2 LT ISZERO PUSH3 0x109B JUMPI PUSH1 0x0 DUP1 REVERT JUMPDEST DUP2 ADD SWAP1 DUP1 DUP1 MLOAD SWAP1 PUSH1 0x20 ADD SWAP1 SWAP3 SWAP2 SWAP1 POP POP POP GT JUMPDEST ISZERO ISZERO PUSH3 0x1123 JUMPI PUSH1 0x40 MLOAD PUSH32 0x8C379A000000000000000000000000000000000000000000000000000000000 DUP2 MSTORE PUSH1 0x4 ADD DUP1 DUP1 PUSH1 0x20 ADD DUP3 DUP2 SUB DUP3 MSTORE PUSH1 0x13 DUP2 MSTORE PUSH1 0x20 ADD DUP1 PUSH32 0x41756374696F6E20697320496E61637469766500000000000000000000000000 DUP2 MSTORE POP PUSH1 0x20 ADD SWAP2 POP POP PUSH1 0x40 MLOAD DUP1 SWAP2 SUB SWAP1 REVERT JUMPDEST DUP2 PUSH1 0x1 DUP5 PUSH1 0x65 DUP2 LT ISZERO ISZERO PUSH3 0x1134 JUMPI INVALID JUMPDEST ADD PUSH1 0x0 SWAP1 SLOAD SWAP1 PUSH2 0x100 EXP SWAP1 DIV PUSH20 0xFFFFFFFFFFFFFFFFFFFFFFFFFFFFFFFFFFFFFFFF AND PUSH20 0xFFFFFFFFFFFFFFFFFFFFFFFFFFFFFFFFFFFFFFFF AND PUSH4 0xAD934674 PUSH1 0x40 MLOAD DUP2 PUSH4 0xFFFFFFFF AND PUSH29 0x100000000000000000000000000000000000000000000000000000000 MUL DUP2 MSTORE PUSH1 0x4 ADD PUSH1 0x20 PUSH1 0x40 MLOAD DUP1 DUP4 SUB DUP2 PUSH1 0x0 DUP8 DUP1 EXTCODESIZE ISZERO DUP1 ISZERO PUSH3 0x11BA JUMPI PUSH1 0x0 DUP1 REVERT JUMPDEST POP GAS CALL ISZERO DUP1 ISZERO PUSH3 0x11CF JUMPI RETURNDATASIZE PUSH1 0x0 DUP1 RETURNDATACOPY RETURNDATASIZE PUSH1 0x0 REVERT JUMPDEST POP POP POP POP PUSH1 0x40 MLOAD RETURNDATASIZE PUSH1 0x20 DUP2 LT ISZERO PUSH3 0x11E6 JUMPI PUSH1 0x0 DUP1 REVERT JUMPDEST DUP2 ADD SWAP1 DUP1 DUP1 MLOAD SWAP1 PUSH1 0x20 ADD SWAP1 SWAP3 SWAP2 SWAP1 POP POP POP LT ISZERO ISZERO PUSH3 0x1293 JUMPI PUSH1 0x40 MLOAD PUSH32 0x8C379A000000000000000000000000000000000000000000000000000000000 DUP2 MSTORE PUSH1 0x4 ADD DUP1 DUP1 PUSH1 0x20 ADD DUP3 DUP2 SUB DUP3 MSTORE PUSH1 0x3A DUP2 MSTORE PUSH1 0x20 ADD DUP1 PUSH32 0x4269642076616C75652063616E6E6F74206265206C657373207468616E206D69 DUP2 MSTORE PUSH1 0x20 ADD PUSH32 0x6E696E756D206269642076616C7565206F662061756374696F6E000000000000 DUP2 MSTORE POP PUSH1 0x40 ADD SWAP2 POP POP PUSH1 0x40 MLOAD DUP1 SWAP2 SUB SWAP1 REVERT JUMPDEST DUP3 PUSH1 0x66 PUSH1 0x0 CALLER PUSH20 0xFFFFFFFFFFFFFFFFFFFFFFFFFFFFFFFFFFFFFFFF AND PUSH20 0xFFFFFFFFFFFFFFFFFFFFFFFFFFFFFFFFFFFFFFFF AND DUP2 MSTORE PUSH1 0x20 ADD SWAP1 DUP2 MSTORE PUSH1 0x20 ADD PUSH1 0x0 KECCAK256 SLOAD EQ ISZERO ISZERO ISZERO PUSH3 0x134B JUMPI PUSH1 0x40 MLOAD PUSH32 0x8C379A000000000000000000000000000000000000000000000000000000000 DUP2 MSTORE PUSH1 0x4 ADD DUP1 DUP1 PUSH1 0x20 ADD DUP3 DUP2 SUB DUP3 MSTORE PUSH1 0x18 DUP2 MSTORE PUSH1 0x20 ADD DUP1 PUSH32 0x43616E277420626964206F6E206F776E2041756374696F6E0000000000000000 DUP2 MSTORE POP PUSH1 0x20 ADD SWAP2 POP POP PUSH1 0x40 MLOAD DUP1 SWAP2 SUB SWAP1 REVERT JUMPDEST PUSH1 0x1 DUP4 PUSH1 0x65 DUP2 LT ISZERO ISZERO PUSH3 0x135B JUMPI INVALID JUMPDEST ADD PUSH1 0x0 SWAP1 SLOAD SWAP1 PUSH2 0x100 EXP SWAP1 DIV PUSH20 0xFFFFFFFFFFFFFFFFFFFFFFFFFFFFFFFFFFFFFFFF AND PUSH20 0xFFFFFFFFFFFFFFFFFFFFFFFFFFFFFFFFFFFFFFFF AND PUSH4 0x659DD2B4 DUP4 PUSH1 0x40 MLOAD DUP3 PUSH4 0xFFFFFFFF AND PUSH29 0x100000000000000000000000000000000000000000000000000000000 MUL DUP2 MSTORE PUSH1 0x4 ADD DUP1 DUP3 DUP2 MSTORE PUSH1 0x20 ADD SWAP2 POP POP PUSH1 0x0 PUSH1 0x40 MLOAD DUP1 DUP4 SUB DUP2 PUSH1 0x0 DUP8 DUP1 EXTCODESIZE ISZERO DUP1 ISZERO PUSH3 0x13EC JUMPI PUSH1 0x0 DUP1 REVERT JUMPDEST POP GAS CALL ISZERO DUP1 ISZERO PUSH3 0x1401 JUMPI RETURNDATASIZE PUSH1 0x0 DUP1 RETURNDATACOPY RETURNDATASIZE PUSH1 0x0 REVERT JUMPDEST POP POP POP POP PUSH1 0x67 PUSH1 0x0 CALLER PUSH20 0xFFFFFFFFFFFFFFFFFFFFFFFFFFFFFFFFFFFFFFFF AND PUSH20 0xFFFFFFFFFFFFFFFFFFFFFFFFFFFFFFFFFFFFFFFF AND DUP2 MSTORE PUSH1 0x20 ADD SWAP1 DUP2 MSTORE PUSH1 0x20 ADD PUSH1 0x0 KECCAK256 DUP4 SWAP1 DUP1 PUSH1 0x1 DUP2 SLOAD ADD DUP1 DUP3 SSTORE DUP1 SWAP2 POP POP SWAP1 PUSH1 0x1 DUP3 SUB SWAP1 PUSH1 0x0 MSTORE PUSH1 0x20 PUSH1 0x0 KECCAK256 ADD PUSH1 0x0 SWAP1 SWAP2 SWAP3 SWAP1 SWAP2 SWAP1 SWAP2 POP SSTORE POP DUP3 CALLER PUSH20 0xFFFFFFFFFFFFFFFFFFFFFFFFFFFFFFFFFFFFFFFF AND PUSH32 0x248176D18D0B2664C1964DE940D9D88115D4D632E9047EC131DC7CFD5B41535E PUSH1 0x40 MLOAD PUSH1 0x40 MLOAD DUP1 SWAP2 SUB SWAP1 LOG3 POP POP POP JUMP JUMPDEST PUSH1 0x0 DUP1 PUSH1 0x66 PUSH1 0x0 CALLER PUSH20 0xFFFFFFFFFFFFFFFFFFFFFFFFFFFFFFFFFFFFFFFF AND PUSH20 0xFFFFFFFFFFFFFFFFFFFFFFFFFFFFFFFFFFFFFFFF AND DUP2 MSTORE PUSH1 0x20 ADD SWAP1 DUP2 MSTORE PUSH1 0x20 ADD PUSH1 0x0 KECCAK256 SLOAD EQ ISZERO ISZERO ISZERO PUSH3 0x1571 JUMPI PUSH1 0x40 MLOAD PUSH32 0x8C379A000000000000000000000000000000000000000000000000000000000 DUP2 MSTORE PUSH1 0x4 ADD DUP1 DUP1 PUSH1 0x20 ADD DUP3 DUP2 SUB DUP3 MSTORE PUSH1 0x20 DUP2 MSTORE PUSH1 0x20 ADD DUP1 PUSH32 0x596F7520686176656E2774206372656174656420616E792041756374696F6E73 DUP2 MSTORE POP PUSH1 0x20 ADD SWAP2 POP POP PUSH1 0x40 MLOAD DUP1 SWAP2 SUB SWAP1 REVERT JUMPDEST PUSH1 0x1 PUSH1 0x66 PUSH1 0x0 CALLER PUSH20 0xFFFFFFFFFFFFFFFFFFFFFFFFFFFFFFFFFFFFFFFF AND PUSH20 0xFFFFFFFFFFFFFFFFFFFFFFFFFFFFFFFFFFFFFFFF AND DUP2 MSTORE PUSH1 0x20 ADD SWAP1 DUP2 MSTORE PUSH1 0x20 ADD PUSH1 0x0 KECCAK256 SLOAD PUSH1 0x65 DUP2 LT ISZERO ISZERO PUSH3 0x15C0 JUMPI INVALID JUMPDEST ADD PUSH1 0x0 SWAP1 SLOAD SWAP1 PUSH2 0x100 EXP SWAP1 DIV PUSH20 0xFFFFFFFFFFFFFFFFFFFFFFFFFFFFFFFFFFFFFFFF AND PUSH20 0xFFFFFFFFFFFFFFFFFFFFFFFFFFFFFFFFFFFFFFFF AND PUSH4 0xDEE37A8E DUP4 PUSH1 0x40 MLOAD DUP3 PUSH4 0xFFFFFFFF AND PUSH29 0x100000000000000000000000000000000000000000000000000000000 MUL DUP2 MSTORE PUSH1 0x4 ADD DUP1 DUP3 DUP2 MSTORE PUSH1 0x20 ADD SWAP2 POP POP PUSH1 0x20 PUSH1 0x40 MLOAD DUP1 DUP4 SUB DUP2 PUSH1 0x0 DUP8 DUP1 EXTCODESIZE ISZERO DUP1 ISZERO PUSH3 0x1651 JUMPI PUSH1 0x0 DUP1 REVERT JUMPDEST POP GAS CALL ISZERO DUP1 ISZERO PUSH3 0x1666 JUMPI RETURNDATASIZE PUSH1 0x0 DUP1 RETURNDATACOPY RETURNDATASIZE PUSH1 0x0 REVERT JUMPDEST POP POP POP POP PUSH1 0x40 MLOAD RETURNDATASIZE PUSH1 0x20 DUP2 LT ISZERO PUSH3 0x167D JUMPI PUSH1 0x0 DUP1 REVERT JUMPDEST DUP2 ADD SWAP1 DUP1 DUP1 MLOAD SWAP1 PUSH1 0x20 ADD SWAP1 SWAP3 SWAP2 SWAP1 POP POP POP SWAP1 POP DUP2 DUP2 PUSH20 0xFFFFFFFFFFFFFFFFFFFFFFFFFFFFFFFFFFFFFFFF AND PUSH32 0x6E0E2174DBF7B77C08B6F9A2799B9FEDA84A6D54A5644864582040100A47D4C5 PUSH1 0x40 MLOAD PUSH1 0x40 MLOAD DUP1 SWAP2 SUB SWAP1 LOG3 POP POP JUMP JUMPDEST PUSH1 0x60 PUSH1 0x0 PUSH1 0x67 PUSH1 0x0 CALLER PUSH20 0xFFFFFFFFFFFFFFFFFFFFFFFFFFFFFFFFFFFFFFFF AND PUSH20 0xFFFFFFFFFFFFFFFFFFFFFFFFFFFFFFFFFFFFFFFF AND DUP2 MSTORE PUSH1 0x20 ADD SWAP1 DUP2 MSTORE PUSH1 0x20 ADD PUSH1 0x0 KECCAK256 DUP1 SLOAD SWAP1 POP EQ ISZERO ISZERO ISZERO PUSH3 0x1796 JUMPI PUSH1 0x40 MLOAD PUSH32 0x8C379A000000000000000000000000000000000000000000000000000000000 DUP2 MSTORE PUSH1 0x4 ADD DUP1 DUP1 PUSH1 0x20 ADD DUP3 DUP2 SUB DUP3 MSTORE PUSH1 0x17 DUP2 MSTORE PUSH1 0x20 ADD DUP1 PUSH32 0x596F7520646F6E2774206861766520616E792042696473000000000000000000 DUP2 MSTORE POP PUSH1 0x20 ADD SWAP2 POP POP PUSH1 0x40 MLOAD DUP1 SWAP2 SUB SWAP1 REVERT JUMPDEST PUSH1 0x67 PUSH1 0x0 CALLER PUSH20 0xFFFFFFFFFFFFFFFFFFFFFFFFFFFFFFFFFFFFFFFF AND PUSH20 0xFFFFFFFFFFFFFFFFFFFFFFFFFFFFFFFFFFFFFFFF AND DUP2 MSTORE PUSH1 0x20 ADD SWAP1 DUP2 MSTORE PUSH1 0x20 ADD PUSH1 0x0 KECCAK256 DUP1 SLOAD DUP1 PUSH1 0x20 MUL PUSH1 0x20 ADD PUSH1 0x40 MLOAD SWAP1 DUP2 ADD PUSH1 0x40 MSTORE DUP1 SWAP3 SWAP2 SWAP1 DUP2 DUP2 MSTORE PUSH1 0x20 ADD DUP3 DUP1 SLOAD DUP1 ISZERO PUSH3 0x1821 JUMPI PUSH1 0x20 MUL DUP3 ADD SWAP2 SWAP1 PUSH1 0x0 MSTORE PUSH1 0x20 PUSH1 0x0 KECCAK256 SWAP1 JUMPDEST DUP2 SLOAD DUP2 MSTORE PUSH1 0x20 ADD SWAP1 PUSH1 0x1 ADD SWAP1 DUP1 DUP4 GT PUSH3 0x180C JUMPI JUMPDEST POP POP POP POP POP SWAP1 POP SWAP1 JUMP JUMPDEST PUSH1 0x0 DUP1 PUSH1 0x0 DUP1 PUSH1 0x66 PUSH1 0x0 CALLER PUSH20 0xFFFFFFFFFFFFFFFFFFFFFFFFFFFFFFFFFFFFFFFF AND PUSH20 0xFFFFFFFFFFFFFFFFFFFFFFFFFFFFFFFFFFFFFFFF AND DUP2 MSTORE PUSH1 0x20 ADD SWAP1 DUP2 MSTORE PUSH1 0x20 ADD PUSH1 0x0 KECCAK256 SLOAD EQ ISZERO ISZERO PUSH3 0x190D JUMPI PUSH1 0x40 MLOAD PUSH32 0x8C379A000000000000000000000000000000000000000000000000000000000 DUP2 MSTORE PUSH1 0x4 ADD DUP1 DUP1 PUSH1 0x20 ADD DUP3 DUP2 SUB DUP3 MSTORE PUSH1 0x23 DUP2 MSTORE PUSH1 0x20 ADD DUP1 PUSH32 0x596F75206861766520616C7265616479206372656174656420616E2041756374 DUP2 MSTORE PUSH1 0x20 ADD PUSH32 0x696F6E0000000000000000000000000000000000000000000000000000000000 DUP2 MSTORE POP PUSH1 0x40 ADD SWAP2 POP POP PUSH1 0x40 MLOAD DUP1 SWAP2 SUB SWAP1 REVERT JUMPDEST PUSH3 0x191F DUP11 DUP11 DUP11 PUSH1 0x0 DUP1 PUSH1 0x0 PUSH3 0x23D0 JUMP JUMPDEST ISZERO ISZERO PUSH3 0x1994 JUMPI PUSH1 0x40 MLOAD PUSH32 0x8C379A000000000000000000000000000000000000000000000000000000000 DUP2 MSTORE PUSH1 0x4 ADD DUP1 DUP1 PUSH1 0x20 ADD DUP3 DUP2 SUB DUP3 MSTORE PUSH1 0x16 DUP2 MSTORE PUSH1 0x20 ADD DUP1 PUSH32 0x456E7465722056616C6964205374617274204461746500000000000000000000 DUP2 MSTORE POP PUSH1 0x20 ADD SWAP2 POP POP PUSH1 0x40 MLOAD DUP1 SWAP2 SUB SWAP1 REVERT JUMPDEST PUSH3 0x19A6 DUP8 DUP8 DUP8 PUSH1 0x0 DUP1 PUSH1 0x0 PUSH3 0x23D0 JUMP JUMPDEST ISZERO ISZERO PUSH3 0x1A1B JUMPI PUSH1 0x40 MLOAD PUSH32 0x8C379A000000000000000000000000000000000000000000000000000000000 DUP2 MSTORE PUSH1 0x4 ADD DUP1 DUP1 PUSH1 0x20 ADD DUP3 DUP2 SUB DUP3 MSTORE PUSH1 0x14 DUP2 MSTORE PUSH1 0x20 ADD DUP1 PUSH32 0x456E7465722056616C696420456E642044617465000000000000000000000000 DUP2 MSTORE POP PUSH1 0x20 ADD SWAP2 POP POP PUSH1 0x40 MLOAD DUP1 SWAP2 SUB SWAP1 REVERT JUMPDEST PUSH3 0x1A28 DUP11 DUP11 DUP11 PUSH3 0x2419 JUMP JUMPDEST SWAP3 POP PUSH3 0x1A37 DUP8 DUP8 DUP8 PUSH3 0x2419 JUMP JUMPDEST SWAP2 POP DUP3 TIMESTAMP LT DUP1 ISZERO PUSH3 0x1A48 JUMPI POP DUP2 TIMESTAMP LT JUMPDEST DUP1 ISZERO PUSH3 0x1A54 JUMPI POP DUP2 DUP4 LT JUMPDEST ISZERO ISZERO PUSH3 0x1AEF JUMPI PUSH1 0x40 MLOAD PUSH32 0x8C379A000000000000000000000000000000000000000000000000000000000 DUP2 MSTORE PUSH1 0x4 ADD DUP1 DUP1 PUSH1 0x20 ADD DUP3 DUP2 SUB DUP3 MSTORE PUSH1 0x2E DUP2 MSTORE PUSH1 0x20 ADD DUP1 PUSH32 0x20506C6561736520656E74657220612076616C696420696E74657276616C2066 DUP2 MSTORE PUSH1 0x20 ADD PUSH32 0x6F72207468652041756374696F6E000000000000000000000000000000000000 DUP2 MSTORE POP PUSH1 0x40 ADD SWAP2 POP POP PUSH1 0x40 MLOAD DUP1 SWAP2 SUB SWAP1 REVERT JUMPDEST PUSH1 0x1 PUSH1 0x0 SLOAD ADD PUSH1 0x0 DUP2 SWAP1 SSTORE POP DUP11 DUP4 DUP4 DUP7 PUSH3 0x1B09 PUSH3 0x2641 JUMP JUMPDEST DUP1 DUP1 PUSH1 0x20 ADD DUP6 DUP2 MSTORE PUSH1 0x20 ADD DUP5 DUP2 MSTORE PUSH1 0x20 ADD DUP4 DUP2 MSTORE PUSH1 0x20 ADD DUP3 DUP2 SUB DUP3 MSTORE DUP7 DUP2 DUP2 MLOAD DUP2 MSTORE PUSH1 0x20 ADD SWAP2 POP DUP1 MLOAD SWAP1 PUSH1 0x20 ADD SWAP1 DUP1 DUP4 DUP4 PUSH1 0x0 JUMPDEST DUP4 DUP2 LT ISZERO PUSH3 0x1B5A JUMPI DUP1 DUP3 ADD MLOAD DUP2 DUP5 ADD MSTORE PUSH1 0x20 DUP2 ADD SWAP1 POP PUSH3 0x1B3D JUMP JUMPDEST POP POP POP POP SWAP1 POP SWAP1 DUP2 ADD SWAP1 PUSH1 0x1F AND DUP1 ISZERO PUSH3 0x1B88 JUMPI DUP1 DUP3 SUB DUP1 MLOAD PUSH1 0x1 DUP4 PUSH1 0x20 SUB PUSH2 0x100 EXP SUB NOT AND DUP2 MSTORE PUSH1 0x20 ADD SWAP2 POP JUMPDEST POP SWAP6 POP POP POP POP POP POP PUSH1 0x40 MLOAD DUP1 SWAP2 SUB SWAP1 PUSH1 0x0 CREATE DUP1 ISZERO DUP1 ISZERO PUSH3 0x1BAD JUMPI RETURNDATASIZE PUSH1 0x0 DUP1 RETURNDATACOPY RETURNDATASIZE PUSH1 0x0 REVERT JUMPDEST POP SWAP1 POP DUP1 PUSH1 0x1 PUSH1 0x0 SLOAD PUSH1 0x65 DUP2 LT ISZERO ISZERO PUSH3 0x1BC3 JUMPI INVALID JUMPDEST ADD PUSH1 0x0 PUSH2 0x100 EXP DUP2 SLOAD DUP2 PUSH20 0xFFFFFFFFFFFFFFFFFFFFFFFFFFFFFFFFFFFFFFFF MUL NOT AND SWAP1 DUP4 PUSH20 0xFFFFFFFFFFFFFFFFFFFFFFFFFFFFFFFFFFFFFFFF AND MUL OR SWAP1 SSTORE POP PUSH1 0x0 SLOAD PUSH1 0x66 PUSH1 0x0 CALLER PUSH20 0xFFFFFFFFFFFFFFFFFFFFFFFFFFFFFFFFFFFFFFFF AND PUSH20 0xFFFFFFFFFFFFFFFFFFFFFFFFFFFFFFFFFFFFFFFF AND DUP2 MSTORE PUSH1 0x20 ADD SWAP1 DUP2 MSTORE PUSH1 0x20 ADD PUSH1 0x0 KECCAK256 DUP2 SWAP1 SSTORE POP TIMESTAMP PUSH1 0x0 SLOAD PUSH32 0x737A59893603EF25305AEF11AC201C15BB5FA4F4195223C5DD69109857781504 CALLER PUSH1 0x40 MLOAD DUP1 DUP3 PUSH20 0xFFFFFFFFFFFFFFFFFFFFFFFFFFFFFFFFFFFFFFFF AND PUSH20 0xFFFFFFFFFFFFFFFFFFFFFFFFFFFFFFFFFFFFFFFF AND DUP2 MSTORE PUSH1 0x20 ADD SWAP2 POP POP PUSH1 0x40 MLOAD DUP1 SWAP2 SUB SWAP1 LOG3 POP POP POP POP POP POP POP POP POP POP POP JUMP JUMPDEST PUSH1 0x60 PUSH1 0x0 PUSH1 0x66 PUSH1 0x0 CALLER PUSH20 0xFFFFFFFFFFFFFFFFFFFFFFFFFFFFFFFFFFFFFFFF AND PUSH20 0xFFFFFFFFFFFFFFFFFFFFFFFFFFFFFFFFFFFFFFFF AND DUP2 MSTORE PUSH1 0x20 ADD SWAP1 DUP2 MSTORE PUSH1 0x20 ADD PUSH1 0x0 KECCAK256 SLOAD EQ ISZERO ISZERO ISZERO PUSH3 0x1D77 JUMPI PUSH1 0x40 MLOAD PUSH32 0x8C379A000000000000000000000000000000000000000000000000000000000 DUP2 MSTORE PUSH1 0x4 ADD DUP1 DUP1 PUSH1 0x20 ADD DUP3 DUP2 SUB DUP3 MSTORE PUSH1 0x20 DUP2 MSTORE PUSH1 0x20 ADD DUP1 PUSH32 0x596F7520686176656E2774206372656174656420616E792041756374696F6E73 DUP2 MSTORE POP PUSH1 0x20 ADD SWAP2 POP POP PUSH1 0x40 MLOAD DUP1 SWAP2 SUB SWAP1 REVERT JUMPDEST PUSH1 0x1 PUSH1 0x66 PUSH1 0x0 CALLER PUSH20 0xFFFFFFFFFFFFFFFFFFFFFFFFFFFFFFFFFFFFFFFF AND PUSH20 0xFFFFFFFFFFFFFFFFFFFFFFFFFFFFFFFFFFFFFFFF AND DUP2 MSTORE PUSH1 0x20 ADD SWAP1 DUP2 MSTORE PUSH1 0x20 ADD PUSH1 0x0 KECCAK256 SLOAD PUSH1 0x65 DUP2 LT ISZERO ISZERO PUSH3 0x1DC6 JUMPI INVALID JUMPDEST ADD PUSH1 0x0 SWAP1 SLOAD SWAP1 PUSH2 0x100 EXP SWAP1 DIV PUSH20 0xFFFFFFFFFFFFFFFFFFFFFFFFFFFFFFFFFFFFFFFF AND PUSH20 0xFFFFFFFFFFFFFFFFFFFFFFFFFFFFFFFFFFFFFFFF AND PUSH4 0x409766E6 PUSH1 0x40 MLOAD DUP2 PUSH4 0xFFFFFFFF AND PUSH29 0x100000000000000000000000000000000000000000000000000000000 MUL DUP2 MSTORE PUSH1 0x4 ADD PUSH1 0x20 PUSH1 0x40 MLOAD DUP1 DUP4 SUB DUP2 PUSH1 0x0 DUP8 DUP1 EXTCODESIZE ISZERO DUP1 ISZERO PUSH3 0x1E4C JUMPI PUSH1 0x0 DUP1 REVERT JUMPDEST POP GAS CALL ISZERO DUP1 ISZERO PUSH3 0x1E61 JUMPI RETURNDATASIZE PUSH1 0x0 DUP1 RETURNDATACOPY RETURNDATASIZE PUSH1 0x0 REVERT JUMPDEST POP POP POP POP PUSH1 0x40 MLOAD RETURNDATASIZE PUSH1 0x20 DUP2 LT ISZERO PUSH3 0x1E78 JUMPI PUSH1 0x0 DUP1 REVERT JUMPDEST DUP2 ADD SWAP1 DUP1 DUP1 MLOAD SWAP1 PUSH1 0x20 ADD SWAP1 SWAP3 SWAP2 SWAP1 POP POP POP ISZERO ISZERO PUSH3 0x1F24 JUMPI PUSH1 0x40 MLOAD PUSH32 0x8C379A000000000000000000000000000000000000000000000000000000000 DUP2 MSTORE PUSH1 0x4 ADD DUP1 DUP1 PUSH1 0x20 ADD DUP3 DUP2 SUB DUP3 MSTORE PUSH1 0x24 DUP2 MSTORE PUSH1 0x20 ADD DUP1 PUSH32 0x5468657265206172656E277420616E792062696473206F6E2074686520417563 DUP2 MSTORE PUSH1 0x20 ADD PUSH32 0x74696F6E00000000000000000000000000000000000000000000000000000000 DUP2 MSTORE POP PUSH1 0x40 ADD SWAP2 POP POP PUSH1 0x40 MLOAD DUP1 SWAP2 SUB SWAP1 REVERT JUMPDEST PUSH1 0x1 PUSH1 0x66 PUSH1 0x0 CALLER PUSH20 0xFFFFFFFFFFFFFFFFFFFFFFFFFFFFFFFFFFFFFFFF AND PUSH20 0xFFFFFFFFFFFFFFFFFFFFFFFFFFFFFFFFFFFFFFFF AND DUP2 MSTORE PUSH1 0x20 ADD SWAP1 DUP2 MSTORE PUSH1 0x20 ADD PUSH1 0x0 KECCAK256 SLOAD PUSH1 0x65 DUP2 LT ISZERO ISZERO PUSH3 0x1F73 JUMPI INVALID JUMPDEST ADD PUSH1 0x0 SWAP1 SLOAD SWAP1 PUSH2 0x100 EXP SWAP1 DIV PUSH20 0xFFFFFFFFFFFFFFFFFFFFFFFFFFFFFFFFFFFFFFFF AND PUSH20 0xFFFFFFFFFFFFFFFFFFFFFFFFFFFFFFFFFFFFFFFF AND PUSH4 0x679DBF0C PUSH1 0x40 MLOAD DUP2 PUSH4 0xFFFFFFFF AND PUSH29 0x100000000000000000000000000000000000000000000000000000000 MUL DUP2 MSTORE PUSH1 0x4 ADD PUSH1 0x0 PUSH1 0x40 MLOAD DUP1 DUP4 SUB DUP2 PUSH1 0x0 DUP8 DUP1 EXTCODESIZE ISZERO DUP1 ISZERO PUSH3 0x1FF9 JUMPI PUSH1 0x0 DUP1 REVERT JUMPDEST POP GAS CALL ISZERO DUP1 ISZERO PUSH3 0x200E JUMPI RETURNDATASIZE PUSH1 0x0 DUP1 RETURNDATACOPY RETURNDATASIZE PUSH1 0x0 REVERT JUMPDEST POP POP POP POP PUSH1 0x40 MLOAD RETURNDATASIZE PUSH1 0x0 DUP3 RETURNDATACOPY RETURNDATASIZE PUSH1 0x1F NOT PUSH1 0x1F DUP3 ADD AND DUP3 ADD DUP1 PUSH1 0x40 MSTORE POP PUSH1 0x20 DUP2 LT ISZERO PUSH3 0x2039 JUMPI PUSH1 0x0 DUP1 REVERT JUMPDEST DUP2 ADD SWAP1 DUP1 DUP1 MLOAD PUSH5 0x100000000 DUP2 GT ISZERO PUSH3 0x2052 JUMPI PUSH1 0x0 DUP1 REVERT JUMPDEST DUP3 DUP2 ADD SWAP1 POP PUSH1 0x20 DUP2 ADD DUP5 DUP2 GT ISZERO PUSH3 0x2069 JUMPI PUSH1 0x0 DUP1 REVERT JUMPDEST DUP2 MLOAD DUP6 PUSH1 0x20 DUP3 MUL DUP4 ADD GT PUSH5 0x100000000 DUP3 GT OR ISZERO PUSH3 0x2087 JUMPI PUSH1 0x0 DUP1 REVERT JUMPDEST POP POP SWAP3 SWAP2 SWAP1 POP POP POP SWAP1 POP SWAP1 JUMP JUMPDEST PUSH1 0x0 DUP1 PUSH1 0x0 DUP1 PUSH1 0x66 PUSH1 0x0 CALLER PUSH20 0xFFFFFFFFFFFFFFFFFFFFFFFFFFFFFFFFFFFFFFFF AND PUSH20 0xFFFFFFFFFFFFFFFFFFFFFFFFFFFFFFFFFFFFFFFF AND DUP2 MSTORE PUSH1 0x20 ADD SWAP1 DUP2 MSTORE PUSH1 0x20 ADD PUSH1 0x0 KECCAK256 SLOAD EQ ISZERO ISZERO ISZERO PUSH3 0x2151 JUMPI PUSH1 0x40 MLOAD PUSH32 0x8C379A000000000000000000000000000000000000000000000000000000000 DUP2 MSTORE PUSH1 0x4 ADD DUP1 DUP1 PUSH1 0x20 ADD DUP3 DUP2 SUB DUP3 MSTORE PUSH1 0x20 DUP2 MSTORE PUSH1 0x20 ADD DUP1 PUSH32 0x596F7520686176656E2774206372656174656420616E792041756374696F6E73 DUP2 MSTORE POP PUSH1 0x20 ADD SWAP2 POP POP PUSH1 0x40 MLOAD DUP1 SWAP2 SUB SWAP1 REVERT JUMPDEST PUSH1 0x1 PUSH1 0x66 PUSH1 0x0 CALLER PUSH20 0xFFFFFFFFFFFFFFFFFFFFFFFFFFFFFFFFFFFFFFFF AND PUSH20 0xFFFFFFFFFFFFFFFFFFFFFFFFFFFFFFFFFFFFFFFF AND DUP2 MSTORE PUSH1 0x20 ADD SWAP1 DUP2 MSTORE PUSH1 0x20 ADD PUSH1 0x0 KECCAK256 SLOAD PUSH1 0x65 DUP2 LT ISZERO ISZERO PUSH3 0x21A0 JUMPI INVALID JUMPDEST ADD PUSH1 0x0 SWAP1 SLOAD SWAP1 PUSH2 0x100 EXP SWAP1 DIV PUSH20 0xFFFFFFFFFFFFFFFFFFFFFFFFFFFFFFFFFFFFFFFF AND PUSH20 0xFFFFFFFFFFFFFFFFFFFFFFFFFFFFFFFFFFFFFFFF AND PUSH4 0xDD06BA1A PUSH1 0x40 MLOAD DUP2 PUSH4 0xFFFFFFFF AND PUSH29 0x100000000000000000000000000000000000000000000000000000000 MUL DUP2 MSTORE PUSH1 0x4 ADD PUSH1 0x20 PUSH1 0x40 MLOAD DUP1 DUP4 SUB DUP2 PUSH1 0x0 DUP8 DUP1 EXTCODESIZE ISZERO DUP1 ISZERO PUSH3 0x2226 JUMPI PUSH1 0x0 DUP1 REVERT JUMPDEST POP GAS CALL ISZERO DUP1 ISZERO PUSH3 0x223B JUMPI RETURNDATASIZE PUSH1 0x0 DUP1 RETURNDATACOPY RETURNDATASIZE PUSH1 0x0 REVERT JUMPDEST POP POP POP POP PUSH1 0x40 MLOAD RETURNDATASIZE PUSH1 0x20 DUP2 LT ISZERO PUSH3 0x2252 JUMPI PUSH1 0x0 DUP1 REVERT JUMPDEST DUP2 ADD SWAP1 DUP1 DUP1 MLOAD SWAP1 PUSH1 0x20 ADD SWAP1 SWAP3 SWAP2 SWAP1 POP POP POP SWAP2 POP PUSH1 0x1 PUSH1 0x66 PUSH1 0x0 CALLER PUSH20 0xFFFFFFFFFFFFFFFFFFFFFFFFFFFFFFFFFFFFFFFF AND PUSH20 0xFFFFFFFFFFFFFFFFFFFFFFFFFFFFFFFFFFFFFFFF AND DUP2 MSTORE PUSH1 0x20 ADD SWAP1 DUP2 MSTORE PUSH1 0x20 ADD PUSH1 0x0 KECCAK256 SLOAD PUSH1 0x65 DUP2 LT ISZERO ISZERO PUSH3 0x22B4 JUMPI INVALID JUMPDEST ADD PUSH1 0x0 SWAP1 SLOAD SWAP1 PUSH2 0x100 EXP SWAP1 DIV PUSH20 0xFFFFFFFFFFFFFFFFFFFFFFFFFFFFFFFFFFFFFFFF AND PUSH20 0xFFFFFFFFFFFFFFFFFFFFFFFFFFFFFFFFFFFFFFFF AND PUSH4 0xDEE37A8E DUP4 PUSH1 0x40 MLOAD DUP3 PUSH4 0xFFFFFFFF AND PUSH29 0x100000000000000000000000000000000000000000000000000000000 MUL DUP2 MSTORE PUSH1 0x4 ADD DUP1 DUP3 DUP2 MSTORE PUSH1 0x20 ADD SWAP2 POP POP PUSH1 0x20 PUSH1 0x40 MLOAD DUP1 DUP4 SUB DUP2 PUSH1 0x0 DUP8 DUP1 EXTCODESIZE ISZERO DUP1 ISZERO PUSH3 0x2345 JUMPI PUSH1 0x0 DUP1 REVERT JUMPDEST POP GAS CALL ISZERO DUP1 ISZERO PUSH3 0x235A JUMPI RETURNDATASIZE PUSH1 0x0 DUP1 RETURNDATACOPY RETURNDATASIZE PUSH1 0x0 REVERT JUMPDEST POP POP POP POP PUSH1 0x40 MLOAD RETURNDATASIZE PUSH1 0x20 DUP2 LT ISZERO PUSH3 0x2371 JUMPI PUSH1 0x0 DUP1 REVERT JUMPDEST DUP2 ADD SWAP1 DUP1 DUP1 MLOAD SWAP1 PUSH1 0x20 ADD SWAP1 SWAP3 SWAP2 SWAP1 POP POP POP SWAP1 POP DUP2 DUP2 PUSH20 0xFFFFFFFFFFFFFFFFFFFFFFFFFFFFFFFFFFFFFFFF AND PUSH32 0x6E0E2174DBF7B77C08B6F9A2799B9FEDA84A6D54A5644864582040100A47D4C5 PUSH1 0x40 MLOAD PUSH1 0x40 MLOAD DUP1 SWAP2 SUB SWAP1 LOG3 DUP1 SWAP3 POP POP POP SWAP1 JUMP JUMPDEST PUSH1 0x0 PUSH3 0x23DF DUP8 DUP8 DUP8 PUSH3 0x2436 JUMP JUMPDEST ISZERO PUSH3 0x240F JUMPI PUSH1 0x18 DUP5 LT DUP1 ISZERO PUSH3 0x23F6 JUMPI POP PUSH1 0x3C DUP4 LT JUMPDEST DUP1 ISZERO PUSH3 0x2403 JUMPI POP PUSH1 0x3C DUP3 LT JUMPDEST ISZERO PUSH3 0x240E JUMPI PUSH1 0x1 SWAP1 POP JUMPDEST JUMPDEST SWAP7 SWAP6 POP POP POP POP POP POP JUMP JUMPDEST PUSH1 0x0 PUSH3 0x15180 PUSH3 0x242C DUP6 DUP6 DUP6 PUSH3 0x2493 JUMP JUMPDEST MUL SWAP1 POP SWAP4 SWAP3 POP POP POP JUMP JUMPDEST PUSH1 0x0 DUP1 PUSH2 0x7B2 DUP6 LT ISZERO DUP1 ISZERO PUSH3 0x244C JUMPI POP PUSH1 0x0 DUP5 GT JUMPDEST DUP1 ISZERO PUSH3 0x245A JUMPI POP PUSH1 0xC DUP5 GT ISZERO JUMPDEST ISZERO PUSH3 0x248B JUMPI PUSH3 0x246C DUP6 DUP6 PUSH3 0x2558 JUMP JUMPDEST SWAP1 POP PUSH1 0x0 DUP4 GT DUP1 ISZERO PUSH3 0x247F JUMPI POP DUP1 DUP4 GT ISZERO JUMPDEST ISZERO PUSH3 0x248A JUMPI PUSH1 0x1 SWAP2 POP JUMPDEST JUMPDEST POP SWAP4 SWAP3 POP POP POP JUMP JUMPDEST PUSH1 0x0 DUP1 PUSH1 0x0 DUP1 PUSH1 0x0 PUSH2 0x7B2 DUP9 LT ISZERO ISZERO ISZERO PUSH3 0x24AD JUMPI PUSH1 0x0 DUP1 REVERT JUMPDEST DUP8 SWAP4 POP DUP7 SWAP3 POP DUP6 SWAP2 POP PUSH3 0x253D8C PUSH1 0x4 PUSH1 0x64 PUSH1 0xC PUSH1 0xE DUP8 SUB DUP2 ISZERO ISZERO PUSH3 0x24CE JUMPI INVALID JUMPDEST SDIV PUSH2 0x1324 DUP9 ADD ADD DUP2 ISZERO ISZERO PUSH3 0x24DF JUMPI INVALID JUMPDEST SDIV PUSH1 0x3 MUL DUP2 ISZERO ISZERO PUSH3 0x24ED JUMPI INVALID JUMPDEST SDIV PUSH1 0xC DUP1 PUSH1 0xC PUSH1 0xE DUP9 SUB DUP2 ISZERO ISZERO PUSH3 0x2501 JUMPI INVALID JUMPDEST SDIV MUL PUSH1 0x2 DUP8 SUB SUB PUSH2 0x16F MUL DUP2 ISZERO ISZERO PUSH3 0x2516 JUMPI INVALID JUMPDEST SDIV PUSH1 0x4 PUSH1 0xC PUSH1 0xE DUP9 SUB DUP2 ISZERO ISZERO PUSH3 0x2529 JUMPI INVALID JUMPDEST SDIV PUSH2 0x12C0 DUP10 ADD ADD PUSH2 0x5B5 MUL DUP2 ISZERO ISZERO PUSH3 0x253E JUMPI INVALID JUMPDEST SDIV PUSH2 0x7D4B DUP7 SUB ADD ADD SUB SUB SWAP1 POP DUP1 SWAP5 POP POP POP POP POP SWAP4 SWAP3 POP POP POP JUMP JUMPDEST PUSH1 0x0 PUSH1 0x1 DUP3 EQ DUP1 PUSH3 0x256A JUMPI POP PUSH1 0x3 DUP3 EQ JUMPDEST DUP1 PUSH3 0x2576 JUMPI POP PUSH1 0x5 DUP3 EQ JUMPDEST DUP1 PUSH3 0x2582 JUMPI POP PUSH1 0x7 DUP3 EQ JUMPDEST DUP1 PUSH3 0x258E JUMPI POP PUSH1 0x8 DUP3 EQ JUMPDEST DUP1 PUSH3 0x259A JUMPI POP PUSH1 0xA DUP3 EQ JUMPDEST DUP1 PUSH3 0x25A6 JUMPI POP PUSH1 0xC DUP3 EQ JUMPDEST ISZERO PUSH3 0x25B6 JUMPI PUSH1 0x1F SWAP1 POP PUSH3 0x25ED JUMP JUMPDEST PUSH1 0x2 DUP3 EQ ISZERO ISZERO PUSH3 0x25CB JUMPI PUSH1 0x1E SWAP1 POP PUSH3 0x25EC JUMP JUMPDEST PUSH3 0x25D6 DUP4 PUSH3 0x25F3 JUMP JUMPDEST PUSH3 0x25E3 JUMPI PUSH1 0x1C PUSH3 0x25E6 JUMP JUMPDEST PUSH1 0x1D JUMPDEST PUSH1 0xFF AND SWAP1 POP JUMPDEST JUMPDEST SWAP3 SWAP2 POP POP JUMP JUMPDEST PUSH1 0x0 DUP1 PUSH1 0x4 DUP4 DUP2 ISZERO ISZERO PUSH3 0x2603 JUMPI INVALID JUMPDEST MOD EQ DUP1 ISZERO PUSH3 0x2620 JUMPI POP PUSH1 0x0 PUSH1 0x64 DUP4 DUP2 ISZERO ISZERO PUSH3 0x261C JUMPI INVALID JUMPDEST MOD EQ ISZERO JUMPDEST DUP1 PUSH3 0x263A JUMPI POP PUSH1 0x0 PUSH2 0x190 DUP4 DUP2 ISZERO ISZERO PUSH3 0x2637 JUMPI INVALID JUMPDEST MOD EQ JUMPDEST SWAP1 POP SWAP2 SWAP1 POP JUMP JUMPDEST PUSH1 0x40 MLOAD PUSH2 0xF8E DUP1 PUSH3 0x2653 DUP4 CODECOPY ADD SWAP1 JUMP STOP PUSH1 0x80 PUSH1 0x40 MSTORE CALLVALUE DUP1 ISZERO PUSH2 0x10 JUMPI PUSH1 0x0 DUP1 REVERT JUMPDEST POP PUSH1 0x40 MLOAD PUSH2 0xF8E CODESIZE SUB DUP1 PUSH2 0xF8E DUP4 CODECOPY DUP2 ADD DUP1 PUSH1 0x40 MSTORE DUP2 ADD SWAP1 DUP1 DUP1 MLOAD DUP3 ADD SWAP3 SWAP2 SWAP1 PUSH1 0x20 ADD DUP1 MLOAD SWAP1 PUSH1 0x20 ADD SWAP1 SWAP3 SWAP2 SWAP1 DUP1 MLOAD SWAP1 PUSH1 0x20 ADD SWAP1 SWAP3 SWAP2 SWAP1 DUP1 MLOAD SWAP1 PUSH1 0x20 ADD SWAP1 SWAP3 SWAP2 SWAP1 POP POP POP DUP4 PUSH1 0x0 SWAP1 DUP1 MLOAD SWAP1 PUSH1 0x20 ADD SWAP1 PUSH2 0x6A SWAP3 SWAP2 SWAP1 PUSH2 0x89 JUMP JUMPDEST POP DUP3 PUSH1 0x1 DUP2 SWAP1 SSTORE POP DUP2 PUSH1 0x2 DUP2 SWAP1 SSTORE POP DUP1 PUSH1 0x3 DUP2 SWAP1 SSTORE POP POP POP POP POP PUSH2 0x12E JUMP JUMPDEST DUP3 DUP1 SLOAD PUSH1 0x1 DUP2 PUSH1 0x1 AND ISZERO PUSH2 0x100 MUL SUB AND PUSH1 0x2 SWAP1 DIV SWAP1 PUSH1 0x0 MSTORE PUSH1 0x20 PUSH1 0x0 KECCAK256 SWAP1 PUSH1 0x1F ADD PUSH1 0x20 SWAP1 DIV DUP2 ADD SWAP3 DUP3 PUSH1 0x1F LT PUSH2 0xCA JUMPI DUP1 MLOAD PUSH1 0xFF NOT AND DUP4 DUP1 ADD OR DUP6 SSTORE PUSH2 0xF8 JUMP JUMPDEST DUP3 DUP1 ADD PUSH1 0x1 ADD DUP6 SSTORE DUP3 ISZERO PUSH2 0xF8 JUMPI SWAP2 DUP3 ADD JUMPDEST DUP3 DUP2 GT ISZERO PUSH2 0xF7 JUMPI DUP3 MLOAD DUP3 SSTORE SWAP2 PUSH1 0x20 ADD SWAP2 SWAP1 PUSH1 0x1 ADD SWAP1 PUSH2 0xDC JUMP JUMPDEST JUMPDEST POP SWAP1 POP PUSH2 0x105 SWAP2 SWAP1 PUSH2 0x109 JUMP JUMPDEST POP SWAP1 JUMP JUMPDEST PUSH2 0x12B SWAP2 SWAP1 JUMPDEST DUP1 DUP3 GT ISZERO PUSH2 0x127 JUMPI PUSH1 0x0 DUP2 PUSH1 0x0 SWAP1 SSTORE POP PUSH1 0x1 ADD PUSH2 0x10F JUMP JUMPDEST POP SWAP1 JUMP JUMPDEST SWAP1 JUMP JUMPDEST PUSH2 0xE51 DUP1 PUSH2 0x13D PUSH1 0x0 CODECOPY PUSH1 0x0 RETURN STOP PUSH1 0x80 PUSH1 0x40 MSTORE PUSH1 0x4 CALLDATASIZE LT PUSH2 0x99 JUMPI PUSH1 0x0 CALLDATALOAD PUSH29 0x100000000000000000000000000000000000000000000000000000000 SWAP1 DIV PUSH4 0xFFFFFFFF AND DUP1 PUSH4 0x409766E6 EQ PUSH2 0x9E JUMPI DUP1 PUSH4 0x43129DE1 EQ PUSH2 0xCD JUMPI DUP1 PUSH4 0x439F5AC2 EQ PUSH2 0xFA JUMPI DUP1 PUSH4 0x62EA82DB EQ PUSH2 0x125 JUMPI DUP1 PUSH4 0x659DD2B4 EQ PUSH2 0x17C JUMPI DUP1 PUSH4 0x679DBF0C EQ PUSH2 0x1A9 JUMPI DUP1 PUSH4 0xAD934674 EQ PUSH2 0x215 JUMPI DUP1 PUSH4 0xDD06BA1A EQ PUSH2 0x240 JUMPI DUP1 PUSH4 0xDEE37A8E EQ PUSH2 0x26B JUMPI JUMPDEST PUSH1 0x0 DUP1 REVERT JUMPDEST CALLVALUE DUP1 ISZERO PUSH2 0xAA JUMPI PUSH1 0x0 DUP1 REVERT JUMPDEST POP PUSH2 0xB3 PUSH2 0x2D8 JUMP JUMPDEST PUSH1 0x40 MLOAD DUP1 DUP3 ISZERO ISZERO ISZERO ISZERO DUP2 MSTORE PUSH1 0x20 ADD SWAP2 POP POP PUSH1 0x40 MLOAD DUP1 SWAP2 SUB SWAP1 RETURN JUMPDEST CALLVALUE DUP1 ISZERO PUSH2 0xD9 JUMPI PUSH1 0x0 DUP1 REVERT JUMPDEST POP PUSH2 0xF8 PUSH1 0x4 DUP1 CALLDATASIZE SUB DUP2 ADD SWAP1 DUP1 DUP1 CALLDATALOAD SWAP1 PUSH1 0x20 ADD SWAP1 SWAP3 SWAP2 SWAP1 POP POP POP PUSH2 0x2EF JUMP JUMPDEST STOP JUMPDEST CALLVALUE DUP1 ISZERO PUSH2 0x106 JUMPI PUSH1 0x0 DUP1 REVERT JUMPDEST POP PUSH2 0x10F PUSH2 0x554 JUMP JUMPDEST PUSH1 0x40 MLOAD DUP1 DUP3 DUP2 MSTORE PUSH1 0x20 ADD SWAP2 POP POP PUSH1 0x40 MLOAD DUP1 SWAP2 SUB SWAP1 RETURN JUMPDEST CALLVALUE DUP1 ISZERO PUSH2 0x131 JUMPI PUSH1 0x0 DUP1 REVERT JUMPDEST POP PUSH2 0x166 PUSH1 0x4 DUP1 CALLDATASIZE SUB DUP2 ADD SWAP1 DUP1 DUP1 CALLDATALOAD PUSH20 0xFFFFFFFFFFFFFFFFFFFFFFFFFFFFFFFFFFFFFFFF AND SWAP1 PUSH1 0x20 ADD SWAP1 SWAP3 SWAP2 SWAP1 POP POP POP PUSH2 0x55E JUMP JUMPDEST PUSH1 0x40 MLOAD DUP1 DUP3 DUP2 MSTORE PUSH1 0x20 ADD SWAP2 POP POP PUSH1 0x40 MLOAD DUP1 SWAP2 SUB SWAP1 RETURN JUMPDEST CALLVALUE DUP1 ISZERO PUSH2 0x188 JUMPI PUSH1 0x0 DUP1 REVERT JUMPDEST POP PUSH2 0x1A7 PUSH1 0x4 DUP1 CALLDATASIZE SUB DUP2 ADD SWAP1 DUP1 DUP1 CALLDATALOAD SWAP1 PUSH1 0x20 ADD SWAP1 SWAP3 SWAP2 SWAP1 POP POP POP PUSH2 0x576 JUMP JUMPDEST STOP JUMPDEST CALLVALUE DUP1 ISZERO PUSH2 0x1B5 JUMPI PUSH1 0x0 DUP1 REVERT JUMPDEST POP PUSH2 0x1BE PUSH2 0x835 JUMP JUMPDEST PUSH1 0x40 MLOAD DUP1 DUP1 PUSH1 0x20 ADD DUP3 DUP2 SUB DUP3 MSTORE DUP4 DUP2 DUP2 MLOAD DUP2 MSTORE PUSH1 0x20 ADD SWAP2 POP DUP1 MLOAD SWAP1 PUSH1 0x20 ADD SWAP1 PUSH1 0x20 MUL DUP1 DUP4 DUP4 PUSH1 0x0 JUMPDEST DUP4 DUP2 LT ISZERO PUSH2 0x201 JUMPI DUP1 DUP3 ADD MLOAD DUP2 DUP5 ADD MSTORE PUSH1 0x20 DUP2 ADD SWAP1 POP PUSH2 0x1E6 JUMP JUMPDEST POP POP POP POP SWAP1 POP ADD SWAP3 POP POP POP PUSH1 0x40 MLOAD DUP1 SWAP2 SUB SWAP1 RETURN JUMPDEST CALLVALUE DUP1 ISZERO PUSH2 0x221 JUMPI PUSH1 0x0 DUP1 REVERT JUMPDEST POP PUSH2 0x22A PUSH2 0x9A2 JUMP JUMPDEST PUSH1 0x40 MLOAD DUP1 DUP3 DUP2 MSTORE PUSH1 0x20 ADD SWAP2 POP POP PUSH1 0x40 MLOAD DUP1 SWAP2 SUB SWAP1 RETURN JUMPDEST CALLVALUE DUP1 ISZERO PUSH2 0x24C JUMPI PUSH1 0x0 DUP1 REVERT JUMPDEST POP PUSH2 0x255 PUSH2 0xA25 JUMP JUMPDEST PUSH1 0x40 MLOAD DUP1 DUP3 DUP2 MSTORE PUSH1 0x20 ADD SWAP2 POP POP PUSH1 0x40 MLOAD DUP1 SWAP2 SUB SWAP1 RETURN JUMPDEST CALLVALUE DUP1 ISZERO PUSH2 0x277 JUMPI PUSH1 0x0 DUP1 REVERT JUMPDEST POP PUSH2 0x296 PUSH1 0x4 DUP1 CALLDATASIZE SUB DUP2 ADD SWAP1 DUP1 DUP1 CALLDATALOAD SWAP1 PUSH1 0x20 ADD SWAP1 SWAP3 SWAP2 SWAP1 POP POP POP PUSH2 0xB4E JUMP JUMPDEST PUSH1 0x40 MLOAD DUP1 DUP3 PUSH20 0xFFFFFFFFFFFFFFFFFFFFFFFFFFFFFFFFFFFFFFFF AND PUSH20 0xFFFFFFFFFFFFFFFFFFFFFFFFFFFFFFFFFFFFFFFF AND DUP2 MSTORE PUSH1 0x20 ADD SWAP2 POP POP PUSH1 0x40 MLOAD DUP1 SWAP2 SUB SWAP1 RETURN JUMPDEST PUSH1 0x0 PUSH1 0x4 PUSH1 0x0 SWAP1 SLOAD SWAP1 PUSH2 0x100 EXP SWAP1 DIV PUSH1 0xFF AND SWAP1 POP SWAP1 JUMP JUMPDEST DUP1 PUSH1 0x3 SLOAD DUP2 GT ISZERO ISZERO PUSH2 0x3B5 JUMPI PUSH1 0x40 MLOAD PUSH32 0x8C379A000000000000000000000000000000000000000000000000000000000 DUP2 MSTORE PUSH1 0x4 ADD DUP1 DUP1 PUSH1 0x20 ADD DUP3 DUP2 SUB DUP3 MSTORE PUSH1 0x45 DUP2 MSTORE PUSH1 0x20 ADD DUP1 PUSH32 0x506C6561736520656E7465722061206269642067726561746572207468616E20 DUP2 MSTORE PUSH1 0x20 ADD PUSH32 0x6D696E696D756D20726571756972656420626964206F6620676976656E206175 DUP2 MSTORE PUSH1 0x20 ADD PUSH32 0x6374696F6E000000000000000000000000000000000000000000000000000000 DUP2 MSTORE POP PUSH1 0x60 ADD SWAP2 POP POP PUSH1 0x40 MLOAD DUP1 SWAP2 SUB SWAP1 REVERT JUMPDEST PUSH1 0x2 SLOAD TIMESTAMP LT ISZERO ISZERO PUSH2 0x42E JUMPI PUSH1 0x40 MLOAD PUSH32 0x8C379A000000000000000000000000000000000000000000000000000000000 DUP2 MSTORE PUSH1 0x4 ADD DUP1 DUP1 PUSH1 0x20 ADD DUP3 DUP2 SUB DUP3 MSTORE PUSH1 0x14 DUP2 MSTORE PUSH1 0x20 ADD DUP1 PUSH32 0x41756374696F6E20697320496E61637469766520000000000000000000000000 DUP2 MSTORE POP PUSH1 0x20 ADD SWAP2 POP POP PUSH1 0x40 MLOAD DUP1 SWAP2 SUB SWAP1 REVERT JUMPDEST PUSH1 0x0 PUSH1 0x5 PUSH1 0x0 ORIGIN PUSH20 0xFFFFFFFFFFFFFFFFFFFFFFFFFFFFFFFFFFFFFFFF AND PUSH20 0xFFFFFFFFFFFFFFFFFFFFFFFFFFFFFFFFFFFFFFFF AND DUP2 MSTORE PUSH1 0x20 ADD SWAP1 DUP2 MSTORE PUSH1 0x20 ADD PUSH1 0x0 KECCAK256 SLOAD EQ ISZERO ISZERO ISZERO PUSH2 0x50C JUMPI PUSH1 0x40 MLOAD PUSH32 0x8C379A000000000000000000000000000000000000000000000000000000000 DUP2 MSTORE PUSH1 0x4 ADD DUP1 DUP1 PUSH1 0x20 ADD DUP3 DUP2 SUB DUP3 MSTORE PUSH1 0x3B DUP2 MSTORE PUSH1 0x20 ADD DUP1 PUSH32 0x596F7520686176656E2774206372656174656420616E79206269642C20757365 DUP2 MSTORE PUSH1 0x20 ADD PUSH32 0x2063726561746542696420666F72206372656174696E67206F6E650000000000 DUP2 MSTORE POP PUSH1 0x40 ADD SWAP2 POP POP PUSH1 0x40 MLOAD DUP1 SWAP2 SUB SWAP1 REVERT JUMPDEST DUP2 PUSH1 0x5 PUSH1 0x0 ORIGIN PUSH20 0xFFFFFFFFFFFFFFFFFFFFFFFFFFFFFFFFFFFFFFFF AND PUSH20 0xFFFFFFFFFFFFFFFFFFFFFFFFFFFFFFFFFFFFFFFF AND DUP2 MSTORE PUSH1 0x20 ADD SWAP1 DUP2 MSTORE PUSH1 0x20 ADD PUSH1 0x0 KECCAK256 DUP2 SWAP1 SSTORE POP POP POP JUMP JUMPDEST PUSH1 0x0 PUSH1 0x2 SLOAD SWAP1 POP SWAP1 JUMP JUMPDEST PUSH1 0x5 PUSH1 0x20 MSTORE DUP1 PUSH1 0x0 MSTORE PUSH1 0x40 PUSH1 0x0 KECCAK256 PUSH1 0x0 SWAP2 POP SWAP1 POP SLOAD DUP2 JUMP JUMPDEST DUP1 PUSH1 0x3 SLOAD DUP2 GT ISZERO ISZERO PUSH2 0x63C JUMPI PUSH1 0x40 MLOAD PUSH32 0x8C379A000000000000000000000000000000000000000000000000000000000 DUP2 MSTORE PUSH1 0x4 ADD DUP1 DUP1 PUSH1 0x20 ADD DUP3 DUP2 SUB DUP3 MSTORE PUSH1 0x45 DUP2 MSTORE PUSH1 0x20 ADD DUP1 PUSH32 0x506C6561736520656E7465722061206269642067726561746572207468616E20 DUP2 MSTORE PUSH1 0x20 ADD PUSH32 0x6D696E696D756D20726571756972656420626964206F6620676976656E206175 DUP2 MSTORE PUSH1 0x20 ADD PUSH32 0x6374696F6E000000000000000000000000000000000000000000000000000000 DUP2 MSTORE POP PUSH1 0x60 ADD SWAP2 POP POP PUSH1 0x40 MLOAD DUP1 SWAP2 SUB SWAP1 REVERT JUMPDEST PUSH1 0x2 SLOAD TIMESTAMP LT ISZERO ISZERO PUSH2 0x6B5 JUMPI PUSH1 0x40 MLOAD PUSH32 0x8C379A000000000000000000000000000000000000000000000000000000000 DUP2 MSTORE PUSH1 0x4 ADD DUP1 DUP1 PUSH1 0x20 ADD DUP3 DUP2 SUB DUP3 MSTORE PUSH1 0x14 DUP2 MSTORE PUSH1 0x20 ADD DUP1 PUSH32 0x41756374696F6E20697320496E61637469766520000000000000000000000000 DUP2 MSTORE POP PUSH1 0x20 ADD SWAP2 POP POP PUSH1 0x40 MLOAD DUP1 SWAP2 SUB SWAP1 REVERT JUMPDEST PUSH1 0x0 PUSH1 0x5 PUSH1 0x0 ORIGIN PUSH20 0xFFFFFFFFFFFFFFFFFFFFFFFFFFFFFFFFFFFFFFFF AND PUSH20 0xFFFFFFFFFFFFFFFFFFFFFFFFFFFFFFFFFFFFFFFF AND DUP2 MSTORE PUSH1 0x20 ADD SWAP1 DUP2 MSTORE PUSH1 0x20 ADD PUSH1 0x0 KECCAK256 SLOAD EQ ISZERO ISZERO PUSH2 0x76C JUMPI PUSH1 0x40 MLOAD PUSH32 0x8C379A000000000000000000000000000000000000000000000000000000000 DUP2 MSTORE PUSH1 0x4 ADD DUP1 DUP1 PUSH1 0x20 ADD DUP3 DUP2 SUB DUP3 MSTORE PUSH1 0x1E DUP2 MSTORE PUSH1 0x20 ADD DUP1 PUSH32 0x596F75206861766520616C726561647920637265617465642061206269640000 DUP2 MSTORE POP PUSH1 0x20 ADD SWAP2 POP POP PUSH1 0x40 MLOAD DUP1 SWAP2 SUB SWAP1 REVERT JUMPDEST PUSH1 0x1 PUSH1 0x4 PUSH1 0x0 PUSH2 0x100 EXP DUP2 SLOAD DUP2 PUSH1 0xFF MUL NOT AND SWAP1 DUP4 ISZERO ISZERO MUL OR SWAP1 SSTORE POP DUP2 PUSH1 0x5 PUSH1 0x0 ORIGIN PUSH20 0xFFFFFFFFFFFFFFFFFFFFFFFFFFFFFFFFFFFFFFFF AND PUSH20 0xFFFFFFFFFFFFFFFFFFFFFFFFFFFFFFFFFFFFFFFF AND DUP2 MSTORE PUSH1 0x20 ADD SWAP1 DUP2 MSTORE PUSH1 0x20 ADD PUSH1 0x0 KECCAK256 DUP2 SWAP1 SSTORE POP PUSH1 0x6 ORIGIN SWAP1 DUP1 PUSH1 0x1 DUP2 SLOAD ADD DUP1 DUP3 SSTORE DUP1 SWAP2 POP POP SWAP1 PUSH1 0x1 DUP3 SUB SWAP1 PUSH1 0x0 MSTORE PUSH1 0x20 PUSH1 0x0 KECCAK256 ADD PUSH1 0x0 SWAP1 SWAP2 SWAP3 SWAP1 SWAP2 SWAP1 SWAP2 PUSH2 0x100 EXP DUP2 SLOAD DUP2 PUSH20 0xFFFFFFFFFFFFFFFFFFFFFFFFFFFFFFFFFFFFFFFF MUL NOT AND SWAP1 DUP4 PUSH20 0xFFFFFFFFFFFFFFFFFFFFFFFFFFFFFFFFFFFFFFFF AND MUL OR SWAP1 SSTORE POP POP POP POP JUMP JUMPDEST PUSH1 0x60 DUP1 PUSH1 0x0 PUSH1 0x2 SLOAD TIMESTAMP LT ISZERO ISZERO PUSH2 0x8B3 JUMPI PUSH1 0x40 MLOAD PUSH32 0x8C379A000000000000000000000000000000000000000000000000000000000 DUP2 MSTORE PUSH1 0x4 ADD DUP1 DUP1 PUSH1 0x20 ADD DUP3 DUP2 SUB DUP3 MSTORE PUSH1 0x14 DUP2 MSTORE PUSH1 0x20 ADD DUP1 PUSH32 0x41756374696F6E20697320496E61637469766520000000000000000000000000 DUP2 MSTORE POP PUSH1 0x20 ADD SWAP2 POP POP PUSH1 0x40 MLOAD DUP1 SWAP2 SUB SWAP1 REVERT JUMPDEST PUSH1 0x6 DUP1 SLOAD SWAP1 POP PUSH1 0x40 MLOAD SWAP1 DUP1 DUP3 MSTORE DUP1 PUSH1 0x20 MUL PUSH1 0x20 ADD DUP3 ADD PUSH1 0x40 MSTORE DUP1 ISZERO PUSH2 0x8E7 JUMPI DUP2 PUSH1 0x20 ADD PUSH1 0x20 DUP3 MUL DUP1 CODESIZE DUP4 CODECOPY DUP1 DUP3 ADD SWAP2 POP POP SWAP1 POP JUMPDEST POP SWAP2 POP JUMPDEST PUSH1 0x6 DUP1 SLOAD SWAP1 POP DUP2 LT ISZERO PUSH2 0x99A JUMPI PUSH1 0x5 PUSH1 0x0 PUSH1 0x6 DUP4 DUP2 SLOAD DUP2 LT ISZERO ISZERO PUSH2 0x90B JUMPI INVALID JUMPDEST SWAP1 PUSH1 0x0 MSTORE PUSH1 0x20 PUSH1 0x0 KECCAK256 ADD PUSH1 0x0 SWAP1 SLOAD SWAP1 PUSH2 0x100 EXP SWAP1 DIV PUSH20 0xFFFFFFFFFFFFFFFFFFFFFFFFFFFFFFFFFFFFFFFF AND PUSH20 0xFFFFFFFFFFFFFFFFFFFFFFFFFFFFFFFFFFFFFFFF AND PUSH20 0xFFFFFFFFFFFFFFFFFFFFFFFFFFFFFFFFFFFFFFFF AND DUP2 MSTORE PUSH1 0x20 ADD SWAP1 DUP2 MSTORE PUSH1 0x20 ADD PUSH1 0x0 KECCAK256 SLOAD DUP3 DUP3 DUP2 MLOAD DUP2 LT ISZERO ISZERO PUSH2 0x97F JUMPI INVALID JUMPDEST SWAP1 PUSH1 0x20 ADD SWAP1 PUSH1 0x20 MUL ADD DUP2 DUP2 MSTORE POP POP DUP1 DUP1 PUSH1 0x1 ADD SWAP2 POP POP PUSH2 0x8EB JUMP JUMPDEST DUP2 SWAP3 POP POP POP SWAP1 JUMP JUMPDEST PUSH1 0x0 PUSH1 0x2 SLOAD TIMESTAMP LT ISZERO ISZERO PUSH2 0xA1D JUMPI PUSH1 0x40 MLOAD PUSH32 0x8C379A000000000000000000000000000000000000000000000000000000000 DUP2 MSTORE PUSH1 0x4 ADD DUP1 DUP1 PUSH1 0x20 ADD DUP3 DUP2 SUB DUP3 MSTORE PUSH1 0x14 DUP2 MSTORE PUSH1 0x20 ADD DUP1 PUSH32 0x41756374696F6E20697320496E61637469766520000000000000000000000000 DUP2 MSTORE POP PUSH1 0x20 ADD SWAP2 POP POP PUSH1 0x40 MLOAD DUP1 SWAP2 SUB SWAP1 REVERT JUMPDEST PUSH1 0x3 SLOAD SWAP1 POP SWAP1 JUMP JUMPDEST PUSH1 0x0 DUP1 PUSH1 0x0 PUSH1 0x2 SLOAD TIMESTAMP LT ISZERO ISZERO PUSH2 0xAA3 JUMPI PUSH1 0x40 MLOAD PUSH32 0x8C379A000000000000000000000000000000000000000000000000000000000 DUP2 MSTORE PUSH1 0x4 ADD DUP1 DUP1 PUSH1 0x20 ADD DUP3 DUP2 SUB DUP3 MSTORE PUSH1 0x14 DUP2 MSTORE PUSH1 0x20 ADD DUP1 PUSH32 0x41756374696F6E20697320496E61637469766520000000000000000000000000 DUP2 MSTORE POP PUSH1 0x20 ADD SWAP2 POP POP PUSH1 0x40 MLOAD DUP1 SWAP2 SUB SWAP1 REVERT JUMPDEST PUSH1 0x0 SWAP2 POP JUMPDEST PUSH1 0x6 DUP1 SLOAD SWAP1 POP DUP2 LT ISZERO PUSH2 0xB46 JUMPI PUSH2 0xB37 PUSH1 0x5 PUSH1 0x0 PUSH1 0x6 DUP5 DUP2 SLOAD DUP2 LT ISZERO ISZERO PUSH2 0xACB JUMPI INVALID JUMPDEST SWAP1 PUSH1 0x0 MSTORE PUSH1 0x20 PUSH1 0x0 KECCAK256 ADD PUSH1 0x0 SWAP1 SLOAD SWAP1 PUSH2 0x100 EXP SWAP1 DIV PUSH20 0xFFFFFFFFFFFFFFFFFFFFFFFFFFFFFFFFFFFFFFFF AND PUSH20 0xFFFFFFFFFFFFFFFFFFFFFFFFFFFFFFFFFFFFFFFF AND PUSH20 0xFFFFFFFFFFFFFFFFFFFFFFFFFFFFFFFFFFFFFFFF AND DUP2 MSTORE PUSH1 0x20 ADD SWAP1 DUP2 MSTORE PUSH1 0x20 ADD PUSH1 0x0 KECCAK256 SLOAD DUP4 PUSH2 0xE0B JUMP JUMPDEST SWAP2 POP DUP1 DUP1 PUSH1 0x1 ADD SWAP2 POP POP PUSH2 0xAA8 JUMP JUMPDEST DUP2 SWAP3 POP POP POP SWAP1 JUMP JUMPDEST PUSH1 0x0 DUP1 PUSH1 0x0 PUSH1 0x2 SLOAD TIMESTAMP LT ISZERO ISZERO PUSH2 0xBCC JUMPI PUSH1 0x40 MLOAD PUSH32 0x8C379A000000000000000000000000000000000000000000000000000000000 DUP2 MSTORE PUSH1 0x4 ADD DUP1 DUP1 PUSH1 0x20 ADD DUP3 DUP2 SUB DUP3 MSTORE PUSH1 0x14 DUP2 MSTORE PUSH1 0x20 ADD DUP1 PUSH32 0x41756374696F6E20697320496E61637469766520000000000000000000000000 DUP2 MSTORE POP PUSH1 0x20 ADD SWAP2 POP POP PUSH1 0x40 MLOAD DUP1 SWAP2 SUB SWAP1 REVERT JUMPDEST PUSH1 0x0 PUSH1 0x6 DUP1 SLOAD SWAP1 POP SWAP1 POP PUSH1 0x0 DUP2 GT ISZERO ISZERO PUSH2 0xC74 JUMPI PUSH1 0x40 MLOAD PUSH32 0x8C379A000000000000000000000000000000000000000000000000000000000 DUP2 MSTORE PUSH1 0x4 ADD DUP1 DUP1 PUSH1 0x20 ADD DUP3 DUP2 SUB DUP3 MSTORE PUSH1 0x27 DUP2 MSTORE PUSH1 0x20 ADD DUP1 PUSH32 0x43616E277420656E64206173206E6F20626964732068617665206265656E206D DUP2 MSTORE PUSH1 0x20 ADD PUSH32 0x6164652079657400000000000000000000000000000000000000000000000000 DUP2 MSTORE POP PUSH1 0x40 ADD SWAP2 POP POP PUSH1 0x40 MLOAD DUP1 SWAP2 SUB SWAP1 REVERT JUMPDEST TIMESTAMP PUSH1 0x2 DUP2 SWAP1 SSTORE POP PUSH1 0x0 SWAP2 POP JUMPDEST PUSH1 0x6 DUP1 SLOAD SWAP1 POP DUP3 LT ISZERO PUSH2 0xD5B JUMPI DUP5 PUSH1 0x5 PUSH1 0x0 PUSH1 0x6 DUP6 DUP2 SLOAD DUP2 LT ISZERO ISZERO PUSH2 0xCA1 JUMPI INVALID JUMPDEST SWAP1 PUSH1 0x0 MSTORE PUSH1 0x20 PUSH1 0x0 KECCAK256 ADD PUSH1 0x0 SWAP1 SLOAD SWAP1 PUSH2 0x100 EXP SWAP1 DIV PUSH20 0xFFFFFFFFFFFFFFFFFFFFFFFFFFFFFFFFFFFFFFFF AND PUSH20 0xFFFFFFFFFFFFFFFFFFFFFFFFFFFFFFFFFFFFFFFF AND PUSH20 0xFFFFFFFFFFFFFFFFFFFFFFFFFFFFFFFFFFFFFFFF AND DUP2 MSTORE PUSH1 0x20 ADD SWAP1 DUP2 MSTORE PUSH1 0x20 ADD PUSH1 0x0 KECCAK256 SLOAD EQ ISZERO PUSH2 0xD4E JUMPI PUSH1 0x6 DUP3 DUP2 SLOAD DUP2 LT ISZERO ISZERO PUSH2 0xD1C JUMPI INVALID JUMPDEST SWAP1 PUSH1 0x0 MSTORE PUSH1 0x20 PUSH1 0x0 KECCAK256 ADD PUSH1 0x0 SWAP1 SLOAD SWAP1 PUSH2 0x100 EXP SWAP1 DIV PUSH20 0xFFFFFFFFFFFFFFFFFFFFFFFFFFFFFFFFFFFFFFFF AND SWAP3 POP PUSH2 0xD5B JUMP JUMPDEST DUP2 DUP1 PUSH1 0x1 ADD SWAP3 POP POP PUSH2 0xC80 JUMP JUMPDEST PUSH1 0x0 PUSH20 0xFFFFFFFFFFFFFFFFFFFFFFFFFFFFFFFFFFFFFFFF AND DUP4 PUSH20 0xFFFFFFFFFFFFFFFFFFFFFFFFFFFFFFFFFFFFFFFF AND EQ ISZERO ISZERO ISZERO PUSH2 0xE00 JUMPI PUSH1 0x40 MLOAD PUSH32 0x8C379A000000000000000000000000000000000000000000000000000000000 DUP2 MSTORE PUSH1 0x4 ADD DUP1 DUP1 PUSH1 0x20 ADD DUP3 DUP2 SUB DUP3 MSTORE PUSH1 0x1A DUP2 MSTORE PUSH1 0x20 ADD DUP1 PUSH32 0x546869732062696420686173206E6F74206265656E206D616465000000000000 DUP2 MSTORE POP PUSH1 0x20 ADD SWAP2 POP POP PUSH1 0x40 MLOAD DUP1 SWAP2 SUB SWAP1 REVERT JUMPDEST DUP3 SWAP4 POP POP POP POP SWAP2 SWAP1 POP JUMP JUMPDEST PUSH1 0x0 DUP2 DUP4 LT ISZERO PUSH2 0xE1B JUMPI DUP2 PUSH2 0xE1D JUMP JUMPDEST DUP3 JUMPDEST SWAP1 POP SWAP3 SWAP2 POP POP JUMP STOP LOG1 PUSH6 0x627A7A723058 KECCAK256 SDIV POP 0xc4 0xaa 0xc2 0xc0 0xde CALLDATALOAD 0xe9 SWAP14 SWAP11 PUSH15 0x132C1E48B083D67A014B4683869152 DUP11 BLOCKHASH 0xdd 0xba 0xdc STOP 0x29 LOG1 PUSH6 0x627A7A723058 KECCAK256 PUSH6 0x53708CF4E6A9 SWAP9 GASPRICE PUSH20 0xC403591ABA7304C55CF5E12BD3989435CA285AFE PUSH27 0x3E0029000000000000000000000000000000000000000000000000 "
				},
				"gasEstimates": {
					"creation": {
						"codeDepositCost": "2767200",
						"executionCost": "8021",
						"totalCost": "2775221"
					},
					"external": {
						"aucId()": "394",
						"bidOnAuction(uint256,uint256)": "infinite",
						"createAuction(string,uint256,uint256,uint256,uint256,uint256,uint256,uint256)": "infinite",
						"endAuction()": "infinite",
						"endAuction(uint256)": "infinite",
						"getBidValOnAuction(uint256)": "infinite",
						"getListOfBidsOnAuction()": "infinite",
						"getListOfOwnBids()": "infinite",
						"getMaxBid()": "infinite",
						"getMaxBid(uint256)": "infinite",
						"updateBid(uint256,uint256)": "infinite"
					}
				},
				"methodIdentifiers": {
					"aucId()": "25c0cdaa",
					"bidOnAuction(uint256,uint256)": "9f635120",
					"createAuction(string,uint256,uint256,uint256,uint256,uint256,uint256,uint256)": "e3a57e65",
					"endAuction()": "fe67a54b",
					"endAuction(uint256)": "b9a2de3a",
					"getBidValOnAuction(uint256)": "2ae9285f",
					"getListOfBidsOnAuction()": "f2f58fcf",
					"getListOfOwnBids()": "d1fda965",
					"getMaxBid()": "7e12a251",
					"getMaxBid(uint256)": "617fbce9",
					"updateBid(uint256,uint256)": "60365e0c"
				}
			},
			"userdoc": {
				"methods": {}
			}
		}
	}
}