{
	"Project-1-AuctionPlatform/Auction.sol": {
		"Auction": {
			"abi": [
				{
					"constant": true,
					"inputs": [],
					"name": "getBidsMade",
					"outputs": [
						{
							"name": "",
							"type": "bool"
						}
					],
					"payable": false,
					"stateMutability": "view",
					"type": "function"
				},
				{
					"constant": false,
					"inputs": [
						{
							"name": "_bidVal",
							"type": "uint256"
						}
					],
					"name": "updateBid",
					"outputs": [],
					"payable": false,
					"stateMutability": "nonpayable",
					"type": "function"
				},
				{
					"constant": true,
					"inputs": [],
					"name": "getEndTime",
					"outputs": [
						{
							"name": "",
							"type": "uint256"
						}
					],
					"payable": false,
					"stateMutability": "view",
					"type": "function"
				},
				{
					"constant": false,
					"inputs": [
						{
							"name": "_bidVal",
							"type": "uint256"
						}
					],
					"name": "createBid",
					"outputs": [],
					"payable": false,
					"stateMutability": "nonpayable",
					"type": "function"
				},
				{
					"constant": true,
					"inputs": [],
					"name": "getListOfBids",
					"outputs": [
						{
							"name": "",
							"type": "uint256[]"
						}
					],
					"payable": false,
					"stateMutability": "view",
					"type": "function"
				},
				{
					"constant": true,
					"inputs": [],
					"name": "getMinBidVal",
					"outputs": [
						{
							"name": "",
							"type": "uint256"
						}
					],
					"payable": false,
					"stateMutability": "view",
					"type": "function"
				},
				{
					"constant": true,
					"inputs": [],
					"name": "getMaximumBid",
					"outputs": [
						{
							"name": "",
							"type": "uint256"
						}
					],
					"payable": false,
					"stateMutability": "view",
					"type": "function"
				},
				{
					"constant": false,
					"inputs": [
						{
							"name": "bid",
							"type": "uint256"
						}
					],
					"name": "endAuctionWithSelectedBid",
					"outputs": [
						{
							"name": "",
							"type": "address"
						}
					],
					"payable": false,
					"stateMutability": "nonpayable",
					"type": "function"
				},
				{
					"inputs": [
						{
							"name": "_description",
							"type": "string"
						},
						{
							"name": "_startTime",
							"type": "uint256"
						},
						{
							"name": "_endTime",
							"type": "uint256"
						},
						{
							"name": "_minBidVal",
							"type": "uint256"
						}
					],
					"payable": false,
					"stateMutability": "nonpayable",
					"type": "constructor"
				}
			],
			"devdoc": {
				"methods": {}
			},
			"evm": {
				"assembly": "    /* \"Project-1-AuctionPlatform/Auction.sol\":59:5326  contract Auction {... */\n  mstore(0x40, 0x80)\n    /* \"Project-1-AuctionPlatform/Auction.sol\":1875:2183  constructor(... */\n  callvalue\n    /* \"--CODEGEN--\":8:17   */\n  dup1\n    /* \"--CODEGEN--\":5:7   */\n  iszero\n  tag_1\n  jumpi\n    /* \"--CODEGEN--\":30:31   */\n  0x0\n    /* \"--CODEGEN--\":27:28   */\n  dup1\n    /* \"--CODEGEN--\":20:32   */\n  revert\n    /* \"--CODEGEN--\":5:7   */\ntag_1:\n    /* \"Project-1-AuctionPlatform/Auction.sol\":1875:2183  constructor(... */\n  pop\n  mload(0x40)\n  sub(codesize, bytecodeSize)\n  dup1\n  bytecodeSize\n  dup4\n  codecopy\n  dup2\n  add\n  dup1\n  0x40\n  mstore\n  dup2\n  add\n  swap1\n  dup1\n  dup1\n  mload\n  dup3\n  add\n  swap3\n  swap2\n  swap1\n  0x20\n  add\n  dup1\n  mload\n  swap1\n  0x20\n  add\n  swap1\n  swap3\n  swap2\n  swap1\n  dup1\n  mload\n  swap1\n  0x20\n  add\n  swap1\n  swap3\n  swap2\n  swap1\n  dup1\n  mload\n  swap1\n  0x20\n  add\n  swap1\n  swap3\n  swap2\n  swap1\n  pop\n  pop\n  pop\n    /* \"Project-1-AuctionPlatform/Auction.sol\":2072:2084  _description */\n  dup4\n    /* \"Project-1-AuctionPlatform/Auction.sol\":2058:2069  description */\n  0x0\n    /* \"Project-1-AuctionPlatform/Auction.sol\":2058:2084  description = _description */\n  swap1\n  dup1\n  mload\n  swap1\n  0x20\n  add\n  swap1\n  tag_4\n  swap3\n  swap2\n  swap1\n  jump\t// in(tag_5)\ntag_4:\n  pop\n    /* \"Project-1-AuctionPlatform/Auction.sol\":2106:2116  _startTime */\n  dup3\n    /* \"Project-1-AuctionPlatform/Auction.sol\":2094:2103  startTime */\n  0x1\n    /* \"Project-1-AuctionPlatform/Auction.sol\":2094:2116  startTime = _startTime */\n  dup2\n  swap1\n  sstore\n  pop\n    /* \"Project-1-AuctionPlatform/Auction.sol\":2136:2144  _endTime */\n  dup2\n    /* \"Project-1-AuctionPlatform/Auction.sol\":2126:2133  endTime */\n  0x2\n    /* \"Project-1-AuctionPlatform/Auction.sol\":2126:2144  endTime = _endTime */\n  dup2\n  swap1\n  sstore\n  pop\n    /* \"Project-1-AuctionPlatform/Auction.sol\":2166:2176  _minBidVal */\n  dup1\n    /* \"Project-1-AuctionPlatform/Auction.sol\":2154:2163  minBidVal */\n  0x3\n    /* \"Project-1-AuctionPlatform/Auction.sol\":2154:2176  minBidVal = _minBidVal */\n  dup2\n  swap1\n  sstore\n  pop\n    /* \"Project-1-AuctionPlatform/Auction.sol\":1875:2183  constructor(... */\n  pop\n  pop\n  pop\n  pop\n    /* \"Project-1-AuctionPlatform/Auction.sol\":59:5326  contract Auction {... */\n  jump(tag_6)\ntag_5:\n  dup3\n  dup1\n  sload\n  0x1\n  dup2\n  0x1\n  and\n  iszero\n  0x100\n  mul\n  sub\n  and\n  0x2\n  swap1\n  div\n  swap1\n  0x0\n  mstore\n  keccak256(0x0, 0x20)\n  swap1\n  0x1f\n  add\n  0x20\n  swap1\n  div\n  dup2\n  add\n  swap3\n  dup3\n  0x1f\n  lt\n  tag_8\n  jumpi\n  dup1\n  mload\n  not(0xff)\n  and\n  dup4\n  dup1\n  add\n  or\n  dup6\n  sstore\n  jump(tag_7)\ntag_8:\n  dup3\n  dup1\n  add\n  0x1\n  add\n  dup6\n  sstore\n  dup3\n  iszero\n  tag_7\n  jumpi\n  swap2\n  dup3\n  add\ntag_9:\n  dup3\n  dup2\n  gt\n  iszero\n  tag_10\n  jumpi\n  dup3\n  mload\n  dup3\n  sstore\n  swap2\n  0x20\n  add\n  swap2\n  swap1\n  0x1\n  add\n  swap1\n  jump(tag_9)\ntag_10:\ntag_7:\n  pop\n  swap1\n  pop\n  tag_11\n  swap2\n  swap1\n  jump\t// in(tag_12)\ntag_11:\n  pop\n  swap1\n  jump\t// out\ntag_12:\n  tag_13\n  swap2\n  swap1\ntag_14:\n  dup1\n  dup3\n  gt\n  iszero\n  tag_15\n  jumpi\n  0x0\n  dup2\n  0x0\n  swap1\n  sstore\n  pop\n  0x1\n  add\n  jump(tag_14)\ntag_15:\n  pop\n  swap1\n  jump\ntag_13:\n  swap1\n  jump\t// out\ntag_6:\n  dataSize(sub_0)\n  dup1\n  dataOffset(sub_0)\n  0x0\n  codecopy\n  0x0\n  return\nstop\n\nsub_0: assembly {\n        /* \"Project-1-AuctionPlatform/Auction.sol\":59:5326  contract Auction {... */\n      mstore(0x40, 0x80)\n      jumpi(tag_1, lt(calldatasize, 0x4))\n      calldataload(0x0)\n      0x100000000000000000000000000000000000000000000000000000000\n      swap1\n      div\n      0xffffffff\n      and\n      dup1\n      0x409766e6\n      eq\n      tag_2\n      jumpi\n      dup1\n      0x43129de1\n      eq\n      tag_3\n      jumpi\n      dup1\n      0x439f5ac2\n      eq\n      tag_4\n      jumpi\n      dup1\n      0x659dd2b4\n      eq\n      tag_5\n      jumpi\n      dup1\n      0x679dbf0c\n      eq\n      tag_6\n      jumpi\n      dup1\n      0xad934674\n      eq\n      tag_7\n      jumpi\n      dup1\n      0xdd06ba1a\n      eq\n      tag_8\n      jumpi\n      dup1\n      0xdee37a8e\n      eq\n      tag_9\n      jumpi\n    tag_1:\n      0x0\n      dup1\n      revert\n        /* \"Project-1-AuctionPlatform/Auction.sol\":694:778  function getBidsMade() external view returns (bool) {... */\n    tag_2:\n      callvalue\n        /* \"--CODEGEN--\":8:17   */\n      dup1\n        /* \"--CODEGEN--\":5:7   */\n      iszero\n      tag_10\n      jumpi\n        /* \"--CODEGEN--\":30:31   */\n      0x0\n        /* \"--CODEGEN--\":27:28   */\n      dup1\n        /* \"--CODEGEN--\":20:32   */\n      revert\n        /* \"--CODEGEN--\":5:7   */\n    tag_10:\n        /* \"Project-1-AuctionPlatform/Auction.sol\":694:778  function getBidsMade() external view returns (bool) {... */\n      pop\n      tag_11\n      jump(tag_12)\n    tag_11:\n      mload(0x40)\n      dup1\n      dup3\n      iszero\n      iszero\n      iszero\n      iszero\n      dup2\n      mstore\n      0x20\n      add\n      swap2\n      pop\n      pop\n      mload(0x40)\n      dup1\n      swap2\n      sub\n      swap1\n      return\n        /* \"Project-1-AuctionPlatform/Auction.sol\":2739:3040  function updateBid(uint256 _bidVal) external validBidVal(_bidVal) isActive {... */\n    tag_3:\n      callvalue\n        /* \"--CODEGEN--\":8:17   */\n      dup1\n        /* \"--CODEGEN--\":5:7   */\n      iszero\n      tag_13\n      jumpi\n        /* \"--CODEGEN--\":30:31   */\n      0x0\n        /* \"--CODEGEN--\":27:28   */\n      dup1\n        /* \"--CODEGEN--\":20:32   */\n      revert\n        /* \"--CODEGEN--\":5:7   */\n    tag_13:\n        /* \"Project-1-AuctionPlatform/Auction.sol\":2739:3040  function updateBid(uint256 _bidVal) external validBidVal(_bidVal) isActive {... */\n      pop\n      tag_14\n      0x4\n      dup1\n      calldatasize\n      sub\n      dup2\n      add\n      swap1\n      dup1\n      dup1\n      calldataload\n      swap1\n      0x20\n      add\n      swap1\n      swap3\n      swap2\n      swap1\n      pop\n      pop\n      pop\n      jump(tag_15)\n    tag_14:\n      stop\n        /* \"Project-1-AuctionPlatform/Auction.sol\":834:919  function getEndTime() external view returns (uint256) {... */\n    tag_4:\n      callvalue\n        /* \"--CODEGEN--\":8:17   */\n      dup1\n        /* \"--CODEGEN--\":5:7   */\n      iszero\n      tag_16\n      jumpi\n        /* \"--CODEGEN--\":30:31   */\n      0x0\n        /* \"--CODEGEN--\":27:28   */\n      dup1\n        /* \"--CODEGEN--\":20:32   */\n      revert\n        /* \"--CODEGEN--\":5:7   */\n    tag_16:\n        /* \"Project-1-AuctionPlatform/Auction.sol\":834:919  function getEndTime() external view returns (uint256) {... */\n      pop\n      tag_17\n      jump(tag_18)\n    tag_17:\n      mload(0x40)\n      dup1\n      dup3\n      dup2\n      mstore\n      0x20\n      add\n      swap2\n      pop\n      pop\n      mload(0x40)\n      dup1\n      swap2\n      sub\n      swap1\n      return\n        /* \"Project-1-AuctionPlatform/Auction.sol\":2246:2678  function createBid(uint256 _bidVal)... */\n    tag_5:\n      callvalue\n        /* \"--CODEGEN--\":8:17   */\n      dup1\n        /* \"--CODEGEN--\":5:7   */\n      iszero\n      tag_19\n      jumpi\n        /* \"--CODEGEN--\":30:31   */\n      0x0\n        /* \"--CODEGEN--\":27:28   */\n      dup1\n        /* \"--CODEGEN--\":20:32   */\n      revert\n        /* \"--CODEGEN--\":5:7   */\n    tag_19:\n        /* \"Project-1-AuctionPlatform/Auction.sol\":2246:2678  function createBid(uint256 _bidVal)... */\n      pop\n      tag_20\n      0x4\n      dup1\n      calldatasize\n      sub\n      dup2\n      add\n      swap1\n      dup1\n      dup1\n      calldataload\n      swap1\n      0x20\n      add\n      swap1\n      swap3\n      swap2\n      swap1\n      pop\n      pop\n      pop\n      jump(tag_21)\n    tag_20:\n      stop\n        /* \"Project-1-AuctionPlatform/Auction.sol\":1311:1756  function getListOfBids() external view isActive returns (uint256[]) {... */\n    tag_6:\n      callvalue\n        /* \"--CODEGEN--\":8:17   */\n      dup1\n        /* \"--CODEGEN--\":5:7   */\n      iszero\n      tag_22\n      jumpi\n        /* \"--CODEGEN--\":30:31   */\n      0x0\n        /* \"--CODEGEN--\":27:28   */\n      dup1\n        /* \"--CODEGEN--\":20:32   */\n      revert\n        /* \"--CODEGEN--\":5:7   */\n    tag_22:\n        /* \"Project-1-AuctionPlatform/Auction.sol\":1311:1756  function getListOfBids() external view isActive returns (uint256[]) {... */\n      pop\n      tag_23\n      jump(tag_24)\n    tag_23:\n      mload(0x40)\n      dup1\n      dup1\n      0x20\n      add\n      dup3\n      dup2\n      sub\n      dup3\n      mstore\n      dup4\n      dup2\n      dup2\n      mload\n      dup2\n      mstore\n      0x20\n      add\n      swap2\n      pop\n      dup1\n      mload\n      swap1\n      0x20\n      add\n      swap1\n      0x20\n      mul\n      dup1\n      dup4\n      dup4\n        /* \"--CODEGEN--\":23:24   */\n      0x0\n        /* \"--CODEGEN--\":8:108   */\n    tag_25:\n        /* \"--CODEGEN--\":33:36   */\n      dup4\n        /* \"--CODEGEN--\":30:31   */\n      dup2\n        /* \"--CODEGEN--\":27:37   */\n      lt\n        /* \"--CODEGEN--\":8:108   */\n      iszero\n      tag_26\n      jumpi\n        /* \"--CODEGEN--\":99:100   */\n      dup1\n        /* \"--CODEGEN--\":94:97   */\n      dup3\n        /* \"--CODEGEN--\":90:101   */\n      add\n        /* \"--CODEGEN--\":84:102   */\n      mload\n        /* \"--CODEGEN--\":80:81   */\n      dup2\n        /* \"--CODEGEN--\":75:78   */\n      dup5\n        /* \"--CODEGEN--\":71:82   */\n      add\n        /* \"--CODEGEN--\":64:103   */\n      mstore\n        /* \"--CODEGEN--\":52:54   */\n      0x20\n        /* \"--CODEGEN--\":49:50   */\n      dup2\n        /* \"--CODEGEN--\":45:55   */\n      add\n        /* \"--CODEGEN--\":40:55   */\n      swap1\n      pop\n        /* \"--CODEGEN--\":8:108   */\n      jump(tag_25)\n    tag_26:\n        /* \"--CODEGEN--\":12:26   */\n      pop\n        /* \"Project-1-AuctionPlatform/Auction.sol\":1311:1756  function getListOfBids() external view isActive returns (uint256[]) {... */\n      pop\n      pop\n      pop\n      swap1\n      pop\n      add\n      swap3\n      pop\n      pop\n      pop\n      mload(0x40)\n      dup1\n      swap2\n      sub\n      swap1\n      return\n        /* \"Project-1-AuctionPlatform/Auction.sol\":953:1051  function getMinBidVal() external view isActive returns (uint256) {... */\n    tag_7:\n      callvalue\n        /* \"--CODEGEN--\":8:17   */\n      dup1\n        /* \"--CODEGEN--\":5:7   */\n      iszero\n      tag_28\n      jumpi\n        /* \"--CODEGEN--\":30:31   */\n      0x0\n        /* \"--CODEGEN--\":27:28   */\n      dup1\n        /* \"--CODEGEN--\":20:32   */\n      revert\n        /* \"--CODEGEN--\":5:7   */\n    tag_28:\n        /* \"Project-1-AuctionPlatform/Auction.sol\":953:1051  function getMinBidVal() external view isActive returns (uint256) {... */\n      pop\n      tag_29\n      jump(tag_30)\n    tag_29:\n      mload(0x40)\n      dup1\n      dup3\n      dup2\n      mstore\n      0x20\n      add\n      swap2\n      pop\n      pop\n      mload(0x40)\n      dup1\n      swap2\n      sub\n      swap1\n      return\n        /* \"Project-1-AuctionPlatform/Auction.sol\":3959:4384  function getMaximumBid() external view isActive returns (uint256) {... */\n    tag_8:\n      callvalue\n        /* \"--CODEGEN--\":8:17   */\n      dup1\n        /* \"--CODEGEN--\":5:7   */\n      iszero\n      tag_31\n      jumpi\n        /* \"--CODEGEN--\":30:31   */\n      0x0\n        /* \"--CODEGEN--\":27:28   */\n      dup1\n        /* \"--CODEGEN--\":20:32   */\n      revert\n        /* \"--CODEGEN--\":5:7   */\n    tag_31:\n        /* \"Project-1-AuctionPlatform/Auction.sol\":3959:4384  function getMaximumBid() external view isActive returns (uint256) {... */\n      pop\n      tag_32\n      jump(tag_33)\n    tag_32:\n      mload(0x40)\n      dup1\n      dup3\n      dup2\n      mstore\n      0x20\n      add\n      swap2\n      pop\n      pop\n      mload(0x40)\n      dup1\n      swap2\n      sub\n      swap1\n      return\n        /* \"Project-1-AuctionPlatform/Auction.sol\":3128:3896  function endAuctionWithSelectedBid(uint256 bid)... */\n    tag_9:\n      callvalue\n        /* \"--CODEGEN--\":8:17   */\n      dup1\n        /* \"--CODEGEN--\":5:7   */\n      iszero\n      tag_34\n      jumpi\n        /* \"--CODEGEN--\":30:31   */\n      0x0\n        /* \"--CODEGEN--\":27:28   */\n      dup1\n        /* \"--CODEGEN--\":20:32   */\n      revert\n        /* \"--CODEGEN--\":5:7   */\n    tag_34:\n        /* \"Project-1-AuctionPlatform/Auction.sol\":3128:3896  function endAuctionWithSelectedBid(uint256 bid)... */\n      pop\n      tag_35\n      0x4\n      dup1\n      calldatasize\n      sub\n      dup2\n      add\n      swap1\n      dup1\n      dup1\n      calldataload\n      swap1\n      0x20\n      add\n      swap1\n      swap3\n      swap2\n      swap1\n      pop\n      pop\n      pop\n      jump(tag_36)\n    tag_35:\n      mload(0x40)\n      dup1\n      dup3\n      0xffffffffffffffffffffffffffffffffffffffff\n      and\n      0xffffffffffffffffffffffffffffffffffffffff\n      and\n      dup2\n      mstore\n      0x20\n      add\n      swap2\n      pop\n      pop\n      mload(0x40)\n      dup1\n      swap2\n      sub\n      swap1\n      return\n        /* \"Project-1-AuctionPlatform/Auction.sol\":694:778  function getBidsMade() external view returns (bool) {... */\n    tag_12:\n        /* \"Project-1-AuctionPlatform/Auction.sol\":740:744  bool */\n      0x0\n        /* \"Project-1-AuctionPlatform/Auction.sol\":763:771  bidsMade */\n      0x4\n      0x0\n      swap1\n      sload\n      swap1\n      0x100\n      exp\n      swap1\n      div\n      0xff\n      and\n        /* \"Project-1-AuctionPlatform/Auction.sol\":756:771  return bidsMade */\n      swap1\n      pop\n        /* \"Project-1-AuctionPlatform/Auction.sol\":694:778  function getBidsMade() external view returns (bool) {... */\n      swap1\n      jump\t// out\n        /* \"Project-1-AuctionPlatform/Auction.sol\":2739:3040  function updateBid(uint256 _bidVal) external validBidVal(_bidVal) isActive {... */\n    tag_15:\n        /* \"Project-1-AuctionPlatform/Auction.sol\":2796:2803  _bidVal */\n      dup1\n        /* \"Project-1-AuctionPlatform/Auction.sol\":4974:4983  minBidVal */\n      sload(0x3)\n        /* \"Project-1-AuctionPlatform/Auction.sol\":4964:4971  _bidVal */\n      dup2\n        /* \"Project-1-AuctionPlatform/Auction.sol\":4964:4983  _bidVal > minBidVal */\n      gt\n        /* \"Project-1-AuctionPlatform/Auction.sol\":4943:5078  require(... */\n      iszero\n      iszero\n      tag_39\n      jumpi\n      mload(0x40)\n      0x8c379a000000000000000000000000000000000000000000000000000000000\n      dup2\n      mstore\n      0x4\n      add\n      dup1\n      dup1\n      0x20\n      add\n      dup3\n      dup2\n      sub\n      dup3\n      mstore\n      0x45\n      dup2\n      mstore\n      0x20\n      add\n      dup1\n      0x506c6561736520656e7465722061206269642067726561746572207468616e20\n      dup2\n      mstore\n      0x20\n      add\n      0x6d696e696d756d20726571756972656420626964206f6620676976656e206175\n      dup2\n      mstore\n      0x20\n      add\n      0x6374696f6e000000000000000000000000000000000000000000000000000000\n      dup2\n      mstore\n      pop\n      0x60\n      add\n      swap2\n      pop\n      pop\n      mload(0x40)\n      dup1\n      swap2\n      sub\n      swap1\n      revert\n    tag_39:\n        /* \"Project-1-AuctionPlatform/Auction.sol\":4566:4573  endTime */\n      sload(0x2)\n        /* \"Project-1-AuctionPlatform/Auction.sol\":4548:4563  block.timestamp */\n      timestamp\n        /* \"Project-1-AuctionPlatform/Auction.sol\":4548:4573  block.timestamp < endTime */\n      lt\n        /* \"Project-1-AuctionPlatform/Auction.sol\":4540:4598  require(block.timestamp < endTime, \"Auction is Inactive \") */\n      iszero\n      iszero\n      tag_41\n      jumpi\n      mload(0x40)\n      0x8c379a000000000000000000000000000000000000000000000000000000000\n      dup2\n      mstore\n      0x4\n      add\n      dup1\n      dup1\n      0x20\n      add\n      dup3\n      dup2\n      sub\n      dup3\n      mstore\n      0x14\n      dup2\n      mstore\n      0x20\n      add\n      dup1\n      0x41756374696f6e20697320496e61637469766520000000000000000000000000\n      dup2\n      mstore\n      pop\n      0x20\n      add\n      swap2\n      pop\n      pop\n      mload(0x40)\n      dup1\n      swap2\n      sub\n      swap1\n      revert\n    tag_41:\n        /* \"Project-1-AuctionPlatform/Auction.sol\":2864:2865  0 */\n      0x0\n        /* \"Project-1-AuctionPlatform/Auction.sol\":2845:2849  bids */\n      0x5\n        /* \"Project-1-AuctionPlatform/Auction.sol\":2845:2860  bids[tx.origin] */\n      0x0\n        /* \"Project-1-AuctionPlatform/Auction.sol\":2850:2859  tx.origin */\n      origin\n        /* \"Project-1-AuctionPlatform/Auction.sol\":2845:2860  bids[tx.origin] */\n      0xffffffffffffffffffffffffffffffffffffffff\n      and\n      0xffffffffffffffffffffffffffffffffffffffff\n      and\n      dup2\n      mstore\n      0x20\n      add\n      swap1\n      dup2\n      mstore\n      0x20\n      add\n      0x0\n      keccak256\n      sload\n        /* \"Project-1-AuctionPlatform/Auction.sol\":2845:2865  bids[tx.origin] != 0 */\n      eq\n      iszero\n        /* \"Project-1-AuctionPlatform/Auction.sol\":2824:2950  require(... */\n      iszero\n      iszero\n      tag_43\n      jumpi\n      mload(0x40)\n      0x8c379a000000000000000000000000000000000000000000000000000000000\n      dup2\n      mstore\n      0x4\n      add\n      dup1\n      dup1\n      0x20\n      add\n      dup3\n      dup2\n      sub\n      dup3\n      mstore\n      0x3b\n      dup2\n      mstore\n      0x20\n      add\n      dup1\n      0x596f7520686176656e2774206372656174656420616e79206269642c20757365\n      dup2\n      mstore\n      0x20\n      add\n      0x2063726561746542696420666f72206372656174696e67206f6e650000000000\n      dup2\n      mstore\n      pop\n      0x40\n      add\n      swap2\n      pop\n      pop\n      mload(0x40)\n      dup1\n      swap2\n      sub\n      swap1\n      revert\n    tag_43:\n        /* \"Project-1-AuctionPlatform/Auction.sol\":3026:3033  _bidVal */\n      dup2\n        /* \"Project-1-AuctionPlatform/Auction.sol\":3008:3012  bids */\n      0x5\n        /* \"Project-1-AuctionPlatform/Auction.sol\":3008:3023  bids[tx.origin] */\n      0x0\n        /* \"Project-1-AuctionPlatform/Auction.sol\":3013:3022  tx.origin */\n      origin\n        /* \"Project-1-AuctionPlatform/Auction.sol\":3008:3023  bids[tx.origin] */\n      0xffffffffffffffffffffffffffffffffffffffff\n      and\n      0xffffffffffffffffffffffffffffffffffffffff\n      and\n      dup2\n      mstore\n      0x20\n      add\n      swap1\n      dup2\n      mstore\n      0x20\n      add\n      0x0\n      keccak256\n        /* \"Project-1-AuctionPlatform/Auction.sol\":3008:3033  bids[tx.origin] = _bidVal */\n      dup2\n      swap1\n      sstore\n      pop\n        /* \"Project-1-AuctionPlatform/Auction.sol\":2739:3040  function updateBid(uint256 _bidVal) external validBidVal(_bidVal) isActive {... */\n      pop\n      pop\n      jump\t// out\n        /* \"Project-1-AuctionPlatform/Auction.sol\":834:919  function getEndTime() external view returns (uint256) {... */\n    tag_18:\n        /* \"Project-1-AuctionPlatform/Auction.sol\":879:886  uint256 */\n      0x0\n        /* \"Project-1-AuctionPlatform/Auction.sol\":905:912  endTime */\n      sload(0x2)\n        /* \"Project-1-AuctionPlatform/Auction.sol\":898:912  return endTime */\n      swap1\n      pop\n        /* \"Project-1-AuctionPlatform/Auction.sol\":834:919  function getEndTime() external view returns (uint256) {... */\n      swap1\n      jump\t// out\n        /* \"Project-1-AuctionPlatform/Auction.sol\":2246:2678  function createBid(uint256 _bidVal)... */\n    tag_21:\n        /* \"Project-1-AuctionPlatform/Auction.sol\":2319:2326  _bidVal */\n      dup1\n        /* \"Project-1-AuctionPlatform/Auction.sol\":4974:4983  minBidVal */\n      sload(0x3)\n        /* \"Project-1-AuctionPlatform/Auction.sol\":4964:4971  _bidVal */\n      dup2\n        /* \"Project-1-AuctionPlatform/Auction.sol\":4964:4983  _bidVal > minBidVal */\n      gt\n        /* \"Project-1-AuctionPlatform/Auction.sol\":4943:5078  require(... */\n      iszero\n      iszero\n      tag_46\n      jumpi\n      mload(0x40)\n      0x8c379a000000000000000000000000000000000000000000000000000000000\n      dup2\n      mstore\n      0x4\n      add\n      dup1\n      dup1\n      0x20\n      add\n      dup3\n      dup2\n      sub\n      dup3\n      mstore\n      0x45\n      dup2\n      mstore\n      0x20\n      add\n      dup1\n      0x506c6561736520656e7465722061206269642067726561746572207468616e20\n      dup2\n      mstore\n      0x20\n      add\n      0x6d696e696d756d20726571756972656420626964206f6620676976656e206175\n      dup2\n      mstore\n      0x20\n      add\n      0x6374696f6e000000000000000000000000000000000000000000000000000000\n      dup2\n      mstore\n      pop\n      0x60\n      add\n      swap2\n      pop\n      pop\n      mload(0x40)\n      dup1\n      swap2\n      sub\n      swap1\n      revert\n    tag_46:\n        /* \"Project-1-AuctionPlatform/Auction.sol\":4566:4573  endTime */\n      sload(0x2)\n        /* \"Project-1-AuctionPlatform/Auction.sol\":4548:4563  block.timestamp */\n      timestamp\n        /* \"Project-1-AuctionPlatform/Auction.sol\":4548:4573  block.timestamp < endTime */\n      lt\n        /* \"Project-1-AuctionPlatform/Auction.sol\":4540:4598  require(block.timestamp < endTime, \"Auction is Inactive \") */\n      iszero\n      iszero\n      tag_48\n      jumpi\n      mload(0x40)\n      0x8c379a000000000000000000000000000000000000000000000000000000000\n      dup2\n      mstore\n      0x4\n      add\n      dup1\n      dup1\n      0x20\n      add\n      dup3\n      dup2\n      sub\n      dup3\n      mstore\n      0x14\n      dup2\n      mstore\n      0x20\n      add\n      dup1\n      0x41756374696f6e20697320496e61637469766520000000000000000000000000\n      dup2\n      mstore\n      pop\n      0x20\n      add\n      swap2\n      pop\n      pop\n      mload(0x40)\n      dup1\n      swap2\n      sub\n      swap1\n      revert\n    tag_48:\n        /* \"Project-1-AuctionPlatform/Auction.sol\":4745:4746  0 */\n      0x0\n        /* \"Project-1-AuctionPlatform/Auction.sol\":4726:4730  bids */\n      0x5\n        /* \"Project-1-AuctionPlatform/Auction.sol\":4726:4741  bids[tx.origin] */\n      0x0\n        /* \"Project-1-AuctionPlatform/Auction.sol\":4731:4740  tx.origin */\n      origin\n        /* \"Project-1-AuctionPlatform/Auction.sol\":4726:4741  bids[tx.origin] */\n      0xffffffffffffffffffffffffffffffffffffffff\n      and\n      0xffffffffffffffffffffffffffffffffffffffff\n      and\n      dup2\n      mstore\n      0x20\n      add\n      swap1\n      dup2\n      mstore\n      0x20\n      add\n      0x0\n      keccak256\n      sload\n        /* \"Project-1-AuctionPlatform/Auction.sol\":4726:4746  bids[tx.origin] == 0 */\n      eq\n        /* \"Project-1-AuctionPlatform/Auction.sol\":4718:4781  require(bids[tx.origin] == 0, \"You have already created a bid\") */\n      iszero\n      iszero\n      tag_50\n      jumpi\n      mload(0x40)\n      0x8c379a000000000000000000000000000000000000000000000000000000000\n      dup2\n      mstore\n      0x4\n      add\n      dup1\n      dup1\n      0x20\n      add\n      dup3\n      dup2\n      sub\n      dup3\n      mstore\n      0x1e\n      dup2\n      mstore\n      0x20\n      add\n      dup1\n      0x596f75206861766520616c726561647920637265617465642061206269640000\n      dup2\n      mstore\n      pop\n      0x20\n      add\n      swap2\n      pop\n      pop\n      mload(0x40)\n      dup1\n      swap2\n      sub\n      swap1\n      revert\n    tag_50:\n        /* \"Project-1-AuctionPlatform/Auction.sol\":2391:2395  true */\n      0x1\n        /* \"Project-1-AuctionPlatform/Auction.sol\":2380:2388  bidsMade */\n      0x4\n      0x0\n        /* \"Project-1-AuctionPlatform/Auction.sol\":2380:2395  bidsMade = true */\n      0x100\n      exp\n      dup2\n      sload\n      dup2\n      0xff\n      mul\n      not\n      and\n      swap1\n      dup4\n      iszero\n      iszero\n      mul\n      or\n      swap1\n      sstore\n      pop\n        /* \"Project-1-AuctionPlatform/Auction.sol\":2458:2465  _bidVal */\n      dup2\n        /* \"Project-1-AuctionPlatform/Auction.sol\":2440:2444  bids */\n      0x5\n        /* \"Project-1-AuctionPlatform/Auction.sol\":2440:2455  bids[tx.origin] */\n      0x0\n        /* \"Project-1-AuctionPlatform/Auction.sol\":2445:2454  tx.origin */\n      origin\n        /* \"Project-1-AuctionPlatform/Auction.sol\":2440:2455  bids[tx.origin] */\n      0xffffffffffffffffffffffffffffffffffffffff\n      and\n      0xffffffffffffffffffffffffffffffffffffffff\n      and\n      dup2\n      mstore\n      0x20\n      add\n      swap1\n      dup2\n      mstore\n      0x20\n      add\n      0x0\n      keccak256\n        /* \"Project-1-AuctionPlatform/Auction.sol\":2440:2465  bids[tx.origin] = _bidVal */\n      dup2\n      swap1\n      sstore\n      pop\n        /* \"Project-1-AuctionPlatform/Auction.sol\":2554:2565  biddersList */\n      0x6\n        /* \"Project-1-AuctionPlatform/Auction.sol\":2571:2580  tx.origin */\n      origin\n        /* \"Project-1-AuctionPlatform/Auction.sol\":2554:2581  biddersList.push(tx.origin) */\n      swap1\n      dup1\n        /* \"--CODEGEN--\":39:40   */\n      0x1\n        /* \"--CODEGEN--\":33:36   */\n      dup2\n        /* \"--CODEGEN--\":27:37   */\n      sload\n        /* \"--CODEGEN--\":23:41   */\n      add\n        /* \"--CODEGEN--\":57:67   */\n      dup1\n        /* \"--CODEGEN--\":52:55   */\n      dup3\n        /* \"--CODEGEN--\":45:68   */\n      sstore\n        /* \"--CODEGEN--\":79:89   */\n      dup1\n        /* \"--CODEGEN--\":72:89   */\n      swap2\n      pop\n        /* \"--CODEGEN--\":0:93   */\n      pop\n        /* \"Project-1-AuctionPlatform/Auction.sol\":2554:2581  biddersList.push(tx.origin) */\n      swap1\n      0x1\n      dup3\n      sub\n      swap1\n      0x0\n      mstore\n      keccak256(0x0, 0x20)\n      add\n      0x0\n      swap1\n      swap2\n      swap3\n      swap1\n      swap2\n      swap1\n      swap2\n      0x100\n      exp\n      dup2\n      sload\n      dup2\n      0xffffffffffffffffffffffffffffffffffffffff\n      mul\n      not\n      and\n      swap1\n      dup4\n      0xffffffffffffffffffffffffffffffffffffffff\n      and\n      mul\n      or\n      swap1\n      sstore\n      pop\n      pop\n        /* \"Project-1-AuctionPlatform/Auction.sol\":2246:2678  function createBid(uint256 _bidVal)... */\n      pop\n      pop\n      jump\t// out\n        /* \"Project-1-AuctionPlatform/Auction.sol\":1311:1756  function getListOfBids() external view isActive returns (uint256[]) {... */\n    tag_24:\n        /* \"Project-1-AuctionPlatform/Auction.sol\":1368:1377  uint256[] */\n      0x60\n        /* \"Project-1-AuctionPlatform/Auction.sol\":1449:1470  uint256[] memory list */\n      dup1\n        /* \"Project-1-AuctionPlatform/Auction.sol\":1633:1642  uint256 i */\n      0x0\n        /* \"Project-1-AuctionPlatform/Auction.sol\":4566:4573  endTime */\n      sload(0x2)\n        /* \"Project-1-AuctionPlatform/Auction.sol\":4548:4563  block.timestamp */\n      timestamp\n        /* \"Project-1-AuctionPlatform/Auction.sol\":4548:4573  block.timestamp < endTime */\n      lt\n        /* \"Project-1-AuctionPlatform/Auction.sol\":4540:4598  require(block.timestamp < endTime, \"Auction is Inactive \") */\n      iszero\n      iszero\n      tag_54\n      jumpi\n      mload(0x40)\n      0x8c379a000000000000000000000000000000000000000000000000000000000\n      dup2\n      mstore\n      0x4\n      add\n      dup1\n      dup1\n      0x20\n      add\n      dup3\n      dup2\n      sub\n      dup3\n      mstore\n      0x14\n      dup2\n      mstore\n      0x20\n      add\n      dup1\n      0x41756374696f6e20697320496e61637469766520000000000000000000000000\n      dup2\n      mstore\n      pop\n      0x20\n      add\n      swap2\n      pop\n      pop\n      mload(0x40)\n      dup1\n      swap2\n      sub\n      swap1\n      revert\n    tag_54:\n        /* \"Project-1-AuctionPlatform/Auction.sol\":1487:1498  biddersList */\n      0x6\n        /* \"Project-1-AuctionPlatform/Auction.sol\":1487:1505  biddersList.length */\n      dup1\n      sload\n      swap1\n      pop\n        /* \"Project-1-AuctionPlatform/Auction.sol\":1473:1506  new uint256[](biddersList.length) */\n      mload(0x40)\n      swap1\n      dup1\n      dup3\n      mstore\n      dup1\n      0x20\n      mul\n      0x20\n      add\n      dup3\n      add\n      0x40\n      mstore\n      dup1\n      iszero\n      tag_56\n      jumpi\n      dup2\n      0x20\n      add\n        /* \"--CODEGEN--\":29:31   */\n      0x20\n        /* \"--CODEGEN--\":21:27   */\n      dup3\n        /* \"--CODEGEN--\":17:32   */\n      mul\n        /* \"--CODEGEN--\":117:121   */\n      dup1\n        /* \"--CODEGEN--\":105:115   */\n      codesize\n        /* \"--CODEGEN--\":97:103   */\n      dup4\n        /* \"--CODEGEN--\":88:122   */\n      codecopy\n        /* \"--CODEGEN--\":148:152   */\n      dup1\n        /* \"--CODEGEN--\":140:146   */\n      dup3\n        /* \"--CODEGEN--\":136:153   */\n      add\n        /* \"--CODEGEN--\":126:153   */\n      swap2\n      pop\n        /* \"--CODEGEN--\":0:157   */\n      pop\n        /* \"Project-1-AuctionPlatform/Auction.sol\":1473:1506  new uint256[](biddersList.length) */\n      swap1\n      pop\n    tag_56:\n      pop\n        /* \"Project-1-AuctionPlatform/Auction.sol\":1449:1506  uint256[] memory list = new uint256[](biddersList.length) */\n      swap2\n      pop\n        /* \"Project-1-AuctionPlatform/Auction.sol\":1628:1728  for (uint256 i; i < biddersList.length; i++) {... */\n    tag_57:\n        /* \"Project-1-AuctionPlatform/Auction.sol\":1648:1659  biddersList */\n      0x6\n        /* \"Project-1-AuctionPlatform/Auction.sol\":1648:1666  biddersList.length */\n      dup1\n      sload\n      swap1\n      pop\n        /* \"Project-1-AuctionPlatform/Auction.sol\":1644:1645  i */\n      dup2\n        /* \"Project-1-AuctionPlatform/Auction.sol\":1644:1666  i < biddersList.length */\n      lt\n        /* \"Project-1-AuctionPlatform/Auction.sol\":1628:1728  for (uint256 i; i < biddersList.length; i++) {... */\n      iszero\n      tag_58\n      jumpi\n        /* \"Project-1-AuctionPlatform/Auction.sol\":1697:1701  bids */\n      0x5\n        /* \"Project-1-AuctionPlatform/Auction.sol\":1697:1717  bids[biddersList[i]] */\n      0x0\n        /* \"Project-1-AuctionPlatform/Auction.sol\":1702:1713  biddersList */\n      0x6\n        /* \"Project-1-AuctionPlatform/Auction.sol\":1714:1715  i */\n      dup4\n        /* \"Project-1-AuctionPlatform/Auction.sol\":1702:1716  biddersList[i] */\n      dup2\n      sload\n      dup2\n      lt\n      iszero\n      iszero\n      tag_60\n      jumpi\n      invalid\n    tag_60:\n      swap1\n      0x0\n      mstore\n      keccak256(0x0, 0x20)\n      add\n      0x0\n      swap1\n      sload\n      swap1\n      0x100\n      exp\n      swap1\n      div\n      0xffffffffffffffffffffffffffffffffffffffff\n      and\n        /* \"Project-1-AuctionPlatform/Auction.sol\":1697:1717  bids[biddersList[i]] */\n      0xffffffffffffffffffffffffffffffffffffffff\n      and\n      0xffffffffffffffffffffffffffffffffffffffff\n      and\n      dup2\n      mstore\n      0x20\n      add\n      swap1\n      dup2\n      mstore\n      0x20\n      add\n      0x0\n      keccak256\n      sload\n        /* \"Project-1-AuctionPlatform/Auction.sol\":1687:1691  list */\n      dup3\n        /* \"Project-1-AuctionPlatform/Auction.sol\":1692:1693  i */\n      dup3\n        /* \"Project-1-AuctionPlatform/Auction.sol\":1687:1694  list[i] */\n      dup2\n      mload\n      dup2\n      lt\n      iszero\n      iszero\n      tag_62\n      jumpi\n      invalid\n    tag_62:\n      swap1\n      0x20\n      add\n      swap1\n      0x20\n      mul\n      add\n        /* \"Project-1-AuctionPlatform/Auction.sol\":1687:1717  list[i] = bids[biddersList[i]] */\n      dup2\n      dup2\n      mstore\n      pop\n      pop\n        /* \"Project-1-AuctionPlatform/Auction.sol\":1668:1671  i++ */\n      dup1\n      dup1\n      0x1\n      add\n      swap2\n      pop\n      pop\n        /* \"Project-1-AuctionPlatform/Auction.sol\":1628:1728  for (uint256 i; i < biddersList.length; i++) {... */\n      jump(tag_57)\n    tag_58:\n        /* \"Project-1-AuctionPlatform/Auction.sol\":1745:1749  list */\n      dup2\n        /* \"Project-1-AuctionPlatform/Auction.sol\":1738:1749  return list */\n      swap3\n      pop\n        /* \"Project-1-AuctionPlatform/Auction.sol\":1311:1756  function getListOfBids() external view isActive returns (uint256[]) {... */\n      pop\n      pop\n      swap1\n      jump\t// out\n        /* \"Project-1-AuctionPlatform/Auction.sol\":953:1051  function getMinBidVal() external view isActive returns (uint256) {... */\n    tag_30:\n        /* \"Project-1-AuctionPlatform/Auction.sol\":1009:1016  uint256 */\n      0x0\n        /* \"Project-1-AuctionPlatform/Auction.sol\":4566:4573  endTime */\n      sload(0x2)\n        /* \"Project-1-AuctionPlatform/Auction.sol\":4548:4563  block.timestamp */\n      timestamp\n        /* \"Project-1-AuctionPlatform/Auction.sol\":4548:4573  block.timestamp < endTime */\n      lt\n        /* \"Project-1-AuctionPlatform/Auction.sol\":4540:4598  require(block.timestamp < endTime, \"Auction is Inactive \") */\n      iszero\n      iszero\n      tag_64\n      jumpi\n      mload(0x40)\n      0x8c379a000000000000000000000000000000000000000000000000000000000\n      dup2\n      mstore\n      0x4\n      add\n      dup1\n      dup1\n      0x20\n      add\n      dup3\n      dup2\n      sub\n      dup3\n      mstore\n      0x14\n      dup2\n      mstore\n      0x20\n      add\n      dup1\n      0x41756374696f6e20697320496e61637469766520000000000000000000000000\n      dup2\n      mstore\n      pop\n      0x20\n      add\n      swap2\n      pop\n      pop\n      mload(0x40)\n      dup1\n      swap2\n      sub\n      swap1\n      revert\n    tag_64:\n        /* \"Project-1-AuctionPlatform/Auction.sol\":1035:1044  minBidVal */\n      sload(0x3)\n        /* \"Project-1-AuctionPlatform/Auction.sol\":1028:1044  return minBidVal */\n      swap1\n      pop\n        /* \"Project-1-AuctionPlatform/Auction.sol\":953:1051  function getMinBidVal() external view isActive returns (uint256) {... */\n      swap1\n      jump\t// out\n        /* \"Project-1-AuctionPlatform/Auction.sol\":3959:4384  function getMaximumBid() external view isActive returns (uint256) {... */\n    tag_33:\n        /* \"Project-1-AuctionPlatform/Auction.sol\":4016:4023  uint256 */\n      0x0\n        /* \"Project-1-AuctionPlatform/Auction.sol\":4035:4049  uint256 maxBid */\n      dup1\n        /* \"Project-1-AuctionPlatform/Auction.sol\":4118:4127  uint256 i */\n      0x0\n        /* \"Project-1-AuctionPlatform/Auction.sol\":4566:4573  endTime */\n      sload(0x2)\n        /* \"Project-1-AuctionPlatform/Auction.sol\":4548:4563  block.timestamp */\n      timestamp\n        /* \"Project-1-AuctionPlatform/Auction.sol\":4548:4573  block.timestamp < endTime */\n      lt\n        /* \"Project-1-AuctionPlatform/Auction.sol\":4540:4598  require(block.timestamp < endTime, \"Auction is Inactive \") */\n      iszero\n      iszero\n      tag_67\n      jumpi\n      mload(0x40)\n      0x8c379a000000000000000000000000000000000000000000000000000000000\n      dup2\n      mstore\n      0x4\n      add\n      dup1\n      dup1\n      0x20\n      add\n      dup3\n      dup2\n      sub\n      dup3\n      mstore\n      0x14\n      dup2\n      mstore\n      0x20\n      add\n      dup1\n      0x41756374696f6e20697320496e61637469766520000000000000000000000000\n      dup2\n      mstore\n      pop\n      0x20\n      add\n      swap2\n      pop\n      pop\n      mload(0x40)\n      dup1\n      swap2\n      sub\n      swap1\n      revert\n    tag_67:\n        /* \"Project-1-AuctionPlatform/Auction.sol\":4052:4053  0 */\n      0x0\n        /* \"Project-1-AuctionPlatform/Auction.sol\":4035:4053  uint256 maxBid = 0 */\n      swap2\n      pop\n        /* \"Project-1-AuctionPlatform/Auction.sol\":4113:4355  for (uint256 i; i < biddersList.length; i++) {... */\n    tag_69:\n        /* \"Project-1-AuctionPlatform/Auction.sol\":4133:4144  biddersList */\n      0x6\n        /* \"Project-1-AuctionPlatform/Auction.sol\":4133:4151  biddersList.length */\n      dup1\n      sload\n      swap1\n      pop\n        /* \"Project-1-AuctionPlatform/Auction.sol\":4129:4130  i */\n      dup2\n        /* \"Project-1-AuctionPlatform/Auction.sol\":4129:4151  i < biddersList.length */\n      lt\n        /* \"Project-1-AuctionPlatform/Auction.sol\":4113:4355  for (uint256 i; i < biddersList.length; i++) {... */\n      iszero\n      tag_70\n      jumpi\n        /* \"Project-1-AuctionPlatform/Auction.sol\":4254:4287  max(bids[biddersList[i]], maxBid) */\n      tag_72\n        /* \"Project-1-AuctionPlatform/Auction.sol\":4258:4262  bids */\n      0x5\n        /* \"Project-1-AuctionPlatform/Auction.sol\":4258:4278  bids[biddersList[i]] */\n      0x0\n        /* \"Project-1-AuctionPlatform/Auction.sol\":4263:4274  biddersList */\n      0x6\n        /* \"Project-1-AuctionPlatform/Auction.sol\":4275:4276  i */\n      dup5\n        /* \"Project-1-AuctionPlatform/Auction.sol\":4263:4277  biddersList[i] */\n      dup2\n      sload\n      dup2\n      lt\n      iszero\n      iszero\n      tag_73\n      jumpi\n      invalid\n    tag_73:\n      swap1\n      0x0\n      mstore\n      keccak256(0x0, 0x20)\n      add\n      0x0\n      swap1\n      sload\n      swap1\n      0x100\n      exp\n      swap1\n      div\n      0xffffffffffffffffffffffffffffffffffffffff\n      and\n        /* \"Project-1-AuctionPlatform/Auction.sol\":4258:4278  bids[biddersList[i]] */\n      0xffffffffffffffffffffffffffffffffffffffff\n      and\n      0xffffffffffffffffffffffffffffffffffffffff\n      and\n      dup2\n      mstore\n      0x20\n      add\n      swap1\n      dup2\n      mstore\n      0x20\n      add\n      0x0\n      keccak256\n      sload\n        /* \"Project-1-AuctionPlatform/Auction.sol\":4280:4286  maxBid */\n      dup4\n        /* \"Project-1-AuctionPlatform/Auction.sol\":4254:4257  max */\n      tag_75\n        /* \"Project-1-AuctionPlatform/Auction.sol\":4254:4287  max(bids[biddersList[i]], maxBid) */\n      jump\t// in\n    tag_72:\n        /* \"Project-1-AuctionPlatform/Auction.sol\":4245:4287  maxBid = max(bids[biddersList[i]], maxBid) */\n      swap2\n      pop\n        /* \"Project-1-AuctionPlatform/Auction.sol\":4153:4156  i++ */\n      dup1\n      dup1\n      0x1\n      add\n      swap2\n      pop\n      pop\n        /* \"Project-1-AuctionPlatform/Auction.sol\":4113:4355  for (uint256 i; i < biddersList.length; i++) {... */\n      jump(tag_69)\n    tag_70:\n        /* \"Project-1-AuctionPlatform/Auction.sol\":4371:4377  maxBid */\n      dup2\n        /* \"Project-1-AuctionPlatform/Auction.sol\":4364:4377  return maxBid */\n      swap3\n      pop\n        /* \"Project-1-AuctionPlatform/Auction.sol\":3959:4384  function getMaximumBid() external view isActive returns (uint256) {... */\n      pop\n      pop\n      swap1\n      jump\t// out\n        /* \"Project-1-AuctionPlatform/Auction.sol\":3128:3896  function endAuctionWithSelectedBid(uint256 bid)... */\n    tag_36:\n        /* \"Project-1-AuctionPlatform/Auction.sol\":3246:3253  address */\n      0x0\n        /* \"Project-1-AuctionPlatform/Auction.sol\":3363:3377  address winner */\n      dup1\n        /* \"Project-1-AuctionPlatform/Auction.sol\":3442:3451  uint256 i */\n      0x0\n        /* \"Project-1-AuctionPlatform/Auction.sol\":4566:4573  endTime */\n      sload(0x2)\n        /* \"Project-1-AuctionPlatform/Auction.sol\":4548:4563  block.timestamp */\n      timestamp\n        /* \"Project-1-AuctionPlatform/Auction.sol\":4548:4573  block.timestamp < endTime */\n      lt\n        /* \"Project-1-AuctionPlatform/Auction.sol\":4540:4598  require(block.timestamp < endTime, \"Auction is Inactive \") */\n      iszero\n      iszero\n      tag_77\n      jumpi\n      mload(0x40)\n      0x8c379a000000000000000000000000000000000000000000000000000000000\n      dup2\n      mstore\n      0x4\n      add\n      dup1\n      dup1\n      0x20\n      add\n      dup3\n      dup2\n      sub\n      dup3\n      mstore\n      0x14\n      dup2\n      mstore\n      0x20\n      add\n      dup1\n      0x41756374696f6e20697320496e61637469766520000000000000000000000000\n      dup2\n      mstore\n      pop\n      0x20\n      add\n      swap2\n      pop\n      pop\n      mload(0x40)\n      dup1\n      swap2\n      sub\n      swap1\n      revert\n    tag_77:\n        /* \"Project-1-AuctionPlatform/Auction.sol\":5205:5216  uint256 len */\n      0x0\n        /* \"Project-1-AuctionPlatform/Auction.sol\":5219:5230  biddersList */\n      0x6\n        /* \"Project-1-AuctionPlatform/Auction.sol\":5219:5237  biddersList.length */\n      dup1\n      sload\n      swap1\n      pop\n        /* \"Project-1-AuctionPlatform/Auction.sol\":5205:5237  uint256 len = biddersList.length */\n      swap1\n      pop\n        /* \"Project-1-AuctionPlatform/Auction.sol\":5261:5262  0 */\n      0x0\n        /* \"Project-1-AuctionPlatform/Auction.sol\":5255:5258  len */\n      dup2\n        /* \"Project-1-AuctionPlatform/Auction.sol\":5255:5262  len > 0 */\n      gt\n        /* \"Project-1-AuctionPlatform/Auction.sol\":5247:5306  require(len > 0, \"Can't end as no bids have been made yet\") */\n      iszero\n      iszero\n      tag_79\n      jumpi\n      mload(0x40)\n      0x8c379a000000000000000000000000000000000000000000000000000000000\n      dup2\n      mstore\n      0x4\n      add\n      dup1\n      dup1\n      0x20\n      add\n      dup3\n      dup2\n      sub\n      dup3\n      mstore\n      0x27\n      dup2\n      mstore\n      0x20\n      add\n      dup1\n      0x43616e277420656e64206173206e6f20626964732068617665206265656e206d\n      dup2\n      mstore\n      0x20\n      add\n      0x6164652079657400000000000000000000000000000000000000000000000000\n      dup2\n      mstore\n      pop\n      0x40\n      add\n      swap2\n      pop\n      pop\n      mload(0x40)\n      dup1\n      swap2\n      sub\n      swap1\n      revert\n    tag_79:\n        /* \"Project-1-AuctionPlatform/Auction.sol\":3279:3294  block.timestamp */\n      timestamp\n        /* \"Project-1-AuctionPlatform/Auction.sol\":3269:3276  endTime */\n      0x2\n        /* \"Project-1-AuctionPlatform/Auction.sol\":3269:3294  endTime = block.timestamp */\n      dup2\n      swap1\n      sstore\n      pop\n        /* \"Project-1-AuctionPlatform/Auction.sol\":3454:3455  0 */\n      0x0\n        /* \"Project-1-AuctionPlatform/Auction.sol\":3442:3455  uint256 i = 0 */\n      swap2\n      pop\n        /* \"Project-1-AuctionPlatform/Auction.sol\":3437:3769  for (uint256 i = 0; i < biddersList.length; i++) {... */\n    tag_81:\n        /* \"Project-1-AuctionPlatform/Auction.sol\":3461:3472  biddersList */\n      0x6\n        /* \"Project-1-AuctionPlatform/Auction.sol\":3461:3479  biddersList.length */\n      dup1\n      sload\n      swap1\n      pop\n        /* \"Project-1-AuctionPlatform/Auction.sol\":3457:3458  i */\n      dup3\n        /* \"Project-1-AuctionPlatform/Auction.sol\":3457:3479  i < biddersList.length */\n      lt\n        /* \"Project-1-AuctionPlatform/Auction.sol\":3437:3769  for (uint256 i = 0; i < biddersList.length; i++) {... */\n      iszero\n      tag_82\n      jumpi\n        /* \"Project-1-AuctionPlatform/Auction.sol\":3619:3622  bid */\n      dup5\n        /* \"Project-1-AuctionPlatform/Auction.sol\":3595:3599  bids */\n      0x5\n        /* \"Project-1-AuctionPlatform/Auction.sol\":3595:3615  bids[biddersList[i]] */\n      0x0\n        /* \"Project-1-AuctionPlatform/Auction.sol\":3600:3611  biddersList */\n      0x6\n        /* \"Project-1-AuctionPlatform/Auction.sol\":3612:3613  i */\n      dup6\n        /* \"Project-1-AuctionPlatform/Auction.sol\":3600:3614  biddersList[i] */\n      dup2\n      sload\n      dup2\n      lt\n      iszero\n      iszero\n      tag_84\n      jumpi\n      invalid\n    tag_84:\n      swap1\n      0x0\n      mstore\n      keccak256(0x0, 0x20)\n      add\n      0x0\n      swap1\n      sload\n      swap1\n      0x100\n      exp\n      swap1\n      div\n      0xffffffffffffffffffffffffffffffffffffffff\n      and\n        /* \"Project-1-AuctionPlatform/Auction.sol\":3595:3615  bids[biddersList[i]] */\n      0xffffffffffffffffffffffffffffffffffffffff\n      and\n      0xffffffffffffffffffffffffffffffffffffffff\n      and\n      dup2\n      mstore\n      0x20\n      add\n      swap1\n      dup2\n      mstore\n      0x20\n      add\n      0x0\n      keccak256\n      sload\n        /* \"Project-1-AuctionPlatform/Auction.sol\":3595:3622  bids[biddersList[i]] == bid */\n      eq\n        /* \"Project-1-AuctionPlatform/Auction.sol\":3591:3759  if (bids[biddersList[i]] == bid) {... */\n      iszero\n      tag_86\n      jumpi\n        /* \"Project-1-AuctionPlatform/Auction.sol\":3707:3718  biddersList */\n      0x6\n        /* \"Project-1-AuctionPlatform/Auction.sol\":3719:3720  i */\n      dup3\n        /* \"Project-1-AuctionPlatform/Auction.sol\":3707:3721  biddersList[i] */\n      dup2\n      sload\n      dup2\n      lt\n      iszero\n      iszero\n      tag_87\n      jumpi\n      invalid\n    tag_87:\n      swap1\n      0x0\n      mstore\n      keccak256(0x0, 0x20)\n      add\n      0x0\n      swap1\n      sload\n      swap1\n      0x100\n      exp\n      swap1\n      div\n      0xffffffffffffffffffffffffffffffffffffffff\n      and\n        /* \"Project-1-AuctionPlatform/Auction.sol\":3698:3721  winner = biddersList[i] */\n      swap3\n      pop\n        /* \"Project-1-AuctionPlatform/Auction.sol\":3739:3744  break */\n      jump(tag_82)\n        /* \"Project-1-AuctionPlatform/Auction.sol\":3591:3759  if (bids[biddersList[i]] == bid) {... */\n    tag_86:\n        /* \"Project-1-AuctionPlatform/Auction.sol\":3481:3484  i++ */\n      dup2\n      dup1\n      0x1\n      add\n      swap3\n      pop\n      pop\n        /* \"Project-1-AuctionPlatform/Auction.sol\":3437:3769  for (uint256 i = 0; i < biddersList.length; i++) {... */\n      jump(tag_81)\n    tag_82:\n        /* \"Project-1-AuctionPlatform/Auction.sol\":3804:3805  0 */\n      0x0\n        /* \"Project-1-AuctionPlatform/Auction.sol\":3786:3806  winner != address(0) */\n      0xffffffffffffffffffffffffffffffffffffffff\n      and\n        /* \"Project-1-AuctionPlatform/Auction.sol\":3786:3792  winner */\n      dup4\n        /* \"Project-1-AuctionPlatform/Auction.sol\":3786:3806  winner != address(0) */\n      0xffffffffffffffffffffffffffffffffffffffff\n      and\n      eq\n      iszero\n        /* \"Project-1-AuctionPlatform/Auction.sol\":3778:3837  require(winner != address(0), \"This bid has not been made\") */\n      iszero\n      iszero\n      tag_89\n      jumpi\n      mload(0x40)\n      0x8c379a000000000000000000000000000000000000000000000000000000000\n      dup2\n      mstore\n      0x4\n      add\n      dup1\n      dup1\n      0x20\n      add\n      dup3\n      dup2\n      sub\n      dup3\n      mstore\n      0x1a\n      dup2\n      mstore\n      0x20\n      add\n      dup1\n      0x546869732062696420686173206e6f74206265656e206d616465000000000000\n      dup2\n      mstore\n      pop\n      0x20\n      add\n      swap2\n      pop\n      pop\n      mload(0x40)\n      dup1\n      swap2\n      sub\n      swap1\n      revert\n    tag_89:\n        /* \"Project-1-AuctionPlatform/Auction.sol\":3883:3889  winner */\n      dup3\n        /* \"Project-1-AuctionPlatform/Auction.sol\":3876:3889  return winner */\n      swap4\n      pop\n        /* \"Project-1-AuctionPlatform/Auction.sol\":4608:4609  _ */\n      pop\n        /* \"Project-1-AuctionPlatform/Auction.sol\":3128:3896  function endAuctionWithSelectedBid(uint256 bid)... */\n      pop\n      pop\n      swap2\n      swap1\n      pop\n      jump\t// out\n        /* \"Project-1-AuctionPlatform/Auction.sol\":1144:1249  function max(uint256 a, uint256 b) internal pure returns (uint256) {... */\n    tag_75:\n        /* \"Project-1-AuctionPlatform/Auction.sol\":1202:1209  uint256 */\n      0x0\n        /* \"Project-1-AuctionPlatform/Auction.sol\":1233:1234  b */\n      dup2\n        /* \"Project-1-AuctionPlatform/Auction.sol\":1228:1229  a */\n      dup4\n        /* \"Project-1-AuctionPlatform/Auction.sol\":1228:1234  a >= b */\n      lt\n      iszero\n        /* \"Project-1-AuctionPlatform/Auction.sol\":1228:1242  a >= b ? a : b */\n      tag_91\n      jumpi\n        /* \"Project-1-AuctionPlatform/Auction.sol\":1241:1242  b */\n      dup2\n        /* \"Project-1-AuctionPlatform/Auction.sol\":1228:1242  a >= b ? a : b */\n      jump(tag_92)\n    tag_91:\n        /* \"Project-1-AuctionPlatform/Auction.sol\":1237:1238  a */\n      dup3\n        /* \"Project-1-AuctionPlatform/Auction.sol\":1228:1242  a >= b ? a : b */\n    tag_92:\n        /* \"Project-1-AuctionPlatform/Auction.sol\":1221:1242  return a >= b ? a : b */\n      swap1\n      pop\n        /* \"Project-1-AuctionPlatform/Auction.sol\":1144:1249  function max(uint256 a, uint256 b) internal pure returns (uint256) {... */\n      swap3\n      swap2\n      pop\n      pop\n      jump\t// out\n\n    auxdata: 0xa165627a7a723058207f62320aba502ff94da3446bc7475aacca121b77504ee869e2d74e2033a9b4380029\n}\n",
				"bytecode": {
					"linkReferences": {},
					"object": "608060405234801561001057600080fd5b50604051610f14380380610f1483398101806040528101908080518201929190602001805190602001909291908051906020019092919080519060200190929190505050836000908051906020019061006a929190610089565b508260018190555081600281905550806003819055505050505061012e565b828054600181600116156101000203166002900490600052602060002090601f016020900481019282601f106100ca57805160ff19168380011785556100f8565b828001600101855582156100f8579182015b828111156100f75782518255916020019190600101906100dc565b5b5090506101059190610109565b5090565b61012b91905b8082111561012757600081600090555060010161010f565b5090565b90565b610dd78061013d6000396000f30060806040526004361061008e576000357c0100000000000000000000000000000000000000000000000000000000900463ffffffff168063409766e61461009357806343129de1146100c2578063439f5ac2146100ef578063659dd2b41461011a578063679dbf0c14610147578063ad934674146101b3578063dd06ba1a146101de578063dee37a8e14610209575b600080fd5b34801561009f57600080fd5b506100a8610276565b604051808215151515815260200191505060405180910390f35b3480156100ce57600080fd5b506100ed6004803603810190808035906020019092919050505061028d565b005b3480156100fb57600080fd5b506101046104f2565b6040518082815260200191505060405180910390f35b34801561012657600080fd5b50610145600480360381019080803590602001909291905050506104fc565b005b34801561015357600080fd5b5061015c6107bb565b6040518080602001828103825283818151815260200191508051906020019060200280838360005b8381101561019f578082015181840152602081019050610184565b505050509050019250505060405180910390f35b3480156101bf57600080fd5b506101c8610928565b6040518082815260200191505060405180910390f35b3480156101ea57600080fd5b506101f36109ab565b6040518082815260200191505060405180910390f35b34801561021557600080fd5b5061023460048036038101908080359060200190929190505050610ad4565b604051808273ffffffffffffffffffffffffffffffffffffffff1673ffffffffffffffffffffffffffffffffffffffff16815260200191505060405180910390f35b6000600460009054906101000a900460ff16905090565b8060035481111515610353576040517f08c379a00000000000000000000000000000000000000000000000000000000081526004018080602001828103825260458152602001807f506c6561736520656e7465722061206269642067726561746572207468616e2081526020017f6d696e696d756d20726571756972656420626964206f6620676976656e20617581526020017f6374696f6e00000000000000000000000000000000000000000000000000000081525060600191505060405180910390fd5b600254421015156103cc576040517f08c379a00000000000000000000000000000000000000000000000000000000081526004018080602001828103825260148152602001807f41756374696f6e20697320496e6163746976652000000000000000000000000081525060200191505060405180910390fd5b6000600560003273ffffffffffffffffffffffffffffffffffffffff1673ffffffffffffffffffffffffffffffffffffffff16815260200190815260200160002054141515156104aa576040517f08c379a000000000000000000000000000000000000000000000000000000000815260040180806020018281038252603b8152602001807f596f7520686176656e2774206372656174656420616e79206269642c2075736581526020017f2063726561746542696420666f72206372656174696e67206f6e65000000000081525060400191505060405180910390fd5b81600560003273ffffffffffffffffffffffffffffffffffffffff1673ffffffffffffffffffffffffffffffffffffffff168152602001908152602001600020819055505050565b6000600254905090565b80600354811115156105c2576040517f08c379a00000000000000000000000000000000000000000000000000000000081526004018080602001828103825260458152602001807f506c6561736520656e7465722061206269642067726561746572207468616e2081526020017f6d696e696d756d20726571756972656420626964206f6620676976656e20617581526020017f6374696f6e00000000000000000000000000000000000000000000000000000081525060600191505060405180910390fd5b6002544210151561063b576040517f08c379a00000000000000000000000000000000000000000000000000000000081526004018080602001828103825260148152602001807f41756374696f6e20697320496e6163746976652000000000000000000000000081525060200191505060405180910390fd5b6000600560003273ffffffffffffffffffffffffffffffffffffffff1673ffffffffffffffffffffffffffffffffffffffff168152602001908152602001600020541415156106f2576040517f08c379a000000000000000000000000000000000000000000000000000000000815260040180806020018281038252601e8152602001807f596f75206861766520616c72656164792063726561746564206120626964000081525060200191505060405180910390fd5b6001600460006101000a81548160ff02191690831515021790555081600560003273ffffffffffffffffffffffffffffffffffffffff1673ffffffffffffffffffffffffffffffffffffffff1681526020019081526020016000208190555060063290806001815401808255809150509060018203906000526020600020016000909192909190916101000a81548173ffffffffffffffffffffffffffffffffffffffff021916908373ffffffffffffffffffffffffffffffffffffffff160217905550505050565b606080600060025442101515610839576040517f08c379a00000000000000000000000000000000000000000000000000000000081526004018080602001828103825260148152602001807f41756374696f6e20697320496e6163746976652000000000000000000000000081525060200191505060405180910390fd5b60068054905060405190808252806020026020018201604052801561086d5781602001602082028038833980820191505090505b5091505b600680549050811015610920576005600060068381548110151561089157fe5b9060005260206000200160009054906101000a900473ffffffffffffffffffffffffffffffffffffffff1673ffffffffffffffffffffffffffffffffffffffff1673ffffffffffffffffffffffffffffffffffffffff16815260200190815260200160002054828281518110151561090557fe5b90602001906020020181815250508080600101915050610871565b819250505090565b6000600254421015156109a3576040517f08c379a00000000000000000000000000000000000000000000000000000000081526004018080602001828103825260148152602001807f41756374696f6e20697320496e6163746976652000000000000000000000000081525060200191505060405180910390fd5b600354905090565b600080600060025442101515610a29576040517f08c379a00000000000000000000000000000000000000000000000000000000081526004018080602001828103825260148152602001807f41756374696f6e20697320496e6163746976652000000000000000000000000081525060200191505060405180910390fd5b600091505b600680549050811015610acc57610abd60056000600684815481101515610a5157fe5b9060005260206000200160009054906101000a900473ffffffffffffffffffffffffffffffffffffffff1673ffffffffffffffffffffffffffffffffffffffff1673ffffffffffffffffffffffffffffffffffffffff1681526020019081526020016000205483610d91565b91508080600101915050610a2e565b819250505090565b600080600060025442101515610b52576040517f08c379a00000000000000000000000000000000000000000000000000000000081526004018080602001828103825260148152602001807f41756374696f6e20697320496e6163746976652000000000000000000000000081525060200191505060405180910390fd5b60006006805490509050600081111515610bfa576040517f08c379a00000000000000000000000000000000000000000000000000000000081526004018080602001828103825260278152602001807f43616e277420656e64206173206e6f20626964732068617665206265656e206d81526020017f616465207965740000000000000000000000000000000000000000000000000081525060400191505060405180910390fd5b42600281905550600091505b600680549050821015610ce1578460056000600685815481101515610c2757fe5b9060005260206000200160009054906101000a900473ffffffffffffffffffffffffffffffffffffffff1673ffffffffffffffffffffffffffffffffffffffff1673ffffffffffffffffffffffffffffffffffffffff168152602001908152602001600020541415610cd457600682815481101515610ca257fe5b9060005260206000200160009054906101000a900473ffffffffffffffffffffffffffffffffffffffff169250610ce1565b8180600101925050610c06565b600073ffffffffffffffffffffffffffffffffffffffff168373ffffffffffffffffffffffffffffffffffffffff1614151515610d86576040517f08c379a000000000000000000000000000000000000000000000000000000000815260040180806020018281038252601a8152602001807f546869732062696420686173206e6f74206265656e206d61646500000000000081525060200191505060405180910390fd5b829350505050919050565b600081831015610da15781610da3565b825b9050929150505600a165627a7a723058207f62320aba502ff94da3446bc7475aacca121b77504ee869e2d74e2033a9b4380029",
					"opcodes": "PUSH1 0x80 PUSH1 0x40 MSTORE CALLVALUE DUP1 ISZERO PUSH2 0x10 JUMPI PUSH1 0x0 DUP1 REVERT JUMPDEST POP PUSH1 0x40 MLOAD PUSH2 0xF14 CODESIZE SUB DUP1 PUSH2 0xF14 DUP4 CODECOPY DUP2 ADD DUP1 PUSH1 0x40 MSTORE DUP2 ADD SWAP1 DUP1 DUP1 MLOAD DUP3 ADD SWAP3 SWAP2 SWAP1 PUSH1 0x20 ADD DUP1 MLOAD SWAP1 PUSH1 0x20 ADD SWAP1 SWAP3 SWAP2 SWAP1 DUP1 MLOAD SWAP1 PUSH1 0x20 ADD SWAP1 SWAP3 SWAP2 SWAP1 DUP1 MLOAD SWAP1 PUSH1 0x20 ADD SWAP1 SWAP3 SWAP2 SWAP1 POP POP POP DUP4 PUSH1 0x0 SWAP1 DUP1 MLOAD SWAP1 PUSH1 0x20 ADD SWAP1 PUSH2 0x6A SWAP3 SWAP2 SWAP1 PUSH2 0x89 JUMP JUMPDEST POP DUP3 PUSH1 0x1 DUP2 SWAP1 SSTORE POP DUP2 PUSH1 0x2 DUP2 SWAP1 SSTORE POP DUP1 PUSH1 0x3 DUP2 SWAP1 SSTORE POP POP POP POP POP PUSH2 0x12E JUMP JUMPDEST DUP3 DUP1 SLOAD PUSH1 0x1 DUP2 PUSH1 0x1 AND ISZERO PUSH2 0x100 MUL SUB AND PUSH1 0x2 SWAP1 DIV SWAP1 PUSH1 0x0 MSTORE PUSH1 0x20 PUSH1 0x0 KECCAK256 SWAP1 PUSH1 0x1F ADD PUSH1 0x20 SWAP1 DIV DUP2 ADD SWAP3 DUP3 PUSH1 0x1F LT PUSH2 0xCA JUMPI DUP1 MLOAD PUSH1 0xFF NOT AND DUP4 DUP1 ADD OR DUP6 SSTORE PUSH2 0xF8 JUMP JUMPDEST DUP3 DUP1 ADD PUSH1 0x1 ADD DUP6 SSTORE DUP3 ISZERO PUSH2 0xF8 JUMPI SWAP2 DUP3 ADD JUMPDEST DUP3 DUP2 GT ISZERO PUSH2 0xF7 JUMPI DUP3 MLOAD DUP3 SSTORE SWAP2 PUSH1 0x20 ADD SWAP2 SWAP1 PUSH1 0x1 ADD SWAP1 PUSH2 0xDC JUMP JUMPDEST JUMPDEST POP SWAP1 POP PUSH2 0x105 SWAP2 SWAP1 PUSH2 0x109 JUMP JUMPDEST POP SWAP1 JUMP JUMPDEST PUSH2 0x12B SWAP2 SWAP1 JUMPDEST DUP1 DUP3 GT ISZERO PUSH2 0x127 JUMPI PUSH1 0x0 DUP2 PUSH1 0x0 SWAP1 SSTORE POP PUSH1 0x1 ADD PUSH2 0x10F JUMP JUMPDEST POP SWAP1 JUMP JUMPDEST SWAP1 JUMP JUMPDEST PUSH2 0xDD7 DUP1 PUSH2 0x13D PUSH1 0x0 CODECOPY PUSH1 0x0 RETURN STOP PUSH1 0x80 PUSH1 0x40 MSTORE PUSH1 0x4 CALLDATASIZE LT PUSH2 0x8E JUMPI PUSH1 0x0 CALLDATALOAD PUSH29 0x100000000000000000000000000000000000000000000000000000000 SWAP1 DIV PUSH4 0xFFFFFFFF AND DUP1 PUSH4 0x409766E6 EQ PUSH2 0x93 JUMPI DUP1 PUSH4 0x43129DE1 EQ PUSH2 0xC2 JUMPI DUP1 PUSH4 0x439F5AC2 EQ PUSH2 0xEF JUMPI DUP1 PUSH4 0x659DD2B4 EQ PUSH2 0x11A JUMPI DUP1 PUSH4 0x679DBF0C EQ PUSH2 0x147 JUMPI DUP1 PUSH4 0xAD934674 EQ PUSH2 0x1B3 JUMPI DUP1 PUSH4 0xDD06BA1A EQ PUSH2 0x1DE JUMPI DUP1 PUSH4 0xDEE37A8E EQ PUSH2 0x209 JUMPI JUMPDEST PUSH1 0x0 DUP1 REVERT JUMPDEST CALLVALUE DUP1 ISZERO PUSH2 0x9F JUMPI PUSH1 0x0 DUP1 REVERT JUMPDEST POP PUSH2 0xA8 PUSH2 0x276 JUMP JUMPDEST PUSH1 0x40 MLOAD DUP1 DUP3 ISZERO ISZERO ISZERO ISZERO DUP2 MSTORE PUSH1 0x20 ADD SWAP2 POP POP PUSH1 0x40 MLOAD DUP1 SWAP2 SUB SWAP1 RETURN JUMPDEST CALLVALUE DUP1 ISZERO PUSH2 0xCE JUMPI PUSH1 0x0 DUP1 REVERT JUMPDEST POP PUSH2 0xED PUSH1 0x4 DUP1 CALLDATASIZE SUB DUP2 ADD SWAP1 DUP1 DUP1 CALLDATALOAD SWAP1 PUSH1 0x20 ADD SWAP1 SWAP3 SWAP2 SWAP1 POP POP POP PUSH2 0x28D JUMP JUMPDEST STOP JUMPDEST CALLVALUE DUP1 ISZERO PUSH2 0xFB JUMPI PUSH1 0x0 DUP1 REVERT JUMPDEST POP PUSH2 0x104 PUSH2 0x4F2 JUMP JUMPDEST PUSH1 0x40 MLOAD DUP1 DUP3 DUP2 MSTORE PUSH1 0x20 ADD SWAP2 POP POP PUSH1 0x40 MLOAD DUP1 SWAP2 SUB SWAP1 RETURN JUMPDEST CALLVALUE DUP1 ISZERO PUSH2 0x126 JUMPI PUSH1 0x0 DUP1 REVERT JUMPDEST POP PUSH2 0x145 PUSH1 0x4 DUP1 CALLDATASIZE SUB DUP2 ADD SWAP1 DUP1 DUP1 CALLDATALOAD SWAP1 PUSH1 0x20 ADD SWAP1 SWAP3 SWAP2 SWAP1 POP POP POP PUSH2 0x4FC JUMP JUMPDEST STOP JUMPDEST CALLVALUE DUP1 ISZERO PUSH2 0x153 JUMPI PUSH1 0x0 DUP1 REVERT JUMPDEST POP PUSH2 0x15C PUSH2 0x7BB JUMP JUMPDEST PUSH1 0x40 MLOAD DUP1 DUP1 PUSH1 0x20 ADD DUP3 DUP2 SUB DUP3 MSTORE DUP4 DUP2 DUP2 MLOAD DUP2 MSTORE PUSH1 0x20 ADD SWAP2 POP DUP1 MLOAD SWAP1 PUSH1 0x20 ADD SWAP1 PUSH1 0x20 MUL DUP1 DUP4 DUP4 PUSH1 0x0 JUMPDEST DUP4 DUP2 LT ISZERO PUSH2 0x19F JUMPI DUP1 DUP3 ADD MLOAD DUP2 DUP5 ADD MSTORE PUSH1 0x20 DUP2 ADD SWAP1 POP PUSH2 0x184 JUMP JUMPDEST POP POP POP POP SWAP1 POP ADD SWAP3 POP POP POP PUSH1 0x40 MLOAD DUP1 SWAP2 SUB SWAP1 RETURN JUMPDEST CALLVALUE DUP1 ISZERO PUSH2 0x1BF JUMPI PUSH1 0x0 DUP1 REVERT JUMPDEST POP PUSH2 0x1C8 PUSH2 0x928 JUMP JUMPDEST PUSH1 0x40 MLOAD DUP1 DUP3 DUP2 MSTORE PUSH1 0x20 ADD SWAP2 POP POP PUSH1 0x40 MLOAD DUP1 SWAP2 SUB SWAP1 RETURN JUMPDEST CALLVALUE DUP1 ISZERO PUSH2 0x1EA JUMPI PUSH1 0x0 DUP1 REVERT JUMPDEST POP PUSH2 0x1F3 PUSH2 0x9AB JUMP JUMPDEST PUSH1 0x40 MLOAD DUP1 DUP3 DUP2 MSTORE PUSH1 0x20 ADD SWAP2 POP POP PUSH1 0x40 MLOAD DUP1 SWAP2 SUB SWAP1 RETURN JUMPDEST CALLVALUE DUP1 ISZERO PUSH2 0x215 JUMPI PUSH1 0x0 DUP1 REVERT JUMPDEST POP PUSH2 0x234 PUSH1 0x4 DUP1 CALLDATASIZE SUB DUP2 ADD SWAP1 DUP1 DUP1 CALLDATALOAD SWAP1 PUSH1 0x20 ADD SWAP1 SWAP3 SWAP2 SWAP1 POP POP POP PUSH2 0xAD4 JUMP JUMPDEST PUSH1 0x40 MLOAD DUP1 DUP3 PUSH20 0xFFFFFFFFFFFFFFFFFFFFFFFFFFFFFFFFFFFFFFFF AND PUSH20 0xFFFFFFFFFFFFFFFFFFFFFFFFFFFFFFFFFFFFFFFF AND DUP2 MSTORE PUSH1 0x20 ADD SWAP2 POP POP PUSH1 0x40 MLOAD DUP1 SWAP2 SUB SWAP1 RETURN JUMPDEST PUSH1 0x0 PUSH1 0x4 PUSH1 0x0 SWAP1 SLOAD SWAP1 PUSH2 0x100 EXP SWAP1 DIV PUSH1 0xFF AND SWAP1 POP SWAP1 JUMP JUMPDEST DUP1 PUSH1 0x3 SLOAD DUP2 GT ISZERO ISZERO PUSH2 0x353 JUMPI PUSH1 0x40 MLOAD PUSH32 0x8C379A000000000000000000000000000000000000000000000000000000000 DUP2 MSTORE PUSH1 0x4 ADD DUP1 DUP1 PUSH1 0x20 ADD DUP3 DUP2 SUB DUP3 MSTORE PUSH1 0x45 DUP2 MSTORE PUSH1 0x20 ADD DUP1 PUSH32 0x506C6561736520656E7465722061206269642067726561746572207468616E20 DUP2 MSTORE PUSH1 0x20 ADD PUSH32 0x6D696E696D756D20726571756972656420626964206F6620676976656E206175 DUP2 MSTORE PUSH1 0x20 ADD PUSH32 0x6374696F6E000000000000000000000000000000000000000000000000000000 DUP2 MSTORE POP PUSH1 0x60 ADD SWAP2 POP POP PUSH1 0x40 MLOAD DUP1 SWAP2 SUB SWAP1 REVERT JUMPDEST PUSH1 0x2 SLOAD TIMESTAMP LT ISZERO ISZERO PUSH2 0x3CC JUMPI PUSH1 0x40 MLOAD PUSH32 0x8C379A000000000000000000000000000000000000000000000000000000000 DUP2 MSTORE PUSH1 0x4 ADD DUP1 DUP1 PUSH1 0x20 ADD DUP3 DUP2 SUB DUP3 MSTORE PUSH1 0x14 DUP2 MSTORE PUSH1 0x20 ADD DUP1 PUSH32 0x41756374696F6E20697320496E61637469766520000000000000000000000000 DUP2 MSTORE POP PUSH1 0x20 ADD SWAP2 POP POP PUSH1 0x40 MLOAD DUP1 SWAP2 SUB SWAP1 REVERT JUMPDEST PUSH1 0x0 PUSH1 0x5 PUSH1 0x0 ORIGIN PUSH20 0xFFFFFFFFFFFFFFFFFFFFFFFFFFFFFFFFFFFFFFFF AND PUSH20 0xFFFFFFFFFFFFFFFFFFFFFFFFFFFFFFFFFFFFFFFF AND DUP2 MSTORE PUSH1 0x20 ADD SWAP1 DUP2 MSTORE PUSH1 0x20 ADD PUSH1 0x0 KECCAK256 SLOAD EQ ISZERO ISZERO ISZERO PUSH2 0x4AA JUMPI PUSH1 0x40 MLOAD PUSH32 0x8C379A000000000000000000000000000000000000000000000000000000000 DUP2 MSTORE PUSH1 0x4 ADD DUP1 DUP1 PUSH1 0x20 ADD DUP3 DUP2 SUB DUP3 MSTORE PUSH1 0x3B DUP2 MSTORE PUSH1 0x20 ADD DUP1 PUSH32 0x596F7520686176656E2774206372656174656420616E79206269642C20757365 DUP2 MSTORE PUSH1 0x20 ADD PUSH32 0x2063726561746542696420666F72206372656174696E67206F6E650000000000 DUP2 MSTORE POP PUSH1 0x40 ADD SWAP2 POP POP PUSH1 0x40 MLOAD DUP1 SWAP2 SUB SWAP1 REVERT JUMPDEST DUP2 PUSH1 0x5 PUSH1 0x0 ORIGIN PUSH20 0xFFFFFFFFFFFFFFFFFFFFFFFFFFFFFFFFFFFFFFFF AND PUSH20 0xFFFFFFFFFFFFFFFFFFFFFFFFFFFFFFFFFFFFFFFF AND DUP2 MSTORE PUSH1 0x20 ADD SWAP1 DUP2 MSTORE PUSH1 0x20 ADD PUSH1 0x0 KECCAK256 DUP2 SWAP1 SSTORE POP POP POP JUMP JUMPDEST PUSH1 0x0 PUSH1 0x2 SLOAD SWAP1 POP SWAP1 JUMP JUMPDEST DUP1 PUSH1 0x3 SLOAD DUP2 GT ISZERO ISZERO PUSH2 0x5C2 JUMPI PUSH1 0x40 MLOAD PUSH32 0x8C379A000000000000000000000000000000000000000000000000000000000 DUP2 MSTORE PUSH1 0x4 ADD DUP1 DUP1 PUSH1 0x20 ADD DUP3 DUP2 SUB DUP3 MSTORE PUSH1 0x45 DUP2 MSTORE PUSH1 0x20 ADD DUP1 PUSH32 0x506C6561736520656E7465722061206269642067726561746572207468616E20 DUP2 MSTORE PUSH1 0x20 ADD PUSH32 0x6D696E696D756D20726571756972656420626964206F6620676976656E206175 DUP2 MSTORE PUSH1 0x20 ADD PUSH32 0x6374696F6E000000000000000000000000000000000000000000000000000000 DUP2 MSTORE POP PUSH1 0x60 ADD SWAP2 POP POP PUSH1 0x40 MLOAD DUP1 SWAP2 SUB SWAP1 REVERT JUMPDEST PUSH1 0x2 SLOAD TIMESTAMP LT ISZERO ISZERO PUSH2 0x63B JUMPI PUSH1 0x40 MLOAD PUSH32 0x8C379A000000000000000000000000000000000000000000000000000000000 DUP2 MSTORE PUSH1 0x4 ADD DUP1 DUP1 PUSH1 0x20 ADD DUP3 DUP2 SUB DUP3 MSTORE PUSH1 0x14 DUP2 MSTORE PUSH1 0x20 ADD DUP1 PUSH32 0x41756374696F6E20697320496E61637469766520000000000000000000000000 DUP2 MSTORE POP PUSH1 0x20 ADD SWAP2 POP POP PUSH1 0x40 MLOAD DUP1 SWAP2 SUB SWAP1 REVERT JUMPDEST PUSH1 0x0 PUSH1 0x5 PUSH1 0x0 ORIGIN PUSH20 0xFFFFFFFFFFFFFFFFFFFFFFFFFFFFFFFFFFFFFFFF AND PUSH20 0xFFFFFFFFFFFFFFFFFFFFFFFFFFFFFFFFFFFFFFFF AND DUP2 MSTORE PUSH1 0x20 ADD SWAP1 DUP2 MSTORE PUSH1 0x20 ADD PUSH1 0x0 KECCAK256 SLOAD EQ ISZERO ISZERO PUSH2 0x6F2 JUMPI PUSH1 0x40 MLOAD PUSH32 0x8C379A000000000000000000000000000000000000000000000000000000000 DUP2 MSTORE PUSH1 0x4 ADD DUP1 DUP1 PUSH1 0x20 ADD DUP3 DUP2 SUB DUP3 MSTORE PUSH1 0x1E DUP2 MSTORE PUSH1 0x20 ADD DUP1 PUSH32 0x596F75206861766520616C726561647920637265617465642061206269640000 DUP2 MSTORE POP PUSH1 0x20 ADD SWAP2 POP POP PUSH1 0x40 MLOAD DUP1 SWAP2 SUB SWAP1 REVERT JUMPDEST PUSH1 0x1 PUSH1 0x4 PUSH1 0x0 PUSH2 0x100 EXP DUP2 SLOAD DUP2 PUSH1 0xFF MUL NOT AND SWAP1 DUP4 ISZERO ISZERO MUL OR SWAP1 SSTORE POP DUP2 PUSH1 0x5 PUSH1 0x0 ORIGIN PUSH20 0xFFFFFFFFFFFFFFFFFFFFFFFFFFFFFFFFFFFFFFFF AND PUSH20 0xFFFFFFFFFFFFFFFFFFFFFFFFFFFFFFFFFFFFFFFF AND DUP2 MSTORE PUSH1 0x20 ADD SWAP1 DUP2 MSTORE PUSH1 0x20 ADD PUSH1 0x0 KECCAK256 DUP2 SWAP1 SSTORE POP PUSH1 0x6 ORIGIN SWAP1 DUP1 PUSH1 0x1 DUP2 SLOAD ADD DUP1 DUP3 SSTORE DUP1 SWAP2 POP POP SWAP1 PUSH1 0x1 DUP3 SUB SWAP1 PUSH1 0x0 MSTORE PUSH1 0x20 PUSH1 0x0 KECCAK256 ADD PUSH1 0x0 SWAP1 SWAP2 SWAP3 SWAP1 SWAP2 SWAP1 SWAP2 PUSH2 0x100 EXP DUP2 SLOAD DUP2 PUSH20 0xFFFFFFFFFFFFFFFFFFFFFFFFFFFFFFFFFFFFFFFF MUL NOT AND SWAP1 DUP4 PUSH20 0xFFFFFFFFFFFFFFFFFFFFFFFFFFFFFFFFFFFFFFFF AND MUL OR SWAP1 SSTORE POP POP POP POP JUMP JUMPDEST PUSH1 0x60 DUP1 PUSH1 0x0 PUSH1 0x2 SLOAD TIMESTAMP LT ISZERO ISZERO PUSH2 0x839 JUMPI PUSH1 0x40 MLOAD PUSH32 0x8C379A000000000000000000000000000000000000000000000000000000000 DUP2 MSTORE PUSH1 0x4 ADD DUP1 DUP1 PUSH1 0x20 ADD DUP3 DUP2 SUB DUP3 MSTORE PUSH1 0x14 DUP2 MSTORE PUSH1 0x20 ADD DUP1 PUSH32 0x41756374696F6E20697320496E61637469766520000000000000000000000000 DUP2 MSTORE POP PUSH1 0x20 ADD SWAP2 POP POP PUSH1 0x40 MLOAD DUP1 SWAP2 SUB SWAP1 REVERT JUMPDEST PUSH1 0x6 DUP1 SLOAD SWAP1 POP PUSH1 0x40 MLOAD SWAP1 DUP1 DUP3 MSTORE DUP1 PUSH1 0x20 MUL PUSH1 0x20 ADD DUP3 ADD PUSH1 0x40 MSTORE DUP1 ISZERO PUSH2 0x86D JUMPI DUP2 PUSH1 0x20 ADD PUSH1 0x20 DUP3 MUL DUP1 CODESIZE DUP4 CODECOPY DUP1 DUP3 ADD SWAP2 POP POP SWAP1 POP JUMPDEST POP SWAP2 POP JUMPDEST PUSH1 0x6 DUP1 SLOAD SWAP1 POP DUP2 LT ISZERO PUSH2 0x920 JUMPI PUSH1 0x5 PUSH1 0x0 PUSH1 0x6 DUP4 DUP2 SLOAD DUP2 LT ISZERO ISZERO PUSH2 0x891 JUMPI INVALID JUMPDEST SWAP1 PUSH1 0x0 MSTORE PUSH1 0x20 PUSH1 0x0 KECCAK256 ADD PUSH1 0x0 SWAP1 SLOAD SWAP1 PUSH2 0x100 EXP SWAP1 DIV PUSH20 0xFFFFFFFFFFFFFFFFFFFFFFFFFFFFFFFFFFFFFFFF AND PUSH20 0xFFFFFFFFFFFFFFFFFFFFFFFFFFFFFFFFFFFFFFFF AND PUSH20 0xFFFFFFFFFFFFFFFFFFFFFFFFFFFFFFFFFFFFFFFF AND DUP2 MSTORE PUSH1 0x20 ADD SWAP1 DUP2 MSTORE PUSH1 0x20 ADD PUSH1 0x0 KECCAK256 SLOAD DUP3 DUP3 DUP2 MLOAD DUP2 LT ISZERO ISZERO PUSH2 0x905 JUMPI INVALID JUMPDEST SWAP1 PUSH1 0x20 ADD SWAP1 PUSH1 0x20 MUL ADD DUP2 DUP2 MSTORE POP POP DUP1 DUP1 PUSH1 0x1 ADD SWAP2 POP POP PUSH2 0x871 JUMP JUMPDEST DUP2 SWAP3 POP POP POP SWAP1 JUMP JUMPDEST PUSH1 0x0 PUSH1 0x2 SLOAD TIMESTAMP LT ISZERO ISZERO PUSH2 0x9A3 JUMPI PUSH1 0x40 MLOAD PUSH32 0x8C379A000000000000000000000000000000000000000000000000000000000 DUP2 MSTORE PUSH1 0x4 ADD DUP1 DUP1 PUSH1 0x20 ADD DUP3 DUP2 SUB DUP3 MSTORE PUSH1 0x14 DUP2 MSTORE PUSH1 0x20 ADD DUP1 PUSH32 0x41756374696F6E20697320496E61637469766520000000000000000000000000 DUP2 MSTORE POP PUSH1 0x20 ADD SWAP2 POP POP PUSH1 0x40 MLOAD DUP1 SWAP2 SUB SWAP1 REVERT JUMPDEST PUSH1 0x3 SLOAD SWAP1 POP SWAP1 JUMP JUMPDEST PUSH1 0x0 DUP1 PUSH1 0x0 PUSH1 0x2 SLOAD TIMESTAMP LT ISZERO ISZERO PUSH2 0xA29 JUMPI PUSH1 0x40 MLOAD PUSH32 0x8C379A000000000000000000000000000000000000000000000000000000000 DUP2 MSTORE PUSH1 0x4 ADD DUP1 DUP1 PUSH1 0x20 ADD DUP3 DUP2 SUB DUP3 MSTORE PUSH1 0x14 DUP2 MSTORE PUSH1 0x20 ADD DUP1 PUSH32 0x41756374696F6E20697320496E61637469766520000000000000000000000000 DUP2 MSTORE POP PUSH1 0x20 ADD SWAP2 POP POP PUSH1 0x40 MLOAD DUP1 SWAP2 SUB SWAP1 REVERT JUMPDEST PUSH1 0x0 SWAP2 POP JUMPDEST PUSH1 0x6 DUP1 SLOAD SWAP1 POP DUP2 LT ISZERO PUSH2 0xACC JUMPI PUSH2 0xABD PUSH1 0x5 PUSH1 0x0 PUSH1 0x6 DUP5 DUP2 SLOAD DUP2 LT ISZERO ISZERO PUSH2 0xA51 JUMPI INVALID JUMPDEST SWAP1 PUSH1 0x0 MSTORE PUSH1 0x20 PUSH1 0x0 KECCAK256 ADD PUSH1 0x0 SWAP1 SLOAD SWAP1 PUSH2 0x100 EXP SWAP1 DIV PUSH20 0xFFFFFFFFFFFFFFFFFFFFFFFFFFFFFFFFFFFFFFFF AND PUSH20 0xFFFFFFFFFFFFFFFFFFFFFFFFFFFFFFFFFFFFFFFF AND PUSH20 0xFFFFFFFFFFFFFFFFFFFFFFFFFFFFFFFFFFFFFFFF AND DUP2 MSTORE PUSH1 0x20 ADD SWAP1 DUP2 MSTORE PUSH1 0x20 ADD PUSH1 0x0 KECCAK256 SLOAD DUP4 PUSH2 0xD91 JUMP JUMPDEST SWAP2 POP DUP1 DUP1 PUSH1 0x1 ADD SWAP2 POP POP PUSH2 0xA2E JUMP JUMPDEST DUP2 SWAP3 POP POP POP SWAP1 JUMP JUMPDEST PUSH1 0x0 DUP1 PUSH1 0x0 PUSH1 0x2 SLOAD TIMESTAMP LT ISZERO ISZERO PUSH2 0xB52 JUMPI PUSH1 0x40 MLOAD PUSH32 0x8C379A000000000000000000000000000000000000000000000000000000000 DUP2 MSTORE PUSH1 0x4 ADD DUP1 DUP1 PUSH1 0x20 ADD DUP3 DUP2 SUB DUP3 MSTORE PUSH1 0x14 DUP2 MSTORE PUSH1 0x20 ADD DUP1 PUSH32 0x41756374696F6E20697320496E61637469766520000000000000000000000000 DUP2 MSTORE POP PUSH1 0x20 ADD SWAP2 POP POP PUSH1 0x40 MLOAD DUP1 SWAP2 SUB SWAP1 REVERT JUMPDEST PUSH1 0x0 PUSH1 0x6 DUP1 SLOAD SWAP1 POP SWAP1 POP PUSH1 0x0 DUP2 GT ISZERO ISZERO PUSH2 0xBFA JUMPI PUSH1 0x40 MLOAD PUSH32 0x8C379A000000000000000000000000000000000000000000000000000000000 DUP2 MSTORE PUSH1 0x4 ADD DUP1 DUP1 PUSH1 0x20 ADD DUP3 DUP2 SUB DUP3 MSTORE PUSH1 0x27 DUP2 MSTORE PUSH1 0x20 ADD DUP1 PUSH32 0x43616E277420656E64206173206E6F20626964732068617665206265656E206D DUP2 MSTORE PUSH1 0x20 ADD PUSH32 0x6164652079657400000000000000000000000000000000000000000000000000 DUP2 MSTORE POP PUSH1 0x40 ADD SWAP2 POP POP PUSH1 0x40 MLOAD DUP1 SWAP2 SUB SWAP1 REVERT JUMPDEST TIMESTAMP PUSH1 0x2 DUP2 SWAP1 SSTORE POP PUSH1 0x0 SWAP2 POP JUMPDEST PUSH1 0x6 DUP1 SLOAD SWAP1 POP DUP3 LT ISZERO PUSH2 0xCE1 JUMPI DUP5 PUSH1 0x5 PUSH1 0x0 PUSH1 0x6 DUP6 DUP2 SLOAD DUP2 LT ISZERO ISZERO PUSH2 0xC27 JUMPI INVALID JUMPDEST SWAP1 PUSH1 0x0 MSTORE PUSH1 0x20 PUSH1 0x0 KECCAK256 ADD PUSH1 0x0 SWAP1 SLOAD SWAP1 PUSH2 0x100 EXP SWAP1 DIV PUSH20 0xFFFFFFFFFFFFFFFFFFFFFFFFFFFFFFFFFFFFFFFF AND PUSH20 0xFFFFFFFFFFFFFFFFFFFFFFFFFFFFFFFFFFFFFFFF AND PUSH20 0xFFFFFFFFFFFFFFFFFFFFFFFFFFFFFFFFFFFFFFFF AND DUP2 MSTORE PUSH1 0x20 ADD SWAP1 DUP2 MSTORE PUSH1 0x20 ADD PUSH1 0x0 KECCAK256 SLOAD EQ ISZERO PUSH2 0xCD4 JUMPI PUSH1 0x6 DUP3 DUP2 SLOAD DUP2 LT ISZERO ISZERO PUSH2 0xCA2 JUMPI INVALID JUMPDEST SWAP1 PUSH1 0x0 MSTORE PUSH1 0x20 PUSH1 0x0 KECCAK256 ADD PUSH1 0x0 SWAP1 SLOAD SWAP1 PUSH2 0x100 EXP SWAP1 DIV PUSH20 0xFFFFFFFFFFFFFFFFFFFFFFFFFFFFFFFFFFFFFFFF AND SWAP3 POP PUSH2 0xCE1 JUMP JUMPDEST DUP2 DUP1 PUSH1 0x1 ADD SWAP3 POP POP PUSH2 0xC06 JUMP JUMPDEST PUSH1 0x0 PUSH20 0xFFFFFFFFFFFFFFFFFFFFFFFFFFFFFFFFFFFFFFFF AND DUP4 PUSH20 0xFFFFFFFFFFFFFFFFFFFFFFFFFFFFFFFFFFFFFFFF AND EQ ISZERO ISZERO ISZERO PUSH2 0xD86 JUMPI PUSH1 0x40 MLOAD PUSH32 0x8C379A000000000000000000000000000000000000000000000000000000000 DUP2 MSTORE PUSH1 0x4 ADD DUP1 DUP1 PUSH1 0x20 ADD DUP3 DUP2 SUB DUP3 MSTORE PUSH1 0x1A DUP2 MSTORE PUSH1 0x20 ADD DUP1 PUSH32 0x546869732062696420686173206E6F74206265656E206D616465000000000000 DUP2 MSTORE POP PUSH1 0x20 ADD SWAP2 POP POP PUSH1 0x40 MLOAD DUP1 SWAP2 SUB SWAP1 REVERT JUMPDEST DUP3 SWAP4 POP POP POP POP SWAP2 SWAP1 POP JUMP JUMPDEST PUSH1 0x0 DUP2 DUP4 LT ISZERO PUSH2 0xDA1 JUMPI DUP2 PUSH2 0xDA3 JUMP JUMPDEST DUP3 JUMPDEST SWAP1 POP SWAP3 SWAP2 POP POP JUMP STOP LOG1 PUSH6 0x627A7A723058 KECCAK256 PUSH32 0x62320ABA502FF94DA3446BC7475AACCA121B77504EE869E2D74E2033A9B43800 0x29 "
				},
				"gasEstimates": {
					"creation": {
						"codeDepositCost": "708600",
						"executionCost": "infinite",
						"totalCost": "infinite"
					},
					"external": {
						"createBid(uint256)": "81993",
						"endAuctionWithSelectedBid(uint256)": "infinite",
						"getBidsMade()": "450",
						"getEndTime()": "446",
						"getListOfBids()": "infinite",
						"getMaximumBid()": "infinite",
						"getMinBidVal()": "740",
						"updateBid(uint256)": "21099"
					},
					"internal": {
						"max(uint256,uint256)": "67"
					}
				},
				"methodIdentifiers": {
					"createBid(uint256)": "659dd2b4",
					"endAuctionWithSelectedBid(uint256)": "dee37a8e",
					"getBidsMade()": "409766e6",
					"getEndTime()": "439f5ac2",
					"getListOfBids()": "679dbf0c",
					"getMaximumBid()": "dd06ba1a",
					"getMinBidVal()": "ad934674",
					"updateBid(uint256)": "43129de1"
				}
			},
			"userdoc": {
				"methods": {}
			}
		}
	}
}