{
	"Project-1-AuctionPlatform/AuctionPlatform.sol": {
		"AuctionPlatform": {
			"abi": [
				{
					"constant": true,
					"inputs": [],
					"name": "aucId",
					"outputs": [
						{
							"name": "",
							"type": "uint256"
						}
					],
					"payable": false,
					"stateMutability": "view",
					"type": "function"
				},
				{
					"constant": true,
					"inputs": [
						{
							"name": "_aucId",
							"type": "uint256"
						}
					],
					"name": "getBidValOnAuction",
					"outputs": [
						{
							"name": "",
							"type": "uint256"
						}
					],
					"payable": false,
					"stateMutability": "view",
					"type": "function"
				},
				{
					"constant": false,
					"inputs": [
						{
							"name": "_aucId",
							"type": "uint256"
						},
						{
							"name": "_bidVal",
							"type": "uint256"
						}
					],
					"name": "updateBid",
					"outputs": [],
					"payable": false,
					"stateMutability": "nonpayable",
					"type": "function"
				},
				{
					"constant": true,
					"inputs": [
						{
							"name": "_aucId",
							"type": "uint256"
						}
					],
					"name": "getMaxBid",
					"outputs": [
						{
							"name": "",
							"type": "uint256"
						}
					],
					"payable": false,
					"stateMutability": "view",
					"type": "function"
				},
				{
					"constant": true,
					"inputs": [],
					"name": "getMaxBid",
					"outputs": [
						{
							"name": "",
							"type": "uint256"
						}
					],
					"payable": false,
					"stateMutability": "view",
					"type": "function"
				},
				{
					"constant": true,
					"inputs": [
						{
							"name": "_aucId",
							"type": "uint256"
						}
					],
					"name": "getMinBidValOfAuction",
					"outputs": [
						{
							"name": "",
							"type": "uint256"
						}
					],
					"payable": false,
					"stateMutability": "view",
					"type": "function"
				},
				{
					"constant": true,
					"inputs": [],
					"name": "getListOfActiveAuctions",
					"outputs": [
						{
							"name": "",
							"type": "uint256[]"
						}
					],
					"payable": false,
					"stateMutability": "view",
					"type": "function"
				},
				{
					"constant": true,
					"inputs": [
						{
							"name": "_aucId",
							"type": "uint256"
						}
					],
					"name": "getAuctionStartTime",
					"outputs": [
						{
							"name": "year",
							"type": "uint256"
						},
						{
							"name": "month",
							"type": "uint256"
						},
						{
							"name": "day",
							"type": "uint256"
						}
					],
					"payable": false,
					"stateMutability": "view",
					"type": "function"
				},
				{
					"constant": true,
					"inputs": [
						{
							"name": "_aucId",
							"type": "uint256"
						}
					],
					"name": "getAuctionEndTime",
					"outputs": [
						{
							"name": "year",
							"type": "uint256"
						},
						{
							"name": "month",
							"type": "uint256"
						},
						{
							"name": "day",
							"type": "uint256"
						}
					],
					"payable": false,
					"stateMutability": "view",
					"type": "function"
				},
				{
					"constant": false,
					"inputs": [
						{
							"name": "_aucId",
							"type": "uint256"
						},
						{
							"name": "_bidVal",
							"type": "uint256"
						}
					],
					"name": "bidOnAuction",
					"outputs": [],
					"payable": false,
					"stateMutability": "nonpayable",
					"type": "function"
				},
				{
					"constant": true,
					"inputs": [
						{
							"name": "_aucId",
							"type": "uint256"
						}
					],
					"name": "getAuctionDescription",
					"outputs": [
						{
							"name": "",
							"type": "string"
						}
					],
					"payable": false,
					"stateMutability": "view",
					"type": "function"
				},
				{
					"constant": false,
					"inputs": [
						{
							"name": "_bid",
							"type": "uint256"
						}
					],
					"name": "endAuction",
					"outputs": [],
					"payable": false,
					"stateMutability": "nonpayable",
					"type": "function"
				},
				{
					"constant": true,
					"inputs": [],
					"name": "getListOfOwnBids",
					"outputs": [
						{
							"name": "",
							"type": "uint256[]"
						}
					],
					"payable": false,
					"stateMutability": "view",
					"type": "function"
				},
				{
					"constant": false,
					"inputs": [
						{
							"name": "_description",
							"type": "string"
						},
						{
							"name": "_startTimeYear",
							"type": "uint256"
						},
						{
							"name": "_startTimeMonth",
							"type": "uint256"
						},
						{
							"name": "_startTimeDay",
							"type": "uint256"
						},
						{
							"name": "_endTimeYear",
							"type": "uint256"
						},
						{
							"name": "_endTimeMonth",
							"type": "uint256"
						},
						{
							"name": "_endTimeDay",
							"type": "uint256"
						},
						{
							"name": "_minBidVal",
							"type": "uint256"
						}
					],
					"name": "createAuction",
					"outputs": [],
					"payable": false,
					"stateMutability": "nonpayable",
					"type": "function"
				},
				{
					"constant": true,
					"inputs": [],
					"name": "getListOfBidsOnAuction",
					"outputs": [
						{
							"name": "",
							"type": "uint256[]"
						}
					],
					"payable": false,
					"stateMutability": "view",
					"type": "function"
				},
				{
					"constant": false,
					"inputs": [],
					"name": "endAuction",
					"outputs": [
						{
							"name": "",
							"type": "address"
						}
					],
					"payable": false,
					"stateMutability": "nonpayable",
					"type": "function"
				},
				{
					"inputs": [
						{
							"name": "_auctionLimit",
							"type": "uint256"
						}
					],
					"payable": false,
					"stateMutability": "nonpayable",
					"type": "constructor"
				},
				{
					"anonymous": false,
					"inputs": [
						{
							"indexed": true,
							"name": "_aucId",
							"type": "uint256"
						},
						{
							"indexed": true,
							"name": "_timeStamp",
							"type": "uint256"
						},
						{
							"indexed": false,
							"name": "from",
							"type": "address"
						}
					],
					"name": "auctionCreated",
					"type": "event"
				},
				{
					"anonymous": false,
					"inputs": [
						{
							"indexed": true,
							"name": "_winner",
							"type": "address"
						},
						{
							"indexed": true,
							"name": "_winningBid",
							"type": "uint256"
						}
					],
					"name": "auctionEnded",
					"type": "event"
				},
				{
					"anonymous": false,
					"inputs": [
						{
							"indexed": true,
							"name": "from",
							"type": "address"
						},
						{
							"indexed": true,
							"name": "_aucId",
							"type": "uint256"
						}
					],
					"name": "biddedOnAuction",
					"type": "event"
				},
				{
					"anonymous": false,
					"inputs": [
						{
							"indexed": true,
							"name": "from",
							"type": "address"
						},
						{
							"indexed": true,
							"name": "_aucId",
							"type": "uint256"
						}
					],
					"name": "updatedBid",
					"type": "event"
				}
			],
			"devdoc": {
				"methods": {}
			},
			"evm": {
				"assembly": "    /* \"Project-1-AuctionPlatform/AuctionPlatform.sol\":379:12814  contract AuctionPlatform {... */\n  mstore(0x40, 0x80)\n    /* \"Project-1-AuctionPlatform/AuctionPlatform.sol\":433:434  0 */\n  0x0\n    /* \"Project-1-AuctionPlatform/AuctionPlatform.sol\":410:434  uint256 public aucId = 0 */\n  dup1\n  sstore\n    /* \"Project-1-AuctionPlatform/AuctionPlatform.sol\":1530:1627  constructor(uint256 _auctionLimit) public {... */\n  callvalue\n    /* \"--CODEGEN--\":8:17   */\n  dup1\n    /* \"--CODEGEN--\":5:7   */\n  iszero\n  tag_1\n  jumpi\n    /* \"--CODEGEN--\":30:31   */\n  0x0\n    /* \"--CODEGEN--\":27:28   */\n  dup1\n    /* \"--CODEGEN--\":20:32   */\n  revert\n    /* \"--CODEGEN--\":5:7   */\ntag_1:\n    /* \"Project-1-AuctionPlatform/AuctionPlatform.sol\":1530:1627  constructor(uint256 _auctionLimit) public {... */\n  pop\n  mload(0x40)\n  0x20\n  dup1\n  bytecodeSize\n  dup4\n  codecopy\n  dup2\n  add\n  dup1\n  0x40\n  mstore\n  dup2\n  add\n  swap1\n  dup1\n  dup1\n  mload\n  swap1\n  0x20\n  add\n  swap1\n  swap3\n  swap2\n  swap1\n  pop\n  pop\n  pop\n    /* \"Project-1-AuctionPlatform/AuctionPlatform.sol\":1619:1620  1 */\n  0x1\n    /* \"Project-1-AuctionPlatform/AuctionPlatform.sol\":1603:1616  _auctionLimit */\n  dup2\n    /* \"Project-1-AuctionPlatform/AuctionPlatform.sol\":1603:1620  _auctionLimit + 1 */\n  add\n    /* \"Project-1-AuctionPlatform/AuctionPlatform.sol\":1582:1593  auctionList */\n  0x1\n    /* \"Project-1-AuctionPlatform/AuctionPlatform.sol\":1582:1620  auctionList.length = _auctionLimit + 1 */\n  dup2\n  tag_4\n  swap2\n  swap1\n  jump\t// in(tag_5)\ntag_4:\n  pop\n    /* \"Project-1-AuctionPlatform/AuctionPlatform.sol\":1530:1627  constructor(uint256 _auctionLimit) public {... */\n  pop\n    /* \"Project-1-AuctionPlatform/AuctionPlatform.sol\":379:12814  contract AuctionPlatform {... */\n  jump(tag_6)\ntag_5:\n  dup2\n  sload\n  dup2\n  dup4\n  sstore\n  dup2\n  dup2\n  gt\n  iszero\n  tag_7\n  jumpi\n  dup2\n  dup4\n  0x0\n  mstore\n  keccak256(0x0, 0x20)\n  swap2\n  dup3\n  add\n  swap2\n  add\n  tag_8\n  swap2\n  swap1\n  jump\t// in(tag_9)\ntag_8:\ntag_7:\n  pop\n  pop\n  pop\n  jump\t// out\ntag_9:\n  tag_10\n  swap2\n  swap1\ntag_11:\n  dup1\n  dup3\n  gt\n  iszero\n  tag_12\n  jumpi\n  0x0\n  dup2\n  0x0\n  swap1\n  sstore\n  pop\n  0x1\n  add\n  jump(tag_11)\ntag_12:\n  pop\n  swap1\n  jump\ntag_10:\n  swap1\n  jump\t// out\ntag_6:\n  dataSize(sub_0)\n  dup1\n  dataOffset(sub_0)\n  0x0\n  codecopy\n  0x0\n  return\nstop\n\nsub_0: assembly {\n        /* \"Project-1-AuctionPlatform/AuctionPlatform.sol\":379:12814  contract AuctionPlatform {... */\n      mstore(0x40, 0x80)\n      jumpi(tag_1, lt(calldatasize, 0x4))\n      calldataload(0x0)\n      0x100000000000000000000000000000000000000000000000000000000\n      swap1\n      div\n      0xffffffff\n      and\n      dup1\n      0x25c0cdaa\n      eq\n      tag_2\n      jumpi\n      dup1\n      0x2ae9285f\n      eq\n      tag_3\n      jumpi\n      dup1\n      0x60365e0c\n      eq\n      tag_4\n      jumpi\n      dup1\n      0x617fbce9\n      eq\n      tag_5\n      jumpi\n      dup1\n      0x7e12a251\n      eq\n      tag_6\n      jumpi\n      dup1\n      0x843767a1\n      eq\n      tag_7\n      jumpi\n      dup1\n      0x85774206\n      eq\n      tag_8\n      jumpi\n      dup1\n      0x919e84f5\n      eq\n      tag_9\n      jumpi\n      dup1\n      0x930e79f1\n      eq\n      tag_10\n      jumpi\n      dup1\n      0x9f635120\n      eq\n      tag_11\n      jumpi\n      dup1\n      0xaa7ac8ab\n      eq\n      tag_12\n      jumpi\n      dup1\n      0xb9a2de3a\n      eq\n      tag_13\n      jumpi\n      dup1\n      0xd1fda965\n      eq\n      tag_14\n      jumpi\n      dup1\n      0xe3a57e65\n      eq\n      tag_15\n      jumpi\n      dup1\n      0xf2f58fcf\n      eq\n      tag_16\n      jumpi\n      dup1\n      0xfe67a54b\n      eq\n      tag_17\n      jumpi\n    tag_1:\n      0x0\n      dup1\n      revert\n        /* \"Project-1-AuctionPlatform/AuctionPlatform.sol\":410:434  uint256 public aucId = 0 */\n    tag_2:\n      callvalue\n        /* \"--CODEGEN--\":8:17   */\n      dup1\n        /* \"--CODEGEN--\":5:7   */\n      iszero\n      tag_18\n      jumpi\n        /* \"--CODEGEN--\":30:31   */\n      0x0\n        /* \"--CODEGEN--\":27:28   */\n      dup1\n        /* \"--CODEGEN--\":20:32   */\n      revert\n        /* \"--CODEGEN--\":5:7   */\n    tag_18:\n        /* \"Project-1-AuctionPlatform/AuctionPlatform.sol\":410:434  uint256 public aucId = 0 */\n      pop\n      tag_19\n      jump(tag_20)\n    tag_19:\n      mload(0x40)\n      dup1\n      dup3\n      dup2\n      mstore\n      0x20\n      add\n      swap2\n      pop\n      pop\n      mload(0x40)\n      dup1\n      swap2\n      sub\n      swap1\n      return\n        /* \"Project-1-AuctionPlatform/AuctionPlatform.sol\":5319:5524  function getBidValOnAuction(uint256 _aucId)... */\n    tag_3:\n      callvalue\n        /* \"--CODEGEN--\":8:17   */\n      dup1\n        /* \"--CODEGEN--\":5:7   */\n      iszero\n      tag_21\n      jumpi\n        /* \"--CODEGEN--\":30:31   */\n      0x0\n        /* \"--CODEGEN--\":27:28   */\n      dup1\n        /* \"--CODEGEN--\":20:32   */\n      revert\n        /* \"--CODEGEN--\":5:7   */\n    tag_21:\n        /* \"Project-1-AuctionPlatform/AuctionPlatform.sol\":5319:5524  function getBidValOnAuction(uint256 _aucId)... */\n      pop\n      tag_22\n      0x4\n      dup1\n      calldatasize\n      sub\n      dup2\n      add\n      swap1\n      dup1\n      dup1\n      calldataload\n      swap1\n      0x20\n      add\n      swap1\n      swap3\n      swap2\n      swap1\n      pop\n      pop\n      pop\n      jump(tag_23)\n    tag_22:\n      mload(0x40)\n      dup1\n      dup3\n      dup2\n      mstore\n      0x20\n      add\n      swap2\n      pop\n      pop\n      mload(0x40)\n      dup1\n      swap2\n      sub\n      swap1\n      return\n        /* \"Project-1-AuctionPlatform/AuctionPlatform.sol\":8518:8787  function updateBid(uint256 _aucId, uint256 _bidVal)... */\n    tag_4:\n      callvalue\n        /* \"--CODEGEN--\":8:17   */\n      dup1\n        /* \"--CODEGEN--\":5:7   */\n      iszero\n      tag_24\n      jumpi\n        /* \"--CODEGEN--\":30:31   */\n      0x0\n        /* \"--CODEGEN--\":27:28   */\n      dup1\n        /* \"--CODEGEN--\":20:32   */\n      revert\n        /* \"--CODEGEN--\":5:7   */\n    tag_24:\n        /* \"Project-1-AuctionPlatform/AuctionPlatform.sol\":8518:8787  function updateBid(uint256 _aucId, uint256 _bidVal)... */\n      pop\n      tag_25\n      0x4\n      dup1\n      calldatasize\n      sub\n      dup2\n      add\n      swap1\n      dup1\n      dup1\n      calldataload\n      swap1\n      0x20\n      add\n      swap1\n      swap3\n      swap2\n      swap1\n      dup1\n      calldataload\n      swap1\n      0x20\n      add\n      swap1\n      swap3\n      swap2\n      swap1\n      pop\n      pop\n      pop\n      jump(tag_26)\n    tag_25:\n      stop\n        /* \"Project-1-AuctionPlatform/AuctionPlatform.sol\":6095:6370  function getMaxBid(uint256 _aucId)... */\n    tag_5:\n      callvalue\n        /* \"--CODEGEN--\":8:17   */\n      dup1\n        /* \"--CODEGEN--\":5:7   */\n      iszero\n      tag_27\n      jumpi\n        /* \"--CODEGEN--\":30:31   */\n      0x0\n        /* \"--CODEGEN--\":27:28   */\n      dup1\n        /* \"--CODEGEN--\":20:32   */\n      revert\n        /* \"--CODEGEN--\":5:7   */\n    tag_27:\n        /* \"Project-1-AuctionPlatform/AuctionPlatform.sol\":6095:6370  function getMaxBid(uint256 _aucId)... */\n      pop\n      tag_28\n      0x4\n      dup1\n      calldatasize\n      sub\n      dup2\n      add\n      swap1\n      dup1\n      dup1\n      calldataload\n      swap1\n      0x20\n      add\n      swap1\n      swap3\n      swap2\n      swap1\n      pop\n      pop\n      pop\n      jump(tag_29)\n    tag_28:\n      mload(0x40)\n      dup1\n      dup3\n      dup2\n      mstore\n      0x20\n      add\n      swap2\n      pop\n      pop\n      mload(0x40)\n      dup1\n      swap2\n      sub\n      swap1\n      return\n        /* \"Project-1-AuctionPlatform/AuctionPlatform.sol\":5600:6010  function getMaxBid()... */\n    tag_6:\n      callvalue\n        /* \"--CODEGEN--\":8:17   */\n      dup1\n        /* \"--CODEGEN--\":5:7   */\n      iszero\n      tag_30\n      jumpi\n        /* \"--CODEGEN--\":30:31   */\n      0x0\n        /* \"--CODEGEN--\":27:28   */\n      dup1\n        /* \"--CODEGEN--\":20:32   */\n      revert\n        /* \"--CODEGEN--\":5:7   */\n    tag_30:\n        /* \"Project-1-AuctionPlatform/AuctionPlatform.sol\":5600:6010  function getMaxBid()... */\n      pop\n      tag_31\n      jump(tag_32)\n    tag_31:\n      mload(0x40)\n      dup1\n      dup3\n      dup2\n      mstore\n      0x20\n      add\n      swap2\n      pop\n      pop\n      mload(0x40)\n      dup1\n      swap2\n      sub\n      swap1\n      return\n        /* \"Project-1-AuctionPlatform/AuctionPlatform.sol\":5053:5242  function getMinBidValOfAuction(uint256 _aucId)... */\n    tag_7:\n      callvalue\n        /* \"--CODEGEN--\":8:17   */\n      dup1\n        /* \"--CODEGEN--\":5:7   */\n      iszero\n      tag_33\n      jumpi\n        /* \"--CODEGEN--\":30:31   */\n      0x0\n        /* \"--CODEGEN--\":27:28   */\n      dup1\n        /* \"--CODEGEN--\":20:32   */\n      revert\n        /* \"--CODEGEN--\":5:7   */\n    tag_33:\n        /* \"Project-1-AuctionPlatform/AuctionPlatform.sol\":5053:5242  function getMinBidValOfAuction(uint256 _aucId)... */\n      pop\n      tag_34\n      0x4\n      dup1\n      calldatasize\n      sub\n      dup2\n      add\n      swap1\n      dup1\n      dup1\n      calldataload\n      swap1\n      0x20\n      add\n      swap1\n      swap3\n      swap2\n      swap1\n      pop\n      pop\n      pop\n      jump(tag_35)\n    tag_34:\n      mload(0x40)\n      dup1\n      dup3\n      dup2\n      mstore\n      0x20\n      add\n      swap2\n      pop\n      pop\n      mload(0x40)\n      dup1\n      swap2\n      sub\n      swap1\n      return\n        /* \"Project-1-AuctionPlatform/AuctionPlatform.sol\":3771:4968  function getListOfActiveAuctions() public view returns (uint256[]) {... */\n    tag_8:\n      callvalue\n        /* \"--CODEGEN--\":8:17   */\n      dup1\n        /* \"--CODEGEN--\":5:7   */\n      iszero\n      tag_36\n      jumpi\n        /* \"--CODEGEN--\":30:31   */\n      0x0\n        /* \"--CODEGEN--\":27:28   */\n      dup1\n        /* \"--CODEGEN--\":20:32   */\n      revert\n        /* \"--CODEGEN--\":5:7   */\n    tag_36:\n        /* \"Project-1-AuctionPlatform/AuctionPlatform.sol\":3771:4968  function getListOfActiveAuctions() public view returns (uint256[]) {... */\n      pop\n      tag_37\n      jump(tag_38)\n    tag_37:\n      mload(0x40)\n      dup1\n      dup1\n      0x20\n      add\n      dup3\n      dup2\n      sub\n      dup3\n      mstore\n      dup4\n      dup2\n      dup2\n      mload\n      dup2\n      mstore\n      0x20\n      add\n      swap2\n      pop\n      dup1\n      mload\n      swap1\n      0x20\n      add\n      swap1\n      0x20\n      mul\n      dup1\n      dup4\n      dup4\n        /* \"--CODEGEN--\":23:24   */\n      0x0\n        /* \"--CODEGEN--\":8:108   */\n    tag_39:\n        /* \"--CODEGEN--\":33:36   */\n      dup4\n        /* \"--CODEGEN--\":30:31   */\n      dup2\n        /* \"--CODEGEN--\":27:37   */\n      lt\n        /* \"--CODEGEN--\":8:108   */\n      iszero\n      tag_40\n      jumpi\n        /* \"--CODEGEN--\":99:100   */\n      dup1\n        /* \"--CODEGEN--\":94:97   */\n      dup3\n        /* \"--CODEGEN--\":90:101   */\n      add\n        /* \"--CODEGEN--\":84:102   */\n      mload\n        /* \"--CODEGEN--\":80:81   */\n      dup2\n        /* \"--CODEGEN--\":75:78   */\n      dup5\n        /* \"--CODEGEN--\":71:82   */\n      add\n        /* \"--CODEGEN--\":64:103   */\n      mstore\n        /* \"--CODEGEN--\":52:54   */\n      0x20\n        /* \"--CODEGEN--\":49:50   */\n      dup2\n        /* \"--CODEGEN--\":45:55   */\n      add\n        /* \"--CODEGEN--\":40:55   */\n      swap1\n      pop\n        /* \"--CODEGEN--\":8:108   */\n      jump(tag_39)\n    tag_40:\n        /* \"--CODEGEN--\":12:26   */\n      pop\n        /* \"Project-1-AuctionPlatform/AuctionPlatform.sol\":3771:4968  function getListOfActiveAuctions() public view returns (uint256[]) {... */\n      pop\n      pop\n      pop\n      swap1\n      pop\n      add\n      swap3\n      pop\n      pop\n      pop\n      mload(0x40)\n      dup1\n      swap2\n      sub\n      swap1\n      return\n        /* \"Project-1-AuctionPlatform/AuctionPlatform.sol\":1987:2535  function getAuctionStartTime(uint256 _aucId)... */\n    tag_9:\n      callvalue\n        /* \"--CODEGEN--\":8:17   */\n      dup1\n        /* \"--CODEGEN--\":5:7   */\n      iszero\n      tag_42\n      jumpi\n        /* \"--CODEGEN--\":30:31   */\n      0x0\n        /* \"--CODEGEN--\":27:28   */\n      dup1\n        /* \"--CODEGEN--\":20:32   */\n      revert\n        /* \"--CODEGEN--\":5:7   */\n    tag_42:\n        /* \"Project-1-AuctionPlatform/AuctionPlatform.sol\":1987:2535  function getAuctionStartTime(uint256 _aucId)... */\n      pop\n      tag_43\n      0x4\n      dup1\n      calldatasize\n      sub\n      dup2\n      add\n      swap1\n      dup1\n      dup1\n      calldataload\n      swap1\n      0x20\n      add\n      swap1\n      swap3\n      swap2\n      swap1\n      pop\n      pop\n      pop\n      jump(tag_44)\n    tag_43:\n      mload(0x40)\n      dup1\n      dup5\n      dup2\n      mstore\n      0x20\n      add\n      dup4\n      dup2\n      mstore\n      0x20\n      add\n      dup3\n      dup2\n      mstore\n      0x20\n      add\n      swap4\n      pop\n      pop\n      pop\n      pop\n      mload(0x40)\n      dup1\n      swap2\n      sub\n      swap1\n      return\n        /* \"Project-1-AuctionPlatform/AuctionPlatform.sol\":2618:3159  function getAuctionEndTime(uint256 _aucId)... */\n    tag_10:\n      callvalue\n        /* \"--CODEGEN--\":8:17   */\n      dup1\n        /* \"--CODEGEN--\":5:7   */\n      iszero\n      tag_45\n      jumpi\n        /* \"--CODEGEN--\":30:31   */\n      0x0\n        /* \"--CODEGEN--\":27:28   */\n      dup1\n        /* \"--CODEGEN--\":20:32   */\n      revert\n        /* \"--CODEGEN--\":5:7   */\n    tag_45:\n        /* \"Project-1-AuctionPlatform/AuctionPlatform.sol\":2618:3159  function getAuctionEndTime(uint256 _aucId)... */\n      pop\n      tag_46\n      0x4\n      dup1\n      calldatasize\n      sub\n      dup2\n      add\n      swap1\n      dup1\n      dup1\n      calldataload\n      swap1\n      0x20\n      add\n      swap1\n      swap3\n      swap2\n      swap1\n      pop\n      pop\n      pop\n      jump(tag_47)\n    tag_46:\n      mload(0x40)\n      dup1\n      dup5\n      dup2\n      mstore\n      0x20\n      add\n      dup4\n      dup2\n      mstore\n      0x20\n      add\n      dup3\n      dup2\n      mstore\n      0x20\n      add\n      swap4\n      pop\n      pop\n      pop\n      pop\n      mload(0x40)\n      dup1\n      swap2\n      sub\n      swap1\n      return\n        /* \"Project-1-AuctionPlatform/AuctionPlatform.sol\":7639:8512  function bidOnAuction(uint256 _aucId, uint256 _bidVal)... */\n    tag_11:\n      callvalue\n        /* \"--CODEGEN--\":8:17   */\n      dup1\n        /* \"--CODEGEN--\":5:7   */\n      iszero\n      tag_48\n      jumpi\n        /* \"--CODEGEN--\":30:31   */\n      0x0\n        /* \"--CODEGEN--\":27:28   */\n      dup1\n        /* \"--CODEGEN--\":20:32   */\n      revert\n        /* \"--CODEGEN--\":5:7   */\n    tag_48:\n        /* \"Project-1-AuctionPlatform/AuctionPlatform.sol\":7639:8512  function bidOnAuction(uint256 _aucId, uint256 _bidVal)... */\n      pop\n      tag_49\n      0x4\n      dup1\n      calldatasize\n      sub\n      dup2\n      add\n      swap1\n      dup1\n      dup1\n      calldataload\n      swap1\n      0x20\n      add\n      swap1\n      swap3\n      swap2\n      swap1\n      dup1\n      calldataload\n      swap1\n      0x20\n      add\n      swap1\n      swap3\n      swap2\n      swap1\n      pop\n      pop\n      pop\n      jump(tag_50)\n    tag_49:\n      stop\n        /* \"Project-1-AuctionPlatform/AuctionPlatform.sol\":1707:1904  function getAuctionDescription(uint256 _aucId)... */\n    tag_12:\n      callvalue\n        /* \"--CODEGEN--\":8:17   */\n      dup1\n        /* \"--CODEGEN--\":5:7   */\n      iszero\n      tag_51\n      jumpi\n        /* \"--CODEGEN--\":30:31   */\n      0x0\n        /* \"--CODEGEN--\":27:28   */\n      dup1\n        /* \"--CODEGEN--\":20:32   */\n      revert\n        /* \"--CODEGEN--\":5:7   */\n    tag_51:\n        /* \"Project-1-AuctionPlatform/AuctionPlatform.sol\":1707:1904  function getAuctionDescription(uint256 _aucId)... */\n      pop\n      tag_52\n      0x4\n      dup1\n      calldatasize\n      sub\n      dup2\n      add\n      swap1\n      dup1\n      dup1\n      calldataload\n      swap1\n      0x20\n      add\n      swap1\n      swap3\n      swap2\n      swap1\n      pop\n      pop\n      pop\n      jump(tag_53)\n    tag_52:\n      mload(0x40)\n      dup1\n      dup1\n      0x20\n      add\n      dup3\n      dup2\n      sub\n      dup3\n      mstore\n      dup4\n      dup2\n      dup2\n      mload\n      dup2\n      mstore\n      0x20\n      add\n      swap2\n      pop\n      dup1\n      mload\n      swap1\n      0x20\n      add\n      swap1\n      dup1\n      dup4\n      dup4\n        /* \"--CODEGEN--\":23:24   */\n      0x0\n        /* \"--CODEGEN--\":8:108   */\n    tag_54:\n        /* \"--CODEGEN--\":33:36   */\n      dup4\n        /* \"--CODEGEN--\":30:31   */\n      dup2\n        /* \"--CODEGEN--\":27:37   */\n      lt\n        /* \"--CODEGEN--\":8:108   */\n      iszero\n      tag_55\n      jumpi\n        /* \"--CODEGEN--\":99:100   */\n      dup1\n        /* \"--CODEGEN--\":94:97   */\n      dup3\n        /* \"--CODEGEN--\":90:101   */\n      add\n        /* \"--CODEGEN--\":84:102   */\n      mload\n        /* \"--CODEGEN--\":80:81   */\n      dup2\n        /* \"--CODEGEN--\":75:78   */\n      dup5\n        /* \"--CODEGEN--\":71:82   */\n      add\n        /* \"--CODEGEN--\":64:103   */\n      mstore\n        /* \"--CODEGEN--\":52:54   */\n      0x20\n        /* \"--CODEGEN--\":49:50   */\n      dup2\n        /* \"--CODEGEN--\":45:55   */\n      add\n        /* \"--CODEGEN--\":40:55   */\n      swap1\n      pop\n        /* \"--CODEGEN--\":8:108   */\n      jump(tag_54)\n    tag_55:\n        /* \"--CODEGEN--\":12:26   */\n      pop\n        /* \"Project-1-AuctionPlatform/AuctionPlatform.sol\":1707:1904  function getAuctionDescription(uint256 _aucId)... */\n      pop\n      pop\n      pop\n      swap1\n      pop\n      swap1\n      dup2\n      add\n      swap1\n      0x1f\n      and\n      dup1\n      iszero\n      tag_57\n      jumpi\n      dup1\n      dup3\n      sub\n      dup1\n      mload\n      0x1\n      dup4\n      0x20\n      sub\n      0x100\n      exp\n      sub\n      not\n      and\n      dup2\n      mstore\n      0x20\n      add\n      swap2\n      pop\n    tag_57:\n      pop\n      swap3\n      pop\n      pop\n      pop\n      mload(0x40)\n      dup1\n      swap2\n      sub\n      swap1\n      return\n        /* \"Project-1-AuctionPlatform/AuctionPlatform.sol\":7278:7560  function endAuction(uint256 _bid) public ifAuctionOwner {... */\n    tag_13:\n      callvalue\n        /* \"--CODEGEN--\":8:17   */\n      dup1\n        /* \"--CODEGEN--\":5:7   */\n      iszero\n      tag_58\n      jumpi\n        /* \"--CODEGEN--\":30:31   */\n      0x0\n        /* \"--CODEGEN--\":27:28   */\n      dup1\n        /* \"--CODEGEN--\":20:32   */\n      revert\n        /* \"--CODEGEN--\":5:7   */\n    tag_58:\n        /* \"Project-1-AuctionPlatform/AuctionPlatform.sol\":7278:7560  function endAuction(uint256 _bid) public ifAuctionOwner {... */\n      pop\n      tag_59\n      0x4\n      dup1\n      calldatasize\n      sub\n      dup2\n      add\n      swap1\n      dup1\n      dup1\n      calldataload\n      swap1\n      0x20\n      add\n      swap1\n      swap3\n      swap2\n      swap1\n      pop\n      pop\n      pop\n      jump(tag_60)\n    tag_59:\n      stop\n        /* \"Project-1-AuctionPlatform/AuctionPlatform.sol\":3567:3681  function getListOfOwnBids() public view ifBidded returns (uint256[]) {... */\n    tag_14:\n      callvalue\n        /* \"--CODEGEN--\":8:17   */\n      dup1\n        /* \"--CODEGEN--\":5:7   */\n      iszero\n      tag_61\n      jumpi\n        /* \"--CODEGEN--\":30:31   */\n      0x0\n        /* \"--CODEGEN--\":27:28   */\n      dup1\n        /* \"--CODEGEN--\":20:32   */\n      revert\n        /* \"--CODEGEN--\":5:7   */\n    tag_61:\n        /* \"Project-1-AuctionPlatform/AuctionPlatform.sol\":3567:3681  function getListOfOwnBids() public view ifBidded returns (uint256[]) {... */\n      pop\n      tag_62\n      jump(tag_63)\n    tag_62:\n      mload(0x40)\n      dup1\n      dup1\n      0x20\n      add\n      dup3\n      dup2\n      sub\n      dup3\n      mstore\n      dup4\n      dup2\n      dup2\n      mload\n      dup2\n      mstore\n      0x20\n      add\n      swap2\n      pop\n      dup1\n      mload\n      swap1\n      0x20\n      add\n      swap1\n      0x20\n      mul\n      dup1\n      dup4\n      dup4\n        /* \"--CODEGEN--\":23:24   */\n      0x0\n        /* \"--CODEGEN--\":8:108   */\n    tag_64:\n        /* \"--CODEGEN--\":33:36   */\n      dup4\n        /* \"--CODEGEN--\":30:31   */\n      dup2\n        /* \"--CODEGEN--\":27:37   */\n      lt\n        /* \"--CODEGEN--\":8:108   */\n      iszero\n      tag_65\n      jumpi\n        /* \"--CODEGEN--\":99:100   */\n      dup1\n        /* \"--CODEGEN--\":94:97   */\n      dup3\n        /* \"--CODEGEN--\":90:101   */\n      add\n        /* \"--CODEGEN--\":84:102   */\n      mload\n        /* \"--CODEGEN--\":80:81   */\n      dup2\n        /* \"--CODEGEN--\":75:78   */\n      dup5\n        /* \"--CODEGEN--\":71:82   */\n      add\n        /* \"--CODEGEN--\":64:103   */\n      mstore\n        /* \"--CODEGEN--\":52:54   */\n      0x20\n        /* \"--CODEGEN--\":49:50   */\n      dup2\n        /* \"--CODEGEN--\":45:55   */\n      add\n        /* \"--CODEGEN--\":40:55   */\n      swap1\n      pop\n        /* \"--CODEGEN--\":8:108   */\n      jump(tag_64)\n    tag_65:\n        /* \"--CODEGEN--\":12:26   */\n      pop\n        /* \"Project-1-AuctionPlatform/AuctionPlatform.sol\":3567:3681  function getListOfOwnBids() public view ifBidded returns (uint256[]) {... */\n      pop\n      pop\n      pop\n      swap1\n      pop\n      add\n      swap3\n      pop\n      pop\n      pop\n      mload(0x40)\n      dup1\n      swap2\n      sub\n      swap1\n      return\n        /* \"Project-1-AuctionPlatform/AuctionPlatform.sol\":8793:11511  function createAuction(... */\n    tag_15:\n      callvalue\n        /* \"--CODEGEN--\":8:17   */\n      dup1\n        /* \"--CODEGEN--\":5:7   */\n      iszero\n      tag_67\n      jumpi\n        /* \"--CODEGEN--\":30:31   */\n      0x0\n        /* \"--CODEGEN--\":27:28   */\n      dup1\n        /* \"--CODEGEN--\":20:32   */\n      revert\n        /* \"--CODEGEN--\":5:7   */\n    tag_67:\n        /* \"Project-1-AuctionPlatform/AuctionPlatform.sol\":8793:11511  function createAuction(... */\n      pop\n      tag_68\n      0x4\n      dup1\n      calldatasize\n      sub\n      dup2\n      add\n      swap1\n      dup1\n      dup1\n      calldataload\n      swap1\n      0x20\n      add\n      swap1\n      dup3\n      add\n      dup1\n      calldataload\n      swap1\n      0x20\n      add\n      swap1\n      dup1\n      dup1\n      0x1f\n      add\n      0x20\n      dup1\n      swap2\n      div\n      mul\n      0x20\n      add\n      mload(0x40)\n      swap1\n      dup2\n      add\n      0x40\n      mstore\n      dup1\n      swap4\n      swap3\n      swap2\n      swap1\n      dup2\n      dup2\n      mstore\n      0x20\n      add\n      dup4\n      dup4\n      dup1\n      dup3\n      dup5\n      calldatacopy\n      dup3\n      add\n      swap2\n      pop\n      pop\n      pop\n      pop\n      pop\n      pop\n      swap2\n      swap3\n      swap2\n      swap3\n      swap1\n      dup1\n      calldataload\n      swap1\n      0x20\n      add\n      swap1\n      swap3\n      swap2\n      swap1\n      dup1\n      calldataload\n      swap1\n      0x20\n      add\n      swap1\n      swap3\n      swap2\n      swap1\n      dup1\n      calldataload\n      swap1\n      0x20\n      add\n      swap1\n      swap3\n      swap2\n      swap1\n      dup1\n      calldataload\n      swap1\n      0x20\n      add\n      swap1\n      swap3\n      swap2\n      swap1\n      dup1\n      calldataload\n      swap1\n      0x20\n      add\n      swap1\n      swap3\n      swap2\n      swap1\n      dup1\n      calldataload\n      swap1\n      0x20\n      add\n      swap1\n      swap3\n      swap2\n      swap1\n      dup1\n      calldataload\n      swap1\n      0x20\n      add\n      swap1\n      swap3\n      swap2\n      swap1\n      pop\n      pop\n      pop\n      jump(tag_69)\n    tag_68:\n      stop\n        /* \"Project-1-AuctionPlatform/AuctionPlatform.sol\":3257:3467  function getListOfBidsOnAuction()... */\n    tag_16:\n      callvalue\n        /* \"--CODEGEN--\":8:17   */\n      dup1\n        /* \"--CODEGEN--\":5:7   */\n      iszero\n      tag_70\n      jumpi\n        /* \"--CODEGEN--\":30:31   */\n      0x0\n        /* \"--CODEGEN--\":27:28   */\n      dup1\n        /* \"--CODEGEN--\":20:32   */\n      revert\n        /* \"--CODEGEN--\":5:7   */\n    tag_70:\n        /* \"Project-1-AuctionPlatform/AuctionPlatform.sol\":3257:3467  function getListOfBidsOnAuction()... */\n      pop\n      tag_71\n      jump(tag_72)\n    tag_71:\n      mload(0x40)\n      dup1\n      dup1\n      0x20\n      add\n      dup3\n      dup2\n      sub\n      dup3\n      mstore\n      dup4\n      dup2\n      dup2\n      mload\n      dup2\n      mstore\n      0x20\n      add\n      swap2\n      pop\n      dup1\n      mload\n      swap1\n      0x20\n      add\n      swap1\n      0x20\n      mul\n      dup1\n      dup4\n      dup4\n        /* \"--CODEGEN--\":23:24   */\n      0x0\n        /* \"--CODEGEN--\":8:108   */\n    tag_73:\n        /* \"--CODEGEN--\":33:36   */\n      dup4\n        /* \"--CODEGEN--\":30:31   */\n      dup2\n        /* \"--CODEGEN--\":27:37   */\n      lt\n        /* \"--CODEGEN--\":8:108   */\n      iszero\n      tag_74\n      jumpi\n        /* \"--CODEGEN--\":99:100   */\n      dup1\n        /* \"--CODEGEN--\":94:97   */\n      dup3\n        /* \"--CODEGEN--\":90:101   */\n      add\n        /* \"--CODEGEN--\":84:102   */\n      mload\n        /* \"--CODEGEN--\":80:81   */\n      dup2\n        /* \"--CODEGEN--\":75:78   */\n      dup5\n        /* \"--CODEGEN--\":71:82   */\n      add\n        /* \"--CODEGEN--\":64:103   */\n      mstore\n        /* \"--CODEGEN--\":52:54   */\n      0x20\n        /* \"--CODEGEN--\":49:50   */\n      dup2\n        /* \"--CODEGEN--\":45:55   */\n      add\n        /* \"--CODEGEN--\":40:55   */\n      swap1\n      pop\n        /* \"--CODEGEN--\":8:108   */\n      jump(tag_73)\n    tag_74:\n        /* \"--CODEGEN--\":12:26   */\n      pop\n        /* \"Project-1-AuctionPlatform/AuctionPlatform.sol\":3257:3467  function getListOfBidsOnAuction()... */\n      pop\n      pop\n      pop\n      swap1\n      pop\n      add\n      swap3\n      pop\n      pop\n      pop\n      mload(0x40)\n      dup1\n      swap2\n      sub\n      swap1\n      return\n        /* \"Project-1-AuctionPlatform/AuctionPlatform.sol\":6511:7123  function endAuction() public ifAuctionOwner returns (address) {... */\n    tag_17:\n      callvalue\n        /* \"--CODEGEN--\":8:17   */\n      dup1\n        /* \"--CODEGEN--\":5:7   */\n      iszero\n      tag_76\n      jumpi\n        /* \"--CODEGEN--\":30:31   */\n      0x0\n        /* \"--CODEGEN--\":27:28   */\n      dup1\n        /* \"--CODEGEN--\":20:32   */\n      revert\n        /* \"--CODEGEN--\":5:7   */\n    tag_76:\n        /* \"Project-1-AuctionPlatform/AuctionPlatform.sol\":6511:7123  function endAuction() public ifAuctionOwner returns (address) {... */\n      pop\n      tag_77\n      jump(tag_78)\n    tag_77:\n      mload(0x40)\n      dup1\n      dup3\n      0xffffffffffffffffffffffffffffffffffffffff\n      and\n      0xffffffffffffffffffffffffffffffffffffffff\n      and\n      dup2\n      mstore\n      0x20\n      add\n      swap2\n      pop\n      pop\n      mload(0x40)\n      dup1\n      swap2\n      sub\n      swap1\n      return\n        /* \"Project-1-AuctionPlatform/AuctionPlatform.sol\":410:434  uint256 public aucId = 0 */\n    tag_20:\n      sload(0x0)\n      dup2\n      jump\t// out\n        /* \"Project-1-AuctionPlatform/AuctionPlatform.sol\":5319:5524  function getBidValOnAuction(uint256 _aucId)... */\n    tag_23:\n        /* \"Project-1-AuctionPlatform/AuctionPlatform.sol\":5451:5458  uint256 */\n      0x0\n        /* \"Project-1-AuctionPlatform/AuctionPlatform.sol\":12642:12643  0 */\n      dup1\n        /* \"Project-1-AuctionPlatform/AuctionPlatform.sol\":12610:12619  bidOwners */\n      0x3\n        /* \"Project-1-AuctionPlatform/AuctionPlatform.sol\":12610:12631  bidOwners[msg.sender] */\n      0x0\n        /* \"Project-1-AuctionPlatform/AuctionPlatform.sol\":12620:12630  msg.sender */\n      caller\n        /* \"Project-1-AuctionPlatform/AuctionPlatform.sol\":12610:12631  bidOwners[msg.sender] */\n      0xffffffffffffffffffffffffffffffffffffffff\n      and\n      0xffffffffffffffffffffffffffffffffffffffff\n      and\n      dup2\n      mstore\n      0x20\n      add\n      swap1\n      dup2\n      mstore\n      0x20\n      add\n      0x0\n      keccak256\n        /* \"Project-1-AuctionPlatform/AuctionPlatform.sol\":12610:12638  bidOwners[msg.sender].length */\n      dup1\n      sload\n      swap1\n      pop\n        /* \"Project-1-AuctionPlatform/AuctionPlatform.sol\":12610:12643  bidOwners[msg.sender].length != 0 */\n      eq\n      iszero\n        /* \"Project-1-AuctionPlatform/AuctionPlatform.sol\":12602:12671  require(bidOwners[msg.sender].length != 0, \"You don't have any Bids\") */\n      iszero\n      iszero\n      tag_80\n      jumpi\n      mload(0x40)\n      0x8c379a000000000000000000000000000000000000000000000000000000000\n      dup2\n      mstore\n      0x4\n      add\n      dup1\n      dup1\n      0x20\n      add\n      dup3\n      dup2\n      sub\n      dup3\n      mstore\n      0x17\n      dup2\n      mstore\n      0x20\n      add\n      dup1\n      0x596f7520646f6e2774206861766520616e792042696473000000000000000000\n      dup2\n      mstore\n      pop\n      0x20\n      add\n      swap2\n      pop\n      pop\n      mload(0x40)\n      dup1\n      swap2\n      sub\n      swap1\n      revert\n    tag_80:\n        /* \"Project-1-AuctionPlatform/AuctionPlatform.sol\":5426:5432  _aucId */\n      dup2\n        /* \"Project-1-AuctionPlatform/AuctionPlatform.sol\":11919:11924  aucId */\n      sload(0x0)\n        /* \"Project-1-AuctionPlatform/AuctionPlatform.sol\":11909:11915  _aucId */\n      dup2\n        /* \"Project-1-AuctionPlatform/AuctionPlatform.sol\":11909:11924  _aucId <= aucId */\n      gt\n      iszero\n        /* \"Project-1-AuctionPlatform/AuctionPlatform.sol\":11909:11994  _aucId <= aucId &&... */\n      dup1\n      iszero\n      tag_82\n      jumpi\n      pop\n        /* \"Project-1-AuctionPlatform/AuctionPlatform.sol\":11979:11994  block.timestamp */\n      timestamp\n        /* \"Project-1-AuctionPlatform/AuctionPlatform.sol\":11944:11955  auctionList */\n      0x1\n        /* \"Project-1-AuctionPlatform/AuctionPlatform.sol\":11956:11962  _aucId */\n      dup3\n        /* \"Project-1-AuctionPlatform/AuctionPlatform.sol\":11944:11963  auctionList[_aucId] */\n      dup2\n      sload\n      dup2\n      lt\n      iszero\n      iszero\n      tag_83\n      jumpi\n      invalid\n    tag_83:\n      swap1\n      0x0\n      mstore\n      keccak256(0x0, 0x20)\n      add\n      0x0\n      swap1\n      sload\n      swap1\n      0x100\n      exp\n      swap1\n      div\n      0xffffffffffffffffffffffffffffffffffffffff\n      and\n        /* \"Project-1-AuctionPlatform/AuctionPlatform.sol\":11944:11974  auctionList[_aucId].getEndTime */\n      0xffffffffffffffffffffffffffffffffffffffff\n      and\n      0x439f5ac2\n        /* \"Project-1-AuctionPlatform/AuctionPlatform.sol\":11944:11976  auctionList[_aucId].getEndTime() */\n      mload(0x40)\n      dup2\n      0xffffffff\n      and\n      0x100000000000000000000000000000000000000000000000000000000\n      mul\n      dup2\n      mstore\n      0x4\n      add\n      0x20\n      mload(0x40)\n      dup1\n      dup4\n      sub\n      dup2\n      0x0\n      dup8\n      dup1\n      extcodesize\n      iszero\n        /* \"--CODEGEN--\":8:17   */\n      dup1\n        /* \"--CODEGEN--\":5:7   */\n      iszero\n      tag_85\n      jumpi\n        /* \"--CODEGEN--\":30:31   */\n      0x0\n        /* \"--CODEGEN--\":27:28   */\n      dup1\n        /* \"--CODEGEN--\":20:32   */\n      revert\n        /* \"--CODEGEN--\":5:7   */\n    tag_85:\n        /* \"Project-1-AuctionPlatform/AuctionPlatform.sol\":11944:11976  auctionList[_aucId].getEndTime() */\n      pop\n      gas\n      call\n      iszero\n        /* \"--CODEGEN--\":8:17   */\n      dup1\n        /* \"--CODEGEN--\":5:7   */\n      iszero\n      tag_86\n      jumpi\n        /* \"--CODEGEN--\":45:61   */\n      returndatasize\n        /* \"--CODEGEN--\":42:43   */\n      0x0\n        /* \"--CODEGEN--\":39:40   */\n      dup1\n        /* \"--CODEGEN--\":24:62   */\n      returndatacopy\n        /* \"--CODEGEN--\":77:93   */\n      returndatasize\n        /* \"--CODEGEN--\":74:75   */\n      0x0\n        /* \"--CODEGEN--\":67:94   */\n      revert\n        /* \"--CODEGEN--\":5:7   */\n    tag_86:\n        /* \"Project-1-AuctionPlatform/AuctionPlatform.sol\":11944:11976  auctionList[_aucId].getEndTime() */\n      pop\n      pop\n      pop\n      pop\n      mload(0x40)\n      returndatasize\n        /* \"--CODEGEN--\":13:15   */\n      0x20\n        /* \"--CODEGEN--\":8:11   */\n      dup2\n        /* \"--CODEGEN--\":5:16   */\n      lt\n        /* \"--CODEGEN--\":2:4   */\n      iszero\n      tag_87\n      jumpi\n        /* \"--CODEGEN--\":29:30   */\n      0x0\n        /* \"--CODEGEN--\":26:27   */\n      dup1\n        /* \"--CODEGEN--\":19:31   */\n      revert\n        /* \"--CODEGEN--\":2:4   */\n    tag_87:\n        /* \"Project-1-AuctionPlatform/AuctionPlatform.sol\":11944:11976  auctionList[_aucId].getEndTime() */\n      dup2\n      add\n      swap1\n      dup1\n      dup1\n      mload\n      swap1\n      0x20\n      add\n      swap1\n      swap3\n      swap2\n      swap1\n      pop\n      pop\n      pop\n        /* \"Project-1-AuctionPlatform/AuctionPlatform.sol\":11944:11994  auctionList[_aucId].getEndTime() > block.timestamp */\n      gt\n        /* \"Project-1-AuctionPlatform/AuctionPlatform.sol\":11909:11994  _aucId <= aucId &&... */\n    tag_82:\n        /* \"Project-1-AuctionPlatform/AuctionPlatform.sol\":11888:12054  require(... */\n      iszero\n      iszero\n      tag_88\n      jumpi\n      mload(0x40)\n      0x8c379a000000000000000000000000000000000000000000000000000000000\n      dup2\n      mstore\n      0x4\n      add\n      dup1\n      dup1\n      0x20\n      add\n      dup3\n      dup2\n      sub\n      dup3\n      mstore\n      0x22\n      dup2\n      mstore\n      0x20\n      add\n      dup1\n      0x41756374696f6e20697320496e616374697665206f72206e6f74207072657365\n      dup2\n      mstore\n      0x20\n      add\n      0x6e74000000000000000000000000000000000000000000000000000000000000\n      dup2\n      mstore\n      pop\n      0x40\n      add\n      swap2\n      pop\n      pop\n      mload(0x40)\n      dup1\n      swap2\n      sub\n      swap1\n      revert\n    tag_88:\n        /* \"Project-1-AuctionPlatform/AuctionPlatform.sol\":5481:5492  auctionList */\n      0x1\n        /* \"Project-1-AuctionPlatform/AuctionPlatform.sol\":5493:5499  _aucId */\n      dup4\n        /* \"Project-1-AuctionPlatform/AuctionPlatform.sol\":5481:5500  auctionList[_aucId] */\n      dup2\n      sload\n      dup2\n      lt\n      iszero\n      iszero\n      tag_90\n      jumpi\n      invalid\n    tag_90:\n      swap1\n      0x0\n      mstore\n      keccak256(0x0, 0x20)\n      add\n      0x0\n      swap1\n      sload\n      swap1\n      0x100\n      exp\n      swap1\n      div\n      0xffffffffffffffffffffffffffffffffffffffff\n      and\n        /* \"Project-1-AuctionPlatform/AuctionPlatform.sol\":5481:5505  auctionList[_aucId].bids */\n      0xffffffffffffffffffffffffffffffffffffffff\n      and\n      0x62ea82db\n        /* \"Project-1-AuctionPlatform/AuctionPlatform.sol\":5506:5516  msg.sender */\n      caller\n        /* \"Project-1-AuctionPlatform/AuctionPlatform.sol\":5481:5517  auctionList[_aucId].bids(msg.sender) */\n      mload(0x40)\n      dup3\n      0xffffffff\n      and\n      0x100000000000000000000000000000000000000000000000000000000\n      mul\n      dup2\n      mstore\n      0x4\n      add\n      dup1\n      dup3\n      0xffffffffffffffffffffffffffffffffffffffff\n      and\n      0xffffffffffffffffffffffffffffffffffffffff\n      and\n      dup2\n      mstore\n      0x20\n      add\n      swap2\n      pop\n      pop\n      0x20\n      mload(0x40)\n      dup1\n      dup4\n      sub\n      dup2\n      0x0\n      dup8\n      dup1\n      extcodesize\n      iszero\n        /* \"--CODEGEN--\":8:17   */\n      dup1\n        /* \"--CODEGEN--\":5:7   */\n      iszero\n      tag_92\n      jumpi\n        /* \"--CODEGEN--\":30:31   */\n      0x0\n        /* \"--CODEGEN--\":27:28   */\n      dup1\n        /* \"--CODEGEN--\":20:32   */\n      revert\n        /* \"--CODEGEN--\":5:7   */\n    tag_92:\n        /* \"Project-1-AuctionPlatform/AuctionPlatform.sol\":5481:5517  auctionList[_aucId].bids(msg.sender) */\n      pop\n      gas\n      call\n      iszero\n        /* \"--CODEGEN--\":8:17   */\n      dup1\n        /* \"--CODEGEN--\":5:7   */\n      iszero\n      tag_93\n      jumpi\n        /* \"--CODEGEN--\":45:61   */\n      returndatasize\n        /* \"--CODEGEN--\":42:43   */\n      0x0\n        /* \"--CODEGEN--\":39:40   */\n      dup1\n        /* \"--CODEGEN--\":24:62   */\n      returndatacopy\n        /* \"--CODEGEN--\":77:93   */\n      returndatasize\n        /* \"--CODEGEN--\":74:75   */\n      0x0\n        /* \"--CODEGEN--\":67:94   */\n      revert\n        /* \"--CODEGEN--\":5:7   */\n    tag_93:\n        /* \"Project-1-AuctionPlatform/AuctionPlatform.sol\":5481:5517  auctionList[_aucId].bids(msg.sender) */\n      pop\n      pop\n      pop\n      pop\n      mload(0x40)\n      returndatasize\n        /* \"--CODEGEN--\":13:15   */\n      0x20\n        /* \"--CODEGEN--\":8:11   */\n      dup2\n        /* \"--CODEGEN--\":5:16   */\n      lt\n        /* \"--CODEGEN--\":2:4   */\n      iszero\n      tag_94\n      jumpi\n        /* \"--CODEGEN--\":29:30   */\n      0x0\n        /* \"--CODEGEN--\":26:27   */\n      dup1\n        /* \"--CODEGEN--\":19:31   */\n      revert\n        /* \"--CODEGEN--\":2:4   */\n    tag_94:\n        /* \"Project-1-AuctionPlatform/AuctionPlatform.sol\":5481:5517  auctionList[_aucId].bids(msg.sender) */\n      dup2\n      add\n      swap1\n      dup1\n      dup1\n      mload\n      swap1\n      0x20\n      add\n      swap1\n      swap3\n      swap2\n      swap1\n      pop\n      pop\n      pop\n        /* \"Project-1-AuctionPlatform/AuctionPlatform.sol\":5474:5517  return auctionList[_aucId].bids(msg.sender) */\n      swap2\n      pop\n        /* \"Project-1-AuctionPlatform/AuctionPlatform.sol\":12681:12682  _ */\n      pop\n        /* \"Project-1-AuctionPlatform/AuctionPlatform.sol\":5319:5524  function getBidValOnAuction(uint256 _aucId)... */\n      swap2\n      swap1\n      pop\n      jump\t// out\n        /* \"Project-1-AuctionPlatform/AuctionPlatform.sol\":8518:8787  function updateBid(uint256 _aucId, uint256 _bidVal)... */\n    tag_26:\n        /* \"Project-1-AuctionPlatform/AuctionPlatform.sol\":8603:8609  _aucId */\n      dup2\n        /* \"Project-1-AuctionPlatform/AuctionPlatform.sol\":11919:11924  aucId */\n      sload(0x0)\n        /* \"Project-1-AuctionPlatform/AuctionPlatform.sol\":11909:11915  _aucId */\n      dup2\n        /* \"Project-1-AuctionPlatform/AuctionPlatform.sol\":11909:11924  _aucId <= aucId */\n      gt\n      iszero\n        /* \"Project-1-AuctionPlatform/AuctionPlatform.sol\":11909:11994  _aucId <= aucId &&... */\n      dup1\n      iszero\n      tag_96\n      jumpi\n      pop\n        /* \"Project-1-AuctionPlatform/AuctionPlatform.sol\":11979:11994  block.timestamp */\n      timestamp\n        /* \"Project-1-AuctionPlatform/AuctionPlatform.sol\":11944:11955  auctionList */\n      0x1\n        /* \"Project-1-AuctionPlatform/AuctionPlatform.sol\":11956:11962  _aucId */\n      dup3\n        /* \"Project-1-AuctionPlatform/AuctionPlatform.sol\":11944:11963  auctionList[_aucId] */\n      dup2\n      sload\n      dup2\n      lt\n      iszero\n      iszero\n      tag_97\n      jumpi\n      invalid\n    tag_97:\n      swap1\n      0x0\n      mstore\n      keccak256(0x0, 0x20)\n      add\n      0x0\n      swap1\n      sload\n      swap1\n      0x100\n      exp\n      swap1\n      div\n      0xffffffffffffffffffffffffffffffffffffffff\n      and\n        /* \"Project-1-AuctionPlatform/AuctionPlatform.sol\":11944:11974  auctionList[_aucId].getEndTime */\n      0xffffffffffffffffffffffffffffffffffffffff\n      and\n      0x439f5ac2\n        /* \"Project-1-AuctionPlatform/AuctionPlatform.sol\":11944:11976  auctionList[_aucId].getEndTime() */\n      mload(0x40)\n      dup2\n      0xffffffff\n      and\n      0x100000000000000000000000000000000000000000000000000000000\n      mul\n      dup2\n      mstore\n      0x4\n      add\n      0x20\n      mload(0x40)\n      dup1\n      dup4\n      sub\n      dup2\n      0x0\n      dup8\n      dup1\n      extcodesize\n      iszero\n        /* \"--CODEGEN--\":8:17   */\n      dup1\n        /* \"--CODEGEN--\":5:7   */\n      iszero\n      tag_99\n      jumpi\n        /* \"--CODEGEN--\":30:31   */\n      0x0\n        /* \"--CODEGEN--\":27:28   */\n      dup1\n        /* \"--CODEGEN--\":20:32   */\n      revert\n        /* \"--CODEGEN--\":5:7   */\n    tag_99:\n        /* \"Project-1-AuctionPlatform/AuctionPlatform.sol\":11944:11976  auctionList[_aucId].getEndTime() */\n      pop\n      gas\n      call\n      iszero\n        /* \"--CODEGEN--\":8:17   */\n      dup1\n        /* \"--CODEGEN--\":5:7   */\n      iszero\n      tag_100\n      jumpi\n        /* \"--CODEGEN--\":45:61   */\n      returndatasize\n        /* \"--CODEGEN--\":42:43   */\n      0x0\n        /* \"--CODEGEN--\":39:40   */\n      dup1\n        /* \"--CODEGEN--\":24:62   */\n      returndatacopy\n        /* \"--CODEGEN--\":77:93   */\n      returndatasize\n        /* \"--CODEGEN--\":74:75   */\n      0x0\n        /* \"--CODEGEN--\":67:94   */\n      revert\n        /* \"--CODEGEN--\":5:7   */\n    tag_100:\n        /* \"Project-1-AuctionPlatform/AuctionPlatform.sol\":11944:11976  auctionList[_aucId].getEndTime() */\n      pop\n      pop\n      pop\n      pop\n      mload(0x40)\n      returndatasize\n        /* \"--CODEGEN--\":13:15   */\n      0x20\n        /* \"--CODEGEN--\":8:11   */\n      dup2\n        /* \"--CODEGEN--\":5:16   */\n      lt\n        /* \"--CODEGEN--\":2:4   */\n      iszero\n      tag_101\n      jumpi\n        /* \"--CODEGEN--\":29:30   */\n      0x0\n        /* \"--CODEGEN--\":26:27   */\n      dup1\n        /* \"--CODEGEN--\":19:31   */\n      revert\n        /* \"--CODEGEN--\":2:4   */\n    tag_101:\n        /* \"Project-1-AuctionPlatform/AuctionPlatform.sol\":11944:11976  auctionList[_aucId].getEndTime() */\n      dup2\n      add\n      swap1\n      dup1\n      dup1\n      mload\n      swap1\n      0x20\n      add\n      swap1\n      swap3\n      swap2\n      swap1\n      pop\n      pop\n      pop\n        /* \"Project-1-AuctionPlatform/AuctionPlatform.sol\":11944:11994  auctionList[_aucId].getEndTime() > block.timestamp */\n      gt\n        /* \"Project-1-AuctionPlatform/AuctionPlatform.sol\":11909:11994  _aucId <= aucId &&... */\n    tag_96:\n        /* \"Project-1-AuctionPlatform/AuctionPlatform.sol\":11888:12054  require(... */\n      iszero\n      iszero\n      tag_102\n      jumpi\n      mload(0x40)\n      0x8c379a000000000000000000000000000000000000000000000000000000000\n      dup2\n      mstore\n      0x4\n      add\n      dup1\n      dup1\n      0x20\n      add\n      dup3\n      dup2\n      sub\n      dup3\n      mstore\n      0x22\n      dup2\n      mstore\n      0x20\n      add\n      dup1\n      0x41756374696f6e20697320496e616374697665206f72206e6f74207072657365\n      dup2\n      mstore\n      0x20\n      add\n      0x6e74000000000000000000000000000000000000000000000000000000000000\n      dup2\n      mstore\n      pop\n      0x40\n      add\n      swap2\n      pop\n      pop\n      mload(0x40)\n      dup1\n      swap2\n      sub\n      swap1\n      revert\n    tag_102:\n        /* \"Project-1-AuctionPlatform/AuctionPlatform.sol\":8625:8636  auctionList */\n      0x1\n        /* \"Project-1-AuctionPlatform/AuctionPlatform.sol\":8637:8643  _aucId */\n      dup4\n        /* \"Project-1-AuctionPlatform/AuctionPlatform.sol\":8625:8644  auctionList[_aucId] */\n      dup2\n      sload\n      dup2\n      lt\n      iszero\n      iszero\n      tag_104\n      jumpi\n      invalid\n    tag_104:\n      swap1\n      0x0\n      mstore\n      keccak256(0x0, 0x20)\n      add\n      0x0\n      swap1\n      sload\n      swap1\n      0x100\n      exp\n      swap1\n      div\n      0xffffffffffffffffffffffffffffffffffffffff\n      and\n        /* \"Project-1-AuctionPlatform/AuctionPlatform.sol\":8625:8654  auctionList[_aucId].updateBid */\n      0xffffffffffffffffffffffffffffffffffffffff\n      and\n      0x43129de1\n        /* \"Project-1-AuctionPlatform/AuctionPlatform.sol\":8655:8662  _bidVal */\n      dup4\n        /* \"Project-1-AuctionPlatform/AuctionPlatform.sol\":8625:8663  auctionList[_aucId].updateBid(_bidVal) */\n      mload(0x40)\n      dup3\n      0xffffffff\n      and\n      0x100000000000000000000000000000000000000000000000000000000\n      mul\n      dup2\n      mstore\n      0x4\n      add\n      dup1\n      dup3\n      dup2\n      mstore\n      0x20\n      add\n      swap2\n      pop\n      pop\n      0x0\n      mload(0x40)\n      dup1\n      dup4\n      sub\n      dup2\n      0x0\n      dup8\n      dup1\n      extcodesize\n      iszero\n        /* \"--CODEGEN--\":8:17   */\n      dup1\n        /* \"--CODEGEN--\":5:7   */\n      iszero\n      tag_106\n      jumpi\n        /* \"--CODEGEN--\":30:31   */\n      0x0\n        /* \"--CODEGEN--\":27:28   */\n      dup1\n        /* \"--CODEGEN--\":20:32   */\n      revert\n        /* \"--CODEGEN--\":5:7   */\n    tag_106:\n        /* \"Project-1-AuctionPlatform/AuctionPlatform.sol\":8625:8663  auctionList[_aucId].updateBid(_bidVal) */\n      pop\n      gas\n      call\n      iszero\n        /* \"--CODEGEN--\":8:17   */\n      dup1\n        /* \"--CODEGEN--\":5:7   */\n      iszero\n      tag_107\n      jumpi\n        /* \"--CODEGEN--\":45:61   */\n      returndatasize\n        /* \"--CODEGEN--\":42:43   */\n      0x0\n        /* \"--CODEGEN--\":39:40   */\n      dup1\n        /* \"--CODEGEN--\":24:62   */\n      returndatacopy\n        /* \"--CODEGEN--\":77:93   */\n      returndatasize\n        /* \"--CODEGEN--\":74:75   */\n      0x0\n        /* \"--CODEGEN--\":67:94   */\n      revert\n        /* \"--CODEGEN--\":5:7   */\n    tag_107:\n        /* \"Project-1-AuctionPlatform/AuctionPlatform.sol\":8625:8663  auctionList[_aucId].updateBid(_bidVal) */\n      pop\n      pop\n      pop\n      pop\n        /* \"Project-1-AuctionPlatform/AuctionPlatform.sol\":8773:8779  _aucId */\n      dup3\n        /* \"Project-1-AuctionPlatform/AuctionPlatform.sol\":8761:8771  msg.sender */\n      caller\n        /* \"Project-1-AuctionPlatform/AuctionPlatform.sol\":8750:8780  updatedBid(msg.sender, _aucId) */\n      0xffffffffffffffffffffffffffffffffffffffff\n      and\n      0xb722ccec10268690bf7ef3a9603076baf9b304a59def91157d4a80c98d557aae\n      mload(0x40)\n      mload(0x40)\n      dup1\n      swap2\n      sub\n      swap1\n      log3\n        /* \"Project-1-AuctionPlatform/AuctionPlatform.sol\":8518:8787  function updateBid(uint256 _aucId, uint256 _bidVal)... */\n      pop\n      pop\n      pop\n      jump\t// out\n        /* \"Project-1-AuctionPlatform/AuctionPlatform.sol\":6095:6370  function getMaxBid(uint256 _aucId)... */\n    tag_29:\n        /* \"Project-1-AuctionPlatform/AuctionPlatform.sol\":6201:6208  uint256 */\n      0x0\n        /* \"Project-1-AuctionPlatform/AuctionPlatform.sol\":6224:6235  uint maxbid */\n      dup1\n        /* \"Project-1-AuctionPlatform/AuctionPlatform.sol\":6176:6182  _aucId */\n      dup3\n        /* \"Project-1-AuctionPlatform/AuctionPlatform.sol\":11919:11924  aucId */\n      sload(0x0)\n        /* \"Project-1-AuctionPlatform/AuctionPlatform.sol\":11909:11915  _aucId */\n      dup2\n        /* \"Project-1-AuctionPlatform/AuctionPlatform.sol\":11909:11924  _aucId <= aucId */\n      gt\n      iszero\n        /* \"Project-1-AuctionPlatform/AuctionPlatform.sol\":11909:11994  _aucId <= aucId &&... */\n      dup1\n      iszero\n      tag_109\n      jumpi\n      pop\n        /* \"Project-1-AuctionPlatform/AuctionPlatform.sol\":11979:11994  block.timestamp */\n      timestamp\n        /* \"Project-1-AuctionPlatform/AuctionPlatform.sol\":11944:11955  auctionList */\n      0x1\n        /* \"Project-1-AuctionPlatform/AuctionPlatform.sol\":11956:11962  _aucId */\n      dup3\n        /* \"Project-1-AuctionPlatform/AuctionPlatform.sol\":11944:11963  auctionList[_aucId] */\n      dup2\n      sload\n      dup2\n      lt\n      iszero\n      iszero\n      tag_110\n      jumpi\n      invalid\n    tag_110:\n      swap1\n      0x0\n      mstore\n      keccak256(0x0, 0x20)\n      add\n      0x0\n      swap1\n      sload\n      swap1\n      0x100\n      exp\n      swap1\n      div\n      0xffffffffffffffffffffffffffffffffffffffff\n      and\n        /* \"Project-1-AuctionPlatform/AuctionPlatform.sol\":11944:11974  auctionList[_aucId].getEndTime */\n      0xffffffffffffffffffffffffffffffffffffffff\n      and\n      0x439f5ac2\n        /* \"Project-1-AuctionPlatform/AuctionPlatform.sol\":11944:11976  auctionList[_aucId].getEndTime() */\n      mload(0x40)\n      dup2\n      0xffffffff\n      and\n      0x100000000000000000000000000000000000000000000000000000000\n      mul\n      dup2\n      mstore\n      0x4\n      add\n      0x20\n      mload(0x40)\n      dup1\n      dup4\n      sub\n      dup2\n      0x0\n      dup8\n      dup1\n      extcodesize\n      iszero\n        /* \"--CODEGEN--\":8:17   */\n      dup1\n        /* \"--CODEGEN--\":5:7   */\n      iszero\n      tag_112\n      jumpi\n        /* \"--CODEGEN--\":30:31   */\n      0x0\n        /* \"--CODEGEN--\":27:28   */\n      dup1\n        /* \"--CODEGEN--\":20:32   */\n      revert\n        /* \"--CODEGEN--\":5:7   */\n    tag_112:\n        /* \"Project-1-AuctionPlatform/AuctionPlatform.sol\":11944:11976  auctionList[_aucId].getEndTime() */\n      pop\n      gas\n      call\n      iszero\n        /* \"--CODEGEN--\":8:17   */\n      dup1\n        /* \"--CODEGEN--\":5:7   */\n      iszero\n      tag_113\n      jumpi\n        /* \"--CODEGEN--\":45:61   */\n      returndatasize\n        /* \"--CODEGEN--\":42:43   */\n      0x0\n        /* \"--CODEGEN--\":39:40   */\n      dup1\n        /* \"--CODEGEN--\":24:62   */\n      returndatacopy\n        /* \"--CODEGEN--\":77:93   */\n      returndatasize\n        /* \"--CODEGEN--\":74:75   */\n      0x0\n        /* \"--CODEGEN--\":67:94   */\n      revert\n        /* \"--CODEGEN--\":5:7   */\n    tag_113:\n        /* \"Project-1-AuctionPlatform/AuctionPlatform.sol\":11944:11976  auctionList[_aucId].getEndTime() */\n      pop\n      pop\n      pop\n      pop\n      mload(0x40)\n      returndatasize\n        /* \"--CODEGEN--\":13:15   */\n      0x20\n        /* \"--CODEGEN--\":8:11   */\n      dup2\n        /* \"--CODEGEN--\":5:16   */\n      lt\n        /* \"--CODEGEN--\":2:4   */\n      iszero\n      tag_114\n      jumpi\n        /* \"--CODEGEN--\":29:30   */\n      0x0\n        /* \"--CODEGEN--\":26:27   */\n      dup1\n        /* \"--CODEGEN--\":19:31   */\n      revert\n        /* \"--CODEGEN--\":2:4   */\n    tag_114:\n        /* \"Project-1-AuctionPlatform/AuctionPlatform.sol\":11944:11976  auctionList[_aucId].getEndTime() */\n      dup2\n      add\n      swap1\n      dup1\n      dup1\n      mload\n      swap1\n      0x20\n      add\n      swap1\n      swap3\n      swap2\n      swap1\n      pop\n      pop\n      pop\n        /* \"Project-1-AuctionPlatform/AuctionPlatform.sol\":11944:11994  auctionList[_aucId].getEndTime() > block.timestamp */\n      gt\n        /* \"Project-1-AuctionPlatform/AuctionPlatform.sol\":11909:11994  _aucId <= aucId &&... */\n    tag_109:\n        /* \"Project-1-AuctionPlatform/AuctionPlatform.sol\":11888:12054  require(... */\n      iszero\n      iszero\n      tag_115\n      jumpi\n      mload(0x40)\n      0x8c379a000000000000000000000000000000000000000000000000000000000\n      dup2\n      mstore\n      0x4\n      add\n      dup1\n      dup1\n      0x20\n      add\n      dup3\n      dup2\n      sub\n      dup3\n      mstore\n      0x22\n      dup2\n      mstore\n      0x20\n      add\n      dup1\n      0x41756374696f6e20697320496e616374697665206f72206e6f74207072657365\n      dup2\n      mstore\n      0x20\n      add\n      0x6e74000000000000000000000000000000000000000000000000000000000000\n      dup2\n      mstore\n      pop\n      0x40\n      add\n      swap2\n      pop\n      pop\n      mload(0x40)\n      dup1\n      swap2\n      sub\n      swap1\n      revert\n    tag_115:\n        /* \"Project-1-AuctionPlatform/AuctionPlatform.sol\":6238:6249  auctionList */\n      0x1\n        /* \"Project-1-AuctionPlatform/AuctionPlatform.sol\":6250:6256  _aucId */\n      dup5\n        /* \"Project-1-AuctionPlatform/AuctionPlatform.sol\":6238:6257  auctionList[_aucId] */\n      dup2\n      sload\n      dup2\n      lt\n      iszero\n      iszero\n      tag_117\n      jumpi\n      invalid\n    tag_117:\n      swap1\n      0x0\n      mstore\n      keccak256(0x0, 0x20)\n      add\n      0x0\n      swap1\n      sload\n      swap1\n      0x100\n      exp\n      swap1\n      div\n      0xffffffffffffffffffffffffffffffffffffffff\n      and\n        /* \"Project-1-AuctionPlatform/AuctionPlatform.sol\":6238:6271  auctionList[_aucId].getMaximumBid */\n      0xffffffffffffffffffffffffffffffffffffffff\n      and\n      0xdd06ba1a\n        /* \"Project-1-AuctionPlatform/AuctionPlatform.sol\":6238:6273  auctionList[_aucId].getMaximumBid() */\n      mload(0x40)\n      dup2\n      0xffffffff\n      and\n      0x100000000000000000000000000000000000000000000000000000000\n      mul\n      dup2\n      mstore\n      0x4\n      add\n      0x20\n      mload(0x40)\n      dup1\n      dup4\n      sub\n      dup2\n      0x0\n      dup8\n      dup1\n      extcodesize\n      iszero\n        /* \"--CODEGEN--\":8:17   */\n      dup1\n        /* \"--CODEGEN--\":5:7   */\n      iszero\n      tag_119\n      jumpi\n        /* \"--CODEGEN--\":30:31   */\n      0x0\n        /* \"--CODEGEN--\":27:28   */\n      dup1\n        /* \"--CODEGEN--\":20:32   */\n      revert\n        /* \"--CODEGEN--\":5:7   */\n    tag_119:\n        /* \"Project-1-AuctionPlatform/AuctionPlatform.sol\":6238:6273  auctionList[_aucId].getMaximumBid() */\n      pop\n      gas\n      call\n      iszero\n        /* \"--CODEGEN--\":8:17   */\n      dup1\n        /* \"--CODEGEN--\":5:7   */\n      iszero\n      tag_120\n      jumpi\n        /* \"--CODEGEN--\":45:61   */\n      returndatasize\n        /* \"--CODEGEN--\":42:43   */\n      0x0\n        /* \"--CODEGEN--\":39:40   */\n      dup1\n        /* \"--CODEGEN--\":24:62   */\n      returndatacopy\n        /* \"--CODEGEN--\":77:93   */\n      returndatasize\n        /* \"--CODEGEN--\":74:75   */\n      0x0\n        /* \"--CODEGEN--\":67:94   */\n      revert\n        /* \"--CODEGEN--\":5:7   */\n    tag_120:\n        /* \"Project-1-AuctionPlatform/AuctionPlatform.sol\":6238:6273  auctionList[_aucId].getMaximumBid() */\n      pop\n      pop\n      pop\n      pop\n      mload(0x40)\n      returndatasize\n        /* \"--CODEGEN--\":13:15   */\n      0x20\n        /* \"--CODEGEN--\":8:11   */\n      dup2\n        /* \"--CODEGEN--\":5:16   */\n      lt\n        /* \"--CODEGEN--\":2:4   */\n      iszero\n      tag_121\n      jumpi\n        /* \"--CODEGEN--\":29:30   */\n      0x0\n        /* \"--CODEGEN--\":26:27   */\n      dup1\n        /* \"--CODEGEN--\":19:31   */\n      revert\n        /* \"--CODEGEN--\":2:4   */\n    tag_121:\n        /* \"Project-1-AuctionPlatform/AuctionPlatform.sol\":6238:6273  auctionList[_aucId].getMaximumBid() */\n      dup2\n      add\n      swap1\n      dup1\n      dup1\n      mload\n      swap1\n      0x20\n      add\n      swap1\n      swap3\n      swap2\n      swap1\n      pop\n      pop\n      pop\n        /* \"Project-1-AuctionPlatform/AuctionPlatform.sol\":6224:6273  uint maxbid = auctionList[_aucId].getMaximumBid() */\n      swap2\n      pop\n        /* \"Project-1-AuctionPlatform/AuctionPlatform.sol\":6299:6300  0 */\n      0x0\n        /* \"Project-1-AuctionPlatform/AuctionPlatform.sol\":6291:6297  maxbid */\n      dup3\n        /* \"Project-1-AuctionPlatform/AuctionPlatform.sol\":6291:6300  maxbid!=0 */\n      eq\n      iszero\n        /* \"Project-1-AuctionPlatform/AuctionPlatform.sol\":6283:6340  require(maxbid!=0,\"There aren't any bids on the Auction\") */\n      iszero\n      iszero\n      tag_122\n      jumpi\n      mload(0x40)\n      0x8c379a000000000000000000000000000000000000000000000000000000000\n      dup2\n      mstore\n      0x4\n      add\n      dup1\n      dup1\n      0x20\n      add\n      dup3\n      dup2\n      sub\n      dup3\n      mstore\n      0x24\n      dup2\n      mstore\n      0x20\n      add\n      dup1\n      0x5468657265206172656e277420616e792062696473206f6e2074686520417563\n      dup2\n      mstore\n      0x20\n      add\n      0x74696f6e00000000000000000000000000000000000000000000000000000000\n      dup2\n      mstore\n      pop\n      0x40\n      add\n      swap2\n      pop\n      pop\n      mload(0x40)\n      dup1\n      swap2\n      sub\n      swap1\n      revert\n    tag_122:\n        /* \"Project-1-AuctionPlatform/AuctionPlatform.sol\":6357:6363  maxbid */\n      dup2\n        /* \"Project-1-AuctionPlatform/AuctionPlatform.sol\":6350:6363  return maxbid */\n      swap3\n      pop\n        /* \"Project-1-AuctionPlatform/AuctionPlatform.sol\":6095:6370  function getMaxBid(uint256 _aucId)... */\n      pop\n      pop\n      swap2\n      swap1\n      pop\n      jump\t// out\n        /* \"Project-1-AuctionPlatform/AuctionPlatform.sol\":5600:6010  function getMaxBid()... */\n    tag_32:\n        /* \"Project-1-AuctionPlatform/AuctionPlatform.sol\":5708:5715  uint256 */\n      0x0\n        /* \"Project-1-AuctionPlatform/AuctionPlatform.sol\":12455:12456  0 */\n      dup1\n        /* \"Project-1-AuctionPlatform/AuctionPlatform.sol\":12430:12439  aucOwners */\n      0x2\n        /* \"Project-1-AuctionPlatform/AuctionPlatform.sol\":12430:12451  aucOwners[msg.sender] */\n      0x0\n        /* \"Project-1-AuctionPlatform/AuctionPlatform.sol\":12440:12450  msg.sender */\n      caller\n        /* \"Project-1-AuctionPlatform/AuctionPlatform.sol\":12430:12451  aucOwners[msg.sender] */\n      0xffffffffffffffffffffffffffffffffffffffff\n      and\n      0xffffffffffffffffffffffffffffffffffffffff\n      and\n      dup2\n      mstore\n      0x20\n      add\n      swap1\n      dup2\n      mstore\n      0x20\n      add\n      0x0\n      keccak256\n      sload\n        /* \"Project-1-AuctionPlatform/AuctionPlatform.sol\":12430:12456  aucOwners[msg.sender] != 0 */\n      eq\n      iszero\n        /* \"Project-1-AuctionPlatform/AuctionPlatform.sol\":12422:12493  require(aucOwners[msg.sender] != 0, \"You haven't created any Auctions\") */\n      iszero\n      iszero\n      tag_124\n      jumpi\n      mload(0x40)\n      0x8c379a000000000000000000000000000000000000000000000000000000000\n      dup2\n      mstore\n      0x4\n      add\n      dup1\n      dup1\n      0x20\n      add\n      dup3\n      dup2\n      sub\n      dup3\n      mstore\n      0x20\n      dup2\n      mstore\n      0x20\n      add\n      dup1\n      0x596f7520686176656e2774206372656174656420616e792041756374696f6e73\n      dup2\n      mstore\n      pop\n      0x20\n      add\n      swap2\n      pop\n      pop\n      mload(0x40)\n      dup1\n      swap2\n      sub\n      swap1\n      revert\n    tag_124:\n        /* \"Project-1-AuctionPlatform/AuctionPlatform.sol\":11665:11676  auctionList */\n      0x1\n        /* \"Project-1-AuctionPlatform/AuctionPlatform.sol\":11677:11686  aucOwners */\n      0x2\n        /* \"Project-1-AuctionPlatform/AuctionPlatform.sol\":11677:11698  aucOwners[msg.sender] */\n      0x0\n        /* \"Project-1-AuctionPlatform/AuctionPlatform.sol\":11687:11697  msg.sender */\n      caller\n        /* \"Project-1-AuctionPlatform/AuctionPlatform.sol\":11677:11698  aucOwners[msg.sender] */\n      0xffffffffffffffffffffffffffffffffffffffff\n      and\n      0xffffffffffffffffffffffffffffffffffffffff\n      and\n      dup2\n      mstore\n      0x20\n      add\n      swap1\n      dup2\n      mstore\n      0x20\n      add\n      0x0\n      keccak256\n      sload\n        /* \"Project-1-AuctionPlatform/AuctionPlatform.sol\":11665:11699  auctionList[aucOwners[msg.sender]] */\n      dup2\n      sload\n      dup2\n      lt\n      iszero\n      iszero\n      tag_126\n      jumpi\n      invalid\n    tag_126:\n      swap1\n      0x0\n      mstore\n      keccak256(0x0, 0x20)\n      add\n      0x0\n      swap1\n      sload\n      swap1\n      0x100\n      exp\n      swap1\n      div\n      0xffffffffffffffffffffffffffffffffffffffff\n      and\n        /* \"Project-1-AuctionPlatform/AuctionPlatform.sol\":11665:11711  auctionList[aucOwners[msg.sender]].getBidsMade */\n      0xffffffffffffffffffffffffffffffffffffffff\n      and\n      0x409766e6\n        /* \"Project-1-AuctionPlatform/AuctionPlatform.sol\":11665:11713  auctionList[aucOwners[msg.sender]].getBidsMade() */\n      mload(0x40)\n      dup2\n      0xffffffff\n      and\n      0x100000000000000000000000000000000000000000000000000000000\n      mul\n      dup2\n      mstore\n      0x4\n      add\n      0x20\n      mload(0x40)\n      dup1\n      dup4\n      sub\n      dup2\n      0x0\n      dup8\n      dup1\n      extcodesize\n      iszero\n        /* \"--CODEGEN--\":8:17   */\n      dup1\n        /* \"--CODEGEN--\":5:7   */\n      iszero\n      tag_128\n      jumpi\n        /* \"--CODEGEN--\":30:31   */\n      0x0\n        /* \"--CODEGEN--\":27:28   */\n      dup1\n        /* \"--CODEGEN--\":20:32   */\n      revert\n        /* \"--CODEGEN--\":5:7   */\n    tag_128:\n        /* \"Project-1-AuctionPlatform/AuctionPlatform.sol\":11665:11713  auctionList[aucOwners[msg.sender]].getBidsMade() */\n      pop\n      gas\n      call\n      iszero\n        /* \"--CODEGEN--\":8:17   */\n      dup1\n        /* \"--CODEGEN--\":5:7   */\n      iszero\n      tag_129\n      jumpi\n        /* \"--CODEGEN--\":45:61   */\n      returndatasize\n        /* \"--CODEGEN--\":42:43   */\n      0x0\n        /* \"--CODEGEN--\":39:40   */\n      dup1\n        /* \"--CODEGEN--\":24:62   */\n      returndatacopy\n        /* \"--CODEGEN--\":77:93   */\n      returndatasize\n        /* \"--CODEGEN--\":74:75   */\n      0x0\n        /* \"--CODEGEN--\":67:94   */\n      revert\n        /* \"--CODEGEN--\":5:7   */\n    tag_129:\n        /* \"Project-1-AuctionPlatform/AuctionPlatform.sol\":11665:11713  auctionList[aucOwners[msg.sender]].getBidsMade() */\n      pop\n      pop\n      pop\n      pop\n      mload(0x40)\n      returndatasize\n        /* \"--CODEGEN--\":13:15   */\n      0x20\n        /* \"--CODEGEN--\":8:11   */\n      dup2\n        /* \"--CODEGEN--\":5:16   */\n      lt\n        /* \"--CODEGEN--\":2:4   */\n      iszero\n      tag_130\n      jumpi\n        /* \"--CODEGEN--\":29:30   */\n      0x0\n        /* \"--CODEGEN--\":26:27   */\n      dup1\n        /* \"--CODEGEN--\":19:31   */\n      revert\n        /* \"--CODEGEN--\":2:4   */\n    tag_130:\n        /* \"Project-1-AuctionPlatform/AuctionPlatform.sol\":11665:11713  auctionList[aucOwners[msg.sender]].getBidsMade() */\n      dup2\n      add\n      swap1\n      dup1\n      dup1\n      mload\n      swap1\n      0x20\n      add\n      swap1\n      swap3\n      swap2\n      swap1\n      pop\n      pop\n      pop\n        /* \"Project-1-AuctionPlatform/AuctionPlatform.sol\":11644:11775  require(... */\n      iszero\n      iszero\n      tag_131\n      jumpi\n      mload(0x40)\n      0x8c379a000000000000000000000000000000000000000000000000000000000\n      dup2\n      mstore\n      0x4\n      add\n      dup1\n      dup1\n      0x20\n      add\n      dup3\n      dup2\n      sub\n      dup3\n      mstore\n      0x24\n      dup2\n      mstore\n      0x20\n      add\n      dup1\n      0x5468657265206172656e277420616e792062696473206f6e2074686520417563\n      dup2\n      mstore\n      0x20\n      add\n      0x74696f6e00000000000000000000000000000000000000000000000000000000\n      dup2\n      mstore\n      pop\n      0x40\n      add\n      swap2\n      pop\n      pop\n      mload(0x40)\n      dup1\n      swap2\n      sub\n      swap1\n      revert\n    tag_131:\n        /* \"Project-1-AuctionPlatform/AuctionPlatform.sol\":5953:5964  auctionList */\n      0x1\n        /* \"Project-1-AuctionPlatform/AuctionPlatform.sol\":5965:5974  aucOwners */\n      0x2\n        /* \"Project-1-AuctionPlatform/AuctionPlatform.sol\":5965:5986  aucOwners[msg.sender] */\n      0x0\n        /* \"Project-1-AuctionPlatform/AuctionPlatform.sol\":5975:5985  msg.sender */\n      caller\n        /* \"Project-1-AuctionPlatform/AuctionPlatform.sol\":5965:5986  aucOwners[msg.sender] */\n      0xffffffffffffffffffffffffffffffffffffffff\n      and\n      0xffffffffffffffffffffffffffffffffffffffff\n      and\n      dup2\n      mstore\n      0x20\n      add\n      swap1\n      dup2\n      mstore\n      0x20\n      add\n      0x0\n      keccak256\n      sload\n        /* \"Project-1-AuctionPlatform/AuctionPlatform.sol\":5953:5987  auctionList[aucOwners[msg.sender]] */\n      dup2\n      sload\n      dup2\n      lt\n      iszero\n      iszero\n      tag_133\n      jumpi\n      invalid\n    tag_133:\n      swap1\n      0x0\n      mstore\n      keccak256(0x0, 0x20)\n      add\n      0x0\n      swap1\n      sload\n      swap1\n      0x100\n      exp\n      swap1\n      div\n      0xffffffffffffffffffffffffffffffffffffffff\n      and\n        /* \"Project-1-AuctionPlatform/AuctionPlatform.sol\":5953:6001  auctionList[aucOwners[msg.sender]].getMaximumBid */\n      0xffffffffffffffffffffffffffffffffffffffff\n      and\n      0xdd06ba1a\n        /* \"Project-1-AuctionPlatform/AuctionPlatform.sol\":5953:6003  auctionList[aucOwners[msg.sender]].getMaximumBid() */\n      mload(0x40)\n      dup2\n      0xffffffff\n      and\n      0x100000000000000000000000000000000000000000000000000000000\n      mul\n      dup2\n      mstore\n      0x4\n      add\n      0x20\n      mload(0x40)\n      dup1\n      dup4\n      sub\n      dup2\n      0x0\n      dup8\n      dup1\n      extcodesize\n      iszero\n        /* \"--CODEGEN--\":8:17   */\n      dup1\n        /* \"--CODEGEN--\":5:7   */\n      iszero\n      tag_135\n      jumpi\n        /* \"--CODEGEN--\":30:31   */\n      0x0\n        /* \"--CODEGEN--\":27:28   */\n      dup1\n        /* \"--CODEGEN--\":20:32   */\n      revert\n        /* \"--CODEGEN--\":5:7   */\n    tag_135:\n        /* \"Project-1-AuctionPlatform/AuctionPlatform.sol\":5953:6003  auctionList[aucOwners[msg.sender]].getMaximumBid() */\n      pop\n      gas\n      call\n      iszero\n        /* \"--CODEGEN--\":8:17   */\n      dup1\n        /* \"--CODEGEN--\":5:7   */\n      iszero\n      tag_136\n      jumpi\n        /* \"--CODEGEN--\":45:61   */\n      returndatasize\n        /* \"--CODEGEN--\":42:43   */\n      0x0\n        /* \"--CODEGEN--\":39:40   */\n      dup1\n        /* \"--CODEGEN--\":24:62   */\n      returndatacopy\n        /* \"--CODEGEN--\":77:93   */\n      returndatasize\n        /* \"--CODEGEN--\":74:75   */\n      0x0\n        /* \"--CODEGEN--\":67:94   */\n      revert\n        /* \"--CODEGEN--\":5:7   */\n    tag_136:\n        /* \"Project-1-AuctionPlatform/AuctionPlatform.sol\":5953:6003  auctionList[aucOwners[msg.sender]].getMaximumBid() */\n      pop\n      pop\n      pop\n      pop\n      mload(0x40)\n      returndatasize\n        /* \"--CODEGEN--\":13:15   */\n      0x20\n        /* \"--CODEGEN--\":8:11   */\n      dup2\n        /* \"--CODEGEN--\":5:16   */\n      lt\n        /* \"--CODEGEN--\":2:4   */\n      iszero\n      tag_137\n      jumpi\n        /* \"--CODEGEN--\":29:30   */\n      0x0\n        /* \"--CODEGEN--\":26:27   */\n      dup1\n        /* \"--CODEGEN--\":19:31   */\n      revert\n        /* \"--CODEGEN--\":2:4   */\n    tag_137:\n        /* \"Project-1-AuctionPlatform/AuctionPlatform.sol\":5953:6003  auctionList[aucOwners[msg.sender]].getMaximumBid() */\n      dup2\n      add\n      swap1\n      dup1\n      dup1\n      mload\n      swap1\n      0x20\n      add\n      swap1\n      swap3\n      swap2\n      swap1\n      pop\n      pop\n      pop\n        /* \"Project-1-AuctionPlatform/AuctionPlatform.sol\":5946:6003  return auctionList[aucOwners[msg.sender]].getMaximumBid() */\n      swap1\n      pop\n        /* \"Project-1-AuctionPlatform/AuctionPlatform.sol\":5600:6010  function getMaxBid()... */\n      swap1\n      jump\t// out\n        /* \"Project-1-AuctionPlatform/AuctionPlatform.sol\":5053:5242  function getMinBidValOfAuction(uint256 _aucId)... */\n    tag_35:\n        /* \"Project-1-AuctionPlatform/AuctionPlatform.sol\":5171:5178  uint256 */\n      0x0\n        /* \"Project-1-AuctionPlatform/AuctionPlatform.sol\":5146:5152  _aucId */\n      dup2\n        /* \"Project-1-AuctionPlatform/AuctionPlatform.sol\":11919:11924  aucId */\n      sload(0x0)\n        /* \"Project-1-AuctionPlatform/AuctionPlatform.sol\":11909:11915  _aucId */\n      dup2\n        /* \"Project-1-AuctionPlatform/AuctionPlatform.sol\":11909:11924  _aucId <= aucId */\n      gt\n      iszero\n        /* \"Project-1-AuctionPlatform/AuctionPlatform.sol\":11909:11994  _aucId <= aucId &&... */\n      dup1\n      iszero\n      tag_139\n      jumpi\n      pop\n        /* \"Project-1-AuctionPlatform/AuctionPlatform.sol\":11979:11994  block.timestamp */\n      timestamp\n        /* \"Project-1-AuctionPlatform/AuctionPlatform.sol\":11944:11955  auctionList */\n      0x1\n        /* \"Project-1-AuctionPlatform/AuctionPlatform.sol\":11956:11962  _aucId */\n      dup3\n        /* \"Project-1-AuctionPlatform/AuctionPlatform.sol\":11944:11963  auctionList[_aucId] */\n      dup2\n      sload\n      dup2\n      lt\n      iszero\n      iszero\n      tag_140\n      jumpi\n      invalid\n    tag_140:\n      swap1\n      0x0\n      mstore\n      keccak256(0x0, 0x20)\n      add\n      0x0\n      swap1\n      sload\n      swap1\n      0x100\n      exp\n      swap1\n      div\n      0xffffffffffffffffffffffffffffffffffffffff\n      and\n        /* \"Project-1-AuctionPlatform/AuctionPlatform.sol\":11944:11974  auctionList[_aucId].getEndTime */\n      0xffffffffffffffffffffffffffffffffffffffff\n      and\n      0x439f5ac2\n        /* \"Project-1-AuctionPlatform/AuctionPlatform.sol\":11944:11976  auctionList[_aucId].getEndTime() */\n      mload(0x40)\n      dup2\n      0xffffffff\n      and\n      0x100000000000000000000000000000000000000000000000000000000\n      mul\n      dup2\n      mstore\n      0x4\n      add\n      0x20\n      mload(0x40)\n      dup1\n      dup4\n      sub\n      dup2\n      0x0\n      dup8\n      dup1\n      extcodesize\n      iszero\n        /* \"--CODEGEN--\":8:17   */\n      dup1\n        /* \"--CODEGEN--\":5:7   */\n      iszero\n      tag_142\n      jumpi\n        /* \"--CODEGEN--\":30:31   */\n      0x0\n        /* \"--CODEGEN--\":27:28   */\n      dup1\n        /* \"--CODEGEN--\":20:32   */\n      revert\n        /* \"--CODEGEN--\":5:7   */\n    tag_142:\n        /* \"Project-1-AuctionPlatform/AuctionPlatform.sol\":11944:11976  auctionList[_aucId].getEndTime() */\n      pop\n      gas\n      call\n      iszero\n        /* \"--CODEGEN--\":8:17   */\n      dup1\n        /* \"--CODEGEN--\":5:7   */\n      iszero\n      tag_143\n      jumpi\n        /* \"--CODEGEN--\":45:61   */\n      returndatasize\n        /* \"--CODEGEN--\":42:43   */\n      0x0\n        /* \"--CODEGEN--\":39:40   */\n      dup1\n        /* \"--CODEGEN--\":24:62   */\n      returndatacopy\n        /* \"--CODEGEN--\":77:93   */\n      returndatasize\n        /* \"--CODEGEN--\":74:75   */\n      0x0\n        /* \"--CODEGEN--\":67:94   */\n      revert\n        /* \"--CODEGEN--\":5:7   */\n    tag_143:\n        /* \"Project-1-AuctionPlatform/AuctionPlatform.sol\":11944:11976  auctionList[_aucId].getEndTime() */\n      pop\n      pop\n      pop\n      pop\n      mload(0x40)\n      returndatasize\n        /* \"--CODEGEN--\":13:15   */\n      0x20\n        /* \"--CODEGEN--\":8:11   */\n      dup2\n        /* \"--CODEGEN--\":5:16   */\n      lt\n        /* \"--CODEGEN--\":2:4   */\n      iszero\n      tag_144\n      jumpi\n        /* \"--CODEGEN--\":29:30   */\n      0x0\n        /* \"--CODEGEN--\":26:27   */\n      dup1\n        /* \"--CODEGEN--\":19:31   */\n      revert\n        /* \"--CODEGEN--\":2:4   */\n    tag_144:\n        /* \"Project-1-AuctionPlatform/AuctionPlatform.sol\":11944:11976  auctionList[_aucId].getEndTime() */\n      dup2\n      add\n      swap1\n      dup1\n      dup1\n      mload\n      swap1\n      0x20\n      add\n      swap1\n      swap3\n      swap2\n      swap1\n      pop\n      pop\n      pop\n        /* \"Project-1-AuctionPlatform/AuctionPlatform.sol\":11944:11994  auctionList[_aucId].getEndTime() > block.timestamp */\n      gt\n        /* \"Project-1-AuctionPlatform/AuctionPlatform.sol\":11909:11994  _aucId <= aucId &&... */\n    tag_139:\n        /* \"Project-1-AuctionPlatform/AuctionPlatform.sol\":11888:12054  require(... */\n      iszero\n      iszero\n      tag_145\n      jumpi\n      mload(0x40)\n      0x8c379a000000000000000000000000000000000000000000000000000000000\n      dup2\n      mstore\n      0x4\n      add\n      dup1\n      dup1\n      0x20\n      add\n      dup3\n      dup2\n      sub\n      dup3\n      mstore\n      0x22\n      dup2\n      mstore\n      0x20\n      add\n      dup1\n      0x41756374696f6e20697320496e616374697665206f72206e6f74207072657365\n      dup2\n      mstore\n      0x20\n      add\n      0x6e74000000000000000000000000000000000000000000000000000000000000\n      dup2\n      mstore\n      pop\n      0x40\n      add\n      swap2\n      pop\n      pop\n      mload(0x40)\n      dup1\n      swap2\n      sub\n      swap1\n      revert\n    tag_145:\n        /* \"Project-1-AuctionPlatform/AuctionPlatform.sol\":5201:5212  auctionList */\n      0x1\n        /* \"Project-1-AuctionPlatform/AuctionPlatform.sol\":5213:5219  _aucId */\n      dup4\n        /* \"Project-1-AuctionPlatform/AuctionPlatform.sol\":5201:5220  auctionList[_aucId] */\n      dup2\n      sload\n      dup2\n      lt\n      iszero\n      iszero\n      tag_147\n      jumpi\n      invalid\n    tag_147:\n      swap1\n      0x0\n      mstore\n      keccak256(0x0, 0x20)\n      add\n      0x0\n      swap1\n      sload\n      swap1\n      0x100\n      exp\n      swap1\n      div\n      0xffffffffffffffffffffffffffffffffffffffff\n      and\n        /* \"Project-1-AuctionPlatform/AuctionPlatform.sol\":5201:5233  auctionList[_aucId].getMinBidVal */\n      0xffffffffffffffffffffffffffffffffffffffff\n      and\n      0xad934674\n        /* \"Project-1-AuctionPlatform/AuctionPlatform.sol\":5201:5235  auctionList[_aucId].getMinBidVal() */\n      mload(0x40)\n      dup2\n      0xffffffff\n      and\n      0x100000000000000000000000000000000000000000000000000000000\n      mul\n      dup2\n      mstore\n      0x4\n      add\n      0x20\n      mload(0x40)\n      dup1\n      dup4\n      sub\n      dup2\n      0x0\n      dup8\n      dup1\n      extcodesize\n      iszero\n        /* \"--CODEGEN--\":8:17   */\n      dup1\n        /* \"--CODEGEN--\":5:7   */\n      iszero\n      tag_149\n      jumpi\n        /* \"--CODEGEN--\":30:31   */\n      0x0\n        /* \"--CODEGEN--\":27:28   */\n      dup1\n        /* \"--CODEGEN--\":20:32   */\n      revert\n        /* \"--CODEGEN--\":5:7   */\n    tag_149:\n        /* \"Project-1-AuctionPlatform/AuctionPlatform.sol\":5201:5235  auctionList[_aucId].getMinBidVal() */\n      pop\n      gas\n      call\n      iszero\n        /* \"--CODEGEN--\":8:17   */\n      dup1\n        /* \"--CODEGEN--\":5:7   */\n      iszero\n      tag_150\n      jumpi\n        /* \"--CODEGEN--\":45:61   */\n      returndatasize\n        /* \"--CODEGEN--\":42:43   */\n      0x0\n        /* \"--CODEGEN--\":39:40   */\n      dup1\n        /* \"--CODEGEN--\":24:62   */\n      returndatacopy\n        /* \"--CODEGEN--\":77:93   */\n      returndatasize\n        /* \"--CODEGEN--\":74:75   */\n      0x0\n        /* \"--CODEGEN--\":67:94   */\n      revert\n        /* \"--CODEGEN--\":5:7   */\n    tag_150:\n        /* \"Project-1-AuctionPlatform/AuctionPlatform.sol\":5201:5235  auctionList[_aucId].getMinBidVal() */\n      pop\n      pop\n      pop\n      pop\n      mload(0x40)\n      returndatasize\n        /* \"--CODEGEN--\":13:15   */\n      0x20\n        /* \"--CODEGEN--\":8:11   */\n      dup2\n        /* \"--CODEGEN--\":5:16   */\n      lt\n        /* \"--CODEGEN--\":2:4   */\n      iszero\n      tag_151\n      jumpi\n        /* \"--CODEGEN--\":29:30   */\n      0x0\n        /* \"--CODEGEN--\":26:27   */\n      dup1\n        /* \"--CODEGEN--\":19:31   */\n      revert\n        /* \"--CODEGEN--\":2:4   */\n    tag_151:\n        /* \"Project-1-AuctionPlatform/AuctionPlatform.sol\":5201:5235  auctionList[_aucId].getMinBidVal() */\n      dup2\n      add\n      swap1\n      dup1\n      dup1\n      mload\n      swap1\n      0x20\n      add\n      swap1\n      swap3\n      swap2\n      swap1\n      pop\n      pop\n      pop\n        /* \"Project-1-AuctionPlatform/AuctionPlatform.sol\":5194:5235  return auctionList[_aucId].getMinBidVal() */\n      swap2\n      pop\n        /* \"Project-1-AuctionPlatform/AuctionPlatform.sol\":5053:5242  function getMinBidValOfAuction(uint256 _aucId)... */\n      pop\n      swap2\n      swap1\n      pop\n      jump\t// out\n        /* \"Project-1-AuctionPlatform/AuctionPlatform.sol\":3771:4968  function getListOfActiveAuctions() public view returns (uint256[]) {... */\n    tag_38:\n        /* \"Project-1-AuctionPlatform/AuctionPlatform.sol\":3827:3836  uint256[] */\n      0x60\n        /* \"Project-1-AuctionPlatform/AuctionPlatform.sol\":3848:3864  uint256 actualNo */\n      0x0\n        /* \"Project-1-AuctionPlatform/AuctionPlatform.sol\":3947:3972  Auction[] storage aucList */\n      dup1\n        /* \"Project-1-AuctionPlatform/AuctionPlatform.sol\":4083:4092  uint256 i */\n      0x0\n        /* \"Project-1-AuctionPlatform/AuctionPlatform.sol\":4408:4429  uint256[] memory list */\n      0x60\n        /* \"Project-1-AuctionPlatform/AuctionPlatform.sol\":4528:4537  uint256 j */\n      0x0\n        /* \"Project-1-AuctionPlatform/AuctionPlatform.sol\":4639:4648  uint256 k */\n      dup1\n        /* \"Project-1-AuctionPlatform/AuctionPlatform.sol\":3867:3868  0 */\n      0x0\n        /* \"Project-1-AuctionPlatform/AuctionPlatform.sol\":3848:3868  uint256 actualNo = 0 */\n      swap6\n      pop\n        /* \"Project-1-AuctionPlatform/AuctionPlatform.sol\":3975:3986  auctionList */\n      0x1\n        /* \"Project-1-AuctionPlatform/AuctionPlatform.sol\":3947:3986  Auction[] storage aucList = auctionList */\n      swap5\n      pop\n        /* \"Project-1-AuctionPlatform/AuctionPlatform.sol\":4095:4096  1 */\n      0x1\n        /* \"Project-1-AuctionPlatform/AuctionPlatform.sol\":4083:4096  uint256 i = 1 */\n      swap4\n      pop\n        /* \"Project-1-AuctionPlatform/AuctionPlatform.sol\":4078:4335  for (uint256 i = 1; i <= aucId; i++) {... */\n    tag_153:\n        /* \"Project-1-AuctionPlatform/AuctionPlatform.sol\":4103:4108  aucId */\n      sload(0x0)\n        /* \"Project-1-AuctionPlatform/AuctionPlatform.sol\":4098:4099  i */\n      dup5\n        /* \"Project-1-AuctionPlatform/AuctionPlatform.sol\":4098:4108  i <= aucId */\n      gt\n      iszero\n        /* \"Project-1-AuctionPlatform/AuctionPlatform.sol\":4078:4335  for (uint256 i = 1; i <= aucId; i++) {... */\n      iszero\n      tag_154\n      jumpi\n        /* \"Project-1-AuctionPlatform/AuctionPlatform.sol\":4159:4174  block.timestamp */\n      timestamp\n        /* \"Project-1-AuctionPlatform/AuctionPlatform.sol\":4133:4140  aucList */\n      dup6\n        /* \"Project-1-AuctionPlatform/AuctionPlatform.sol\":4141:4142  i */\n      dup6\n        /* \"Project-1-AuctionPlatform/AuctionPlatform.sol\":4133:4143  aucList[i] */\n      dup2\n      sload\n      dup2\n      lt\n      iszero\n      iszero\n      tag_156\n      jumpi\n      invalid\n    tag_156:\n      swap1\n      0x0\n      mstore\n      keccak256(0x0, 0x20)\n      add\n      0x0\n      swap1\n      sload\n      swap1\n      0x100\n      exp\n      swap1\n      div\n      0xffffffffffffffffffffffffffffffffffffffff\n      and\n        /* \"Project-1-AuctionPlatform/AuctionPlatform.sol\":4133:4154  aucList[i].getEndTime */\n      0xffffffffffffffffffffffffffffffffffffffff\n      and\n      0x439f5ac2\n        /* \"Project-1-AuctionPlatform/AuctionPlatform.sol\":4133:4156  aucList[i].getEndTime() */\n      mload(0x40)\n      dup2\n      0xffffffff\n      and\n      0x100000000000000000000000000000000000000000000000000000000\n      mul\n      dup2\n      mstore\n      0x4\n      add\n      0x20\n      mload(0x40)\n      dup1\n      dup4\n      sub\n      dup2\n      0x0\n      dup8\n      dup1\n      extcodesize\n      iszero\n        /* \"--CODEGEN--\":8:17   */\n      dup1\n        /* \"--CODEGEN--\":5:7   */\n      iszero\n      tag_158\n      jumpi\n        /* \"--CODEGEN--\":30:31   */\n      0x0\n        /* \"--CODEGEN--\":27:28   */\n      dup1\n        /* \"--CODEGEN--\":20:32   */\n      revert\n        /* \"--CODEGEN--\":5:7   */\n    tag_158:\n        /* \"Project-1-AuctionPlatform/AuctionPlatform.sol\":4133:4156  aucList[i].getEndTime() */\n      pop\n      gas\n      call\n      iszero\n        /* \"--CODEGEN--\":8:17   */\n      dup1\n        /* \"--CODEGEN--\":5:7   */\n      iszero\n      tag_159\n      jumpi\n        /* \"--CODEGEN--\":45:61   */\n      returndatasize\n        /* \"--CODEGEN--\":42:43   */\n      0x0\n        /* \"--CODEGEN--\":39:40   */\n      dup1\n        /* \"--CODEGEN--\":24:62   */\n      returndatacopy\n        /* \"--CODEGEN--\":77:93   */\n      returndatasize\n        /* \"--CODEGEN--\":74:75   */\n      0x0\n        /* \"--CODEGEN--\":67:94   */\n      revert\n        /* \"--CODEGEN--\":5:7   */\n    tag_159:\n        /* \"Project-1-AuctionPlatform/AuctionPlatform.sol\":4133:4156  aucList[i].getEndTime() */\n      pop\n      pop\n      pop\n      pop\n      mload(0x40)\n      returndatasize\n        /* \"--CODEGEN--\":13:15   */\n      0x20\n        /* \"--CODEGEN--\":8:11   */\n      dup2\n        /* \"--CODEGEN--\":5:16   */\n      lt\n        /* \"--CODEGEN--\":2:4   */\n      iszero\n      tag_160\n      jumpi\n        /* \"--CODEGEN--\":29:30   */\n      0x0\n        /* \"--CODEGEN--\":26:27   */\n      dup1\n        /* \"--CODEGEN--\":19:31   */\n      revert\n        /* \"--CODEGEN--\":2:4   */\n    tag_160:\n        /* \"Project-1-AuctionPlatform/AuctionPlatform.sol\":4133:4156  aucList[i].getEndTime() */\n      dup2\n      add\n      swap1\n      dup1\n      dup1\n      mload\n      swap1\n      0x20\n      add\n      swap1\n      swap3\n      swap2\n      swap1\n      pop\n      pop\n      pop\n        /* \"Project-1-AuctionPlatform/AuctionPlatform.sol\":4133:4174  aucList[i].getEndTime() < block.timestamp */\n      lt\n        /* \"Project-1-AuctionPlatform/AuctionPlatform.sol\":4129:4325  if (aucList[i].getEndTime() < block.timestamp) {     // for loop for counting the number of active auctions... */\n      iszero\n      tag_161\n      jumpi\n        /* \"Project-1-AuctionPlatform/AuctionPlatform.sol\":4253:4261  continue */\n      jump(tag_155)\n        /* \"Project-1-AuctionPlatform/AuctionPlatform.sol\":4129:4325  if (aucList[i].getEndTime() < block.timestamp) {     // for loop for counting the number of active auctions... */\n    tag_161:\n        /* \"Project-1-AuctionPlatform/AuctionPlatform.sol\":4300:4310  actualNo++ */\n      dup6\n      dup1\n      0x1\n      add\n      swap7\n      pop\n      pop\n        /* \"Project-1-AuctionPlatform/AuctionPlatform.sol\":4078:4335  for (uint256 i = 1; i <= aucId; i++) {... */\n    tag_155:\n        /* \"Project-1-AuctionPlatform/AuctionPlatform.sol\":4110:4113  i++ */\n      dup4\n      dup1\n      0x1\n      add\n      swap5\n      pop\n      pop\n        /* \"Project-1-AuctionPlatform/AuctionPlatform.sol\":4078:4335  for (uint256 i = 1; i <= aucId; i++) {... */\n      jump(tag_153)\n    tag_154:\n        /* \"Project-1-AuctionPlatform/AuctionPlatform.sol\":4361:4362  0 */\n      0x0\n        /* \"Project-1-AuctionPlatform/AuctionPlatform.sol\":4352:4360  actualNo */\n      dup7\n        /* \"Project-1-AuctionPlatform/AuctionPlatform.sol\":4352:4362  actualNo>0 */\n      gt\n        /* \"Project-1-AuctionPlatform/AuctionPlatform.sol\":4344:4398  require(actualNo>0,\"no auctions are currently Active\") */\n      iszero\n      iszero\n      tag_163\n      jumpi\n      mload(0x40)\n      0x8c379a000000000000000000000000000000000000000000000000000000000\n      dup2\n      mstore\n      0x4\n      add\n      dup1\n      dup1\n      0x20\n      add\n      dup3\n      dup2\n      sub\n      dup3\n      mstore\n      0x20\n      dup2\n      mstore\n      0x20\n      add\n      dup1\n      0x6e6f2061756374696f6e73206172652063757272656e746c7920416374697665\n      dup2\n      mstore\n      pop\n      0x20\n      add\n      swap2\n      pop\n      pop\n      mload(0x40)\n      dup1\n      swap2\n      sub\n      swap1\n      revert\n    tag_163:\n        /* \"Project-1-AuctionPlatform/AuctionPlatform.sol\":4446:4454  actualNo */\n      dup6\n        /* \"Project-1-AuctionPlatform/AuctionPlatform.sol\":4432:4455  new uint256[](actualNo) */\n      mload(0x40)\n      swap1\n      dup1\n      dup3\n      mstore\n      dup1\n      0x20\n      mul\n      0x20\n      add\n      dup3\n      add\n      0x40\n      mstore\n      dup1\n      iszero\n      tag_164\n      jumpi\n      dup2\n      0x20\n      add\n        /* \"--CODEGEN--\":29:31   */\n      0x20\n        /* \"--CODEGEN--\":21:27   */\n      dup3\n        /* \"--CODEGEN--\":17:32   */\n      mul\n        /* \"--CODEGEN--\":117:121   */\n      dup1\n        /* \"--CODEGEN--\":105:115   */\n      codesize\n        /* \"--CODEGEN--\":97:103   */\n      dup4\n        /* \"--CODEGEN--\":88:122   */\n      codecopy\n        /* \"--CODEGEN--\":148:152   */\n      dup1\n        /* \"--CODEGEN--\":140:146   */\n      dup3\n        /* \"--CODEGEN--\":136:153   */\n      add\n        /* \"--CODEGEN--\":126:153   */\n      swap2\n      pop\n        /* \"--CODEGEN--\":0:157   */\n      pop\n        /* \"Project-1-AuctionPlatform/AuctionPlatform.sol\":4432:4455  new uint256[](actualNo) */\n      swap1\n      pop\n    tag_164:\n      pop\n        /* \"Project-1-AuctionPlatform/AuctionPlatform.sol\":4408:4455  uint256[] memory list = new uint256[](actualNo) */\n      swap3\n      pop\n        /* \"Project-1-AuctionPlatform/AuctionPlatform.sol\":4540:4541  0 */\n      0x0\n        /* \"Project-1-AuctionPlatform/AuctionPlatform.sol\":4528:4541  uint256 j = 0 */\n      swap2\n      pop\n        /* \"Project-1-AuctionPlatform/AuctionPlatform.sol\":4651:4652  1 */\n      0x1\n        /* \"Project-1-AuctionPlatform/AuctionPlatform.sol\":4639:4652  uint256 k = 1 */\n      swap1\n      pop\n        /* \"Project-1-AuctionPlatform/AuctionPlatform.sol\":4634:4941  for (uint256 k = 1; k <= aucId; k++) {                        // for loop for filling the active auctions list with their ids... */\n    tag_165:\n        /* \"Project-1-AuctionPlatform/AuctionPlatform.sol\":4659:4664  aucId */\n      sload(0x0)\n        /* \"Project-1-AuctionPlatform/AuctionPlatform.sol\":4654:4655  k */\n      dup2\n        /* \"Project-1-AuctionPlatform/AuctionPlatform.sol\":4654:4664  k <= aucId */\n      gt\n      iszero\n        /* \"Project-1-AuctionPlatform/AuctionPlatform.sol\":4634:4941  for (uint256 k = 1; k <= aucId; k++) {                        // for loop for filling the active auctions list with their ids... */\n      iszero\n      tag_166\n      jumpi\n        /* \"Project-1-AuctionPlatform/AuctionPlatform.sol\":4802:4817  block.timestamp */\n      timestamp\n        /* \"Project-1-AuctionPlatform/AuctionPlatform.sol\":4776:4783  aucList */\n      dup6\n        /* \"Project-1-AuctionPlatform/AuctionPlatform.sol\":4784:4785  k */\n      dup3\n        /* \"Project-1-AuctionPlatform/AuctionPlatform.sol\":4776:4786  aucList[k] */\n      dup2\n      sload\n      dup2\n      lt\n      iszero\n      iszero\n      tag_168\n      jumpi\n      invalid\n    tag_168:\n      swap1\n      0x0\n      mstore\n      keccak256(0x0, 0x20)\n      add\n      0x0\n      swap1\n      sload\n      swap1\n      0x100\n      exp\n      swap1\n      div\n      0xffffffffffffffffffffffffffffffffffffffff\n      and\n        /* \"Project-1-AuctionPlatform/AuctionPlatform.sol\":4776:4797  aucList[k].getEndTime */\n      0xffffffffffffffffffffffffffffffffffffffff\n      and\n      0x439f5ac2\n        /* \"Project-1-AuctionPlatform/AuctionPlatform.sol\":4776:4799  aucList[k].getEndTime() */\n      mload(0x40)\n      dup2\n      0xffffffff\n      and\n      0x100000000000000000000000000000000000000000000000000000000\n      mul\n      dup2\n      mstore\n      0x4\n      add\n      0x20\n      mload(0x40)\n      dup1\n      dup4\n      sub\n      dup2\n      0x0\n      dup8\n      dup1\n      extcodesize\n      iszero\n        /* \"--CODEGEN--\":8:17   */\n      dup1\n        /* \"--CODEGEN--\":5:7   */\n      iszero\n      tag_170\n      jumpi\n        /* \"--CODEGEN--\":30:31   */\n      0x0\n        /* \"--CODEGEN--\":27:28   */\n      dup1\n        /* \"--CODEGEN--\":20:32   */\n      revert\n        /* \"--CODEGEN--\":5:7   */\n    tag_170:\n        /* \"Project-1-AuctionPlatform/AuctionPlatform.sol\":4776:4799  aucList[k].getEndTime() */\n      pop\n      gas\n      call\n      iszero\n        /* \"--CODEGEN--\":8:17   */\n      dup1\n        /* \"--CODEGEN--\":5:7   */\n      iszero\n      tag_171\n      jumpi\n        /* \"--CODEGEN--\":45:61   */\n      returndatasize\n        /* \"--CODEGEN--\":42:43   */\n      0x0\n        /* \"--CODEGEN--\":39:40   */\n      dup1\n        /* \"--CODEGEN--\":24:62   */\n      returndatacopy\n        /* \"--CODEGEN--\":77:93   */\n      returndatasize\n        /* \"--CODEGEN--\":74:75   */\n      0x0\n        /* \"--CODEGEN--\":67:94   */\n      revert\n        /* \"--CODEGEN--\":5:7   */\n    tag_171:\n        /* \"Project-1-AuctionPlatform/AuctionPlatform.sol\":4776:4799  aucList[k].getEndTime() */\n      pop\n      pop\n      pop\n      pop\n      mload(0x40)\n      returndatasize\n        /* \"--CODEGEN--\":13:15   */\n      0x20\n        /* \"--CODEGEN--\":8:11   */\n      dup2\n        /* \"--CODEGEN--\":5:16   */\n      lt\n        /* \"--CODEGEN--\":2:4   */\n      iszero\n      tag_172\n      jumpi\n        /* \"--CODEGEN--\":29:30   */\n      0x0\n        /* \"--CODEGEN--\":26:27   */\n      dup1\n        /* \"--CODEGEN--\":19:31   */\n      revert\n        /* \"--CODEGEN--\":2:4   */\n    tag_172:\n        /* \"Project-1-AuctionPlatform/AuctionPlatform.sol\":4776:4799  aucList[k].getEndTime() */\n      dup2\n      add\n      swap1\n      dup1\n      dup1\n      mload\n      swap1\n      0x20\n      add\n      swap1\n      swap3\n      swap2\n      swap1\n      pop\n      pop\n      pop\n        /* \"Project-1-AuctionPlatform/AuctionPlatform.sol\":4776:4817  aucList[k].getEndTime() < block.timestamp */\n      lt\n        /* \"Project-1-AuctionPlatform/AuctionPlatform.sol\":4772:4931  if (aucList[k].getEndTime() < block.timestamp) {... */\n      iszero\n      tag_173\n      jumpi\n        /* \"Project-1-AuctionPlatform/AuctionPlatform.sol\":4837:4845  continue */\n      jump(tag_167)\n        /* \"Project-1-AuctionPlatform/AuctionPlatform.sol\":4772:4931  if (aucList[k].getEndTime() < block.timestamp) {... */\n    tag_173:\n        /* \"Project-1-AuctionPlatform/AuctionPlatform.sol\":4894:4895  k */\n      dup1\n        /* \"Project-1-AuctionPlatform/AuctionPlatform.sol\":4884:4888  list */\n      dup4\n        /* \"Project-1-AuctionPlatform/AuctionPlatform.sol\":4889:4890  j */\n      dup4\n        /* \"Project-1-AuctionPlatform/AuctionPlatform.sol\":4884:4891  list[j] */\n      dup2\n      mload\n      dup2\n      lt\n      iszero\n      iszero\n      tag_175\n      jumpi\n      invalid\n    tag_175:\n      swap1\n      0x20\n      add\n      swap1\n      0x20\n      mul\n      add\n        /* \"Project-1-AuctionPlatform/AuctionPlatform.sol\":4884:4895  list[j] = k */\n      dup2\n      dup2\n      mstore\n      pop\n      pop\n        /* \"Project-1-AuctionPlatform/AuctionPlatform.sol\":4913:4916  j++ */\n      dup2\n      dup1\n      0x1\n      add\n      swap3\n      pop\n      pop\n        /* \"Project-1-AuctionPlatform/AuctionPlatform.sol\":4634:4941  for (uint256 k = 1; k <= aucId; k++) {                        // for loop for filling the active auctions list with their ids... */\n    tag_167:\n        /* \"Project-1-AuctionPlatform/AuctionPlatform.sol\":4666:4669  k++ */\n      dup1\n      dup1\n      0x1\n      add\n      swap2\n      pop\n      pop\n        /* \"Project-1-AuctionPlatform/AuctionPlatform.sol\":4634:4941  for (uint256 k = 1; k <= aucId; k++) {                        // for loop for filling the active auctions list with their ids... */\n      jump(tag_165)\n    tag_166:\n        /* \"Project-1-AuctionPlatform/AuctionPlatform.sol\":4957:4961  list */\n      dup3\n        /* \"Project-1-AuctionPlatform/AuctionPlatform.sol\":4950:4961  return list */\n      swap7\n      pop\n        /* \"Project-1-AuctionPlatform/AuctionPlatform.sol\":3771:4968  function getListOfActiveAuctions() public view returns (uint256[]) {... */\n      pop\n      pop\n      pop\n      pop\n      pop\n      pop\n      swap1\n      jump\t// out\n        /* \"Project-1-AuctionPlatform/AuctionPlatform.sol\":1987:2535  function getAuctionStartTime(uint256 _aucId)... */\n    tag_44:\n        /* \"Project-1-AuctionPlatform/AuctionPlatform.sol\":2116:2128  uint256 year */\n      0x0\n        /* \"Project-1-AuctionPlatform/AuctionPlatform.sol\":2211:2224  uint256 month */\n      dup1\n        /* \"Project-1-AuctionPlatform/AuctionPlatform.sol\":2238:2249  uint256 day */\n      0x0\n        /* \"Project-1-AuctionPlatform/AuctionPlatform.sol\":2274:2291  uint256 timeStamp */\n      dup1\n        /* \"Project-1-AuctionPlatform/AuctionPlatform.sol\":2078:2084  _aucId */\n      dup5\n        /* \"Project-1-AuctionPlatform/AuctionPlatform.sol\":11919:11924  aucId */\n      sload(0x0)\n        /* \"Project-1-AuctionPlatform/AuctionPlatform.sol\":11909:11915  _aucId */\n      dup2\n        /* \"Project-1-AuctionPlatform/AuctionPlatform.sol\":11909:11924  _aucId <= aucId */\n      gt\n      iszero\n        /* \"Project-1-AuctionPlatform/AuctionPlatform.sol\":11909:11994  _aucId <= aucId &&... */\n      dup1\n      iszero\n      tag_177\n      jumpi\n      pop\n        /* \"Project-1-AuctionPlatform/AuctionPlatform.sol\":11979:11994  block.timestamp */\n      timestamp\n        /* \"Project-1-AuctionPlatform/AuctionPlatform.sol\":11944:11955  auctionList */\n      0x1\n        /* \"Project-1-AuctionPlatform/AuctionPlatform.sol\":11956:11962  _aucId */\n      dup3\n        /* \"Project-1-AuctionPlatform/AuctionPlatform.sol\":11944:11963  auctionList[_aucId] */\n      dup2\n      sload\n      dup2\n      lt\n      iszero\n      iszero\n      tag_178\n      jumpi\n      invalid\n    tag_178:\n      swap1\n      0x0\n      mstore\n      keccak256(0x0, 0x20)\n      add\n      0x0\n      swap1\n      sload\n      swap1\n      0x100\n      exp\n      swap1\n      div\n      0xffffffffffffffffffffffffffffffffffffffff\n      and\n        /* \"Project-1-AuctionPlatform/AuctionPlatform.sol\":11944:11974  auctionList[_aucId].getEndTime */\n      0xffffffffffffffffffffffffffffffffffffffff\n      and\n      0x439f5ac2\n        /* \"Project-1-AuctionPlatform/AuctionPlatform.sol\":11944:11976  auctionList[_aucId].getEndTime() */\n      mload(0x40)\n      dup2\n      0xffffffff\n      and\n      0x100000000000000000000000000000000000000000000000000000000\n      mul\n      dup2\n      mstore\n      0x4\n      add\n      0x20\n      mload(0x40)\n      dup1\n      dup4\n      sub\n      dup2\n      0x0\n      dup8\n      dup1\n      extcodesize\n      iszero\n        /* \"--CODEGEN--\":8:17   */\n      dup1\n        /* \"--CODEGEN--\":5:7   */\n      iszero\n      tag_180\n      jumpi\n        /* \"--CODEGEN--\":30:31   */\n      0x0\n        /* \"--CODEGEN--\":27:28   */\n      dup1\n        /* \"--CODEGEN--\":20:32   */\n      revert\n        /* \"--CODEGEN--\":5:7   */\n    tag_180:\n        /* \"Project-1-AuctionPlatform/AuctionPlatform.sol\":11944:11976  auctionList[_aucId].getEndTime() */\n      pop\n      gas\n      call\n      iszero\n        /* \"--CODEGEN--\":8:17   */\n      dup1\n        /* \"--CODEGEN--\":5:7   */\n      iszero\n      tag_181\n      jumpi\n        /* \"--CODEGEN--\":45:61   */\n      returndatasize\n        /* \"--CODEGEN--\":42:43   */\n      0x0\n        /* \"--CODEGEN--\":39:40   */\n      dup1\n        /* \"--CODEGEN--\":24:62   */\n      returndatacopy\n        /* \"--CODEGEN--\":77:93   */\n      returndatasize\n        /* \"--CODEGEN--\":74:75   */\n      0x0\n        /* \"--CODEGEN--\":67:94   */\n      revert\n        /* \"--CODEGEN--\":5:7   */\n    tag_181:\n        /* \"Project-1-AuctionPlatform/AuctionPlatform.sol\":11944:11976  auctionList[_aucId].getEndTime() */\n      pop\n      pop\n      pop\n      pop\n      mload(0x40)\n      returndatasize\n        /* \"--CODEGEN--\":13:15   */\n      0x20\n        /* \"--CODEGEN--\":8:11   */\n      dup2\n        /* \"--CODEGEN--\":5:16   */\n      lt\n        /* \"--CODEGEN--\":2:4   */\n      iszero\n      tag_182\n      jumpi\n        /* \"--CODEGEN--\":29:30   */\n      0x0\n        /* \"--CODEGEN--\":26:27   */\n      dup1\n        /* \"--CODEGEN--\":19:31   */\n      revert\n        /* \"--CODEGEN--\":2:4   */\n    tag_182:\n        /* \"Project-1-AuctionPlatform/AuctionPlatform.sol\":11944:11976  auctionList[_aucId].getEndTime() */\n      dup2\n      add\n      swap1\n      dup1\n      dup1\n      mload\n      swap1\n      0x20\n      add\n      swap1\n      swap3\n      swap2\n      swap1\n      pop\n      pop\n      pop\n        /* \"Project-1-AuctionPlatform/AuctionPlatform.sol\":11944:11994  auctionList[_aucId].getEndTime() > block.timestamp */\n      gt\n        /* \"Project-1-AuctionPlatform/AuctionPlatform.sol\":11909:11994  _aucId <= aucId &&... */\n    tag_177:\n        /* \"Project-1-AuctionPlatform/AuctionPlatform.sol\":11888:12054  require(... */\n      iszero\n      iszero\n      tag_183\n      jumpi\n      mload(0x40)\n      0x8c379a000000000000000000000000000000000000000000000000000000000\n      dup2\n      mstore\n      0x4\n      add\n      dup1\n      dup1\n      0x20\n      add\n      dup3\n      dup2\n      sub\n      dup3\n      mstore\n      0x22\n      dup2\n      mstore\n      0x20\n      add\n      dup1\n      0x41756374696f6e20697320496e616374697665206f72206e6f74207072657365\n      dup2\n      mstore\n      0x20\n      add\n      0x6e74000000000000000000000000000000000000000000000000000000000000\n      dup2\n      mstore\n      pop\n      0x40\n      add\n      swap2\n      pop\n      pop\n      mload(0x40)\n      dup1\n      swap2\n      sub\n      swap1\n      revert\n    tag_183:\n        /* \"Project-1-AuctionPlatform/AuctionPlatform.sol\":2294:2305  auctionList */\n      0x1\n        /* \"Project-1-AuctionPlatform/AuctionPlatform.sol\":2306:2312  _aucId */\n      dup7\n        /* \"Project-1-AuctionPlatform/AuctionPlatform.sol\":2294:2313  auctionList[_aucId] */\n      dup2\n      sload\n      dup2\n      lt\n      iszero\n      iszero\n      tag_185\n      jumpi\n      invalid\n    tag_185:\n      swap1\n      0x0\n      mstore\n      keccak256(0x0, 0x20)\n      add\n      0x0\n      swap1\n      sload\n      swap1\n      0x100\n      exp\n      swap1\n      div\n      0xffffffffffffffffffffffffffffffffffffffff\n      and\n        /* \"Project-1-AuctionPlatform/AuctionPlatform.sol\":2294:2326  auctionList[_aucId].getStartTime */\n      0xffffffffffffffffffffffffffffffffffffffff\n      and\n      0xc828371e\n        /* \"Project-1-AuctionPlatform/AuctionPlatform.sol\":2294:2328  auctionList[_aucId].getStartTime() */\n      mload(0x40)\n      dup2\n      0xffffffff\n      and\n      0x100000000000000000000000000000000000000000000000000000000\n      mul\n      dup2\n      mstore\n      0x4\n      add\n      0x20\n      mload(0x40)\n      dup1\n      dup4\n      sub\n      dup2\n      0x0\n      dup8\n      dup1\n      extcodesize\n      iszero\n        /* \"--CODEGEN--\":8:17   */\n      dup1\n        /* \"--CODEGEN--\":5:7   */\n      iszero\n      tag_187\n      jumpi\n        /* \"--CODEGEN--\":30:31   */\n      0x0\n        /* \"--CODEGEN--\":27:28   */\n      dup1\n        /* \"--CODEGEN--\":20:32   */\n      revert\n        /* \"--CODEGEN--\":5:7   */\n    tag_187:\n        /* \"Project-1-AuctionPlatform/AuctionPlatform.sol\":2294:2328  auctionList[_aucId].getStartTime() */\n      pop\n      gas\n      call\n      iszero\n        /* \"--CODEGEN--\":8:17   */\n      dup1\n        /* \"--CODEGEN--\":5:7   */\n      iszero\n      tag_188\n      jumpi\n        /* \"--CODEGEN--\":45:61   */\n      returndatasize\n        /* \"--CODEGEN--\":42:43   */\n      0x0\n        /* \"--CODEGEN--\":39:40   */\n      dup1\n        /* \"--CODEGEN--\":24:62   */\n      returndatacopy\n        /* \"--CODEGEN--\":77:93   */\n      returndatasize\n        /* \"--CODEGEN--\":74:75   */\n      0x0\n        /* \"--CODEGEN--\":67:94   */\n      revert\n        /* \"--CODEGEN--\":5:7   */\n    tag_188:\n        /* \"Project-1-AuctionPlatform/AuctionPlatform.sol\":2294:2328  auctionList[_aucId].getStartTime() */\n      pop\n      pop\n      pop\n      pop\n      mload(0x40)\n      returndatasize\n        /* \"--CODEGEN--\":13:15   */\n      0x20\n        /* \"--CODEGEN--\":8:11   */\n      dup2\n        /* \"--CODEGEN--\":5:16   */\n      lt\n        /* \"--CODEGEN--\":2:4   */\n      iszero\n      tag_189\n      jumpi\n        /* \"--CODEGEN--\":29:30   */\n      0x0\n        /* \"--CODEGEN--\":26:27   */\n      dup1\n        /* \"--CODEGEN--\":19:31   */\n      revert\n        /* \"--CODEGEN--\":2:4   */\n    tag_189:\n        /* \"Project-1-AuctionPlatform/AuctionPlatform.sol\":2294:2328  auctionList[_aucId].getStartTime() */\n      dup2\n      add\n      swap1\n      dup1\n      dup1\n      mload\n      swap1\n      0x20\n      add\n      swap1\n      swap3\n      swap2\n      swap1\n      pop\n      pop\n      pop\n        /* \"Project-1-AuctionPlatform/AuctionPlatform.sol\":2274:2328  uint256 timeStamp = auctionList[_aucId].getStartTime() */\n      swap2\n      pop\n        /* \"Project-1-AuctionPlatform/AuctionPlatform.sol\":2452:2528  BokkyPooBahsDateTimeLibrary.timestampToDate(... */\n      tag_190\n        /* \"Project-1-AuctionPlatform/AuctionPlatform.sol\":2509:2518  timeStamp */\n      dup3\n        /* \"Project-1-AuctionPlatform/AuctionPlatform.sol\":2452:2495  BokkyPooBahsDateTimeLibrary.timestampToDate */\n      tag_191\n        /* \"Project-1-AuctionPlatform/AuctionPlatform.sol\":2452:2528  BokkyPooBahsDateTimeLibrary.timestampToDate(... */\n      jump\t// in\n    tag_190:\n        /* \"Project-1-AuctionPlatform/AuctionPlatform.sol\":2431:2528  (year, month, day) = BokkyPooBahsDateTimeLibrary.timestampToDate(... */\n      dup1\n      swap6\n      pop\n      dup2\n      swap7\n      pop\n      dup3\n      swap8\n      pop\n      pop\n      pop\n      pop\n        /* \"Project-1-AuctionPlatform/AuctionPlatform.sol\":1987:2535  function getAuctionStartTime(uint256 _aucId)... */\n      pop\n      pop\n      swap2\n      swap4\n      swap1\n      swap3\n      pop\n      jump\t// out\n        /* \"Project-1-AuctionPlatform/AuctionPlatform.sol\":2618:3159  function getAuctionEndTime(uint256 _aucId)... */\n    tag_47:\n        /* \"Project-1-AuctionPlatform/AuctionPlatform.sol\":2745:2757  uint256 year */\n      0x0\n        /* \"Project-1-AuctionPlatform/AuctionPlatform.sol\":2771:2784  uint256 month */\n      dup1\n        /* \"Project-1-AuctionPlatform/AuctionPlatform.sol\":2864:2875  uint256 day */\n      0x0\n        /* \"Project-1-AuctionPlatform/AuctionPlatform.sol\":2900:2917  uint256 timeStamp */\n      dup1\n        /* \"Project-1-AuctionPlatform/AuctionPlatform.sol\":2707:2713  _aucId */\n      dup5\n        /* \"Project-1-AuctionPlatform/AuctionPlatform.sol\":11919:11924  aucId */\n      sload(0x0)\n        /* \"Project-1-AuctionPlatform/AuctionPlatform.sol\":11909:11915  _aucId */\n      dup2\n        /* \"Project-1-AuctionPlatform/AuctionPlatform.sol\":11909:11924  _aucId <= aucId */\n      gt\n      iszero\n        /* \"Project-1-AuctionPlatform/AuctionPlatform.sol\":11909:11994  _aucId <= aucId &&... */\n      dup1\n      iszero\n      tag_193\n      jumpi\n      pop\n        /* \"Project-1-AuctionPlatform/AuctionPlatform.sol\":11979:11994  block.timestamp */\n      timestamp\n        /* \"Project-1-AuctionPlatform/AuctionPlatform.sol\":11944:11955  auctionList */\n      0x1\n        /* \"Project-1-AuctionPlatform/AuctionPlatform.sol\":11956:11962  _aucId */\n      dup3\n        /* \"Project-1-AuctionPlatform/AuctionPlatform.sol\":11944:11963  auctionList[_aucId] */\n      dup2\n      sload\n      dup2\n      lt\n      iszero\n      iszero\n      tag_194\n      jumpi\n      invalid\n    tag_194:\n      swap1\n      0x0\n      mstore\n      keccak256(0x0, 0x20)\n      add\n      0x0\n      swap1\n      sload\n      swap1\n      0x100\n      exp\n      swap1\n      div\n      0xffffffffffffffffffffffffffffffffffffffff\n      and\n        /* \"Project-1-AuctionPlatform/AuctionPlatform.sol\":11944:11974  auctionList[_aucId].getEndTime */\n      0xffffffffffffffffffffffffffffffffffffffff\n      and\n      0x439f5ac2\n        /* \"Project-1-AuctionPlatform/AuctionPlatform.sol\":11944:11976  auctionList[_aucId].getEndTime() */\n      mload(0x40)\n      dup2\n      0xffffffff\n      and\n      0x100000000000000000000000000000000000000000000000000000000\n      mul\n      dup2\n      mstore\n      0x4\n      add\n      0x20\n      mload(0x40)\n      dup1\n      dup4\n      sub\n      dup2\n      0x0\n      dup8\n      dup1\n      extcodesize\n      iszero\n        /* \"--CODEGEN--\":8:17   */\n      dup1\n        /* \"--CODEGEN--\":5:7   */\n      iszero\n      tag_196\n      jumpi\n        /* \"--CODEGEN--\":30:31   */\n      0x0\n        /* \"--CODEGEN--\":27:28   */\n      dup1\n        /* \"--CODEGEN--\":20:32   */\n      revert\n        /* \"--CODEGEN--\":5:7   */\n    tag_196:\n        /* \"Project-1-AuctionPlatform/AuctionPlatform.sol\":11944:11976  auctionList[_aucId].getEndTime() */\n      pop\n      gas\n      call\n      iszero\n        /* \"--CODEGEN--\":8:17   */\n      dup1\n        /* \"--CODEGEN--\":5:7   */\n      iszero\n      tag_197\n      jumpi\n        /* \"--CODEGEN--\":45:61   */\n      returndatasize\n        /* \"--CODEGEN--\":42:43   */\n      0x0\n        /* \"--CODEGEN--\":39:40   */\n      dup1\n        /* \"--CODEGEN--\":24:62   */\n      returndatacopy\n        /* \"--CODEGEN--\":77:93   */\n      returndatasize\n        /* \"--CODEGEN--\":74:75   */\n      0x0\n        /* \"--CODEGEN--\":67:94   */\n      revert\n        /* \"--CODEGEN--\":5:7   */\n    tag_197:\n        /* \"Project-1-AuctionPlatform/AuctionPlatform.sol\":11944:11976  auctionList[_aucId].getEndTime() */\n      pop\n      pop\n      pop\n      pop\n      mload(0x40)\n      returndatasize\n        /* \"--CODEGEN--\":13:15   */\n      0x20\n        /* \"--CODEGEN--\":8:11   */\n      dup2\n        /* \"--CODEGEN--\":5:16   */\n      lt\n        /* \"--CODEGEN--\":2:4   */\n      iszero\n      tag_198\n      jumpi\n        /* \"--CODEGEN--\":29:30   */\n      0x0\n        /* \"--CODEGEN--\":26:27   */\n      dup1\n        /* \"--CODEGEN--\":19:31   */\n      revert\n        /* \"--CODEGEN--\":2:4   */\n    tag_198:\n        /* \"Project-1-AuctionPlatform/AuctionPlatform.sol\":11944:11976  auctionList[_aucId].getEndTime() */\n      dup2\n      add\n      swap1\n      dup1\n      dup1\n      mload\n      swap1\n      0x20\n      add\n      swap1\n      swap3\n      swap2\n      swap1\n      pop\n      pop\n      pop\n        /* \"Project-1-AuctionPlatform/AuctionPlatform.sol\":11944:11994  auctionList[_aucId].getEndTime() > block.timestamp */\n      gt\n        /* \"Project-1-AuctionPlatform/AuctionPlatform.sol\":11909:11994  _aucId <= aucId &&... */\n    tag_193:\n        /* \"Project-1-AuctionPlatform/AuctionPlatform.sol\":11888:12054  require(... */\n      iszero\n      iszero\n      tag_199\n      jumpi\n      mload(0x40)\n      0x8c379a000000000000000000000000000000000000000000000000000000000\n      dup2\n      mstore\n      0x4\n      add\n      dup1\n      dup1\n      0x20\n      add\n      dup3\n      dup2\n      sub\n      dup3\n      mstore\n      0x22\n      dup2\n      mstore\n      0x20\n      add\n      dup1\n      0x41756374696f6e20697320496e616374697665206f72206e6f74207072657365\n      dup2\n      mstore\n      0x20\n      add\n      0x6e74000000000000000000000000000000000000000000000000000000000000\n      dup2\n      mstore\n      pop\n      0x40\n      add\n      swap2\n      pop\n      pop\n      mload(0x40)\n      dup1\n      swap2\n      sub\n      swap1\n      revert\n    tag_199:\n        /* \"Project-1-AuctionPlatform/AuctionPlatform.sol\":2920:2931  auctionList */\n      0x1\n        /* \"Project-1-AuctionPlatform/AuctionPlatform.sol\":2932:2938  _aucId */\n      dup7\n        /* \"Project-1-AuctionPlatform/AuctionPlatform.sol\":2920:2939  auctionList[_aucId] */\n      dup2\n      sload\n      dup2\n      lt\n      iszero\n      iszero\n      tag_201\n      jumpi\n      invalid\n    tag_201:\n      swap1\n      0x0\n      mstore\n      keccak256(0x0, 0x20)\n      add\n      0x0\n      swap1\n      sload\n      swap1\n      0x100\n      exp\n      swap1\n      div\n      0xffffffffffffffffffffffffffffffffffffffff\n      and\n        /* \"Project-1-AuctionPlatform/AuctionPlatform.sol\":2920:2950  auctionList[_aucId].getEndTime */\n      0xffffffffffffffffffffffffffffffffffffffff\n      and\n      0x439f5ac2\n        /* \"Project-1-AuctionPlatform/AuctionPlatform.sol\":2920:2952  auctionList[_aucId].getEndTime() */\n      mload(0x40)\n      dup2\n      0xffffffff\n      and\n      0x100000000000000000000000000000000000000000000000000000000\n      mul\n      dup2\n      mstore\n      0x4\n      add\n      0x20\n      mload(0x40)\n      dup1\n      dup4\n      sub\n      dup2\n      0x0\n      dup8\n      dup1\n      extcodesize\n      iszero\n        /* \"--CODEGEN--\":8:17   */\n      dup1\n        /* \"--CODEGEN--\":5:7   */\n      iszero\n      tag_203\n      jumpi\n        /* \"--CODEGEN--\":30:31   */\n      0x0\n        /* \"--CODEGEN--\":27:28   */\n      dup1\n        /* \"--CODEGEN--\":20:32   */\n      revert\n        /* \"--CODEGEN--\":5:7   */\n    tag_203:\n        /* \"Project-1-AuctionPlatform/AuctionPlatform.sol\":2920:2952  auctionList[_aucId].getEndTime() */\n      pop\n      gas\n      call\n      iszero\n        /* \"--CODEGEN--\":8:17   */\n      dup1\n        /* \"--CODEGEN--\":5:7   */\n      iszero\n      tag_204\n      jumpi\n        /* \"--CODEGEN--\":45:61   */\n      returndatasize\n        /* \"--CODEGEN--\":42:43   */\n      0x0\n        /* \"--CODEGEN--\":39:40   */\n      dup1\n        /* \"--CODEGEN--\":24:62   */\n      returndatacopy\n        /* \"--CODEGEN--\":77:93   */\n      returndatasize\n        /* \"--CODEGEN--\":74:75   */\n      0x0\n        /* \"--CODEGEN--\":67:94   */\n      revert\n        /* \"--CODEGEN--\":5:7   */\n    tag_204:\n        /* \"Project-1-AuctionPlatform/AuctionPlatform.sol\":2920:2952  auctionList[_aucId].getEndTime() */\n      pop\n      pop\n      pop\n      pop\n      mload(0x40)\n      returndatasize\n        /* \"--CODEGEN--\":13:15   */\n      0x20\n        /* \"--CODEGEN--\":8:11   */\n      dup2\n        /* \"--CODEGEN--\":5:16   */\n      lt\n        /* \"--CODEGEN--\":2:4   */\n      iszero\n      tag_205\n      jumpi\n        /* \"--CODEGEN--\":29:30   */\n      0x0\n        /* \"--CODEGEN--\":26:27   */\n      dup1\n        /* \"--CODEGEN--\":19:31   */\n      revert\n        /* \"--CODEGEN--\":2:4   */\n    tag_205:\n        /* \"Project-1-AuctionPlatform/AuctionPlatform.sol\":2920:2952  auctionList[_aucId].getEndTime() */\n      dup2\n      add\n      swap1\n      dup1\n      dup1\n      mload\n      swap1\n      0x20\n      add\n      swap1\n      swap3\n      swap2\n      swap1\n      pop\n      pop\n      pop\n        /* \"Project-1-AuctionPlatform/AuctionPlatform.sol\":2900:2952  uint256 timeStamp = auctionList[_aucId].getEndTime() */\n      swap2\n      pop\n        /* \"Project-1-AuctionPlatform/AuctionPlatform.sol\":3076:3152  BokkyPooBahsDateTimeLibrary.timestampToDate(... */\n      tag_206\n        /* \"Project-1-AuctionPlatform/AuctionPlatform.sol\":3133:3142  timeStamp */\n      dup3\n        /* \"Project-1-AuctionPlatform/AuctionPlatform.sol\":3076:3119  BokkyPooBahsDateTimeLibrary.timestampToDate */\n      tag_191\n        /* \"Project-1-AuctionPlatform/AuctionPlatform.sol\":3076:3152  BokkyPooBahsDateTimeLibrary.timestampToDate(... */\n      jump\t// in\n    tag_206:\n        /* \"Project-1-AuctionPlatform/AuctionPlatform.sol\":3055:3152  (year, month, day) = BokkyPooBahsDateTimeLibrary.timestampToDate(... */\n      dup1\n      swap6\n      pop\n      dup2\n      swap7\n      pop\n      dup3\n      swap8\n      pop\n      pop\n      pop\n      pop\n        /* \"Project-1-AuctionPlatform/AuctionPlatform.sol\":2618:3159  function getAuctionEndTime(uint256 _aucId)... */\n      pop\n      pop\n      swap2\n      swap4\n      swap1\n      swap3\n      pop\n      jump\t// out\n        /* \"Project-1-AuctionPlatform/AuctionPlatform.sol\":7639:8512  function bidOnAuction(uint256 _aucId, uint256 _bidVal)... */\n    tag_50:\n        /* \"Project-1-AuctionPlatform/AuctionPlatform.sol\":7727:7733  _aucId */\n      dup2\n        /* \"Project-1-AuctionPlatform/AuctionPlatform.sol\":11919:11924  aucId */\n      sload(0x0)\n        /* \"Project-1-AuctionPlatform/AuctionPlatform.sol\":11909:11915  _aucId */\n      dup2\n        /* \"Project-1-AuctionPlatform/AuctionPlatform.sol\":11909:11924  _aucId <= aucId */\n      gt\n      iszero\n        /* \"Project-1-AuctionPlatform/AuctionPlatform.sol\":11909:11994  _aucId <= aucId &&... */\n      dup1\n      iszero\n      tag_208\n      jumpi\n      pop\n        /* \"Project-1-AuctionPlatform/AuctionPlatform.sol\":11979:11994  block.timestamp */\n      timestamp\n        /* \"Project-1-AuctionPlatform/AuctionPlatform.sol\":11944:11955  auctionList */\n      0x1\n        /* \"Project-1-AuctionPlatform/AuctionPlatform.sol\":11956:11962  _aucId */\n      dup3\n        /* \"Project-1-AuctionPlatform/AuctionPlatform.sol\":11944:11963  auctionList[_aucId] */\n      dup2\n      sload\n      dup2\n      lt\n      iszero\n      iszero\n      tag_209\n      jumpi\n      invalid\n    tag_209:\n      swap1\n      0x0\n      mstore\n      keccak256(0x0, 0x20)\n      add\n      0x0\n      swap1\n      sload\n      swap1\n      0x100\n      exp\n      swap1\n      div\n      0xffffffffffffffffffffffffffffffffffffffff\n      and\n        /* \"Project-1-AuctionPlatform/AuctionPlatform.sol\":11944:11974  auctionList[_aucId].getEndTime */\n      0xffffffffffffffffffffffffffffffffffffffff\n      and\n      0x439f5ac2\n        /* \"Project-1-AuctionPlatform/AuctionPlatform.sol\":11944:11976  auctionList[_aucId].getEndTime() */\n      mload(0x40)\n      dup2\n      0xffffffff\n      and\n      0x100000000000000000000000000000000000000000000000000000000\n      mul\n      dup2\n      mstore\n      0x4\n      add\n      0x20\n      mload(0x40)\n      dup1\n      dup4\n      sub\n      dup2\n      0x0\n      dup8\n      dup1\n      extcodesize\n      iszero\n        /* \"--CODEGEN--\":8:17   */\n      dup1\n        /* \"--CODEGEN--\":5:7   */\n      iszero\n      tag_211\n      jumpi\n        /* \"--CODEGEN--\":30:31   */\n      0x0\n        /* \"--CODEGEN--\":27:28   */\n      dup1\n        /* \"--CODEGEN--\":20:32   */\n      revert\n        /* \"--CODEGEN--\":5:7   */\n    tag_211:\n        /* \"Project-1-AuctionPlatform/AuctionPlatform.sol\":11944:11976  auctionList[_aucId].getEndTime() */\n      pop\n      gas\n      call\n      iszero\n        /* \"--CODEGEN--\":8:17   */\n      dup1\n        /* \"--CODEGEN--\":5:7   */\n      iszero\n      tag_212\n      jumpi\n        /* \"--CODEGEN--\":45:61   */\n      returndatasize\n        /* \"--CODEGEN--\":42:43   */\n      0x0\n        /* \"--CODEGEN--\":39:40   */\n      dup1\n        /* \"--CODEGEN--\":24:62   */\n      returndatacopy\n        /* \"--CODEGEN--\":77:93   */\n      returndatasize\n        /* \"--CODEGEN--\":74:75   */\n      0x0\n        /* \"--CODEGEN--\":67:94   */\n      revert\n        /* \"--CODEGEN--\":5:7   */\n    tag_212:\n        /* \"Project-1-AuctionPlatform/AuctionPlatform.sol\":11944:11976  auctionList[_aucId].getEndTime() */\n      pop\n      pop\n      pop\n      pop\n      mload(0x40)\n      returndatasize\n        /* \"--CODEGEN--\":13:15   */\n      0x20\n        /* \"--CODEGEN--\":8:11   */\n      dup2\n        /* \"--CODEGEN--\":5:16   */\n      lt\n        /* \"--CODEGEN--\":2:4   */\n      iszero\n      tag_213\n      jumpi\n        /* \"--CODEGEN--\":29:30   */\n      0x0\n        /* \"--CODEGEN--\":26:27   */\n      dup1\n        /* \"--CODEGEN--\":19:31   */\n      revert\n        /* \"--CODEGEN--\":2:4   */\n    tag_213:\n        /* \"Project-1-AuctionPlatform/AuctionPlatform.sol\":11944:11976  auctionList[_aucId].getEndTime() */\n      dup2\n      add\n      swap1\n      dup1\n      dup1\n      mload\n      swap1\n      0x20\n      add\n      swap1\n      swap3\n      swap2\n      swap1\n      pop\n      pop\n      pop\n        /* \"Project-1-AuctionPlatform/AuctionPlatform.sol\":11944:11994  auctionList[_aucId].getEndTime() > block.timestamp */\n      gt\n        /* \"Project-1-AuctionPlatform/AuctionPlatform.sol\":11909:11994  _aucId <= aucId &&... */\n    tag_208:\n        /* \"Project-1-AuctionPlatform/AuctionPlatform.sol\":11888:12054  require(... */\n      iszero\n      iszero\n      tag_214\n      jumpi\n      mload(0x40)\n      0x8c379a000000000000000000000000000000000000000000000000000000000\n      dup2\n      mstore\n      0x4\n      add\n      dup1\n      dup1\n      0x20\n      add\n      dup3\n      dup2\n      sub\n      dup3\n      mstore\n      0x22\n      dup2\n      mstore\n      0x20\n      add\n      dup1\n      0x41756374696f6e20697320496e616374697665206f72206e6f74207072657365\n      dup2\n      mstore\n      0x20\n      add\n      0x6e74000000000000000000000000000000000000000000000000000000000000\n      dup2\n      mstore\n      pop\n      0x40\n      add\n      swap2\n      pop\n      pop\n      mload(0x40)\n      dup1\n      swap2\n      sub\n      swap1\n      revert\n    tag_214:\n        /* \"Project-1-AuctionPlatform/AuctionPlatform.sol\":7957:7964  _bidVal */\n      dup2\n        /* \"Project-1-AuctionPlatform/AuctionPlatform.sol\":7920:7931  auctionList */\n      0x1\n        /* \"Project-1-AuctionPlatform/AuctionPlatform.sol\":7932:7938  _aucId */\n      dup5\n        /* \"Project-1-AuctionPlatform/AuctionPlatform.sol\":7920:7939  auctionList[_aucId] */\n      dup2\n      sload\n      dup2\n      lt\n      iszero\n      iszero\n      tag_216\n      jumpi\n      invalid\n    tag_216:\n      swap1\n      0x0\n      mstore\n      keccak256(0x0, 0x20)\n      add\n      0x0\n      swap1\n      sload\n      swap1\n      0x100\n      exp\n      swap1\n      div\n      0xffffffffffffffffffffffffffffffffffffffff\n      and\n        /* \"Project-1-AuctionPlatform/AuctionPlatform.sol\":7920:7952  auctionList[_aucId].getMinBidVal */\n      0xffffffffffffffffffffffffffffffffffffffff\n      and\n      0xad934674\n        /* \"Project-1-AuctionPlatform/AuctionPlatform.sol\":7920:7954  auctionList[_aucId].getMinBidVal() */\n      mload(0x40)\n      dup2\n      0xffffffff\n      and\n      0x100000000000000000000000000000000000000000000000000000000\n      mul\n      dup2\n      mstore\n      0x4\n      add\n      0x20\n      mload(0x40)\n      dup1\n      dup4\n      sub\n      dup2\n      0x0\n      dup8\n      dup1\n      extcodesize\n      iszero\n        /* \"--CODEGEN--\":8:17   */\n      dup1\n        /* \"--CODEGEN--\":5:7   */\n      iszero\n      tag_218\n      jumpi\n        /* \"--CODEGEN--\":30:31   */\n      0x0\n        /* \"--CODEGEN--\":27:28   */\n      dup1\n        /* \"--CODEGEN--\":20:32   */\n      revert\n        /* \"--CODEGEN--\":5:7   */\n    tag_218:\n        /* \"Project-1-AuctionPlatform/AuctionPlatform.sol\":7920:7954  auctionList[_aucId].getMinBidVal() */\n      pop\n      gas\n      call\n      iszero\n        /* \"--CODEGEN--\":8:17   */\n      dup1\n        /* \"--CODEGEN--\":5:7   */\n      iszero\n      tag_219\n      jumpi\n        /* \"--CODEGEN--\":45:61   */\n      returndatasize\n        /* \"--CODEGEN--\":42:43   */\n      0x0\n        /* \"--CODEGEN--\":39:40   */\n      dup1\n        /* \"--CODEGEN--\":24:62   */\n      returndatacopy\n        /* \"--CODEGEN--\":77:93   */\n      returndatasize\n        /* \"--CODEGEN--\":74:75   */\n      0x0\n        /* \"--CODEGEN--\":67:94   */\n      revert\n        /* \"--CODEGEN--\":5:7   */\n    tag_219:\n        /* \"Project-1-AuctionPlatform/AuctionPlatform.sol\":7920:7954  auctionList[_aucId].getMinBidVal() */\n      pop\n      pop\n      pop\n      pop\n      mload(0x40)\n      returndatasize\n        /* \"--CODEGEN--\":13:15   */\n      0x20\n        /* \"--CODEGEN--\":8:11   */\n      dup2\n        /* \"--CODEGEN--\":5:16   */\n      lt\n        /* \"--CODEGEN--\":2:4   */\n      iszero\n      tag_220\n      jumpi\n        /* \"--CODEGEN--\":29:30   */\n      0x0\n        /* \"--CODEGEN--\":26:27   */\n      dup1\n        /* \"--CODEGEN--\":19:31   */\n      revert\n        /* \"--CODEGEN--\":2:4   */\n    tag_220:\n        /* \"Project-1-AuctionPlatform/AuctionPlatform.sol\":7920:7954  auctionList[_aucId].getMinBidVal() */\n      dup2\n      add\n      swap1\n      dup1\n      dup1\n      mload\n      swap1\n      0x20\n      add\n      swap1\n      swap3\n      swap2\n      swap1\n      pop\n      pop\n      pop\n        /* \"Project-1-AuctionPlatform/AuctionPlatform.sol\":7920:7964  auctionList[_aucId].getMinBidVal() < _bidVal */\n      lt\n        /* \"Project-1-AuctionPlatform/AuctionPlatform.sol\":7899:8048  require(... */\n      iszero\n      iszero\n      tag_221\n      jumpi\n      mload(0x40)\n      0x8c379a000000000000000000000000000000000000000000000000000000000\n      dup2\n      mstore\n      0x4\n      add\n      dup1\n      dup1\n      0x20\n      add\n      dup3\n      dup2\n      sub\n      dup3\n      mstore\n      0x3a\n      dup2\n      mstore\n      0x20\n      add\n      dup1\n      0x4269642076616c75652063616e6e6f74206265206c657373207468616e206d69\n      dup2\n      mstore\n      0x20\n      add\n      0x6e696e756d206269642076616c7565206f662061756374696f6e000000000000\n      dup2\n      mstore\n      pop\n      0x40\n      add\n      swap2\n      pop\n      pop\n      mload(0x40)\n      dup1\n      swap2\n      sub\n      swap1\n      revert\n    tag_221:\n        /* \"Project-1-AuctionPlatform/AuctionPlatform.sol\":8092:8098  _aucId */\n      dup3\n        /* \"Project-1-AuctionPlatform/AuctionPlatform.sol\":8067:8076  aucOwners */\n      0x2\n        /* \"Project-1-AuctionPlatform/AuctionPlatform.sol\":8067:8088  aucOwners[msg.sender] */\n      0x0\n        /* \"Project-1-AuctionPlatform/AuctionPlatform.sol\":8077:8087  msg.sender */\n      caller\n        /* \"Project-1-AuctionPlatform/AuctionPlatform.sol\":8067:8088  aucOwners[msg.sender] */\n      0xffffffffffffffffffffffffffffffffffffffff\n      and\n      0xffffffffffffffffffffffffffffffffffffffff\n      and\n      dup2\n      mstore\n      0x20\n      add\n      swap1\n      dup2\n      mstore\n      0x20\n      add\n      0x0\n      keccak256\n      sload\n        /* \"Project-1-AuctionPlatform/AuctionPlatform.sol\":8067:8098  aucOwners[msg.sender] != _aucId */\n      eq\n      iszero\n        /* \"Project-1-AuctionPlatform/AuctionPlatform.sol\":8059:8127  require(aucOwners[msg.sender] != _aucId, \"Can't bid on own Auction\") */\n      iszero\n      iszero\n      tag_222\n      jumpi\n      mload(0x40)\n      0x8c379a000000000000000000000000000000000000000000000000000000000\n      dup2\n      mstore\n      0x4\n      add\n      dup1\n      dup1\n      0x20\n      add\n      dup3\n      dup2\n      sub\n      dup3\n      mstore\n      0x18\n      dup2\n      mstore\n      0x20\n      add\n      dup1\n      0x43616e277420626964206f6e206f776e2041756374696f6e0000000000000000\n      dup2\n      mstore\n      pop\n      0x20\n      add\n      swap2\n      pop\n      pop\n      mload(0x40)\n      dup1\n      swap2\n      sub\n      swap1\n      revert\n    tag_222:\n        /* \"Project-1-AuctionPlatform/AuctionPlatform.sol\":8282:8293  auctionList */\n      0x1\n        /* \"Project-1-AuctionPlatform/AuctionPlatform.sol\":8294:8300  _aucId */\n      dup4\n        /* \"Project-1-AuctionPlatform/AuctionPlatform.sol\":8282:8301  auctionList[_aucId] */\n      dup2\n      sload\n      dup2\n      lt\n      iszero\n      iszero\n      tag_223\n      jumpi\n      invalid\n    tag_223:\n      swap1\n      0x0\n      mstore\n      keccak256(0x0, 0x20)\n      add\n      0x0\n      swap1\n      sload\n      swap1\n      0x100\n      exp\n      swap1\n      div\n      0xffffffffffffffffffffffffffffffffffffffff\n      and\n        /* \"Project-1-AuctionPlatform/AuctionPlatform.sol\":8282:8311  auctionList[_aucId].createBid */\n      0xffffffffffffffffffffffffffffffffffffffff\n      and\n      0x659dd2b4\n        /* \"Project-1-AuctionPlatform/AuctionPlatform.sol\":8312:8319  _bidVal */\n      dup4\n        /* \"Project-1-AuctionPlatform/AuctionPlatform.sol\":8282:8320  auctionList[_aucId].createBid(_bidVal) */\n      mload(0x40)\n      dup3\n      0xffffffff\n      and\n      0x100000000000000000000000000000000000000000000000000000000\n      mul\n      dup2\n      mstore\n      0x4\n      add\n      dup1\n      dup3\n      dup2\n      mstore\n      0x20\n      add\n      swap2\n      pop\n      pop\n      0x0\n      mload(0x40)\n      dup1\n      dup4\n      sub\n      dup2\n      0x0\n      dup8\n      dup1\n      extcodesize\n      iszero\n        /* \"--CODEGEN--\":8:17   */\n      dup1\n        /* \"--CODEGEN--\":5:7   */\n      iszero\n      tag_225\n      jumpi\n        /* \"--CODEGEN--\":30:31   */\n      0x0\n        /* \"--CODEGEN--\":27:28   */\n      dup1\n        /* \"--CODEGEN--\":20:32   */\n      revert\n        /* \"--CODEGEN--\":5:7   */\n    tag_225:\n        /* \"Project-1-AuctionPlatform/AuctionPlatform.sol\":8282:8320  auctionList[_aucId].createBid(_bidVal) */\n      pop\n      gas\n      call\n      iszero\n        /* \"--CODEGEN--\":8:17   */\n      dup1\n        /* \"--CODEGEN--\":5:7   */\n      iszero\n      tag_226\n      jumpi\n        /* \"--CODEGEN--\":45:61   */\n      returndatasize\n        /* \"--CODEGEN--\":42:43   */\n      0x0\n        /* \"--CODEGEN--\":39:40   */\n      dup1\n        /* \"--CODEGEN--\":24:62   */\n      returndatacopy\n        /* \"--CODEGEN--\":77:93   */\n      returndatasize\n        /* \"--CODEGEN--\":74:75   */\n      0x0\n        /* \"--CODEGEN--\":67:94   */\n      revert\n        /* \"--CODEGEN--\":5:7   */\n    tag_226:\n        /* \"Project-1-AuctionPlatform/AuctionPlatform.sol\":8282:8320  auctionList[_aucId].createBid(_bidVal) */\n      pop\n      pop\n      pop\n      pop\n        /* \"Project-1-AuctionPlatform/AuctionPlatform.sol\":8420:8429  bidOwners */\n      0x3\n        /* \"Project-1-AuctionPlatform/AuctionPlatform.sol\":8420:8441  bidOwners[msg.sender] */\n      0x0\n        /* \"Project-1-AuctionPlatform/AuctionPlatform.sol\":8430:8440  msg.sender */\n      caller\n        /* \"Project-1-AuctionPlatform/AuctionPlatform.sol\":8420:8441  bidOwners[msg.sender] */\n      0xffffffffffffffffffffffffffffffffffffffff\n      and\n      0xffffffffffffffffffffffffffffffffffffffff\n      and\n      dup2\n      mstore\n      0x20\n      add\n      swap1\n      dup2\n      mstore\n      0x20\n      add\n      0x0\n      keccak256\n        /* \"Project-1-AuctionPlatform/AuctionPlatform.sol\":8447:8453  _aucId */\n      dup4\n        /* \"Project-1-AuctionPlatform/AuctionPlatform.sol\":8420:8454  bidOwners[msg.sender].push(_aucId) */\n      swap1\n      dup1\n        /* \"--CODEGEN--\":39:40   */\n      0x1\n        /* \"--CODEGEN--\":33:36   */\n      dup2\n        /* \"--CODEGEN--\":27:37   */\n      sload\n        /* \"--CODEGEN--\":23:41   */\n      add\n        /* \"--CODEGEN--\":57:67   */\n      dup1\n        /* \"--CODEGEN--\":52:55   */\n      dup3\n        /* \"--CODEGEN--\":45:68   */\n      sstore\n        /* \"--CODEGEN--\":79:89   */\n      dup1\n        /* \"--CODEGEN--\":72:89   */\n      swap2\n      pop\n        /* \"--CODEGEN--\":0:93   */\n      pop\n        /* \"Project-1-AuctionPlatform/AuctionPlatform.sol\":8420:8454  bidOwners[msg.sender].push(_aucId) */\n      swap1\n      0x1\n      dup3\n      sub\n      swap1\n      0x0\n      mstore\n      keccak256(0x0, 0x20)\n      add\n      0x0\n      swap1\n      swap2\n      swap3\n      swap1\n      swap2\n      swap1\n      swap2\n      pop\n      sstore\n      pop\n        /* \"Project-1-AuctionPlatform/AuctionPlatform.sol\":8498:8504  _aucId */\n      dup3\n        /* \"Project-1-AuctionPlatform/AuctionPlatform.sol\":8486:8496  msg.sender */\n      caller\n        /* \"Project-1-AuctionPlatform/AuctionPlatform.sol\":8470:8505  biddedOnAuction(msg.sender, _aucId) */\n      0xffffffffffffffffffffffffffffffffffffffff\n      and\n      0x248176d18d0b2664c1964de940d9d88115d4d632e9047ec131dc7cfd5b41535e\n      mload(0x40)\n      mload(0x40)\n      dup1\n      swap2\n      sub\n      swap1\n      log3\n        /* \"Project-1-AuctionPlatform/AuctionPlatform.sol\":7639:8512  function bidOnAuction(uint256 _aucId, uint256 _bidVal)... */\n      pop\n      pop\n      pop\n      jump\t// out\n        /* \"Project-1-AuctionPlatform/AuctionPlatform.sol\":1707:1904  function getAuctionDescription(uint256 _aucId)... */\n    tag_53:\n        /* \"Project-1-AuctionPlatform/AuctionPlatform.sol\":1825:1831  string */\n      0x60\n        /* \"Project-1-AuctionPlatform/AuctionPlatform.sol\":1800:1806  _aucId */\n      dup2\n        /* \"Project-1-AuctionPlatform/AuctionPlatform.sol\":11919:11924  aucId */\n      sload(0x0)\n        /* \"Project-1-AuctionPlatform/AuctionPlatform.sol\":11909:11915  _aucId */\n      dup2\n        /* \"Project-1-AuctionPlatform/AuctionPlatform.sol\":11909:11924  _aucId <= aucId */\n      gt\n      iszero\n        /* \"Project-1-AuctionPlatform/AuctionPlatform.sol\":11909:11994  _aucId <= aucId &&... */\n      dup1\n      iszero\n      tag_229\n      jumpi\n      pop\n        /* \"Project-1-AuctionPlatform/AuctionPlatform.sol\":11979:11994  block.timestamp */\n      timestamp\n        /* \"Project-1-AuctionPlatform/AuctionPlatform.sol\":11944:11955  auctionList */\n      0x1\n        /* \"Project-1-AuctionPlatform/AuctionPlatform.sol\":11956:11962  _aucId */\n      dup3\n        /* \"Project-1-AuctionPlatform/AuctionPlatform.sol\":11944:11963  auctionList[_aucId] */\n      dup2\n      sload\n      dup2\n      lt\n      iszero\n      iszero\n      tag_230\n      jumpi\n      invalid\n    tag_230:\n      swap1\n      0x0\n      mstore\n      keccak256(0x0, 0x20)\n      add\n      0x0\n      swap1\n      sload\n      swap1\n      0x100\n      exp\n      swap1\n      div\n      0xffffffffffffffffffffffffffffffffffffffff\n      and\n        /* \"Project-1-AuctionPlatform/AuctionPlatform.sol\":11944:11974  auctionList[_aucId].getEndTime */\n      0xffffffffffffffffffffffffffffffffffffffff\n      and\n      0x439f5ac2\n        /* \"Project-1-AuctionPlatform/AuctionPlatform.sol\":11944:11976  auctionList[_aucId].getEndTime() */\n      mload(0x40)\n      dup2\n      0xffffffff\n      and\n      0x100000000000000000000000000000000000000000000000000000000\n      mul\n      dup2\n      mstore\n      0x4\n      add\n      0x20\n      mload(0x40)\n      dup1\n      dup4\n      sub\n      dup2\n      0x0\n      dup8\n      dup1\n      extcodesize\n      iszero\n        /* \"--CODEGEN--\":8:17   */\n      dup1\n        /* \"--CODEGEN--\":5:7   */\n      iszero\n      tag_232\n      jumpi\n        /* \"--CODEGEN--\":30:31   */\n      0x0\n        /* \"--CODEGEN--\":27:28   */\n      dup1\n        /* \"--CODEGEN--\":20:32   */\n      revert\n        /* \"--CODEGEN--\":5:7   */\n    tag_232:\n        /* \"Project-1-AuctionPlatform/AuctionPlatform.sol\":11944:11976  auctionList[_aucId].getEndTime() */\n      pop\n      gas\n      call\n      iszero\n        /* \"--CODEGEN--\":8:17   */\n      dup1\n        /* \"--CODEGEN--\":5:7   */\n      iszero\n      tag_233\n      jumpi\n        /* \"--CODEGEN--\":45:61   */\n      returndatasize\n        /* \"--CODEGEN--\":42:43   */\n      0x0\n        /* \"--CODEGEN--\":39:40   */\n      dup1\n        /* \"--CODEGEN--\":24:62   */\n      returndatacopy\n        /* \"--CODEGEN--\":77:93   */\n      returndatasize\n        /* \"--CODEGEN--\":74:75   */\n      0x0\n        /* \"--CODEGEN--\":67:94   */\n      revert\n        /* \"--CODEGEN--\":5:7   */\n    tag_233:\n        /* \"Project-1-AuctionPlatform/AuctionPlatform.sol\":11944:11976  auctionList[_aucId].getEndTime() */\n      pop\n      pop\n      pop\n      pop\n      mload(0x40)\n      returndatasize\n        /* \"--CODEGEN--\":13:15   */\n      0x20\n        /* \"--CODEGEN--\":8:11   */\n      dup2\n        /* \"--CODEGEN--\":5:16   */\n      lt\n        /* \"--CODEGEN--\":2:4   */\n      iszero\n      tag_234\n      jumpi\n        /* \"--CODEGEN--\":29:30   */\n      0x0\n        /* \"--CODEGEN--\":26:27   */\n      dup1\n        /* \"--CODEGEN--\":19:31   */\n      revert\n        /* \"--CODEGEN--\":2:4   */\n    tag_234:\n        /* \"Project-1-AuctionPlatform/AuctionPlatform.sol\":11944:11976  auctionList[_aucId].getEndTime() */\n      dup2\n      add\n      swap1\n      dup1\n      dup1\n      mload\n      swap1\n      0x20\n      add\n      swap1\n      swap3\n      swap2\n      swap1\n      pop\n      pop\n      pop\n        /* \"Project-1-AuctionPlatform/AuctionPlatform.sol\":11944:11994  auctionList[_aucId].getEndTime() > block.timestamp */\n      gt\n        /* \"Project-1-AuctionPlatform/AuctionPlatform.sol\":11909:11994  _aucId <= aucId &&... */\n    tag_229:\n        /* \"Project-1-AuctionPlatform/AuctionPlatform.sol\":11888:12054  require(... */\n      iszero\n      iszero\n      tag_235\n      jumpi\n      mload(0x40)\n      0x8c379a000000000000000000000000000000000000000000000000000000000\n      dup2\n      mstore\n      0x4\n      add\n      dup1\n      dup1\n      0x20\n      add\n      dup3\n      dup2\n      sub\n      dup3\n      mstore\n      0x22\n      dup2\n      mstore\n      0x20\n      add\n      dup1\n      0x41756374696f6e20697320496e616374697665206f72206e6f74207072657365\n      dup2\n      mstore\n      0x20\n      add\n      0x6e74000000000000000000000000000000000000000000000000000000000000\n      dup2\n      mstore\n      pop\n      0x40\n      add\n      swap2\n      pop\n      pop\n      mload(0x40)\n      dup1\n      swap2\n      sub\n      swap1\n      revert\n    tag_235:\n        /* \"Project-1-AuctionPlatform/AuctionPlatform.sol\":1861:1872  auctionList */\n      0x1\n        /* \"Project-1-AuctionPlatform/AuctionPlatform.sol\":1873:1879  _aucId */\n      dup4\n        /* \"Project-1-AuctionPlatform/AuctionPlatform.sol\":1861:1880  auctionList[_aucId] */\n      dup2\n      sload\n      dup2\n      lt\n      iszero\n      iszero\n      tag_237\n      jumpi\n      invalid\n    tag_237:\n      swap1\n      0x0\n      mstore\n      keccak256(0x0, 0x20)\n      add\n      0x0\n      swap1\n      sload\n      swap1\n      0x100\n      exp\n      swap1\n      div\n      0xffffffffffffffffffffffffffffffffffffffff\n      and\n        /* \"Project-1-AuctionPlatform/AuctionPlatform.sol\":1861:1895  auctionList[_aucId].getDescription */\n      0xffffffffffffffffffffffffffffffffffffffff\n      and\n      0x1a092541\n        /* \"Project-1-AuctionPlatform/AuctionPlatform.sol\":1861:1897  auctionList[_aucId].getDescription() */\n      mload(0x40)\n      dup2\n      0xffffffff\n      and\n      0x100000000000000000000000000000000000000000000000000000000\n      mul\n      dup2\n      mstore\n      0x4\n      add\n      0x0\n      mload(0x40)\n      dup1\n      dup4\n      sub\n      dup2\n      0x0\n      dup8\n      dup1\n      extcodesize\n      iszero\n        /* \"--CODEGEN--\":8:17   */\n      dup1\n        /* \"--CODEGEN--\":5:7   */\n      iszero\n      tag_239\n      jumpi\n        /* \"--CODEGEN--\":30:31   */\n      0x0\n        /* \"--CODEGEN--\":27:28   */\n      dup1\n        /* \"--CODEGEN--\":20:32   */\n      revert\n        /* \"--CODEGEN--\":5:7   */\n    tag_239:\n        /* \"Project-1-AuctionPlatform/AuctionPlatform.sol\":1861:1897  auctionList[_aucId].getDescription() */\n      pop\n      gas\n      call\n      iszero\n        /* \"--CODEGEN--\":8:17   */\n      dup1\n        /* \"--CODEGEN--\":5:7   */\n      iszero\n      tag_240\n      jumpi\n        /* \"--CODEGEN--\":45:61   */\n      returndatasize\n        /* \"--CODEGEN--\":42:43   */\n      0x0\n        /* \"--CODEGEN--\":39:40   */\n      dup1\n        /* \"--CODEGEN--\":24:62   */\n      returndatacopy\n        /* \"--CODEGEN--\":77:93   */\n      returndatasize\n        /* \"--CODEGEN--\":74:75   */\n      0x0\n        /* \"--CODEGEN--\":67:94   */\n      revert\n        /* \"--CODEGEN--\":5:7   */\n    tag_240:\n        /* \"Project-1-AuctionPlatform/AuctionPlatform.sol\":1861:1897  auctionList[_aucId].getDescription() */\n      pop\n      pop\n      pop\n      pop\n      mload(0x40)\n        /* \"--CODEGEN--\":39:55   */\n      returndatasize\n        /* \"--CODEGEN--\":36:37   */\n      0x0\n        /* \"--CODEGEN--\":17:34   */\n      dup3\n        /* \"--CODEGEN--\":2:56   */\n      returndatacopy\n        /* \"Project-1-AuctionPlatform/AuctionPlatform.sol\":1861:1897  auctionList[_aucId].getDescription() */\n      returndatasize\n        /* \"--CODEGEN--\":101:105   */\n      0x1f\n        /* \"--CODEGEN--\":97:106   */\n      not\n        /* \"--CODEGEN--\":90:94   */\n      0x1f\n        /* \"--CODEGEN--\":84:88   */\n      dup3\n        /* \"--CODEGEN--\":80:95   */\n      add\n        /* \"--CODEGEN--\":76:107   */\n      and\n        /* \"--CODEGEN--\":69:74   */\n      dup3\n        /* \"--CODEGEN--\":65:108   */\n      add\n        /* \"--CODEGEN--\":126:132   */\n      dup1\n        /* \"--CODEGEN--\":120:124   */\n      0x40\n        /* \"--CODEGEN--\":113:133   */\n      mstore\n        /* \"--CODEGEN--\":0:138   */\n      pop\n        /* \"--CODEGEN--\":13:15   */\n      0x20\n        /* \"--CODEGEN--\":8:11   */\n      dup2\n        /* \"--CODEGEN--\":5:16   */\n      lt\n        /* \"--CODEGEN--\":2:4   */\n      iszero\n      tag_241\n      jumpi\n        /* \"--CODEGEN--\":29:30   */\n      0x0\n        /* \"--CODEGEN--\":26:27   */\n      dup1\n        /* \"--CODEGEN--\":19:31   */\n      revert\n        /* \"--CODEGEN--\":2:4   */\n    tag_241:\n        /* \"Project-1-AuctionPlatform/AuctionPlatform.sol\":1861:1897  auctionList[_aucId].getDescription() */\n      dup2\n      add\n      swap1\n      dup1\n      dup1\n      mload\n        /* \"--CODEGEN--\":20:31   */\n      0x100000000\n        /* \"--CODEGEN--\":15:18   */\n      dup2\n        /* \"--CODEGEN--\":12:32   */\n      gt\n        /* \"--CODEGEN--\":9:11   */\n      iszero\n      tag_242\n      jumpi\n        /* \"--CODEGEN--\":45:46   */\n      0x0\n        /* \"--CODEGEN--\":42:43   */\n      dup1\n        /* \"--CODEGEN--\":35:47   */\n      revert\n        /* \"--CODEGEN--\":9:11   */\n    tag_242:\n        /* \"--CODEGEN--\":73:84   */\n      dup3\n        /* \"--CODEGEN--\":68:71   */\n      dup2\n        /* \"--CODEGEN--\":64:85   */\n      add\n        /* \"--CODEGEN--\":57:85   */\n      swap1\n      pop\n        /* \"--CODEGEN--\":126:130   */\n      0x20\n        /* \"--CODEGEN--\":121:124   */\n      dup2\n        /* \"--CODEGEN--\":117:131   */\n      add\n        /* \"--CODEGEN--\":163:172   */\n      dup5\n        /* \"--CODEGEN--\":145:161   */\n      dup2\n        /* \"--CODEGEN--\":142:173   */\n      gt\n        /* \"--CODEGEN--\":139:141   */\n      iszero\n      tag_243\n      jumpi\n        /* \"--CODEGEN--\":186:187   */\n      0x0\n        /* \"--CODEGEN--\":183:184   */\n      dup1\n        /* \"--CODEGEN--\":176:188   */\n      revert\n        /* \"--CODEGEN--\":139:141   */\n    tag_243:\n        /* \"--CODEGEN--\":224:227   */\n      dup2\n        /* \"--CODEGEN--\":218:228   */\n      mload\n        /* \"--CODEGEN--\":338:347   */\n      dup6\n        /* \"--CODEGEN--\":333:334   */\n      0x1\n        /* \"--CODEGEN--\":319:331   */\n      dup3\n        /* \"--CODEGEN--\":315:335   */\n      mul\n        /* \"--CODEGEN--\":297:313   */\n      dup4\n        /* \"--CODEGEN--\":293:336   */\n      add\n        /* \"--CODEGEN--\":290:348   */\n      gt\n        /* \"--CODEGEN--\":268:279   */\n      0x100000000\n        /* \"--CODEGEN--\":254:266   */\n      dup3\n        /* \"--CODEGEN--\":251:280   */\n      gt\n        /* \"--CODEGEN--\":239:357   */\n      or\n        /* \"--CODEGEN--\":236:238   */\n      iszero\n      tag_244\n      jumpi\n        /* \"--CODEGEN--\":370:371   */\n      0x0\n        /* \"--CODEGEN--\":367:368   */\n      dup1\n        /* \"--CODEGEN--\":360:372   */\n      revert\n        /* \"--CODEGEN--\":236:238   */\n    tag_244:\n        /* \"--CODEGEN--\":0:382   */\n      pop\n      pop\n        /* \"Project-1-AuctionPlatform/AuctionPlatform.sol\":1861:1897  auctionList[_aucId].getDescription() */\n      swap3\n      swap2\n      swap1\n      pop\n      pop\n      pop\n        /* \"Project-1-AuctionPlatform/AuctionPlatform.sol\":1854:1897  return auctionList[_aucId].getDescription() */\n      swap2\n      pop\n        /* \"Project-1-AuctionPlatform/AuctionPlatform.sol\":1707:1904  function getAuctionDescription(uint256 _aucId)... */\n      pop\n      swap2\n      swap1\n      pop\n      jump\t// out\n        /* \"Project-1-AuctionPlatform/AuctionPlatform.sol\":7278:7560  function endAuction(uint256 _bid) public ifAuctionOwner {... */\n    tag_60:\n        /* \"Project-1-AuctionPlatform/AuctionPlatform.sol\":7416:7430  address winner */\n      0x0\n        /* \"Project-1-AuctionPlatform/AuctionPlatform.sol\":12455:12456  0 */\n      dup1\n        /* \"Project-1-AuctionPlatform/AuctionPlatform.sol\":12430:12439  aucOwners */\n      0x2\n        /* \"Project-1-AuctionPlatform/AuctionPlatform.sol\":12430:12451  aucOwners[msg.sender] */\n      0x0\n        /* \"Project-1-AuctionPlatform/AuctionPlatform.sol\":12440:12450  msg.sender */\n      caller\n        /* \"Project-1-AuctionPlatform/AuctionPlatform.sol\":12430:12451  aucOwners[msg.sender] */\n      0xffffffffffffffffffffffffffffffffffffffff\n      and\n      0xffffffffffffffffffffffffffffffffffffffff\n      and\n      dup2\n      mstore\n      0x20\n      add\n      swap1\n      dup2\n      mstore\n      0x20\n      add\n      0x0\n      keccak256\n      sload\n        /* \"Project-1-AuctionPlatform/AuctionPlatform.sol\":12430:12456  aucOwners[msg.sender] != 0 */\n      eq\n      iszero\n        /* \"Project-1-AuctionPlatform/AuctionPlatform.sol\":12422:12493  require(aucOwners[msg.sender] != 0, \"You haven't created any Auctions\") */\n      iszero\n      iszero\n      tag_246\n      jumpi\n      mload(0x40)\n      0x8c379a000000000000000000000000000000000000000000000000000000000\n      dup2\n      mstore\n      0x4\n      add\n      dup1\n      dup1\n      0x20\n      add\n      dup3\n      dup2\n      sub\n      dup3\n      mstore\n      0x20\n      dup2\n      mstore\n      0x20\n      add\n      dup1\n      0x596f7520686176656e2774206372656174656420616e792041756374696f6e73\n      dup2\n      mstore\n      pop\n      0x20\n      add\n      swap2\n      pop\n      pop\n      mload(0x40)\n      dup1\n      swap2\n      sub\n      swap1\n      revert\n    tag_246:\n        /* \"Project-1-AuctionPlatform/AuctionPlatform.sol\":7433:7444  auctionList */\n      0x1\n        /* \"Project-1-AuctionPlatform/AuctionPlatform.sol\":7445:7454  aucOwners */\n      0x2\n        /* \"Project-1-AuctionPlatform/AuctionPlatform.sol\":7445:7466  aucOwners[msg.sender] */\n      0x0\n        /* \"Project-1-AuctionPlatform/AuctionPlatform.sol\":7455:7465  msg.sender */\n      caller\n        /* \"Project-1-AuctionPlatform/AuctionPlatform.sol\":7445:7466  aucOwners[msg.sender] */\n      0xffffffffffffffffffffffffffffffffffffffff\n      and\n      0xffffffffffffffffffffffffffffffffffffffff\n      and\n      dup2\n      mstore\n      0x20\n      add\n      swap1\n      dup2\n      mstore\n      0x20\n      add\n      0x0\n      keccak256\n      sload\n        /* \"Project-1-AuctionPlatform/AuctionPlatform.sol\":7433:7467  auctionList[aucOwners[msg.sender]] */\n      dup2\n      sload\n      dup2\n      lt\n      iszero\n      iszero\n      tag_248\n      jumpi\n      invalid\n    tag_248:\n      swap1\n      0x0\n      mstore\n      keccak256(0x0, 0x20)\n      add\n      0x0\n      swap1\n      sload\n      swap1\n      0x100\n      exp\n      swap1\n      div\n      0xffffffffffffffffffffffffffffffffffffffff\n      and\n        /* \"Project-1-AuctionPlatform/AuctionPlatform.sol\":7433:7506  auctionList[aucOwners[msg.sender]]... */\n      0xffffffffffffffffffffffffffffffffffffffff\n      and\n      0xdee37a8e\n        /* \"Project-1-AuctionPlatform/AuctionPlatform.sol\":7507:7511  _bid */\n      dup4\n        /* \"Project-1-AuctionPlatform/AuctionPlatform.sol\":7433:7512  auctionList[aucOwners[msg.sender]]... */\n      mload(0x40)\n      dup3\n      0xffffffff\n      and\n      0x100000000000000000000000000000000000000000000000000000000\n      mul\n      dup2\n      mstore\n      0x4\n      add\n      dup1\n      dup3\n      dup2\n      mstore\n      0x20\n      add\n      swap2\n      pop\n      pop\n      0x20\n      mload(0x40)\n      dup1\n      dup4\n      sub\n      dup2\n      0x0\n      dup8\n      dup1\n      extcodesize\n      iszero\n        /* \"--CODEGEN--\":8:17   */\n      dup1\n        /* \"--CODEGEN--\":5:7   */\n      iszero\n      tag_250\n      jumpi\n        /* \"--CODEGEN--\":30:31   */\n      0x0\n        /* \"--CODEGEN--\":27:28   */\n      dup1\n        /* \"--CODEGEN--\":20:32   */\n      revert\n        /* \"--CODEGEN--\":5:7   */\n    tag_250:\n        /* \"Project-1-AuctionPlatform/AuctionPlatform.sol\":7433:7512  auctionList[aucOwners[msg.sender]]... */\n      pop\n      gas\n      call\n      iszero\n        /* \"--CODEGEN--\":8:17   */\n      dup1\n        /* \"--CODEGEN--\":5:7   */\n      iszero\n      tag_251\n      jumpi\n        /* \"--CODEGEN--\":45:61   */\n      returndatasize\n        /* \"--CODEGEN--\":42:43   */\n      0x0\n        /* \"--CODEGEN--\":39:40   */\n      dup1\n        /* \"--CODEGEN--\":24:62   */\n      returndatacopy\n        /* \"--CODEGEN--\":77:93   */\n      returndatasize\n        /* \"--CODEGEN--\":74:75   */\n      0x0\n        /* \"--CODEGEN--\":67:94   */\n      revert\n        /* \"--CODEGEN--\":5:7   */\n    tag_251:\n        /* \"Project-1-AuctionPlatform/AuctionPlatform.sol\":7433:7512  auctionList[aucOwners[msg.sender]]... */\n      pop\n      pop\n      pop\n      pop\n      mload(0x40)\n      returndatasize\n        /* \"--CODEGEN--\":13:15   */\n      0x20\n        /* \"--CODEGEN--\":8:11   */\n      dup2\n        /* \"--CODEGEN--\":5:16   */\n      lt\n        /* \"--CODEGEN--\":2:4   */\n      iszero\n      tag_252\n      jumpi\n        /* \"--CODEGEN--\":29:30   */\n      0x0\n        /* \"--CODEGEN--\":26:27   */\n      dup1\n        /* \"--CODEGEN--\":19:31   */\n      revert\n        /* \"--CODEGEN--\":2:4   */\n    tag_252:\n        /* \"Project-1-AuctionPlatform/AuctionPlatform.sol\":7433:7512  auctionList[aucOwners[msg.sender]]... */\n      dup2\n      add\n      swap1\n      dup1\n      dup1\n      mload\n      swap1\n      0x20\n      add\n      swap1\n      swap3\n      swap2\n      swap1\n      pop\n      pop\n      pop\n        /* \"Project-1-AuctionPlatform/AuctionPlatform.sol\":7416:7512  address winner = auctionList[aucOwners[msg.sender]]... */\n      swap1\n      pop\n        /* \"Project-1-AuctionPlatform/AuctionPlatform.sol\":7548:7552  _bid */\n      dup2\n        /* \"Project-1-AuctionPlatform/AuctionPlatform.sol\":7540:7546  winner */\n      dup2\n        /* \"Project-1-AuctionPlatform/AuctionPlatform.sol\":7527:7553  auctionEnded(winner, _bid) */\n      0xffffffffffffffffffffffffffffffffffffffff\n      and\n      0x6e0e2174dbf7b77c08b6f9a2799b9feda84a6d54a5644864582040100a47d4c5\n      mload(0x40)\n      mload(0x40)\n      dup1\n      swap2\n      sub\n      swap1\n      log3\n        /* \"Project-1-AuctionPlatform/AuctionPlatform.sol\":7278:7560  function endAuction(uint256 _bid) public ifAuctionOwner {... */\n      pop\n      pop\n      jump\t// out\n        /* \"Project-1-AuctionPlatform/AuctionPlatform.sol\":3567:3681  function getListOfOwnBids() public view ifBidded returns (uint256[]) {... */\n    tag_63:\n        /* \"Project-1-AuctionPlatform/AuctionPlatform.sol\":3625:3634  uint256[] */\n      0x60\n        /* \"Project-1-AuctionPlatform/AuctionPlatform.sol\":12642:12643  0 */\n      0x0\n        /* \"Project-1-AuctionPlatform/AuctionPlatform.sol\":12610:12619  bidOwners */\n      0x3\n        /* \"Project-1-AuctionPlatform/AuctionPlatform.sol\":12610:12631  bidOwners[msg.sender] */\n      0x0\n        /* \"Project-1-AuctionPlatform/AuctionPlatform.sol\":12620:12630  msg.sender */\n      caller\n        /* \"Project-1-AuctionPlatform/AuctionPlatform.sol\":12610:12631  bidOwners[msg.sender] */\n      0xffffffffffffffffffffffffffffffffffffffff\n      and\n      0xffffffffffffffffffffffffffffffffffffffff\n      and\n      dup2\n      mstore\n      0x20\n      add\n      swap1\n      dup2\n      mstore\n      0x20\n      add\n      0x0\n      keccak256\n        /* \"Project-1-AuctionPlatform/AuctionPlatform.sol\":12610:12638  bidOwners[msg.sender].length */\n      dup1\n      sload\n      swap1\n      pop\n        /* \"Project-1-AuctionPlatform/AuctionPlatform.sol\":12610:12643  bidOwners[msg.sender].length != 0 */\n      eq\n      iszero\n        /* \"Project-1-AuctionPlatform/AuctionPlatform.sol\":12602:12671  require(bidOwners[msg.sender].length != 0, \"You don't have any Bids\") */\n      iszero\n      iszero\n      tag_254\n      jumpi\n      mload(0x40)\n      0x8c379a000000000000000000000000000000000000000000000000000000000\n      dup2\n      mstore\n      0x4\n      add\n      dup1\n      dup1\n      0x20\n      add\n      dup3\n      dup2\n      sub\n      dup3\n      mstore\n      0x17\n      dup2\n      mstore\n      0x20\n      add\n      dup1\n      0x596f7520646f6e2774206861766520616e792042696473000000000000000000\n      dup2\n      mstore\n      pop\n      0x20\n      add\n      swap2\n      pop\n      pop\n      mload(0x40)\n      dup1\n      swap2\n      sub\n      swap1\n      revert\n    tag_254:\n        /* \"Project-1-AuctionPlatform/AuctionPlatform.sol\":3653:3662  bidOwners */\n      0x3\n        /* \"Project-1-AuctionPlatform/AuctionPlatform.sol\":3653:3674  bidOwners[msg.sender] */\n      0x0\n        /* \"Project-1-AuctionPlatform/AuctionPlatform.sol\":3663:3673  msg.sender */\n      caller\n        /* \"Project-1-AuctionPlatform/AuctionPlatform.sol\":3653:3674  bidOwners[msg.sender] */\n      0xffffffffffffffffffffffffffffffffffffffff\n      and\n      0xffffffffffffffffffffffffffffffffffffffff\n      and\n      dup2\n      mstore\n      0x20\n      add\n      swap1\n      dup2\n      mstore\n      0x20\n      add\n      0x0\n      keccak256\n        /* \"Project-1-AuctionPlatform/AuctionPlatform.sol\":3646:3674  return bidOwners[msg.sender] */\n      dup1\n      sload\n      dup1\n      0x20\n      mul\n      0x20\n      add\n      mload(0x40)\n      swap1\n      dup2\n      add\n      0x40\n      mstore\n      dup1\n      swap3\n      swap2\n      swap1\n      dup2\n      dup2\n      mstore\n      0x20\n      add\n      dup3\n      dup1\n      sload\n      dup1\n      iszero\n      tag_256\n      jumpi\n      0x20\n      mul\n      dup3\n      add\n      swap2\n      swap1\n      0x0\n      mstore\n      keccak256(0x0, 0x20)\n      swap1\n    tag_257:\n      dup2\n      sload\n      dup2\n      mstore\n      0x20\n      add\n      swap1\n      0x1\n      add\n      swap1\n      dup1\n      dup4\n      gt\n      tag_257\n      jumpi\n    tag_256:\n      pop\n      pop\n      pop\n      pop\n      pop\n      swap1\n      pop\n        /* \"Project-1-AuctionPlatform/AuctionPlatform.sol\":3567:3681  function getListOfOwnBids() public view ifBidded returns (uint256[]) {... */\n      swap1\n      jump\t// out\n        /* \"Project-1-AuctionPlatform/AuctionPlatform.sol\":8793:11511  function createAuction(... */\n    tag_69:\n        /* \"Project-1-AuctionPlatform/AuctionPlatform.sol\":10289:10307  uint256 start_time */\n      0x0\n        /* \"Project-1-AuctionPlatform/AuctionPlatform.sol\":10460:10476  uint256 end_time */\n      dup1\n        /* \"Project-1-AuctionPlatform/AuctionPlatform.sol\":11032:11045  Auction TempA */\n      0x0\n        /* \"Project-1-AuctionPlatform/AuctionPlatform.sol\":12235:12236  0 */\n      dup1\n        /* \"Project-1-AuctionPlatform/AuctionPlatform.sol\":12210:12219  aucOwners */\n      0x2\n        /* \"Project-1-AuctionPlatform/AuctionPlatform.sol\":12210:12231  aucOwners[msg.sender] */\n      0x0\n        /* \"Project-1-AuctionPlatform/AuctionPlatform.sol\":12220:12230  msg.sender */\n      caller\n        /* \"Project-1-AuctionPlatform/AuctionPlatform.sol\":12210:12231  aucOwners[msg.sender] */\n      0xffffffffffffffffffffffffffffffffffffffff\n      and\n      0xffffffffffffffffffffffffffffffffffffffff\n      and\n      dup2\n      mstore\n      0x20\n      add\n      swap1\n      dup2\n      mstore\n      0x20\n      add\n      0x0\n      keccak256\n      sload\n        /* \"Project-1-AuctionPlatform/AuctionPlatform.sol\":12210:12236  aucOwners[msg.sender] == 0 */\n      eq\n        /* \"Project-1-AuctionPlatform/AuctionPlatform.sol\":12189:12297  require(... */\n      iszero\n      iszero\n      tag_259\n      jumpi\n      mload(0x40)\n      0x8c379a000000000000000000000000000000000000000000000000000000000\n      dup2\n      mstore\n      0x4\n      add\n      dup1\n      dup1\n      0x20\n      add\n      dup3\n      dup2\n      sub\n      dup3\n      mstore\n      0x23\n      dup2\n      mstore\n      0x20\n      add\n      dup1\n      0x596f75206861766520616c7265616479206372656174656420616e2041756374\n      dup2\n      mstore\n      0x20\n      add\n      0x696f6e0000000000000000000000000000000000000000000000000000000000\n      dup2\n      mstore\n      pop\n      0x40\n      add\n      swap2\n      pop\n      pop\n      mload(0x40)\n      dup1\n      swap2\n      sub\n      swap1\n      revert\n    tag_259:\n        /* \"Project-1-AuctionPlatform/AuctionPlatform.sol\":9413:9414  1 */\n      0x1\n        /* \"Project-1-AuctionPlatform/AuctionPlatform.sol\":9392:9403  auctionList */\n      dup1\n        /* \"Project-1-AuctionPlatform/AuctionPlatform.sol\":9392:9410  auctionList.length */\n      dup1\n      sload\n      swap1\n      pop\n        /* \"Project-1-AuctionPlatform/AuctionPlatform.sol\":9392:9414  auctionList.length - 1 */\n      sub\n        /* \"Project-1-AuctionPlatform/AuctionPlatform.sol\":9384:9389  aucId */\n      sload(0x0)\n        /* \"Project-1-AuctionPlatform/AuctionPlatform.sol\":9384:9414  aucId < auctionList.length - 1 */\n      lt\n        /* \"Project-1-AuctionPlatform/AuctionPlatform.sol\":9363:9492  require(... */\n      iszero\n      iszero\n      tag_261\n      jumpi\n      mload(0x40)\n      0x8c379a000000000000000000000000000000000000000000000000000000000\n      dup2\n      mstore\n      0x4\n      add\n      dup1\n      dup1\n      0x20\n      add\n      dup3\n      dup2\n      sub\n      dup3\n      mstore\n      0x34\n      dup2\n      mstore\n      0x20\n      add\n      dup1\n      0x41756374696f6e73204c696d697420726561636865642063616e277420637265\n      dup2\n      mstore\n      0x20\n      add\n      0x61746520616e796d6f72652041756374696f6e73000000000000000000000000\n      dup2\n      mstore\n      pop\n      0x40\n      add\n      swap2\n      pop\n      pop\n      mload(0x40)\n      dup1\n      swap2\n      sub\n      swap1\n      revert\n    tag_261:\n        /* \"Project-1-AuctionPlatform/AuctionPlatform.sol\":9627:9837  BokkyPooBahsDateTimeLibrary.isValidDateTime(... */\n      tag_262\n        /* \"Project-1-AuctionPlatform/AuctionPlatform.sol\":9688:9702  _startTimeYear */\n      dup11\n        /* \"Project-1-AuctionPlatform/AuctionPlatform.sol\":9720:9735  _startTimeMonth */\n      dup11\n        /* \"Project-1-AuctionPlatform/AuctionPlatform.sol\":9753:9766  _startTimeDay */\n      dup11\n        /* \"Project-1-AuctionPlatform/AuctionPlatform.sol\":9784:9785  0 */\n      0x0\n        /* \"Project-1-AuctionPlatform/AuctionPlatform.sol\":9803:9804  0 */\n      dup1\n        /* \"Project-1-AuctionPlatform/AuctionPlatform.sol\":9822:9823  0 */\n      0x0\n        /* \"Project-1-AuctionPlatform/AuctionPlatform.sol\":9627:9670  BokkyPooBahsDateTimeLibrary.isValidDateTime */\n      tag_263\n        /* \"Project-1-AuctionPlatform/AuctionPlatform.sol\":9627:9837  BokkyPooBahsDateTimeLibrary.isValidDateTime(... */\n      jump\t// in\n    tag_262:\n        /* \"Project-1-AuctionPlatform/AuctionPlatform.sol\":9606:9885  require(... */\n      iszero\n      iszero\n      tag_264\n      jumpi\n      mload(0x40)\n      0x8c379a000000000000000000000000000000000000000000000000000000000\n      dup2\n      mstore\n      0x4\n      add\n      dup1\n      dup1\n      0x20\n      add\n      dup3\n      dup2\n      sub\n      dup3\n      mstore\n      0x16\n      dup2\n      mstore\n      0x20\n      add\n      dup1\n      0x456e7465722056616c6964205374617274204461746500000000000000000000\n      dup2\n      mstore\n      pop\n      0x20\n      add\n      swap2\n      pop\n      pop\n      mload(0x40)\n      dup1\n      swap2\n      sub\n      swap1\n      revert\n    tag_264:\n        /* \"Project-1-AuctionPlatform/AuctionPlatform.sol\":9916:10120  BokkyPooBahsDateTimeLibrary.isValidDateTime(... */\n      tag_265\n        /* \"Project-1-AuctionPlatform/AuctionPlatform.sol\":9977:9989  _endTimeYear */\n      dup8\n        /* \"Project-1-AuctionPlatform/AuctionPlatform.sol\":10007:10020  _endTimeMonth */\n      dup8\n        /* \"Project-1-AuctionPlatform/AuctionPlatform.sol\":10038:10049  _endTimeDay */\n      dup8\n        /* \"Project-1-AuctionPlatform/AuctionPlatform.sol\":10067:10068  0 */\n      0x0\n        /* \"Project-1-AuctionPlatform/AuctionPlatform.sol\":10086:10087  0 */\n      dup1\n        /* \"Project-1-AuctionPlatform/AuctionPlatform.sol\":10105:10106  0 */\n      0x0\n        /* \"Project-1-AuctionPlatform/AuctionPlatform.sol\":9916:9959  BokkyPooBahsDateTimeLibrary.isValidDateTime */\n      tag_263\n        /* \"Project-1-AuctionPlatform/AuctionPlatform.sol\":9916:10120  BokkyPooBahsDateTimeLibrary.isValidDateTime(... */\n      jump\t// in\n    tag_265:\n        /* \"Project-1-AuctionPlatform/AuctionPlatform.sol\":9895:10166  require(... */\n      iszero\n      iszero\n      tag_266\n      jumpi\n      mload(0x40)\n      0x8c379a000000000000000000000000000000000000000000000000000000000\n      dup2\n      mstore\n      0x4\n      add\n      dup1\n      dup1\n      0x20\n      add\n      dup3\n      dup2\n      sub\n      dup3\n      mstore\n      0x14\n      dup2\n      mstore\n      0x20\n      add\n      dup1\n      0x456e7465722056616c696420456e642044617465000000000000000000000000\n      dup2\n      mstore\n      pop\n      0x20\n      add\n      swap2\n      pop\n      pop\n      mload(0x40)\n      dup1\n      swap2\n      sub\n      swap1\n      revert\n    tag_266:\n        /* \"Project-1-AuctionPlatform/AuctionPlatform.sol\":10310:10449  BokkyPooBahsDateTimeLibrary.timestampFromDate(... */\n      tag_267\n        /* \"Project-1-AuctionPlatform/AuctionPlatform.sol\":10369:10383  _startTimeYear */\n      dup11\n        /* \"Project-1-AuctionPlatform/AuctionPlatform.sol\":10397:10412  _startTimeMonth */\n      dup11\n        /* \"Project-1-AuctionPlatform/AuctionPlatform.sol\":10426:10439  _startTimeDay */\n      dup11\n        /* \"Project-1-AuctionPlatform/AuctionPlatform.sol\":10310:10355  BokkyPooBahsDateTimeLibrary.timestampFromDate */\n      tag_268\n        /* \"Project-1-AuctionPlatform/AuctionPlatform.sol\":10310:10449  BokkyPooBahsDateTimeLibrary.timestampFromDate(... */\n      jump\t// in\n    tag_267:\n        /* \"Project-1-AuctionPlatform/AuctionPlatform.sol\":10289:10449  uint256 start_time = BokkyPooBahsDateTimeLibrary.timestampFromDate(... */\n      swap3\n      pop\n        /* \"Project-1-AuctionPlatform/AuctionPlatform.sol\":10479:10612  BokkyPooBahsDateTimeLibrary.timestampFromDate(... */\n      tag_269\n        /* \"Project-1-AuctionPlatform/AuctionPlatform.sol\":10538:10550  _endTimeYear */\n      dup8\n        /* \"Project-1-AuctionPlatform/AuctionPlatform.sol\":10564:10577  _endTimeMonth */\n      dup8\n        /* \"Project-1-AuctionPlatform/AuctionPlatform.sol\":10591:10602  _endTimeDay */\n      dup8\n        /* \"Project-1-AuctionPlatform/AuctionPlatform.sol\":10479:10524  BokkyPooBahsDateTimeLibrary.timestampFromDate */\n      tag_268\n        /* \"Project-1-AuctionPlatform/AuctionPlatform.sol\":10479:10612  BokkyPooBahsDateTimeLibrary.timestampFromDate(... */\n      jump\t// in\n    tag_269:\n        /* \"Project-1-AuctionPlatform/AuctionPlatform.sol\":10460:10612  uint256 end_time = BokkyPooBahsDateTimeLibrary.timestampFromDate(... */\n      swap2\n      pop\n        /* \"Project-1-AuctionPlatform/AuctionPlatform.sol\":10752:10762  start_time */\n      dup3\n        /* \"Project-1-AuctionPlatform/AuctionPlatform.sol\":10734:10749  block.timestamp */\n      timestamp\n        /* \"Project-1-AuctionPlatform/AuctionPlatform.sol\":10734:10762  block.timestamp < start_time */\n      lt\n        /* \"Project-1-AuctionPlatform/AuctionPlatform.sol\":10734:10808  block.timestamp < start_time &&... */\n      dup1\n      iszero\n      tag_270\n      jumpi\n      pop\n        /* \"Project-1-AuctionPlatform/AuctionPlatform.sol\":10800:10808  end_time */\n      dup2\n        /* \"Project-1-AuctionPlatform/AuctionPlatform.sol\":10782:10797  block.timestamp */\n      timestamp\n        /* \"Project-1-AuctionPlatform/AuctionPlatform.sol\":10782:10808  block.timestamp < end_time */\n      lt\n        /* \"Project-1-AuctionPlatform/AuctionPlatform.sol\":10734:10808  block.timestamp < start_time &&... */\n    tag_270:\n        /* \"Project-1-AuctionPlatform/AuctionPlatform.sol\":10734:10849  block.timestamp < start_time &&... */\n      dup1\n      iszero\n      tag_271\n      jumpi\n      pop\n        /* \"Project-1-AuctionPlatform/AuctionPlatform.sol\":10841:10849  end_time */\n      dup2\n        /* \"Project-1-AuctionPlatform/AuctionPlatform.sol\":10828:10838  start_time */\n      dup4\n        /* \"Project-1-AuctionPlatform/AuctionPlatform.sol\":10828:10849  start_time < end_time */\n      lt\n        /* \"Project-1-AuctionPlatform/AuctionPlatform.sol\":10734:10849  block.timestamp < start_time &&... */\n    tag_271:\n        /* \"Project-1-AuctionPlatform/AuctionPlatform.sol\":10713:10921  require(... */\n      iszero\n      iszero\n      tag_272\n      jumpi\n      mload(0x40)\n      0x8c379a000000000000000000000000000000000000000000000000000000000\n      dup2\n      mstore\n      0x4\n      add\n      dup1\n      dup1\n      0x20\n      add\n      dup3\n      dup2\n      sub\n      dup3\n      mstore\n      0x2e\n      dup2\n      mstore\n      0x20\n      add\n      dup1\n      0x20506c6561736520656e74657220612076616c696420696e74657276616c2066\n      dup2\n      mstore\n      0x20\n      add\n      0x6f72207468652041756374696f6e000000000000000000000000000000000000\n      dup2\n      mstore\n      pop\n      0x40\n      add\n      swap2\n      pop\n      pop\n      mload(0x40)\n      dup1\n      swap2\n      sub\n      swap1\n      revert\n    tag_272:\n        /* \"Project-1-AuctionPlatform/AuctionPlatform.sol\":10948:10949  1 */\n      0x1\n        /* \"Project-1-AuctionPlatform/AuctionPlatform.sol\":10940:10945  aucId */\n      sload(0x0)\n        /* \"Project-1-AuctionPlatform/AuctionPlatform.sol\":10940:10949  aucId + 1 */\n      add\n        /* \"Project-1-AuctionPlatform/AuctionPlatform.sol\":10932:10937  aucId */\n      0x0\n        /* \"Project-1-AuctionPlatform/AuctionPlatform.sol\":10932:10949  aucId = aucId + 1 */\n      dup2\n      swap1\n      sstore\n      pop\n        /* \"Project-1-AuctionPlatform/AuctionPlatform.sol\":11073:11085  _description */\n      dup11\n        /* \"Project-1-AuctionPlatform/AuctionPlatform.sol\":11099:11109  start_time */\n      dup4\n        /* \"Project-1-AuctionPlatform/AuctionPlatform.sol\":11123:11131  end_time */\n      dup4\n        /* \"Project-1-AuctionPlatform/AuctionPlatform.sol\":11145:11155  _minBidVal */\n      dup7\n        /* \"Project-1-AuctionPlatform/AuctionPlatform.sol\":11048:11165  new Auction(... */\n      tag_273\n      jump\t// in(tag_274)\n    tag_273:\n      dup1\n      dup1\n      0x20\n      add\n      dup6\n      dup2\n      mstore\n      0x20\n      add\n      dup5\n      dup2\n      mstore\n      0x20\n      add\n      dup4\n      dup2\n      mstore\n      0x20\n      add\n      dup3\n      dup2\n      sub\n      dup3\n      mstore\n      dup7\n      dup2\n      dup2\n      mload\n      dup2\n      mstore\n      0x20\n      add\n      swap2\n      pop\n      dup1\n      mload\n      swap1\n      0x20\n      add\n      swap1\n      dup1\n      dup4\n      dup4\n        /* \"--CODEGEN--\":23:24   */\n      0x0\n        /* \"--CODEGEN--\":8:108   */\n    tag_275:\n        /* \"--CODEGEN--\":33:36   */\n      dup4\n        /* \"--CODEGEN--\":30:31   */\n      dup2\n        /* \"--CODEGEN--\":27:37   */\n      lt\n        /* \"--CODEGEN--\":8:108   */\n      iszero\n      tag_276\n      jumpi\n        /* \"--CODEGEN--\":99:100   */\n      dup1\n        /* \"--CODEGEN--\":94:97   */\n      dup3\n        /* \"--CODEGEN--\":90:101   */\n      add\n        /* \"--CODEGEN--\":84:102   */\n      mload\n        /* \"--CODEGEN--\":80:81   */\n      dup2\n        /* \"--CODEGEN--\":75:78   */\n      dup5\n        /* \"--CODEGEN--\":71:82   */\n      add\n        /* \"--CODEGEN--\":64:103   */\n      mstore\n        /* \"--CODEGEN--\":52:54   */\n      0x20\n        /* \"--CODEGEN--\":49:50   */\n      dup2\n        /* \"--CODEGEN--\":45:55   */\n      add\n        /* \"--CODEGEN--\":40:55   */\n      swap1\n      pop\n        /* \"--CODEGEN--\":8:108   */\n      jump(tag_275)\n    tag_276:\n        /* \"--CODEGEN--\":12:26   */\n      pop\n        /* \"Project-1-AuctionPlatform/AuctionPlatform.sol\":11048:11165  new Auction(... */\n      pop\n      pop\n      pop\n      swap1\n      pop\n      swap1\n      dup2\n      add\n      swap1\n      0x1f\n      and\n      dup1\n      iszero\n      tag_278\n      jumpi\n      dup1\n      dup3\n      sub\n      dup1\n      mload\n      0x1\n      dup4\n      0x20\n      sub\n      0x100\n      exp\n      sub\n      not\n      and\n      dup2\n      mstore\n      0x20\n      add\n      swap2\n      pop\n    tag_278:\n      pop\n      swap6\n      pop\n      pop\n      pop\n      pop\n      pop\n      pop\n      mload(0x40)\n      dup1\n      swap2\n      sub\n      swap1\n      0x0\n      create\n      dup1\n      iszero\n        /* \"--CODEGEN--\":8:17   */\n      dup1\n        /* \"--CODEGEN--\":5:7   */\n      iszero\n      tag_279\n      jumpi\n        /* \"--CODEGEN--\":45:61   */\n      returndatasize\n        /* \"--CODEGEN--\":42:43   */\n      0x0\n        /* \"--CODEGEN--\":39:40   */\n      dup1\n        /* \"--CODEGEN--\":24:62   */\n      returndatacopy\n        /* \"--CODEGEN--\":77:93   */\n      returndatasize\n        /* \"--CODEGEN--\":74:75   */\n      0x0\n        /* \"--CODEGEN--\":67:94   */\n      revert\n        /* \"--CODEGEN--\":5:7   */\n    tag_279:\n        /* \"Project-1-AuctionPlatform/AuctionPlatform.sol\":11048:11165  new Auction(... */\n      pop\n        /* \"Project-1-AuctionPlatform/AuctionPlatform.sol\":11032:11165  Auction TempA = new Auction(... */\n      swap1\n      pop\n        /* \"Project-1-AuctionPlatform/AuctionPlatform.sol\":11245:11250  TempA */\n      dup1\n        /* \"Project-1-AuctionPlatform/AuctionPlatform.sol\":11224:11235  auctionList */\n      0x1\n        /* \"Project-1-AuctionPlatform/AuctionPlatform.sol\":11236:11241  aucId */\n      sload(0x0)\n        /* \"Project-1-AuctionPlatform/AuctionPlatform.sol\":11224:11242  auctionList[aucId] */\n      dup2\n      sload\n      dup2\n      lt\n      iszero\n      iszero\n      tag_280\n      jumpi\n      invalid\n    tag_280:\n      swap1\n      0x0\n      mstore\n      keccak256(0x0, 0x20)\n      add\n      0x0\n        /* \"Project-1-AuctionPlatform/AuctionPlatform.sol\":11224:11250  auctionList[aucId] = TempA */\n      0x100\n      exp\n      dup2\n      sload\n      dup2\n      0xffffffffffffffffffffffffffffffffffffffff\n      mul\n      not\n      and\n      swap1\n      dup4\n      0xffffffffffffffffffffffffffffffffffffffff\n      and\n      mul\n      or\n      swap1\n      sstore\n      pop\n        /* \"Project-1-AuctionPlatform/AuctionPlatform.sol\":11344:11349  aucId */\n      sload(0x0)\n        /* \"Project-1-AuctionPlatform/AuctionPlatform.sol\":11320:11329  aucOwners */\n      0x2\n        /* \"Project-1-AuctionPlatform/AuctionPlatform.sol\":11320:11341  aucOwners[msg.sender] */\n      0x0\n        /* \"Project-1-AuctionPlatform/AuctionPlatform.sol\":11330:11340  msg.sender */\n      caller\n        /* \"Project-1-AuctionPlatform/AuctionPlatform.sol\":11320:11341  aucOwners[msg.sender] */\n      0xffffffffffffffffffffffffffffffffffffffff\n      and\n      0xffffffffffffffffffffffffffffffffffffffff\n      and\n      dup2\n      mstore\n      0x20\n      add\n      swap1\n      dup2\n      mstore\n      0x20\n      add\n      0x0\n      keccak256\n        /* \"Project-1-AuctionPlatform/AuctionPlatform.sol\":11320:11349  aucOwners[msg.sender] = aucId */\n      dup2\n      swap1\n      sstore\n      pop\n        /* \"Project-1-AuctionPlatform/AuctionPlatform.sol\":11476:11491  block.timestamp */\n      timestamp\n        /* \"Project-1-AuctionPlatform/AuctionPlatform.sol\":11469:11474  aucId */\n      sload(0x0)\n        /* \"Project-1-AuctionPlatform/AuctionPlatform.sol\":11454:11504  auctionCreated(aucId, block.timestamp, msg.sender) */\n      0x737a59893603ef25305aef11ac201c15bb5fa4f4195223c5dd69109857781504\n        /* \"Project-1-AuctionPlatform/AuctionPlatform.sol\":11493:11503  msg.sender */\n      caller\n        /* \"Project-1-AuctionPlatform/AuctionPlatform.sol\":11454:11504  auctionCreated(aucId, block.timestamp, msg.sender) */\n      mload(0x40)\n      dup1\n      dup3\n      0xffffffffffffffffffffffffffffffffffffffff\n      and\n      0xffffffffffffffffffffffffffffffffffffffff\n      and\n      dup2\n      mstore\n      0x20\n      add\n      swap2\n      pop\n      pop\n      mload(0x40)\n      dup1\n      swap2\n      sub\n      swap1\n      log3\n        /* \"Project-1-AuctionPlatform/AuctionPlatform.sol\":8793:11511  function createAuction(... */\n      pop\n      pop\n      pop\n      pop\n      pop\n      pop\n      pop\n      pop\n      pop\n      pop\n      pop\n      jump\t// out\n        /* \"Project-1-AuctionPlatform/AuctionPlatform.sol\":3257:3467  function getListOfBidsOnAuction()... */\n    tag_72:\n        /* \"Project-1-AuctionPlatform/AuctionPlatform.sol\":3378:3387  uint256[] */\n      0x60\n        /* \"Project-1-AuctionPlatform/AuctionPlatform.sol\":12455:12456  0 */\n      0x0\n        /* \"Project-1-AuctionPlatform/AuctionPlatform.sol\":12430:12439  aucOwners */\n      0x2\n        /* \"Project-1-AuctionPlatform/AuctionPlatform.sol\":12430:12451  aucOwners[msg.sender] */\n      0x0\n        /* \"Project-1-AuctionPlatform/AuctionPlatform.sol\":12440:12450  msg.sender */\n      caller\n        /* \"Project-1-AuctionPlatform/AuctionPlatform.sol\":12430:12451  aucOwners[msg.sender] */\n      0xffffffffffffffffffffffffffffffffffffffff\n      and\n      0xffffffffffffffffffffffffffffffffffffffff\n      and\n      dup2\n      mstore\n      0x20\n      add\n      swap1\n      dup2\n      mstore\n      0x20\n      add\n      0x0\n      keccak256\n      sload\n        /* \"Project-1-AuctionPlatform/AuctionPlatform.sol\":12430:12456  aucOwners[msg.sender] != 0 */\n      eq\n      iszero\n        /* \"Project-1-AuctionPlatform/AuctionPlatform.sol\":12422:12493  require(aucOwners[msg.sender] != 0, \"You haven't created any Auctions\") */\n      iszero\n      iszero\n      tag_283\n      jumpi\n      mload(0x40)\n      0x8c379a000000000000000000000000000000000000000000000000000000000\n      dup2\n      mstore\n      0x4\n      add\n      dup1\n      dup1\n      0x20\n      add\n      dup3\n      dup2\n      sub\n      dup3\n      mstore\n      0x20\n      dup2\n      mstore\n      0x20\n      add\n      dup1\n      0x596f7520686176656e2774206372656174656420616e792041756374696f6e73\n      dup2\n      mstore\n      pop\n      0x20\n      add\n      swap2\n      pop\n      pop\n      mload(0x40)\n      dup1\n      swap2\n      sub\n      swap1\n      revert\n    tag_283:\n        /* \"Project-1-AuctionPlatform/AuctionPlatform.sol\":11665:11676  auctionList */\n      0x1\n        /* \"Project-1-AuctionPlatform/AuctionPlatform.sol\":11677:11686  aucOwners */\n      0x2\n        /* \"Project-1-AuctionPlatform/AuctionPlatform.sol\":11677:11698  aucOwners[msg.sender] */\n      0x0\n        /* \"Project-1-AuctionPlatform/AuctionPlatform.sol\":11687:11697  msg.sender */\n      caller\n        /* \"Project-1-AuctionPlatform/AuctionPlatform.sol\":11677:11698  aucOwners[msg.sender] */\n      0xffffffffffffffffffffffffffffffffffffffff\n      and\n      0xffffffffffffffffffffffffffffffffffffffff\n      and\n      dup2\n      mstore\n      0x20\n      add\n      swap1\n      dup2\n      mstore\n      0x20\n      add\n      0x0\n      keccak256\n      sload\n        /* \"Project-1-AuctionPlatform/AuctionPlatform.sol\":11665:11699  auctionList[aucOwners[msg.sender]] */\n      dup2\n      sload\n      dup2\n      lt\n      iszero\n      iszero\n      tag_285\n      jumpi\n      invalid\n    tag_285:\n      swap1\n      0x0\n      mstore\n      keccak256(0x0, 0x20)\n      add\n      0x0\n      swap1\n      sload\n      swap1\n      0x100\n      exp\n      swap1\n      div\n      0xffffffffffffffffffffffffffffffffffffffff\n      and\n        /* \"Project-1-AuctionPlatform/AuctionPlatform.sol\":11665:11711  auctionList[aucOwners[msg.sender]].getBidsMade */\n      0xffffffffffffffffffffffffffffffffffffffff\n      and\n      0x409766e6\n        /* \"Project-1-AuctionPlatform/AuctionPlatform.sol\":11665:11713  auctionList[aucOwners[msg.sender]].getBidsMade() */\n      mload(0x40)\n      dup2\n      0xffffffff\n      and\n      0x100000000000000000000000000000000000000000000000000000000\n      mul\n      dup2\n      mstore\n      0x4\n      add\n      0x20\n      mload(0x40)\n      dup1\n      dup4\n      sub\n      dup2\n      0x0\n      dup8\n      dup1\n      extcodesize\n      iszero\n        /* \"--CODEGEN--\":8:17   */\n      dup1\n        /* \"--CODEGEN--\":5:7   */\n      iszero\n      tag_287\n      jumpi\n        /* \"--CODEGEN--\":30:31   */\n      0x0\n        /* \"--CODEGEN--\":27:28   */\n      dup1\n        /* \"--CODEGEN--\":20:32   */\n      revert\n        /* \"--CODEGEN--\":5:7   */\n    tag_287:\n        /* \"Project-1-AuctionPlatform/AuctionPlatform.sol\":11665:11713  auctionList[aucOwners[msg.sender]].getBidsMade() */\n      pop\n      gas\n      call\n      iszero\n        /* \"--CODEGEN--\":8:17   */\n      dup1\n        /* \"--CODEGEN--\":5:7   */\n      iszero\n      tag_288\n      jumpi\n        /* \"--CODEGEN--\":45:61   */\n      returndatasize\n        /* \"--CODEGEN--\":42:43   */\n      0x0\n        /* \"--CODEGEN--\":39:40   */\n      dup1\n        /* \"--CODEGEN--\":24:62   */\n      returndatacopy\n        /* \"--CODEGEN--\":77:93   */\n      returndatasize\n        /* \"--CODEGEN--\":74:75   */\n      0x0\n        /* \"--CODEGEN--\":67:94   */\n      revert\n        /* \"--CODEGEN--\":5:7   */\n    tag_288:\n        /* \"Project-1-AuctionPlatform/AuctionPlatform.sol\":11665:11713  auctionList[aucOwners[msg.sender]].getBidsMade() */\n      pop\n      pop\n      pop\n      pop\n      mload(0x40)\n      returndatasize\n        /* \"--CODEGEN--\":13:15   */\n      0x20\n        /* \"--CODEGEN--\":8:11   */\n      dup2\n        /* \"--CODEGEN--\":5:16   */\n      lt\n        /* \"--CODEGEN--\":2:4   */\n      iszero\n      tag_289\n      jumpi\n        /* \"--CODEGEN--\":29:30   */\n      0x0\n        /* \"--CODEGEN--\":26:27   */\n      dup1\n        /* \"--CODEGEN--\":19:31   */\n      revert\n        /* \"--CODEGEN--\":2:4   */\n    tag_289:\n        /* \"Project-1-AuctionPlatform/AuctionPlatform.sol\":11665:11713  auctionList[aucOwners[msg.sender]].getBidsMade() */\n      dup2\n      add\n      swap1\n      dup1\n      dup1\n      mload\n      swap1\n      0x20\n      add\n      swap1\n      swap3\n      swap2\n      swap1\n      pop\n      pop\n      pop\n        /* \"Project-1-AuctionPlatform/AuctionPlatform.sol\":11644:11775  require(... */\n      iszero\n      iszero\n      tag_290\n      jumpi\n      mload(0x40)\n      0x8c379a000000000000000000000000000000000000000000000000000000000\n      dup2\n      mstore\n      0x4\n      add\n      dup1\n      dup1\n      0x20\n      add\n      dup3\n      dup2\n      sub\n      dup3\n      mstore\n      0x24\n      dup2\n      mstore\n      0x20\n      add\n      dup1\n      0x5468657265206172656e277420616e792062696473206f6e2074686520417563\n      dup2\n      mstore\n      0x20\n      add\n      0x74696f6e00000000000000000000000000000000000000000000000000000000\n      dup2\n      mstore\n      pop\n      0x40\n      add\n      swap2\n      pop\n      pop\n      mload(0x40)\n      dup1\n      swap2\n      sub\n      swap1\n      revert\n    tag_290:\n        /* \"Project-1-AuctionPlatform/AuctionPlatform.sol\":3410:3421  auctionList */\n      0x1\n        /* \"Project-1-AuctionPlatform/AuctionPlatform.sol\":3422:3431  aucOwners */\n      0x2\n        /* \"Project-1-AuctionPlatform/AuctionPlatform.sol\":3422:3443  aucOwners[msg.sender] */\n      0x0\n        /* \"Project-1-AuctionPlatform/AuctionPlatform.sol\":3432:3442  msg.sender */\n      caller\n        /* \"Project-1-AuctionPlatform/AuctionPlatform.sol\":3422:3443  aucOwners[msg.sender] */\n      0xffffffffffffffffffffffffffffffffffffffff\n      and\n      0xffffffffffffffffffffffffffffffffffffffff\n      and\n      dup2\n      mstore\n      0x20\n      add\n      swap1\n      dup2\n      mstore\n      0x20\n      add\n      0x0\n      keccak256\n      sload\n        /* \"Project-1-AuctionPlatform/AuctionPlatform.sol\":3410:3444  auctionList[aucOwners[msg.sender]] */\n      dup2\n      sload\n      dup2\n      lt\n      iszero\n      iszero\n      tag_292\n      jumpi\n      invalid\n    tag_292:\n      swap1\n      0x0\n      mstore\n      keccak256(0x0, 0x20)\n      add\n      0x0\n      swap1\n      sload\n      swap1\n      0x100\n      exp\n      swap1\n      div\n      0xffffffffffffffffffffffffffffffffffffffff\n      and\n        /* \"Project-1-AuctionPlatform/AuctionPlatform.sol\":3410:3458  auctionList[aucOwners[msg.sender]].getListOfBids */\n      0xffffffffffffffffffffffffffffffffffffffff\n      and\n      0x679dbf0c\n        /* \"Project-1-AuctionPlatform/AuctionPlatform.sol\":3410:3460  auctionList[aucOwners[msg.sender]].getListOfBids() */\n      mload(0x40)\n      dup2\n      0xffffffff\n      and\n      0x100000000000000000000000000000000000000000000000000000000\n      mul\n      dup2\n      mstore\n      0x4\n      add\n      0x0\n      mload(0x40)\n      dup1\n      dup4\n      sub\n      dup2\n      0x0\n      dup8\n      dup1\n      extcodesize\n      iszero\n        /* \"--CODEGEN--\":8:17   */\n      dup1\n        /* \"--CODEGEN--\":5:7   */\n      iszero\n      tag_294\n      jumpi\n        /* \"--CODEGEN--\":30:31   */\n      0x0\n        /* \"--CODEGEN--\":27:28   */\n      dup1\n        /* \"--CODEGEN--\":20:32   */\n      revert\n        /* \"--CODEGEN--\":5:7   */\n    tag_294:\n        /* \"Project-1-AuctionPlatform/AuctionPlatform.sol\":3410:3460  auctionList[aucOwners[msg.sender]].getListOfBids() */\n      pop\n      gas\n      call\n      iszero\n        /* \"--CODEGEN--\":8:17   */\n      dup1\n        /* \"--CODEGEN--\":5:7   */\n      iszero\n      tag_295\n      jumpi\n        /* \"--CODEGEN--\":45:61   */\n      returndatasize\n        /* \"--CODEGEN--\":42:43   */\n      0x0\n        /* \"--CODEGEN--\":39:40   */\n      dup1\n        /* \"--CODEGEN--\":24:62   */\n      returndatacopy\n        /* \"--CODEGEN--\":77:93   */\n      returndatasize\n        /* \"--CODEGEN--\":74:75   */\n      0x0\n        /* \"--CODEGEN--\":67:94   */\n      revert\n        /* \"--CODEGEN--\":5:7   */\n    tag_295:\n        /* \"Project-1-AuctionPlatform/AuctionPlatform.sol\":3410:3460  auctionList[aucOwners[msg.sender]].getListOfBids() */\n      pop\n      pop\n      pop\n      pop\n      mload(0x40)\n        /* \"--CODEGEN--\":39:55   */\n      returndatasize\n        /* \"--CODEGEN--\":36:37   */\n      0x0\n        /* \"--CODEGEN--\":17:34   */\n      dup3\n        /* \"--CODEGEN--\":2:56   */\n      returndatacopy\n        /* \"Project-1-AuctionPlatform/AuctionPlatform.sol\":3410:3460  auctionList[aucOwners[msg.sender]].getListOfBids() */\n      returndatasize\n        /* \"--CODEGEN--\":101:105   */\n      0x1f\n        /* \"--CODEGEN--\":97:106   */\n      not\n        /* \"--CODEGEN--\":90:94   */\n      0x1f\n        /* \"--CODEGEN--\":84:88   */\n      dup3\n        /* \"--CODEGEN--\":80:95   */\n      add\n        /* \"--CODEGEN--\":76:107   */\n      and\n        /* \"--CODEGEN--\":69:74   */\n      dup3\n        /* \"--CODEGEN--\":65:108   */\n      add\n        /* \"--CODEGEN--\":126:132   */\n      dup1\n        /* \"--CODEGEN--\":120:124   */\n      0x40\n        /* \"--CODEGEN--\":113:133   */\n      mstore\n        /* \"--CODEGEN--\":0:138   */\n      pop\n        /* \"--CODEGEN--\":13:15   */\n      0x20\n        /* \"--CODEGEN--\":8:11   */\n      dup2\n        /* \"--CODEGEN--\":5:16   */\n      lt\n        /* \"--CODEGEN--\":2:4   */\n      iszero\n      tag_296\n      jumpi\n        /* \"--CODEGEN--\":29:30   */\n      0x0\n        /* \"--CODEGEN--\":26:27   */\n      dup1\n        /* \"--CODEGEN--\":19:31   */\n      revert\n        /* \"--CODEGEN--\":2:4   */\n    tag_296:\n        /* \"Project-1-AuctionPlatform/AuctionPlatform.sol\":3410:3460  auctionList[aucOwners[msg.sender]].getListOfBids() */\n      dup2\n      add\n      swap1\n      dup1\n      dup1\n      mload\n        /* \"--CODEGEN--\":20:31   */\n      0x100000000\n        /* \"--CODEGEN--\":15:18   */\n      dup2\n        /* \"--CODEGEN--\":12:32   */\n      gt\n        /* \"--CODEGEN--\":9:11   */\n      iszero\n      tag_297\n      jumpi\n        /* \"--CODEGEN--\":45:46   */\n      0x0\n        /* \"--CODEGEN--\":42:43   */\n      dup1\n        /* \"--CODEGEN--\":35:47   */\n      revert\n        /* \"--CODEGEN--\":9:11   */\n    tag_297:\n        /* \"--CODEGEN--\":73:84   */\n      dup3\n        /* \"--CODEGEN--\":68:71   */\n      dup2\n        /* \"--CODEGEN--\":64:85   */\n      add\n        /* \"--CODEGEN--\":57:85   */\n      swap1\n      pop\n        /* \"--CODEGEN--\":126:130   */\n      0x20\n        /* \"--CODEGEN--\":121:124   */\n      dup2\n        /* \"--CODEGEN--\":117:131   */\n      add\n        /* \"--CODEGEN--\":163:172   */\n      dup5\n        /* \"--CODEGEN--\":145:161   */\n      dup2\n        /* \"--CODEGEN--\":142:173   */\n      gt\n        /* \"--CODEGEN--\":139:141   */\n      iszero\n      tag_298\n      jumpi\n        /* \"--CODEGEN--\":186:187   */\n      0x0\n        /* \"--CODEGEN--\":183:184   */\n      dup1\n        /* \"--CODEGEN--\":176:188   */\n      revert\n        /* \"--CODEGEN--\":139:141   */\n    tag_298:\n        /* \"--CODEGEN--\":224:227   */\n      dup2\n        /* \"--CODEGEN--\":218:228   */\n      mload\n        /* \"--CODEGEN--\":339:348   */\n      dup6\n        /* \"--CODEGEN--\":333:335   */\n      0x20\n        /* \"--CODEGEN--\":319:331   */\n      dup3\n        /* \"--CODEGEN--\":315:336   */\n      mul\n        /* \"--CODEGEN--\":297:313   */\n      dup4\n        /* \"--CODEGEN--\":293:337   */\n      add\n        /* \"--CODEGEN--\":290:349   */\n      gt\n        /* \"--CODEGEN--\":268:279   */\n      0x100000000\n        /* \"--CODEGEN--\":254:266   */\n      dup3\n        /* \"--CODEGEN--\":251:280   */\n      gt\n        /* \"--CODEGEN--\":239:358   */\n      or\n        /* \"--CODEGEN--\":236:238   */\n      iszero\n      tag_299\n      jumpi\n        /* \"--CODEGEN--\":371:372   */\n      0x0\n        /* \"--CODEGEN--\":368:369   */\n      dup1\n        /* \"--CODEGEN--\":361:373   */\n      revert\n        /* \"--CODEGEN--\":236:238   */\n    tag_299:\n        /* \"--CODEGEN--\":0:383   */\n      pop\n      pop\n        /* \"Project-1-AuctionPlatform/AuctionPlatform.sol\":3410:3460  auctionList[aucOwners[msg.sender]].getListOfBids() */\n      swap3\n      swap2\n      swap1\n      pop\n      pop\n      pop\n        /* \"Project-1-AuctionPlatform/AuctionPlatform.sol\":3403:3460  return auctionList[aucOwners[msg.sender]].getListOfBids() */\n      swap1\n      pop\n        /* \"Project-1-AuctionPlatform/AuctionPlatform.sol\":3257:3467  function getListOfBidsOnAuction()... */\n      swap1\n      jump\t// out\n        /* \"Project-1-AuctionPlatform/AuctionPlatform.sol\":6511:7123  function endAuction() public ifAuctionOwner returns (address) {... */\n    tag_78:\n        /* \"Project-1-AuctionPlatform/AuctionPlatform.sol\":6564:6571  address */\n      0x0\n        /* \"Project-1-AuctionPlatform/AuctionPlatform.sol\":6611:6625  uint256 maxBid */\n      dup1\n        /* \"Project-1-AuctionPlatform/AuctionPlatform.sol\":6950:6964  address winner */\n      0x0\n        /* \"Project-1-AuctionPlatform/AuctionPlatform.sol\":12455:12456  0 */\n      dup1\n        /* \"Project-1-AuctionPlatform/AuctionPlatform.sol\":12430:12439  aucOwners */\n      0x2\n        /* \"Project-1-AuctionPlatform/AuctionPlatform.sol\":12430:12451  aucOwners[msg.sender] */\n      0x0\n        /* \"Project-1-AuctionPlatform/AuctionPlatform.sol\":12440:12450  msg.sender */\n      caller\n        /* \"Project-1-AuctionPlatform/AuctionPlatform.sol\":12430:12451  aucOwners[msg.sender] */\n      0xffffffffffffffffffffffffffffffffffffffff\n      and\n      0xffffffffffffffffffffffffffffffffffffffff\n      and\n      dup2\n      mstore\n      0x20\n      add\n      swap1\n      dup2\n      mstore\n      0x20\n      add\n      0x0\n      keccak256\n      sload\n        /* \"Project-1-AuctionPlatform/AuctionPlatform.sol\":12430:12456  aucOwners[msg.sender] != 0 */\n      eq\n      iszero\n        /* \"Project-1-AuctionPlatform/AuctionPlatform.sol\":12422:12493  require(aucOwners[msg.sender] != 0, \"You haven't created any Auctions\") */\n      iszero\n      iszero\n      tag_301\n      jumpi\n      mload(0x40)\n      0x8c379a000000000000000000000000000000000000000000000000000000000\n      dup2\n      mstore\n      0x4\n      add\n      dup1\n      dup1\n      0x20\n      add\n      dup3\n      dup2\n      sub\n      dup3\n      mstore\n      0x20\n      dup2\n      mstore\n      0x20\n      add\n      dup1\n      0x596f7520686176656e2774206372656174656420616e792041756374696f6e73\n      dup2\n      mstore\n      pop\n      0x20\n      add\n      swap2\n      pop\n      pop\n      mload(0x40)\n      dup1\n      swap2\n      sub\n      swap1\n      revert\n    tag_301:\n        /* \"Project-1-AuctionPlatform/AuctionPlatform.sol\":6628:6639  auctionList */\n      0x1\n        /* \"Project-1-AuctionPlatform/AuctionPlatform.sol\":6640:6649  aucOwners */\n      0x2\n        /* \"Project-1-AuctionPlatform/AuctionPlatform.sol\":6640:6661  aucOwners[msg.sender] */\n      0x0\n        /* \"Project-1-AuctionPlatform/AuctionPlatform.sol\":6650:6660  msg.sender */\n      caller\n        /* \"Project-1-AuctionPlatform/AuctionPlatform.sol\":6640:6661  aucOwners[msg.sender] */\n      0xffffffffffffffffffffffffffffffffffffffff\n      and\n      0xffffffffffffffffffffffffffffffffffffffff\n      and\n      dup2\n      mstore\n      0x20\n      add\n      swap1\n      dup2\n      mstore\n      0x20\n      add\n      0x0\n      keccak256\n      sload\n        /* \"Project-1-AuctionPlatform/AuctionPlatform.sol\":6628:6662  auctionList[aucOwners[msg.sender]] */\n      dup2\n      sload\n      dup2\n      lt\n      iszero\n      iszero\n      tag_303\n      jumpi\n      invalid\n    tag_303:\n      swap1\n      0x0\n      mstore\n      keccak256(0x0, 0x20)\n      add\n      0x0\n      swap1\n      sload\n      swap1\n      0x100\n      exp\n      swap1\n      div\n      0xffffffffffffffffffffffffffffffffffffffff\n      and\n        /* \"Project-1-AuctionPlatform/AuctionPlatform.sol\":6628:6676  auctionList[aucOwners[msg.sender]].getMaximumBid */\n      0xffffffffffffffffffffffffffffffffffffffff\n      and\n      0xdd06ba1a\n        /* \"Project-1-AuctionPlatform/AuctionPlatform.sol\":6628:6678  auctionList[aucOwners[msg.sender]].getMaximumBid() */\n      mload(0x40)\n      dup2\n      0xffffffff\n      and\n      0x100000000000000000000000000000000000000000000000000000000\n      mul\n      dup2\n      mstore\n      0x4\n      add\n      0x20\n      mload(0x40)\n      dup1\n      dup4\n      sub\n      dup2\n      0x0\n      dup8\n      dup1\n      extcodesize\n      iszero\n        /* \"--CODEGEN--\":8:17   */\n      dup1\n        /* \"--CODEGEN--\":5:7   */\n      iszero\n      tag_305\n      jumpi\n        /* \"--CODEGEN--\":30:31   */\n      0x0\n        /* \"--CODEGEN--\":27:28   */\n      dup1\n        /* \"--CODEGEN--\":20:32   */\n      revert\n        /* \"--CODEGEN--\":5:7   */\n    tag_305:\n        /* \"Project-1-AuctionPlatform/AuctionPlatform.sol\":6628:6678  auctionList[aucOwners[msg.sender]].getMaximumBid() */\n      pop\n      gas\n      call\n      iszero\n        /* \"--CODEGEN--\":8:17   */\n      dup1\n        /* \"--CODEGEN--\":5:7   */\n      iszero\n      tag_306\n      jumpi\n        /* \"--CODEGEN--\":45:61   */\n      returndatasize\n        /* \"--CODEGEN--\":42:43   */\n      0x0\n        /* \"--CODEGEN--\":39:40   */\n      dup1\n        /* \"--CODEGEN--\":24:62   */\n      returndatacopy\n        /* \"--CODEGEN--\":77:93   */\n      returndatasize\n        /* \"--CODEGEN--\":74:75   */\n      0x0\n        /* \"--CODEGEN--\":67:94   */\n      revert\n        /* \"--CODEGEN--\":5:7   */\n    tag_306:\n        /* \"Project-1-AuctionPlatform/AuctionPlatform.sol\":6628:6678  auctionList[aucOwners[msg.sender]].getMaximumBid() */\n      pop\n      pop\n      pop\n      pop\n      mload(0x40)\n      returndatasize\n        /* \"--CODEGEN--\":13:15   */\n      0x20\n        /* \"--CODEGEN--\":8:11   */\n      dup2\n        /* \"--CODEGEN--\":5:16   */\n      lt\n        /* \"--CODEGEN--\":2:4   */\n      iszero\n      tag_307\n      jumpi\n        /* \"--CODEGEN--\":29:30   */\n      0x0\n        /* \"--CODEGEN--\":26:27   */\n      dup1\n        /* \"--CODEGEN--\":19:31   */\n      revert\n        /* \"--CODEGEN--\":2:4   */\n    tag_307:\n        /* \"Project-1-AuctionPlatform/AuctionPlatform.sol\":6628:6678  auctionList[aucOwners[msg.sender]].getMaximumBid() */\n      dup2\n      add\n      swap1\n      dup1\n      dup1\n      mload\n      swap1\n      0x20\n      add\n      swap1\n      swap3\n      swap2\n      swap1\n      pop\n      pop\n      pop\n        /* \"Project-1-AuctionPlatform/AuctionPlatform.sol\":6611:6678  uint256 maxBid = auctionList[aucOwners[msg.sender]].getMaximumBid() */\n      swap2\n      pop\n        /* \"Project-1-AuctionPlatform/AuctionPlatform.sol\":6967:6978  auctionList */\n      0x1\n        /* \"Project-1-AuctionPlatform/AuctionPlatform.sol\":6979:6988  aucOwners */\n      0x2\n        /* \"Project-1-AuctionPlatform/AuctionPlatform.sol\":6979:7000  aucOwners[msg.sender] */\n      0x0\n        /* \"Project-1-AuctionPlatform/AuctionPlatform.sol\":6989:6999  msg.sender */\n      caller\n        /* \"Project-1-AuctionPlatform/AuctionPlatform.sol\":6979:7000  aucOwners[msg.sender] */\n      0xffffffffffffffffffffffffffffffffffffffff\n      and\n      0xffffffffffffffffffffffffffffffffffffffff\n      and\n      dup2\n      mstore\n      0x20\n      add\n      swap1\n      dup2\n      mstore\n      0x20\n      add\n      0x0\n      keccak256\n      sload\n        /* \"Project-1-AuctionPlatform/AuctionPlatform.sol\":6967:7001  auctionList[aucOwners[msg.sender]] */\n      dup2\n      sload\n      dup2\n      lt\n      iszero\n      iszero\n      tag_308\n      jumpi\n      invalid\n    tag_308:\n      swap1\n      0x0\n      mstore\n      keccak256(0x0, 0x20)\n      add\n      0x0\n      swap1\n      sload\n      swap1\n      0x100\n      exp\n      swap1\n      div\n      0xffffffffffffffffffffffffffffffffffffffff\n      and\n        /* \"Project-1-AuctionPlatform/AuctionPlatform.sol\":6967:7040  auctionList[aucOwners[msg.sender]]... */\n      0xffffffffffffffffffffffffffffffffffffffff\n      and\n      0xdee37a8e\n        /* \"Project-1-AuctionPlatform/AuctionPlatform.sol\":7041:7047  maxBid */\n      dup4\n        /* \"Project-1-AuctionPlatform/AuctionPlatform.sol\":6967:7048  auctionList[aucOwners[msg.sender]]... */\n      mload(0x40)\n      dup3\n      0xffffffff\n      and\n      0x100000000000000000000000000000000000000000000000000000000\n      mul\n      dup2\n      mstore\n      0x4\n      add\n      dup1\n      dup3\n      dup2\n      mstore\n      0x20\n      add\n      swap2\n      pop\n      pop\n      0x20\n      mload(0x40)\n      dup1\n      dup4\n      sub\n      dup2\n      0x0\n      dup8\n      dup1\n      extcodesize\n      iszero\n        /* \"--CODEGEN--\":8:17   */\n      dup1\n        /* \"--CODEGEN--\":5:7   */\n      iszero\n      tag_310\n      jumpi\n        /* \"--CODEGEN--\":30:31   */\n      0x0\n        /* \"--CODEGEN--\":27:28   */\n      dup1\n        /* \"--CODEGEN--\":20:32   */\n      revert\n        /* \"--CODEGEN--\":5:7   */\n    tag_310:\n        /* \"Project-1-AuctionPlatform/AuctionPlatform.sol\":6967:7048  auctionList[aucOwners[msg.sender]]... */\n      pop\n      gas\n      call\n      iszero\n        /* \"--CODEGEN--\":8:17   */\n      dup1\n        /* \"--CODEGEN--\":5:7   */\n      iszero\n      tag_311\n      jumpi\n        /* \"--CODEGEN--\":45:61   */\n      returndatasize\n        /* \"--CODEGEN--\":42:43   */\n      0x0\n        /* \"--CODEGEN--\":39:40   */\n      dup1\n        /* \"--CODEGEN--\":24:62   */\n      returndatacopy\n        /* \"--CODEGEN--\":77:93   */\n      returndatasize\n        /* \"--CODEGEN--\":74:75   */\n      0x0\n        /* \"--CODEGEN--\":67:94   */\n      revert\n        /* \"--CODEGEN--\":5:7   */\n    tag_311:\n        /* \"Project-1-AuctionPlatform/AuctionPlatform.sol\":6967:7048  auctionList[aucOwners[msg.sender]]... */\n      pop\n      pop\n      pop\n      pop\n      mload(0x40)\n      returndatasize\n        /* \"--CODEGEN--\":13:15   */\n      0x20\n        /* \"--CODEGEN--\":8:11   */\n      dup2\n        /* \"--CODEGEN--\":5:16   */\n      lt\n        /* \"--CODEGEN--\":2:4   */\n      iszero\n      tag_312\n      jumpi\n        /* \"--CODEGEN--\":29:30   */\n      0x0\n        /* \"--CODEGEN--\":26:27   */\n      dup1\n        /* \"--CODEGEN--\":19:31   */\n      revert\n        /* \"--CODEGEN--\":2:4   */\n    tag_312:\n        /* \"Project-1-AuctionPlatform/AuctionPlatform.sol\":6967:7048  auctionList[aucOwners[msg.sender]]... */\n      dup2\n      add\n      swap1\n      dup1\n      dup1\n      mload\n      swap1\n      0x20\n      add\n      swap1\n      swap3\n      swap2\n      swap1\n      pop\n      pop\n      pop\n        /* \"Project-1-AuctionPlatform/AuctionPlatform.sol\":6950:7048  address winner = auctionList[aucOwners[msg.sender]]... */\n      swap1\n      pop\n        /* \"Project-1-AuctionPlatform/AuctionPlatform.sol\":7085:7091  maxBid */\n      dup2\n        /* \"Project-1-AuctionPlatform/AuctionPlatform.sol\":7077:7083  winner */\n      dup2\n        /* \"Project-1-AuctionPlatform/AuctionPlatform.sol\":7064:7092  auctionEnded(winner, maxBid) */\n      0xffffffffffffffffffffffffffffffffffffffff\n      and\n      0x6e0e2174dbf7b77c08b6f9a2799b9feda84a6d54a5644864582040100a47d4c5\n      mload(0x40)\n      mload(0x40)\n      dup1\n      swap2\n      sub\n      swap1\n      log3\n        /* \"Project-1-AuctionPlatform/AuctionPlatform.sol\":7110:7116  winner */\n      dup1\n        /* \"Project-1-AuctionPlatform/AuctionPlatform.sol\":7103:7116  return winner */\n      swap3\n      pop\n        /* \"Project-1-AuctionPlatform/AuctionPlatform.sol\":6511:7123  function endAuction() public ifAuctionOwner returns (address) {... */\n      pop\n      pop\n      swap1\n      jump\t// out\n        /* \"https://github.com/bokkypoobah/BokkyPooBahsDateTimeLibrary/blob/1ea8ef42b3d8db17b910b46e4f8c124b59d77c03/contracts/BokkyPooBahsDateTimeLibrary.sol\":4428:4603  function timestampToDate(uint timestamp) internal pure returns (uint year, uint month, uint day) {... */\n    tag_191:\n        /* \"https://github.com/bokkypoobah/BokkyPooBahsDateTimeLibrary/blob/1ea8ef42b3d8db17b910b46e4f8c124b59d77c03/contracts/BokkyPooBahsDateTimeLibrary.sol\":4492:4501  uint year */\n      0x0\n        /* \"https://github.com/bokkypoobah/BokkyPooBahsDateTimeLibrary/blob/1ea8ef42b3d8db17b910b46e4f8c124b59d77c03/contracts/BokkyPooBahsDateTimeLibrary.sol\":4503:4513  uint month */\n      dup1\n        /* \"https://github.com/bokkypoobah/BokkyPooBahsDateTimeLibrary/blob/1ea8ef42b3d8db17b910b46e4f8c124b59d77c03/contracts/BokkyPooBahsDateTimeLibrary.sol\":4515:4523  uint day */\n      0x0\n        /* \"https://github.com/bokkypoobah/BokkyPooBahsDateTimeLibrary/blob/1ea8ef42b3d8db17b910b46e4f8c124b59d77c03/contracts/BokkyPooBahsDateTimeLibrary.sol\":4556:4596  _daysToDate(timestamp / SECONDS_PER_DAY) */\n      tag_314\n        /* \"https://github.com/bokkypoobah/BokkyPooBahsDateTimeLibrary/blob/1ea8ef42b3d8db17b910b46e4f8c124b59d77c03/contracts/BokkyPooBahsDateTimeLibrary.sol\":1058:1070  24 * 60 * 60 */\n      0x15180\n        /* \"https://github.com/bokkypoobah/BokkyPooBahsDateTimeLibrary/blob/1ea8ef42b3d8db17b910b46e4f8c124b59d77c03/contracts/BokkyPooBahsDateTimeLibrary.sol\":4568:4577  timestamp */\n      dup6\n        /* \"https://github.com/bokkypoobah/BokkyPooBahsDateTimeLibrary/blob/1ea8ef42b3d8db17b910b46e4f8c124b59d77c03/contracts/BokkyPooBahsDateTimeLibrary.sol\":4568:4595  timestamp / SECONDS_PER_DAY */\n      dup2\n      iszero\n      iszero\n      tag_315\n      jumpi\n      invalid\n    tag_315:\n      div\n        /* \"https://github.com/bokkypoobah/BokkyPooBahsDateTimeLibrary/blob/1ea8ef42b3d8db17b910b46e4f8c124b59d77c03/contracts/BokkyPooBahsDateTimeLibrary.sol\":4556:4567  _daysToDate */\n      tag_316\n        /* \"https://github.com/bokkypoobah/BokkyPooBahsDateTimeLibrary/blob/1ea8ef42b3d8db17b910b46e4f8c124b59d77c03/contracts/BokkyPooBahsDateTimeLibrary.sol\":4556:4596  _daysToDate(timestamp / SECONDS_PER_DAY) */\n      jump\t// in\n    tag_314:\n        /* \"https://github.com/bokkypoobah/BokkyPooBahsDateTimeLibrary/blob/1ea8ef42b3d8db17b910b46e4f8c124b59d77c03/contracts/BokkyPooBahsDateTimeLibrary.sol\":4535:4596  (year, month, day) = _daysToDate(timestamp / SECONDS_PER_DAY) */\n      dup1\n      swap4\n      pop\n      dup2\n      swap5\n      pop\n      dup3\n      swap6\n      pop\n      pop\n      pop\n      pop\n        /* \"https://github.com/bokkypoobah/BokkyPooBahsDateTimeLibrary/blob/1ea8ef42b3d8db17b910b46e4f8c124b59d77c03/contracts/BokkyPooBahsDateTimeLibrary.sol\":4428:4603  function timestampToDate(uint timestamp) internal pure returns (uint year, uint month, uint day) {... */\n      swap2\n      swap4\n      swap1\n      swap3\n      pop\n      jump\t// out\n        /* \"https://github.com/bokkypoobah/BokkyPooBahsDateTimeLibrary/blob/1ea8ef42b3d8db17b910b46e4f8c124b59d77c03/contracts/BokkyPooBahsDateTimeLibrary.sol\":5368:5663  function isValidDateTime(uint year, uint month, uint day, uint hour, uint minute, uint second) internal pure returns (bool valid) {... */\n    tag_263:\n        /* \"https://github.com/bokkypoobah/BokkyPooBahsDateTimeLibrary/blob/1ea8ef42b3d8db17b910b46e4f8c124b59d77c03/contracts/BokkyPooBahsDateTimeLibrary.sol\":5486:5496  bool valid */\n      0x0\n        /* \"https://github.com/bokkypoobah/BokkyPooBahsDateTimeLibrary/blob/1ea8ef42b3d8db17b910b46e4f8c124b59d77c03/contracts/BokkyPooBahsDateTimeLibrary.sol\":5512:5541  isValidDate(year, month, day) */\n      tag_318\n        /* \"https://github.com/bokkypoobah/BokkyPooBahsDateTimeLibrary/blob/1ea8ef42b3d8db17b910b46e4f8c124b59d77c03/contracts/BokkyPooBahsDateTimeLibrary.sol\":5524:5528  year */\n      dup8\n        /* \"https://github.com/bokkypoobah/BokkyPooBahsDateTimeLibrary/blob/1ea8ef42b3d8db17b910b46e4f8c124b59d77c03/contracts/BokkyPooBahsDateTimeLibrary.sol\":5530:5535  month */\n      dup8\n        /* \"https://github.com/bokkypoobah/BokkyPooBahsDateTimeLibrary/blob/1ea8ef42b3d8db17b910b46e4f8c124b59d77c03/contracts/BokkyPooBahsDateTimeLibrary.sol\":5537:5540  day */\n      dup8\n        /* \"https://github.com/bokkypoobah/BokkyPooBahsDateTimeLibrary/blob/1ea8ef42b3d8db17b910b46e4f8c124b59d77c03/contracts/BokkyPooBahsDateTimeLibrary.sol\":5512:5523  isValidDate */\n      tag_319\n        /* \"https://github.com/bokkypoobah/BokkyPooBahsDateTimeLibrary/blob/1ea8ef42b3d8db17b910b46e4f8c124b59d77c03/contracts/BokkyPooBahsDateTimeLibrary.sol\":5512:5541  isValidDate(year, month, day) */\n      jump\t// in\n    tag_318:\n        /* \"https://github.com/bokkypoobah/BokkyPooBahsDateTimeLibrary/blob/1ea8ef42b3d8db17b910b46e4f8c124b59d77c03/contracts/BokkyPooBahsDateTimeLibrary.sol\":5508:5657  if (isValidDate(year, month, day)) {... */\n      iszero\n      tag_320\n      jumpi\n        /* \"https://github.com/bokkypoobah/BokkyPooBahsDateTimeLibrary/blob/1ea8ef42b3d8db17b910b46e4f8c124b59d77c03/contracts/BokkyPooBahsDateTimeLibrary.sol\":5568:5570  24 */\n      0x18\n        /* \"https://github.com/bokkypoobah/BokkyPooBahsDateTimeLibrary/blob/1ea8ef42b3d8db17b910b46e4f8c124b59d77c03/contracts/BokkyPooBahsDateTimeLibrary.sol\":5561:5565  hour */\n      dup5\n        /* \"https://github.com/bokkypoobah/BokkyPooBahsDateTimeLibrary/blob/1ea8ef42b3d8db17b910b46e4f8c124b59d77c03/contracts/BokkyPooBahsDateTimeLibrary.sol\":5561:5570  hour < 24 */\n      lt\n        /* \"https://github.com/bokkypoobah/BokkyPooBahsDateTimeLibrary/blob/1ea8ef42b3d8db17b910b46e4f8c124b59d77c03/contracts/BokkyPooBahsDateTimeLibrary.sol\":5561:5585  hour < 24 && minute < 60 */\n      dup1\n      iszero\n      tag_321\n      jumpi\n      pop\n        /* \"https://github.com/bokkypoobah/BokkyPooBahsDateTimeLibrary/blob/1ea8ef42b3d8db17b910b46e4f8c124b59d77c03/contracts/BokkyPooBahsDateTimeLibrary.sol\":5583:5585  60 */\n      0x3c\n        /* \"https://github.com/bokkypoobah/BokkyPooBahsDateTimeLibrary/blob/1ea8ef42b3d8db17b910b46e4f8c124b59d77c03/contracts/BokkyPooBahsDateTimeLibrary.sol\":5574:5580  minute */\n      dup4\n        /* \"https://github.com/bokkypoobah/BokkyPooBahsDateTimeLibrary/blob/1ea8ef42b3d8db17b910b46e4f8c124b59d77c03/contracts/BokkyPooBahsDateTimeLibrary.sol\":5574:5585  minute < 60 */\n      lt\n        /* \"https://github.com/bokkypoobah/BokkyPooBahsDateTimeLibrary/blob/1ea8ef42b3d8db17b910b46e4f8c124b59d77c03/contracts/BokkyPooBahsDateTimeLibrary.sol\":5561:5585  hour < 24 && minute < 60 */\n    tag_321:\n        /* \"https://github.com/bokkypoobah/BokkyPooBahsDateTimeLibrary/blob/1ea8ef42b3d8db17b910b46e4f8c124b59d77c03/contracts/BokkyPooBahsDateTimeLibrary.sol\":5561:5600  hour < 24 && minute < 60 && second < 60 */\n      dup1\n      iszero\n      tag_322\n      jumpi\n      pop\n        /* \"https://github.com/bokkypoobah/BokkyPooBahsDateTimeLibrary/blob/1ea8ef42b3d8db17b910b46e4f8c124b59d77c03/contracts/BokkyPooBahsDateTimeLibrary.sol\":5598:5600  60 */\n      0x3c\n        /* \"https://github.com/bokkypoobah/BokkyPooBahsDateTimeLibrary/blob/1ea8ef42b3d8db17b910b46e4f8c124b59d77c03/contracts/BokkyPooBahsDateTimeLibrary.sol\":5589:5595  second */\n      dup3\n        /* \"https://github.com/bokkypoobah/BokkyPooBahsDateTimeLibrary/blob/1ea8ef42b3d8db17b910b46e4f8c124b59d77c03/contracts/BokkyPooBahsDateTimeLibrary.sol\":5589:5600  second < 60 */\n      lt\n        /* \"https://github.com/bokkypoobah/BokkyPooBahsDateTimeLibrary/blob/1ea8ef42b3d8db17b910b46e4f8c124b59d77c03/contracts/BokkyPooBahsDateTimeLibrary.sol\":5561:5600  hour < 24 && minute < 60 && second < 60 */\n    tag_322:\n        /* \"https://github.com/bokkypoobah/BokkyPooBahsDateTimeLibrary/blob/1ea8ef42b3d8db17b910b46e4f8c124b59d77c03/contracts/BokkyPooBahsDateTimeLibrary.sol\":5557:5647  if (hour < 24 && minute < 60 && second < 60) {... */\n      iszero\n      tag_323\n      jumpi\n        /* \"https://github.com/bokkypoobah/BokkyPooBahsDateTimeLibrary/blob/1ea8ef42b3d8db17b910b46e4f8c124b59d77c03/contracts/BokkyPooBahsDateTimeLibrary.sol\":5628:5632  true */\n      0x1\n        /* \"https://github.com/bokkypoobah/BokkyPooBahsDateTimeLibrary/blob/1ea8ef42b3d8db17b910b46e4f8c124b59d77c03/contracts/BokkyPooBahsDateTimeLibrary.sol\":5620:5632  valid = true */\n      swap1\n      pop\n        /* \"https://github.com/bokkypoobah/BokkyPooBahsDateTimeLibrary/blob/1ea8ef42b3d8db17b910b46e4f8c124b59d77c03/contracts/BokkyPooBahsDateTimeLibrary.sol\":5557:5647  if (hour < 24 && minute < 60 && second < 60) {... */\n    tag_323:\n        /* \"https://github.com/bokkypoobah/BokkyPooBahsDateTimeLibrary/blob/1ea8ef42b3d8db17b910b46e4f8c124b59d77c03/contracts/BokkyPooBahsDateTimeLibrary.sol\":5508:5657  if (isValidDate(year, month, day)) {... */\n    tag_320:\n        /* \"https://github.com/bokkypoobah/BokkyPooBahsDateTimeLibrary/blob/1ea8ef42b3d8db17b910b46e4f8c124b59d77c03/contracts/BokkyPooBahsDateTimeLibrary.sol\":5368:5663  function isValidDateTime(uint year, uint month, uint day, uint hour, uint minute, uint second) internal pure returns (bool valid) {... */\n      swap7\n      swap6\n      pop\n      pop\n      pop\n      pop\n      pop\n      pop\n      jump\t// out\n        /* \"https://github.com/bokkypoobah/BokkyPooBahsDateTimeLibrary/blob/1ea8ef42b3d8db17b910b46e4f8c124b59d77c03/contracts/BokkyPooBahsDateTimeLibrary.sol\":3958:4135  function timestampFromDate(uint year, uint month, uint day) internal pure returns (uint timestamp) {... */\n    tag_268:\n        /* \"https://github.com/bokkypoobah/BokkyPooBahsDateTimeLibrary/blob/1ea8ef42b3d8db17b910b46e4f8c124b59d77c03/contracts/BokkyPooBahsDateTimeLibrary.sol\":4041:4055  uint timestamp */\n      0x0\n        /* \"https://github.com/bokkypoobah/BokkyPooBahsDateTimeLibrary/blob/1ea8ef42b3d8db17b910b46e4f8c124b59d77c03/contracts/BokkyPooBahsDateTimeLibrary.sol\":1058:1070  24 * 60 * 60 */\n      0x15180\n        /* \"https://github.com/bokkypoobah/BokkyPooBahsDateTimeLibrary/blob/1ea8ef42b3d8db17b910b46e4f8c124b59d77c03/contracts/BokkyPooBahsDateTimeLibrary.sol\":4079:4110  _daysFromDate(year, month, day) */\n      tag_325\n        /* \"https://github.com/bokkypoobah/BokkyPooBahsDateTimeLibrary/blob/1ea8ef42b3d8db17b910b46e4f8c124b59d77c03/contracts/BokkyPooBahsDateTimeLibrary.sol\":4093:4097  year */\n      dup6\n        /* \"https://github.com/bokkypoobah/BokkyPooBahsDateTimeLibrary/blob/1ea8ef42b3d8db17b910b46e4f8c124b59d77c03/contracts/BokkyPooBahsDateTimeLibrary.sol\":4099:4104  month */\n      dup6\n        /* \"https://github.com/bokkypoobah/BokkyPooBahsDateTimeLibrary/blob/1ea8ef42b3d8db17b910b46e4f8c124b59d77c03/contracts/BokkyPooBahsDateTimeLibrary.sol\":4106:4109  day */\n      dup6\n        /* \"https://github.com/bokkypoobah/BokkyPooBahsDateTimeLibrary/blob/1ea8ef42b3d8db17b910b46e4f8c124b59d77c03/contracts/BokkyPooBahsDateTimeLibrary.sol\":4079:4092  _daysFromDate */\n      tag_326\n        /* \"https://github.com/bokkypoobah/BokkyPooBahsDateTimeLibrary/blob/1ea8ef42b3d8db17b910b46e4f8c124b59d77c03/contracts/BokkyPooBahsDateTimeLibrary.sol\":4079:4110  _daysFromDate(year, month, day) */\n      jump\t// in\n    tag_325:\n        /* \"https://github.com/bokkypoobah/BokkyPooBahsDateTimeLibrary/blob/1ea8ef42b3d8db17b910b46e4f8c124b59d77c03/contracts/BokkyPooBahsDateTimeLibrary.sol\":4079:4128  _daysFromDate(year, month, day) * SECONDS_PER_DAY */\n      mul\n        /* \"https://github.com/bokkypoobah/BokkyPooBahsDateTimeLibrary/blob/1ea8ef42b3d8db17b910b46e4f8c124b59d77c03/contracts/BokkyPooBahsDateTimeLibrary.sol\":4067:4128  timestamp = _daysFromDate(year, month, day) * SECONDS_PER_DAY */\n      swap1\n      pop\n        /* \"https://github.com/bokkypoobah/BokkyPooBahsDateTimeLibrary/blob/1ea8ef42b3d8db17b910b46e4f8c124b59d77c03/contracts/BokkyPooBahsDateTimeLibrary.sol\":3958:4135  function timestampFromDate(uint year, uint month, uint day) internal pure returns (uint timestamp) {... */\n      swap4\n      swap3\n      pop\n      pop\n      pop\n      jump\t// out\n        /* \"https://github.com/bokkypoobah/BokkyPooBahsDateTimeLibrary/blob/1ea8ef42b3d8db17b910b46e4f8c124b59d77c03/contracts/BokkyPooBahsDateTimeLibrary.sol\":3347:3952  function _daysToDate(uint _days) internal pure returns (uint year, uint month, uint day) {... */\n    tag_316:\n        /* \"https://github.com/bokkypoobah/BokkyPooBahsDateTimeLibrary/blob/1ea8ef42b3d8db17b910b46e4f8c124b59d77c03/contracts/BokkyPooBahsDateTimeLibrary.sol\":3403:3412  uint year */\n      0x0\n        /* \"https://github.com/bokkypoobah/BokkyPooBahsDateTimeLibrary/blob/1ea8ef42b3d8db17b910b46e4f8c124b59d77c03/contracts/BokkyPooBahsDateTimeLibrary.sol\":3414:3424  uint month */\n      dup1\n        /* \"https://github.com/bokkypoobah/BokkyPooBahsDateTimeLibrary/blob/1ea8ef42b3d8db17b910b46e4f8c124b59d77c03/contracts/BokkyPooBahsDateTimeLibrary.sol\":3426:3434  uint day */\n      0x0\n        /* \"https://github.com/bokkypoobah/BokkyPooBahsDateTimeLibrary/blob/1ea8ef42b3d8db17b910b46e4f8c124b59d77c03/contracts/BokkyPooBahsDateTimeLibrary.sol\":3446:3456  int __days */\n      dup1\n        /* \"https://github.com/bokkypoobah/BokkyPooBahsDateTimeLibrary/blob/1ea8ef42b3d8db17b910b46e4f8c124b59d77c03/contracts/BokkyPooBahsDateTimeLibrary.sol\":3480:3485  int L */\n      0x0\n        /* \"https://github.com/bokkypoobah/BokkyPooBahsDateTimeLibrary/blob/1ea8ef42b3d8db17b910b46e4f8c124b59d77c03/contracts/BokkyPooBahsDateTimeLibrary.sol\":3529:3534  int N */\n      dup1\n        /* \"https://github.com/bokkypoobah/BokkyPooBahsDateTimeLibrary/blob/1ea8ef42b3d8db17b910b46e4f8c124b59d77c03/contracts/BokkyPooBahsDateTimeLibrary.sol\":3599:3608  int _year */\n      0x0\n        /* \"https://github.com/bokkypoobah/BokkyPooBahsDateTimeLibrary/blob/1ea8ef42b3d8db17b910b46e4f8c124b59d77c03/contracts/BokkyPooBahsDateTimeLibrary.sol\":3684:3694  int _month */\n      dup1\n        /* \"https://github.com/bokkypoobah/BokkyPooBahsDateTimeLibrary/blob/1ea8ef42b3d8db17b910b46e4f8c124b59d77c03/contracts/BokkyPooBahsDateTimeLibrary.sol\":3720:3728  int _day */\n      0x0\n        /* \"https://github.com/bokkypoobah/BokkyPooBahsDateTimeLibrary/blob/1ea8ef42b3d8db17b910b46e4f8c124b59d77c03/contracts/BokkyPooBahsDateTimeLibrary.sol\":3463:3468  _days */\n      dup10\n        /* \"https://github.com/bokkypoobah/BokkyPooBahsDateTimeLibrary/blob/1ea8ef42b3d8db17b910b46e4f8c124b59d77c03/contracts/BokkyPooBahsDateTimeLibrary.sol\":3446:3469  int __days = int(_days) */\n      swap6\n      pop\n        /* \"https://github.com/bokkypoobah/BokkyPooBahsDateTimeLibrary/blob/1ea8ef42b3d8db17b910b46e4f8c124b59d77c03/contracts/BokkyPooBahsDateTimeLibrary.sol\":1195:1202  2440588 */\n      0x253d8c\n        /* \"https://github.com/bokkypoobah/BokkyPooBahsDateTimeLibrary/blob/1ea8ef42b3d8db17b910b46e4f8c124b59d77c03/contracts/BokkyPooBahsDateTimeLibrary.sol\":3497:3502  68569 */\n      0x10bd9\n        /* \"https://github.com/bokkypoobah/BokkyPooBahsDateTimeLibrary/blob/1ea8ef42b3d8db17b910b46e4f8c124b59d77c03/contracts/BokkyPooBahsDateTimeLibrary.sol\":3488:3494  __days */\n      dup8\n        /* \"https://github.com/bokkypoobah/BokkyPooBahsDateTimeLibrary/blob/1ea8ef42b3d8db17b910b46e4f8c124b59d77c03/contracts/BokkyPooBahsDateTimeLibrary.sol\":3488:3502  __days + 68569 */\n      add\n        /* \"https://github.com/bokkypoobah/BokkyPooBahsDateTimeLibrary/blob/1ea8ef42b3d8db17b910b46e4f8c124b59d77c03/contracts/BokkyPooBahsDateTimeLibrary.sol\":3488:3519  __days + 68569 + OFFSET19700101 */\n      add\n        /* \"https://github.com/bokkypoobah/BokkyPooBahsDateTimeLibrary/blob/1ea8ef42b3d8db17b910b46e4f8c124b59d77c03/contracts/BokkyPooBahsDateTimeLibrary.sol\":3480:3519  int L = __days + 68569 + OFFSET19700101 */\n      swap5\n      pop\n        /* \"https://github.com/bokkypoobah/BokkyPooBahsDateTimeLibrary/blob/1ea8ef42b3d8db17b910b46e4f8c124b59d77c03/contracts/BokkyPooBahsDateTimeLibrary.sol\":3545:3551  146097 */\n      0x23ab1\n        /* \"https://github.com/bokkypoobah/BokkyPooBahsDateTimeLibrary/blob/1ea8ef42b3d8db17b910b46e4f8c124b59d77c03/contracts/BokkyPooBahsDateTimeLibrary.sol\":3541:3542  L */\n      dup6\n        /* \"https://github.com/bokkypoobah/BokkyPooBahsDateTimeLibrary/blob/1ea8ef42b3d8db17b910b46e4f8c124b59d77c03/contracts/BokkyPooBahsDateTimeLibrary.sol\":3537:3538  4 */\n      0x4\n        /* \"https://github.com/bokkypoobah/BokkyPooBahsDateTimeLibrary/blob/1ea8ef42b3d8db17b910b46e4f8c124b59d77c03/contracts/BokkyPooBahsDateTimeLibrary.sol\":3537:3542  4 * L */\n      mul\n        /* \"https://github.com/bokkypoobah/BokkyPooBahsDateTimeLibrary/blob/1ea8ef42b3d8db17b910b46e4f8c124b59d77c03/contracts/BokkyPooBahsDateTimeLibrary.sol\":3537:3551  4 * L / 146097 */\n      dup2\n      iszero\n      iszero\n      tag_328\n      jumpi\n      invalid\n    tag_328:\n      sdiv\n        /* \"https://github.com/bokkypoobah/BokkyPooBahsDateTimeLibrary/blob/1ea8ef42b3d8db17b910b46e4f8c124b59d77c03/contracts/BokkyPooBahsDateTimeLibrary.sol\":3529:3551  int N = 4 * L / 146097 */\n      swap4\n      pop\n        /* \"https://github.com/bokkypoobah/BokkyPooBahsDateTimeLibrary/blob/1ea8ef42b3d8db17b910b46e4f8c124b59d77c03/contracts/BokkyPooBahsDateTimeLibrary.sol\":3588:3589  4 */\n      0x4\n        /* \"https://github.com/bokkypoobah/BokkyPooBahsDateTimeLibrary/blob/1ea8ef42b3d8db17b910b46e4f8c124b59d77c03/contracts/BokkyPooBahsDateTimeLibrary.sol\":3583:3584  3 */\n      0x3\n        /* \"https://github.com/bokkypoobah/BokkyPooBahsDateTimeLibrary/blob/1ea8ef42b3d8db17b910b46e4f8c124b59d77c03/contracts/BokkyPooBahsDateTimeLibrary.sol\":3579:3580  N */\n      dup6\n        /* \"https://github.com/bokkypoobah/BokkyPooBahsDateTimeLibrary/blob/1ea8ef42b3d8db17b910b46e4f8c124b59d77c03/contracts/BokkyPooBahsDateTimeLibrary.sol\":3570:3576  146097 */\n      0x23ab1\n        /* \"https://github.com/bokkypoobah/BokkyPooBahsDateTimeLibrary/blob/1ea8ef42b3d8db17b910b46e4f8c124b59d77c03/contracts/BokkyPooBahsDateTimeLibrary.sol\":3570:3580  146097 * N */\n      mul\n        /* \"https://github.com/bokkypoobah/BokkyPooBahsDateTimeLibrary/blob/1ea8ef42b3d8db17b910b46e4f8c124b59d77c03/contracts/BokkyPooBahsDateTimeLibrary.sol\":3570:3584  146097 * N + 3 */\n      add\n        /* \"https://github.com/bokkypoobah/BokkyPooBahsDateTimeLibrary/blob/1ea8ef42b3d8db17b910b46e4f8c124b59d77c03/contracts/BokkyPooBahsDateTimeLibrary.sol\":3569:3589  (146097 * N + 3) / 4 */\n      dup2\n      iszero\n      iszero\n      tag_329\n      jumpi\n      invalid\n    tag_329:\n      sdiv\n        /* \"https://github.com/bokkypoobah/BokkyPooBahsDateTimeLibrary/blob/1ea8ef42b3d8db17b910b46e4f8c124b59d77c03/contracts/BokkyPooBahsDateTimeLibrary.sol\":3565:3566  L */\n      dup6\n        /* \"https://github.com/bokkypoobah/BokkyPooBahsDateTimeLibrary/blob/1ea8ef42b3d8db17b910b46e4f8c124b59d77c03/contracts/BokkyPooBahsDateTimeLibrary.sol\":3565:3589  L - (146097 * N + 3) / 4 */\n      sub\n        /* \"https://github.com/bokkypoobah/BokkyPooBahsDateTimeLibrary/blob/1ea8ef42b3d8db17b910b46e4f8c124b59d77c03/contracts/BokkyPooBahsDateTimeLibrary.sol\":3561:3589  L = L - (146097 * N + 3) / 4 */\n      swap5\n      pop\n        /* \"https://github.com/bokkypoobah/BokkyPooBahsDateTimeLibrary/blob/1ea8ef42b3d8db17b910b46e4f8c124b59d77c03/contracts/BokkyPooBahsDateTimeLibrary.sol\":3628:3635  1461001 */\n      0x164b09\n        /* \"https://github.com/bokkypoobah/BokkyPooBahsDateTimeLibrary/blob/1ea8ef42b3d8db17b910b46e4f8c124b59d77c03/contracts/BokkyPooBahsDateTimeLibrary.sol\":3623:3624  1 */\n      0x1\n        /* \"https://github.com/bokkypoobah/BokkyPooBahsDateTimeLibrary/blob/1ea8ef42b3d8db17b910b46e4f8c124b59d77c03/contracts/BokkyPooBahsDateTimeLibrary.sol\":3619:3620  L */\n      dup7\n        /* \"https://github.com/bokkypoobah/BokkyPooBahsDateTimeLibrary/blob/1ea8ef42b3d8db17b910b46e4f8c124b59d77c03/contracts/BokkyPooBahsDateTimeLibrary.sol\":3619:3624  L + 1 */\n      add\n        /* \"https://github.com/bokkypoobah/BokkyPooBahsDateTimeLibrary/blob/1ea8ef42b3d8db17b910b46e4f8c124b59d77c03/contracts/BokkyPooBahsDateTimeLibrary.sol\":3611:3615  4000 */\n      0xfa0\n        /* \"https://github.com/bokkypoobah/BokkyPooBahsDateTimeLibrary/blob/1ea8ef42b3d8db17b910b46e4f8c124b59d77c03/contracts/BokkyPooBahsDateTimeLibrary.sol\":3611:3625  4000 * (L + 1) */\n      mul\n        /* \"https://github.com/bokkypoobah/BokkyPooBahsDateTimeLibrary/blob/1ea8ef42b3d8db17b910b46e4f8c124b59d77c03/contracts/BokkyPooBahsDateTimeLibrary.sol\":3611:3635  4000 * (L + 1) / 1461001 */\n      dup2\n      iszero\n      iszero\n      tag_330\n      jumpi\n      invalid\n    tag_330:\n      sdiv\n        /* \"https://github.com/bokkypoobah/BokkyPooBahsDateTimeLibrary/blob/1ea8ef42b3d8db17b910b46e4f8c124b59d77c03/contracts/BokkyPooBahsDateTimeLibrary.sol\":3599:3635  int _year = 4000 * (L + 1) / 1461001 */\n      swap3\n      pop\n        /* \"https://github.com/bokkypoobah/BokkyPooBahsDateTimeLibrary/blob/1ea8ef42b3d8db17b910b46e4f8c124b59d77c03/contracts/BokkyPooBahsDateTimeLibrary.sol\":3672:3674  31 */\n      0x1f\n        /* \"https://github.com/bokkypoobah/BokkyPooBahsDateTimeLibrary/blob/1ea8ef42b3d8db17b910b46e4f8c124b59d77c03/contracts/BokkyPooBahsDateTimeLibrary.sol\":3668:3669  4 */\n      0x4\n        /* \"https://github.com/bokkypoobah/BokkyPooBahsDateTimeLibrary/blob/1ea8ef42b3d8db17b910b46e4f8c124b59d77c03/contracts/BokkyPooBahsDateTimeLibrary.sol\":3660:3665  _year */\n      dup5\n        /* \"https://github.com/bokkypoobah/BokkyPooBahsDateTimeLibrary/blob/1ea8ef42b3d8db17b910b46e4f8c124b59d77c03/contracts/BokkyPooBahsDateTimeLibrary.sol\":3653:3657  1461 */\n      0x5b5\n        /* \"https://github.com/bokkypoobah/BokkyPooBahsDateTimeLibrary/blob/1ea8ef42b3d8db17b910b46e4f8c124b59d77c03/contracts/BokkyPooBahsDateTimeLibrary.sol\":3653:3665  1461 * _year */\n      mul\n        /* \"https://github.com/bokkypoobah/BokkyPooBahsDateTimeLibrary/blob/1ea8ef42b3d8db17b910b46e4f8c124b59d77c03/contracts/BokkyPooBahsDateTimeLibrary.sol\":3653:3669  1461 * _year / 4 */\n      dup2\n      iszero\n      iszero\n      tag_331\n      jumpi\n      invalid\n    tag_331:\n      sdiv\n        /* \"https://github.com/bokkypoobah/BokkyPooBahsDateTimeLibrary/blob/1ea8ef42b3d8db17b910b46e4f8c124b59d77c03/contracts/BokkyPooBahsDateTimeLibrary.sol\":3649:3650  L */\n      dup7\n        /* \"https://github.com/bokkypoobah/BokkyPooBahsDateTimeLibrary/blob/1ea8ef42b3d8db17b910b46e4f8c124b59d77c03/contracts/BokkyPooBahsDateTimeLibrary.sol\":3649:3669  L - 1461 * _year / 4 */\n      sub\n        /* \"https://github.com/bokkypoobah/BokkyPooBahsDateTimeLibrary/blob/1ea8ef42b3d8db17b910b46e4f8c124b59d77c03/contracts/BokkyPooBahsDateTimeLibrary.sol\":3649:3674  L - 1461 * _year / 4 + 31 */\n      add\n        /* \"https://github.com/bokkypoobah/BokkyPooBahsDateTimeLibrary/blob/1ea8ef42b3d8db17b910b46e4f8c124b59d77c03/contracts/BokkyPooBahsDateTimeLibrary.sol\":3645:3674  L = L - 1461 * _year / 4 + 31 */\n      swap5\n      pop\n        /* \"https://github.com/bokkypoobah/BokkyPooBahsDateTimeLibrary/blob/1ea8ef42b3d8db17b910b46e4f8c124b59d77c03/contracts/BokkyPooBahsDateTimeLibrary.sol\":3706:3710  2447 */\n      0x98f\n        /* \"https://github.com/bokkypoobah/BokkyPooBahsDateTimeLibrary/blob/1ea8ef42b3d8db17b910b46e4f8c124b59d77c03/contracts/BokkyPooBahsDateTimeLibrary.sol\":3702:3703  L */\n      dup6\n        /* \"https://github.com/bokkypoobah/BokkyPooBahsDateTimeLibrary/blob/1ea8ef42b3d8db17b910b46e4f8c124b59d77c03/contracts/BokkyPooBahsDateTimeLibrary.sol\":3697:3699  80 */\n      0x50\n        /* \"https://github.com/bokkypoobah/BokkyPooBahsDateTimeLibrary/blob/1ea8ef42b3d8db17b910b46e4f8c124b59d77c03/contracts/BokkyPooBahsDateTimeLibrary.sol\":3697:3703  80 * L */\n      mul\n        /* \"https://github.com/bokkypoobah/BokkyPooBahsDateTimeLibrary/blob/1ea8ef42b3d8db17b910b46e4f8c124b59d77c03/contracts/BokkyPooBahsDateTimeLibrary.sol\":3697:3710  80 * L / 2447 */\n      dup2\n      iszero\n      iszero\n      tag_332\n      jumpi\n      invalid\n    tag_332:\n      sdiv\n        /* \"https://github.com/bokkypoobah/BokkyPooBahsDateTimeLibrary/blob/1ea8ef42b3d8db17b910b46e4f8c124b59d77c03/contracts/BokkyPooBahsDateTimeLibrary.sol\":3684:3710  int _month = 80 * L / 2447 */\n      swap2\n      pop\n        /* \"https://github.com/bokkypoobah/BokkyPooBahsDateTimeLibrary/blob/1ea8ef42b3d8db17b910b46e4f8c124b59d77c03/contracts/BokkyPooBahsDateTimeLibrary.sol\":3751:3753  80 */\n      0x50\n        /* \"https://github.com/bokkypoobah/BokkyPooBahsDateTimeLibrary/blob/1ea8ef42b3d8db17b910b46e4f8c124b59d77c03/contracts/BokkyPooBahsDateTimeLibrary.sol\":3742:3748  _month */\n      dup3\n        /* \"https://github.com/bokkypoobah/BokkyPooBahsDateTimeLibrary/blob/1ea8ef42b3d8db17b910b46e4f8c124b59d77c03/contracts/BokkyPooBahsDateTimeLibrary.sol\":3735:3739  2447 */\n      0x98f\n        /* \"https://github.com/bokkypoobah/BokkyPooBahsDateTimeLibrary/blob/1ea8ef42b3d8db17b910b46e4f8c124b59d77c03/contracts/BokkyPooBahsDateTimeLibrary.sol\":3735:3748  2447 * _month */\n      mul\n        /* \"https://github.com/bokkypoobah/BokkyPooBahsDateTimeLibrary/blob/1ea8ef42b3d8db17b910b46e4f8c124b59d77c03/contracts/BokkyPooBahsDateTimeLibrary.sol\":3735:3753  2447 * _month / 80 */\n      dup2\n      iszero\n      iszero\n      tag_333\n      jumpi\n      invalid\n    tag_333:\n      sdiv\n        /* \"https://github.com/bokkypoobah/BokkyPooBahsDateTimeLibrary/blob/1ea8ef42b3d8db17b910b46e4f8c124b59d77c03/contracts/BokkyPooBahsDateTimeLibrary.sol\":3731:3732  L */\n      dup6\n        /* \"https://github.com/bokkypoobah/BokkyPooBahsDateTimeLibrary/blob/1ea8ef42b3d8db17b910b46e4f8c124b59d77c03/contracts/BokkyPooBahsDateTimeLibrary.sol\":3731:3753  L - 2447 * _month / 80 */\n      sub\n        /* \"https://github.com/bokkypoobah/BokkyPooBahsDateTimeLibrary/blob/1ea8ef42b3d8db17b910b46e4f8c124b59d77c03/contracts/BokkyPooBahsDateTimeLibrary.sol\":3720:3753  int _day = L - 2447 * _month / 80 */\n      swap1\n      pop\n        /* \"https://github.com/bokkypoobah/BokkyPooBahsDateTimeLibrary/blob/1ea8ef42b3d8db17b910b46e4f8c124b59d77c03/contracts/BokkyPooBahsDateTimeLibrary.sol\":3776:3778  11 */\n      0xb\n        /* \"https://github.com/bokkypoobah/BokkyPooBahsDateTimeLibrary/blob/1ea8ef42b3d8db17b910b46e4f8c124b59d77c03/contracts/BokkyPooBahsDateTimeLibrary.sol\":3767:3773  _month */\n      dup3\n        /* \"https://github.com/bokkypoobah/BokkyPooBahsDateTimeLibrary/blob/1ea8ef42b3d8db17b910b46e4f8c124b59d77c03/contracts/BokkyPooBahsDateTimeLibrary.sol\":3767:3778  _month / 11 */\n      dup2\n      iszero\n      iszero\n      tag_334\n      jumpi\n      invalid\n    tag_334:\n      sdiv\n        /* \"https://github.com/bokkypoobah/BokkyPooBahsDateTimeLibrary/blob/1ea8ef42b3d8db17b910b46e4f8c124b59d77c03/contracts/BokkyPooBahsDateTimeLibrary.sol\":3763:3778  L = _month / 11 */\n      swap5\n      pop\n        /* \"https://github.com/bokkypoobah/BokkyPooBahsDateTimeLibrary/blob/1ea8ef42b3d8db17b910b46e4f8c124b59d77c03/contracts/BokkyPooBahsDateTimeLibrary.sol\":3815:3816  L */\n      dup5\n        /* \"https://github.com/bokkypoobah/BokkyPooBahsDateTimeLibrary/blob/1ea8ef42b3d8db17b910b46e4f8c124b59d77c03/contracts/BokkyPooBahsDateTimeLibrary.sol\":3810:3812  12 */\n      0xc\n        /* \"https://github.com/bokkypoobah/BokkyPooBahsDateTimeLibrary/blob/1ea8ef42b3d8db17b910b46e4f8c124b59d77c03/contracts/BokkyPooBahsDateTimeLibrary.sol\":3810:3816  12 * L */\n      mul\n        /* \"https://github.com/bokkypoobah/BokkyPooBahsDateTimeLibrary/blob/1ea8ef42b3d8db17b910b46e4f8c124b59d77c03/contracts/BokkyPooBahsDateTimeLibrary.sol\":3806:3807  2 */\n      0x2\n        /* \"https://github.com/bokkypoobah/BokkyPooBahsDateTimeLibrary/blob/1ea8ef42b3d8db17b910b46e4f8c124b59d77c03/contracts/BokkyPooBahsDateTimeLibrary.sol\":3797:3803  _month */\n      dup4\n        /* \"https://github.com/bokkypoobah/BokkyPooBahsDateTimeLibrary/blob/1ea8ef42b3d8db17b910b46e4f8c124b59d77c03/contracts/BokkyPooBahsDateTimeLibrary.sol\":3797:3807  _month + 2 */\n      add\n        /* \"https://github.com/bokkypoobah/BokkyPooBahsDateTimeLibrary/blob/1ea8ef42b3d8db17b910b46e4f8c124b59d77c03/contracts/BokkyPooBahsDateTimeLibrary.sol\":3797:3816  _month + 2 - 12 * L */\n      sub\n        /* \"https://github.com/bokkypoobah/BokkyPooBahsDateTimeLibrary/blob/1ea8ef42b3d8db17b910b46e4f8c124b59d77c03/contracts/BokkyPooBahsDateTimeLibrary.sol\":3788:3816  _month = _month + 2 - 12 * L */\n      swap2\n      pop\n        /* \"https://github.com/bokkypoobah/BokkyPooBahsDateTimeLibrary/blob/1ea8ef42b3d8db17b910b46e4f8c124b59d77c03/contracts/BokkyPooBahsDateTimeLibrary.sol\":3859:3860  L */\n      dup5\n        /* \"https://github.com/bokkypoobah/BokkyPooBahsDateTimeLibrary/blob/1ea8ef42b3d8db17b910b46e4f8c124b59d77c03/contracts/BokkyPooBahsDateTimeLibrary.sol\":3851:3856  _year */\n      dup4\n        /* \"https://github.com/bokkypoobah/BokkyPooBahsDateTimeLibrary/blob/1ea8ef42b3d8db17b910b46e4f8c124b59d77c03/contracts/BokkyPooBahsDateTimeLibrary.sol\":3845:3847  49 */\n      0x31\n        /* \"https://github.com/bokkypoobah/BokkyPooBahsDateTimeLibrary/blob/1ea8ef42b3d8db17b910b46e4f8c124b59d77c03/contracts/BokkyPooBahsDateTimeLibrary.sol\":3841:3842  N */\n      dup7\n        /* \"https://github.com/bokkypoobah/BokkyPooBahsDateTimeLibrary/blob/1ea8ef42b3d8db17b910b46e4f8c124b59d77c03/contracts/BokkyPooBahsDateTimeLibrary.sol\":3841:3847  N - 49 */\n      sub\n        /* \"https://github.com/bokkypoobah/BokkyPooBahsDateTimeLibrary/blob/1ea8ef42b3d8db17b910b46e4f8c124b59d77c03/contracts/BokkyPooBahsDateTimeLibrary.sol\":3834:3837  100 */\n      0x64\n        /* \"https://github.com/bokkypoobah/BokkyPooBahsDateTimeLibrary/blob/1ea8ef42b3d8db17b910b46e4f8c124b59d77c03/contracts/BokkyPooBahsDateTimeLibrary.sol\":3834:3848  100 * (N - 49) */\n      mul\n        /* \"https://github.com/bokkypoobah/BokkyPooBahsDateTimeLibrary/blob/1ea8ef42b3d8db17b910b46e4f8c124b59d77c03/contracts/BokkyPooBahsDateTimeLibrary.sol\":3834:3856  100 * (N - 49) + _year */\n      add\n        /* \"https://github.com/bokkypoobah/BokkyPooBahsDateTimeLibrary/blob/1ea8ef42b3d8db17b910b46e4f8c124b59d77c03/contracts/BokkyPooBahsDateTimeLibrary.sol\":3834:3860  100 * (N - 49) + _year + L */\n      add\n        /* \"https://github.com/bokkypoobah/BokkyPooBahsDateTimeLibrary/blob/1ea8ef42b3d8db17b910b46e4f8c124b59d77c03/contracts/BokkyPooBahsDateTimeLibrary.sol\":3826:3860  _year = 100 * (N - 49) + _year + L */\n      swap3\n      pop\n        /* \"https://github.com/bokkypoobah/BokkyPooBahsDateTimeLibrary/blob/1ea8ef42b3d8db17b910b46e4f8c124b59d77c03/contracts/BokkyPooBahsDateTimeLibrary.sol\":3883:3888  _year */\n      dup3\n        /* \"https://github.com/bokkypoobah/BokkyPooBahsDateTimeLibrary/blob/1ea8ef42b3d8db17b910b46e4f8c124b59d77c03/contracts/BokkyPooBahsDateTimeLibrary.sol\":3871:3889  year = uint(_year) */\n      swap9\n      pop\n        /* \"https://github.com/bokkypoobah/BokkyPooBahsDateTimeLibrary/blob/1ea8ef42b3d8db17b910b46e4f8c124b59d77c03/contracts/BokkyPooBahsDateTimeLibrary.sol\":3912:3918  _month */\n      dup2\n        /* \"https://github.com/bokkypoobah/BokkyPooBahsDateTimeLibrary/blob/1ea8ef42b3d8db17b910b46e4f8c124b59d77c03/contracts/BokkyPooBahsDateTimeLibrary.sol\":3899:3919  month = uint(_month) */\n      swap8\n      pop\n        /* \"https://github.com/bokkypoobah/BokkyPooBahsDateTimeLibrary/blob/1ea8ef42b3d8db17b910b46e4f8c124b59d77c03/contracts/BokkyPooBahsDateTimeLibrary.sol\":3940:3944  _day */\n      dup1\n        /* \"https://github.com/bokkypoobah/BokkyPooBahsDateTimeLibrary/blob/1ea8ef42b3d8db17b910b46e4f8c124b59d77c03/contracts/BokkyPooBahsDateTimeLibrary.sol\":3929:3945  day = uint(_day) */\n      swap7\n      pop\n        /* \"https://github.com/bokkypoobah/BokkyPooBahsDateTimeLibrary/blob/1ea8ef42b3d8db17b910b46e4f8c124b59d77c03/contracts/BokkyPooBahsDateTimeLibrary.sol\":3347:3952  function _daysToDate(uint _days) internal pure returns (uint year, uint month, uint day) {... */\n      pop\n      pop\n      pop\n      pop\n      pop\n      pop\n      swap2\n      swap4\n      swap1\n      swap3\n      pop\n      jump\t// out\n        /* \"https://github.com/bokkypoobah/BokkyPooBahsDateTimeLibrary/blob/1ea8ef42b3d8db17b910b46e4f8c124b59d77c03/contracts/BokkyPooBahsDateTimeLibrary.sol\":5047:5363  function isValidDate(uint year, uint month, uint day) internal pure returns (bool valid) {... */\n    tag_319:\n        /* \"https://github.com/bokkypoobah/BokkyPooBahsDateTimeLibrary/blob/1ea8ef42b3d8db17b910b46e4f8c124b59d77c03/contracts/BokkyPooBahsDateTimeLibrary.sol\":5124:5134  bool valid */\n      0x0\n        /* \"https://github.com/bokkypoobah/BokkyPooBahsDateTimeLibrary/blob/1ea8ef42b3d8db17b910b46e4f8c124b59d77c03/contracts/BokkyPooBahsDateTimeLibrary.sol\":5206:5222  uint daysInMonth */\n      dup1\n        /* \"https://github.com/bokkypoobah/BokkyPooBahsDateTimeLibrary/blob/1ea8ef42b3d8db17b910b46e4f8c124b59d77c03/contracts/BokkyPooBahsDateTimeLibrary.sol\":5158:5162  1970 */\n      0x7b2\n        /* \"https://github.com/bokkypoobah/BokkyPooBahsDateTimeLibrary/blob/1ea8ef42b3d8db17b910b46e4f8c124b59d77c03/contracts/BokkyPooBahsDateTimeLibrary.sol\":5150:5154  year */\n      dup6\n        /* \"https://github.com/bokkypoobah/BokkyPooBahsDateTimeLibrary/blob/1ea8ef42b3d8db17b910b46e4f8c124b59d77c03/contracts/BokkyPooBahsDateTimeLibrary.sol\":5150:5162  year >= 1970 */\n      lt\n      iszero\n        /* \"https://github.com/bokkypoobah/BokkyPooBahsDateTimeLibrary/blob/1ea8ef42b3d8db17b910b46e4f8c124b59d77c03/contracts/BokkyPooBahsDateTimeLibrary.sol\":5150:5175  year >= 1970 && month > 0 */\n      dup1\n      iszero\n      tag_336\n      jumpi\n      pop\n        /* \"https://github.com/bokkypoobah/BokkyPooBahsDateTimeLibrary/blob/1ea8ef42b3d8db17b910b46e4f8c124b59d77c03/contracts/BokkyPooBahsDateTimeLibrary.sol\":5174:5175  0 */\n      0x0\n        /* \"https://github.com/bokkypoobah/BokkyPooBahsDateTimeLibrary/blob/1ea8ef42b3d8db17b910b46e4f8c124b59d77c03/contracts/BokkyPooBahsDateTimeLibrary.sol\":5166:5171  month */\n      dup5\n        /* \"https://github.com/bokkypoobah/BokkyPooBahsDateTimeLibrary/blob/1ea8ef42b3d8db17b910b46e4f8c124b59d77c03/contracts/BokkyPooBahsDateTimeLibrary.sol\":5166:5175  month > 0 */\n      gt\n        /* \"https://github.com/bokkypoobah/BokkyPooBahsDateTimeLibrary/blob/1ea8ef42b3d8db17b910b46e4f8c124b59d77c03/contracts/BokkyPooBahsDateTimeLibrary.sol\":5150:5175  year >= 1970 && month > 0 */\n    tag_336:\n        /* \"https://github.com/bokkypoobah/BokkyPooBahsDateTimeLibrary/blob/1ea8ef42b3d8db17b910b46e4f8c124b59d77c03/contracts/BokkyPooBahsDateTimeLibrary.sol\":5150:5190  year >= 1970 && month > 0 && month <= 12 */\n      dup1\n      iszero\n      tag_337\n      jumpi\n      pop\n        /* \"https://github.com/bokkypoobah/BokkyPooBahsDateTimeLibrary/blob/1ea8ef42b3d8db17b910b46e4f8c124b59d77c03/contracts/BokkyPooBahsDateTimeLibrary.sol\":5188:5190  12 */\n      0xc\n        /* \"https://github.com/bokkypoobah/BokkyPooBahsDateTimeLibrary/blob/1ea8ef42b3d8db17b910b46e4f8c124b59d77c03/contracts/BokkyPooBahsDateTimeLibrary.sol\":5179:5184  month */\n      dup5\n        /* \"https://github.com/bokkypoobah/BokkyPooBahsDateTimeLibrary/blob/1ea8ef42b3d8db17b910b46e4f8c124b59d77c03/contracts/BokkyPooBahsDateTimeLibrary.sol\":5179:5190  month <= 12 */\n      gt\n      iszero\n        /* \"https://github.com/bokkypoobah/BokkyPooBahsDateTimeLibrary/blob/1ea8ef42b3d8db17b910b46e4f8c124b59d77c03/contracts/BokkyPooBahsDateTimeLibrary.sol\":5150:5190  year >= 1970 && month > 0 && month <= 12 */\n    tag_337:\n        /* \"https://github.com/bokkypoobah/BokkyPooBahsDateTimeLibrary/blob/1ea8ef42b3d8db17b910b46e4f8c124b59d77c03/contracts/BokkyPooBahsDateTimeLibrary.sol\":5146:5357  if (year >= 1970 && month > 0 && month <= 12) {... */\n      iszero\n      tag_338\n      jumpi\n        /* \"https://github.com/bokkypoobah/BokkyPooBahsDateTimeLibrary/blob/1ea8ef42b3d8db17b910b46e4f8c124b59d77c03/contracts/BokkyPooBahsDateTimeLibrary.sol\":5225:5253  _getDaysInMonth(year, month) */\n      tag_339\n        /* \"https://github.com/bokkypoobah/BokkyPooBahsDateTimeLibrary/blob/1ea8ef42b3d8db17b910b46e4f8c124b59d77c03/contracts/BokkyPooBahsDateTimeLibrary.sol\":5241:5245  year */\n      dup6\n        /* \"https://github.com/bokkypoobah/BokkyPooBahsDateTimeLibrary/blob/1ea8ef42b3d8db17b910b46e4f8c124b59d77c03/contracts/BokkyPooBahsDateTimeLibrary.sol\":5247:5252  month */\n      dup6\n        /* \"https://github.com/bokkypoobah/BokkyPooBahsDateTimeLibrary/blob/1ea8ef42b3d8db17b910b46e4f8c124b59d77c03/contracts/BokkyPooBahsDateTimeLibrary.sol\":5225:5240  _getDaysInMonth */\n      tag_340\n        /* \"https://github.com/bokkypoobah/BokkyPooBahsDateTimeLibrary/blob/1ea8ef42b3d8db17b910b46e4f8c124b59d77c03/contracts/BokkyPooBahsDateTimeLibrary.sol\":5225:5253  _getDaysInMonth(year, month) */\n      jump\t// in\n    tag_339:\n        /* \"https://github.com/bokkypoobah/BokkyPooBahsDateTimeLibrary/blob/1ea8ef42b3d8db17b910b46e4f8c124b59d77c03/contracts/BokkyPooBahsDateTimeLibrary.sol\":5206:5253  uint daysInMonth = _getDaysInMonth(year, month) */\n      swap1\n      pop\n        /* \"https://github.com/bokkypoobah/BokkyPooBahsDateTimeLibrary/blob/1ea8ef42b3d8db17b910b46e4f8c124b59d77c03/contracts/BokkyPooBahsDateTimeLibrary.sol\":5277:5278  0 */\n      0x0\n        /* \"https://github.com/bokkypoobah/BokkyPooBahsDateTimeLibrary/blob/1ea8ef42b3d8db17b910b46e4f8c124b59d77c03/contracts/BokkyPooBahsDateTimeLibrary.sol\":5271:5274  day */\n      dup4\n        /* \"https://github.com/bokkypoobah/BokkyPooBahsDateTimeLibrary/blob/1ea8ef42b3d8db17b910b46e4f8c124b59d77c03/contracts/BokkyPooBahsDateTimeLibrary.sol\":5271:5278  day > 0 */\n      gt\n        /* \"https://github.com/bokkypoobah/BokkyPooBahsDateTimeLibrary/blob/1ea8ef42b3d8db17b910b46e4f8c124b59d77c03/contracts/BokkyPooBahsDateTimeLibrary.sol\":5271:5300  day > 0 && day <= daysInMonth */\n      dup1\n      iszero\n      tag_341\n      jumpi\n      pop\n        /* \"https://github.com/bokkypoobah/BokkyPooBahsDateTimeLibrary/blob/1ea8ef42b3d8db17b910b46e4f8c124b59d77c03/contracts/BokkyPooBahsDateTimeLibrary.sol\":5289:5300  daysInMonth */\n      dup1\n        /* \"https://github.com/bokkypoobah/BokkyPooBahsDateTimeLibrary/blob/1ea8ef42b3d8db17b910b46e4f8c124b59d77c03/contracts/BokkyPooBahsDateTimeLibrary.sol\":5282:5285  day */\n      dup4\n        /* \"https://github.com/bokkypoobah/BokkyPooBahsDateTimeLibrary/blob/1ea8ef42b3d8db17b910b46e4f8c124b59d77c03/contracts/BokkyPooBahsDateTimeLibrary.sol\":5282:5300  day <= daysInMonth */\n      gt\n      iszero\n        /* \"https://github.com/bokkypoobah/BokkyPooBahsDateTimeLibrary/blob/1ea8ef42b3d8db17b910b46e4f8c124b59d77c03/contracts/BokkyPooBahsDateTimeLibrary.sol\":5271:5300  day > 0 && day <= daysInMonth */\n    tag_341:\n        /* \"https://github.com/bokkypoobah/BokkyPooBahsDateTimeLibrary/blob/1ea8ef42b3d8db17b910b46e4f8c124b59d77c03/contracts/BokkyPooBahsDateTimeLibrary.sol\":5267:5347  if (day > 0 && day <= daysInMonth) {... */\n      iszero\n      tag_342\n      jumpi\n        /* \"https://github.com/bokkypoobah/BokkyPooBahsDateTimeLibrary/blob/1ea8ef42b3d8db17b910b46e4f8c124b59d77c03/contracts/BokkyPooBahsDateTimeLibrary.sol\":5328:5332  true */\n      0x1\n        /* \"https://github.com/bokkypoobah/BokkyPooBahsDateTimeLibrary/blob/1ea8ef42b3d8db17b910b46e4f8c124b59d77c03/contracts/BokkyPooBahsDateTimeLibrary.sol\":5320:5332  valid = true */\n      swap2\n      pop\n        /* \"https://github.com/bokkypoobah/BokkyPooBahsDateTimeLibrary/blob/1ea8ef42b3d8db17b910b46e4f8c124b59d77c03/contracts/BokkyPooBahsDateTimeLibrary.sol\":5267:5347  if (day > 0 && day <= daysInMonth) {... */\n    tag_342:\n        /* \"https://github.com/bokkypoobah/BokkyPooBahsDateTimeLibrary/blob/1ea8ef42b3d8db17b910b46e4f8c124b59d77c03/contracts/BokkyPooBahsDateTimeLibrary.sol\":5146:5357  if (year >= 1970 && month > 0 && month <= 12) {... */\n    tag_338:\n        /* \"https://github.com/bokkypoobah/BokkyPooBahsDateTimeLibrary/blob/1ea8ef42b3d8db17b910b46e4f8c124b59d77c03/contracts/BokkyPooBahsDateTimeLibrary.sol\":5047:5363  function isValidDate(uint year, uint month, uint day) internal pure returns (bool valid) {... */\n      pop\n      swap4\n      swap3\n      pop\n      pop\n      pop\n      jump\t// out\n        /* \"https://github.com/bokkypoobah/BokkyPooBahsDateTimeLibrary/blob/1ea8ef42b3d8db17b910b46e4f8c124b59d77c03/contracts/BokkyPooBahsDateTimeLibrary.sol\":2083:2594  function _daysFromDate(uint year, uint month, uint day) internal pure returns (uint _days) {... */\n    tag_326:\n        /* \"https://github.com/bokkypoobah/BokkyPooBahsDateTimeLibrary/blob/1ea8ef42b3d8db17b910b46e4f8c124b59d77c03/contracts/BokkyPooBahsDateTimeLibrary.sol\":2162:2172  uint _days */\n      0x0\n        /* \"https://github.com/bokkypoobah/BokkyPooBahsDateTimeLibrary/blob/1ea8ef42b3d8db17b910b46e4f8c124b59d77c03/contracts/BokkyPooBahsDateTimeLibrary.sol\":2215:2224  int _year */\n      dup1\n        /* \"https://github.com/bokkypoobah/BokkyPooBahsDateTimeLibrary/blob/1ea8ef42b3d8db17b910b46e4f8c124b59d77c03/contracts/BokkyPooBahsDateTimeLibrary.sol\":2246:2256  int _month */\n      0x0\n        /* \"https://github.com/bokkypoobah/BokkyPooBahsDateTimeLibrary/blob/1ea8ef42b3d8db17b910b46e4f8c124b59d77c03/contracts/BokkyPooBahsDateTimeLibrary.sol\":2279:2287  int _day */\n      dup1\n        /* \"https://github.com/bokkypoobah/BokkyPooBahsDateTimeLibrary/blob/1ea8ef42b3d8db17b910b46e4f8c124b59d77c03/contracts/BokkyPooBahsDateTimeLibrary.sol\":2309:2319  int __days */\n      0x0\n        /* \"https://github.com/bokkypoobah/BokkyPooBahsDateTimeLibrary/blob/1ea8ef42b3d8db17b910b46e4f8c124b59d77c03/contracts/BokkyPooBahsDateTimeLibrary.sol\":2200:2204  1970 */\n      0x7b2\n        /* \"https://github.com/bokkypoobah/BokkyPooBahsDateTimeLibrary/blob/1ea8ef42b3d8db17b910b46e4f8c124b59d77c03/contracts/BokkyPooBahsDateTimeLibrary.sol\":2192:2196  year */\n      dup9\n        /* \"https://github.com/bokkypoobah/BokkyPooBahsDateTimeLibrary/blob/1ea8ef42b3d8db17b910b46e4f8c124b59d77c03/contracts/BokkyPooBahsDateTimeLibrary.sol\":2192:2204  year >= 1970 */\n      lt\n      iszero\n        /* \"https://github.com/bokkypoobah/BokkyPooBahsDateTimeLibrary/blob/1ea8ef42b3d8db17b910b46e4f8c124b59d77c03/contracts/BokkyPooBahsDateTimeLibrary.sol\":2184:2205  require(year >= 1970) */\n      iszero\n      iszero\n      tag_344\n      jumpi\n      0x0\n      dup1\n      revert\n    tag_344:\n        /* \"https://github.com/bokkypoobah/BokkyPooBahsDateTimeLibrary/blob/1ea8ef42b3d8db17b910b46e4f8c124b59d77c03/contracts/BokkyPooBahsDateTimeLibrary.sol\":2231:2235  year */\n      dup8\n        /* \"https://github.com/bokkypoobah/BokkyPooBahsDateTimeLibrary/blob/1ea8ef42b3d8db17b910b46e4f8c124b59d77c03/contracts/BokkyPooBahsDateTimeLibrary.sol\":2215:2236  int _year = int(year) */\n      swap4\n      pop\n        /* \"https://github.com/bokkypoobah/BokkyPooBahsDateTimeLibrary/blob/1ea8ef42b3d8db17b910b46e4f8c124b59d77c03/contracts/BokkyPooBahsDateTimeLibrary.sol\":2263:2268  month */\n      dup7\n        /* \"https://github.com/bokkypoobah/BokkyPooBahsDateTimeLibrary/blob/1ea8ef42b3d8db17b910b46e4f8c124b59d77c03/contracts/BokkyPooBahsDateTimeLibrary.sol\":2246:2269  int _month = int(month) */\n      swap3\n      pop\n        /* \"https://github.com/bokkypoobah/BokkyPooBahsDateTimeLibrary/blob/1ea8ef42b3d8db17b910b46e4f8c124b59d77c03/contracts/BokkyPooBahsDateTimeLibrary.sol\":2294:2297  day */\n      dup6\n        /* \"https://github.com/bokkypoobah/BokkyPooBahsDateTimeLibrary/blob/1ea8ef42b3d8db17b910b46e4f8c124b59d77c03/contracts/BokkyPooBahsDateTimeLibrary.sol\":2279:2298  int _day = int(day) */\n      swap2\n      pop\n        /* \"https://github.com/bokkypoobah/BokkyPooBahsDateTimeLibrary/blob/1ea8ef42b3d8db17b910b46e4f8c124b59d77c03/contracts/BokkyPooBahsDateTimeLibrary.sol\":1195:1202  2440588 */\n      0x253d8c\n        /* \"https://github.com/bokkypoobah/BokkyPooBahsDateTimeLibrary/blob/1ea8ef42b3d8db17b910b46e4f8c124b59d77c03/contracts/BokkyPooBahsDateTimeLibrary.sol\":2528:2529  4 */\n      0x4\n        /* \"https://github.com/bokkypoobah/BokkyPooBahsDateTimeLibrary/blob/1ea8ef42b3d8db17b910b46e4f8c124b59d77c03/contracts/BokkyPooBahsDateTimeLibrary.sol\":2521:2524  100 */\n      0x64\n        /* \"https://github.com/bokkypoobah/BokkyPooBahsDateTimeLibrary/blob/1ea8ef42b3d8db17b910b46e4f8c124b59d77c03/contracts/BokkyPooBahsDateTimeLibrary.sol\":2515:2517  12 */\n      0xc\n        /* \"https://github.com/bokkypoobah/BokkyPooBahsDateTimeLibrary/blob/1ea8ef42b3d8db17b910b46e4f8c124b59d77c03/contracts/BokkyPooBahsDateTimeLibrary.sol\":2509:2511  14 */\n      0xe\n        /* \"https://github.com/bokkypoobah/BokkyPooBahsDateTimeLibrary/blob/1ea8ef42b3d8db17b910b46e4f8c124b59d77c03/contracts/BokkyPooBahsDateTimeLibrary.sol\":2500:2506  _month */\n      dup8\n        /* \"https://github.com/bokkypoobah/BokkyPooBahsDateTimeLibrary/blob/1ea8ef42b3d8db17b910b46e4f8c124b59d77c03/contracts/BokkyPooBahsDateTimeLibrary.sol\":2500:2511  _month - 14 */\n      sub\n        /* \"https://github.com/bokkypoobah/BokkyPooBahsDateTimeLibrary/blob/1ea8ef42b3d8db17b910b46e4f8c124b59d77c03/contracts/BokkyPooBahsDateTimeLibrary.sol\":2499:2517  (_month - 14) / 12 */\n      dup2\n      iszero\n      iszero\n      tag_345\n      jumpi\n      invalid\n    tag_345:\n      sdiv\n        /* \"https://github.com/bokkypoobah/BokkyPooBahsDateTimeLibrary/blob/1ea8ef42b3d8db17b910b46e4f8c124b59d77c03/contracts/BokkyPooBahsDateTimeLibrary.sol\":2492:2496  4900 */\n      0x1324\n        /* \"https://github.com/bokkypoobah/BokkyPooBahsDateTimeLibrary/blob/1ea8ef42b3d8db17b910b46e4f8c124b59d77c03/contracts/BokkyPooBahsDateTimeLibrary.sol\":2484:2489  _year */\n      dup9\n        /* \"https://github.com/bokkypoobah/BokkyPooBahsDateTimeLibrary/blob/1ea8ef42b3d8db17b910b46e4f8c124b59d77c03/contracts/BokkyPooBahsDateTimeLibrary.sol\":2484:2496  _year + 4900 */\n      add\n        /* \"https://github.com/bokkypoobah/BokkyPooBahsDateTimeLibrary/blob/1ea8ef42b3d8db17b910b46e4f8c124b59d77c03/contracts/BokkyPooBahsDateTimeLibrary.sol\":2484:2517  _year + 4900 + (_month - 14) / 12 */\n      add\n        /* \"https://github.com/bokkypoobah/BokkyPooBahsDateTimeLibrary/blob/1ea8ef42b3d8db17b910b46e4f8c124b59d77c03/contracts/BokkyPooBahsDateTimeLibrary.sol\":2483:2524  (_year + 4900 + (_month - 14) / 12) / 100 */\n      dup2\n      iszero\n      iszero\n      tag_346\n      jumpi\n      invalid\n    tag_346:\n      sdiv\n        /* \"https://github.com/bokkypoobah/BokkyPooBahsDateTimeLibrary/blob/1ea8ef42b3d8db17b910b46e4f8c124b59d77c03/contracts/BokkyPooBahsDateTimeLibrary.sol\":2478:2479  3 */\n      0x3\n        /* \"https://github.com/bokkypoobah/BokkyPooBahsDateTimeLibrary/blob/1ea8ef42b3d8db17b910b46e4f8c124b59d77c03/contracts/BokkyPooBahsDateTimeLibrary.sol\":2478:2525  3 * ((_year + 4900 + (_month - 14) / 12) / 100) */\n      mul\n        /* \"https://github.com/bokkypoobah/BokkyPooBahsDateTimeLibrary/blob/1ea8ef42b3d8db17b910b46e4f8c124b59d77c03/contracts/BokkyPooBahsDateTimeLibrary.sol\":2478:2529  3 * ((_year + 4900 + (_month - 14) / 12) / 100) / 4 */\n      dup2\n      iszero\n      iszero\n      tag_347\n      jumpi\n      invalid\n    tag_347:\n      sdiv\n        /* \"https://github.com/bokkypoobah/BokkyPooBahsDateTimeLibrary/blob/1ea8ef42b3d8db17b910b46e4f8c124b59d77c03/contracts/BokkyPooBahsDateTimeLibrary.sol\":2463:2465  12 */\n      0xc\n        /* \"https://github.com/bokkypoobah/BokkyPooBahsDateTimeLibrary/blob/1ea8ef42b3d8db17b910b46e4f8c124b59d77c03/contracts/BokkyPooBahsDateTimeLibrary.sol\":2457:2459  12 */\n      dup1\n        /* \"https://github.com/bokkypoobah/BokkyPooBahsDateTimeLibrary/blob/1ea8ef42b3d8db17b910b46e4f8c124b59d77c03/contracts/BokkyPooBahsDateTimeLibrary.sol\":2452:2454  12 */\n      0xc\n        /* \"https://github.com/bokkypoobah/BokkyPooBahsDateTimeLibrary/blob/1ea8ef42b3d8db17b910b46e4f8c124b59d77c03/contracts/BokkyPooBahsDateTimeLibrary.sol\":2446:2448  14 */\n      0xe\n        /* \"https://github.com/bokkypoobah/BokkyPooBahsDateTimeLibrary/blob/1ea8ef42b3d8db17b910b46e4f8c124b59d77c03/contracts/BokkyPooBahsDateTimeLibrary.sol\":2437:2443  _month */\n      dup9\n        /* \"https://github.com/bokkypoobah/BokkyPooBahsDateTimeLibrary/blob/1ea8ef42b3d8db17b910b46e4f8c124b59d77c03/contracts/BokkyPooBahsDateTimeLibrary.sol\":2437:2448  _month - 14 */\n      sub\n        /* \"https://github.com/bokkypoobah/BokkyPooBahsDateTimeLibrary/blob/1ea8ef42b3d8db17b910b46e4f8c124b59d77c03/contracts/BokkyPooBahsDateTimeLibrary.sol\":2436:2454  (_month - 14) / 12 */\n      dup2\n      iszero\n      iszero\n      tag_348\n      jumpi\n      invalid\n    tag_348:\n      sdiv\n        /* \"https://github.com/bokkypoobah/BokkyPooBahsDateTimeLibrary/blob/1ea8ef42b3d8db17b910b46e4f8c124b59d77c03/contracts/BokkyPooBahsDateTimeLibrary.sol\":2436:2459  (_month - 14) / 12 * 12 */\n      mul\n        /* \"https://github.com/bokkypoobah/BokkyPooBahsDateTimeLibrary/blob/1ea8ef42b3d8db17b910b46e4f8c124b59d77c03/contracts/BokkyPooBahsDateTimeLibrary.sol\":2432:2433  2 */\n      0x2\n        /* \"https://github.com/bokkypoobah/BokkyPooBahsDateTimeLibrary/blob/1ea8ef42b3d8db17b910b46e4f8c124b59d77c03/contracts/BokkyPooBahsDateTimeLibrary.sol\":2423:2429  _month */\n      dup8\n        /* \"https://github.com/bokkypoobah/BokkyPooBahsDateTimeLibrary/blob/1ea8ef42b3d8db17b910b46e4f8c124b59d77c03/contracts/BokkyPooBahsDateTimeLibrary.sol\":2423:2433  _month - 2 */\n      sub\n        /* \"https://github.com/bokkypoobah/BokkyPooBahsDateTimeLibrary/blob/1ea8ef42b3d8db17b910b46e4f8c124b59d77c03/contracts/BokkyPooBahsDateTimeLibrary.sol\":2423:2459  _month - 2 - (_month - 14) / 12 * 12 */\n      sub\n        /* \"https://github.com/bokkypoobah/BokkyPooBahsDateTimeLibrary/blob/1ea8ef42b3d8db17b910b46e4f8c124b59d77c03/contracts/BokkyPooBahsDateTimeLibrary.sol\":2416:2419  367 */\n      0x16f\n        /* \"https://github.com/bokkypoobah/BokkyPooBahsDateTimeLibrary/blob/1ea8ef42b3d8db17b910b46e4f8c124b59d77c03/contracts/BokkyPooBahsDateTimeLibrary.sol\":2416:2460  367 * (_month - 2 - (_month - 14) / 12 * 12) */\n      mul\n        /* \"https://github.com/bokkypoobah/BokkyPooBahsDateTimeLibrary/blob/1ea8ef42b3d8db17b910b46e4f8c124b59d77c03/contracts/BokkyPooBahsDateTimeLibrary.sol\":2416:2465  367 * (_month - 2 - (_month - 14) / 12 * 12) / 12 */\n      dup2\n      iszero\n      iszero\n      tag_349\n      jumpi\n      invalid\n    tag_349:\n      sdiv\n        /* \"https://github.com/bokkypoobah/BokkyPooBahsDateTimeLibrary/blob/1ea8ef42b3d8db17b910b46e4f8c124b59d77c03/contracts/BokkyPooBahsDateTimeLibrary.sol\":2402:2403  4 */\n      0x4\n        /* \"https://github.com/bokkypoobah/BokkyPooBahsDateTimeLibrary/blob/1ea8ef42b3d8db17b910b46e4f8c124b59d77c03/contracts/BokkyPooBahsDateTimeLibrary.sol\":2396:2398  12 */\n      0xc\n        /* \"https://github.com/bokkypoobah/BokkyPooBahsDateTimeLibrary/blob/1ea8ef42b3d8db17b910b46e4f8c124b59d77c03/contracts/BokkyPooBahsDateTimeLibrary.sol\":2390:2392  14 */\n      0xe\n        /* \"https://github.com/bokkypoobah/BokkyPooBahsDateTimeLibrary/blob/1ea8ef42b3d8db17b910b46e4f8c124b59d77c03/contracts/BokkyPooBahsDateTimeLibrary.sol\":2381:2387  _month */\n      dup9\n        /* \"https://github.com/bokkypoobah/BokkyPooBahsDateTimeLibrary/blob/1ea8ef42b3d8db17b910b46e4f8c124b59d77c03/contracts/BokkyPooBahsDateTimeLibrary.sol\":2381:2392  _month - 14 */\n      sub\n        /* \"https://github.com/bokkypoobah/BokkyPooBahsDateTimeLibrary/blob/1ea8ef42b3d8db17b910b46e4f8c124b59d77c03/contracts/BokkyPooBahsDateTimeLibrary.sol\":2380:2398  (_month - 14) / 12 */\n      dup2\n      iszero\n      iszero\n      tag_350\n      jumpi\n      invalid\n    tag_350:\n      sdiv\n        /* \"https://github.com/bokkypoobah/BokkyPooBahsDateTimeLibrary/blob/1ea8ef42b3d8db17b910b46e4f8c124b59d77c03/contracts/BokkyPooBahsDateTimeLibrary.sol\":2373:2377  4800 */\n      0x12c0\n        /* \"https://github.com/bokkypoobah/BokkyPooBahsDateTimeLibrary/blob/1ea8ef42b3d8db17b910b46e4f8c124b59d77c03/contracts/BokkyPooBahsDateTimeLibrary.sol\":2365:2370  _year */\n      dup10\n        /* \"https://github.com/bokkypoobah/BokkyPooBahsDateTimeLibrary/blob/1ea8ef42b3d8db17b910b46e4f8c124b59d77c03/contracts/BokkyPooBahsDateTimeLibrary.sol\":2365:2377  _year + 4800 */\n      add\n        /* \"https://github.com/bokkypoobah/BokkyPooBahsDateTimeLibrary/blob/1ea8ef42b3d8db17b910b46e4f8c124b59d77c03/contracts/BokkyPooBahsDateTimeLibrary.sol\":2365:2398  _year + 4800 + (_month - 14) / 12 */\n      add\n        /* \"https://github.com/bokkypoobah/BokkyPooBahsDateTimeLibrary/blob/1ea8ef42b3d8db17b910b46e4f8c124b59d77c03/contracts/BokkyPooBahsDateTimeLibrary.sol\":2357:2361  1461 */\n      0x5b5\n        /* \"https://github.com/bokkypoobah/BokkyPooBahsDateTimeLibrary/blob/1ea8ef42b3d8db17b910b46e4f8c124b59d77c03/contracts/BokkyPooBahsDateTimeLibrary.sol\":2357:2399  1461 * (_year + 4800 + (_month - 14) / 12) */\n      mul\n        /* \"https://github.com/bokkypoobah/BokkyPooBahsDateTimeLibrary/blob/1ea8ef42b3d8db17b910b46e4f8c124b59d77c03/contracts/BokkyPooBahsDateTimeLibrary.sol\":2357:2403  1461 * (_year + 4800 + (_month - 14) / 12) / 4 */\n      dup2\n      iszero\n      iszero\n      tag_351\n      jumpi\n      invalid\n    tag_351:\n      sdiv\n        /* \"https://github.com/bokkypoobah/BokkyPooBahsDateTimeLibrary/blob/1ea8ef42b3d8db17b910b46e4f8c124b59d77c03/contracts/BokkyPooBahsDateTimeLibrary.sol\":2339:2344  32075 */\n      0x7d4b\n        /* \"https://github.com/bokkypoobah/BokkyPooBahsDateTimeLibrary/blob/1ea8ef42b3d8db17b910b46e4f8c124b59d77c03/contracts/BokkyPooBahsDateTimeLibrary.sol\":2322:2326  _day */\n      dup7\n        /* \"https://github.com/bokkypoobah/BokkyPooBahsDateTimeLibrary/blob/1ea8ef42b3d8db17b910b46e4f8c124b59d77c03/contracts/BokkyPooBahsDateTimeLibrary.sol\":2322:2344  _day... */\n      sub\n        /* \"https://github.com/bokkypoobah/BokkyPooBahsDateTimeLibrary/blob/1ea8ef42b3d8db17b910b46e4f8c124b59d77c03/contracts/BokkyPooBahsDateTimeLibrary.sol\":2322:2403  _day... */\n      add\n        /* \"https://github.com/bokkypoobah/BokkyPooBahsDateTimeLibrary/blob/1ea8ef42b3d8db17b910b46e4f8c124b59d77c03/contracts/BokkyPooBahsDateTimeLibrary.sol\":2322:2465  _day... */\n      add\n        /* \"https://github.com/bokkypoobah/BokkyPooBahsDateTimeLibrary/blob/1ea8ef42b3d8db17b910b46e4f8c124b59d77c03/contracts/BokkyPooBahsDateTimeLibrary.sol\":2322:2529  _day... */\n      sub\n        /* \"https://github.com/bokkypoobah/BokkyPooBahsDateTimeLibrary/blob/1ea8ef42b3d8db17b910b46e4f8c124b59d77c03/contracts/BokkyPooBahsDateTimeLibrary.sol\":2322:2556  _day... */\n      sub\n        /* \"https://github.com/bokkypoobah/BokkyPooBahsDateTimeLibrary/blob/1ea8ef42b3d8db17b910b46e4f8c124b59d77c03/contracts/BokkyPooBahsDateTimeLibrary.sol\":2309:2556  int __days = _day... */\n      swap1\n      pop\n        /* \"https://github.com/bokkypoobah/BokkyPooBahsDateTimeLibrary/blob/1ea8ef42b3d8db17b910b46e4f8c124b59d77c03/contracts/BokkyPooBahsDateTimeLibrary.sol\":2580:2586  __days */\n      dup1\n        /* \"https://github.com/bokkypoobah/BokkyPooBahsDateTimeLibrary/blob/1ea8ef42b3d8db17b910b46e4f8c124b59d77c03/contracts/BokkyPooBahsDateTimeLibrary.sol\":2567:2587  _days = uint(__days) */\n      swap5\n      pop\n        /* \"https://github.com/bokkypoobah/BokkyPooBahsDateTimeLibrary/blob/1ea8ef42b3d8db17b910b46e4f8c124b59d77c03/contracts/BokkyPooBahsDateTimeLibrary.sol\":2083:2594  function _daysFromDate(uint year, uint month, uint day) internal pure returns (uint _days) {... */\n      pop\n      pop\n      pop\n      pop\n      swap4\n      swap3\n      pop\n      pop\n      pop\n      jump\t// out\n        /* \"https://github.com/bokkypoobah/BokkyPooBahsDateTimeLibrary/blob/1ea8ef42b3d8db17b910b46e4f8c124b59d77c03/contracts/BokkyPooBahsDateTimeLibrary.sol\":6631:7014  function _getDaysInMonth(uint year, uint month) internal pure returns (uint daysInMonth) {... */\n    tag_340:\n        /* \"https://github.com/bokkypoobah/BokkyPooBahsDateTimeLibrary/blob/1ea8ef42b3d8db17b910b46e4f8c124b59d77c03/contracts/BokkyPooBahsDateTimeLibrary.sol\":6702:6718  uint daysInMonth */\n      0x0\n        /* \"https://github.com/bokkypoobah/BokkyPooBahsDateTimeLibrary/blob/1ea8ef42b3d8db17b910b46e4f8c124b59d77c03/contracts/BokkyPooBahsDateTimeLibrary.sol\":6743:6744  1 */\n      0x1\n        /* \"https://github.com/bokkypoobah/BokkyPooBahsDateTimeLibrary/blob/1ea8ef42b3d8db17b910b46e4f8c124b59d77c03/contracts/BokkyPooBahsDateTimeLibrary.sol\":6734:6739  month */\n      dup3\n        /* \"https://github.com/bokkypoobah/BokkyPooBahsDateTimeLibrary/blob/1ea8ef42b3d8db17b910b46e4f8c124b59d77c03/contracts/BokkyPooBahsDateTimeLibrary.sol\":6734:6744  month == 1 */\n      eq\n        /* \"https://github.com/bokkypoobah/BokkyPooBahsDateTimeLibrary/blob/1ea8ef42b3d8db17b910b46e4f8c124b59d77c03/contracts/BokkyPooBahsDateTimeLibrary.sol\":6734:6758  month == 1 || month == 3 */\n      dup1\n      tag_353\n      jumpi\n      pop\n        /* \"https://github.com/bokkypoobah/BokkyPooBahsDateTimeLibrary/blob/1ea8ef42b3d8db17b910b46e4f8c124b59d77c03/contracts/BokkyPooBahsDateTimeLibrary.sol\":6757:6758  3 */\n      0x3\n        /* \"https://github.com/bokkypoobah/BokkyPooBahsDateTimeLibrary/blob/1ea8ef42b3d8db17b910b46e4f8c124b59d77c03/contracts/BokkyPooBahsDateTimeLibrary.sol\":6748:6753  month */\n      dup3\n        /* \"https://github.com/bokkypoobah/BokkyPooBahsDateTimeLibrary/blob/1ea8ef42b3d8db17b910b46e4f8c124b59d77c03/contracts/BokkyPooBahsDateTimeLibrary.sol\":6748:6758  month == 3 */\n      eq\n        /* \"https://github.com/bokkypoobah/BokkyPooBahsDateTimeLibrary/blob/1ea8ef42b3d8db17b910b46e4f8c124b59d77c03/contracts/BokkyPooBahsDateTimeLibrary.sol\":6734:6758  month == 1 || month == 3 */\n    tag_353:\n        /* \"https://github.com/bokkypoobah/BokkyPooBahsDateTimeLibrary/blob/1ea8ef42b3d8db17b910b46e4f8c124b59d77c03/contracts/BokkyPooBahsDateTimeLibrary.sol\":6734:6772  month == 1 || month == 3 || month == 5 */\n      dup1\n      tag_354\n      jumpi\n      pop\n        /* \"https://github.com/bokkypoobah/BokkyPooBahsDateTimeLibrary/blob/1ea8ef42b3d8db17b910b46e4f8c124b59d77c03/contracts/BokkyPooBahsDateTimeLibrary.sol\":6771:6772  5 */\n      0x5\n        /* \"https://github.com/bokkypoobah/BokkyPooBahsDateTimeLibrary/blob/1ea8ef42b3d8db17b910b46e4f8c124b59d77c03/contracts/BokkyPooBahsDateTimeLibrary.sol\":6762:6767  month */\n      dup3\n        /* \"https://github.com/bokkypoobah/BokkyPooBahsDateTimeLibrary/blob/1ea8ef42b3d8db17b910b46e4f8c124b59d77c03/contracts/BokkyPooBahsDateTimeLibrary.sol\":6762:6772  month == 5 */\n      eq\n        /* \"https://github.com/bokkypoobah/BokkyPooBahsDateTimeLibrary/blob/1ea8ef42b3d8db17b910b46e4f8c124b59d77c03/contracts/BokkyPooBahsDateTimeLibrary.sol\":6734:6772  month == 1 || month == 3 || month == 5 */\n    tag_354:\n        /* \"https://github.com/bokkypoobah/BokkyPooBahsDateTimeLibrary/blob/1ea8ef42b3d8db17b910b46e4f8c124b59d77c03/contracts/BokkyPooBahsDateTimeLibrary.sol\":6734:6786  month == 1 || month == 3 || month == 5 || month == 7 */\n      dup1\n      tag_355\n      jumpi\n      pop\n        /* \"https://github.com/bokkypoobah/BokkyPooBahsDateTimeLibrary/blob/1ea8ef42b3d8db17b910b46e4f8c124b59d77c03/contracts/BokkyPooBahsDateTimeLibrary.sol\":6785:6786  7 */\n      0x7\n        /* \"https://github.com/bokkypoobah/BokkyPooBahsDateTimeLibrary/blob/1ea8ef42b3d8db17b910b46e4f8c124b59d77c03/contracts/BokkyPooBahsDateTimeLibrary.sol\":6776:6781  month */\n      dup3\n        /* \"https://github.com/bokkypoobah/BokkyPooBahsDateTimeLibrary/blob/1ea8ef42b3d8db17b910b46e4f8c124b59d77c03/contracts/BokkyPooBahsDateTimeLibrary.sol\":6776:6786  month == 7 */\n      eq\n        /* \"https://github.com/bokkypoobah/BokkyPooBahsDateTimeLibrary/blob/1ea8ef42b3d8db17b910b46e4f8c124b59d77c03/contracts/BokkyPooBahsDateTimeLibrary.sol\":6734:6786  month == 1 || month == 3 || month == 5 || month == 7 */\n    tag_355:\n        /* \"https://github.com/bokkypoobah/BokkyPooBahsDateTimeLibrary/blob/1ea8ef42b3d8db17b910b46e4f8c124b59d77c03/contracts/BokkyPooBahsDateTimeLibrary.sol\":6734:6800  month == 1 || month == 3 || month == 5 || month == 7 || month == 8 */\n      dup1\n      tag_356\n      jumpi\n      pop\n        /* \"https://github.com/bokkypoobah/BokkyPooBahsDateTimeLibrary/blob/1ea8ef42b3d8db17b910b46e4f8c124b59d77c03/contracts/BokkyPooBahsDateTimeLibrary.sol\":6799:6800  8 */\n      0x8\n        /* \"https://github.com/bokkypoobah/BokkyPooBahsDateTimeLibrary/blob/1ea8ef42b3d8db17b910b46e4f8c124b59d77c03/contracts/BokkyPooBahsDateTimeLibrary.sol\":6790:6795  month */\n      dup3\n        /* \"https://github.com/bokkypoobah/BokkyPooBahsDateTimeLibrary/blob/1ea8ef42b3d8db17b910b46e4f8c124b59d77c03/contracts/BokkyPooBahsDateTimeLibrary.sol\":6790:6800  month == 8 */\n      eq\n        /* \"https://github.com/bokkypoobah/BokkyPooBahsDateTimeLibrary/blob/1ea8ef42b3d8db17b910b46e4f8c124b59d77c03/contracts/BokkyPooBahsDateTimeLibrary.sol\":6734:6800  month == 1 || month == 3 || month == 5 || month == 7 || month == 8 */\n    tag_356:\n        /* \"https://github.com/bokkypoobah/BokkyPooBahsDateTimeLibrary/blob/1ea8ef42b3d8db17b910b46e4f8c124b59d77c03/contracts/BokkyPooBahsDateTimeLibrary.sol\":6734:6815  month == 1 || month == 3 || month == 5 || month == 7 || month == 8 || month == 10 */\n      dup1\n      tag_357\n      jumpi\n      pop\n        /* \"https://github.com/bokkypoobah/BokkyPooBahsDateTimeLibrary/blob/1ea8ef42b3d8db17b910b46e4f8c124b59d77c03/contracts/BokkyPooBahsDateTimeLibrary.sol\":6813:6815  10 */\n      0xa\n        /* \"https://github.com/bokkypoobah/BokkyPooBahsDateTimeLibrary/blob/1ea8ef42b3d8db17b910b46e4f8c124b59d77c03/contracts/BokkyPooBahsDateTimeLibrary.sol\":6804:6809  month */\n      dup3\n        /* \"https://github.com/bokkypoobah/BokkyPooBahsDateTimeLibrary/blob/1ea8ef42b3d8db17b910b46e4f8c124b59d77c03/contracts/BokkyPooBahsDateTimeLibrary.sol\":6804:6815  month == 10 */\n      eq\n        /* \"https://github.com/bokkypoobah/BokkyPooBahsDateTimeLibrary/blob/1ea8ef42b3d8db17b910b46e4f8c124b59d77c03/contracts/BokkyPooBahsDateTimeLibrary.sol\":6734:6815  month == 1 || month == 3 || month == 5 || month == 7 || month == 8 || month == 10 */\n    tag_357:\n        /* \"https://github.com/bokkypoobah/BokkyPooBahsDateTimeLibrary/blob/1ea8ef42b3d8db17b910b46e4f8c124b59d77c03/contracts/BokkyPooBahsDateTimeLibrary.sol\":6734:6830  month == 1 || month == 3 || month == 5 || month == 7 || month == 8 || month == 10 || month == 12 */\n      dup1\n      tag_358\n      jumpi\n      pop\n        /* \"https://github.com/bokkypoobah/BokkyPooBahsDateTimeLibrary/blob/1ea8ef42b3d8db17b910b46e4f8c124b59d77c03/contracts/BokkyPooBahsDateTimeLibrary.sol\":6828:6830  12 */\n      0xc\n        /* \"https://github.com/bokkypoobah/BokkyPooBahsDateTimeLibrary/blob/1ea8ef42b3d8db17b910b46e4f8c124b59d77c03/contracts/BokkyPooBahsDateTimeLibrary.sol\":6819:6824  month */\n      dup3\n        /* \"https://github.com/bokkypoobah/BokkyPooBahsDateTimeLibrary/blob/1ea8ef42b3d8db17b910b46e4f8c124b59d77c03/contracts/BokkyPooBahsDateTimeLibrary.sol\":6819:6830  month == 12 */\n      eq\n        /* \"https://github.com/bokkypoobah/BokkyPooBahsDateTimeLibrary/blob/1ea8ef42b3d8db17b910b46e4f8c124b59d77c03/contracts/BokkyPooBahsDateTimeLibrary.sol\":6734:6830  month == 1 || month == 3 || month == 5 || month == 7 || month == 8 || month == 10 || month == 12 */\n    tag_358:\n        /* \"https://github.com/bokkypoobah/BokkyPooBahsDateTimeLibrary/blob/1ea8ef42b3d8db17b910b46e4f8c124b59d77c03/contracts/BokkyPooBahsDateTimeLibrary.sol\":6730:7008  if (month == 1 || month == 3 || month == 5 || month == 7 || month == 8 || month == 10 || month == 12) {... */\n      iszero\n      tag_359\n      jumpi\n        /* \"https://github.com/bokkypoobah/BokkyPooBahsDateTimeLibrary/blob/1ea8ef42b3d8db17b910b46e4f8c124b59d77c03/contracts/BokkyPooBahsDateTimeLibrary.sol\":6860:6862  31 */\n      0x1f\n        /* \"https://github.com/bokkypoobah/BokkyPooBahsDateTimeLibrary/blob/1ea8ef42b3d8db17b910b46e4f8c124b59d77c03/contracts/BokkyPooBahsDateTimeLibrary.sol\":6846:6862  daysInMonth = 31 */\n      swap1\n      pop\n        /* \"https://github.com/bokkypoobah/BokkyPooBahsDateTimeLibrary/blob/1ea8ef42b3d8db17b910b46e4f8c124b59d77c03/contracts/BokkyPooBahsDateTimeLibrary.sol\":6730:7008  if (month == 1 || month == 3 || month == 5 || month == 7 || month == 8 || month == 10 || month == 12) {... */\n      jump(tag_360)\n    tag_359:\n        /* \"https://github.com/bokkypoobah/BokkyPooBahsDateTimeLibrary/blob/1ea8ef42b3d8db17b910b46e4f8c124b59d77c03/contracts/BokkyPooBahsDateTimeLibrary.sol\":6892:6893  2 */\n      0x2\n        /* \"https://github.com/bokkypoobah/BokkyPooBahsDateTimeLibrary/blob/1ea8ef42b3d8db17b910b46e4f8c124b59d77c03/contracts/BokkyPooBahsDateTimeLibrary.sol\":6883:6888  month */\n      dup3\n        /* \"https://github.com/bokkypoobah/BokkyPooBahsDateTimeLibrary/blob/1ea8ef42b3d8db17b910b46e4f8c124b59d77c03/contracts/BokkyPooBahsDateTimeLibrary.sol\":6883:6893  month != 2 */\n      eq\n      iszero\n        /* \"https://github.com/bokkypoobah/BokkyPooBahsDateTimeLibrary/blob/1ea8ef42b3d8db17b910b46e4f8c124b59d77c03/contracts/BokkyPooBahsDateTimeLibrary.sol\":6879:7008  if (month != 2) {... */\n      iszero\n      tag_361\n      jumpi\n        /* \"https://github.com/bokkypoobah/BokkyPooBahsDateTimeLibrary/blob/1ea8ef42b3d8db17b910b46e4f8c124b59d77c03/contracts/BokkyPooBahsDateTimeLibrary.sol\":6923:6925  30 */\n      0x1e\n        /* \"https://github.com/bokkypoobah/BokkyPooBahsDateTimeLibrary/blob/1ea8ef42b3d8db17b910b46e4f8c124b59d77c03/contracts/BokkyPooBahsDateTimeLibrary.sol\":6909:6925  daysInMonth = 30 */\n      swap1\n      pop\n        /* \"https://github.com/bokkypoobah/BokkyPooBahsDateTimeLibrary/blob/1ea8ef42b3d8db17b910b46e4f8c124b59d77c03/contracts/BokkyPooBahsDateTimeLibrary.sol\":6879:7008  if (month != 2) {... */\n      jump(tag_362)\n    tag_361:\n        /* \"https://github.com/bokkypoobah/BokkyPooBahsDateTimeLibrary/blob/1ea8ef42b3d8db17b910b46e4f8c124b59d77c03/contracts/BokkyPooBahsDateTimeLibrary.sol\":6970:6987  _isLeapYear(year) */\n      tag_363\n        /* \"https://github.com/bokkypoobah/BokkyPooBahsDateTimeLibrary/blob/1ea8ef42b3d8db17b910b46e4f8c124b59d77c03/contracts/BokkyPooBahsDateTimeLibrary.sol\":6982:6986  year */\n      dup4\n        /* \"https://github.com/bokkypoobah/BokkyPooBahsDateTimeLibrary/blob/1ea8ef42b3d8db17b910b46e4f8c124b59d77c03/contracts/BokkyPooBahsDateTimeLibrary.sol\":6970:6981  _isLeapYear */\n      tag_364\n        /* \"https://github.com/bokkypoobah/BokkyPooBahsDateTimeLibrary/blob/1ea8ef42b3d8db17b910b46e4f8c124b59d77c03/contracts/BokkyPooBahsDateTimeLibrary.sol\":6970:6987  _isLeapYear(year) */\n      jump\t// in\n    tag_363:\n        /* \"https://github.com/bokkypoobah/BokkyPooBahsDateTimeLibrary/blob/1ea8ef42b3d8db17b910b46e4f8c124b59d77c03/contracts/BokkyPooBahsDateTimeLibrary.sol\":6970:6997  _isLeapYear(year) ? 29 : 28 */\n      tag_365\n      jumpi\n        /* \"https://github.com/bokkypoobah/BokkyPooBahsDateTimeLibrary/blob/1ea8ef42b3d8db17b910b46e4f8c124b59d77c03/contracts/BokkyPooBahsDateTimeLibrary.sol\":6995:6997  28 */\n      0x1c\n        /* \"https://github.com/bokkypoobah/BokkyPooBahsDateTimeLibrary/blob/1ea8ef42b3d8db17b910b46e4f8c124b59d77c03/contracts/BokkyPooBahsDateTimeLibrary.sol\":6970:6997  _isLeapYear(year) ? 29 : 28 */\n      jump(tag_366)\n    tag_365:\n        /* \"https://github.com/bokkypoobah/BokkyPooBahsDateTimeLibrary/blob/1ea8ef42b3d8db17b910b46e4f8c124b59d77c03/contracts/BokkyPooBahsDateTimeLibrary.sol\":6990:6992  29 */\n      0x1d\n        /* \"https://github.com/bokkypoobah/BokkyPooBahsDateTimeLibrary/blob/1ea8ef42b3d8db17b910b46e4f8c124b59d77c03/contracts/BokkyPooBahsDateTimeLibrary.sol\":6970:6997  _isLeapYear(year) ? 29 : 28 */\n    tag_366:\n        /* \"https://github.com/bokkypoobah/BokkyPooBahsDateTimeLibrary/blob/1ea8ef42b3d8db17b910b46e4f8c124b59d77c03/contracts/BokkyPooBahsDateTimeLibrary.sol\":6956:6997  daysInMonth = _isLeapYear(year) ? 29 : 28 */\n      0xff\n      and\n      swap1\n      pop\n        /* \"https://github.com/bokkypoobah/BokkyPooBahsDateTimeLibrary/blob/1ea8ef42b3d8db17b910b46e4f8c124b59d77c03/contracts/BokkyPooBahsDateTimeLibrary.sol\":6879:7008  if (month != 2) {... */\n    tag_362:\n        /* \"https://github.com/bokkypoobah/BokkyPooBahsDateTimeLibrary/blob/1ea8ef42b3d8db17b910b46e4f8c124b59d77c03/contracts/BokkyPooBahsDateTimeLibrary.sol\":6730:7008  if (month == 1 || month == 3 || month == 5 || month == 7 || month == 8 || month == 10 || month == 12) {... */\n    tag_360:\n        /* \"https://github.com/bokkypoobah/BokkyPooBahsDateTimeLibrary/blob/1ea8ef42b3d8db17b910b46e4f8c124b59d77c03/contracts/BokkyPooBahsDateTimeLibrary.sol\":6631:7014  function _getDaysInMonth(uint year, uint month) internal pure returns (uint daysInMonth) {... */\n      swap3\n      swap2\n      pop\n      pop\n      jump\t// out\n        /* \"https://github.com/bokkypoobah/BokkyPooBahsDateTimeLibrary/blob/1ea8ef42b3d8db17b910b46e4f8c124b59d77c03/contracts/BokkyPooBahsDateTimeLibrary.sol\":5920:6077  function _isLeapYear(uint year) internal pure returns (bool leapYear) {... */\n    tag_364:\n        /* \"https://github.com/bokkypoobah/BokkyPooBahsDateTimeLibrary/blob/1ea8ef42b3d8db17b910b46e4f8c124b59d77c03/contracts/BokkyPooBahsDateTimeLibrary.sol\":5975:5988  bool leapYear */\n      0x0\n        /* \"https://github.com/bokkypoobah/BokkyPooBahsDateTimeLibrary/blob/1ea8ef42b3d8db17b910b46e4f8c124b59d77c03/contracts/BokkyPooBahsDateTimeLibrary.sol\":6025:6026  0 */\n      dup1\n        /* \"https://github.com/bokkypoobah/BokkyPooBahsDateTimeLibrary/blob/1ea8ef42b3d8db17b910b46e4f8c124b59d77c03/contracts/BokkyPooBahsDateTimeLibrary.sol\":6020:6021  4 */\n      0x4\n        /* \"https://github.com/bokkypoobah/BokkyPooBahsDateTimeLibrary/blob/1ea8ef42b3d8db17b910b46e4f8c124b59d77c03/contracts/BokkyPooBahsDateTimeLibrary.sol\":6013:6017  year */\n      dup4\n        /* \"https://github.com/bokkypoobah/BokkyPooBahsDateTimeLibrary/blob/1ea8ef42b3d8db17b910b46e4f8c124b59d77c03/contracts/BokkyPooBahsDateTimeLibrary.sol\":6013:6021  year % 4 */\n      dup2\n      iszero\n      iszero\n      tag_368\n      jumpi\n      invalid\n    tag_368:\n      mod\n        /* \"https://github.com/bokkypoobah/BokkyPooBahsDateTimeLibrary/blob/1ea8ef42b3d8db17b910b46e4f8c124b59d77c03/contracts/BokkyPooBahsDateTimeLibrary.sol\":6013:6026  year % 4 == 0 */\n      eq\n        /* \"https://github.com/bokkypoobah/BokkyPooBahsDateTimeLibrary/blob/1ea8ef42b3d8db17b910b46e4f8c124b59d77c03/contracts/BokkyPooBahsDateTimeLibrary.sol\":6012:6048  (year % 4 == 0) && (year % 100 != 0) */\n      dup1\n      iszero\n      tag_369\n      jumpi\n      pop\n        /* \"https://github.com/bokkypoobah/BokkyPooBahsDateTimeLibrary/blob/1ea8ef42b3d8db17b910b46e4f8c124b59d77c03/contracts/BokkyPooBahsDateTimeLibrary.sol\":6046:6047  0 */\n      0x0\n        /* \"https://github.com/bokkypoobah/BokkyPooBahsDateTimeLibrary/blob/1ea8ef42b3d8db17b910b46e4f8c124b59d77c03/contracts/BokkyPooBahsDateTimeLibrary.sol\":6039:6042  100 */\n      0x64\n        /* \"https://github.com/bokkypoobah/BokkyPooBahsDateTimeLibrary/blob/1ea8ef42b3d8db17b910b46e4f8c124b59d77c03/contracts/BokkyPooBahsDateTimeLibrary.sol\":6032:6036  year */\n      dup4\n        /* \"https://github.com/bokkypoobah/BokkyPooBahsDateTimeLibrary/blob/1ea8ef42b3d8db17b910b46e4f8c124b59d77c03/contracts/BokkyPooBahsDateTimeLibrary.sol\":6032:6042  year % 100 */\n      dup2\n      iszero\n      iszero\n      tag_370\n      jumpi\n      invalid\n    tag_370:\n      mod\n        /* \"https://github.com/bokkypoobah/BokkyPooBahsDateTimeLibrary/blob/1ea8ef42b3d8db17b910b46e4f8c124b59d77c03/contracts/BokkyPooBahsDateTimeLibrary.sol\":6032:6047  year % 100 != 0 */\n      eq\n      iszero\n        /* \"https://github.com/bokkypoobah/BokkyPooBahsDateTimeLibrary/blob/1ea8ef42b3d8db17b910b46e4f8c124b59d77c03/contracts/BokkyPooBahsDateTimeLibrary.sol\":6012:6048  (year % 4 == 0) && (year % 100 != 0) */\n    tag_369:\n        /* \"https://github.com/bokkypoobah/BokkyPooBahsDateTimeLibrary/blob/1ea8ef42b3d8db17b910b46e4f8c124b59d77c03/contracts/BokkyPooBahsDateTimeLibrary.sol\":6011:6070  ((year % 4 == 0) && (year % 100 != 0)) || (year % 400 == 0) */\n      dup1\n      tag_371\n      jumpi\n      pop\n        /* \"https://github.com/bokkypoobah/BokkyPooBahsDateTimeLibrary/blob/1ea8ef42b3d8db17b910b46e4f8c124b59d77c03/contracts/BokkyPooBahsDateTimeLibrary.sol\":6068:6069  0 */\n      0x0\n        /* \"https://github.com/bokkypoobah/BokkyPooBahsDateTimeLibrary/blob/1ea8ef42b3d8db17b910b46e4f8c124b59d77c03/contracts/BokkyPooBahsDateTimeLibrary.sol\":6061:6064  400 */\n      0x190\n        /* \"https://github.com/bokkypoobah/BokkyPooBahsDateTimeLibrary/blob/1ea8ef42b3d8db17b910b46e4f8c124b59d77c03/contracts/BokkyPooBahsDateTimeLibrary.sol\":6054:6058  year */\n      dup4\n        /* \"https://github.com/bokkypoobah/BokkyPooBahsDateTimeLibrary/blob/1ea8ef42b3d8db17b910b46e4f8c124b59d77c03/contracts/BokkyPooBahsDateTimeLibrary.sol\":6054:6064  year % 400 */\n      dup2\n      iszero\n      iszero\n      tag_372\n      jumpi\n      invalid\n    tag_372:\n      mod\n        /* \"https://github.com/bokkypoobah/BokkyPooBahsDateTimeLibrary/blob/1ea8ef42b3d8db17b910b46e4f8c124b59d77c03/contracts/BokkyPooBahsDateTimeLibrary.sol\":6054:6069  year % 400 == 0 */\n      eq\n        /* \"https://github.com/bokkypoobah/BokkyPooBahsDateTimeLibrary/blob/1ea8ef42b3d8db17b910b46e4f8c124b59d77c03/contracts/BokkyPooBahsDateTimeLibrary.sol\":6011:6070  ((year % 4 == 0) && (year % 100 != 0)) || (year % 400 == 0) */\n    tag_371:\n        /* \"https://github.com/bokkypoobah/BokkyPooBahsDateTimeLibrary/blob/1ea8ef42b3d8db17b910b46e4f8c124b59d77c03/contracts/BokkyPooBahsDateTimeLibrary.sol\":6000:6070  leapYear = ((year % 4 == 0) && (year % 100 != 0)) || (year % 400 == 0) */\n      swap1\n      pop\n        /* \"https://github.com/bokkypoobah/BokkyPooBahsDateTimeLibrary/blob/1ea8ef42b3d8db17b910b46e4f8c124b59d77c03/contracts/BokkyPooBahsDateTimeLibrary.sol\":5920:6077  function _isLeapYear(uint year) internal pure returns (bool leapYear) {... */\n      swap2\n      swap1\n      pop\n      jump\t// out\n        /* \"Project-1-AuctionPlatform/AuctionPlatform.sol\":379:12814  contract AuctionPlatform {... */\n    tag_274:\n      mload(0x40)\n      dataSize(sub_0)\n      dup1\n      dataOffset(sub_0)\n      dup4\n      codecopy\n      add\n      swap1\n      jump\t// out\n    stop\n\n    sub_0: assembly {\n            /* \"Project-1-AuctionPlatform/Auction.sol\":66:5709  contract Auction {... */\n          mstore(0x40, 0x80)\n            /* \"Project-1-AuctionPlatform/Auction.sol\":2189:2566  constructor(... */\n          callvalue\n            /* \"--CODEGEN--\":8:17   */\n          dup1\n            /* \"--CODEGEN--\":5:7   */\n          iszero\n          tag_1\n          jumpi\n            /* \"--CODEGEN--\":30:31   */\n          0x0\n            /* \"--CODEGEN--\":27:28   */\n          dup1\n            /* \"--CODEGEN--\":20:32   */\n          revert\n            /* \"--CODEGEN--\":5:7   */\n        tag_1:\n            /* \"Project-1-AuctionPlatform/Auction.sol\":2189:2566  constructor(... */\n          pop\n          mload(0x40)\n          sub(codesize, bytecodeSize)\n          dup1\n          bytecodeSize\n          dup4\n          codecopy\n          dup2\n          add\n          dup1\n          0x40\n          mstore\n          dup2\n          add\n          swap1\n          dup1\n          dup1\n          mload\n          dup3\n          add\n          swap3\n          swap2\n          swap1\n          0x20\n          add\n          dup1\n          mload\n          swap1\n          0x20\n          add\n          swap1\n          swap3\n          swap2\n          swap1\n          dup1\n          mload\n          swap1\n          0x20\n          add\n          swap1\n          swap3\n          swap2\n          swap1\n          dup1\n          mload\n          swap1\n          0x20\n          add\n          swap1\n          swap3\n          swap2\n          swap1\n          pop\n          pop\n          pop\n            /* \"Project-1-AuctionPlatform/Auction.sol\":2455:2467  _description */\n          dup4\n            /* \"Project-1-AuctionPlatform/Auction.sol\":2441:2452  description */\n          0x0\n            /* \"Project-1-AuctionPlatform/Auction.sol\":2441:2467  description = _description */\n          swap1\n          dup1\n          mload\n          swap1\n          0x20\n          add\n          swap1\n          tag_4\n          swap3\n          swap2\n          swap1\n          jump\t// in(tag_5)\n        tag_4:\n          pop\n            /* \"Project-1-AuctionPlatform/Auction.sol\":2489:2499  _startTime */\n          dup3\n            /* \"Project-1-AuctionPlatform/Auction.sol\":2477:2486  startTime */\n          0x1\n            /* \"Project-1-AuctionPlatform/Auction.sol\":2477:2499  startTime = _startTime */\n          dup2\n          swap1\n          sstore\n          pop\n            /* \"Project-1-AuctionPlatform/Auction.sol\":2519:2527  _endTime */\n          dup2\n            /* \"Project-1-AuctionPlatform/Auction.sol\":2509:2516  endTime */\n          0x2\n            /* \"Project-1-AuctionPlatform/Auction.sol\":2509:2527  endTime = _endTime */\n          dup2\n          swap1\n          sstore\n          pop\n            /* \"Project-1-AuctionPlatform/Auction.sol\":2549:2559  _minBidVal */\n          dup1\n            /* \"Project-1-AuctionPlatform/Auction.sol\":2537:2546  minBidVal */\n          0x3\n            /* \"Project-1-AuctionPlatform/Auction.sol\":2537:2559  minBidVal = _minBidVal */\n          dup2\n          swap1\n          sstore\n          pop\n            /* \"Project-1-AuctionPlatform/Auction.sol\":2189:2566  constructor(... */\n          pop\n          pop\n          pop\n          pop\n            /* \"Project-1-AuctionPlatform/Auction.sol\":66:5709  contract Auction {... */\n          jump(tag_6)\n        tag_5:\n          dup3\n          dup1\n          sload\n          0x1\n          dup2\n          0x1\n          and\n          iszero\n          0x100\n          mul\n          sub\n          and\n          0x2\n          swap1\n          div\n          swap1\n          0x0\n          mstore\n          keccak256(0x0, 0x20)\n          swap1\n          0x1f\n          add\n          0x20\n          swap1\n          div\n          dup2\n          add\n          swap3\n          dup3\n          0x1f\n          lt\n          tag_8\n          jumpi\n          dup1\n          mload\n          not(0xff)\n          and\n          dup4\n          dup1\n          add\n          or\n          dup6\n          sstore\n          jump(tag_7)\n        tag_8:\n          dup3\n          dup1\n          add\n          0x1\n          add\n          dup6\n          sstore\n          dup3\n          iszero\n          tag_7\n          jumpi\n          swap2\n          dup3\n          add\n        tag_9:\n          dup3\n          dup2\n          gt\n          iszero\n          tag_10\n          jumpi\n          dup3\n          mload\n          dup3\n          sstore\n          swap2\n          0x20\n          add\n          swap2\n          swap1\n          0x1\n          add\n          swap1\n          jump(tag_9)\n        tag_10:\n        tag_7:\n          pop\n          swap1\n          pop\n          tag_11\n          swap2\n          swap1\n          jump\t// in(tag_12)\n        tag_11:\n          pop\n          swap1\n          jump\t// out\n        tag_12:\n          tag_13\n          swap2\n          swap1\n        tag_14:\n          dup1\n          dup3\n          gt\n          iszero\n          tag_15\n          jumpi\n          0x0\n          dup2\n          0x0\n          swap1\n          sstore\n          pop\n          0x1\n          add\n          jump(tag_14)\n        tag_15:\n          pop\n          swap1\n          jump\n        tag_13:\n          swap1\n          jump\t// out\n        tag_6:\n          dataSize(sub_0)\n          dup1\n          dataOffset(sub_0)\n          0x0\n          codecopy\n          0x0\n          return\n        stop\n\n        sub_0: assembly {\n                /* \"Project-1-AuctionPlatform/Auction.sol\":66:5709  contract Auction {... */\n              mstore(0x40, 0x80)\n              jumpi(tag_1, lt(calldatasize, 0x4))\n              calldataload(0x0)\n              0x100000000000000000000000000000000000000000000000000000000\n              swap1\n              div\n              0xffffffff\n              and\n              dup1\n              0x1a092541\n              eq\n              tag_2\n              jumpi\n              dup1\n              0x409766e6\n              eq\n              tag_3\n              jumpi\n              dup1\n              0x43129de1\n              eq\n              tag_4\n              jumpi\n              dup1\n              0x439f5ac2\n              eq\n              tag_5\n              jumpi\n              dup1\n              0x62ea82db\n              eq\n              tag_6\n              jumpi\n              dup1\n              0x659dd2b4\n              eq\n              tag_7\n              jumpi\n              dup1\n              0x679dbf0c\n              eq\n              tag_8\n              jumpi\n              dup1\n              0xad934674\n              eq\n              tag_9\n              jumpi\n              dup1\n              0xc828371e\n              eq\n              tag_10\n              jumpi\n              dup1\n              0xdd06ba1a\n              eq\n              tag_11\n              jumpi\n              dup1\n              0xdee37a8e\n              eq\n              tag_12\n              jumpi\n            tag_1:\n              0x0\n              dup1\n              revert\n                /* \"Project-1-AuctionPlatform/Auction.sol\":711:808  function getDescription() external view returns(string memory){... */\n            tag_2:\n              callvalue\n                /* \"--CODEGEN--\":8:17   */\n              dup1\n                /* \"--CODEGEN--\":5:7   */\n              iszero\n              tag_13\n              jumpi\n                /* \"--CODEGEN--\":30:31   */\n              0x0\n                /* \"--CODEGEN--\":27:28   */\n              dup1\n                /* \"--CODEGEN--\":20:32   */\n              revert\n                /* \"--CODEGEN--\":5:7   */\n            tag_13:\n                /* \"Project-1-AuctionPlatform/Auction.sol\":711:808  function getDescription() external view returns(string memory){... */\n              pop\n              tag_14\n              jump(tag_15)\n            tag_14:\n              mload(0x40)\n              dup1\n              dup1\n              0x20\n              add\n              dup3\n              dup2\n              sub\n              dup3\n              mstore\n              dup4\n              dup2\n              dup2\n              mload\n              dup2\n              mstore\n              0x20\n              add\n              swap2\n              pop\n              dup1\n              mload\n              swap1\n              0x20\n              add\n              swap1\n              dup1\n              dup4\n              dup4\n                /* \"--CODEGEN--\":23:24   */\n              0x0\n                /* \"--CODEGEN--\":8:108   */\n            tag_16:\n                /* \"--CODEGEN--\":33:36   */\n              dup4\n                /* \"--CODEGEN--\":30:31   */\n              dup2\n                /* \"--CODEGEN--\":27:37   */\n              lt\n                /* \"--CODEGEN--\":8:108   */\n              iszero\n              tag_17\n              jumpi\n                /* \"--CODEGEN--\":99:100   */\n              dup1\n                /* \"--CODEGEN--\":94:97   */\n              dup3\n                /* \"--CODEGEN--\":90:101   */\n              add\n                /* \"--CODEGEN--\":84:102   */\n              mload\n                /* \"--CODEGEN--\":80:81   */\n              dup2\n                /* \"--CODEGEN--\":75:78   */\n              dup5\n                /* \"--CODEGEN--\":71:82   */\n              add\n                /* \"--CODEGEN--\":64:103   */\n              mstore\n                /* \"--CODEGEN--\":52:54   */\n              0x20\n                /* \"--CODEGEN--\":49:50   */\n              dup2\n                /* \"--CODEGEN--\":45:55   */\n              add\n                /* \"--CODEGEN--\":40:55   */\n              swap1\n              pop\n                /* \"--CODEGEN--\":8:108   */\n              jump(tag_16)\n            tag_17:\n                /* \"--CODEGEN--\":12:26   */\n              pop\n                /* \"Project-1-AuctionPlatform/Auction.sol\":711:808  function getDescription() external view returns(string memory){... */\n              pop\n              pop\n              pop\n              swap1\n              pop\n              swap1\n              dup2\n              add\n              swap1\n              0x1f\n              and\n              dup1\n              iszero\n              tag_19\n              jumpi\n              dup1\n              dup3\n              sub\n              dup1\n              mload\n              0x1\n              dup4\n              0x20\n              sub\n              0x100\n              exp\n              sub\n              not\n              and\n              dup2\n              mstore\n              0x20\n              add\n              swap2\n              pop\n            tag_19:\n              pop\n              swap3\n              pop\n              pop\n              pop\n              mload(0x40)\n              dup1\n              swap2\n              sub\n              swap1\n              return\n                /* \"Project-1-AuctionPlatform/Auction.sol\":1008:1092  function getBidsMade() external view returns (bool) {... */\n            tag_3:\n              callvalue\n                /* \"--CODEGEN--\":8:17   */\n              dup1\n                /* \"--CODEGEN--\":5:7   */\n              iszero\n              tag_20\n              jumpi\n                /* \"--CODEGEN--\":30:31   */\n              0x0\n                /* \"--CODEGEN--\":27:28   */\n              dup1\n                /* \"--CODEGEN--\":20:32   */\n              revert\n                /* \"--CODEGEN--\":5:7   */\n            tag_20:\n                /* \"Project-1-AuctionPlatform/Auction.sol\":1008:1092  function getBidsMade() external view returns (bool) {... */\n              pop\n              tag_21\n              jump(tag_22)\n            tag_21:\n              mload(0x40)\n              dup1\n              dup3\n              iszero\n              iszero\n              iszero\n              iszero\n              dup2\n              mstore\n              0x20\n              add\n              swap2\n              pop\n              pop\n              mload(0x40)\n              dup1\n              swap2\n              sub\n              swap1\n              return\n                /* \"Project-1-AuctionPlatform/Auction.sol\":3122:3423  function updateBid(uint256 _bidVal) external validBidVal(_bidVal) isActive {... */\n            tag_4:\n              callvalue\n                /* \"--CODEGEN--\":8:17   */\n              dup1\n                /* \"--CODEGEN--\":5:7   */\n              iszero\n              tag_23\n              jumpi\n                /* \"--CODEGEN--\":30:31   */\n              0x0\n                /* \"--CODEGEN--\":27:28   */\n              dup1\n                /* \"--CODEGEN--\":20:32   */\n              revert\n                /* \"--CODEGEN--\":5:7   */\n            tag_23:\n                /* \"Project-1-AuctionPlatform/Auction.sol\":3122:3423  function updateBid(uint256 _bidVal) external validBidVal(_bidVal) isActive {... */\n              pop\n              tag_24\n              0x4\n              dup1\n              calldatasize\n              sub\n              dup2\n              add\n              swap1\n              dup1\n              dup1\n              calldataload\n              swap1\n              0x20\n              add\n              swap1\n              swap3\n              swap2\n              swap1\n              pop\n              pop\n              pop\n              jump(tag_25)\n            tag_24:\n              stop\n                /* \"Project-1-AuctionPlatform/Auction.sol\":1148:1233  function getEndTime() external view returns (uint256) {... */\n            tag_5:\n              callvalue\n                /* \"--CODEGEN--\":8:17   */\n              dup1\n                /* \"--CODEGEN--\":5:7   */\n              iszero\n              tag_26\n              jumpi\n                /* \"--CODEGEN--\":30:31   */\n              0x0\n                /* \"--CODEGEN--\":27:28   */\n              dup1\n                /* \"--CODEGEN--\":20:32   */\n              revert\n                /* \"--CODEGEN--\":5:7   */\n            tag_26:\n                /* \"Project-1-AuctionPlatform/Auction.sol\":1148:1233  function getEndTime() external view returns (uint256) {... */\n              pop\n              tag_27\n              jump(tag_28)\n            tag_27:\n              mload(0x40)\n              dup1\n              dup3\n              dup2\n              mstore\n              0x20\n              add\n              swap2\n              pop\n              pop\n              mload(0x40)\n              dup1\n              swap2\n              sub\n              swap1\n              return\n                /* \"Project-1-AuctionPlatform/Auction.sol\":447:486  mapping(address => uint256) public bids */\n            tag_6:\n              callvalue\n                /* \"--CODEGEN--\":8:17   */\n              dup1\n                /* \"--CODEGEN--\":5:7   */\n              iszero\n              tag_29\n              jumpi\n                /* \"--CODEGEN--\":30:31   */\n              0x0\n                /* \"--CODEGEN--\":27:28   */\n              dup1\n                /* \"--CODEGEN--\":20:32   */\n              revert\n                /* \"--CODEGEN--\":5:7   */\n            tag_29:\n                /* \"Project-1-AuctionPlatform/Auction.sol\":447:486  mapping(address => uint256) public bids */\n              pop\n              tag_30\n              0x4\n              dup1\n              calldatasize\n              sub\n              dup2\n              add\n              swap1\n              dup1\n              dup1\n              calldataload\n              0xffffffffffffffffffffffffffffffffffffffff\n              and\n              swap1\n              0x20\n              add\n              swap1\n              swap3\n              swap2\n              swap1\n              pop\n              pop\n              pop\n              jump(tag_31)\n            tag_30:\n              mload(0x40)\n              dup1\n              dup3\n              dup2\n              mstore\n              0x20\n              add\n              swap2\n              pop\n              pop\n              mload(0x40)\n              dup1\n              swap2\n              sub\n              swap1\n              return\n                /* \"Project-1-AuctionPlatform/Auction.sol\":2629:3061  function createBid(uint256 _bidVal)... */\n            tag_7:\n              callvalue\n                /* \"--CODEGEN--\":8:17   */\n              dup1\n                /* \"--CODEGEN--\":5:7   */\n              iszero\n              tag_32\n              jumpi\n                /* \"--CODEGEN--\":30:31   */\n              0x0\n                /* \"--CODEGEN--\":27:28   */\n              dup1\n                /* \"--CODEGEN--\":20:32   */\n              revert\n                /* \"--CODEGEN--\":5:7   */\n            tag_32:\n                /* \"Project-1-AuctionPlatform/Auction.sol\":2629:3061  function createBid(uint256 _bidVal)... */\n              pop\n              tag_33\n              0x4\n              dup1\n              calldatasize\n              sub\n              dup2\n              add\n              swap1\n              dup1\n              dup1\n              calldataload\n              swap1\n              0x20\n              add\n              swap1\n              swap3\n              swap2\n              swap1\n              pop\n              pop\n              pop\n              jump(tag_34)\n            tag_33:\n              stop\n                /* \"Project-1-AuctionPlatform/Auction.sol\":1625:2070  function getListOfBids() external view isActive returns (uint256[]) {... */\n            tag_8:\n              callvalue\n                /* \"--CODEGEN--\":8:17   */\n              dup1\n                /* \"--CODEGEN--\":5:7   */\n              iszero\n              tag_35\n              jumpi\n                /* \"--CODEGEN--\":30:31   */\n              0x0\n                /* \"--CODEGEN--\":27:28   */\n              dup1\n                /* \"--CODEGEN--\":20:32   */\n              revert\n                /* \"--CODEGEN--\":5:7   */\n            tag_35:\n                /* \"Project-1-AuctionPlatform/Auction.sol\":1625:2070  function getListOfBids() external view isActive returns (uint256[]) {... */\n              pop\n              tag_36\n              jump(tag_37)\n            tag_36:\n              mload(0x40)\n              dup1\n              dup1\n              0x20\n              add\n              dup3\n              dup2\n              sub\n              dup3\n              mstore\n              dup4\n              dup2\n              dup2\n              mload\n              dup2\n              mstore\n              0x20\n              add\n              swap2\n              pop\n              dup1\n              mload\n              swap1\n              0x20\n              add\n              swap1\n              0x20\n              mul\n              dup1\n              dup4\n              dup4\n                /* \"--CODEGEN--\":23:24   */\n              0x0\n                /* \"--CODEGEN--\":8:108   */\n            tag_38:\n                /* \"--CODEGEN--\":33:36   */\n              dup4\n                /* \"--CODEGEN--\":30:31   */\n              dup2\n                /* \"--CODEGEN--\":27:37   */\n              lt\n                /* \"--CODEGEN--\":8:108   */\n              iszero\n              tag_39\n              jumpi\n                /* \"--CODEGEN--\":99:100   */\n              dup1\n                /* \"--CODEGEN--\":94:97   */\n              dup3\n                /* \"--CODEGEN--\":90:101   */\n              add\n                /* \"--CODEGEN--\":84:102   */\n              mload\n                /* \"--CODEGEN--\":80:81   */\n              dup2\n                /* \"--CODEGEN--\":75:78   */\n              dup5\n                /* \"--CODEGEN--\":71:82   */\n              add\n                /* \"--CODEGEN--\":64:103   */\n              mstore\n                /* \"--CODEGEN--\":52:54   */\n              0x20\n                /* \"--CODEGEN--\":49:50   */\n              dup2\n                /* \"--CODEGEN--\":45:55   */\n              add\n                /* \"--CODEGEN--\":40:55   */\n              swap1\n              pop\n                /* \"--CODEGEN--\":8:108   */\n              jump(tag_38)\n            tag_39:\n                /* \"--CODEGEN--\":12:26   */\n              pop\n                /* \"Project-1-AuctionPlatform/Auction.sol\":1625:2070  function getListOfBids() external view isActive returns (uint256[]) {... */\n              pop\n              pop\n              pop\n              swap1\n              pop\n              add\n              swap3\n              pop\n              pop\n              pop\n              mload(0x40)\n              dup1\n              swap2\n              sub\n              swap1\n              return\n                /* \"Project-1-AuctionPlatform/Auction.sol\":1267:1365  function getMinBidVal() external view isActive returns (uint256) {... */\n            tag_9:\n              callvalue\n                /* \"--CODEGEN--\":8:17   */\n              dup1\n                /* \"--CODEGEN--\":5:7   */\n              iszero\n              tag_41\n              jumpi\n                /* \"--CODEGEN--\":30:31   */\n              0x0\n                /* \"--CODEGEN--\":27:28   */\n              dup1\n                /* \"--CODEGEN--\":20:32   */\n              revert\n                /* \"--CODEGEN--\":5:7   */\n            tag_41:\n                /* \"Project-1-AuctionPlatform/Auction.sol\":1267:1365  function getMinBidVal() external view isActive returns (uint256) {... */\n              pop\n              tag_42\n              jump(tag_43)\n            tag_42:\n              mload(0x40)\n              dup1\n              dup3\n              dup2\n              mstore\n              0x20\n              add\n              swap2\n              pop\n              pop\n              mload(0x40)\n              dup1\n              swap2\n              sub\n              swap1\n              return\n                /* \"Project-1-AuctionPlatform/Auction.sol\":867:951  function getStartTime() external view returns(uint){... */\n            tag_10:\n              callvalue\n                /* \"--CODEGEN--\":8:17   */\n              dup1\n                /* \"--CODEGEN--\":5:7   */\n              iszero\n              tag_44\n              jumpi\n                /* \"--CODEGEN--\":30:31   */\n              0x0\n                /* \"--CODEGEN--\":27:28   */\n              dup1\n                /* \"--CODEGEN--\":20:32   */\n              revert\n                /* \"--CODEGEN--\":5:7   */\n            tag_44:\n                /* \"Project-1-AuctionPlatform/Auction.sol\":867:951  function getStartTime() external view returns(uint){... */\n              pop\n              tag_45\n              jump(tag_46)\n            tag_45:\n              mload(0x40)\n              dup1\n              dup3\n              dup2\n              mstore\n              0x20\n              add\n              swap2\n              pop\n              pop\n              mload(0x40)\n              dup1\n              swap2\n              sub\n              swap1\n              return\n                /* \"Project-1-AuctionPlatform/Auction.sol\":4342:4767  function getMaximumBid() external view isActive returns (uint256) {... */\n            tag_11:\n              callvalue\n                /* \"--CODEGEN--\":8:17   */\n              dup1\n                /* \"--CODEGEN--\":5:7   */\n              iszero\n              tag_47\n              jumpi\n                /* \"--CODEGEN--\":30:31   */\n              0x0\n                /* \"--CODEGEN--\":27:28   */\n              dup1\n                /* \"--CODEGEN--\":20:32   */\n              revert\n                /* \"--CODEGEN--\":5:7   */\n            tag_47:\n                /* \"Project-1-AuctionPlatform/Auction.sol\":4342:4767  function getMaximumBid() external view isActive returns (uint256) {... */\n              pop\n              tag_48\n              jump(tag_49)\n            tag_48:\n              mload(0x40)\n              dup1\n              dup3\n              dup2\n              mstore\n              0x20\n              add\n              swap2\n              pop\n              pop\n              mload(0x40)\n              dup1\n              swap2\n              sub\n              swap1\n              return\n                /* \"Project-1-AuctionPlatform/Auction.sol\":3511:4279  function endAuctionWithSelectedBid(uint256 bid)... */\n            tag_12:\n              callvalue\n                /* \"--CODEGEN--\":8:17   */\n              dup1\n                /* \"--CODEGEN--\":5:7   */\n              iszero\n              tag_50\n              jumpi\n                /* \"--CODEGEN--\":30:31   */\n              0x0\n                /* \"--CODEGEN--\":27:28   */\n              dup1\n                /* \"--CODEGEN--\":20:32   */\n              revert\n                /* \"--CODEGEN--\":5:7   */\n            tag_50:\n                /* \"Project-1-AuctionPlatform/Auction.sol\":3511:4279  function endAuctionWithSelectedBid(uint256 bid)... */\n              pop\n              tag_51\n              0x4\n              dup1\n              calldatasize\n              sub\n              dup2\n              add\n              swap1\n              dup1\n              dup1\n              calldataload\n              swap1\n              0x20\n              add\n              swap1\n              swap3\n              swap2\n              swap1\n              pop\n              pop\n              pop\n              jump(tag_52)\n            tag_51:\n              mload(0x40)\n              dup1\n              dup3\n              0xffffffffffffffffffffffffffffffffffffffff\n              and\n              0xffffffffffffffffffffffffffffffffffffffff\n              and\n              dup2\n              mstore\n              0x20\n              add\n              swap2\n              pop\n              pop\n              mload(0x40)\n              dup1\n              swap2\n              sub\n              swap1\n              return\n                /* \"Project-1-AuctionPlatform/Auction.sol\":711:808  function getDescription() external view returns(string memory){... */\n            tag_15:\n                /* \"Project-1-AuctionPlatform/Auction.sol\":759:765  string */\n              0x60\n                /* \"Project-1-AuctionPlatform/Auction.sol\":790:801  description */\n              0x0\n                /* \"Project-1-AuctionPlatform/Auction.sol\":783:801  return description */\n              dup1\n              sload\n              0x1\n              dup2\n              0x1\n              and\n              iszero\n              0x100\n              mul\n              sub\n              and\n              0x2\n              swap1\n              div\n              dup1\n              0x1f\n              add\n              0x20\n              dup1\n              swap2\n              div\n              mul\n              0x20\n              add\n              mload(0x40)\n              swap1\n              dup2\n              add\n              0x40\n              mstore\n              dup1\n              swap3\n              swap2\n              swap1\n              dup2\n              dup2\n              mstore\n              0x20\n              add\n              dup3\n              dup1\n              sload\n              0x1\n              dup2\n              0x1\n              and\n              iszero\n              0x100\n              mul\n              sub\n              and\n              0x2\n              swap1\n              div\n              dup1\n              iszero\n              tag_54\n              jumpi\n              dup1\n              0x1f\n              lt\n              tag_55\n              jumpi\n              0x100\n              dup1\n              dup4\n              sload\n              div\n              mul\n              dup4\n              mstore\n              swap2\n              0x20\n              add\n              swap2\n              jump(tag_54)\n            tag_55:\n              dup3\n              add\n              swap2\n              swap1\n              0x0\n              mstore\n              keccak256(0x0, 0x20)\n              swap1\n            tag_56:\n              dup2\n              sload\n              dup2\n              mstore\n              swap1\n              0x1\n              add\n              swap1\n              0x20\n              add\n              dup1\n              dup4\n              gt\n              tag_56\n              jumpi\n              dup3\n              swap1\n              sub\n              0x1f\n              and\n              dup3\n              add\n              swap2\n            tag_54:\n              pop\n              pop\n              pop\n              pop\n              pop\n              swap1\n              pop\n                /* \"Project-1-AuctionPlatform/Auction.sol\":711:808  function getDescription() external view returns(string memory){... */\n              swap1\n              jump\t// out\n                /* \"Project-1-AuctionPlatform/Auction.sol\":1008:1092  function getBidsMade() external view returns (bool) {... */\n            tag_22:\n                /* \"Project-1-AuctionPlatform/Auction.sol\":1054:1058  bool */\n              0x0\n                /* \"Project-1-AuctionPlatform/Auction.sol\":1077:1085  bidsMade */\n              0x4\n              0x0\n              swap1\n              sload\n              swap1\n              0x100\n              exp\n              swap1\n              div\n              0xff\n              and\n                /* \"Project-1-AuctionPlatform/Auction.sol\":1070:1085  return bidsMade */\n              swap1\n              pop\n                /* \"Project-1-AuctionPlatform/Auction.sol\":1008:1092  function getBidsMade() external view returns (bool) {... */\n              swap1\n              jump\t// out\n                /* \"Project-1-AuctionPlatform/Auction.sol\":3122:3423  function updateBid(uint256 _bidVal) external validBidVal(_bidVal) isActive {... */\n            tag_25:\n                /* \"Project-1-AuctionPlatform/Auction.sol\":3179:3186  _bidVal */\n              dup1\n                /* \"Project-1-AuctionPlatform/Auction.sol\":5357:5366  minBidVal */\n              sload(0x3)\n                /* \"Project-1-AuctionPlatform/Auction.sol\":5347:5354  _bidVal */\n              dup2\n                /* \"Project-1-AuctionPlatform/Auction.sol\":5347:5366  _bidVal > minBidVal */\n              gt\n                /* \"Project-1-AuctionPlatform/Auction.sol\":5326:5461  require(... */\n              iszero\n              iszero\n              tag_59\n              jumpi\n              mload(0x40)\n              0x8c379a000000000000000000000000000000000000000000000000000000000\n              dup2\n              mstore\n              0x4\n              add\n              dup1\n              dup1\n              0x20\n              add\n              dup3\n              dup2\n              sub\n              dup3\n              mstore\n              0x45\n              dup2\n              mstore\n              0x20\n              add\n              dup1\n              0x506c6561736520656e7465722061206269642067726561746572207468616e20\n              dup2\n              mstore\n              0x20\n              add\n              0x6d696e696d756d20726571756972656420626964206f6620676976656e206175\n              dup2\n              mstore\n              0x20\n              add\n              0x6374696f6e000000000000000000000000000000000000000000000000000000\n              dup2\n              mstore\n              pop\n              0x60\n              add\n              swap2\n              pop\n              pop\n              mload(0x40)\n              dup1\n              swap2\n              sub\n              swap1\n              revert\n            tag_59:\n                /* \"Project-1-AuctionPlatform/Auction.sol\":4949:4956  endTime */\n              sload(0x2)\n                /* \"Project-1-AuctionPlatform/Auction.sol\":4931:4946  block.timestamp */\n              timestamp\n                /* \"Project-1-AuctionPlatform/Auction.sol\":4931:4956  block.timestamp < endTime */\n              lt\n                /* \"Project-1-AuctionPlatform/Auction.sol\":4923:4981  require(block.timestamp < endTime, \"Auction is Inactive \") */\n              iszero\n              iszero\n              tag_61\n              jumpi\n              mload(0x40)\n              0x8c379a000000000000000000000000000000000000000000000000000000000\n              dup2\n              mstore\n              0x4\n              add\n              dup1\n              dup1\n              0x20\n              add\n              dup3\n              dup2\n              sub\n              dup3\n              mstore\n              0x14\n              dup2\n              mstore\n              0x20\n              add\n              dup1\n              0x41756374696f6e20697320496e61637469766520000000000000000000000000\n              dup2\n              mstore\n              pop\n              0x20\n              add\n              swap2\n              pop\n              pop\n              mload(0x40)\n              dup1\n              swap2\n              sub\n              swap1\n              revert\n            tag_61:\n                /* \"Project-1-AuctionPlatform/Auction.sol\":3247:3248  0 */\n              0x0\n                /* \"Project-1-AuctionPlatform/Auction.sol\":3228:3232  bids */\n              0x5\n                /* \"Project-1-AuctionPlatform/Auction.sol\":3228:3243  bids[tx.origin] */\n              0x0\n                /* \"Project-1-AuctionPlatform/Auction.sol\":3233:3242  tx.origin */\n              origin\n                /* \"Project-1-AuctionPlatform/Auction.sol\":3228:3243  bids[tx.origin] */\n              0xffffffffffffffffffffffffffffffffffffffff\n              and\n              0xffffffffffffffffffffffffffffffffffffffff\n              and\n              dup2\n              mstore\n              0x20\n              add\n              swap1\n              dup2\n              mstore\n              0x20\n              add\n              0x0\n              keccak256\n              sload\n                /* \"Project-1-AuctionPlatform/Auction.sol\":3228:3248  bids[tx.origin] != 0 */\n              eq\n              iszero\n                /* \"Project-1-AuctionPlatform/Auction.sol\":3207:3333  require(... */\n              iszero\n              iszero\n              tag_63\n              jumpi\n              mload(0x40)\n              0x8c379a000000000000000000000000000000000000000000000000000000000\n              dup2\n              mstore\n              0x4\n              add\n              dup1\n              dup1\n              0x20\n              add\n              dup3\n              dup2\n              sub\n              dup3\n              mstore\n              0x3b\n              dup2\n              mstore\n              0x20\n              add\n              dup1\n              0x596f7520686176656e2774206372656174656420616e79206269642c20757365\n              dup2\n              mstore\n              0x20\n              add\n              0x2063726561746542696420666f72206372656174696e67206f6e650000000000\n              dup2\n              mstore\n              pop\n              0x40\n              add\n              swap2\n              pop\n              pop\n              mload(0x40)\n              dup1\n              swap2\n              sub\n              swap1\n              revert\n            tag_63:\n                /* \"Project-1-AuctionPlatform/Auction.sol\":3409:3416  _bidVal */\n              dup2\n                /* \"Project-1-AuctionPlatform/Auction.sol\":3391:3395  bids */\n              0x5\n                /* \"Project-1-AuctionPlatform/Auction.sol\":3391:3406  bids[tx.origin] */\n              0x0\n                /* \"Project-1-AuctionPlatform/Auction.sol\":3396:3405  tx.origin */\n              origin\n                /* \"Project-1-AuctionPlatform/Auction.sol\":3391:3406  bids[tx.origin] */\n              0xffffffffffffffffffffffffffffffffffffffff\n              and\n              0xffffffffffffffffffffffffffffffffffffffff\n              and\n              dup2\n              mstore\n              0x20\n              add\n              swap1\n              dup2\n              mstore\n              0x20\n              add\n              0x0\n              keccak256\n                /* \"Project-1-AuctionPlatform/Auction.sol\":3391:3416  bids[tx.origin] = _bidVal */\n              dup2\n              swap1\n              sstore\n              pop\n                /* \"Project-1-AuctionPlatform/Auction.sol\":3122:3423  function updateBid(uint256 _bidVal) external validBidVal(_bidVal) isActive {... */\n              pop\n              pop\n              jump\t// out\n                /* \"Project-1-AuctionPlatform/Auction.sol\":1148:1233  function getEndTime() external view returns (uint256) {... */\n            tag_28:\n                /* \"Project-1-AuctionPlatform/Auction.sol\":1193:1200  uint256 */\n              0x0\n                /* \"Project-1-AuctionPlatform/Auction.sol\":1219:1226  endTime */\n              sload(0x2)\n                /* \"Project-1-AuctionPlatform/Auction.sol\":1212:1226  return endTime */\n              swap1\n              pop\n                /* \"Project-1-AuctionPlatform/Auction.sol\":1148:1233  function getEndTime() external view returns (uint256) {... */\n              swap1\n              jump\t// out\n                /* \"Project-1-AuctionPlatform/Auction.sol\":447:486  mapping(address => uint256) public bids */\n            tag_31:\n              mstore(0x20, 0x5)\n              dup1\n              0x0\n              mstore\n              keccak256(0x0, 0x40)\n              0x0\n              swap2\n              pop\n              swap1\n              pop\n              sload\n              dup2\n              jump\t// out\n                /* \"Project-1-AuctionPlatform/Auction.sol\":2629:3061  function createBid(uint256 _bidVal)... */\n            tag_34:\n                /* \"Project-1-AuctionPlatform/Auction.sol\":2702:2709  _bidVal */\n              dup1\n                /* \"Project-1-AuctionPlatform/Auction.sol\":5357:5366  minBidVal */\n              sload(0x3)\n                /* \"Project-1-AuctionPlatform/Auction.sol\":5347:5354  _bidVal */\n              dup2\n                /* \"Project-1-AuctionPlatform/Auction.sol\":5347:5366  _bidVal > minBidVal */\n              gt\n                /* \"Project-1-AuctionPlatform/Auction.sol\":5326:5461  require(... */\n              iszero\n              iszero\n              tag_66\n              jumpi\n              mload(0x40)\n              0x8c379a000000000000000000000000000000000000000000000000000000000\n              dup2\n              mstore\n              0x4\n              add\n              dup1\n              dup1\n              0x20\n              add\n              dup3\n              dup2\n              sub\n              dup3\n              mstore\n              0x45\n              dup2\n              mstore\n              0x20\n              add\n              dup1\n              0x506c6561736520656e7465722061206269642067726561746572207468616e20\n              dup2\n              mstore\n              0x20\n              add\n              0x6d696e696d756d20726571756972656420626964206f6620676976656e206175\n              dup2\n              mstore\n              0x20\n              add\n              0x6374696f6e000000000000000000000000000000000000000000000000000000\n              dup2\n              mstore\n              pop\n              0x60\n              add\n              swap2\n              pop\n              pop\n              mload(0x40)\n              dup1\n              swap2\n              sub\n              swap1\n              revert\n            tag_66:\n                /* \"Project-1-AuctionPlatform/Auction.sol\":4949:4956  endTime */\n              sload(0x2)\n                /* \"Project-1-AuctionPlatform/Auction.sol\":4931:4946  block.timestamp */\n              timestamp\n                /* \"Project-1-AuctionPlatform/Auction.sol\":4931:4956  block.timestamp < endTime */\n              lt\n                /* \"Project-1-AuctionPlatform/Auction.sol\":4923:4981  require(block.timestamp < endTime, \"Auction is Inactive \") */\n              iszero\n              iszero\n              tag_68\n              jumpi\n              mload(0x40)\n              0x8c379a000000000000000000000000000000000000000000000000000000000\n              dup2\n              mstore\n              0x4\n              add\n              dup1\n              dup1\n              0x20\n              add\n              dup3\n              dup2\n              sub\n              dup3\n              mstore\n              0x14\n              dup2\n              mstore\n              0x20\n              add\n              dup1\n              0x41756374696f6e20697320496e61637469766520000000000000000000000000\n              dup2\n              mstore\n              pop\n              0x20\n              add\n              swap2\n              pop\n              pop\n              mload(0x40)\n              dup1\n              swap2\n              sub\n              swap1\n              revert\n            tag_68:\n                /* \"Project-1-AuctionPlatform/Auction.sol\":5128:5129  0 */\n              0x0\n                /* \"Project-1-AuctionPlatform/Auction.sol\":5109:5113  bids */\n              0x5\n                /* \"Project-1-AuctionPlatform/Auction.sol\":5109:5124  bids[tx.origin] */\n              0x0\n                /* \"Project-1-AuctionPlatform/Auction.sol\":5114:5123  tx.origin */\n              origin\n                /* \"Project-1-AuctionPlatform/Auction.sol\":5109:5124  bids[tx.origin] */\n              0xffffffffffffffffffffffffffffffffffffffff\n              and\n              0xffffffffffffffffffffffffffffffffffffffff\n              and\n              dup2\n              mstore\n              0x20\n              add\n              swap1\n              dup2\n              mstore\n              0x20\n              add\n              0x0\n              keccak256\n              sload\n                /* \"Project-1-AuctionPlatform/Auction.sol\":5109:5129  bids[tx.origin] == 0 */\n              eq\n                /* \"Project-1-AuctionPlatform/Auction.sol\":5101:5164  require(bids[tx.origin] == 0, \"You have already created a bid\") */\n              iszero\n              iszero\n              tag_70\n              jumpi\n              mload(0x40)\n              0x8c379a000000000000000000000000000000000000000000000000000000000\n              dup2\n              mstore\n              0x4\n              add\n              dup1\n              dup1\n              0x20\n              add\n              dup3\n              dup2\n              sub\n              dup3\n              mstore\n              0x1e\n              dup2\n              mstore\n              0x20\n              add\n              dup1\n              0x596f75206861766520616c726561647920637265617465642061206269640000\n              dup2\n              mstore\n              pop\n              0x20\n              add\n              swap2\n              pop\n              pop\n              mload(0x40)\n              dup1\n              swap2\n              sub\n              swap1\n              revert\n            tag_70:\n                /* \"Project-1-AuctionPlatform/Auction.sol\":2774:2778  true */\n              0x1\n                /* \"Project-1-AuctionPlatform/Auction.sol\":2763:2771  bidsMade */\n              0x4\n              0x0\n                /* \"Project-1-AuctionPlatform/Auction.sol\":2763:2778  bidsMade = true */\n              0x100\n              exp\n              dup2\n              sload\n              dup2\n              0xff\n              mul\n              not\n              and\n              swap1\n              dup4\n              iszero\n              iszero\n              mul\n              or\n              swap1\n              sstore\n              pop\n                /* \"Project-1-AuctionPlatform/Auction.sol\":2841:2848  _bidVal */\n              dup2\n                /* \"Project-1-AuctionPlatform/Auction.sol\":2823:2827  bids */\n              0x5\n                /* \"Project-1-AuctionPlatform/Auction.sol\":2823:2838  bids[tx.origin] */\n              0x0\n                /* \"Project-1-AuctionPlatform/Auction.sol\":2828:2837  tx.origin */\n              origin\n                /* \"Project-1-AuctionPlatform/Auction.sol\":2823:2838  bids[tx.origin] */\n              0xffffffffffffffffffffffffffffffffffffffff\n              and\n              0xffffffffffffffffffffffffffffffffffffffff\n              and\n              dup2\n              mstore\n              0x20\n              add\n              swap1\n              dup2\n              mstore\n              0x20\n              add\n              0x0\n              keccak256\n                /* \"Project-1-AuctionPlatform/Auction.sol\":2823:2848  bids[tx.origin] = _bidVal */\n              dup2\n              swap1\n              sstore\n              pop\n                /* \"Project-1-AuctionPlatform/Auction.sol\":2937:2948  biddersList */\n              0x6\n                /* \"Project-1-AuctionPlatform/Auction.sol\":2954:2963  tx.origin */\n              origin\n                /* \"Project-1-AuctionPlatform/Auction.sol\":2937:2964  biddersList.push(tx.origin) */\n              swap1\n              dup1\n                /* \"--CODEGEN--\":39:40   */\n              0x1\n                /* \"--CODEGEN--\":33:36   */\n              dup2\n                /* \"--CODEGEN--\":27:37   */\n              sload\n                /* \"--CODEGEN--\":23:41   */\n              add\n                /* \"--CODEGEN--\":57:67   */\n              dup1\n                /* \"--CODEGEN--\":52:55   */\n              dup3\n                /* \"--CODEGEN--\":45:68   */\n              sstore\n                /* \"--CODEGEN--\":79:89   */\n              dup1\n                /* \"--CODEGEN--\":72:89   */\n              swap2\n              pop\n                /* \"--CODEGEN--\":0:93   */\n              pop\n                /* \"Project-1-AuctionPlatform/Auction.sol\":2937:2964  biddersList.push(tx.origin) */\n              swap1\n              0x1\n              dup3\n              sub\n              swap1\n              0x0\n              mstore\n              keccak256(0x0, 0x20)\n              add\n              0x0\n              swap1\n              swap2\n              swap3\n              swap1\n              swap2\n              swap1\n              swap2\n              0x100\n              exp\n              dup2\n              sload\n              dup2\n              0xffffffffffffffffffffffffffffffffffffffff\n              mul\n              not\n              and\n              swap1\n              dup4\n              0xffffffffffffffffffffffffffffffffffffffff\n              and\n              mul\n              or\n              swap1\n              sstore\n              pop\n              pop\n                /* \"Project-1-AuctionPlatform/Auction.sol\":2629:3061  function createBid(uint256 _bidVal)... */\n              pop\n              pop\n              jump\t// out\n                /* \"Project-1-AuctionPlatform/Auction.sol\":1625:2070  function getListOfBids() external view isActive returns (uint256[]) {... */\n            tag_37:\n                /* \"Project-1-AuctionPlatform/Auction.sol\":1682:1691  uint256[] */\n              0x60\n                /* \"Project-1-AuctionPlatform/Auction.sol\":1763:1784  uint256[] memory list */\n              dup1\n                /* \"Project-1-AuctionPlatform/Auction.sol\":1947:1956  uint256 i */\n              0x0\n                /* \"Project-1-AuctionPlatform/Auction.sol\":4949:4956  endTime */\n              sload(0x2)\n                /* \"Project-1-AuctionPlatform/Auction.sol\":4931:4946  block.timestamp */\n              timestamp\n                /* \"Project-1-AuctionPlatform/Auction.sol\":4931:4956  block.timestamp < endTime */\n              lt\n                /* \"Project-1-AuctionPlatform/Auction.sol\":4923:4981  require(block.timestamp < endTime, \"Auction is Inactive \") */\n              iszero\n              iszero\n              tag_74\n              jumpi\n              mload(0x40)\n              0x8c379a000000000000000000000000000000000000000000000000000000000\n              dup2\n              mstore\n              0x4\n              add\n              dup1\n              dup1\n              0x20\n              add\n              dup3\n              dup2\n              sub\n              dup3\n              mstore\n              0x14\n              dup2\n              mstore\n              0x20\n              add\n              dup1\n              0x41756374696f6e20697320496e61637469766520000000000000000000000000\n              dup2\n              mstore\n              pop\n              0x20\n              add\n              swap2\n              pop\n              pop\n              mload(0x40)\n              dup1\n              swap2\n              sub\n              swap1\n              revert\n            tag_74:\n                /* \"Project-1-AuctionPlatform/Auction.sol\":1801:1812  biddersList */\n              0x6\n                /* \"Project-1-AuctionPlatform/Auction.sol\":1801:1819  biddersList.length */\n              dup1\n              sload\n              swap1\n              pop\n                /* \"Project-1-AuctionPlatform/Auction.sol\":1787:1820  new uint256[](biddersList.length) */\n              mload(0x40)\n              swap1\n              dup1\n              dup3\n              mstore\n              dup1\n              0x20\n              mul\n              0x20\n              add\n              dup3\n              add\n              0x40\n              mstore\n              dup1\n              iszero\n              tag_76\n              jumpi\n              dup2\n              0x20\n              add\n                /* \"--CODEGEN--\":29:31   */\n              0x20\n                /* \"--CODEGEN--\":21:27   */\n              dup3\n                /* \"--CODEGEN--\":17:32   */\n              mul\n                /* \"--CODEGEN--\":117:121   */\n              dup1\n                /* \"--CODEGEN--\":105:115   */\n              codesize\n                /* \"--CODEGEN--\":97:103   */\n              dup4\n                /* \"--CODEGEN--\":88:122   */\n              codecopy\n                /* \"--CODEGEN--\":148:152   */\n              dup1\n                /* \"--CODEGEN--\":140:146   */\n              dup3\n                /* \"--CODEGEN--\":136:153   */\n              add\n                /* \"--CODEGEN--\":126:153   */\n              swap2\n              pop\n                /* \"--CODEGEN--\":0:157   */\n              pop\n                /* \"Project-1-AuctionPlatform/Auction.sol\":1787:1820  new uint256[](biddersList.length) */\n              swap1\n              pop\n            tag_76:\n              pop\n                /* \"Project-1-AuctionPlatform/Auction.sol\":1763:1820  uint256[] memory list = new uint256[](biddersList.length) */\n              swap2\n              pop\n                /* \"Project-1-AuctionPlatform/Auction.sol\":1942:2042  for (uint256 i; i < biddersList.length; i++) {... */\n            tag_77:\n                /* \"Project-1-AuctionPlatform/Auction.sol\":1962:1973  biddersList */\n              0x6\n                /* \"Project-1-AuctionPlatform/Auction.sol\":1962:1980  biddersList.length */\n              dup1\n              sload\n              swap1\n              pop\n                /* \"Project-1-AuctionPlatform/Auction.sol\":1958:1959  i */\n              dup2\n                /* \"Project-1-AuctionPlatform/Auction.sol\":1958:1980  i < biddersList.length */\n              lt\n                /* \"Project-1-AuctionPlatform/Auction.sol\":1942:2042  for (uint256 i; i < biddersList.length; i++) {... */\n              iszero\n              tag_78\n              jumpi\n                /* \"Project-1-AuctionPlatform/Auction.sol\":2011:2015  bids */\n              0x5\n                /* \"Project-1-AuctionPlatform/Auction.sol\":2011:2031  bids[biddersList[i]] */\n              0x0\n                /* \"Project-1-AuctionPlatform/Auction.sol\":2016:2027  biddersList */\n              0x6\n                /* \"Project-1-AuctionPlatform/Auction.sol\":2028:2029  i */\n              dup4\n                /* \"Project-1-AuctionPlatform/Auction.sol\":2016:2030  biddersList[i] */\n              dup2\n              sload\n              dup2\n              lt\n              iszero\n              iszero\n              tag_80\n              jumpi\n              invalid\n            tag_80:\n              swap1\n              0x0\n              mstore\n              keccak256(0x0, 0x20)\n              add\n              0x0\n              swap1\n              sload\n              swap1\n              0x100\n              exp\n              swap1\n              div\n              0xffffffffffffffffffffffffffffffffffffffff\n              and\n                /* \"Project-1-AuctionPlatform/Auction.sol\":2011:2031  bids[biddersList[i]] */\n              0xffffffffffffffffffffffffffffffffffffffff\n              and\n              0xffffffffffffffffffffffffffffffffffffffff\n              and\n              dup2\n              mstore\n              0x20\n              add\n              swap1\n              dup2\n              mstore\n              0x20\n              add\n              0x0\n              keccak256\n              sload\n                /* \"Project-1-AuctionPlatform/Auction.sol\":2001:2005  list */\n              dup3\n                /* \"Project-1-AuctionPlatform/Auction.sol\":2006:2007  i */\n              dup3\n                /* \"Project-1-AuctionPlatform/Auction.sol\":2001:2008  list[i] */\n              dup2\n              mload\n              dup2\n              lt\n              iszero\n              iszero\n              tag_82\n              jumpi\n              invalid\n            tag_82:\n              swap1\n              0x20\n              add\n              swap1\n              0x20\n              mul\n              add\n                /* \"Project-1-AuctionPlatform/Auction.sol\":2001:2031  list[i] = bids[biddersList[i]] */\n              dup2\n              dup2\n              mstore\n              pop\n              pop\n                /* \"Project-1-AuctionPlatform/Auction.sol\":1982:1985  i++ */\n              dup1\n              dup1\n              0x1\n              add\n              swap2\n              pop\n              pop\n                /* \"Project-1-AuctionPlatform/Auction.sol\":1942:2042  for (uint256 i; i < biddersList.length; i++) {... */\n              jump(tag_77)\n            tag_78:\n                /* \"Project-1-AuctionPlatform/Auction.sol\":2059:2063  list */\n              dup2\n                /* \"Project-1-AuctionPlatform/Auction.sol\":2052:2063  return list */\n              swap3\n              pop\n                /* \"Project-1-AuctionPlatform/Auction.sol\":1625:2070  function getListOfBids() external view isActive returns (uint256[]) {... */\n              pop\n              pop\n              swap1\n              jump\t// out\n                /* \"Project-1-AuctionPlatform/Auction.sol\":1267:1365  function getMinBidVal() external view isActive returns (uint256) {... */\n            tag_43:\n                /* \"Project-1-AuctionPlatform/Auction.sol\":1323:1330  uint256 */\n              0x0\n                /* \"Project-1-AuctionPlatform/Auction.sol\":4949:4956  endTime */\n              sload(0x2)\n                /* \"Project-1-AuctionPlatform/Auction.sol\":4931:4946  block.timestamp */\n              timestamp\n                /* \"Project-1-AuctionPlatform/Auction.sol\":4931:4956  block.timestamp < endTime */\n              lt\n                /* \"Project-1-AuctionPlatform/Auction.sol\":4923:4981  require(block.timestamp < endTime, \"Auction is Inactive \") */\n              iszero\n              iszero\n              tag_84\n              jumpi\n              mload(0x40)\n              0x8c379a000000000000000000000000000000000000000000000000000000000\n              dup2\n              mstore\n              0x4\n              add\n              dup1\n              dup1\n              0x20\n              add\n              dup3\n              dup2\n              sub\n              dup3\n              mstore\n              0x14\n              dup2\n              mstore\n              0x20\n              add\n              dup1\n              0x41756374696f6e20697320496e61637469766520000000000000000000000000\n              dup2\n              mstore\n              pop\n              0x20\n              add\n              swap2\n              pop\n              pop\n              mload(0x40)\n              dup1\n              swap2\n              sub\n              swap1\n              revert\n            tag_84:\n                /* \"Project-1-AuctionPlatform/Auction.sol\":1349:1358  minBidVal */\n              sload(0x3)\n                /* \"Project-1-AuctionPlatform/Auction.sol\":1342:1358  return minBidVal */\n              swap1\n              pop\n                /* \"Project-1-AuctionPlatform/Auction.sol\":1267:1365  function getMinBidVal() external view isActive returns (uint256) {... */\n              swap1\n              jump\t// out\n                /* \"Project-1-AuctionPlatform/Auction.sol\":867:951  function getStartTime() external view returns(uint){... */\n            tag_46:\n                /* \"Project-1-AuctionPlatform/Auction.sol\":913:917  uint */\n              0x0\n                /* \"Project-1-AuctionPlatform/Auction.sol\":935:944  startTime */\n              sload(0x1)\n                /* \"Project-1-AuctionPlatform/Auction.sol\":928:944  return startTime */\n              swap1\n              pop\n                /* \"Project-1-AuctionPlatform/Auction.sol\":867:951  function getStartTime() external view returns(uint){... */\n              swap1\n              jump\t// out\n                /* \"Project-1-AuctionPlatform/Auction.sol\":4342:4767  function getMaximumBid() external view isActive returns (uint256) {... */\n            tag_49:\n                /* \"Project-1-AuctionPlatform/Auction.sol\":4399:4406  uint256 */\n              0x0\n                /* \"Project-1-AuctionPlatform/Auction.sol\":4418:4432  uint256 maxBid */\n              dup1\n                /* \"Project-1-AuctionPlatform/Auction.sol\":4501:4510  uint256 i */\n              0x0\n                /* \"Project-1-AuctionPlatform/Auction.sol\":4949:4956  endTime */\n              sload(0x2)\n                /* \"Project-1-AuctionPlatform/Auction.sol\":4931:4946  block.timestamp */\n              timestamp\n                /* \"Project-1-AuctionPlatform/Auction.sol\":4931:4956  block.timestamp < endTime */\n              lt\n                /* \"Project-1-AuctionPlatform/Auction.sol\":4923:4981  require(block.timestamp < endTime, \"Auction is Inactive \") */\n              iszero\n              iszero\n              tag_88\n              jumpi\n              mload(0x40)\n              0x8c379a000000000000000000000000000000000000000000000000000000000\n              dup2\n              mstore\n              0x4\n              add\n              dup1\n              dup1\n              0x20\n              add\n              dup3\n              dup2\n              sub\n              dup3\n              mstore\n              0x14\n              dup2\n              mstore\n              0x20\n              add\n              dup1\n              0x41756374696f6e20697320496e61637469766520000000000000000000000000\n              dup2\n              mstore\n              pop\n              0x20\n              add\n              swap2\n              pop\n              pop\n              mload(0x40)\n              dup1\n              swap2\n              sub\n              swap1\n              revert\n            tag_88:\n                /* \"Project-1-AuctionPlatform/Auction.sol\":4435:4436  0 */\n              0x0\n                /* \"Project-1-AuctionPlatform/Auction.sol\":4418:4436  uint256 maxBid = 0 */\n              swap2\n              pop\n                /* \"Project-1-AuctionPlatform/Auction.sol\":4496:4738  for (uint256 i; i < biddersList.length; i++) {... */\n            tag_90:\n                /* \"Project-1-AuctionPlatform/Auction.sol\":4516:4527  biddersList */\n              0x6\n                /* \"Project-1-AuctionPlatform/Auction.sol\":4516:4534  biddersList.length */\n              dup1\n              sload\n              swap1\n              pop\n                /* \"Project-1-AuctionPlatform/Auction.sol\":4512:4513  i */\n              dup2\n                /* \"Project-1-AuctionPlatform/Auction.sol\":4512:4534  i < biddersList.length */\n              lt\n                /* \"Project-1-AuctionPlatform/Auction.sol\":4496:4738  for (uint256 i; i < biddersList.length; i++) {... */\n              iszero\n              tag_91\n              jumpi\n                /* \"Project-1-AuctionPlatform/Auction.sol\":4637:4670  max(bids[biddersList[i]], maxBid) */\n              tag_93\n                /* \"Project-1-AuctionPlatform/Auction.sol\":4641:4645  bids */\n              0x5\n                /* \"Project-1-AuctionPlatform/Auction.sol\":4641:4661  bids[biddersList[i]] */\n              0x0\n                /* \"Project-1-AuctionPlatform/Auction.sol\":4646:4657  biddersList */\n              0x6\n                /* \"Project-1-AuctionPlatform/Auction.sol\":4658:4659  i */\n              dup5\n                /* \"Project-1-AuctionPlatform/Auction.sol\":4646:4660  biddersList[i] */\n              dup2\n              sload\n              dup2\n              lt\n              iszero\n              iszero\n              tag_94\n              jumpi\n              invalid\n            tag_94:\n              swap1\n              0x0\n              mstore\n              keccak256(0x0, 0x20)\n              add\n              0x0\n              swap1\n              sload\n              swap1\n              0x100\n              exp\n              swap1\n              div\n              0xffffffffffffffffffffffffffffffffffffffff\n              and\n                /* \"Project-1-AuctionPlatform/Auction.sol\":4641:4661  bids[biddersList[i]] */\n              0xffffffffffffffffffffffffffffffffffffffff\n              and\n              0xffffffffffffffffffffffffffffffffffffffff\n              and\n              dup2\n              mstore\n              0x20\n              add\n              swap1\n              dup2\n              mstore\n              0x20\n              add\n              0x0\n              keccak256\n              sload\n                /* \"Project-1-AuctionPlatform/Auction.sol\":4663:4669  maxBid */\n              dup4\n                /* \"Project-1-AuctionPlatform/Auction.sol\":4637:4640  max */\n              tag_96\n                /* \"Project-1-AuctionPlatform/Auction.sol\":4637:4670  max(bids[biddersList[i]], maxBid) */\n              jump\t// in\n            tag_93:\n                /* \"Project-1-AuctionPlatform/Auction.sol\":4628:4670  maxBid = max(bids[biddersList[i]], maxBid) */\n              swap2\n              pop\n                /* \"Project-1-AuctionPlatform/Auction.sol\":4536:4539  i++ */\n              dup1\n              dup1\n              0x1\n              add\n              swap2\n              pop\n              pop\n                /* \"Project-1-AuctionPlatform/Auction.sol\":4496:4738  for (uint256 i; i < biddersList.length; i++) {... */\n              jump(tag_90)\n            tag_91:\n                /* \"Project-1-AuctionPlatform/Auction.sol\":4754:4760  maxBid */\n              dup2\n                /* \"Project-1-AuctionPlatform/Auction.sol\":4747:4760  return maxBid */\n              swap3\n              pop\n                /* \"Project-1-AuctionPlatform/Auction.sol\":4342:4767  function getMaximumBid() external view isActive returns (uint256) {... */\n              pop\n              pop\n              swap1\n              jump\t// out\n                /* \"Project-1-AuctionPlatform/Auction.sol\":3511:4279  function endAuctionWithSelectedBid(uint256 bid)... */\n            tag_52:\n                /* \"Project-1-AuctionPlatform/Auction.sol\":3629:3636  address */\n              0x0\n                /* \"Project-1-AuctionPlatform/Auction.sol\":3746:3760  address winner */\n              dup1\n                /* \"Project-1-AuctionPlatform/Auction.sol\":3825:3834  uint256 i */\n              0x0\n                /* \"Project-1-AuctionPlatform/Auction.sol\":4949:4956  endTime */\n              sload(0x2)\n                /* \"Project-1-AuctionPlatform/Auction.sol\":4931:4946  block.timestamp */\n              timestamp\n                /* \"Project-1-AuctionPlatform/Auction.sol\":4931:4956  block.timestamp < endTime */\n              lt\n                /* \"Project-1-AuctionPlatform/Auction.sol\":4923:4981  require(block.timestamp < endTime, \"Auction is Inactive \") */\n              iszero\n              iszero\n              tag_98\n              jumpi\n              mload(0x40)\n              0x8c379a000000000000000000000000000000000000000000000000000000000\n              dup2\n              mstore\n              0x4\n              add\n              dup1\n              dup1\n              0x20\n              add\n              dup3\n              dup2\n              sub\n              dup3\n              mstore\n              0x14\n              dup2\n              mstore\n              0x20\n              add\n              dup1\n              0x41756374696f6e20697320496e61637469766520000000000000000000000000\n              dup2\n              mstore\n              pop\n              0x20\n              add\n              swap2\n              pop\n              pop\n              mload(0x40)\n              dup1\n              swap2\n              sub\n              swap1\n              revert\n            tag_98:\n                /* \"Project-1-AuctionPlatform/Auction.sol\":5588:5599  uint256 len */\n              0x0\n                /* \"Project-1-AuctionPlatform/Auction.sol\":5602:5613  biddersList */\n              0x6\n                /* \"Project-1-AuctionPlatform/Auction.sol\":5602:5620  biddersList.length */\n              dup1\n              sload\n              swap1\n              pop\n                /* \"Project-1-AuctionPlatform/Auction.sol\":5588:5620  uint256 len = biddersList.length */\n              swap1\n              pop\n                /* \"Project-1-AuctionPlatform/Auction.sol\":5644:5645  0 */\n              0x0\n                /* \"Project-1-AuctionPlatform/Auction.sol\":5638:5641  len */\n              dup2\n                /* \"Project-1-AuctionPlatform/Auction.sol\":5638:5645  len > 0 */\n              gt\n                /* \"Project-1-AuctionPlatform/Auction.sol\":5630:5689  require(len > 0, \"Can't end as no bids have been made yet\") */\n              iszero\n              iszero\n              tag_100\n              jumpi\n              mload(0x40)\n              0x8c379a000000000000000000000000000000000000000000000000000000000\n              dup2\n              mstore\n              0x4\n              add\n              dup1\n              dup1\n              0x20\n              add\n              dup3\n              dup2\n              sub\n              dup3\n              mstore\n              0x27\n              dup2\n              mstore\n              0x20\n              add\n              dup1\n              0x43616e277420656e64206173206e6f20626964732068617665206265656e206d\n              dup2\n              mstore\n              0x20\n              add\n              0x6164652079657400000000000000000000000000000000000000000000000000\n              dup2\n              mstore\n              pop\n              0x40\n              add\n              swap2\n              pop\n              pop\n              mload(0x40)\n              dup1\n              swap2\n              sub\n              swap1\n              revert\n            tag_100:\n                /* \"Project-1-AuctionPlatform/Auction.sol\":3662:3677  block.timestamp */\n              timestamp\n                /* \"Project-1-AuctionPlatform/Auction.sol\":3652:3659  endTime */\n              0x2\n                /* \"Project-1-AuctionPlatform/Auction.sol\":3652:3677  endTime = block.timestamp */\n              dup2\n              swap1\n              sstore\n              pop\n                /* \"Project-1-AuctionPlatform/Auction.sol\":3837:3838  0 */\n              0x0\n                /* \"Project-1-AuctionPlatform/Auction.sol\":3825:3838  uint256 i = 0 */\n              swap2\n              pop\n                /* \"Project-1-AuctionPlatform/Auction.sol\":3820:4152  for (uint256 i = 0; i < biddersList.length; i++) {... */\n            tag_102:\n                /* \"Project-1-AuctionPlatform/Auction.sol\":3844:3855  biddersList */\n              0x6\n                /* \"Project-1-AuctionPlatform/Auction.sol\":3844:3862  biddersList.length */\n              dup1\n              sload\n              swap1\n              pop\n                /* \"Project-1-AuctionPlatform/Auction.sol\":3840:3841  i */\n              dup3\n                /* \"Project-1-AuctionPlatform/Auction.sol\":3840:3862  i < biddersList.length */\n              lt\n                /* \"Project-1-AuctionPlatform/Auction.sol\":3820:4152  for (uint256 i = 0; i < biddersList.length; i++) {... */\n              iszero\n              tag_103\n              jumpi\n                /* \"Project-1-AuctionPlatform/Auction.sol\":4002:4005  bid */\n              dup5\n                /* \"Project-1-AuctionPlatform/Auction.sol\":3978:3982  bids */\n              0x5\n                /* \"Project-1-AuctionPlatform/Auction.sol\":3978:3998  bids[biddersList[i]] */\n              0x0\n                /* \"Project-1-AuctionPlatform/Auction.sol\":3983:3994  biddersList */\n              0x6\n                /* \"Project-1-AuctionPlatform/Auction.sol\":3995:3996  i */\n              dup6\n                /* \"Project-1-AuctionPlatform/Auction.sol\":3983:3997  biddersList[i] */\n              dup2\n              sload\n              dup2\n              lt\n              iszero\n              iszero\n              tag_105\n              jumpi\n              invalid\n            tag_105:\n              swap1\n              0x0\n              mstore\n              keccak256(0x0, 0x20)\n              add\n              0x0\n              swap1\n              sload\n              swap1\n              0x100\n              exp\n              swap1\n              div\n              0xffffffffffffffffffffffffffffffffffffffff\n              and\n                /* \"Project-1-AuctionPlatform/Auction.sol\":3978:3998  bids[biddersList[i]] */\n              0xffffffffffffffffffffffffffffffffffffffff\n              and\n              0xffffffffffffffffffffffffffffffffffffffff\n              and\n              dup2\n              mstore\n              0x20\n              add\n              swap1\n              dup2\n              mstore\n              0x20\n              add\n              0x0\n              keccak256\n              sload\n                /* \"Project-1-AuctionPlatform/Auction.sol\":3978:4005  bids[biddersList[i]] == bid */\n              eq\n                /* \"Project-1-AuctionPlatform/Auction.sol\":3974:4142  if (bids[biddersList[i]] == bid) {... */\n              iszero\n              tag_107\n              jumpi\n                /* \"Project-1-AuctionPlatform/Auction.sol\":4090:4101  biddersList */\n              0x6\n                /* \"Project-1-AuctionPlatform/Auction.sol\":4102:4103  i */\n              dup3\n                /* \"Project-1-AuctionPlatform/Auction.sol\":4090:4104  biddersList[i] */\n              dup2\n              sload\n              dup2\n              lt\n              iszero\n              iszero\n              tag_108\n              jumpi\n              invalid\n            tag_108:\n              swap1\n              0x0\n              mstore\n              keccak256(0x0, 0x20)\n              add\n              0x0\n              swap1\n              sload\n              swap1\n              0x100\n              exp\n              swap1\n              div\n              0xffffffffffffffffffffffffffffffffffffffff\n              and\n                /* \"Project-1-AuctionPlatform/Auction.sol\":4081:4104  winner = biddersList[i] */\n              swap3\n              pop\n                /* \"Project-1-AuctionPlatform/Auction.sol\":4122:4127  break */\n              jump(tag_103)\n                /* \"Project-1-AuctionPlatform/Auction.sol\":3974:4142  if (bids[biddersList[i]] == bid) {... */\n            tag_107:\n                /* \"Project-1-AuctionPlatform/Auction.sol\":3864:3867  i++ */\n              dup2\n              dup1\n              0x1\n              add\n              swap3\n              pop\n              pop\n                /* \"Project-1-AuctionPlatform/Auction.sol\":3820:4152  for (uint256 i = 0; i < biddersList.length; i++) {... */\n              jump(tag_102)\n            tag_103:\n                /* \"Project-1-AuctionPlatform/Auction.sol\":4187:4188  0 */\n              0x0\n                /* \"Project-1-AuctionPlatform/Auction.sol\":4169:4189  winner != address(0) */\n              0xffffffffffffffffffffffffffffffffffffffff\n              and\n                /* \"Project-1-AuctionPlatform/Auction.sol\":4169:4175  winner */\n              dup4\n                /* \"Project-1-AuctionPlatform/Auction.sol\":4169:4189  winner != address(0) */\n              0xffffffffffffffffffffffffffffffffffffffff\n              and\n              eq\n              iszero\n                /* \"Project-1-AuctionPlatform/Auction.sol\":4161:4220  require(winner != address(0), \"This bid has not been made\") */\n              iszero\n              iszero\n              tag_110\n              jumpi\n              mload(0x40)\n              0x8c379a000000000000000000000000000000000000000000000000000000000\n              dup2\n              mstore\n              0x4\n              add\n              dup1\n              dup1\n              0x20\n              add\n              dup3\n              dup2\n              sub\n              dup3\n              mstore\n              0x1a\n              dup2\n              mstore\n              0x20\n              add\n              dup1\n              0x546869732062696420686173206e6f74206265656e206d616465000000000000\n              dup2\n              mstore\n              pop\n              0x20\n              add\n              swap2\n              pop\n              pop\n              mload(0x40)\n              dup1\n              swap2\n              sub\n              swap1\n              revert\n            tag_110:\n                /* \"Project-1-AuctionPlatform/Auction.sol\":4266:4272  winner */\n              dup3\n                /* \"Project-1-AuctionPlatform/Auction.sol\":4259:4272  return winner */\n              swap4\n              pop\n                /* \"Project-1-AuctionPlatform/Auction.sol\":4991:4992  _ */\n              pop\n                /* \"Project-1-AuctionPlatform/Auction.sol\":3511:4279  function endAuctionWithSelectedBid(uint256 bid)... */\n              pop\n              pop\n              swap2\n              swap1\n              pop\n              jump\t// out\n                /* \"Project-1-AuctionPlatform/Auction.sol\":1458:1563  function max(uint256 a, uint256 b) internal pure returns (uint256) {... */\n            tag_96:\n                /* \"Project-1-AuctionPlatform/Auction.sol\":1516:1523  uint256 */\n              0x0\n                /* \"Project-1-AuctionPlatform/Auction.sol\":1547:1548  b */\n              dup2\n                /* \"Project-1-AuctionPlatform/Auction.sol\":1542:1543  a */\n              dup4\n                /* \"Project-1-AuctionPlatform/Auction.sol\":1542:1548  a >= b */\n              lt\n              iszero\n                /* \"Project-1-AuctionPlatform/Auction.sol\":1542:1556  a >= b ? a : b */\n              tag_112\n              jumpi\n                /* \"Project-1-AuctionPlatform/Auction.sol\":1555:1556  b */\n              dup2\n                /* \"Project-1-AuctionPlatform/Auction.sol\":1542:1556  a >= b ? a : b */\n              jump(tag_113)\n            tag_112:\n                /* \"Project-1-AuctionPlatform/Auction.sol\":1551:1552  a */\n              dup3\n                /* \"Project-1-AuctionPlatform/Auction.sol\":1542:1556  a >= b ? a : b */\n            tag_113:\n                /* \"Project-1-AuctionPlatform/Auction.sol\":1535:1556  return a >= b ? a : b */\n              swap1\n              pop\n                /* \"Project-1-AuctionPlatform/Auction.sol\":1458:1563  function max(uint256 a, uint256 b) internal pure returns (uint256) {... */\n              swap3\n              swap2\n              pop\n              pop\n              jump\t// out\n\n            auxdata: 0xa165627a7a72305820802e75a63754bbeb9b9ae0e3bfbe506e336665f23365df6ae7d5679ff11c9b580029\n        }\n    }\n\n    auxdata: 0xa165627a7a72305820f12b14fd8cef618a06f2efb307423e0134ba8c1612315aed12d2a15a75ad14660029\n}\n",
				"bytecode": {
					"linkReferences": {},
					"object": "6080604052600080553480156200001557600080fd5b5060405160208062004b2a83398101806040528101908080519060200190929190505050600181016001816200004c919062000054565b5050620000ab565b8154818355818111156200007e578183600052602060002091820191016200007d919062000083565b5b505050565b620000a891905b80821115620000a45760008160009055506001016200008a565b5090565b90565b614a6f80620000bb6000396000f300608060405260043610620000f7576000357c0100000000000000000000000000000000000000000000000000000000900463ffffffff16806325c0cdaa14620000fc5780632ae9285f146200012a57806360365e0c146200016e578063617fbce914620001a85780637e12a25114620001ec578063843767a1146200021a57806385774206146200025e578063919e84f514620002cf578063930e79f114620003215780639f6351201462000373578063aa7ac8ab14620003ad578063b9a2de3a1462000459578063d1fda9651462000489578063e3a57e6514620004fa578063f2f58fcf14620005ac578063fe67a54b146200061d575b600080fd5b3480156200010957600080fd5b506200011462000677565b6040518082815260200191505060405180910390f35b3480156200013757600080fd5b5062000158600480360381019080803590602001909291905050506200067d565b6040518082815260200191505060405180910390f35b3480156200017b57600080fd5b50620001a66004803603810190808035906020019092919080359060200190929190505050620009de565b005b348015620001b557600080fd5b50620001d66004803603810190808035906020019092919050505062000c73565b6040518082815260200191505060405180910390f35b348015620001f957600080fd5b506200020462000f87565b6040518082815260200191505060405180910390f35b3480156200022757600080fd5b50620002486004803603810190808035906020019092919050505062001317565b6040518082815260200191505060405180910390f35b3480156200026b57600080fd5b506200027662001586565b6040518080602001828103825283818151815260200191508051906020019060200280838360005b83811015620002bb5780820151818401526020810190506200029e565b505050509050019250505060405180910390f35b348015620002dc57600080fd5b50620002fd6004803603810190808035906020019092919050505062001896565b60405180848152602001838152602001828152602001935050505060405180910390f35b3480156200032e57600080fd5b506200034f6004803603810190808035906020019092919050505062001b23565b60405180848152602001838152602001828152602001935050505060405180910390f35b3480156200038057600080fd5b50620003ab600480360381019080803590602001909291908035906020019092919050505062001db0565b005b348015620003ba57600080fd5b50620003db60048036038101908080359060200190929190505050620022df565b6040518080602001828103825283818151815260200191508051906020019080838360005b838110156200041d57808201518184015260208101905062000400565b50505050905090810190601f1680156200044b5780820380516001836020036101000a031916815260200191505b509250505060405180910390f35b3480156200046657600080fd5b506200048760048036038101908080359060200190929190505050620025a7565b005b3480156200049657600080fd5b50620004a1620027d1565b6040518080602001828103825283818151815260200191508051906020019060200280838360005b83811015620004e6578082015181840152602081019050620004c9565b505050509050019250505060405180910390f35b3480156200050757600080fd5b50620005aa600480360381019080803590602001908201803590602001908080601f01602080910402602001604051908101604052809392919081815260200183838082843782019150505050505091929192908035906020019092919080359060200190929190803590602001909291908035906020019092919080359060200190929190803590602001909291908035906020019092919050505062002924565b005b348015620005b957600080fd5b50620005c462002e65565b6040518080602001828103825283818151815260200191508051906020019060200280838360005b8381101562000609578082015181840152602081019050620005ec565b505050509050019250505060405180910390f35b3480156200062a57600080fd5b50620006356200324f565b604051808273ffffffffffffffffffffffffffffffffffffffff1673ffffffffffffffffffffffffffffffffffffffff16815260200191505060405180910390f35b60005481565b600080600360003373ffffffffffffffffffffffffffffffffffffffff1673ffffffffffffffffffffffffffffffffffffffff16815260200190815260200160002080549050141515156200073a576040517f08c379a00000000000000000000000000000000000000000000000000000000081526004018080602001828103825260178152602001807f596f7520646f6e2774206861766520616e79204269647300000000000000000081525060200191505060405180910390fd5b816000548111158015620008285750426001828154811015156200075a57fe5b9060005260206000200160009054906101000a900473ffffffffffffffffffffffffffffffffffffffff1673ffffffffffffffffffffffffffffffffffffffff1663439f5ac26040518163ffffffff167c0100000000000000000000000000000000000000000000000000000000028152600401602060405180830381600087803b158015620007e957600080fd5b505af1158015620007fe573d6000803e3d6000fd5b505050506040513d60208110156200081557600080fd5b8101908080519060200190929190505050115b1515620008c3576040517f08c379a00000000000000000000000000000000000000000000000000000000081526004018080602001828103825260228152602001807f41756374696f6e20697320496e616374697665206f72206e6f7420707265736581526020017f6e7400000000000000000000000000000000000000000000000000000000000081525060400191505060405180910390fd5b600183815481101515620008d357fe5b9060005260206000200160009054906101000a900473ffffffffffffffffffffffffffffffffffffffff1673ffffffffffffffffffffffffffffffffffffffff166362ea82db336040518263ffffffff167c0100000000000000000000000000000000000000000000000000000000028152600401808273ffffffffffffffffffffffffffffffffffffffff1673ffffffffffffffffffffffffffffffffffffffff168152602001915050602060405180830381600087803b1580156200099957600080fd5b505af1158015620009ae573d6000803e3d6000fd5b505050506040513d6020811015620009c557600080fd5b8101908080519060200190929190505050915050919050565b81600054811115801562000acc575042600182815481101515620009fe57fe5b9060005260206000200160009054906101000a900473ffffffffffffffffffffffffffffffffffffffff1673ffffffffffffffffffffffffffffffffffffffff1663439f5ac26040518163ffffffff167c0100000000000000000000000000000000000000000000000000000000028152600401602060405180830381600087803b15801562000a8d57600080fd5b505af115801562000aa2573d6000803e3d6000fd5b505050506040513d602081101562000ab957600080fd5b8101908080519060200190929190505050115b151562000b67576040517f08c379a00000000000000000000000000000000000000000000000000000000081526004018080602001828103825260228152602001807f41756374696f6e20697320496e616374697665206f72206e6f7420707265736581526020017f6e7400000000000000000000000000000000000000000000000000000000000081525060400191505060405180910390fd5b60018381548110151562000b7757fe5b9060005260206000200160009054906101000a900473ffffffffffffffffffffffffffffffffffffffff1673ffffffffffffffffffffffffffffffffffffffff166343129de1836040518263ffffffff167c010000000000000000000000000000000000000000000000000000000002815260040180828152602001915050600060405180830381600087803b15801562000c1157600080fd5b505af115801562000c26573d6000803e3d6000fd5b50505050823373ffffffffffffffffffffffffffffffffffffffff167fb722ccec10268690bf7ef3a9603076baf9b304a59def91157d4a80c98d557aae60405160405180910390a3505050565b60008082600054811115801562000d6457504260018281548110151562000c9657fe5b9060005260206000200160009054906101000a900473ffffffffffffffffffffffffffffffffffffffff1673ffffffffffffffffffffffffffffffffffffffff1663439f5ac26040518163ffffffff167c0100000000000000000000000000000000000000000000000000000000028152600401602060405180830381600087803b15801562000d2557600080fd5b505af115801562000d3a573d6000803e3d6000fd5b505050506040513d602081101562000d5157600080fd5b8101908080519060200190929190505050115b151562000dff576040517f08c379a00000000000000000000000000000000000000000000000000000000081526004018080602001828103825260228152602001807f41756374696f6e20697320496e616374697665206f72206e6f7420707265736581526020017f6e7400000000000000000000000000000000000000000000000000000000000081525060400191505060405180910390fd5b60018481548110151562000e0f57fe5b9060005260206000200160009054906101000a900473ffffffffffffffffffffffffffffffffffffffff1673ffffffffffffffffffffffffffffffffffffffff1663dd06ba1a6040518163ffffffff167c0100000000000000000000000000000000000000000000000000000000028152600401602060405180830381600087803b15801562000e9e57600080fd5b505af115801562000eb3573d6000803e3d6000fd5b505050506040513d602081101562000eca57600080fd5b810190808051906020019092919050505091506000821415151562000f7d576040517f08c379a00000000000000000000000000000000000000000000000000000000081526004018080602001828103825260248152602001807f5468657265206172656e277420616e792062696473206f6e207468652041756381526020017f74696f6e0000000000000000000000000000000000000000000000000000000081525060400191505060405180910390fd5b8192505050919050565b600080600260003373ffffffffffffffffffffffffffffffffffffffff1673ffffffffffffffffffffffffffffffffffffffff168152602001908152602001600020541415151562001041576040517f08c379a00000000000000000000000000000000000000000000000000000000081526004018080602001828103825260208152602001807f596f7520686176656e2774206372656174656420616e792041756374696f6e7381525060200191505060405180910390fd5b6001600260003373ffffffffffffffffffffffffffffffffffffffff1673ffffffffffffffffffffffffffffffffffffffff168152602001908152602001600020548154811015156200109057fe5b9060005260206000200160009054906101000a900473ffffffffffffffffffffffffffffffffffffffff1673ffffffffffffffffffffffffffffffffffffffff1663409766e66040518163ffffffff167c0100000000000000000000000000000000000000000000000000000000028152600401602060405180830381600087803b1580156200111f57600080fd5b505af115801562001134573d6000803e3d6000fd5b505050506040513d60208110156200114b57600080fd5b81019080805190602001909291905050501515620011f7576040517f08c379a00000000000000000000000000000000000000000000000000000000081526004018080602001828103825260248152602001807f5468657265206172656e277420616e792062696473206f6e207468652041756381526020017f74696f6e0000000000000000000000000000000000000000000000000000000081525060400191505060405180910390fd5b6001600260003373ffffffffffffffffffffffffffffffffffffffff1673ffffffffffffffffffffffffffffffffffffffff168152602001908152602001600020548154811015156200124657fe5b9060005260206000200160009054906101000a900473ffffffffffffffffffffffffffffffffffffffff1673ffffffffffffffffffffffffffffffffffffffff1663dd06ba1a6040518163ffffffff167c0100000000000000000000000000000000000000000000000000000000028152600401602060405180830381600087803b158015620012d557600080fd5b505af1158015620012ea573d6000803e3d6000fd5b505050506040513d60208110156200130157600080fd5b8101908080519060200190929190505050905090565b6000816000548111158015620014075750426001828154811015156200133957fe5b9060005260206000200160009054906101000a900473ffffffffffffffffffffffffffffffffffffffff1673ffffffffffffffffffffffffffffffffffffffff1663439f5ac26040518163ffffffff167c0100000000000000000000000000000000000000000000000000000000028152600401602060405180830381600087803b158015620013c857600080fd5b505af1158015620013dd573d6000803e3d6000fd5b505050506040513d6020811015620013f457600080fd5b8101908080519060200190929190505050115b1515620014a2576040517f08c379a00000000000000000000000000000000000000000000000000000000081526004018080602001828103825260228152602001807f41756374696f6e20697320496e616374697665206f72206e6f7420707265736581526020017f6e7400000000000000000000000000000000000000000000000000000000000081525060400191505060405180910390fd5b600183815481101515620014b257fe5b9060005260206000200160009054906101000a900473ffffffffffffffffffffffffffffffffffffffff1673ffffffffffffffffffffffffffffffffffffffff1663ad9346746040518163ffffffff167c0100000000000000000000000000000000000000000000000000000000028152600401602060405180830381600087803b1580156200154157600080fd5b505af115801562001556573d6000803e3d6000fd5b505050506040513d60208110156200156d57600080fd5b8101908080519060200190929190505050915050919050565b6060600080600060606000806000955060019450600193505b60005484111515620016ab57428585815481101515620015bb57fe5b9060005260206000200160009054906101000a900473ffffffffffffffffffffffffffffffffffffffff1673ffffffffffffffffffffffffffffffffffffffff1663439f5ac26040518163ffffffff167c0100000000000000000000000000000000000000000000000000000000028152600401602060405180830381600087803b1580156200164a57600080fd5b505af11580156200165f573d6000803e3d6000fd5b505050506040513d60208110156200167657600080fd5b8101908080519060200190929190505050101562001694576200169d565b85806001019650505b83806001019450506200159f565b60008611151562001724576040517f08c379a00000000000000000000000000000000000000000000000000000000081526004018080602001828103825260208152602001807f6e6f2061756374696f6e73206172652063757272656e746c792041637469766581525060200191505060405180910390fd5b85604051908082528060200260200182016040528015620017545781602001602082028038833980820191505090505b50925060009150600190505b600054811115156200188a574285828154811015156200177c57fe5b9060005260206000200160009054906101000a900473ffffffffffffffffffffffffffffffffffffffff1673ffffffffffffffffffffffffffffffffffffffff1663439f5ac26040518163ffffffff167c0100000000000000000000000000000000000000000000000000000000028152600401602060405180830381600087803b1580156200180b57600080fd5b505af115801562001820573d6000803e3d6000fd5b505050506040513d60208110156200183757600080fd5b8101908080519060200190929190505050101562001855576200187c565b8083838151811015156200186557fe5b906020019060200201818152505081806001019250505b808060010191505062001760565b82965050505050505090565b6000806000808460005481111580156200198a575042600182815481101515620018bc57fe5b9060005260206000200160009054906101000a900473ffffffffffffffffffffffffffffffffffffffff1673ffffffffffffffffffffffffffffffffffffffff1663439f5ac26040518163ffffffff167c0100000000000000000000000000000000000000000000000000000000028152600401602060405180830381600087803b1580156200194b57600080fd5b505af115801562001960573d6000803e3d6000fd5b505050506040513d60208110156200197757600080fd5b8101908080519060200190929190505050115b151562001a25576040517f08c379a00000000000000000000000000000000000000000000000000000000081526004018080602001828103825260228152602001807f41756374696f6e20697320496e616374697665206f72206e6f7420707265736581526020017f6e7400000000000000000000000000000000000000000000000000000000000081525060400191505060405180910390fd5b60018681548110151562001a3557fe5b9060005260206000200160009054906101000a900473ffffffffffffffffffffffffffffffffffffffff1673ffffffffffffffffffffffffffffffffffffffff1663c828371e6040518163ffffffff167c0100000000000000000000000000000000000000000000000000000000028152600401602060405180830381600087803b15801562001ac457600080fd5b505af115801562001ad9573d6000803e3d6000fd5b505050506040513d602081101562001af057600080fd5b8101908080519060200190929190505050915062001b0e826200359d565b80955081965082975050505050509193909250565b60008060008084600054811115801562001c1757504260018281548110151562001b4957fe5b9060005260206000200160009054906101000a900473ffffffffffffffffffffffffffffffffffffffff1673ffffffffffffffffffffffffffffffffffffffff1663439f5ac26040518163ffffffff167c0100000000000000000000000000000000000000000000000000000000028152600401602060405180830381600087803b15801562001bd857600080fd5b505af115801562001bed573d6000803e3d6000fd5b505050506040513d602081101562001c0457600080fd5b8101908080519060200190929190505050115b151562001cb2576040517f08c379a00000000000000000000000000000000000000000000000000000000081526004018080602001828103825260228152602001807f41756374696f6e20697320496e616374697665206f72206e6f7420707265736581526020017f6e7400000000000000000000000000000000000000000000000000000000000081525060400191505060405180910390fd5b60018681548110151562001cc257fe5b9060005260206000200160009054906101000a900473ffffffffffffffffffffffffffffffffffffffff1673ffffffffffffffffffffffffffffffffffffffff1663439f5ac26040518163ffffffff167c0100000000000000000000000000000000000000000000000000000000028152600401602060405180830381600087803b15801562001d5157600080fd5b505af115801562001d66573d6000803e3d6000fd5b505050506040513d602081101562001d7d57600080fd5b8101908080519060200190929190505050915062001d9b826200359d565b80955081965082975050505050509193909250565b81600054811115801562001e9e57504260018281548110151562001dd057fe5b9060005260206000200160009054906101000a900473ffffffffffffffffffffffffffffffffffffffff1673ffffffffffffffffffffffffffffffffffffffff1663439f5ac26040518163ffffffff167c0100000000000000000000000000000000000000000000000000000000028152600401602060405180830381600087803b15801562001e5f57600080fd5b505af115801562001e74573d6000803e3d6000fd5b505050506040513d602081101562001e8b57600080fd5b8101908080519060200190929190505050115b151562001f39576040517f08c379a00000000000000000000000000000000000000000000000000000000081526004018080602001828103825260228152602001807f41756374696f6e20697320496e616374697665206f72206e6f7420707265736581526020017f6e7400000000000000000000000000000000000000000000000000000000000081525060400191505060405180910390fd5b8160018481548110151562001f4a57fe5b9060005260206000200160009054906101000a900473ffffffffffffffffffffffffffffffffffffffff1673ffffffffffffffffffffffffffffffffffffffff1663ad9346746040518163ffffffff167c0100000000000000000000000000000000000000000000000000000000028152600401602060405180830381600087803b15801562001fd957600080fd5b505af115801562001fee573d6000803e3d6000fd5b505050506040513d60208110156200200557600080fd5b8101908080519060200190929190505050101515620020b2576040517f08c379a000000000000000000000000000000000000000000000000000000000815260040180806020018281038252603a8152602001807f4269642076616c75652063616e6e6f74206265206c657373207468616e206d6981526020017f6e696e756d206269642076616c7565206f662061756374696f6e00000000000081525060400191505060405180910390fd5b82600260003373ffffffffffffffffffffffffffffffffffffffff1673ffffffffffffffffffffffffffffffffffffffff16815260200190815260200160002054141515156200216a576040517f08c379a00000000000000000000000000000000000000000000000000000000081526004018080602001828103825260188152602001807f43616e277420626964206f6e206f776e2041756374696f6e000000000000000081525060200191505060405180910390fd5b6001838154811015156200217a57fe5b9060005260206000200160009054906101000a900473ffffffffffffffffffffffffffffffffffffffff1673ffffffffffffffffffffffffffffffffffffffff1663659dd2b4836040518263ffffffff167c010000000000000000000000000000000000000000000000000000000002815260040180828152602001915050600060405180830381600087803b1580156200221457600080fd5b505af115801562002229573d6000803e3d6000fd5b50505050600360003373ffffffffffffffffffffffffffffffffffffffff1673ffffffffffffffffffffffffffffffffffffffff168152602001908152602001600020839080600181540180825580915050906001820390600052602060002001600090919290919091505550823373ffffffffffffffffffffffffffffffffffffffff167f248176d18d0b2664c1964de940d9d88115d4d632e9047ec131dc7cfd5b41535e60405160405180910390a3505050565b6060816000548111158015620023cf5750426001828154811015156200230157fe5b9060005260206000200160009054906101000a900473ffffffffffffffffffffffffffffffffffffffff1673ffffffffffffffffffffffffffffffffffffffff1663439f5ac26040518163ffffffff167c0100000000000000000000000000000000000000000000000000000000028152600401602060405180830381600087803b1580156200239057600080fd5b505af1158015620023a5573d6000803e3d6000fd5b505050506040513d6020811015620023bc57600080fd5b8101908080519060200190929190505050115b15156200246a576040517f08c379a00000000000000000000000000000000000000000000000000000000081526004018080602001828103825260228152602001807f41756374696f6e20697320496e616374697665206f72206e6f7420707265736581526020017f6e7400000000000000000000000000000000000000000000000000000000000081525060400191505060405180910390fd5b6001838154811015156200247a57fe5b9060005260206000200160009054906101000a900473ffffffffffffffffffffffffffffffffffffffff1673ffffffffffffffffffffffffffffffffffffffff16631a0925416040518163ffffffff167c0100000000000000000000000000000000000000000000000000000000028152600401600060405180830381600087803b1580156200250957600080fd5b505af11580156200251e573d6000803e3d6000fd5b505050506040513d6000823e3d601f19601f8201168201806040525060208110156200254957600080fd5b8101908080516401000000008111156200256257600080fd5b828101905060208101848111156200257957600080fd5b81518560018202830111640100000000821117156200259757600080fd5b5050929190505050915050919050565b600080600260003373ffffffffffffffffffffffffffffffffffffffff1673ffffffffffffffffffffffffffffffffffffffff168152602001908152602001600020541415151562002661576040517f08c379a00000000000000000000000000000000000000000000000000000000081526004018080602001828103825260208152602001807f596f7520686176656e2774206372656174656420616e792041756374696f6e7381525060200191505060405180910390fd5b6001600260003373ffffffffffffffffffffffffffffffffffffffff1673ffffffffffffffffffffffffffffffffffffffff16815260200190815260200160002054815481101515620026b057fe5b9060005260206000200160009054906101000a900473ffffffffffffffffffffffffffffffffffffffff1673ffffffffffffffffffffffffffffffffffffffff1663dee37a8e836040518263ffffffff167c010000000000000000000000000000000000000000000000000000000002815260040180828152602001915050602060405180830381600087803b1580156200274a57600080fd5b505af11580156200275f573d6000803e3d6000fd5b505050506040513d60208110156200277657600080fd5b81019080805190602001909291905050509050818173ffffffffffffffffffffffffffffffffffffffff167f6e0e2174dbf7b77c08b6f9a2799b9feda84a6d54a5644864582040100a47d4c560405160405180910390a35050565b60606000600360003373ffffffffffffffffffffffffffffffffffffffff1673ffffffffffffffffffffffffffffffffffffffff16815260200190815260200160002080549050141515156200288f576040517f08c379a00000000000000000000000000000000000000000000000000000000081526004018080602001828103825260178152602001807f596f7520646f6e2774206861766520616e79204269647300000000000000000081525060200191505060405180910390fd5b600360003373ffffffffffffffffffffffffffffffffffffffff1673ffffffffffffffffffffffffffffffffffffffff1681526020019081526020016000208054806020026020016040519081016040528092919081815260200182805480156200291a57602002820191906000526020600020905b81548152602001906001019080831162002905575b5050505050905090565b600080600080600260003373ffffffffffffffffffffffffffffffffffffffff1673ffffffffffffffffffffffffffffffffffffffff1681526020019081526020016000205414151562002a06576040517f08c379a00000000000000000000000000000000000000000000000000000000081526004018080602001828103825260238152602001807f596f75206861766520616c7265616479206372656174656420616e204175637481526020017f696f6e000000000000000000000000000000000000000000000000000000000081525060400191505060405180910390fd5b600180805490500360005410151562002aad576040517f08c379a00000000000000000000000000000000000000000000000000000000081526004018080602001828103825260348152602001807f41756374696f6e73204c696d697420726561636865642063616e27742063726581526020017f61746520616e796d6f72652041756374696f6e7300000000000000000000000081525060400191505060405180910390fd5b62002abf8a8a8a6000806000620035cf565b151562002b34576040517f08c379a00000000000000000000000000000000000000000000000000000000081526004018080602001828103825260168152602001807f456e7465722056616c696420537461727420446174650000000000000000000081525060200191505060405180910390fd5b62002b468787876000806000620035cf565b151562002bbb576040517f08c379a00000000000000000000000000000000000000000000000000000000081526004018080602001828103825260148152602001807f456e7465722056616c696420456e64204461746500000000000000000000000081525060200191505060405180910390fd5b62002bc88a8a8a62003618565b925062002bd787878762003618565b9150824210801562002be857508142105b801562002bf457508183105b151562002c8f576040517f08c379a000000000000000000000000000000000000000000000000000000000815260040180806020018281038252602e8152602001807f20506c6561736520656e74657220612076616c696420696e74657276616c206681526020017f6f72207468652041756374696f6e00000000000000000000000000000000000081525060400191505060405180910390fd5b6001600054016000819055508a83838662002ca962003927565b8080602001858152602001848152602001838152602001828103825286818151815260200191508051906020019080838360005b8381101562002cfa57808201518184015260208101905062002cdd565b50505050905090810190601f16801562002d285780820380516001836020036101000a031916815260200191505b5095505050505050604051809103906000f08015801562002d4d573d6000803e3d6000fd5b50905080600160005481548110151562002d6357fe5b9060005260206000200160006101000a81548173ffffffffffffffffffffffffffffffffffffffff021916908373ffffffffffffffffffffffffffffffffffffffff160217905550600054600260003373ffffffffffffffffffffffffffffffffffffffff1673ffffffffffffffffffffffffffffffffffffffff16815260200190815260200160002081905550426000547f737a59893603ef25305aef11ac201c15bb5fa4f4195223c5dd6910985778150433604051808273ffffffffffffffffffffffffffffffffffffffff1673ffffffffffffffffffffffffffffffffffffffff16815260200191505060405180910390a35050505050505050505050565b60606000600260003373ffffffffffffffffffffffffffffffffffffffff1673ffffffffffffffffffffffffffffffffffffffff168152602001908152602001600020541415151562002f20576040517f08c379a00000000000000000000000000000000000000000000000000000000081526004018080602001828103825260208152602001807f596f7520686176656e2774206372656174656420616e792041756374696f6e7381525060200191505060405180910390fd5b6001600260003373ffffffffffffffffffffffffffffffffffffffff1673ffffffffffffffffffffffffffffffffffffffff1681526020019081526020016000205481548110151562002f6f57fe5b9060005260206000200160009054906101000a900473ffffffffffffffffffffffffffffffffffffffff1673ffffffffffffffffffffffffffffffffffffffff1663409766e66040518163ffffffff167c0100000000000000000000000000000000000000000000000000000000028152600401602060405180830381600087803b15801562002ffe57600080fd5b505af115801562003013573d6000803e3d6000fd5b505050506040513d60208110156200302a57600080fd5b81019080805190602001909291905050501515620030d6576040517f08c379a00000000000000000000000000000000000000000000000000000000081526004018080602001828103825260248152602001807f5468657265206172656e277420616e792062696473206f6e207468652041756381526020017f74696f6e0000000000000000000000000000000000000000000000000000000081525060400191505060405180910390fd5b6001600260003373ffffffffffffffffffffffffffffffffffffffff1673ffffffffffffffffffffffffffffffffffffffff168152602001908152602001600020548154811015156200312557fe5b9060005260206000200160009054906101000a900473ffffffffffffffffffffffffffffffffffffffff1673ffffffffffffffffffffffffffffffffffffffff1663679dbf0c6040518163ffffffff167c0100000000000000000000000000000000000000000000000000000000028152600401600060405180830381600087803b158015620031b457600080fd5b505af1158015620031c9573d6000803e3d6000fd5b505050506040513d6000823e3d601f19601f820116820180604052506020811015620031f457600080fd5b8101908080516401000000008111156200320d57600080fd5b828101905060208101848111156200322457600080fd5b81518560208202830111640100000000821117156200324257600080fd5b5050929190505050905090565b600080600080600260003373ffffffffffffffffffffffffffffffffffffffff1673ffffffffffffffffffffffffffffffffffffffff16815260200190815260200160002054141515156200330c576040517f08c379a00000000000000000000000000000000000000000000000000000000081526004018080602001828103825260208152602001807f596f7520686176656e2774206372656174656420616e792041756374696f6e7381525060200191505060405180910390fd5b6001600260003373ffffffffffffffffffffffffffffffffffffffff1673ffffffffffffffffffffffffffffffffffffffff168152602001908152602001600020548154811015156200335b57fe5b9060005260206000200160009054906101000a900473ffffffffffffffffffffffffffffffffffffffff1673ffffffffffffffffffffffffffffffffffffffff1663dd06ba1a6040518163ffffffff167c0100000000000000000000000000000000000000000000000000000000028152600401602060405180830381600087803b158015620033ea57600080fd5b505af1158015620033ff573d6000803e3d6000fd5b505050506040513d60208110156200341657600080fd5b810190808051906020019092919050505091506001600260003373ffffffffffffffffffffffffffffffffffffffff1673ffffffffffffffffffffffffffffffffffffffff168152602001908152602001600020548154811015156200347857fe5b9060005260206000200160009054906101000a900473ffffffffffffffffffffffffffffffffffffffff1673ffffffffffffffffffffffffffffffffffffffff1663dee37a8e836040518263ffffffff167c010000000000000000000000000000000000000000000000000000000002815260040180828152602001915050602060405180830381600087803b1580156200351257600080fd5b505af115801562003527573d6000803e3d6000fd5b505050506040513d60208110156200353e57600080fd5b81019080805190602001909291905050509050818173ffffffffffffffffffffffffffffffffffffffff167f6e0e2174dbf7b77c08b6f9a2799b9feda84a6d54a5644864582040100a47d4c560405160405180910390a3809250505090565b6000806000620035bc6201518085811515620035b557fe5b0462003635565b8093508194508295505050509193909250565b6000620035de8787876200371c565b156200360e57601884108015620035f55750603c83105b8015620036025750603c82105b156200360d57600190505b5b9695505050505050565b6000620151806200362b85858562003779565b0290509392505050565b600080600080600080600080600089955062253d8c62010bd9870101945062023ab1856004028115156200366557fe5b059350600460038562023ab102018115156200367d57fe5b058503945062164b0960018601610fa0028115156200369857fe5b059250601f6004846105b502811515620036ae57fe5b05860301945061098f85605002811515620036c557fe5b05915060508261098f02811515620036d957fe5b0585039050600b82811515620036eb57fe5b05945084600c0260028301039150848360318603606402010192508298508197508096505050505050509193909250565b6000806107b28510158015620037325750600084115b8015620037405750600c8411155b1562003771576200375285856200383e565b9050600083118015620037655750808311155b156200377057600191505b5b509392505050565b60008060008060006107b288101515156200379357600080fd5b87935086925085915062253d8c60046064600c600e8703811515620037b457fe5b05611324880101811515620037c557fe5b05600302811515620037d357fe5b05600c80600c600e8803811515620037e757fe5b0502600287030361016f02811515620037fc57fe5b056004600c600e88038115156200380f57fe5b056112c08901016105b5028115156200382457fe5b05617d4b8603010103039050809450505050509392505050565b60006001821480620038505750600382145b806200385c5750600582145b80620038685750600782145b80620038745750600882145b80620038805750600a82145b806200388c5750600c82145b156200389c57601f9050620038d3565b600282141515620038b157601e9050620038d2565b620038bc83620038d9565b620038c957601c620038cc565b601d5b60ff1690505b5b92915050565b600080600483811515620038e957fe5b0614801562003906575060006064838115156200390257fe5b0614155b806200392057506000610190838115156200391d57fe5b06145b9050919050565b60405161110b8062003939833901905600608060405234801561001057600080fd5b5060405161110b38038061110b83398101806040528101908080518201929190602001805190602001909291908051906020019092919080519060200190929190505050836000908051906020019061006a929190610089565b508260018190555081600281905550806003819055505050505061012e565b828054600181600116156101000203166002900490600052602060002090601f016020900481019282601f106100ca57805160ff19168380011785556100f8565b828001600101855582156100f8579182015b828111156100f75782518255916020019190600101906100dc565b5b5090506101059190610109565b5090565b61012b91905b8082111561012757600081600090555060010161010f565b5090565b90565b610fce8061013d6000396000f3006080604052600436106100af576000357c0100000000000000000000000000000000000000000000000000000000900463ffffffff1680631a092541146100b4578063409766e61461014457806343129de114610173578063439f5ac2146101a057806362ea82db146101cb578063659dd2b414610222578063679dbf0c1461024f578063ad934674146102bb578063c828371e146102e6578063dd06ba1a14610311578063dee37a8e1461033c575b600080fd5b3480156100c057600080fd5b506100c96103a9565b6040518080602001828103825283818151815260200191508051906020019080838360005b838110156101095780820151818401526020810190506100ee565b50505050905090810190601f1680156101365780820380516001836020036101000a031916815260200191505b509250505060405180910390f35b34801561015057600080fd5b5061015961044b565b604051808215151515815260200191505060405180910390f35b34801561017f57600080fd5b5061019e60048036038101908080359060200190929190505050610462565b005b3480156101ac57600080fd5b506101b56106c7565b6040518082815260200191505060405180910390f35b3480156101d757600080fd5b5061020c600480360381019080803573ffffffffffffffffffffffffffffffffffffffff1690602001909291905050506106d1565b6040518082815260200191505060405180910390f35b34801561022e57600080fd5b5061024d600480360381019080803590602001909291905050506106e9565b005b34801561025b57600080fd5b506102646109a8565b6040518080602001828103825283818151815260200191508051906020019060200280838360005b838110156102a757808201518184015260208101905061028c565b505050509050019250505060405180910390f35b3480156102c757600080fd5b506102d0610b15565b6040518082815260200191505060405180910390f35b3480156102f257600080fd5b506102fb610b98565b6040518082815260200191505060405180910390f35b34801561031d57600080fd5b50610326610ba2565b6040518082815260200191505060405180910390f35b34801561034857600080fd5b5061036760048036038101908080359060200190929190505050610ccb565b604051808273ffffffffffffffffffffffffffffffffffffffff1673ffffffffffffffffffffffffffffffffffffffff16815260200191505060405180910390f35b606060008054600181600116156101000203166002900480601f0160208091040260200160405190810160405280929190818152602001828054600181600116156101000203166002900480156104415780601f1061041657610100808354040283529160200191610441565b820191906000526020600020905b81548152906001019060200180831161042457829003601f168201915b5050505050905090565b6000600460009054906101000a900460ff16905090565b8060035481111515610528576040517f08c379a00000000000000000000000000000000000000000000000000000000081526004018080602001828103825260458152602001807f506c6561736520656e7465722061206269642067726561746572207468616e2081526020017f6d696e696d756d20726571756972656420626964206f6620676976656e20617581526020017f6374696f6e00000000000000000000000000000000000000000000000000000081525060600191505060405180910390fd5b600254421015156105a1576040517f08c379a00000000000000000000000000000000000000000000000000000000081526004018080602001828103825260148152602001807f41756374696f6e20697320496e6163746976652000000000000000000000000081525060200191505060405180910390fd5b6000600560003273ffffffffffffffffffffffffffffffffffffffff1673ffffffffffffffffffffffffffffffffffffffff168152602001908152602001600020541415151561067f576040517f08c379a000000000000000000000000000000000000000000000000000000000815260040180806020018281038252603b8152602001807f596f7520686176656e2774206372656174656420616e79206269642c2075736581526020017f2063726561746542696420666f72206372656174696e67206f6e65000000000081525060400191505060405180910390fd5b81600560003273ffffffffffffffffffffffffffffffffffffffff1673ffffffffffffffffffffffffffffffffffffffff168152602001908152602001600020819055505050565b6000600254905090565b60056020528060005260406000206000915090505481565b80600354811115156107af576040517f08c379a00000000000000000000000000000000000000000000000000000000081526004018080602001828103825260458152602001807f506c6561736520656e7465722061206269642067726561746572207468616e2081526020017f6d696e696d756d20726571756972656420626964206f6620676976656e20617581526020017f6374696f6e00000000000000000000000000000000000000000000000000000081525060600191505060405180910390fd5b60025442101515610828576040517f08c379a00000000000000000000000000000000000000000000000000000000081526004018080602001828103825260148152602001807f41756374696f6e20697320496e6163746976652000000000000000000000000081525060200191505060405180910390fd5b6000600560003273ffffffffffffffffffffffffffffffffffffffff1673ffffffffffffffffffffffffffffffffffffffff168152602001908152602001600020541415156108df576040517f08c379a000000000000000000000000000000000000000000000000000000000815260040180806020018281038252601e8152602001807f596f75206861766520616c72656164792063726561746564206120626964000081525060200191505060405180910390fd5b6001600460006101000a81548160ff02191690831515021790555081600560003273ffffffffffffffffffffffffffffffffffffffff1673ffffffffffffffffffffffffffffffffffffffff1681526020019081526020016000208190555060063290806001815401808255809150509060018203906000526020600020016000909192909190916101000a81548173ffffffffffffffffffffffffffffffffffffffff021916908373ffffffffffffffffffffffffffffffffffffffff160217905550505050565b606080600060025442101515610a26576040517f08c379a00000000000000000000000000000000000000000000000000000000081526004018080602001828103825260148152602001807f41756374696f6e20697320496e6163746976652000000000000000000000000081525060200191505060405180910390fd5b600680549050604051908082528060200260200182016040528015610a5a5781602001602082028038833980820191505090505b5091505b600680549050811015610b0d5760056000600683815481101515610a7e57fe5b9060005260206000200160009054906101000a900473ffffffffffffffffffffffffffffffffffffffff1673ffffffffffffffffffffffffffffffffffffffff1673ffffffffffffffffffffffffffffffffffffffff168152602001908152602001600020548282815181101515610af257fe5b90602001906020020181815250508080600101915050610a5e565b819250505090565b600060025442101515610b90576040517f08c379a00000000000000000000000000000000000000000000000000000000081526004018080602001828103825260148152602001807f41756374696f6e20697320496e6163746976652000000000000000000000000081525060200191505060405180910390fd5b600354905090565b6000600154905090565b600080600060025442101515610c20576040517f08c379a00000000000000000000000000000000000000000000000000000000081526004018080602001828103825260148152602001807f41756374696f6e20697320496e6163746976652000000000000000000000000081525060200191505060405180910390fd5b600091505b600680549050811015610cc357610cb460056000600684815481101515610c4857fe5b9060005260206000200160009054906101000a900473ffffffffffffffffffffffffffffffffffffffff1673ffffffffffffffffffffffffffffffffffffffff1673ffffffffffffffffffffffffffffffffffffffff1681526020019081526020016000205483610f88565b91508080600101915050610c25565b819250505090565b600080600060025442101515610d49576040517f08c379a00000000000000000000000000000000000000000000000000000000081526004018080602001828103825260148152602001807f41756374696f6e20697320496e6163746976652000000000000000000000000081525060200191505060405180910390fd5b60006006805490509050600081111515610df1576040517f08c379a00000000000000000000000000000000000000000000000000000000081526004018080602001828103825260278152602001807f43616e277420656e64206173206e6f20626964732068617665206265656e206d81526020017f616465207965740000000000000000000000000000000000000000000000000081525060400191505060405180910390fd5b42600281905550600091505b600680549050821015610ed8578460056000600685815481101515610e1e57fe5b9060005260206000200160009054906101000a900473ffffffffffffffffffffffffffffffffffffffff1673ffffffffffffffffffffffffffffffffffffffff1673ffffffffffffffffffffffffffffffffffffffff168152602001908152602001600020541415610ecb57600682815481101515610e9957fe5b9060005260206000200160009054906101000a900473ffffffffffffffffffffffffffffffffffffffff169250610ed8565b8180600101925050610dfd565b600073ffffffffffffffffffffffffffffffffffffffff168373ffffffffffffffffffffffffffffffffffffffff1614151515610f7d576040517f08c379a000000000000000000000000000000000000000000000000000000000815260040180806020018281038252601a8152602001807f546869732062696420686173206e6f74206265656e206d61646500000000000081525060200191505060405180910390fd5b829350505050919050565b600081831015610f985781610f9a565b825b9050929150505600a165627a7a72305820802e75a63754bbeb9b9ae0e3bfbe506e336665f23365df6ae7d5679ff11c9b580029a165627a7a72305820f12b14fd8cef618a06f2efb307423e0134ba8c1612315aed12d2a15a75ad14660029",
					"opcodes": "PUSH1 0x80 PUSH1 0x40 MSTORE PUSH1 0x0 DUP1 SSTORE CALLVALUE DUP1 ISZERO PUSH3 0x15 JUMPI PUSH1 0x0 DUP1 REVERT JUMPDEST POP PUSH1 0x40 MLOAD PUSH1 0x20 DUP1 PUSH3 0x4B2A DUP4 CODECOPY DUP2 ADD DUP1 PUSH1 0x40 MSTORE DUP2 ADD SWAP1 DUP1 DUP1 MLOAD SWAP1 PUSH1 0x20 ADD SWAP1 SWAP3 SWAP2 SWAP1 POP POP POP PUSH1 0x1 DUP2 ADD PUSH1 0x1 DUP2 PUSH3 0x4C SWAP2 SWAP1 PUSH3 0x54 JUMP JUMPDEST POP POP PUSH3 0xAB JUMP JUMPDEST DUP2 SLOAD DUP2 DUP4 SSTORE DUP2 DUP2 GT ISZERO PUSH3 0x7E JUMPI DUP2 DUP4 PUSH1 0x0 MSTORE PUSH1 0x20 PUSH1 0x0 KECCAK256 SWAP2 DUP3 ADD SWAP2 ADD PUSH3 0x7D SWAP2 SWAP1 PUSH3 0x83 JUMP JUMPDEST JUMPDEST POP POP POP JUMP JUMPDEST PUSH3 0xA8 SWAP2 SWAP1 JUMPDEST DUP1 DUP3 GT ISZERO PUSH3 0xA4 JUMPI PUSH1 0x0 DUP2 PUSH1 0x0 SWAP1 SSTORE POP PUSH1 0x1 ADD PUSH3 0x8A JUMP JUMPDEST POP SWAP1 JUMP JUMPDEST SWAP1 JUMP JUMPDEST PUSH2 0x4A6F DUP1 PUSH3 0xBB PUSH1 0x0 CODECOPY PUSH1 0x0 RETURN STOP PUSH1 0x80 PUSH1 0x40 MSTORE PUSH1 0x4 CALLDATASIZE LT PUSH3 0xF7 JUMPI PUSH1 0x0 CALLDATALOAD PUSH29 0x100000000000000000000000000000000000000000000000000000000 SWAP1 DIV PUSH4 0xFFFFFFFF AND DUP1 PUSH4 0x25C0CDAA EQ PUSH3 0xFC JUMPI DUP1 PUSH4 0x2AE9285F EQ PUSH3 0x12A JUMPI DUP1 PUSH4 0x60365E0C EQ PUSH3 0x16E JUMPI DUP1 PUSH4 0x617FBCE9 EQ PUSH3 0x1A8 JUMPI DUP1 PUSH4 0x7E12A251 EQ PUSH3 0x1EC JUMPI DUP1 PUSH4 0x843767A1 EQ PUSH3 0x21A JUMPI DUP1 PUSH4 0x85774206 EQ PUSH3 0x25E JUMPI DUP1 PUSH4 0x919E84F5 EQ PUSH3 0x2CF JUMPI DUP1 PUSH4 0x930E79F1 EQ PUSH3 0x321 JUMPI DUP1 PUSH4 0x9F635120 EQ PUSH3 0x373 JUMPI DUP1 PUSH4 0xAA7AC8AB EQ PUSH3 0x3AD JUMPI DUP1 PUSH4 0xB9A2DE3A EQ PUSH3 0x459 JUMPI DUP1 PUSH4 0xD1FDA965 EQ PUSH3 0x489 JUMPI DUP1 PUSH4 0xE3A57E65 EQ PUSH3 0x4FA JUMPI DUP1 PUSH4 0xF2F58FCF EQ PUSH3 0x5AC JUMPI DUP1 PUSH4 0xFE67A54B EQ PUSH3 0x61D JUMPI JUMPDEST PUSH1 0x0 DUP1 REVERT JUMPDEST CALLVALUE DUP1 ISZERO PUSH3 0x109 JUMPI PUSH1 0x0 DUP1 REVERT JUMPDEST POP PUSH3 0x114 PUSH3 0x677 JUMP JUMPDEST PUSH1 0x40 MLOAD DUP1 DUP3 DUP2 MSTORE PUSH1 0x20 ADD SWAP2 POP POP PUSH1 0x40 MLOAD DUP1 SWAP2 SUB SWAP1 RETURN JUMPDEST CALLVALUE DUP1 ISZERO PUSH3 0x137 JUMPI PUSH1 0x0 DUP1 REVERT JUMPDEST POP PUSH3 0x158 PUSH1 0x4 DUP1 CALLDATASIZE SUB DUP2 ADD SWAP1 DUP1 DUP1 CALLDATALOAD SWAP1 PUSH1 0x20 ADD SWAP1 SWAP3 SWAP2 SWAP1 POP POP POP PUSH3 0x67D JUMP JUMPDEST PUSH1 0x40 MLOAD DUP1 DUP3 DUP2 MSTORE PUSH1 0x20 ADD SWAP2 POP POP PUSH1 0x40 MLOAD DUP1 SWAP2 SUB SWAP1 RETURN JUMPDEST CALLVALUE DUP1 ISZERO PUSH3 0x17B JUMPI PUSH1 0x0 DUP1 REVERT JUMPDEST POP PUSH3 0x1A6 PUSH1 0x4 DUP1 CALLDATASIZE SUB DUP2 ADD SWAP1 DUP1 DUP1 CALLDATALOAD SWAP1 PUSH1 0x20 ADD SWAP1 SWAP3 SWAP2 SWAP1 DUP1 CALLDATALOAD SWAP1 PUSH1 0x20 ADD SWAP1 SWAP3 SWAP2 SWAP1 POP POP POP PUSH3 0x9DE JUMP JUMPDEST STOP JUMPDEST CALLVALUE DUP1 ISZERO PUSH3 0x1B5 JUMPI PUSH1 0x0 DUP1 REVERT JUMPDEST POP PUSH3 0x1D6 PUSH1 0x4 DUP1 CALLDATASIZE SUB DUP2 ADD SWAP1 DUP1 DUP1 CALLDATALOAD SWAP1 PUSH1 0x20 ADD SWAP1 SWAP3 SWAP2 SWAP1 POP POP POP PUSH3 0xC73 JUMP JUMPDEST PUSH1 0x40 MLOAD DUP1 DUP3 DUP2 MSTORE PUSH1 0x20 ADD SWAP2 POP POP PUSH1 0x40 MLOAD DUP1 SWAP2 SUB SWAP1 RETURN JUMPDEST CALLVALUE DUP1 ISZERO PUSH3 0x1F9 JUMPI PUSH1 0x0 DUP1 REVERT JUMPDEST POP PUSH3 0x204 PUSH3 0xF87 JUMP JUMPDEST PUSH1 0x40 MLOAD DUP1 DUP3 DUP2 MSTORE PUSH1 0x20 ADD SWAP2 POP POP PUSH1 0x40 MLOAD DUP1 SWAP2 SUB SWAP1 RETURN JUMPDEST CALLVALUE DUP1 ISZERO PUSH3 0x227 JUMPI PUSH1 0x0 DUP1 REVERT JUMPDEST POP PUSH3 0x248 PUSH1 0x4 DUP1 CALLDATASIZE SUB DUP2 ADD SWAP1 DUP1 DUP1 CALLDATALOAD SWAP1 PUSH1 0x20 ADD SWAP1 SWAP3 SWAP2 SWAP1 POP POP POP PUSH3 0x1317 JUMP JUMPDEST PUSH1 0x40 MLOAD DUP1 DUP3 DUP2 MSTORE PUSH1 0x20 ADD SWAP2 POP POP PUSH1 0x40 MLOAD DUP1 SWAP2 SUB SWAP1 RETURN JUMPDEST CALLVALUE DUP1 ISZERO PUSH3 0x26B JUMPI PUSH1 0x0 DUP1 REVERT JUMPDEST POP PUSH3 0x276 PUSH3 0x1586 JUMP JUMPDEST PUSH1 0x40 MLOAD DUP1 DUP1 PUSH1 0x20 ADD DUP3 DUP2 SUB DUP3 MSTORE DUP4 DUP2 DUP2 MLOAD DUP2 MSTORE PUSH1 0x20 ADD SWAP2 POP DUP1 MLOAD SWAP1 PUSH1 0x20 ADD SWAP1 PUSH1 0x20 MUL DUP1 DUP4 DUP4 PUSH1 0x0 JUMPDEST DUP4 DUP2 LT ISZERO PUSH3 0x2BB JUMPI DUP1 DUP3 ADD MLOAD DUP2 DUP5 ADD MSTORE PUSH1 0x20 DUP2 ADD SWAP1 POP PUSH3 0x29E JUMP JUMPDEST POP POP POP POP SWAP1 POP ADD SWAP3 POP POP POP PUSH1 0x40 MLOAD DUP1 SWAP2 SUB SWAP1 RETURN JUMPDEST CALLVALUE DUP1 ISZERO PUSH3 0x2DC JUMPI PUSH1 0x0 DUP1 REVERT JUMPDEST POP PUSH3 0x2FD PUSH1 0x4 DUP1 CALLDATASIZE SUB DUP2 ADD SWAP1 DUP1 DUP1 CALLDATALOAD SWAP1 PUSH1 0x20 ADD SWAP1 SWAP3 SWAP2 SWAP1 POP POP POP PUSH3 0x1896 JUMP JUMPDEST PUSH1 0x40 MLOAD DUP1 DUP5 DUP2 MSTORE PUSH1 0x20 ADD DUP4 DUP2 MSTORE PUSH1 0x20 ADD DUP3 DUP2 MSTORE PUSH1 0x20 ADD SWAP4 POP POP POP POP PUSH1 0x40 MLOAD DUP1 SWAP2 SUB SWAP1 RETURN JUMPDEST CALLVALUE DUP1 ISZERO PUSH3 0x32E JUMPI PUSH1 0x0 DUP1 REVERT JUMPDEST POP PUSH3 0x34F PUSH1 0x4 DUP1 CALLDATASIZE SUB DUP2 ADD SWAP1 DUP1 DUP1 CALLDATALOAD SWAP1 PUSH1 0x20 ADD SWAP1 SWAP3 SWAP2 SWAP1 POP POP POP PUSH3 0x1B23 JUMP JUMPDEST PUSH1 0x40 MLOAD DUP1 DUP5 DUP2 MSTORE PUSH1 0x20 ADD DUP4 DUP2 MSTORE PUSH1 0x20 ADD DUP3 DUP2 MSTORE PUSH1 0x20 ADD SWAP4 POP POP POP POP PUSH1 0x40 MLOAD DUP1 SWAP2 SUB SWAP1 RETURN JUMPDEST CALLVALUE DUP1 ISZERO PUSH3 0x380 JUMPI PUSH1 0x0 DUP1 REVERT JUMPDEST POP PUSH3 0x3AB PUSH1 0x4 DUP1 CALLDATASIZE SUB DUP2 ADD SWAP1 DUP1 DUP1 CALLDATALOAD SWAP1 PUSH1 0x20 ADD SWAP1 SWAP3 SWAP2 SWAP1 DUP1 CALLDATALOAD SWAP1 PUSH1 0x20 ADD SWAP1 SWAP3 SWAP2 SWAP1 POP POP POP PUSH3 0x1DB0 JUMP JUMPDEST STOP JUMPDEST CALLVALUE DUP1 ISZERO PUSH3 0x3BA JUMPI PUSH1 0x0 DUP1 REVERT JUMPDEST POP PUSH3 0x3DB PUSH1 0x4 DUP1 CALLDATASIZE SUB DUP2 ADD SWAP1 DUP1 DUP1 CALLDATALOAD SWAP1 PUSH1 0x20 ADD SWAP1 SWAP3 SWAP2 SWAP1 POP POP POP PUSH3 0x22DF JUMP JUMPDEST PUSH1 0x40 MLOAD DUP1 DUP1 PUSH1 0x20 ADD DUP3 DUP2 SUB DUP3 MSTORE DUP4 DUP2 DUP2 MLOAD DUP2 MSTORE PUSH1 0x20 ADD SWAP2 POP DUP1 MLOAD SWAP1 PUSH1 0x20 ADD SWAP1 DUP1 DUP4 DUP4 PUSH1 0x0 JUMPDEST DUP4 DUP2 LT ISZERO PUSH3 0x41D JUMPI DUP1 DUP3 ADD MLOAD DUP2 DUP5 ADD MSTORE PUSH1 0x20 DUP2 ADD SWAP1 POP PUSH3 0x400 JUMP JUMPDEST POP POP POP POP SWAP1 POP SWAP1 DUP2 ADD SWAP1 PUSH1 0x1F AND DUP1 ISZERO PUSH3 0x44B JUMPI DUP1 DUP3 SUB DUP1 MLOAD PUSH1 0x1 DUP4 PUSH1 0x20 SUB PUSH2 0x100 EXP SUB NOT AND DUP2 MSTORE PUSH1 0x20 ADD SWAP2 POP JUMPDEST POP SWAP3 POP POP POP PUSH1 0x40 MLOAD DUP1 SWAP2 SUB SWAP1 RETURN JUMPDEST CALLVALUE DUP1 ISZERO PUSH3 0x466 JUMPI PUSH1 0x0 DUP1 REVERT JUMPDEST POP PUSH3 0x487 PUSH1 0x4 DUP1 CALLDATASIZE SUB DUP2 ADD SWAP1 DUP1 DUP1 CALLDATALOAD SWAP1 PUSH1 0x20 ADD SWAP1 SWAP3 SWAP2 SWAP1 POP POP POP PUSH3 0x25A7 JUMP JUMPDEST STOP JUMPDEST CALLVALUE DUP1 ISZERO PUSH3 0x496 JUMPI PUSH1 0x0 DUP1 REVERT JUMPDEST POP PUSH3 0x4A1 PUSH3 0x27D1 JUMP JUMPDEST PUSH1 0x40 MLOAD DUP1 DUP1 PUSH1 0x20 ADD DUP3 DUP2 SUB DUP3 MSTORE DUP4 DUP2 DUP2 MLOAD DUP2 MSTORE PUSH1 0x20 ADD SWAP2 POP DUP1 MLOAD SWAP1 PUSH1 0x20 ADD SWAP1 PUSH1 0x20 MUL DUP1 DUP4 DUP4 PUSH1 0x0 JUMPDEST DUP4 DUP2 LT ISZERO PUSH3 0x4E6 JUMPI DUP1 DUP3 ADD MLOAD DUP2 DUP5 ADD MSTORE PUSH1 0x20 DUP2 ADD SWAP1 POP PUSH3 0x4C9 JUMP JUMPDEST POP POP POP POP SWAP1 POP ADD SWAP3 POP POP POP PUSH1 0x40 MLOAD DUP1 SWAP2 SUB SWAP1 RETURN JUMPDEST CALLVALUE DUP1 ISZERO PUSH3 0x507 JUMPI PUSH1 0x0 DUP1 REVERT JUMPDEST POP PUSH3 0x5AA PUSH1 0x4 DUP1 CALLDATASIZE SUB DUP2 ADD SWAP1 DUP1 DUP1 CALLDATALOAD SWAP1 PUSH1 0x20 ADD SWAP1 DUP3 ADD DUP1 CALLDATALOAD SWAP1 PUSH1 0x20 ADD SWAP1 DUP1 DUP1 PUSH1 0x1F ADD PUSH1 0x20 DUP1 SWAP2 DIV MUL PUSH1 0x20 ADD PUSH1 0x40 MLOAD SWAP1 DUP2 ADD PUSH1 0x40 MSTORE DUP1 SWAP4 SWAP3 SWAP2 SWAP1 DUP2 DUP2 MSTORE PUSH1 0x20 ADD DUP4 DUP4 DUP1 DUP3 DUP5 CALLDATACOPY DUP3 ADD SWAP2 POP POP POP POP POP POP SWAP2 SWAP3 SWAP2 SWAP3 SWAP1 DUP1 CALLDATALOAD SWAP1 PUSH1 0x20 ADD SWAP1 SWAP3 SWAP2 SWAP1 DUP1 CALLDATALOAD SWAP1 PUSH1 0x20 ADD SWAP1 SWAP3 SWAP2 SWAP1 DUP1 CALLDATALOAD SWAP1 PUSH1 0x20 ADD SWAP1 SWAP3 SWAP2 SWAP1 DUP1 CALLDATALOAD SWAP1 PUSH1 0x20 ADD SWAP1 SWAP3 SWAP2 SWAP1 DUP1 CALLDATALOAD SWAP1 PUSH1 0x20 ADD SWAP1 SWAP3 SWAP2 SWAP1 DUP1 CALLDATALOAD SWAP1 PUSH1 0x20 ADD SWAP1 SWAP3 SWAP2 SWAP1 DUP1 CALLDATALOAD SWAP1 PUSH1 0x20 ADD SWAP1 SWAP3 SWAP2 SWAP1 POP POP POP PUSH3 0x2924 JUMP JUMPDEST STOP JUMPDEST CALLVALUE DUP1 ISZERO PUSH3 0x5B9 JUMPI PUSH1 0x0 DUP1 REVERT JUMPDEST POP PUSH3 0x5C4 PUSH3 0x2E65 JUMP JUMPDEST PUSH1 0x40 MLOAD DUP1 DUP1 PUSH1 0x20 ADD DUP3 DUP2 SUB DUP3 MSTORE DUP4 DUP2 DUP2 MLOAD DUP2 MSTORE PUSH1 0x20 ADD SWAP2 POP DUP1 MLOAD SWAP1 PUSH1 0x20 ADD SWAP1 PUSH1 0x20 MUL DUP1 DUP4 DUP4 PUSH1 0x0 JUMPDEST DUP4 DUP2 LT ISZERO PUSH3 0x609 JUMPI DUP1 DUP3 ADD MLOAD DUP2 DUP5 ADD MSTORE PUSH1 0x20 DUP2 ADD SWAP1 POP PUSH3 0x5EC JUMP JUMPDEST POP POP POP POP SWAP1 POP ADD SWAP3 POP POP POP PUSH1 0x40 MLOAD DUP1 SWAP2 SUB SWAP1 RETURN JUMPDEST CALLVALUE DUP1 ISZERO PUSH3 0x62A JUMPI PUSH1 0x0 DUP1 REVERT JUMPDEST POP PUSH3 0x635 PUSH3 0x324F JUMP JUMPDEST PUSH1 0x40 MLOAD DUP1 DUP3 PUSH20 0xFFFFFFFFFFFFFFFFFFFFFFFFFFFFFFFFFFFFFFFF AND PUSH20 0xFFFFFFFFFFFFFFFFFFFFFFFFFFFFFFFFFFFFFFFF AND DUP2 MSTORE PUSH1 0x20 ADD SWAP2 POP POP PUSH1 0x40 MLOAD DUP1 SWAP2 SUB SWAP1 RETURN JUMPDEST PUSH1 0x0 SLOAD DUP2 JUMP JUMPDEST PUSH1 0x0 DUP1 PUSH1 0x3 PUSH1 0x0 CALLER PUSH20 0xFFFFFFFFFFFFFFFFFFFFFFFFFFFFFFFFFFFFFFFF AND PUSH20 0xFFFFFFFFFFFFFFFFFFFFFFFFFFFFFFFFFFFFFFFF AND DUP2 MSTORE PUSH1 0x20 ADD SWAP1 DUP2 MSTORE PUSH1 0x20 ADD PUSH1 0x0 KECCAK256 DUP1 SLOAD SWAP1 POP EQ ISZERO ISZERO ISZERO PUSH3 0x73A JUMPI PUSH1 0x40 MLOAD PUSH32 0x8C379A000000000000000000000000000000000000000000000000000000000 DUP2 MSTORE PUSH1 0x4 ADD DUP1 DUP1 PUSH1 0x20 ADD DUP3 DUP2 SUB DUP3 MSTORE PUSH1 0x17 DUP2 MSTORE PUSH1 0x20 ADD DUP1 PUSH32 0x596F7520646F6E2774206861766520616E792042696473000000000000000000 DUP2 MSTORE POP PUSH1 0x20 ADD SWAP2 POP POP PUSH1 0x40 MLOAD DUP1 SWAP2 SUB SWAP1 REVERT JUMPDEST DUP2 PUSH1 0x0 SLOAD DUP2 GT ISZERO DUP1 ISZERO PUSH3 0x828 JUMPI POP TIMESTAMP PUSH1 0x1 DUP3 DUP2 SLOAD DUP2 LT ISZERO ISZERO PUSH3 0x75A JUMPI INVALID JUMPDEST SWAP1 PUSH1 0x0 MSTORE PUSH1 0x20 PUSH1 0x0 KECCAK256 ADD PUSH1 0x0 SWAP1 SLOAD SWAP1 PUSH2 0x100 EXP SWAP1 DIV PUSH20 0xFFFFFFFFFFFFFFFFFFFFFFFFFFFFFFFFFFFFFFFF AND PUSH20 0xFFFFFFFFFFFFFFFFFFFFFFFFFFFFFFFFFFFFFFFF AND PUSH4 0x439F5AC2 PUSH1 0x40 MLOAD DUP2 PUSH4 0xFFFFFFFF AND PUSH29 0x100000000000000000000000000000000000000000000000000000000 MUL DUP2 MSTORE PUSH1 0x4 ADD PUSH1 0x20 PUSH1 0x40 MLOAD DUP1 DUP4 SUB DUP2 PUSH1 0x0 DUP8 DUP1 EXTCODESIZE ISZERO DUP1 ISZERO PUSH3 0x7E9 JUMPI PUSH1 0x0 DUP1 REVERT JUMPDEST POP GAS CALL ISZERO DUP1 ISZERO PUSH3 0x7FE JUMPI RETURNDATASIZE PUSH1 0x0 DUP1 RETURNDATACOPY RETURNDATASIZE PUSH1 0x0 REVERT JUMPDEST POP POP POP POP PUSH1 0x40 MLOAD RETURNDATASIZE PUSH1 0x20 DUP2 LT ISZERO PUSH3 0x815 JUMPI PUSH1 0x0 DUP1 REVERT JUMPDEST DUP2 ADD SWAP1 DUP1 DUP1 MLOAD SWAP1 PUSH1 0x20 ADD SWAP1 SWAP3 SWAP2 SWAP1 POP POP POP GT JUMPDEST ISZERO ISZERO PUSH3 0x8C3 JUMPI PUSH1 0x40 MLOAD PUSH32 0x8C379A000000000000000000000000000000000000000000000000000000000 DUP2 MSTORE PUSH1 0x4 ADD DUP1 DUP1 PUSH1 0x20 ADD DUP3 DUP2 SUB DUP3 MSTORE PUSH1 0x22 DUP2 MSTORE PUSH1 0x20 ADD DUP1 PUSH32 0x41756374696F6E20697320496E616374697665206F72206E6F74207072657365 DUP2 MSTORE PUSH1 0x20 ADD PUSH32 0x6E74000000000000000000000000000000000000000000000000000000000000 DUP2 MSTORE POP PUSH1 0x40 ADD SWAP2 POP POP PUSH1 0x40 MLOAD DUP1 SWAP2 SUB SWAP1 REVERT JUMPDEST PUSH1 0x1 DUP4 DUP2 SLOAD DUP2 LT ISZERO ISZERO PUSH3 0x8D3 JUMPI INVALID JUMPDEST SWAP1 PUSH1 0x0 MSTORE PUSH1 0x20 PUSH1 0x0 KECCAK256 ADD PUSH1 0x0 SWAP1 SLOAD SWAP1 PUSH2 0x100 EXP SWAP1 DIV PUSH20 0xFFFFFFFFFFFFFFFFFFFFFFFFFFFFFFFFFFFFFFFF AND PUSH20 0xFFFFFFFFFFFFFFFFFFFFFFFFFFFFFFFFFFFFFFFF AND PUSH4 0x62EA82DB CALLER PUSH1 0x40 MLOAD DUP3 PUSH4 0xFFFFFFFF AND PUSH29 0x100000000000000000000000000000000000000000000000000000000 MUL DUP2 MSTORE PUSH1 0x4 ADD DUP1 DUP3 PUSH20 0xFFFFFFFFFFFFFFFFFFFFFFFFFFFFFFFFFFFFFFFF AND PUSH20 0xFFFFFFFFFFFFFFFFFFFFFFFFFFFFFFFFFFFFFFFF AND DUP2 MSTORE PUSH1 0x20 ADD SWAP2 POP POP PUSH1 0x20 PUSH1 0x40 MLOAD DUP1 DUP4 SUB DUP2 PUSH1 0x0 DUP8 DUP1 EXTCODESIZE ISZERO DUP1 ISZERO PUSH3 0x999 JUMPI PUSH1 0x0 DUP1 REVERT JUMPDEST POP GAS CALL ISZERO DUP1 ISZERO PUSH3 0x9AE JUMPI RETURNDATASIZE PUSH1 0x0 DUP1 RETURNDATACOPY RETURNDATASIZE PUSH1 0x0 REVERT JUMPDEST POP POP POP POP PUSH1 0x40 MLOAD RETURNDATASIZE PUSH1 0x20 DUP2 LT ISZERO PUSH3 0x9C5 JUMPI PUSH1 0x0 DUP1 REVERT JUMPDEST DUP2 ADD SWAP1 DUP1 DUP1 MLOAD SWAP1 PUSH1 0x20 ADD SWAP1 SWAP3 SWAP2 SWAP1 POP POP POP SWAP2 POP POP SWAP2 SWAP1 POP JUMP JUMPDEST DUP2 PUSH1 0x0 SLOAD DUP2 GT ISZERO DUP1 ISZERO PUSH3 0xACC JUMPI POP TIMESTAMP PUSH1 0x1 DUP3 DUP2 SLOAD DUP2 LT ISZERO ISZERO PUSH3 0x9FE JUMPI INVALID JUMPDEST SWAP1 PUSH1 0x0 MSTORE PUSH1 0x20 PUSH1 0x0 KECCAK256 ADD PUSH1 0x0 SWAP1 SLOAD SWAP1 PUSH2 0x100 EXP SWAP1 DIV PUSH20 0xFFFFFFFFFFFFFFFFFFFFFFFFFFFFFFFFFFFFFFFF AND PUSH20 0xFFFFFFFFFFFFFFFFFFFFFFFFFFFFFFFFFFFFFFFF AND PUSH4 0x439F5AC2 PUSH1 0x40 MLOAD DUP2 PUSH4 0xFFFFFFFF AND PUSH29 0x100000000000000000000000000000000000000000000000000000000 MUL DUP2 MSTORE PUSH1 0x4 ADD PUSH1 0x20 PUSH1 0x40 MLOAD DUP1 DUP4 SUB DUP2 PUSH1 0x0 DUP8 DUP1 EXTCODESIZE ISZERO DUP1 ISZERO PUSH3 0xA8D JUMPI PUSH1 0x0 DUP1 REVERT JUMPDEST POP GAS CALL ISZERO DUP1 ISZERO PUSH3 0xAA2 JUMPI RETURNDATASIZE PUSH1 0x0 DUP1 RETURNDATACOPY RETURNDATASIZE PUSH1 0x0 REVERT JUMPDEST POP POP POP POP PUSH1 0x40 MLOAD RETURNDATASIZE PUSH1 0x20 DUP2 LT ISZERO PUSH3 0xAB9 JUMPI PUSH1 0x0 DUP1 REVERT JUMPDEST DUP2 ADD SWAP1 DUP1 DUP1 MLOAD SWAP1 PUSH1 0x20 ADD SWAP1 SWAP3 SWAP2 SWAP1 POP POP POP GT JUMPDEST ISZERO ISZERO PUSH3 0xB67 JUMPI PUSH1 0x40 MLOAD PUSH32 0x8C379A000000000000000000000000000000000000000000000000000000000 DUP2 MSTORE PUSH1 0x4 ADD DUP1 DUP1 PUSH1 0x20 ADD DUP3 DUP2 SUB DUP3 MSTORE PUSH1 0x22 DUP2 MSTORE PUSH1 0x20 ADD DUP1 PUSH32 0x41756374696F6E20697320496E616374697665206F72206E6F74207072657365 DUP2 MSTORE PUSH1 0x20 ADD PUSH32 0x6E74000000000000000000000000000000000000000000000000000000000000 DUP2 MSTORE POP PUSH1 0x40 ADD SWAP2 POP POP PUSH1 0x40 MLOAD DUP1 SWAP2 SUB SWAP1 REVERT JUMPDEST PUSH1 0x1 DUP4 DUP2 SLOAD DUP2 LT ISZERO ISZERO PUSH3 0xB77 JUMPI INVALID JUMPDEST SWAP1 PUSH1 0x0 MSTORE PUSH1 0x20 PUSH1 0x0 KECCAK256 ADD PUSH1 0x0 SWAP1 SLOAD SWAP1 PUSH2 0x100 EXP SWAP1 DIV PUSH20 0xFFFFFFFFFFFFFFFFFFFFFFFFFFFFFFFFFFFFFFFF AND PUSH20 0xFFFFFFFFFFFFFFFFFFFFFFFFFFFFFFFFFFFFFFFF AND PUSH4 0x43129DE1 DUP4 PUSH1 0x40 MLOAD DUP3 PUSH4 0xFFFFFFFF AND PUSH29 0x100000000000000000000000000000000000000000000000000000000 MUL DUP2 MSTORE PUSH1 0x4 ADD DUP1 DUP3 DUP2 MSTORE PUSH1 0x20 ADD SWAP2 POP POP PUSH1 0x0 PUSH1 0x40 MLOAD DUP1 DUP4 SUB DUP2 PUSH1 0x0 DUP8 DUP1 EXTCODESIZE ISZERO DUP1 ISZERO PUSH3 0xC11 JUMPI PUSH1 0x0 DUP1 REVERT JUMPDEST POP GAS CALL ISZERO DUP1 ISZERO PUSH3 0xC26 JUMPI RETURNDATASIZE PUSH1 0x0 DUP1 RETURNDATACOPY RETURNDATASIZE PUSH1 0x0 REVERT JUMPDEST POP POP POP POP DUP3 CALLER PUSH20 0xFFFFFFFFFFFFFFFFFFFFFFFFFFFFFFFFFFFFFFFF AND PUSH32 0xB722CCEC10268690BF7EF3A9603076BAF9B304A59DEF91157D4A80C98D557AAE PUSH1 0x40 MLOAD PUSH1 0x40 MLOAD DUP1 SWAP2 SUB SWAP1 LOG3 POP POP POP JUMP JUMPDEST PUSH1 0x0 DUP1 DUP3 PUSH1 0x0 SLOAD DUP2 GT ISZERO DUP1 ISZERO PUSH3 0xD64 JUMPI POP TIMESTAMP PUSH1 0x1 DUP3 DUP2 SLOAD DUP2 LT ISZERO ISZERO PUSH3 0xC96 JUMPI INVALID JUMPDEST SWAP1 PUSH1 0x0 MSTORE PUSH1 0x20 PUSH1 0x0 KECCAK256 ADD PUSH1 0x0 SWAP1 SLOAD SWAP1 PUSH2 0x100 EXP SWAP1 DIV PUSH20 0xFFFFFFFFFFFFFFFFFFFFFFFFFFFFFFFFFFFFFFFF AND PUSH20 0xFFFFFFFFFFFFFFFFFFFFFFFFFFFFFFFFFFFFFFFF AND PUSH4 0x439F5AC2 PUSH1 0x40 MLOAD DUP2 PUSH4 0xFFFFFFFF AND PUSH29 0x100000000000000000000000000000000000000000000000000000000 MUL DUP2 MSTORE PUSH1 0x4 ADD PUSH1 0x20 PUSH1 0x40 MLOAD DUP1 DUP4 SUB DUP2 PUSH1 0x0 DUP8 DUP1 EXTCODESIZE ISZERO DUP1 ISZERO PUSH3 0xD25 JUMPI PUSH1 0x0 DUP1 REVERT JUMPDEST POP GAS CALL ISZERO DUP1 ISZERO PUSH3 0xD3A JUMPI RETURNDATASIZE PUSH1 0x0 DUP1 RETURNDATACOPY RETURNDATASIZE PUSH1 0x0 REVERT JUMPDEST POP POP POP POP PUSH1 0x40 MLOAD RETURNDATASIZE PUSH1 0x20 DUP2 LT ISZERO PUSH3 0xD51 JUMPI PUSH1 0x0 DUP1 REVERT JUMPDEST DUP2 ADD SWAP1 DUP1 DUP1 MLOAD SWAP1 PUSH1 0x20 ADD SWAP1 SWAP3 SWAP2 SWAP1 POP POP POP GT JUMPDEST ISZERO ISZERO PUSH3 0xDFF JUMPI PUSH1 0x40 MLOAD PUSH32 0x8C379A000000000000000000000000000000000000000000000000000000000 DUP2 MSTORE PUSH1 0x4 ADD DUP1 DUP1 PUSH1 0x20 ADD DUP3 DUP2 SUB DUP3 MSTORE PUSH1 0x22 DUP2 MSTORE PUSH1 0x20 ADD DUP1 PUSH32 0x41756374696F6E20697320496E616374697665206F72206E6F74207072657365 DUP2 MSTORE PUSH1 0x20 ADD PUSH32 0x6E74000000000000000000000000000000000000000000000000000000000000 DUP2 MSTORE POP PUSH1 0x40 ADD SWAP2 POP POP PUSH1 0x40 MLOAD DUP1 SWAP2 SUB SWAP1 REVERT JUMPDEST PUSH1 0x1 DUP5 DUP2 SLOAD DUP2 LT ISZERO ISZERO PUSH3 0xE0F JUMPI INVALID JUMPDEST SWAP1 PUSH1 0x0 MSTORE PUSH1 0x20 PUSH1 0x0 KECCAK256 ADD PUSH1 0x0 SWAP1 SLOAD SWAP1 PUSH2 0x100 EXP SWAP1 DIV PUSH20 0xFFFFFFFFFFFFFFFFFFFFFFFFFFFFFFFFFFFFFFFF AND PUSH20 0xFFFFFFFFFFFFFFFFFFFFFFFFFFFFFFFFFFFFFFFF AND PUSH4 0xDD06BA1A PUSH1 0x40 MLOAD DUP2 PUSH4 0xFFFFFFFF AND PUSH29 0x100000000000000000000000000000000000000000000000000000000 MUL DUP2 MSTORE PUSH1 0x4 ADD PUSH1 0x20 PUSH1 0x40 MLOAD DUP1 DUP4 SUB DUP2 PUSH1 0x0 DUP8 DUP1 EXTCODESIZE ISZERO DUP1 ISZERO PUSH3 0xE9E JUMPI PUSH1 0x0 DUP1 REVERT JUMPDEST POP GAS CALL ISZERO DUP1 ISZERO PUSH3 0xEB3 JUMPI RETURNDATASIZE PUSH1 0x0 DUP1 RETURNDATACOPY RETURNDATASIZE PUSH1 0x0 REVERT JUMPDEST POP POP POP POP PUSH1 0x40 MLOAD RETURNDATASIZE PUSH1 0x20 DUP2 LT ISZERO PUSH3 0xECA JUMPI PUSH1 0x0 DUP1 REVERT JUMPDEST DUP2 ADD SWAP1 DUP1 DUP1 MLOAD SWAP1 PUSH1 0x20 ADD SWAP1 SWAP3 SWAP2 SWAP1 POP POP POP SWAP2 POP PUSH1 0x0 DUP3 EQ ISZERO ISZERO ISZERO PUSH3 0xF7D JUMPI PUSH1 0x40 MLOAD PUSH32 0x8C379A000000000000000000000000000000000000000000000000000000000 DUP2 MSTORE PUSH1 0x4 ADD DUP1 DUP1 PUSH1 0x20 ADD DUP3 DUP2 SUB DUP3 MSTORE PUSH1 0x24 DUP2 MSTORE PUSH1 0x20 ADD DUP1 PUSH32 0x5468657265206172656E277420616E792062696473206F6E2074686520417563 DUP2 MSTORE PUSH1 0x20 ADD PUSH32 0x74696F6E00000000000000000000000000000000000000000000000000000000 DUP2 MSTORE POP PUSH1 0x40 ADD SWAP2 POP POP PUSH1 0x40 MLOAD DUP1 SWAP2 SUB SWAP1 REVERT JUMPDEST DUP2 SWAP3 POP POP POP SWAP2 SWAP1 POP JUMP JUMPDEST PUSH1 0x0 DUP1 PUSH1 0x2 PUSH1 0x0 CALLER PUSH20 0xFFFFFFFFFFFFFFFFFFFFFFFFFFFFFFFFFFFFFFFF AND PUSH20 0xFFFFFFFFFFFFFFFFFFFFFFFFFFFFFFFFFFFFFFFF AND DUP2 MSTORE PUSH1 0x20 ADD SWAP1 DUP2 MSTORE PUSH1 0x20 ADD PUSH1 0x0 KECCAK256 SLOAD EQ ISZERO ISZERO ISZERO PUSH3 0x1041 JUMPI PUSH1 0x40 MLOAD PUSH32 0x8C379A000000000000000000000000000000000000000000000000000000000 DUP2 MSTORE PUSH1 0x4 ADD DUP1 DUP1 PUSH1 0x20 ADD DUP3 DUP2 SUB DUP3 MSTORE PUSH1 0x20 DUP2 MSTORE PUSH1 0x20 ADD DUP1 PUSH32 0x596F7520686176656E2774206372656174656420616E792041756374696F6E73 DUP2 MSTORE POP PUSH1 0x20 ADD SWAP2 POP POP PUSH1 0x40 MLOAD DUP1 SWAP2 SUB SWAP1 REVERT JUMPDEST PUSH1 0x1 PUSH1 0x2 PUSH1 0x0 CALLER PUSH20 0xFFFFFFFFFFFFFFFFFFFFFFFFFFFFFFFFFFFFFFFF AND PUSH20 0xFFFFFFFFFFFFFFFFFFFFFFFFFFFFFFFFFFFFFFFF AND DUP2 MSTORE PUSH1 0x20 ADD SWAP1 DUP2 MSTORE PUSH1 0x20 ADD PUSH1 0x0 KECCAK256 SLOAD DUP2 SLOAD DUP2 LT ISZERO ISZERO PUSH3 0x1090 JUMPI INVALID JUMPDEST SWAP1 PUSH1 0x0 MSTORE PUSH1 0x20 PUSH1 0x0 KECCAK256 ADD PUSH1 0x0 SWAP1 SLOAD SWAP1 PUSH2 0x100 EXP SWAP1 DIV PUSH20 0xFFFFFFFFFFFFFFFFFFFFFFFFFFFFFFFFFFFFFFFF AND PUSH20 0xFFFFFFFFFFFFFFFFFFFFFFFFFFFFFFFFFFFFFFFF AND PUSH4 0x409766E6 PUSH1 0x40 MLOAD DUP2 PUSH4 0xFFFFFFFF AND PUSH29 0x100000000000000000000000000000000000000000000000000000000 MUL DUP2 MSTORE PUSH1 0x4 ADD PUSH1 0x20 PUSH1 0x40 MLOAD DUP1 DUP4 SUB DUP2 PUSH1 0x0 DUP8 DUP1 EXTCODESIZE ISZERO DUP1 ISZERO PUSH3 0x111F JUMPI PUSH1 0x0 DUP1 REVERT JUMPDEST POP GAS CALL ISZERO DUP1 ISZERO PUSH3 0x1134 JUMPI RETURNDATASIZE PUSH1 0x0 DUP1 RETURNDATACOPY RETURNDATASIZE PUSH1 0x0 REVERT JUMPDEST POP POP POP POP PUSH1 0x40 MLOAD RETURNDATASIZE PUSH1 0x20 DUP2 LT ISZERO PUSH3 0x114B JUMPI PUSH1 0x0 DUP1 REVERT JUMPDEST DUP2 ADD SWAP1 DUP1 DUP1 MLOAD SWAP1 PUSH1 0x20 ADD SWAP1 SWAP3 SWAP2 SWAP1 POP POP POP ISZERO ISZERO PUSH3 0x11F7 JUMPI PUSH1 0x40 MLOAD PUSH32 0x8C379A000000000000000000000000000000000000000000000000000000000 DUP2 MSTORE PUSH1 0x4 ADD DUP1 DUP1 PUSH1 0x20 ADD DUP3 DUP2 SUB DUP3 MSTORE PUSH1 0x24 DUP2 MSTORE PUSH1 0x20 ADD DUP1 PUSH32 0x5468657265206172656E277420616E792062696473206F6E2074686520417563 DUP2 MSTORE PUSH1 0x20 ADD PUSH32 0x74696F6E00000000000000000000000000000000000000000000000000000000 DUP2 MSTORE POP PUSH1 0x40 ADD SWAP2 POP POP PUSH1 0x40 MLOAD DUP1 SWAP2 SUB SWAP1 REVERT JUMPDEST PUSH1 0x1 PUSH1 0x2 PUSH1 0x0 CALLER PUSH20 0xFFFFFFFFFFFFFFFFFFFFFFFFFFFFFFFFFFFFFFFF AND PUSH20 0xFFFFFFFFFFFFFFFFFFFFFFFFFFFFFFFFFFFFFFFF AND DUP2 MSTORE PUSH1 0x20 ADD SWAP1 DUP2 MSTORE PUSH1 0x20 ADD PUSH1 0x0 KECCAK256 SLOAD DUP2 SLOAD DUP2 LT ISZERO ISZERO PUSH3 0x1246 JUMPI INVALID JUMPDEST SWAP1 PUSH1 0x0 MSTORE PUSH1 0x20 PUSH1 0x0 KECCAK256 ADD PUSH1 0x0 SWAP1 SLOAD SWAP1 PUSH2 0x100 EXP SWAP1 DIV PUSH20 0xFFFFFFFFFFFFFFFFFFFFFFFFFFFFFFFFFFFFFFFF AND PUSH20 0xFFFFFFFFFFFFFFFFFFFFFFFFFFFFFFFFFFFFFFFF AND PUSH4 0xDD06BA1A PUSH1 0x40 MLOAD DUP2 PUSH4 0xFFFFFFFF AND PUSH29 0x100000000000000000000000000000000000000000000000000000000 MUL DUP2 MSTORE PUSH1 0x4 ADD PUSH1 0x20 PUSH1 0x40 MLOAD DUP1 DUP4 SUB DUP2 PUSH1 0x0 DUP8 DUP1 EXTCODESIZE ISZERO DUP1 ISZERO PUSH3 0x12D5 JUMPI PUSH1 0x0 DUP1 REVERT JUMPDEST POP GAS CALL ISZERO DUP1 ISZERO PUSH3 0x12EA JUMPI RETURNDATASIZE PUSH1 0x0 DUP1 RETURNDATACOPY RETURNDATASIZE PUSH1 0x0 REVERT JUMPDEST POP POP POP POP PUSH1 0x40 MLOAD RETURNDATASIZE PUSH1 0x20 DUP2 LT ISZERO PUSH3 0x1301 JUMPI PUSH1 0x0 DUP1 REVERT JUMPDEST DUP2 ADD SWAP1 DUP1 DUP1 MLOAD SWAP1 PUSH1 0x20 ADD SWAP1 SWAP3 SWAP2 SWAP1 POP POP POP SWAP1 POP SWAP1 JUMP JUMPDEST PUSH1 0x0 DUP2 PUSH1 0x0 SLOAD DUP2 GT ISZERO DUP1 ISZERO PUSH3 0x1407 JUMPI POP TIMESTAMP PUSH1 0x1 DUP3 DUP2 SLOAD DUP2 LT ISZERO ISZERO PUSH3 0x1339 JUMPI INVALID JUMPDEST SWAP1 PUSH1 0x0 MSTORE PUSH1 0x20 PUSH1 0x0 KECCAK256 ADD PUSH1 0x0 SWAP1 SLOAD SWAP1 PUSH2 0x100 EXP SWAP1 DIV PUSH20 0xFFFFFFFFFFFFFFFFFFFFFFFFFFFFFFFFFFFFFFFF AND PUSH20 0xFFFFFFFFFFFFFFFFFFFFFFFFFFFFFFFFFFFFFFFF AND PUSH4 0x439F5AC2 PUSH1 0x40 MLOAD DUP2 PUSH4 0xFFFFFFFF AND PUSH29 0x100000000000000000000000000000000000000000000000000000000 MUL DUP2 MSTORE PUSH1 0x4 ADD PUSH1 0x20 PUSH1 0x40 MLOAD DUP1 DUP4 SUB DUP2 PUSH1 0x0 DUP8 DUP1 EXTCODESIZE ISZERO DUP1 ISZERO PUSH3 0x13C8 JUMPI PUSH1 0x0 DUP1 REVERT JUMPDEST POP GAS CALL ISZERO DUP1 ISZERO PUSH3 0x13DD JUMPI RETURNDATASIZE PUSH1 0x0 DUP1 RETURNDATACOPY RETURNDATASIZE PUSH1 0x0 REVERT JUMPDEST POP POP POP POP PUSH1 0x40 MLOAD RETURNDATASIZE PUSH1 0x20 DUP2 LT ISZERO PUSH3 0x13F4 JUMPI PUSH1 0x0 DUP1 REVERT JUMPDEST DUP2 ADD SWAP1 DUP1 DUP1 MLOAD SWAP1 PUSH1 0x20 ADD SWAP1 SWAP3 SWAP2 SWAP1 POP POP POP GT JUMPDEST ISZERO ISZERO PUSH3 0x14A2 JUMPI PUSH1 0x40 MLOAD PUSH32 0x8C379A000000000000000000000000000000000000000000000000000000000 DUP2 MSTORE PUSH1 0x4 ADD DUP1 DUP1 PUSH1 0x20 ADD DUP3 DUP2 SUB DUP3 MSTORE PUSH1 0x22 DUP2 MSTORE PUSH1 0x20 ADD DUP1 PUSH32 0x41756374696F6E20697320496E616374697665206F72206E6F74207072657365 DUP2 MSTORE PUSH1 0x20 ADD PUSH32 0x6E74000000000000000000000000000000000000000000000000000000000000 DUP2 MSTORE POP PUSH1 0x40 ADD SWAP2 POP POP PUSH1 0x40 MLOAD DUP1 SWAP2 SUB SWAP1 REVERT JUMPDEST PUSH1 0x1 DUP4 DUP2 SLOAD DUP2 LT ISZERO ISZERO PUSH3 0x14B2 JUMPI INVALID JUMPDEST SWAP1 PUSH1 0x0 MSTORE PUSH1 0x20 PUSH1 0x0 KECCAK256 ADD PUSH1 0x0 SWAP1 SLOAD SWAP1 PUSH2 0x100 EXP SWAP1 DIV PUSH20 0xFFFFFFFFFFFFFFFFFFFFFFFFFFFFFFFFFFFFFFFF AND PUSH20 0xFFFFFFFFFFFFFFFFFFFFFFFFFFFFFFFFFFFFFFFF AND PUSH4 0xAD934674 PUSH1 0x40 MLOAD DUP2 PUSH4 0xFFFFFFFF AND PUSH29 0x100000000000000000000000000000000000000000000000000000000 MUL DUP2 MSTORE PUSH1 0x4 ADD PUSH1 0x20 PUSH1 0x40 MLOAD DUP1 DUP4 SUB DUP2 PUSH1 0x0 DUP8 DUP1 EXTCODESIZE ISZERO DUP1 ISZERO PUSH3 0x1541 JUMPI PUSH1 0x0 DUP1 REVERT JUMPDEST POP GAS CALL ISZERO DUP1 ISZERO PUSH3 0x1556 JUMPI RETURNDATASIZE PUSH1 0x0 DUP1 RETURNDATACOPY RETURNDATASIZE PUSH1 0x0 REVERT JUMPDEST POP POP POP POP PUSH1 0x40 MLOAD RETURNDATASIZE PUSH1 0x20 DUP2 LT ISZERO PUSH3 0x156D JUMPI PUSH1 0x0 DUP1 REVERT JUMPDEST DUP2 ADD SWAP1 DUP1 DUP1 MLOAD SWAP1 PUSH1 0x20 ADD SWAP1 SWAP3 SWAP2 SWAP1 POP POP POP SWAP2 POP POP SWAP2 SWAP1 POP JUMP JUMPDEST PUSH1 0x60 PUSH1 0x0 DUP1 PUSH1 0x0 PUSH1 0x60 PUSH1 0x0 DUP1 PUSH1 0x0 SWAP6 POP PUSH1 0x1 SWAP5 POP PUSH1 0x1 SWAP4 POP JUMPDEST PUSH1 0x0 SLOAD DUP5 GT ISZERO ISZERO PUSH3 0x16AB JUMPI TIMESTAMP DUP6 DUP6 DUP2 SLOAD DUP2 LT ISZERO ISZERO PUSH3 0x15BB JUMPI INVALID JUMPDEST SWAP1 PUSH1 0x0 MSTORE PUSH1 0x20 PUSH1 0x0 KECCAK256 ADD PUSH1 0x0 SWAP1 SLOAD SWAP1 PUSH2 0x100 EXP SWAP1 DIV PUSH20 0xFFFFFFFFFFFFFFFFFFFFFFFFFFFFFFFFFFFFFFFF AND PUSH20 0xFFFFFFFFFFFFFFFFFFFFFFFFFFFFFFFFFFFFFFFF AND PUSH4 0x439F5AC2 PUSH1 0x40 MLOAD DUP2 PUSH4 0xFFFFFFFF AND PUSH29 0x100000000000000000000000000000000000000000000000000000000 MUL DUP2 MSTORE PUSH1 0x4 ADD PUSH1 0x20 PUSH1 0x40 MLOAD DUP1 DUP4 SUB DUP2 PUSH1 0x0 DUP8 DUP1 EXTCODESIZE ISZERO DUP1 ISZERO PUSH3 0x164A JUMPI PUSH1 0x0 DUP1 REVERT JUMPDEST POP GAS CALL ISZERO DUP1 ISZERO PUSH3 0x165F JUMPI RETURNDATASIZE PUSH1 0x0 DUP1 RETURNDATACOPY RETURNDATASIZE PUSH1 0x0 REVERT JUMPDEST POP POP POP POP PUSH1 0x40 MLOAD RETURNDATASIZE PUSH1 0x20 DUP2 LT ISZERO PUSH3 0x1676 JUMPI PUSH1 0x0 DUP1 REVERT JUMPDEST DUP2 ADD SWAP1 DUP1 DUP1 MLOAD SWAP1 PUSH1 0x20 ADD SWAP1 SWAP3 SWAP2 SWAP1 POP POP POP LT ISZERO PUSH3 0x1694 JUMPI PUSH3 0x169D JUMP JUMPDEST DUP6 DUP1 PUSH1 0x1 ADD SWAP7 POP POP JUMPDEST DUP4 DUP1 PUSH1 0x1 ADD SWAP5 POP POP PUSH3 0x159F JUMP JUMPDEST PUSH1 0x0 DUP7 GT ISZERO ISZERO PUSH3 0x1724 JUMPI PUSH1 0x40 MLOAD PUSH32 0x8C379A000000000000000000000000000000000000000000000000000000000 DUP2 MSTORE PUSH1 0x4 ADD DUP1 DUP1 PUSH1 0x20 ADD DUP3 DUP2 SUB DUP3 MSTORE PUSH1 0x20 DUP2 MSTORE PUSH1 0x20 ADD DUP1 PUSH32 0x6E6F2061756374696F6E73206172652063757272656E746C7920416374697665 DUP2 MSTORE POP PUSH1 0x20 ADD SWAP2 POP POP PUSH1 0x40 MLOAD DUP1 SWAP2 SUB SWAP1 REVERT JUMPDEST DUP6 PUSH1 0x40 MLOAD SWAP1 DUP1 DUP3 MSTORE DUP1 PUSH1 0x20 MUL PUSH1 0x20 ADD DUP3 ADD PUSH1 0x40 MSTORE DUP1 ISZERO PUSH3 0x1754 JUMPI DUP2 PUSH1 0x20 ADD PUSH1 0x20 DUP3 MUL DUP1 CODESIZE DUP4 CODECOPY DUP1 DUP3 ADD SWAP2 POP POP SWAP1 POP JUMPDEST POP SWAP3 POP PUSH1 0x0 SWAP2 POP PUSH1 0x1 SWAP1 POP JUMPDEST PUSH1 0x0 SLOAD DUP2 GT ISZERO ISZERO PUSH3 0x188A JUMPI TIMESTAMP DUP6 DUP3 DUP2 SLOAD DUP2 LT ISZERO ISZERO PUSH3 0x177C JUMPI INVALID JUMPDEST SWAP1 PUSH1 0x0 MSTORE PUSH1 0x20 PUSH1 0x0 KECCAK256 ADD PUSH1 0x0 SWAP1 SLOAD SWAP1 PUSH2 0x100 EXP SWAP1 DIV PUSH20 0xFFFFFFFFFFFFFFFFFFFFFFFFFFFFFFFFFFFFFFFF AND PUSH20 0xFFFFFFFFFFFFFFFFFFFFFFFFFFFFFFFFFFFFFFFF AND PUSH4 0x439F5AC2 PUSH1 0x40 MLOAD DUP2 PUSH4 0xFFFFFFFF AND PUSH29 0x100000000000000000000000000000000000000000000000000000000 MUL DUP2 MSTORE PUSH1 0x4 ADD PUSH1 0x20 PUSH1 0x40 MLOAD DUP1 DUP4 SUB DUP2 PUSH1 0x0 DUP8 DUP1 EXTCODESIZE ISZERO DUP1 ISZERO PUSH3 0x180B JUMPI PUSH1 0x0 DUP1 REVERT JUMPDEST POP GAS CALL ISZERO DUP1 ISZERO PUSH3 0x1820 JUMPI RETURNDATASIZE PUSH1 0x0 DUP1 RETURNDATACOPY RETURNDATASIZE PUSH1 0x0 REVERT JUMPDEST POP POP POP POP PUSH1 0x40 MLOAD RETURNDATASIZE PUSH1 0x20 DUP2 LT ISZERO PUSH3 0x1837 JUMPI PUSH1 0x0 DUP1 REVERT JUMPDEST DUP2 ADD SWAP1 DUP1 DUP1 MLOAD SWAP1 PUSH1 0x20 ADD SWAP1 SWAP3 SWAP2 SWAP1 POP POP POP LT ISZERO PUSH3 0x1855 JUMPI PUSH3 0x187C JUMP JUMPDEST DUP1 DUP4 DUP4 DUP2 MLOAD DUP2 LT ISZERO ISZERO PUSH3 0x1865 JUMPI INVALID JUMPDEST SWAP1 PUSH1 0x20 ADD SWAP1 PUSH1 0x20 MUL ADD DUP2 DUP2 MSTORE POP POP DUP2 DUP1 PUSH1 0x1 ADD SWAP3 POP POP JUMPDEST DUP1 DUP1 PUSH1 0x1 ADD SWAP2 POP POP PUSH3 0x1760 JUMP JUMPDEST DUP3 SWAP7 POP POP POP POP POP POP POP SWAP1 JUMP JUMPDEST PUSH1 0x0 DUP1 PUSH1 0x0 DUP1 DUP5 PUSH1 0x0 SLOAD DUP2 GT ISZERO DUP1 ISZERO PUSH3 0x198A JUMPI POP TIMESTAMP PUSH1 0x1 DUP3 DUP2 SLOAD DUP2 LT ISZERO ISZERO PUSH3 0x18BC JUMPI INVALID JUMPDEST SWAP1 PUSH1 0x0 MSTORE PUSH1 0x20 PUSH1 0x0 KECCAK256 ADD PUSH1 0x0 SWAP1 SLOAD SWAP1 PUSH2 0x100 EXP SWAP1 DIV PUSH20 0xFFFFFFFFFFFFFFFFFFFFFFFFFFFFFFFFFFFFFFFF AND PUSH20 0xFFFFFFFFFFFFFFFFFFFFFFFFFFFFFFFFFFFFFFFF AND PUSH4 0x439F5AC2 PUSH1 0x40 MLOAD DUP2 PUSH4 0xFFFFFFFF AND PUSH29 0x100000000000000000000000000000000000000000000000000000000 MUL DUP2 MSTORE PUSH1 0x4 ADD PUSH1 0x20 PUSH1 0x40 MLOAD DUP1 DUP4 SUB DUP2 PUSH1 0x0 DUP8 DUP1 EXTCODESIZE ISZERO DUP1 ISZERO PUSH3 0x194B JUMPI PUSH1 0x0 DUP1 REVERT JUMPDEST POP GAS CALL ISZERO DUP1 ISZERO PUSH3 0x1960 JUMPI RETURNDATASIZE PUSH1 0x0 DUP1 RETURNDATACOPY RETURNDATASIZE PUSH1 0x0 REVERT JUMPDEST POP POP POP POP PUSH1 0x40 MLOAD RETURNDATASIZE PUSH1 0x20 DUP2 LT ISZERO PUSH3 0x1977 JUMPI PUSH1 0x0 DUP1 REVERT JUMPDEST DUP2 ADD SWAP1 DUP1 DUP1 MLOAD SWAP1 PUSH1 0x20 ADD SWAP1 SWAP3 SWAP2 SWAP1 POP POP POP GT JUMPDEST ISZERO ISZERO PUSH3 0x1A25 JUMPI PUSH1 0x40 MLOAD PUSH32 0x8C379A000000000000000000000000000000000000000000000000000000000 DUP2 MSTORE PUSH1 0x4 ADD DUP1 DUP1 PUSH1 0x20 ADD DUP3 DUP2 SUB DUP3 MSTORE PUSH1 0x22 DUP2 MSTORE PUSH1 0x20 ADD DUP1 PUSH32 0x41756374696F6E20697320496E616374697665206F72206E6F74207072657365 DUP2 MSTORE PUSH1 0x20 ADD PUSH32 0x6E74000000000000000000000000000000000000000000000000000000000000 DUP2 MSTORE POP PUSH1 0x40 ADD SWAP2 POP POP PUSH1 0x40 MLOAD DUP1 SWAP2 SUB SWAP1 REVERT JUMPDEST PUSH1 0x1 DUP7 DUP2 SLOAD DUP2 LT ISZERO ISZERO PUSH3 0x1A35 JUMPI INVALID JUMPDEST SWAP1 PUSH1 0x0 MSTORE PUSH1 0x20 PUSH1 0x0 KECCAK256 ADD PUSH1 0x0 SWAP1 SLOAD SWAP1 PUSH2 0x100 EXP SWAP1 DIV PUSH20 0xFFFFFFFFFFFFFFFFFFFFFFFFFFFFFFFFFFFFFFFF AND PUSH20 0xFFFFFFFFFFFFFFFFFFFFFFFFFFFFFFFFFFFFFFFF AND PUSH4 0xC828371E PUSH1 0x40 MLOAD DUP2 PUSH4 0xFFFFFFFF AND PUSH29 0x100000000000000000000000000000000000000000000000000000000 MUL DUP2 MSTORE PUSH1 0x4 ADD PUSH1 0x20 PUSH1 0x40 MLOAD DUP1 DUP4 SUB DUP2 PUSH1 0x0 DUP8 DUP1 EXTCODESIZE ISZERO DUP1 ISZERO PUSH3 0x1AC4 JUMPI PUSH1 0x0 DUP1 REVERT JUMPDEST POP GAS CALL ISZERO DUP1 ISZERO PUSH3 0x1AD9 JUMPI RETURNDATASIZE PUSH1 0x0 DUP1 RETURNDATACOPY RETURNDATASIZE PUSH1 0x0 REVERT JUMPDEST POP POP POP POP PUSH1 0x40 MLOAD RETURNDATASIZE PUSH1 0x20 DUP2 LT ISZERO PUSH3 0x1AF0 JUMPI PUSH1 0x0 DUP1 REVERT JUMPDEST DUP2 ADD SWAP1 DUP1 DUP1 MLOAD SWAP1 PUSH1 0x20 ADD SWAP1 SWAP3 SWAP2 SWAP1 POP POP POP SWAP2 POP PUSH3 0x1B0E DUP3 PUSH3 0x359D JUMP JUMPDEST DUP1 SWAP6 POP DUP2 SWAP7 POP DUP3 SWAP8 POP POP POP POP POP POP SWAP2 SWAP4 SWAP1 SWAP3 POP JUMP JUMPDEST PUSH1 0x0 DUP1 PUSH1 0x0 DUP1 DUP5 PUSH1 0x0 SLOAD DUP2 GT ISZERO DUP1 ISZERO PUSH3 0x1C17 JUMPI POP TIMESTAMP PUSH1 0x1 DUP3 DUP2 SLOAD DUP2 LT ISZERO ISZERO PUSH3 0x1B49 JUMPI INVALID JUMPDEST SWAP1 PUSH1 0x0 MSTORE PUSH1 0x20 PUSH1 0x0 KECCAK256 ADD PUSH1 0x0 SWAP1 SLOAD SWAP1 PUSH2 0x100 EXP SWAP1 DIV PUSH20 0xFFFFFFFFFFFFFFFFFFFFFFFFFFFFFFFFFFFFFFFF AND PUSH20 0xFFFFFFFFFFFFFFFFFFFFFFFFFFFFFFFFFFFFFFFF AND PUSH4 0x439F5AC2 PUSH1 0x40 MLOAD DUP2 PUSH4 0xFFFFFFFF AND PUSH29 0x100000000000000000000000000000000000000000000000000000000 MUL DUP2 MSTORE PUSH1 0x4 ADD PUSH1 0x20 PUSH1 0x40 MLOAD DUP1 DUP4 SUB DUP2 PUSH1 0x0 DUP8 DUP1 EXTCODESIZE ISZERO DUP1 ISZERO PUSH3 0x1BD8 JUMPI PUSH1 0x0 DUP1 REVERT JUMPDEST POP GAS CALL ISZERO DUP1 ISZERO PUSH3 0x1BED JUMPI RETURNDATASIZE PUSH1 0x0 DUP1 RETURNDATACOPY RETURNDATASIZE PUSH1 0x0 REVERT JUMPDEST POP POP POP POP PUSH1 0x40 MLOAD RETURNDATASIZE PUSH1 0x20 DUP2 LT ISZERO PUSH3 0x1C04 JUMPI PUSH1 0x0 DUP1 REVERT JUMPDEST DUP2 ADD SWAP1 DUP1 DUP1 MLOAD SWAP1 PUSH1 0x20 ADD SWAP1 SWAP3 SWAP2 SWAP1 POP POP POP GT JUMPDEST ISZERO ISZERO PUSH3 0x1CB2 JUMPI PUSH1 0x40 MLOAD PUSH32 0x8C379A000000000000000000000000000000000000000000000000000000000 DUP2 MSTORE PUSH1 0x4 ADD DUP1 DUP1 PUSH1 0x20 ADD DUP3 DUP2 SUB DUP3 MSTORE PUSH1 0x22 DUP2 MSTORE PUSH1 0x20 ADD DUP1 PUSH32 0x41756374696F6E20697320496E616374697665206F72206E6F74207072657365 DUP2 MSTORE PUSH1 0x20 ADD PUSH32 0x6E74000000000000000000000000000000000000000000000000000000000000 DUP2 MSTORE POP PUSH1 0x40 ADD SWAP2 POP POP PUSH1 0x40 MLOAD DUP1 SWAP2 SUB SWAP1 REVERT JUMPDEST PUSH1 0x1 DUP7 DUP2 SLOAD DUP2 LT ISZERO ISZERO PUSH3 0x1CC2 JUMPI INVALID JUMPDEST SWAP1 PUSH1 0x0 MSTORE PUSH1 0x20 PUSH1 0x0 KECCAK256 ADD PUSH1 0x0 SWAP1 SLOAD SWAP1 PUSH2 0x100 EXP SWAP1 DIV PUSH20 0xFFFFFFFFFFFFFFFFFFFFFFFFFFFFFFFFFFFFFFFF AND PUSH20 0xFFFFFFFFFFFFFFFFFFFFFFFFFFFFFFFFFFFFFFFF AND PUSH4 0x439F5AC2 PUSH1 0x40 MLOAD DUP2 PUSH4 0xFFFFFFFF AND PUSH29 0x100000000000000000000000000000000000000000000000000000000 MUL DUP2 MSTORE PUSH1 0x4 ADD PUSH1 0x20 PUSH1 0x40 MLOAD DUP1 DUP4 SUB DUP2 PUSH1 0x0 DUP8 DUP1 EXTCODESIZE ISZERO DUP1 ISZERO PUSH3 0x1D51 JUMPI PUSH1 0x0 DUP1 REVERT JUMPDEST POP GAS CALL ISZERO DUP1 ISZERO PUSH3 0x1D66 JUMPI RETURNDATASIZE PUSH1 0x0 DUP1 RETURNDATACOPY RETURNDATASIZE PUSH1 0x0 REVERT JUMPDEST POP POP POP POP PUSH1 0x40 MLOAD RETURNDATASIZE PUSH1 0x20 DUP2 LT ISZERO PUSH3 0x1D7D JUMPI PUSH1 0x0 DUP1 REVERT JUMPDEST DUP2 ADD SWAP1 DUP1 DUP1 MLOAD SWAP1 PUSH1 0x20 ADD SWAP1 SWAP3 SWAP2 SWAP1 POP POP POP SWAP2 POP PUSH3 0x1D9B DUP3 PUSH3 0x359D JUMP JUMPDEST DUP1 SWAP6 POP DUP2 SWAP7 POP DUP3 SWAP8 POP POP POP POP POP POP SWAP2 SWAP4 SWAP1 SWAP3 POP JUMP JUMPDEST DUP2 PUSH1 0x0 SLOAD DUP2 GT ISZERO DUP1 ISZERO PUSH3 0x1E9E JUMPI POP TIMESTAMP PUSH1 0x1 DUP3 DUP2 SLOAD DUP2 LT ISZERO ISZERO PUSH3 0x1DD0 JUMPI INVALID JUMPDEST SWAP1 PUSH1 0x0 MSTORE PUSH1 0x20 PUSH1 0x0 KECCAK256 ADD PUSH1 0x0 SWAP1 SLOAD SWAP1 PUSH2 0x100 EXP SWAP1 DIV PUSH20 0xFFFFFFFFFFFFFFFFFFFFFFFFFFFFFFFFFFFFFFFF AND PUSH20 0xFFFFFFFFFFFFFFFFFFFFFFFFFFFFFFFFFFFFFFFF AND PUSH4 0x439F5AC2 PUSH1 0x40 MLOAD DUP2 PUSH4 0xFFFFFFFF AND PUSH29 0x100000000000000000000000000000000000000000000000000000000 MUL DUP2 MSTORE PUSH1 0x4 ADD PUSH1 0x20 PUSH1 0x40 MLOAD DUP1 DUP4 SUB DUP2 PUSH1 0x0 DUP8 DUP1 EXTCODESIZE ISZERO DUP1 ISZERO PUSH3 0x1E5F JUMPI PUSH1 0x0 DUP1 REVERT JUMPDEST POP GAS CALL ISZERO DUP1 ISZERO PUSH3 0x1E74 JUMPI RETURNDATASIZE PUSH1 0x0 DUP1 RETURNDATACOPY RETURNDATASIZE PUSH1 0x0 REVERT JUMPDEST POP POP POP POP PUSH1 0x40 MLOAD RETURNDATASIZE PUSH1 0x20 DUP2 LT ISZERO PUSH3 0x1E8B JUMPI PUSH1 0x0 DUP1 REVERT JUMPDEST DUP2 ADD SWAP1 DUP1 DUP1 MLOAD SWAP1 PUSH1 0x20 ADD SWAP1 SWAP3 SWAP2 SWAP1 POP POP POP GT JUMPDEST ISZERO ISZERO PUSH3 0x1F39 JUMPI PUSH1 0x40 MLOAD PUSH32 0x8C379A000000000000000000000000000000000000000000000000000000000 DUP2 MSTORE PUSH1 0x4 ADD DUP1 DUP1 PUSH1 0x20 ADD DUP3 DUP2 SUB DUP3 MSTORE PUSH1 0x22 DUP2 MSTORE PUSH1 0x20 ADD DUP1 PUSH32 0x41756374696F6E20697320496E616374697665206F72206E6F74207072657365 DUP2 MSTORE PUSH1 0x20 ADD PUSH32 0x6E74000000000000000000000000000000000000000000000000000000000000 DUP2 MSTORE POP PUSH1 0x40 ADD SWAP2 POP POP PUSH1 0x40 MLOAD DUP1 SWAP2 SUB SWAP1 REVERT JUMPDEST DUP2 PUSH1 0x1 DUP5 DUP2 SLOAD DUP2 LT ISZERO ISZERO PUSH3 0x1F4A JUMPI INVALID JUMPDEST SWAP1 PUSH1 0x0 MSTORE PUSH1 0x20 PUSH1 0x0 KECCAK256 ADD PUSH1 0x0 SWAP1 SLOAD SWAP1 PUSH2 0x100 EXP SWAP1 DIV PUSH20 0xFFFFFFFFFFFFFFFFFFFFFFFFFFFFFFFFFFFFFFFF AND PUSH20 0xFFFFFFFFFFFFFFFFFFFFFFFFFFFFFFFFFFFFFFFF AND PUSH4 0xAD934674 PUSH1 0x40 MLOAD DUP2 PUSH4 0xFFFFFFFF AND PUSH29 0x100000000000000000000000000000000000000000000000000000000 MUL DUP2 MSTORE PUSH1 0x4 ADD PUSH1 0x20 PUSH1 0x40 MLOAD DUP1 DUP4 SUB DUP2 PUSH1 0x0 DUP8 DUP1 EXTCODESIZE ISZERO DUP1 ISZERO PUSH3 0x1FD9 JUMPI PUSH1 0x0 DUP1 REVERT JUMPDEST POP GAS CALL ISZERO DUP1 ISZERO PUSH3 0x1FEE JUMPI RETURNDATASIZE PUSH1 0x0 DUP1 RETURNDATACOPY RETURNDATASIZE PUSH1 0x0 REVERT JUMPDEST POP POP POP POP PUSH1 0x40 MLOAD RETURNDATASIZE PUSH1 0x20 DUP2 LT ISZERO PUSH3 0x2005 JUMPI PUSH1 0x0 DUP1 REVERT JUMPDEST DUP2 ADD SWAP1 DUP1 DUP1 MLOAD SWAP1 PUSH1 0x20 ADD SWAP1 SWAP3 SWAP2 SWAP1 POP POP POP LT ISZERO ISZERO PUSH3 0x20B2 JUMPI PUSH1 0x40 MLOAD PUSH32 0x8C379A000000000000000000000000000000000000000000000000000000000 DUP2 MSTORE PUSH1 0x4 ADD DUP1 DUP1 PUSH1 0x20 ADD DUP3 DUP2 SUB DUP3 MSTORE PUSH1 0x3A DUP2 MSTORE PUSH1 0x20 ADD DUP1 PUSH32 0x4269642076616C75652063616E6E6F74206265206C657373207468616E206D69 DUP2 MSTORE PUSH1 0x20 ADD PUSH32 0x6E696E756D206269642076616C7565206F662061756374696F6E000000000000 DUP2 MSTORE POP PUSH1 0x40 ADD SWAP2 POP POP PUSH1 0x40 MLOAD DUP1 SWAP2 SUB SWAP1 REVERT JUMPDEST DUP3 PUSH1 0x2 PUSH1 0x0 CALLER PUSH20 0xFFFFFFFFFFFFFFFFFFFFFFFFFFFFFFFFFFFFFFFF AND PUSH20 0xFFFFFFFFFFFFFFFFFFFFFFFFFFFFFFFFFFFFFFFF AND DUP2 MSTORE PUSH1 0x20 ADD SWAP1 DUP2 MSTORE PUSH1 0x20 ADD PUSH1 0x0 KECCAK256 SLOAD EQ ISZERO ISZERO ISZERO PUSH3 0x216A JUMPI PUSH1 0x40 MLOAD PUSH32 0x8C379A000000000000000000000000000000000000000000000000000000000 DUP2 MSTORE PUSH1 0x4 ADD DUP1 DUP1 PUSH1 0x20 ADD DUP3 DUP2 SUB DUP3 MSTORE PUSH1 0x18 DUP2 MSTORE PUSH1 0x20 ADD DUP1 PUSH32 0x43616E277420626964206F6E206F776E2041756374696F6E0000000000000000 DUP2 MSTORE POP PUSH1 0x20 ADD SWAP2 POP POP PUSH1 0x40 MLOAD DUP1 SWAP2 SUB SWAP1 REVERT JUMPDEST PUSH1 0x1 DUP4 DUP2 SLOAD DUP2 LT ISZERO ISZERO PUSH3 0x217A JUMPI INVALID JUMPDEST SWAP1 PUSH1 0x0 MSTORE PUSH1 0x20 PUSH1 0x0 KECCAK256 ADD PUSH1 0x0 SWAP1 SLOAD SWAP1 PUSH2 0x100 EXP SWAP1 DIV PUSH20 0xFFFFFFFFFFFFFFFFFFFFFFFFFFFFFFFFFFFFFFFF AND PUSH20 0xFFFFFFFFFFFFFFFFFFFFFFFFFFFFFFFFFFFFFFFF AND PUSH4 0x659DD2B4 DUP4 PUSH1 0x40 MLOAD DUP3 PUSH4 0xFFFFFFFF AND PUSH29 0x100000000000000000000000000000000000000000000000000000000 MUL DUP2 MSTORE PUSH1 0x4 ADD DUP1 DUP3 DUP2 MSTORE PUSH1 0x20 ADD SWAP2 POP POP PUSH1 0x0 PUSH1 0x40 MLOAD DUP1 DUP4 SUB DUP2 PUSH1 0x0 DUP8 DUP1 EXTCODESIZE ISZERO DUP1 ISZERO PUSH3 0x2214 JUMPI PUSH1 0x0 DUP1 REVERT JUMPDEST POP GAS CALL ISZERO DUP1 ISZERO PUSH3 0x2229 JUMPI RETURNDATASIZE PUSH1 0x0 DUP1 RETURNDATACOPY RETURNDATASIZE PUSH1 0x0 REVERT JUMPDEST POP POP POP POP PUSH1 0x3 PUSH1 0x0 CALLER PUSH20 0xFFFFFFFFFFFFFFFFFFFFFFFFFFFFFFFFFFFFFFFF AND PUSH20 0xFFFFFFFFFFFFFFFFFFFFFFFFFFFFFFFFFFFFFFFF AND DUP2 MSTORE PUSH1 0x20 ADD SWAP1 DUP2 MSTORE PUSH1 0x20 ADD PUSH1 0x0 KECCAK256 DUP4 SWAP1 DUP1 PUSH1 0x1 DUP2 SLOAD ADD DUP1 DUP3 SSTORE DUP1 SWAP2 POP POP SWAP1 PUSH1 0x1 DUP3 SUB SWAP1 PUSH1 0x0 MSTORE PUSH1 0x20 PUSH1 0x0 KECCAK256 ADD PUSH1 0x0 SWAP1 SWAP2 SWAP3 SWAP1 SWAP2 SWAP1 SWAP2 POP SSTORE POP DUP3 CALLER PUSH20 0xFFFFFFFFFFFFFFFFFFFFFFFFFFFFFFFFFFFFFFFF AND PUSH32 0x248176D18D0B2664C1964DE940D9D88115D4D632E9047EC131DC7CFD5B41535E PUSH1 0x40 MLOAD PUSH1 0x40 MLOAD DUP1 SWAP2 SUB SWAP1 LOG3 POP POP POP JUMP JUMPDEST PUSH1 0x60 DUP2 PUSH1 0x0 SLOAD DUP2 GT ISZERO DUP1 ISZERO PUSH3 0x23CF JUMPI POP TIMESTAMP PUSH1 0x1 DUP3 DUP2 SLOAD DUP2 LT ISZERO ISZERO PUSH3 0x2301 JUMPI INVALID JUMPDEST SWAP1 PUSH1 0x0 MSTORE PUSH1 0x20 PUSH1 0x0 KECCAK256 ADD PUSH1 0x0 SWAP1 SLOAD SWAP1 PUSH2 0x100 EXP SWAP1 DIV PUSH20 0xFFFFFFFFFFFFFFFFFFFFFFFFFFFFFFFFFFFFFFFF AND PUSH20 0xFFFFFFFFFFFFFFFFFFFFFFFFFFFFFFFFFFFFFFFF AND PUSH4 0x439F5AC2 PUSH1 0x40 MLOAD DUP2 PUSH4 0xFFFFFFFF AND PUSH29 0x100000000000000000000000000000000000000000000000000000000 MUL DUP2 MSTORE PUSH1 0x4 ADD PUSH1 0x20 PUSH1 0x40 MLOAD DUP1 DUP4 SUB DUP2 PUSH1 0x0 DUP8 DUP1 EXTCODESIZE ISZERO DUP1 ISZERO PUSH3 0x2390 JUMPI PUSH1 0x0 DUP1 REVERT JUMPDEST POP GAS CALL ISZERO DUP1 ISZERO PUSH3 0x23A5 JUMPI RETURNDATASIZE PUSH1 0x0 DUP1 RETURNDATACOPY RETURNDATASIZE PUSH1 0x0 REVERT JUMPDEST POP POP POP POP PUSH1 0x40 MLOAD RETURNDATASIZE PUSH1 0x20 DUP2 LT ISZERO PUSH3 0x23BC JUMPI PUSH1 0x0 DUP1 REVERT JUMPDEST DUP2 ADD SWAP1 DUP1 DUP1 MLOAD SWAP1 PUSH1 0x20 ADD SWAP1 SWAP3 SWAP2 SWAP1 POP POP POP GT JUMPDEST ISZERO ISZERO PUSH3 0x246A JUMPI PUSH1 0x40 MLOAD PUSH32 0x8C379A000000000000000000000000000000000000000000000000000000000 DUP2 MSTORE PUSH1 0x4 ADD DUP1 DUP1 PUSH1 0x20 ADD DUP3 DUP2 SUB DUP3 MSTORE PUSH1 0x22 DUP2 MSTORE PUSH1 0x20 ADD DUP1 PUSH32 0x41756374696F6E20697320496E616374697665206F72206E6F74207072657365 DUP2 MSTORE PUSH1 0x20 ADD PUSH32 0x6E74000000000000000000000000000000000000000000000000000000000000 DUP2 MSTORE POP PUSH1 0x40 ADD SWAP2 POP POP PUSH1 0x40 MLOAD DUP1 SWAP2 SUB SWAP1 REVERT JUMPDEST PUSH1 0x1 DUP4 DUP2 SLOAD DUP2 LT ISZERO ISZERO PUSH3 0x247A JUMPI INVALID JUMPDEST SWAP1 PUSH1 0x0 MSTORE PUSH1 0x20 PUSH1 0x0 KECCAK256 ADD PUSH1 0x0 SWAP1 SLOAD SWAP1 PUSH2 0x100 EXP SWAP1 DIV PUSH20 0xFFFFFFFFFFFFFFFFFFFFFFFFFFFFFFFFFFFFFFFF AND PUSH20 0xFFFFFFFFFFFFFFFFFFFFFFFFFFFFFFFFFFFFFFFF AND PUSH4 0x1A092541 PUSH1 0x40 MLOAD DUP2 PUSH4 0xFFFFFFFF AND PUSH29 0x100000000000000000000000000000000000000000000000000000000 MUL DUP2 MSTORE PUSH1 0x4 ADD PUSH1 0x0 PUSH1 0x40 MLOAD DUP1 DUP4 SUB DUP2 PUSH1 0x0 DUP8 DUP1 EXTCODESIZE ISZERO DUP1 ISZERO PUSH3 0x2509 JUMPI PUSH1 0x0 DUP1 REVERT JUMPDEST POP GAS CALL ISZERO DUP1 ISZERO PUSH3 0x251E JUMPI RETURNDATASIZE PUSH1 0x0 DUP1 RETURNDATACOPY RETURNDATASIZE PUSH1 0x0 REVERT JUMPDEST POP POP POP POP PUSH1 0x40 MLOAD RETURNDATASIZE PUSH1 0x0 DUP3 RETURNDATACOPY RETURNDATASIZE PUSH1 0x1F NOT PUSH1 0x1F DUP3 ADD AND DUP3 ADD DUP1 PUSH1 0x40 MSTORE POP PUSH1 0x20 DUP2 LT ISZERO PUSH3 0x2549 JUMPI PUSH1 0x0 DUP1 REVERT JUMPDEST DUP2 ADD SWAP1 DUP1 DUP1 MLOAD PUSH5 0x100000000 DUP2 GT ISZERO PUSH3 0x2562 JUMPI PUSH1 0x0 DUP1 REVERT JUMPDEST DUP3 DUP2 ADD SWAP1 POP PUSH1 0x20 DUP2 ADD DUP5 DUP2 GT ISZERO PUSH3 0x2579 JUMPI PUSH1 0x0 DUP1 REVERT JUMPDEST DUP2 MLOAD DUP6 PUSH1 0x1 DUP3 MUL DUP4 ADD GT PUSH5 0x100000000 DUP3 GT OR ISZERO PUSH3 0x2597 JUMPI PUSH1 0x0 DUP1 REVERT JUMPDEST POP POP SWAP3 SWAP2 SWAP1 POP POP POP SWAP2 POP POP SWAP2 SWAP1 POP JUMP JUMPDEST PUSH1 0x0 DUP1 PUSH1 0x2 PUSH1 0x0 CALLER PUSH20 0xFFFFFFFFFFFFFFFFFFFFFFFFFFFFFFFFFFFFFFFF AND PUSH20 0xFFFFFFFFFFFFFFFFFFFFFFFFFFFFFFFFFFFFFFFF AND DUP2 MSTORE PUSH1 0x20 ADD SWAP1 DUP2 MSTORE PUSH1 0x20 ADD PUSH1 0x0 KECCAK256 SLOAD EQ ISZERO ISZERO ISZERO PUSH3 0x2661 JUMPI PUSH1 0x40 MLOAD PUSH32 0x8C379A000000000000000000000000000000000000000000000000000000000 DUP2 MSTORE PUSH1 0x4 ADD DUP1 DUP1 PUSH1 0x20 ADD DUP3 DUP2 SUB DUP3 MSTORE PUSH1 0x20 DUP2 MSTORE PUSH1 0x20 ADD DUP1 PUSH32 0x596F7520686176656E2774206372656174656420616E792041756374696F6E73 DUP2 MSTORE POP PUSH1 0x20 ADD SWAP2 POP POP PUSH1 0x40 MLOAD DUP1 SWAP2 SUB SWAP1 REVERT JUMPDEST PUSH1 0x1 PUSH1 0x2 PUSH1 0x0 CALLER PUSH20 0xFFFFFFFFFFFFFFFFFFFFFFFFFFFFFFFFFFFFFFFF AND PUSH20 0xFFFFFFFFFFFFFFFFFFFFFFFFFFFFFFFFFFFFFFFF AND DUP2 MSTORE PUSH1 0x20 ADD SWAP1 DUP2 MSTORE PUSH1 0x20 ADD PUSH1 0x0 KECCAK256 SLOAD DUP2 SLOAD DUP2 LT ISZERO ISZERO PUSH3 0x26B0 JUMPI INVALID JUMPDEST SWAP1 PUSH1 0x0 MSTORE PUSH1 0x20 PUSH1 0x0 KECCAK256 ADD PUSH1 0x0 SWAP1 SLOAD SWAP1 PUSH2 0x100 EXP SWAP1 DIV PUSH20 0xFFFFFFFFFFFFFFFFFFFFFFFFFFFFFFFFFFFFFFFF AND PUSH20 0xFFFFFFFFFFFFFFFFFFFFFFFFFFFFFFFFFFFFFFFF AND PUSH4 0xDEE37A8E DUP4 PUSH1 0x40 MLOAD DUP3 PUSH4 0xFFFFFFFF AND PUSH29 0x100000000000000000000000000000000000000000000000000000000 MUL DUP2 MSTORE PUSH1 0x4 ADD DUP1 DUP3 DUP2 MSTORE PUSH1 0x20 ADD SWAP2 POP POP PUSH1 0x20 PUSH1 0x40 MLOAD DUP1 DUP4 SUB DUP2 PUSH1 0x0 DUP8 DUP1 EXTCODESIZE ISZERO DUP1 ISZERO PUSH3 0x274A JUMPI PUSH1 0x0 DUP1 REVERT JUMPDEST POP GAS CALL ISZERO DUP1 ISZERO PUSH3 0x275F JUMPI RETURNDATASIZE PUSH1 0x0 DUP1 RETURNDATACOPY RETURNDATASIZE PUSH1 0x0 REVERT JUMPDEST POP POP POP POP PUSH1 0x40 MLOAD RETURNDATASIZE PUSH1 0x20 DUP2 LT ISZERO PUSH3 0x2776 JUMPI PUSH1 0x0 DUP1 REVERT JUMPDEST DUP2 ADD SWAP1 DUP1 DUP1 MLOAD SWAP1 PUSH1 0x20 ADD SWAP1 SWAP3 SWAP2 SWAP1 POP POP POP SWAP1 POP DUP2 DUP2 PUSH20 0xFFFFFFFFFFFFFFFFFFFFFFFFFFFFFFFFFFFFFFFF AND PUSH32 0x6E0E2174DBF7B77C08B6F9A2799B9FEDA84A6D54A5644864582040100A47D4C5 PUSH1 0x40 MLOAD PUSH1 0x40 MLOAD DUP1 SWAP2 SUB SWAP1 LOG3 POP POP JUMP JUMPDEST PUSH1 0x60 PUSH1 0x0 PUSH1 0x3 PUSH1 0x0 CALLER PUSH20 0xFFFFFFFFFFFFFFFFFFFFFFFFFFFFFFFFFFFFFFFF AND PUSH20 0xFFFFFFFFFFFFFFFFFFFFFFFFFFFFFFFFFFFFFFFF AND DUP2 MSTORE PUSH1 0x20 ADD SWAP1 DUP2 MSTORE PUSH1 0x20 ADD PUSH1 0x0 KECCAK256 DUP1 SLOAD SWAP1 POP EQ ISZERO ISZERO ISZERO PUSH3 0x288F JUMPI PUSH1 0x40 MLOAD PUSH32 0x8C379A000000000000000000000000000000000000000000000000000000000 DUP2 MSTORE PUSH1 0x4 ADD DUP1 DUP1 PUSH1 0x20 ADD DUP3 DUP2 SUB DUP3 MSTORE PUSH1 0x17 DUP2 MSTORE PUSH1 0x20 ADD DUP1 PUSH32 0x596F7520646F6E2774206861766520616E792042696473000000000000000000 DUP2 MSTORE POP PUSH1 0x20 ADD SWAP2 POP POP PUSH1 0x40 MLOAD DUP1 SWAP2 SUB SWAP1 REVERT JUMPDEST PUSH1 0x3 PUSH1 0x0 CALLER PUSH20 0xFFFFFFFFFFFFFFFFFFFFFFFFFFFFFFFFFFFFFFFF AND PUSH20 0xFFFFFFFFFFFFFFFFFFFFFFFFFFFFFFFFFFFFFFFF AND DUP2 MSTORE PUSH1 0x20 ADD SWAP1 DUP2 MSTORE PUSH1 0x20 ADD PUSH1 0x0 KECCAK256 DUP1 SLOAD DUP1 PUSH1 0x20 MUL PUSH1 0x20 ADD PUSH1 0x40 MLOAD SWAP1 DUP2 ADD PUSH1 0x40 MSTORE DUP1 SWAP3 SWAP2 SWAP1 DUP2 DUP2 MSTORE PUSH1 0x20 ADD DUP3 DUP1 SLOAD DUP1 ISZERO PUSH3 0x291A JUMPI PUSH1 0x20 MUL DUP3 ADD SWAP2 SWAP1 PUSH1 0x0 MSTORE PUSH1 0x20 PUSH1 0x0 KECCAK256 SWAP1 JUMPDEST DUP2 SLOAD DUP2 MSTORE PUSH1 0x20 ADD SWAP1 PUSH1 0x1 ADD SWAP1 DUP1 DUP4 GT PUSH3 0x2905 JUMPI JUMPDEST POP POP POP POP POP SWAP1 POP SWAP1 JUMP JUMPDEST PUSH1 0x0 DUP1 PUSH1 0x0 DUP1 PUSH1 0x2 PUSH1 0x0 CALLER PUSH20 0xFFFFFFFFFFFFFFFFFFFFFFFFFFFFFFFFFFFFFFFF AND PUSH20 0xFFFFFFFFFFFFFFFFFFFFFFFFFFFFFFFFFFFFFFFF AND DUP2 MSTORE PUSH1 0x20 ADD SWAP1 DUP2 MSTORE PUSH1 0x20 ADD PUSH1 0x0 KECCAK256 SLOAD EQ ISZERO ISZERO PUSH3 0x2A06 JUMPI PUSH1 0x40 MLOAD PUSH32 0x8C379A000000000000000000000000000000000000000000000000000000000 DUP2 MSTORE PUSH1 0x4 ADD DUP1 DUP1 PUSH1 0x20 ADD DUP3 DUP2 SUB DUP3 MSTORE PUSH1 0x23 DUP2 MSTORE PUSH1 0x20 ADD DUP1 PUSH32 0x596F75206861766520616C7265616479206372656174656420616E2041756374 DUP2 MSTORE PUSH1 0x20 ADD PUSH32 0x696F6E0000000000000000000000000000000000000000000000000000000000 DUP2 MSTORE POP PUSH1 0x40 ADD SWAP2 POP POP PUSH1 0x40 MLOAD DUP1 SWAP2 SUB SWAP1 REVERT JUMPDEST PUSH1 0x1 DUP1 DUP1 SLOAD SWAP1 POP SUB PUSH1 0x0 SLOAD LT ISZERO ISZERO PUSH3 0x2AAD JUMPI PUSH1 0x40 MLOAD PUSH32 0x8C379A000000000000000000000000000000000000000000000000000000000 DUP2 MSTORE PUSH1 0x4 ADD DUP1 DUP1 PUSH1 0x20 ADD DUP3 DUP2 SUB DUP3 MSTORE PUSH1 0x34 DUP2 MSTORE PUSH1 0x20 ADD DUP1 PUSH32 0x41756374696F6E73204C696D697420726561636865642063616E277420637265 DUP2 MSTORE PUSH1 0x20 ADD PUSH32 0x61746520616E796D6F72652041756374696F6E73000000000000000000000000 DUP2 MSTORE POP PUSH1 0x40 ADD SWAP2 POP POP PUSH1 0x40 MLOAD DUP1 SWAP2 SUB SWAP1 REVERT JUMPDEST PUSH3 0x2ABF DUP11 DUP11 DUP11 PUSH1 0x0 DUP1 PUSH1 0x0 PUSH3 0x35CF JUMP JUMPDEST ISZERO ISZERO PUSH3 0x2B34 JUMPI PUSH1 0x40 MLOAD PUSH32 0x8C379A000000000000000000000000000000000000000000000000000000000 DUP2 MSTORE PUSH1 0x4 ADD DUP1 DUP1 PUSH1 0x20 ADD DUP3 DUP2 SUB DUP3 MSTORE PUSH1 0x16 DUP2 MSTORE PUSH1 0x20 ADD DUP1 PUSH32 0x456E7465722056616C6964205374617274204461746500000000000000000000 DUP2 MSTORE POP PUSH1 0x20 ADD SWAP2 POP POP PUSH1 0x40 MLOAD DUP1 SWAP2 SUB SWAP1 REVERT JUMPDEST PUSH3 0x2B46 DUP8 DUP8 DUP8 PUSH1 0x0 DUP1 PUSH1 0x0 PUSH3 0x35CF JUMP JUMPDEST ISZERO ISZERO PUSH3 0x2BBB JUMPI PUSH1 0x40 MLOAD PUSH32 0x8C379A000000000000000000000000000000000000000000000000000000000 DUP2 MSTORE PUSH1 0x4 ADD DUP1 DUP1 PUSH1 0x20 ADD DUP3 DUP2 SUB DUP3 MSTORE PUSH1 0x14 DUP2 MSTORE PUSH1 0x20 ADD DUP1 PUSH32 0x456E7465722056616C696420456E642044617465000000000000000000000000 DUP2 MSTORE POP PUSH1 0x20 ADD SWAP2 POP POP PUSH1 0x40 MLOAD DUP1 SWAP2 SUB SWAP1 REVERT JUMPDEST PUSH3 0x2BC8 DUP11 DUP11 DUP11 PUSH3 0x3618 JUMP JUMPDEST SWAP3 POP PUSH3 0x2BD7 DUP8 DUP8 DUP8 PUSH3 0x3618 JUMP JUMPDEST SWAP2 POP DUP3 TIMESTAMP LT DUP1 ISZERO PUSH3 0x2BE8 JUMPI POP DUP2 TIMESTAMP LT JUMPDEST DUP1 ISZERO PUSH3 0x2BF4 JUMPI POP DUP2 DUP4 LT JUMPDEST ISZERO ISZERO PUSH3 0x2C8F JUMPI PUSH1 0x40 MLOAD PUSH32 0x8C379A000000000000000000000000000000000000000000000000000000000 DUP2 MSTORE PUSH1 0x4 ADD DUP1 DUP1 PUSH1 0x20 ADD DUP3 DUP2 SUB DUP3 MSTORE PUSH1 0x2E DUP2 MSTORE PUSH1 0x20 ADD DUP1 PUSH32 0x20506C6561736520656E74657220612076616C696420696E74657276616C2066 DUP2 MSTORE PUSH1 0x20 ADD PUSH32 0x6F72207468652041756374696F6E000000000000000000000000000000000000 DUP2 MSTORE POP PUSH1 0x40 ADD SWAP2 POP POP PUSH1 0x40 MLOAD DUP1 SWAP2 SUB SWAP1 REVERT JUMPDEST PUSH1 0x1 PUSH1 0x0 SLOAD ADD PUSH1 0x0 DUP2 SWAP1 SSTORE POP DUP11 DUP4 DUP4 DUP7 PUSH3 0x2CA9 PUSH3 0x3927 JUMP JUMPDEST DUP1 DUP1 PUSH1 0x20 ADD DUP6 DUP2 MSTORE PUSH1 0x20 ADD DUP5 DUP2 MSTORE PUSH1 0x20 ADD DUP4 DUP2 MSTORE PUSH1 0x20 ADD DUP3 DUP2 SUB DUP3 MSTORE DUP7 DUP2 DUP2 MLOAD DUP2 MSTORE PUSH1 0x20 ADD SWAP2 POP DUP1 MLOAD SWAP1 PUSH1 0x20 ADD SWAP1 DUP1 DUP4 DUP4 PUSH1 0x0 JUMPDEST DUP4 DUP2 LT ISZERO PUSH3 0x2CFA JUMPI DUP1 DUP3 ADD MLOAD DUP2 DUP5 ADD MSTORE PUSH1 0x20 DUP2 ADD SWAP1 POP PUSH3 0x2CDD JUMP JUMPDEST POP POP POP POP SWAP1 POP SWAP1 DUP2 ADD SWAP1 PUSH1 0x1F AND DUP1 ISZERO PUSH3 0x2D28 JUMPI DUP1 DUP3 SUB DUP1 MLOAD PUSH1 0x1 DUP4 PUSH1 0x20 SUB PUSH2 0x100 EXP SUB NOT AND DUP2 MSTORE PUSH1 0x20 ADD SWAP2 POP JUMPDEST POP SWAP6 POP POP POP POP POP POP PUSH1 0x40 MLOAD DUP1 SWAP2 SUB SWAP1 PUSH1 0x0 CREATE DUP1 ISZERO DUP1 ISZERO PUSH3 0x2D4D JUMPI RETURNDATASIZE PUSH1 0x0 DUP1 RETURNDATACOPY RETURNDATASIZE PUSH1 0x0 REVERT JUMPDEST POP SWAP1 POP DUP1 PUSH1 0x1 PUSH1 0x0 SLOAD DUP2 SLOAD DUP2 LT ISZERO ISZERO PUSH3 0x2D63 JUMPI INVALID JUMPDEST SWAP1 PUSH1 0x0 MSTORE PUSH1 0x20 PUSH1 0x0 KECCAK256 ADD PUSH1 0x0 PUSH2 0x100 EXP DUP2 SLOAD DUP2 PUSH20 0xFFFFFFFFFFFFFFFFFFFFFFFFFFFFFFFFFFFFFFFF MUL NOT AND SWAP1 DUP4 PUSH20 0xFFFFFFFFFFFFFFFFFFFFFFFFFFFFFFFFFFFFFFFF AND MUL OR SWAP1 SSTORE POP PUSH1 0x0 SLOAD PUSH1 0x2 PUSH1 0x0 CALLER PUSH20 0xFFFFFFFFFFFFFFFFFFFFFFFFFFFFFFFFFFFFFFFF AND PUSH20 0xFFFFFFFFFFFFFFFFFFFFFFFFFFFFFFFFFFFFFFFF AND DUP2 MSTORE PUSH1 0x20 ADD SWAP1 DUP2 MSTORE PUSH1 0x20 ADD PUSH1 0x0 KECCAK256 DUP2 SWAP1 SSTORE POP TIMESTAMP PUSH1 0x0 SLOAD PUSH32 0x737A59893603EF25305AEF11AC201C15BB5FA4F4195223C5DD69109857781504 CALLER PUSH1 0x40 MLOAD DUP1 DUP3 PUSH20 0xFFFFFFFFFFFFFFFFFFFFFFFFFFFFFFFFFFFFFFFF AND PUSH20 0xFFFFFFFFFFFFFFFFFFFFFFFFFFFFFFFFFFFFFFFF AND DUP2 MSTORE PUSH1 0x20 ADD SWAP2 POP POP PUSH1 0x40 MLOAD DUP1 SWAP2 SUB SWAP1 LOG3 POP POP POP POP POP POP POP POP POP POP POP JUMP JUMPDEST PUSH1 0x60 PUSH1 0x0 PUSH1 0x2 PUSH1 0x0 CALLER PUSH20 0xFFFFFFFFFFFFFFFFFFFFFFFFFFFFFFFFFFFFFFFF AND PUSH20 0xFFFFFFFFFFFFFFFFFFFFFFFFFFFFFFFFFFFFFFFF AND DUP2 MSTORE PUSH1 0x20 ADD SWAP1 DUP2 MSTORE PUSH1 0x20 ADD PUSH1 0x0 KECCAK256 SLOAD EQ ISZERO ISZERO ISZERO PUSH3 0x2F20 JUMPI PUSH1 0x40 MLOAD PUSH32 0x8C379A000000000000000000000000000000000000000000000000000000000 DUP2 MSTORE PUSH1 0x4 ADD DUP1 DUP1 PUSH1 0x20 ADD DUP3 DUP2 SUB DUP3 MSTORE PUSH1 0x20 DUP2 MSTORE PUSH1 0x20 ADD DUP1 PUSH32 0x596F7520686176656E2774206372656174656420616E792041756374696F6E73 DUP2 MSTORE POP PUSH1 0x20 ADD SWAP2 POP POP PUSH1 0x40 MLOAD DUP1 SWAP2 SUB SWAP1 REVERT JUMPDEST PUSH1 0x1 PUSH1 0x2 PUSH1 0x0 CALLER PUSH20 0xFFFFFFFFFFFFFFFFFFFFFFFFFFFFFFFFFFFFFFFF AND PUSH20 0xFFFFFFFFFFFFFFFFFFFFFFFFFFFFFFFFFFFFFFFF AND DUP2 MSTORE PUSH1 0x20 ADD SWAP1 DUP2 MSTORE PUSH1 0x20 ADD PUSH1 0x0 KECCAK256 SLOAD DUP2 SLOAD DUP2 LT ISZERO ISZERO PUSH3 0x2F6F JUMPI INVALID JUMPDEST SWAP1 PUSH1 0x0 MSTORE PUSH1 0x20 PUSH1 0x0 KECCAK256 ADD PUSH1 0x0 SWAP1 SLOAD SWAP1 PUSH2 0x100 EXP SWAP1 DIV PUSH20 0xFFFFFFFFFFFFFFFFFFFFFFFFFFFFFFFFFFFFFFFF AND PUSH20 0xFFFFFFFFFFFFFFFFFFFFFFFFFFFFFFFFFFFFFFFF AND PUSH4 0x409766E6 PUSH1 0x40 MLOAD DUP2 PUSH4 0xFFFFFFFF AND PUSH29 0x100000000000000000000000000000000000000000000000000000000 MUL DUP2 MSTORE PUSH1 0x4 ADD PUSH1 0x20 PUSH1 0x40 MLOAD DUP1 DUP4 SUB DUP2 PUSH1 0x0 DUP8 DUP1 EXTCODESIZE ISZERO DUP1 ISZERO PUSH3 0x2FFE JUMPI PUSH1 0x0 DUP1 REVERT JUMPDEST POP GAS CALL ISZERO DUP1 ISZERO PUSH3 0x3013 JUMPI RETURNDATASIZE PUSH1 0x0 DUP1 RETURNDATACOPY RETURNDATASIZE PUSH1 0x0 REVERT JUMPDEST POP POP POP POP PUSH1 0x40 MLOAD RETURNDATASIZE PUSH1 0x20 DUP2 LT ISZERO PUSH3 0x302A JUMPI PUSH1 0x0 DUP1 REVERT JUMPDEST DUP2 ADD SWAP1 DUP1 DUP1 MLOAD SWAP1 PUSH1 0x20 ADD SWAP1 SWAP3 SWAP2 SWAP1 POP POP POP ISZERO ISZERO PUSH3 0x30D6 JUMPI PUSH1 0x40 MLOAD PUSH32 0x8C379A000000000000000000000000000000000000000000000000000000000 DUP2 MSTORE PUSH1 0x4 ADD DUP1 DUP1 PUSH1 0x20 ADD DUP3 DUP2 SUB DUP3 MSTORE PUSH1 0x24 DUP2 MSTORE PUSH1 0x20 ADD DUP1 PUSH32 0x5468657265206172656E277420616E792062696473206F6E2074686520417563 DUP2 MSTORE PUSH1 0x20 ADD PUSH32 0x74696F6E00000000000000000000000000000000000000000000000000000000 DUP2 MSTORE POP PUSH1 0x40 ADD SWAP2 POP POP PUSH1 0x40 MLOAD DUP1 SWAP2 SUB SWAP1 REVERT JUMPDEST PUSH1 0x1 PUSH1 0x2 PUSH1 0x0 CALLER PUSH20 0xFFFFFFFFFFFFFFFFFFFFFFFFFFFFFFFFFFFFFFFF AND PUSH20 0xFFFFFFFFFFFFFFFFFFFFFFFFFFFFFFFFFFFFFFFF AND DUP2 MSTORE PUSH1 0x20 ADD SWAP1 DUP2 MSTORE PUSH1 0x20 ADD PUSH1 0x0 KECCAK256 SLOAD DUP2 SLOAD DUP2 LT ISZERO ISZERO PUSH3 0x3125 JUMPI INVALID JUMPDEST SWAP1 PUSH1 0x0 MSTORE PUSH1 0x20 PUSH1 0x0 KECCAK256 ADD PUSH1 0x0 SWAP1 SLOAD SWAP1 PUSH2 0x100 EXP SWAP1 DIV PUSH20 0xFFFFFFFFFFFFFFFFFFFFFFFFFFFFFFFFFFFFFFFF AND PUSH20 0xFFFFFFFFFFFFFFFFFFFFFFFFFFFFFFFFFFFFFFFF AND PUSH4 0x679DBF0C PUSH1 0x40 MLOAD DUP2 PUSH4 0xFFFFFFFF AND PUSH29 0x100000000000000000000000000000000000000000000000000000000 MUL DUP2 MSTORE PUSH1 0x4 ADD PUSH1 0x0 PUSH1 0x40 MLOAD DUP1 DUP4 SUB DUP2 PUSH1 0x0 DUP8 DUP1 EXTCODESIZE ISZERO DUP1 ISZERO PUSH3 0x31B4 JUMPI PUSH1 0x0 DUP1 REVERT JUMPDEST POP GAS CALL ISZERO DUP1 ISZERO PUSH3 0x31C9 JUMPI RETURNDATASIZE PUSH1 0x0 DUP1 RETURNDATACOPY RETURNDATASIZE PUSH1 0x0 REVERT JUMPDEST POP POP POP POP PUSH1 0x40 MLOAD RETURNDATASIZE PUSH1 0x0 DUP3 RETURNDATACOPY RETURNDATASIZE PUSH1 0x1F NOT PUSH1 0x1F DUP3 ADD AND DUP3 ADD DUP1 PUSH1 0x40 MSTORE POP PUSH1 0x20 DUP2 LT ISZERO PUSH3 0x31F4 JUMPI PUSH1 0x0 DUP1 REVERT JUMPDEST DUP2 ADD SWAP1 DUP1 DUP1 MLOAD PUSH5 0x100000000 DUP2 GT ISZERO PUSH3 0x320D JUMPI PUSH1 0x0 DUP1 REVERT JUMPDEST DUP3 DUP2 ADD SWAP1 POP PUSH1 0x20 DUP2 ADD DUP5 DUP2 GT ISZERO PUSH3 0x3224 JUMPI PUSH1 0x0 DUP1 REVERT JUMPDEST DUP2 MLOAD DUP6 PUSH1 0x20 DUP3 MUL DUP4 ADD GT PUSH5 0x100000000 DUP3 GT OR ISZERO PUSH3 0x3242 JUMPI PUSH1 0x0 DUP1 REVERT JUMPDEST POP POP SWAP3 SWAP2 SWAP1 POP POP POP SWAP1 POP SWAP1 JUMP JUMPDEST PUSH1 0x0 DUP1 PUSH1 0x0 DUP1 PUSH1 0x2 PUSH1 0x0 CALLER PUSH20 0xFFFFFFFFFFFFFFFFFFFFFFFFFFFFFFFFFFFFFFFF AND PUSH20 0xFFFFFFFFFFFFFFFFFFFFFFFFFFFFFFFFFFFFFFFF AND DUP2 MSTORE PUSH1 0x20 ADD SWAP1 DUP2 MSTORE PUSH1 0x20 ADD PUSH1 0x0 KECCAK256 SLOAD EQ ISZERO ISZERO ISZERO PUSH3 0x330C JUMPI PUSH1 0x40 MLOAD PUSH32 0x8C379A000000000000000000000000000000000000000000000000000000000 DUP2 MSTORE PUSH1 0x4 ADD DUP1 DUP1 PUSH1 0x20 ADD DUP3 DUP2 SUB DUP3 MSTORE PUSH1 0x20 DUP2 MSTORE PUSH1 0x20 ADD DUP1 PUSH32 0x596F7520686176656E2774206372656174656420616E792041756374696F6E73 DUP2 MSTORE POP PUSH1 0x20 ADD SWAP2 POP POP PUSH1 0x40 MLOAD DUP1 SWAP2 SUB SWAP1 REVERT JUMPDEST PUSH1 0x1 PUSH1 0x2 PUSH1 0x0 CALLER PUSH20 0xFFFFFFFFFFFFFFFFFFFFFFFFFFFFFFFFFFFFFFFF AND PUSH20 0xFFFFFFFFFFFFFFFFFFFFFFFFFFFFFFFFFFFFFFFF AND DUP2 MSTORE PUSH1 0x20 ADD SWAP1 DUP2 MSTORE PUSH1 0x20 ADD PUSH1 0x0 KECCAK256 SLOAD DUP2 SLOAD DUP2 LT ISZERO ISZERO PUSH3 0x335B JUMPI INVALID JUMPDEST SWAP1 PUSH1 0x0 MSTORE PUSH1 0x20 PUSH1 0x0 KECCAK256 ADD PUSH1 0x0 SWAP1 SLOAD SWAP1 PUSH2 0x100 EXP SWAP1 DIV PUSH20 0xFFFFFFFFFFFFFFFFFFFFFFFFFFFFFFFFFFFFFFFF AND PUSH20 0xFFFFFFFFFFFFFFFFFFFFFFFFFFFFFFFFFFFFFFFF AND PUSH4 0xDD06BA1A PUSH1 0x40 MLOAD DUP2 PUSH4 0xFFFFFFFF AND PUSH29 0x100000000000000000000000000000000000000000000000000000000 MUL DUP2 MSTORE PUSH1 0x4 ADD PUSH1 0x20 PUSH1 0x40 MLOAD DUP1 DUP4 SUB DUP2 PUSH1 0x0 DUP8 DUP1 EXTCODESIZE ISZERO DUP1 ISZERO PUSH3 0x33EA JUMPI PUSH1 0x0 DUP1 REVERT JUMPDEST POP GAS CALL ISZERO DUP1 ISZERO PUSH3 0x33FF JUMPI RETURNDATASIZE PUSH1 0x0 DUP1 RETURNDATACOPY RETURNDATASIZE PUSH1 0x0 REVERT JUMPDEST POP POP POP POP PUSH1 0x40 MLOAD RETURNDATASIZE PUSH1 0x20 DUP2 LT ISZERO PUSH3 0x3416 JUMPI PUSH1 0x0 DUP1 REVERT JUMPDEST DUP2 ADD SWAP1 DUP1 DUP1 MLOAD SWAP1 PUSH1 0x20 ADD SWAP1 SWAP3 SWAP2 SWAP1 POP POP POP SWAP2 POP PUSH1 0x1 PUSH1 0x2 PUSH1 0x0 CALLER PUSH20 0xFFFFFFFFFFFFFFFFFFFFFFFFFFFFFFFFFFFFFFFF AND PUSH20 0xFFFFFFFFFFFFFFFFFFFFFFFFFFFFFFFFFFFFFFFF AND DUP2 MSTORE PUSH1 0x20 ADD SWAP1 DUP2 MSTORE PUSH1 0x20 ADD PUSH1 0x0 KECCAK256 SLOAD DUP2 SLOAD DUP2 LT ISZERO ISZERO PUSH3 0x3478 JUMPI INVALID JUMPDEST SWAP1 PUSH1 0x0 MSTORE PUSH1 0x20 PUSH1 0x0 KECCAK256 ADD PUSH1 0x0 SWAP1 SLOAD SWAP1 PUSH2 0x100 EXP SWAP1 DIV PUSH20 0xFFFFFFFFFFFFFFFFFFFFFFFFFFFFFFFFFFFFFFFF AND PUSH20 0xFFFFFFFFFFFFFFFFFFFFFFFFFFFFFFFFFFFFFFFF AND PUSH4 0xDEE37A8E DUP4 PUSH1 0x40 MLOAD DUP3 PUSH4 0xFFFFFFFF AND PUSH29 0x100000000000000000000000000000000000000000000000000000000 MUL DUP2 MSTORE PUSH1 0x4 ADD DUP1 DUP3 DUP2 MSTORE PUSH1 0x20 ADD SWAP2 POP POP PUSH1 0x20 PUSH1 0x40 MLOAD DUP1 DUP4 SUB DUP2 PUSH1 0x0 DUP8 DUP1 EXTCODESIZE ISZERO DUP1 ISZERO PUSH3 0x3512 JUMPI PUSH1 0x0 DUP1 REVERT JUMPDEST POP GAS CALL ISZERO DUP1 ISZERO PUSH3 0x3527 JUMPI RETURNDATASIZE PUSH1 0x0 DUP1 RETURNDATACOPY RETURNDATASIZE PUSH1 0x0 REVERT JUMPDEST POP POP POP POP PUSH1 0x40 MLOAD RETURNDATASIZE PUSH1 0x20 DUP2 LT ISZERO PUSH3 0x353E JUMPI PUSH1 0x0 DUP1 REVERT JUMPDEST DUP2 ADD SWAP1 DUP1 DUP1 MLOAD SWAP1 PUSH1 0x20 ADD SWAP1 SWAP3 SWAP2 SWAP1 POP POP POP SWAP1 POP DUP2 DUP2 PUSH20 0xFFFFFFFFFFFFFFFFFFFFFFFFFFFFFFFFFFFFFFFF AND PUSH32 0x6E0E2174DBF7B77C08B6F9A2799B9FEDA84A6D54A5644864582040100A47D4C5 PUSH1 0x40 MLOAD PUSH1 0x40 MLOAD DUP1 SWAP2 SUB SWAP1 LOG3 DUP1 SWAP3 POP POP POP SWAP1 JUMP JUMPDEST PUSH1 0x0 DUP1 PUSH1 0x0 PUSH3 0x35BC PUSH3 0x15180 DUP6 DUP2 ISZERO ISZERO PUSH3 0x35B5 JUMPI INVALID JUMPDEST DIV PUSH3 0x3635 JUMP JUMPDEST DUP1 SWAP4 POP DUP2 SWAP5 POP DUP3 SWAP6 POP POP POP POP SWAP2 SWAP4 SWAP1 SWAP3 POP JUMP JUMPDEST PUSH1 0x0 PUSH3 0x35DE DUP8 DUP8 DUP8 PUSH3 0x371C JUMP JUMPDEST ISZERO PUSH3 0x360E JUMPI PUSH1 0x18 DUP5 LT DUP1 ISZERO PUSH3 0x35F5 JUMPI POP PUSH1 0x3C DUP4 LT JUMPDEST DUP1 ISZERO PUSH3 0x3602 JUMPI POP PUSH1 0x3C DUP3 LT JUMPDEST ISZERO PUSH3 0x360D JUMPI PUSH1 0x1 SWAP1 POP JUMPDEST JUMPDEST SWAP7 SWAP6 POP POP POP POP POP POP JUMP JUMPDEST PUSH1 0x0 PUSH3 0x15180 PUSH3 0x362B DUP6 DUP6 DUP6 PUSH3 0x3779 JUMP JUMPDEST MUL SWAP1 POP SWAP4 SWAP3 POP POP POP JUMP JUMPDEST PUSH1 0x0 DUP1 PUSH1 0x0 DUP1 PUSH1 0x0 DUP1 PUSH1 0x0 DUP1 PUSH1 0x0 DUP10 SWAP6 POP PUSH3 0x253D8C PUSH3 0x10BD9 DUP8 ADD ADD SWAP5 POP PUSH3 0x23AB1 DUP6 PUSH1 0x4 MUL DUP2 ISZERO ISZERO PUSH3 0x3665 JUMPI INVALID JUMPDEST SDIV SWAP4 POP PUSH1 0x4 PUSH1 0x3 DUP6 PUSH3 0x23AB1 MUL ADD DUP2 ISZERO ISZERO PUSH3 0x367D JUMPI INVALID JUMPDEST SDIV DUP6 SUB SWAP5 POP PUSH3 0x164B09 PUSH1 0x1 DUP7 ADD PUSH2 0xFA0 MUL DUP2 ISZERO ISZERO PUSH3 0x3698 JUMPI INVALID JUMPDEST SDIV SWAP3 POP PUSH1 0x1F PUSH1 0x4 DUP5 PUSH2 0x5B5 MUL DUP2 ISZERO ISZERO PUSH3 0x36AE JUMPI INVALID JUMPDEST SDIV DUP7 SUB ADD SWAP5 POP PUSH2 0x98F DUP6 PUSH1 0x50 MUL DUP2 ISZERO ISZERO PUSH3 0x36C5 JUMPI INVALID JUMPDEST SDIV SWAP2 POP PUSH1 0x50 DUP3 PUSH2 0x98F MUL DUP2 ISZERO ISZERO PUSH3 0x36D9 JUMPI INVALID JUMPDEST SDIV DUP6 SUB SWAP1 POP PUSH1 0xB DUP3 DUP2 ISZERO ISZERO PUSH3 0x36EB JUMPI INVALID JUMPDEST SDIV SWAP5 POP DUP5 PUSH1 0xC MUL PUSH1 0x2 DUP4 ADD SUB SWAP2 POP DUP5 DUP4 PUSH1 0x31 DUP7 SUB PUSH1 0x64 MUL ADD ADD SWAP3 POP DUP3 SWAP9 POP DUP2 SWAP8 POP DUP1 SWAP7 POP POP POP POP POP POP POP SWAP2 SWAP4 SWAP1 SWAP3 POP JUMP JUMPDEST PUSH1 0x0 DUP1 PUSH2 0x7B2 DUP6 LT ISZERO DUP1 ISZERO PUSH3 0x3732 JUMPI POP PUSH1 0x0 DUP5 GT JUMPDEST DUP1 ISZERO PUSH3 0x3740 JUMPI POP PUSH1 0xC DUP5 GT ISZERO JUMPDEST ISZERO PUSH3 0x3771 JUMPI PUSH3 0x3752 DUP6 DUP6 PUSH3 0x383E JUMP JUMPDEST SWAP1 POP PUSH1 0x0 DUP4 GT DUP1 ISZERO PUSH3 0x3765 JUMPI POP DUP1 DUP4 GT ISZERO JUMPDEST ISZERO PUSH3 0x3770 JUMPI PUSH1 0x1 SWAP2 POP JUMPDEST JUMPDEST POP SWAP4 SWAP3 POP POP POP JUMP JUMPDEST PUSH1 0x0 DUP1 PUSH1 0x0 DUP1 PUSH1 0x0 PUSH2 0x7B2 DUP9 LT ISZERO ISZERO ISZERO PUSH3 0x3793 JUMPI PUSH1 0x0 DUP1 REVERT JUMPDEST DUP8 SWAP4 POP DUP7 SWAP3 POP DUP6 SWAP2 POP PUSH3 0x253D8C PUSH1 0x4 PUSH1 0x64 PUSH1 0xC PUSH1 0xE DUP8 SUB DUP2 ISZERO ISZERO PUSH3 0x37B4 JUMPI INVALID JUMPDEST SDIV PUSH2 0x1324 DUP9 ADD ADD DUP2 ISZERO ISZERO PUSH3 0x37C5 JUMPI INVALID JUMPDEST SDIV PUSH1 0x3 MUL DUP2 ISZERO ISZERO PUSH3 0x37D3 JUMPI INVALID JUMPDEST SDIV PUSH1 0xC DUP1 PUSH1 0xC PUSH1 0xE DUP9 SUB DUP2 ISZERO ISZERO PUSH3 0x37E7 JUMPI INVALID JUMPDEST SDIV MUL PUSH1 0x2 DUP8 SUB SUB PUSH2 0x16F MUL DUP2 ISZERO ISZERO PUSH3 0x37FC JUMPI INVALID JUMPDEST SDIV PUSH1 0x4 PUSH1 0xC PUSH1 0xE DUP9 SUB DUP2 ISZERO ISZERO PUSH3 0x380F JUMPI INVALID JUMPDEST SDIV PUSH2 0x12C0 DUP10 ADD ADD PUSH2 0x5B5 MUL DUP2 ISZERO ISZERO PUSH3 0x3824 JUMPI INVALID JUMPDEST SDIV PUSH2 0x7D4B DUP7 SUB ADD ADD SUB SUB SWAP1 POP DUP1 SWAP5 POP POP POP POP POP SWAP4 SWAP3 POP POP POP JUMP JUMPDEST PUSH1 0x0 PUSH1 0x1 DUP3 EQ DUP1 PUSH3 0x3850 JUMPI POP PUSH1 0x3 DUP3 EQ JUMPDEST DUP1 PUSH3 0x385C JUMPI POP PUSH1 0x5 DUP3 EQ JUMPDEST DUP1 PUSH3 0x3868 JUMPI POP PUSH1 0x7 DUP3 EQ JUMPDEST DUP1 PUSH3 0x3874 JUMPI POP PUSH1 0x8 DUP3 EQ JUMPDEST DUP1 PUSH3 0x3880 JUMPI POP PUSH1 0xA DUP3 EQ JUMPDEST DUP1 PUSH3 0x388C JUMPI POP PUSH1 0xC DUP3 EQ JUMPDEST ISZERO PUSH3 0x389C JUMPI PUSH1 0x1F SWAP1 POP PUSH3 0x38D3 JUMP JUMPDEST PUSH1 0x2 DUP3 EQ ISZERO ISZERO PUSH3 0x38B1 JUMPI PUSH1 0x1E SWAP1 POP PUSH3 0x38D2 JUMP JUMPDEST PUSH3 0x38BC DUP4 PUSH3 0x38D9 JUMP JUMPDEST PUSH3 0x38C9 JUMPI PUSH1 0x1C PUSH3 0x38CC JUMP JUMPDEST PUSH1 0x1D JUMPDEST PUSH1 0xFF AND SWAP1 POP JUMPDEST JUMPDEST SWAP3 SWAP2 POP POP JUMP JUMPDEST PUSH1 0x0 DUP1 PUSH1 0x4 DUP4 DUP2 ISZERO ISZERO PUSH3 0x38E9 JUMPI INVALID JUMPDEST MOD EQ DUP1 ISZERO PUSH3 0x3906 JUMPI POP PUSH1 0x0 PUSH1 0x64 DUP4 DUP2 ISZERO ISZERO PUSH3 0x3902 JUMPI INVALID JUMPDEST MOD EQ ISZERO JUMPDEST DUP1 PUSH3 0x3920 JUMPI POP PUSH1 0x0 PUSH2 0x190 DUP4 DUP2 ISZERO ISZERO PUSH3 0x391D JUMPI INVALID JUMPDEST MOD EQ JUMPDEST SWAP1 POP SWAP2 SWAP1 POP JUMP JUMPDEST PUSH1 0x40 MLOAD PUSH2 0x110B DUP1 PUSH3 0x3939 DUP4 CODECOPY ADD SWAP1 JUMP STOP PUSH1 0x80 PUSH1 0x40 MSTORE CALLVALUE DUP1 ISZERO PUSH2 0x10 JUMPI PUSH1 0x0 DUP1 REVERT JUMPDEST POP PUSH1 0x40 MLOAD PUSH2 0x110B CODESIZE SUB DUP1 PUSH2 0x110B DUP4 CODECOPY DUP2 ADD DUP1 PUSH1 0x40 MSTORE DUP2 ADD SWAP1 DUP1 DUP1 MLOAD DUP3 ADD SWAP3 SWAP2 SWAP1 PUSH1 0x20 ADD DUP1 MLOAD SWAP1 PUSH1 0x20 ADD SWAP1 SWAP3 SWAP2 SWAP1 DUP1 MLOAD SWAP1 PUSH1 0x20 ADD SWAP1 SWAP3 SWAP2 SWAP1 DUP1 MLOAD SWAP1 PUSH1 0x20 ADD SWAP1 SWAP3 SWAP2 SWAP1 POP POP POP DUP4 PUSH1 0x0 SWAP1 DUP1 MLOAD SWAP1 PUSH1 0x20 ADD SWAP1 PUSH2 0x6A SWAP3 SWAP2 SWAP1 PUSH2 0x89 JUMP JUMPDEST POP DUP3 PUSH1 0x1 DUP2 SWAP1 SSTORE POP DUP2 PUSH1 0x2 DUP2 SWAP1 SSTORE POP DUP1 PUSH1 0x3 DUP2 SWAP1 SSTORE POP POP POP POP POP PUSH2 0x12E JUMP JUMPDEST DUP3 DUP1 SLOAD PUSH1 0x1 DUP2 PUSH1 0x1 AND ISZERO PUSH2 0x100 MUL SUB AND PUSH1 0x2 SWAP1 DIV SWAP1 PUSH1 0x0 MSTORE PUSH1 0x20 PUSH1 0x0 KECCAK256 SWAP1 PUSH1 0x1F ADD PUSH1 0x20 SWAP1 DIV DUP2 ADD SWAP3 DUP3 PUSH1 0x1F LT PUSH2 0xCA JUMPI DUP1 MLOAD PUSH1 0xFF NOT AND DUP4 DUP1 ADD OR DUP6 SSTORE PUSH2 0xF8 JUMP JUMPDEST DUP3 DUP1 ADD PUSH1 0x1 ADD DUP6 SSTORE DUP3 ISZERO PUSH2 0xF8 JUMPI SWAP2 DUP3 ADD JUMPDEST DUP3 DUP2 GT ISZERO PUSH2 0xF7 JUMPI DUP3 MLOAD DUP3 SSTORE SWAP2 PUSH1 0x20 ADD SWAP2 SWAP1 PUSH1 0x1 ADD SWAP1 PUSH2 0xDC JUMP JUMPDEST JUMPDEST POP SWAP1 POP PUSH2 0x105 SWAP2 SWAP1 PUSH2 0x109 JUMP JUMPDEST POP SWAP1 JUMP JUMPDEST PUSH2 0x12B SWAP2 SWAP1 JUMPDEST DUP1 DUP3 GT ISZERO PUSH2 0x127 JUMPI PUSH1 0x0 DUP2 PUSH1 0x0 SWAP1 SSTORE POP PUSH1 0x1 ADD PUSH2 0x10F JUMP JUMPDEST POP SWAP1 JUMP JUMPDEST SWAP1 JUMP JUMPDEST PUSH2 0xFCE DUP1 PUSH2 0x13D PUSH1 0x0 CODECOPY PUSH1 0x0 RETURN STOP PUSH1 0x80 PUSH1 0x40 MSTORE PUSH1 0x4 CALLDATASIZE LT PUSH2 0xAF JUMPI PUSH1 0x0 CALLDATALOAD PUSH29 0x100000000000000000000000000000000000000000000000000000000 SWAP1 DIV PUSH4 0xFFFFFFFF AND DUP1 PUSH4 0x1A092541 EQ PUSH2 0xB4 JUMPI DUP1 PUSH4 0x409766E6 EQ PUSH2 0x144 JUMPI DUP1 PUSH4 0x43129DE1 EQ PUSH2 0x173 JUMPI DUP1 PUSH4 0x439F5AC2 EQ PUSH2 0x1A0 JUMPI DUP1 PUSH4 0x62EA82DB EQ PUSH2 0x1CB JUMPI DUP1 PUSH4 0x659DD2B4 EQ PUSH2 0x222 JUMPI DUP1 PUSH4 0x679DBF0C EQ PUSH2 0x24F JUMPI DUP1 PUSH4 0xAD934674 EQ PUSH2 0x2BB JUMPI DUP1 PUSH4 0xC828371E EQ PUSH2 0x2E6 JUMPI DUP1 PUSH4 0xDD06BA1A EQ PUSH2 0x311 JUMPI DUP1 PUSH4 0xDEE37A8E EQ PUSH2 0x33C JUMPI JUMPDEST PUSH1 0x0 DUP1 REVERT JUMPDEST CALLVALUE DUP1 ISZERO PUSH2 0xC0 JUMPI PUSH1 0x0 DUP1 REVERT JUMPDEST POP PUSH2 0xC9 PUSH2 0x3A9 JUMP JUMPDEST PUSH1 0x40 MLOAD DUP1 DUP1 PUSH1 0x20 ADD DUP3 DUP2 SUB DUP3 MSTORE DUP4 DUP2 DUP2 MLOAD DUP2 MSTORE PUSH1 0x20 ADD SWAP2 POP DUP1 MLOAD SWAP1 PUSH1 0x20 ADD SWAP1 DUP1 DUP4 DUP4 PUSH1 0x0 JUMPDEST DUP4 DUP2 LT ISZERO PUSH2 0x109 JUMPI DUP1 DUP3 ADD MLOAD DUP2 DUP5 ADD MSTORE PUSH1 0x20 DUP2 ADD SWAP1 POP PUSH2 0xEE JUMP JUMPDEST POP POP POP POP SWAP1 POP SWAP1 DUP2 ADD SWAP1 PUSH1 0x1F AND DUP1 ISZERO PUSH2 0x136 JUMPI DUP1 DUP3 SUB DUP1 MLOAD PUSH1 0x1 DUP4 PUSH1 0x20 SUB PUSH2 0x100 EXP SUB NOT AND DUP2 MSTORE PUSH1 0x20 ADD SWAP2 POP JUMPDEST POP SWAP3 POP POP POP PUSH1 0x40 MLOAD DUP1 SWAP2 SUB SWAP1 RETURN JUMPDEST CALLVALUE DUP1 ISZERO PUSH2 0x150 JUMPI PUSH1 0x0 DUP1 REVERT JUMPDEST POP PUSH2 0x159 PUSH2 0x44B JUMP JUMPDEST PUSH1 0x40 MLOAD DUP1 DUP3 ISZERO ISZERO ISZERO ISZERO DUP2 MSTORE PUSH1 0x20 ADD SWAP2 POP POP PUSH1 0x40 MLOAD DUP1 SWAP2 SUB SWAP1 RETURN JUMPDEST CALLVALUE DUP1 ISZERO PUSH2 0x17F JUMPI PUSH1 0x0 DUP1 REVERT JUMPDEST POP PUSH2 0x19E PUSH1 0x4 DUP1 CALLDATASIZE SUB DUP2 ADD SWAP1 DUP1 DUP1 CALLDATALOAD SWAP1 PUSH1 0x20 ADD SWAP1 SWAP3 SWAP2 SWAP1 POP POP POP PUSH2 0x462 JUMP JUMPDEST STOP JUMPDEST CALLVALUE DUP1 ISZERO PUSH2 0x1AC JUMPI PUSH1 0x0 DUP1 REVERT JUMPDEST POP PUSH2 0x1B5 PUSH2 0x6C7 JUMP JUMPDEST PUSH1 0x40 MLOAD DUP1 DUP3 DUP2 MSTORE PUSH1 0x20 ADD SWAP2 POP POP PUSH1 0x40 MLOAD DUP1 SWAP2 SUB SWAP1 RETURN JUMPDEST CALLVALUE DUP1 ISZERO PUSH2 0x1D7 JUMPI PUSH1 0x0 DUP1 REVERT JUMPDEST POP PUSH2 0x20C PUSH1 0x4 DUP1 CALLDATASIZE SUB DUP2 ADD SWAP1 DUP1 DUP1 CALLDATALOAD PUSH20 0xFFFFFFFFFFFFFFFFFFFFFFFFFFFFFFFFFFFFFFFF AND SWAP1 PUSH1 0x20 ADD SWAP1 SWAP3 SWAP2 SWAP1 POP POP POP PUSH2 0x6D1 JUMP JUMPDEST PUSH1 0x40 MLOAD DUP1 DUP3 DUP2 MSTORE PUSH1 0x20 ADD SWAP2 POP POP PUSH1 0x40 MLOAD DUP1 SWAP2 SUB SWAP1 RETURN JUMPDEST CALLVALUE DUP1 ISZERO PUSH2 0x22E JUMPI PUSH1 0x0 DUP1 REVERT JUMPDEST POP PUSH2 0x24D PUSH1 0x4 DUP1 CALLDATASIZE SUB DUP2 ADD SWAP1 DUP1 DUP1 CALLDATALOAD SWAP1 PUSH1 0x20 ADD SWAP1 SWAP3 SWAP2 SWAP1 POP POP POP PUSH2 0x6E9 JUMP JUMPDEST STOP JUMPDEST CALLVALUE DUP1 ISZERO PUSH2 0x25B JUMPI PUSH1 0x0 DUP1 REVERT JUMPDEST POP PUSH2 0x264 PUSH2 0x9A8 JUMP JUMPDEST PUSH1 0x40 MLOAD DUP1 DUP1 PUSH1 0x20 ADD DUP3 DUP2 SUB DUP3 MSTORE DUP4 DUP2 DUP2 MLOAD DUP2 MSTORE PUSH1 0x20 ADD SWAP2 POP DUP1 MLOAD SWAP1 PUSH1 0x20 ADD SWAP1 PUSH1 0x20 MUL DUP1 DUP4 DUP4 PUSH1 0x0 JUMPDEST DUP4 DUP2 LT ISZERO PUSH2 0x2A7 JUMPI DUP1 DUP3 ADD MLOAD DUP2 DUP5 ADD MSTORE PUSH1 0x20 DUP2 ADD SWAP1 POP PUSH2 0x28C JUMP JUMPDEST POP POP POP POP SWAP1 POP ADD SWAP3 POP POP POP PUSH1 0x40 MLOAD DUP1 SWAP2 SUB SWAP1 RETURN JUMPDEST CALLVALUE DUP1 ISZERO PUSH2 0x2C7 JUMPI PUSH1 0x0 DUP1 REVERT JUMPDEST POP PUSH2 0x2D0 PUSH2 0xB15 JUMP JUMPDEST PUSH1 0x40 MLOAD DUP1 DUP3 DUP2 MSTORE PUSH1 0x20 ADD SWAP2 POP POP PUSH1 0x40 MLOAD DUP1 SWAP2 SUB SWAP1 RETURN JUMPDEST CALLVALUE DUP1 ISZERO PUSH2 0x2F2 JUMPI PUSH1 0x0 DUP1 REVERT JUMPDEST POP PUSH2 0x2FB PUSH2 0xB98 JUMP JUMPDEST PUSH1 0x40 MLOAD DUP1 DUP3 DUP2 MSTORE PUSH1 0x20 ADD SWAP2 POP POP PUSH1 0x40 MLOAD DUP1 SWAP2 SUB SWAP1 RETURN JUMPDEST CALLVALUE DUP1 ISZERO PUSH2 0x31D JUMPI PUSH1 0x0 DUP1 REVERT JUMPDEST POP PUSH2 0x326 PUSH2 0xBA2 JUMP JUMPDEST PUSH1 0x40 MLOAD DUP1 DUP3 DUP2 MSTORE PUSH1 0x20 ADD SWAP2 POP POP PUSH1 0x40 MLOAD DUP1 SWAP2 SUB SWAP1 RETURN JUMPDEST CALLVALUE DUP1 ISZERO PUSH2 0x348 JUMPI PUSH1 0x0 DUP1 REVERT JUMPDEST POP PUSH2 0x367 PUSH1 0x4 DUP1 CALLDATASIZE SUB DUP2 ADD SWAP1 DUP1 DUP1 CALLDATALOAD SWAP1 PUSH1 0x20 ADD SWAP1 SWAP3 SWAP2 SWAP1 POP POP POP PUSH2 0xCCB JUMP JUMPDEST PUSH1 0x40 MLOAD DUP1 DUP3 PUSH20 0xFFFFFFFFFFFFFFFFFFFFFFFFFFFFFFFFFFFFFFFF AND PUSH20 0xFFFFFFFFFFFFFFFFFFFFFFFFFFFFFFFFFFFFFFFF AND DUP2 MSTORE PUSH1 0x20 ADD SWAP2 POP POP PUSH1 0x40 MLOAD DUP1 SWAP2 SUB SWAP1 RETURN JUMPDEST PUSH1 0x60 PUSH1 0x0 DUP1 SLOAD PUSH1 0x1 DUP2 PUSH1 0x1 AND ISZERO PUSH2 0x100 MUL SUB AND PUSH1 0x2 SWAP1 DIV DUP1 PUSH1 0x1F ADD PUSH1 0x20 DUP1 SWAP2 DIV MUL PUSH1 0x20 ADD PUSH1 0x40 MLOAD SWAP1 DUP2 ADD PUSH1 0x40 MSTORE DUP1 SWAP3 SWAP2 SWAP1 DUP2 DUP2 MSTORE PUSH1 0x20 ADD DUP3 DUP1 SLOAD PUSH1 0x1 DUP2 PUSH1 0x1 AND ISZERO PUSH2 0x100 MUL SUB AND PUSH1 0x2 SWAP1 DIV DUP1 ISZERO PUSH2 0x441 JUMPI DUP1 PUSH1 0x1F LT PUSH2 0x416 JUMPI PUSH2 0x100 DUP1 DUP4 SLOAD DIV MUL DUP4 MSTORE SWAP2 PUSH1 0x20 ADD SWAP2 PUSH2 0x441 JUMP JUMPDEST DUP3 ADD SWAP2 SWAP1 PUSH1 0x0 MSTORE PUSH1 0x20 PUSH1 0x0 KECCAK256 SWAP1 JUMPDEST DUP2 SLOAD DUP2 MSTORE SWAP1 PUSH1 0x1 ADD SWAP1 PUSH1 0x20 ADD DUP1 DUP4 GT PUSH2 0x424 JUMPI DUP3 SWAP1 SUB PUSH1 0x1F AND DUP3 ADD SWAP2 JUMPDEST POP POP POP POP POP SWAP1 POP SWAP1 JUMP JUMPDEST PUSH1 0x0 PUSH1 0x4 PUSH1 0x0 SWAP1 SLOAD SWAP1 PUSH2 0x100 EXP SWAP1 DIV PUSH1 0xFF AND SWAP1 POP SWAP1 JUMP JUMPDEST DUP1 PUSH1 0x3 SLOAD DUP2 GT ISZERO ISZERO PUSH2 0x528 JUMPI PUSH1 0x40 MLOAD PUSH32 0x8C379A000000000000000000000000000000000000000000000000000000000 DUP2 MSTORE PUSH1 0x4 ADD DUP1 DUP1 PUSH1 0x20 ADD DUP3 DUP2 SUB DUP3 MSTORE PUSH1 0x45 DUP2 MSTORE PUSH1 0x20 ADD DUP1 PUSH32 0x506C6561736520656E7465722061206269642067726561746572207468616E20 DUP2 MSTORE PUSH1 0x20 ADD PUSH32 0x6D696E696D756D20726571756972656420626964206F6620676976656E206175 DUP2 MSTORE PUSH1 0x20 ADD PUSH32 0x6374696F6E000000000000000000000000000000000000000000000000000000 DUP2 MSTORE POP PUSH1 0x60 ADD SWAP2 POP POP PUSH1 0x40 MLOAD DUP1 SWAP2 SUB SWAP1 REVERT JUMPDEST PUSH1 0x2 SLOAD TIMESTAMP LT ISZERO ISZERO PUSH2 0x5A1 JUMPI PUSH1 0x40 MLOAD PUSH32 0x8C379A000000000000000000000000000000000000000000000000000000000 DUP2 MSTORE PUSH1 0x4 ADD DUP1 DUP1 PUSH1 0x20 ADD DUP3 DUP2 SUB DUP3 MSTORE PUSH1 0x14 DUP2 MSTORE PUSH1 0x20 ADD DUP1 PUSH32 0x41756374696F6E20697320496E61637469766520000000000000000000000000 DUP2 MSTORE POP PUSH1 0x20 ADD SWAP2 POP POP PUSH1 0x40 MLOAD DUP1 SWAP2 SUB SWAP1 REVERT JUMPDEST PUSH1 0x0 PUSH1 0x5 PUSH1 0x0 ORIGIN PUSH20 0xFFFFFFFFFFFFFFFFFFFFFFFFFFFFFFFFFFFFFFFF AND PUSH20 0xFFFFFFFFFFFFFFFFFFFFFFFFFFFFFFFFFFFFFFFF AND DUP2 MSTORE PUSH1 0x20 ADD SWAP1 DUP2 MSTORE PUSH1 0x20 ADD PUSH1 0x0 KECCAK256 SLOAD EQ ISZERO ISZERO ISZERO PUSH2 0x67F JUMPI PUSH1 0x40 MLOAD PUSH32 0x8C379A000000000000000000000000000000000000000000000000000000000 DUP2 MSTORE PUSH1 0x4 ADD DUP1 DUP1 PUSH1 0x20 ADD DUP3 DUP2 SUB DUP3 MSTORE PUSH1 0x3B DUP2 MSTORE PUSH1 0x20 ADD DUP1 PUSH32 0x596F7520686176656E2774206372656174656420616E79206269642C20757365 DUP2 MSTORE PUSH1 0x20 ADD PUSH32 0x2063726561746542696420666F72206372656174696E67206F6E650000000000 DUP2 MSTORE POP PUSH1 0x40 ADD SWAP2 POP POP PUSH1 0x40 MLOAD DUP1 SWAP2 SUB SWAP1 REVERT JUMPDEST DUP2 PUSH1 0x5 PUSH1 0x0 ORIGIN PUSH20 0xFFFFFFFFFFFFFFFFFFFFFFFFFFFFFFFFFFFFFFFF AND PUSH20 0xFFFFFFFFFFFFFFFFFFFFFFFFFFFFFFFFFFFFFFFF AND DUP2 MSTORE PUSH1 0x20 ADD SWAP1 DUP2 MSTORE PUSH1 0x20 ADD PUSH1 0x0 KECCAK256 DUP2 SWAP1 SSTORE POP POP POP JUMP JUMPDEST PUSH1 0x0 PUSH1 0x2 SLOAD SWAP1 POP SWAP1 JUMP JUMPDEST PUSH1 0x5 PUSH1 0x20 MSTORE DUP1 PUSH1 0x0 MSTORE PUSH1 0x40 PUSH1 0x0 KECCAK256 PUSH1 0x0 SWAP2 POP SWAP1 POP SLOAD DUP2 JUMP JUMPDEST DUP1 PUSH1 0x3 SLOAD DUP2 GT ISZERO ISZERO PUSH2 0x7AF JUMPI PUSH1 0x40 MLOAD PUSH32 0x8C379A000000000000000000000000000000000000000000000000000000000 DUP2 MSTORE PUSH1 0x4 ADD DUP1 DUP1 PUSH1 0x20 ADD DUP3 DUP2 SUB DUP3 MSTORE PUSH1 0x45 DUP2 MSTORE PUSH1 0x20 ADD DUP1 PUSH32 0x506C6561736520656E7465722061206269642067726561746572207468616E20 DUP2 MSTORE PUSH1 0x20 ADD PUSH32 0x6D696E696D756D20726571756972656420626964206F6620676976656E206175 DUP2 MSTORE PUSH1 0x20 ADD PUSH32 0x6374696F6E000000000000000000000000000000000000000000000000000000 DUP2 MSTORE POP PUSH1 0x60 ADD SWAP2 POP POP PUSH1 0x40 MLOAD DUP1 SWAP2 SUB SWAP1 REVERT JUMPDEST PUSH1 0x2 SLOAD TIMESTAMP LT ISZERO ISZERO PUSH2 0x828 JUMPI PUSH1 0x40 MLOAD PUSH32 0x8C379A000000000000000000000000000000000000000000000000000000000 DUP2 MSTORE PUSH1 0x4 ADD DUP1 DUP1 PUSH1 0x20 ADD DUP3 DUP2 SUB DUP3 MSTORE PUSH1 0x14 DUP2 MSTORE PUSH1 0x20 ADD DUP1 PUSH32 0x41756374696F6E20697320496E61637469766520000000000000000000000000 DUP2 MSTORE POP PUSH1 0x20 ADD SWAP2 POP POP PUSH1 0x40 MLOAD DUP1 SWAP2 SUB SWAP1 REVERT JUMPDEST PUSH1 0x0 PUSH1 0x5 PUSH1 0x0 ORIGIN PUSH20 0xFFFFFFFFFFFFFFFFFFFFFFFFFFFFFFFFFFFFFFFF AND PUSH20 0xFFFFFFFFFFFFFFFFFFFFFFFFFFFFFFFFFFFFFFFF AND DUP2 MSTORE PUSH1 0x20 ADD SWAP1 DUP2 MSTORE PUSH1 0x20 ADD PUSH1 0x0 KECCAK256 SLOAD EQ ISZERO ISZERO PUSH2 0x8DF JUMPI PUSH1 0x40 MLOAD PUSH32 0x8C379A000000000000000000000000000000000000000000000000000000000 DUP2 MSTORE PUSH1 0x4 ADD DUP1 DUP1 PUSH1 0x20 ADD DUP3 DUP2 SUB DUP3 MSTORE PUSH1 0x1E DUP2 MSTORE PUSH1 0x20 ADD DUP1 PUSH32 0x596F75206861766520616C726561647920637265617465642061206269640000 DUP2 MSTORE POP PUSH1 0x20 ADD SWAP2 POP POP PUSH1 0x40 MLOAD DUP1 SWAP2 SUB SWAP1 REVERT JUMPDEST PUSH1 0x1 PUSH1 0x4 PUSH1 0x0 PUSH2 0x100 EXP DUP2 SLOAD DUP2 PUSH1 0xFF MUL NOT AND SWAP1 DUP4 ISZERO ISZERO MUL OR SWAP1 SSTORE POP DUP2 PUSH1 0x5 PUSH1 0x0 ORIGIN PUSH20 0xFFFFFFFFFFFFFFFFFFFFFFFFFFFFFFFFFFFFFFFF AND PUSH20 0xFFFFFFFFFFFFFFFFFFFFFFFFFFFFFFFFFFFFFFFF AND DUP2 MSTORE PUSH1 0x20 ADD SWAP1 DUP2 MSTORE PUSH1 0x20 ADD PUSH1 0x0 KECCAK256 DUP2 SWAP1 SSTORE POP PUSH1 0x6 ORIGIN SWAP1 DUP1 PUSH1 0x1 DUP2 SLOAD ADD DUP1 DUP3 SSTORE DUP1 SWAP2 POP POP SWAP1 PUSH1 0x1 DUP3 SUB SWAP1 PUSH1 0x0 MSTORE PUSH1 0x20 PUSH1 0x0 KECCAK256 ADD PUSH1 0x0 SWAP1 SWAP2 SWAP3 SWAP1 SWAP2 SWAP1 SWAP2 PUSH2 0x100 EXP DUP2 SLOAD DUP2 PUSH20 0xFFFFFFFFFFFFFFFFFFFFFFFFFFFFFFFFFFFFFFFF MUL NOT AND SWAP1 DUP4 PUSH20 0xFFFFFFFFFFFFFFFFFFFFFFFFFFFFFFFFFFFFFFFF AND MUL OR SWAP1 SSTORE POP POP POP POP JUMP JUMPDEST PUSH1 0x60 DUP1 PUSH1 0x0 PUSH1 0x2 SLOAD TIMESTAMP LT ISZERO ISZERO PUSH2 0xA26 JUMPI PUSH1 0x40 MLOAD PUSH32 0x8C379A000000000000000000000000000000000000000000000000000000000 DUP2 MSTORE PUSH1 0x4 ADD DUP1 DUP1 PUSH1 0x20 ADD DUP3 DUP2 SUB DUP3 MSTORE PUSH1 0x14 DUP2 MSTORE PUSH1 0x20 ADD DUP1 PUSH32 0x41756374696F6E20697320496E61637469766520000000000000000000000000 DUP2 MSTORE POP PUSH1 0x20 ADD SWAP2 POP POP PUSH1 0x40 MLOAD DUP1 SWAP2 SUB SWAP1 REVERT JUMPDEST PUSH1 0x6 DUP1 SLOAD SWAP1 POP PUSH1 0x40 MLOAD SWAP1 DUP1 DUP3 MSTORE DUP1 PUSH1 0x20 MUL PUSH1 0x20 ADD DUP3 ADD PUSH1 0x40 MSTORE DUP1 ISZERO PUSH2 0xA5A JUMPI DUP2 PUSH1 0x20 ADD PUSH1 0x20 DUP3 MUL DUP1 CODESIZE DUP4 CODECOPY DUP1 DUP3 ADD SWAP2 POP POP SWAP1 POP JUMPDEST POP SWAP2 POP JUMPDEST PUSH1 0x6 DUP1 SLOAD SWAP1 POP DUP2 LT ISZERO PUSH2 0xB0D JUMPI PUSH1 0x5 PUSH1 0x0 PUSH1 0x6 DUP4 DUP2 SLOAD DUP2 LT ISZERO ISZERO PUSH2 0xA7E JUMPI INVALID JUMPDEST SWAP1 PUSH1 0x0 MSTORE PUSH1 0x20 PUSH1 0x0 KECCAK256 ADD PUSH1 0x0 SWAP1 SLOAD SWAP1 PUSH2 0x100 EXP SWAP1 DIV PUSH20 0xFFFFFFFFFFFFFFFFFFFFFFFFFFFFFFFFFFFFFFFF AND PUSH20 0xFFFFFFFFFFFFFFFFFFFFFFFFFFFFFFFFFFFFFFFF AND PUSH20 0xFFFFFFFFFFFFFFFFFFFFFFFFFFFFFFFFFFFFFFFF AND DUP2 MSTORE PUSH1 0x20 ADD SWAP1 DUP2 MSTORE PUSH1 0x20 ADD PUSH1 0x0 KECCAK256 SLOAD DUP3 DUP3 DUP2 MLOAD DUP2 LT ISZERO ISZERO PUSH2 0xAF2 JUMPI INVALID JUMPDEST SWAP1 PUSH1 0x20 ADD SWAP1 PUSH1 0x20 MUL ADD DUP2 DUP2 MSTORE POP POP DUP1 DUP1 PUSH1 0x1 ADD SWAP2 POP POP PUSH2 0xA5E JUMP JUMPDEST DUP2 SWAP3 POP POP POP SWAP1 JUMP JUMPDEST PUSH1 0x0 PUSH1 0x2 SLOAD TIMESTAMP LT ISZERO ISZERO PUSH2 0xB90 JUMPI PUSH1 0x40 MLOAD PUSH32 0x8C379A000000000000000000000000000000000000000000000000000000000 DUP2 MSTORE PUSH1 0x4 ADD DUP1 DUP1 PUSH1 0x20 ADD DUP3 DUP2 SUB DUP3 MSTORE PUSH1 0x14 DUP2 MSTORE PUSH1 0x20 ADD DUP1 PUSH32 0x41756374696F6E20697320496E61637469766520000000000000000000000000 DUP2 MSTORE POP PUSH1 0x20 ADD SWAP2 POP POP PUSH1 0x40 MLOAD DUP1 SWAP2 SUB SWAP1 REVERT JUMPDEST PUSH1 0x3 SLOAD SWAP1 POP SWAP1 JUMP JUMPDEST PUSH1 0x0 PUSH1 0x1 SLOAD SWAP1 POP SWAP1 JUMP JUMPDEST PUSH1 0x0 DUP1 PUSH1 0x0 PUSH1 0x2 SLOAD TIMESTAMP LT ISZERO ISZERO PUSH2 0xC20 JUMPI PUSH1 0x40 MLOAD PUSH32 0x8C379A000000000000000000000000000000000000000000000000000000000 DUP2 MSTORE PUSH1 0x4 ADD DUP1 DUP1 PUSH1 0x20 ADD DUP3 DUP2 SUB DUP3 MSTORE PUSH1 0x14 DUP2 MSTORE PUSH1 0x20 ADD DUP1 PUSH32 0x41756374696F6E20697320496E61637469766520000000000000000000000000 DUP2 MSTORE POP PUSH1 0x20 ADD SWAP2 POP POP PUSH1 0x40 MLOAD DUP1 SWAP2 SUB SWAP1 REVERT JUMPDEST PUSH1 0x0 SWAP2 POP JUMPDEST PUSH1 0x6 DUP1 SLOAD SWAP1 POP DUP2 LT ISZERO PUSH2 0xCC3 JUMPI PUSH2 0xCB4 PUSH1 0x5 PUSH1 0x0 PUSH1 0x6 DUP5 DUP2 SLOAD DUP2 LT ISZERO ISZERO PUSH2 0xC48 JUMPI INVALID JUMPDEST SWAP1 PUSH1 0x0 MSTORE PUSH1 0x20 PUSH1 0x0 KECCAK256 ADD PUSH1 0x0 SWAP1 SLOAD SWAP1 PUSH2 0x100 EXP SWAP1 DIV PUSH20 0xFFFFFFFFFFFFFFFFFFFFFFFFFFFFFFFFFFFFFFFF AND PUSH20 0xFFFFFFFFFFFFFFFFFFFFFFFFFFFFFFFFFFFFFFFF AND PUSH20 0xFFFFFFFFFFFFFFFFFFFFFFFFFFFFFFFFFFFFFFFF AND DUP2 MSTORE PUSH1 0x20 ADD SWAP1 DUP2 MSTORE PUSH1 0x20 ADD PUSH1 0x0 KECCAK256 SLOAD DUP4 PUSH2 0xF88 JUMP JUMPDEST SWAP2 POP DUP1 DUP1 PUSH1 0x1 ADD SWAP2 POP POP PUSH2 0xC25 JUMP JUMPDEST DUP2 SWAP3 POP POP POP SWAP1 JUMP JUMPDEST PUSH1 0x0 DUP1 PUSH1 0x0 PUSH1 0x2 SLOAD TIMESTAMP LT ISZERO ISZERO PUSH2 0xD49 JUMPI PUSH1 0x40 MLOAD PUSH32 0x8C379A000000000000000000000000000000000000000000000000000000000 DUP2 MSTORE PUSH1 0x4 ADD DUP1 DUP1 PUSH1 0x20 ADD DUP3 DUP2 SUB DUP3 MSTORE PUSH1 0x14 DUP2 MSTORE PUSH1 0x20 ADD DUP1 PUSH32 0x41756374696F6E20697320496E61637469766520000000000000000000000000 DUP2 MSTORE POP PUSH1 0x20 ADD SWAP2 POP POP PUSH1 0x40 MLOAD DUP1 SWAP2 SUB SWAP1 REVERT JUMPDEST PUSH1 0x0 PUSH1 0x6 DUP1 SLOAD SWAP1 POP SWAP1 POP PUSH1 0x0 DUP2 GT ISZERO ISZERO PUSH2 0xDF1 JUMPI PUSH1 0x40 MLOAD PUSH32 0x8C379A000000000000000000000000000000000000000000000000000000000 DUP2 MSTORE PUSH1 0x4 ADD DUP1 DUP1 PUSH1 0x20 ADD DUP3 DUP2 SUB DUP3 MSTORE PUSH1 0x27 DUP2 MSTORE PUSH1 0x20 ADD DUP1 PUSH32 0x43616E277420656E64206173206E6F20626964732068617665206265656E206D DUP2 MSTORE PUSH1 0x20 ADD PUSH32 0x6164652079657400000000000000000000000000000000000000000000000000 DUP2 MSTORE POP PUSH1 0x40 ADD SWAP2 POP POP PUSH1 0x40 MLOAD DUP1 SWAP2 SUB SWAP1 REVERT JUMPDEST TIMESTAMP PUSH1 0x2 DUP2 SWAP1 SSTORE POP PUSH1 0x0 SWAP2 POP JUMPDEST PUSH1 0x6 DUP1 SLOAD SWAP1 POP DUP3 LT ISZERO PUSH2 0xED8 JUMPI DUP5 PUSH1 0x5 PUSH1 0x0 PUSH1 0x6 DUP6 DUP2 SLOAD DUP2 LT ISZERO ISZERO PUSH2 0xE1E JUMPI INVALID JUMPDEST SWAP1 PUSH1 0x0 MSTORE PUSH1 0x20 PUSH1 0x0 KECCAK256 ADD PUSH1 0x0 SWAP1 SLOAD SWAP1 PUSH2 0x100 EXP SWAP1 DIV PUSH20 0xFFFFFFFFFFFFFFFFFFFFFFFFFFFFFFFFFFFFFFFF AND PUSH20 0xFFFFFFFFFFFFFFFFFFFFFFFFFFFFFFFFFFFFFFFF AND PUSH20 0xFFFFFFFFFFFFFFFFFFFFFFFFFFFFFFFFFFFFFFFF AND DUP2 MSTORE PUSH1 0x20 ADD SWAP1 DUP2 MSTORE PUSH1 0x20 ADD PUSH1 0x0 KECCAK256 SLOAD EQ ISZERO PUSH2 0xECB JUMPI PUSH1 0x6 DUP3 DUP2 SLOAD DUP2 LT ISZERO ISZERO PUSH2 0xE99 JUMPI INVALID JUMPDEST SWAP1 PUSH1 0x0 MSTORE PUSH1 0x20 PUSH1 0x0 KECCAK256 ADD PUSH1 0x0 SWAP1 SLOAD SWAP1 PUSH2 0x100 EXP SWAP1 DIV PUSH20 0xFFFFFFFFFFFFFFFFFFFFFFFFFFFFFFFFFFFFFFFF AND SWAP3 POP PUSH2 0xED8 JUMP JUMPDEST DUP2 DUP1 PUSH1 0x1 ADD SWAP3 POP POP PUSH2 0xDFD JUMP JUMPDEST PUSH1 0x0 PUSH20 0xFFFFFFFFFFFFFFFFFFFFFFFFFFFFFFFFFFFFFFFF AND DUP4 PUSH20 0xFFFFFFFFFFFFFFFFFFFFFFFFFFFFFFFFFFFFFFFF AND EQ ISZERO ISZERO ISZERO PUSH2 0xF7D JUMPI PUSH1 0x40 MLOAD PUSH32 0x8C379A000000000000000000000000000000000000000000000000000000000 DUP2 MSTORE PUSH1 0x4 ADD DUP1 DUP1 PUSH1 0x20 ADD DUP3 DUP2 SUB DUP3 MSTORE PUSH1 0x1A DUP2 MSTORE PUSH1 0x20 ADD DUP1 PUSH32 0x546869732062696420686173206E6F74206265656E206D616465000000000000 DUP2 MSTORE POP PUSH1 0x20 ADD SWAP2 POP POP PUSH1 0x40 MLOAD DUP1 SWAP2 SUB SWAP1 REVERT JUMPDEST DUP3 SWAP4 POP POP POP POP SWAP2 SWAP1 POP JUMP JUMPDEST PUSH1 0x0 DUP2 DUP4 LT ISZERO PUSH2 0xF98 JUMPI DUP2 PUSH2 0xF9A JUMP JUMPDEST DUP3 JUMPDEST SWAP1 POP SWAP3 SWAP2 POP POP JUMP STOP LOG1 PUSH6 0x627A7A723058 KECCAK256 DUP1 0x2e PUSH22 0xA63754BBEB9B9AE0E3BFBE506E336665F23365DF6AE7 0xd5 PUSH8 0x9FF11C9B580029A1 PUSH6 0x627A7A723058 KECCAK256 CALL 0x2b EQ REVERT DUP13 0xef PUSH2 0x8A06 CALLCODE 0xef 0xb3 SMOD TIMESTAMP RETURNDATACOPY ADD CALLVALUE 0xba DUP13 AND SLT BALANCE GAS 0xed SLT 0xd2 LOG1 GAS PUSH22 0xAD146600290000000000000000000000000000000000 "
				},
				"gasEstimates": {
					"creation": {
						"codeDepositCost": "3811000",
						"executionCost": "infinite",
						"totalCost": "infinite"
					},
					"external": {
						"aucId()": "394",
						"bidOnAuction(uint256,uint256)": "infinite",
						"createAuction(string,uint256,uint256,uint256,uint256,uint256,uint256,uint256)": "infinite",
						"endAuction()": "infinite",
						"endAuction(uint256)": "infinite",
						"getAuctionDescription(uint256)": "infinite",
						"getAuctionEndTime(uint256)": "infinite",
						"getAuctionStartTime(uint256)": "infinite",
						"getBidValOnAuction(uint256)": "infinite",
						"getListOfActiveAuctions()": "infinite",
						"getListOfBidsOnAuction()": "infinite",
						"getListOfOwnBids()": "infinite",
						"getMaxBid()": "infinite",
						"getMaxBid(uint256)": "infinite",
						"getMinBidValOfAuction(uint256)": "infinite",
						"updateBid(uint256,uint256)": "infinite"
					}
				},
				"methodIdentifiers": {
					"aucId()": "25c0cdaa",
					"bidOnAuction(uint256,uint256)": "9f635120",
					"createAuction(string,uint256,uint256,uint256,uint256,uint256,uint256,uint256)": "e3a57e65",
					"endAuction()": "fe67a54b",
					"endAuction(uint256)": "b9a2de3a",
					"getAuctionDescription(uint256)": "aa7ac8ab",
					"getAuctionEndTime(uint256)": "930e79f1",
					"getAuctionStartTime(uint256)": "919e84f5",
					"getBidValOnAuction(uint256)": "2ae9285f",
					"getListOfActiveAuctions()": "85774206",
					"getListOfBidsOnAuction()": "f2f58fcf",
					"getListOfOwnBids()": "d1fda965",
					"getMaxBid()": "7e12a251",
					"getMaxBid(uint256)": "617fbce9",
					"getMinBidValOfAuction(uint256)": "843767a1",
					"updateBid(uint256,uint256)": "60365e0c"
				}
			},
			"userdoc": {
				"methods": {}
			}
		}
	}
}