{
	"Project-1-AuctionPlatform/Auction.sol": {
		"Auction": {
			"abi": [
				{
					"constant": true,
					"inputs": [],
					"name": "getBidsMade",
					"outputs": [
						{
							"name": "",
							"type": "bool"
						}
					],
					"payable": false,
					"stateMutability": "view",
					"type": "function"
				},
				{
					"constant": false,
					"inputs": [
						{
							"name": "_bidVal",
							"type": "uint256"
						}
					],
					"name": "updateBid",
					"outputs": [],
					"payable": false,
					"stateMutability": "nonpayable",
					"type": "function"
				},
				{
					"constant": true,
					"inputs": [],
					"name": "getEndTime",
					"outputs": [
						{
							"name": "",
							"type": "uint256"
						}
					],
					"payable": false,
					"stateMutability": "view",
					"type": "function"
				},
				{
					"constant": false,
					"inputs": [
						{
							"name": "_bidVal",
							"type": "uint256"
						}
					],
					"name": "createBid",
					"outputs": [],
					"payable": false,
					"stateMutability": "nonpayable",
					"type": "function"
				},
				{
					"constant": true,
					"inputs": [],
					"name": "getListOfBids",
					"outputs": [
						{
							"name": "",
							"type": "uint256[]"
						}
					],
					"payable": false,
					"stateMutability": "view",
					"type": "function"
				},
				{
					"constant": true,
					"inputs": [],
					"name": "getMinBidVal",
					"outputs": [
						{
							"name": "",
							"type": "uint256"
						}
					],
					"payable": false,
					"stateMutability": "view",
					"type": "function"
				},
				{
					"constant": true,
					"inputs": [],
					"name": "getMaximumBid",
					"outputs": [
						{
							"name": "",
							"type": "uint256"
						}
					],
					"payable": false,
					"stateMutability": "view",
					"type": "function"
				},
				{
					"constant": false,
					"inputs": [
						{
							"name": "bid",
							"type": "uint256"
						}
					],
					"name": "endAuctionWithSelectedBid",
					"outputs": [
						{
							"name": "",
							"type": "address"
						}
					],
					"payable": false,
					"stateMutability": "nonpayable",
					"type": "function"
				},
				{
					"inputs": [
						{
							"name": "_description",
							"type": "string"
						},
						{
							"name": "_startTime",
							"type": "uint256"
						},
						{
							"name": "_endTime",
							"type": "uint256"
						},
						{
							"name": "_minBidVal",
							"type": "uint256"
						}
					],
					"payable": false,
					"stateMutability": "nonpayable",
					"type": "constructor"
				}
			],
			"devdoc": {
				"methods": {}
			},
			"evm": {
				"assembly": "    /* \"Project-1-AuctionPlatform/Auction.sol\":68:5578  contract Auction {\r... */\n  mstore(0x40, 0x80)\n    /* \"Project-1-AuctionPlatform/Auction.sol\":2144:2427  constructor(string memory _description, uint _startTime, uint _endTime, uint _minBidVal) public {\r... */\n  callvalue\n    /* \"--CODEGEN--\":8:17   */\n  dup1\n    /* \"--CODEGEN--\":5:7   */\n  iszero\n  tag_1\n  jumpi\n    /* \"--CODEGEN--\":30:31   */\n  0x0\n    /* \"--CODEGEN--\":27:28   */\n  dup1\n    /* \"--CODEGEN--\":20:32   */\n  revert\n    /* \"--CODEGEN--\":5:7   */\ntag_1:\n    /* \"Project-1-AuctionPlatform/Auction.sol\":2144:2427  constructor(string memory _description, uint _startTime, uint _endTime, uint _minBidVal) public {\r... */\n  pop\n  mload(0x40)\n  sub(codesize, bytecodeSize)\n  dup1\n  bytecodeSize\n  dup4\n  codecopy\n  dup2\n  add\n  dup1\n  0x40\n  mstore\n  dup2\n  add\n  swap1\n  dup1\n  dup1\n  mload\n  dup3\n  add\n  swap3\n  swap2\n  swap1\n  0x20\n  add\n  dup1\n  mload\n  swap1\n  0x20\n  add\n  swap1\n  swap3\n  swap2\n  swap1\n  dup1\n  mload\n  swap1\n  0x20\n  add\n  swap1\n  swap3\n  swap2\n  swap1\n  dup1\n  mload\n  swap1\n  0x20\n  add\n  swap1\n  swap3\n  swap2\n  swap1\n  pop\n  pop\n  pop\n    /* \"Project-1-AuctionPlatform/Auction.sol\":2306:2318  _description */\n  dup4\n    /* \"Project-1-AuctionPlatform/Auction.sol\":2292:2303  description */\n  0x0\n    /* \"Project-1-AuctionPlatform/Auction.sol\":2292:2318  description = _description */\n  swap1\n  dup1\n  mload\n  swap1\n  0x20\n  add\n  swap1\n  tag_4\n  swap3\n  swap2\n  swap1\n  jump\t// in(tag_5)\ntag_4:\n  pop\n    /* \"Project-1-AuctionPlatform/Auction.sol\":2341:2351  _startTime */\n  dup3\n    /* \"Project-1-AuctionPlatform/Auction.sol\":2329:2338  startTime */\n  0x1\n    /* \"Project-1-AuctionPlatform/Auction.sol\":2329:2351  startTime = _startTime */\n  dup2\n  swap1\n  sstore\n  pop\n    /* \"Project-1-AuctionPlatform/Auction.sol\":2372:2380  _endTime */\n  dup2\n    /* \"Project-1-AuctionPlatform/Auction.sol\":2362:2369  endTime */\n  0x2\n    /* \"Project-1-AuctionPlatform/Auction.sol\":2362:2380  endTime = _endTime */\n  dup2\n  swap1\n  sstore\n  pop\n    /* \"Project-1-AuctionPlatform/Auction.sol\":2403:2413  _minBidVal */\n  dup1\n    /* \"Project-1-AuctionPlatform/Auction.sol\":2391:2400  minBidVal */\n  0x3\n    /* \"Project-1-AuctionPlatform/Auction.sol\":2391:2413  minBidVal = _minBidVal */\n  dup2\n  swap1\n  sstore\n  pop\n    /* \"Project-1-AuctionPlatform/Auction.sol\":2144:2427  constructor(string memory _description, uint _startTime, uint _endTime, uint _minBidVal) public {\r... */\n  pop\n  pop\n  pop\n  pop\n    /* \"Project-1-AuctionPlatform/Auction.sol\":68:5578  contract Auction {\r... */\n  jump(tag_6)\ntag_5:\n  dup3\n  dup1\n  sload\n  0x1\n  dup2\n  0x1\n  and\n  iszero\n  0x100\n  mul\n  sub\n  and\n  0x2\n  swap1\n  div\n  swap1\n  0x0\n  mstore\n  keccak256(0x0, 0x20)\n  swap1\n  0x1f\n  add\n  0x20\n  swap1\n  div\n  dup2\n  add\n  swap3\n  dup3\n  0x1f\n  lt\n  tag_8\n  jumpi\n  dup1\n  mload\n  not(0xff)\n  and\n  dup4\n  dup1\n  add\n  or\n  dup6\n  sstore\n  jump(tag_7)\ntag_8:\n  dup3\n  dup1\n  add\n  0x1\n  add\n  dup6\n  sstore\n  dup3\n  iszero\n  tag_7\n  jumpi\n  swap2\n  dup3\n  add\ntag_9:\n  dup3\n  dup2\n  gt\n  iszero\n  tag_10\n  jumpi\n  dup3\n  mload\n  dup3\n  sstore\n  swap2\n  0x20\n  add\n  swap2\n  swap1\n  0x1\n  add\n  swap1\n  jump(tag_9)\ntag_10:\ntag_7:\n  pop\n  swap1\n  pop\n  tag_11\n  swap2\n  swap1\n  jump\t// in(tag_12)\ntag_11:\n  pop\n  swap1\n  jump\t// out\ntag_12:\n  tag_13\n  swap2\n  swap1\ntag_14:\n  dup1\n  dup3\n  gt\n  iszero\n  tag_15\n  jumpi\n  0x0\n  dup2\n  0x0\n  swap1\n  sstore\n  pop\n  0x1\n  add\n  jump(tag_14)\ntag_15:\n  pop\n  swap1\n  jump\ntag_13:\n  swap1\n  jump\t// out\ntag_6:\n  dataSize(sub_0)\n  dup1\n  dataOffset(sub_0)\n  0x0\n  codecopy\n  0x0\n  return\nstop\n\nsub_0: assembly {\n        /* \"Project-1-AuctionPlatform/Auction.sol\":68:5578  contract Auction {\r... */\n      mstore(0x40, 0x80)\n      jumpi(tag_1, lt(calldatasize, 0x4))\n      calldataload(0x0)\n      0x100000000000000000000000000000000000000000000000000000000\n      swap1\n      div\n      0xffffffff\n      and\n      dup1\n      0x409766e6\n      eq\n      tag_2\n      jumpi\n      dup1\n      0x43129de1\n      eq\n      tag_3\n      jumpi\n      dup1\n      0x439f5ac2\n      eq\n      tag_4\n      jumpi\n      dup1\n      0x659dd2b4\n      eq\n      tag_5\n      jumpi\n      dup1\n      0x679dbf0c\n      eq\n      tag_6\n      jumpi\n      dup1\n      0xad934674\n      eq\n      tag_7\n      jumpi\n      dup1\n      0xdd06ba1a\n      eq\n      tag_8\n      jumpi\n      dup1\n      0xdee37a8e\n      eq\n      tag_9\n      jumpi\n    tag_1:\n      0x0\n      dup1\n      revert\n        /* \"Project-1-AuctionPlatform/Auction.sol\":892:976  function getBidsMade() external view returns(bool){\r... */\n    tag_2:\n      callvalue\n        /* \"--CODEGEN--\":8:17   */\n      dup1\n        /* \"--CODEGEN--\":5:7   */\n      iszero\n      tag_10\n      jumpi\n        /* \"--CODEGEN--\":30:31   */\n      0x0\n        /* \"--CODEGEN--\":27:28   */\n      dup1\n        /* \"--CODEGEN--\":20:32   */\n      revert\n        /* \"--CODEGEN--\":5:7   */\n    tag_10:\n        /* \"Project-1-AuctionPlatform/Auction.sol\":892:976  function getBidsMade() external view returns(bool){\r... */\n      pop\n      tag_11\n      jump(tag_12)\n    tag_11:\n      mload(0x40)\n      dup1\n      dup3\n      iszero\n      iszero\n      iszero\n      iszero\n      dup2\n      mstore\n      0x20\n      add\n      swap2\n      pop\n      pop\n      mload(0x40)\n      dup1\n      swap2\n      sub\n      swap1\n      return\n        /* \"Project-1-AuctionPlatform/Auction.sol\":3003:3267  function updateBid(uint _bidVal) external validBidVal(_bidVal) isActive {\r... */\n    tag_3:\n      callvalue\n        /* \"--CODEGEN--\":8:17   */\n      dup1\n        /* \"--CODEGEN--\":5:7   */\n      iszero\n      tag_13\n      jumpi\n        /* \"--CODEGEN--\":30:31   */\n      0x0\n        /* \"--CODEGEN--\":27:28   */\n      dup1\n        /* \"--CODEGEN--\":20:32   */\n      revert\n        /* \"--CODEGEN--\":5:7   */\n    tag_13:\n        /* \"Project-1-AuctionPlatform/Auction.sol\":3003:3267  function updateBid(uint _bidVal) external validBidVal(_bidVal) isActive {\r... */\n      pop\n      tag_14\n      0x4\n      dup1\n      calldatasize\n      sub\n      dup2\n      add\n      swap1\n      dup1\n      dup1\n      calldataload\n      swap1\n      0x20\n      add\n      swap1\n      swap3\n      swap2\n      swap1\n      pop\n      pop\n      pop\n      jump(tag_15)\n    tag_14:\n      stop\n        /* \"Project-1-AuctionPlatform/Auction.sol\":1035:1120  function getEndTime() external view returns(uint256){\r... */\n    tag_4:\n      callvalue\n        /* \"--CODEGEN--\":8:17   */\n      dup1\n        /* \"--CODEGEN--\":5:7   */\n      iszero\n      tag_16\n      jumpi\n        /* \"--CODEGEN--\":30:31   */\n      0x0\n        /* \"--CODEGEN--\":27:28   */\n      dup1\n        /* \"--CODEGEN--\":20:32   */\n      revert\n        /* \"--CODEGEN--\":5:7   */\n    tag_16:\n        /* \"Project-1-AuctionPlatform/Auction.sol\":1035:1120  function getEndTime() external view returns(uint256){\r... */\n      pop\n      tag_17\n      jump(tag_18)\n    tag_17:\n      mload(0x40)\n      dup1\n      dup3\n      dup2\n      mstore\n      0x20\n      add\n      swap2\n      pop\n      pop\n      mload(0x40)\n      dup1\n      swap2\n      sub\n      swap1\n      return\n        /* \"Project-1-AuctionPlatform/Auction.sol\":2494:2939  function createBid(uint _bidVal) external validBidVal(_bidVal) isActive isBidPresent {\r... */\n    tag_5:\n      callvalue\n        /* \"--CODEGEN--\":8:17   */\n      dup1\n        /* \"--CODEGEN--\":5:7   */\n      iszero\n      tag_19\n      jumpi\n        /* \"--CODEGEN--\":30:31   */\n      0x0\n        /* \"--CODEGEN--\":27:28   */\n      dup1\n        /* \"--CODEGEN--\":20:32   */\n      revert\n        /* \"--CODEGEN--\":5:7   */\n    tag_19:\n        /* \"Project-1-AuctionPlatform/Auction.sol\":2494:2939  function createBid(uint _bidVal) external validBidVal(_bidVal) isActive isBidPresent {\r... */\n      pop\n      tag_20\n      0x4\n      dup1\n      calldatasize\n      sub\n      dup2\n      add\n      swap1\n      dup1\n      dup1\n      calldataload\n      swap1\n      0x20\n      add\n      swap1\n      swap3\n      swap2\n      swap1\n      pop\n      pop\n      pop\n      jump(tag_21)\n    tag_20:\n      stop\n        /* \"Project-1-AuctionPlatform/Auction.sol\":1528:2017  function getListOfBids() external isActive view returns(uint[]){\r... */\n    tag_6:\n      callvalue\n        /* \"--CODEGEN--\":8:17   */\n      dup1\n        /* \"--CODEGEN--\":5:7   */\n      iszero\n      tag_22\n      jumpi\n        /* \"--CODEGEN--\":30:31   */\n      0x0\n        /* \"--CODEGEN--\":27:28   */\n      dup1\n        /* \"--CODEGEN--\":20:32   */\n      revert\n        /* \"--CODEGEN--\":5:7   */\n    tag_22:\n        /* \"Project-1-AuctionPlatform/Auction.sol\":1528:2017  function getListOfBids() external isActive view returns(uint[]){\r... */\n      pop\n      tag_23\n      jump(tag_24)\n    tag_23:\n      mload(0x40)\n      dup1\n      dup1\n      0x20\n      add\n      dup3\n      dup2\n      sub\n      dup3\n      mstore\n      dup4\n      dup2\n      dup2\n      mload\n      dup2\n      mstore\n      0x20\n      add\n      swap2\n      pop\n      dup1\n      mload\n      swap1\n      0x20\n      add\n      swap1\n      0x20\n      mul\n      dup1\n      dup4\n      dup4\n        /* \"--CODEGEN--\":23:24   */\n      0x0\n        /* \"--CODEGEN--\":8:108   */\n    tag_25:\n        /* \"--CODEGEN--\":33:36   */\n      dup4\n        /* \"--CODEGEN--\":30:31   */\n      dup2\n        /* \"--CODEGEN--\":27:37   */\n      lt\n        /* \"--CODEGEN--\":8:108   */\n      iszero\n      tag_26\n      jumpi\n        /* \"--CODEGEN--\":99:100   */\n      dup1\n        /* \"--CODEGEN--\":94:97   */\n      dup3\n        /* \"--CODEGEN--\":90:101   */\n      add\n        /* \"--CODEGEN--\":84:102   */\n      mload\n        /* \"--CODEGEN--\":80:81   */\n      dup2\n        /* \"--CODEGEN--\":75:78   */\n      dup5\n        /* \"--CODEGEN--\":71:82   */\n      add\n        /* \"--CODEGEN--\":64:103   */\n      mstore\n        /* \"--CODEGEN--\":52:54   */\n      0x20\n        /* \"--CODEGEN--\":49:50   */\n      dup2\n        /* \"--CODEGEN--\":45:55   */\n      add\n        /* \"--CODEGEN--\":40:55   */\n      swap1\n      pop\n        /* \"--CODEGEN--\":8:108   */\n      jump(tag_25)\n    tag_26:\n        /* \"--CODEGEN--\":12:26   */\n      pop\n        /* \"Project-1-AuctionPlatform/Auction.sol\":1528:2017  function getListOfBids() external isActive view returns(uint[]){\r... */\n      pop\n      pop\n      pop\n      swap1\n      pop\n      add\n      swap3\n      pop\n      pop\n      pop\n      mload(0x40)\n      dup1\n      swap2\n      sub\n      swap1\n      return\n        /* \"Project-1-AuctionPlatform/Auction.sol\":1157:1252  function getMinBidVal() external isActive view returns(uint){\r... */\n    tag_7:\n      callvalue\n        /* \"--CODEGEN--\":8:17   */\n      dup1\n        /* \"--CODEGEN--\":5:7   */\n      iszero\n      tag_28\n      jumpi\n        /* \"--CODEGEN--\":30:31   */\n      0x0\n        /* \"--CODEGEN--\":27:28   */\n      dup1\n        /* \"--CODEGEN--\":20:32   */\n      revert\n        /* \"--CODEGEN--\":5:7   */\n    tag_28:\n        /* \"Project-1-AuctionPlatform/Auction.sol\":1157:1252  function getMinBidVal() external isActive view returns(uint){\r... */\n      pop\n      tag_29\n      jump(tag_30)\n    tag_29:\n      mload(0x40)\n      dup1\n      dup3\n      dup2\n      mstore\n      0x20\n      add\n      swap2\n      pop\n      pop\n      mload(0x40)\n      dup1\n      swap2\n      sub\n      swap1\n      return\n        /* \"Project-1-AuctionPlatform/Auction.sol\":4193:4650  function getMaximumBid() external isActive view returns(uint){\r... */\n    tag_8:\n      callvalue\n        /* \"--CODEGEN--\":8:17   */\n      dup1\n        /* \"--CODEGEN--\":5:7   */\n      iszero\n      tag_31\n      jumpi\n        /* \"--CODEGEN--\":30:31   */\n      0x0\n        /* \"--CODEGEN--\":27:28   */\n      dup1\n        /* \"--CODEGEN--\":20:32   */\n      revert\n        /* \"--CODEGEN--\":5:7   */\n    tag_31:\n        /* \"Project-1-AuctionPlatform/Auction.sol\":4193:4650  function getMaximumBid() external isActive view returns(uint){\r... */\n      pop\n      tag_32\n      jump(tag_33)\n    tag_32:\n      mload(0x40)\n      dup1\n      dup3\n      dup2\n      mstore\n      0x20\n      add\n      swap2\n      pop\n      pop\n      mload(0x40)\n      dup1\n      swap2\n      sub\n      swap1\n      return\n        /* \"Project-1-AuctionPlatform/Auction.sol\":3360:4125  function endAuctionWithSelectedBid(uint bid) external isActive isBidsMade returns(address){\r... */\n    tag_9:\n      callvalue\n        /* \"--CODEGEN--\":8:17   */\n      dup1\n        /* \"--CODEGEN--\":5:7   */\n      iszero\n      tag_34\n      jumpi\n        /* \"--CODEGEN--\":30:31   */\n      0x0\n        /* \"--CODEGEN--\":27:28   */\n      dup1\n        /* \"--CODEGEN--\":20:32   */\n      revert\n        /* \"--CODEGEN--\":5:7   */\n    tag_34:\n        /* \"Project-1-AuctionPlatform/Auction.sol\":3360:4125  function endAuctionWithSelectedBid(uint bid) external isActive isBidsMade returns(address){\r... */\n      pop\n      tag_35\n      0x4\n      dup1\n      calldatasize\n      sub\n      dup2\n      add\n      swap1\n      dup1\n      dup1\n      calldataload\n      swap1\n      0x20\n      add\n      swap1\n      swap3\n      swap2\n      swap1\n      pop\n      pop\n      pop\n      jump(tag_36)\n    tag_35:\n      mload(0x40)\n      dup1\n      dup3\n      0xffffffffffffffffffffffffffffffffffffffff\n      and\n      0xffffffffffffffffffffffffffffffffffffffff\n      and\n      dup2\n      mstore\n      0x20\n      add\n      swap2\n      pop\n      pop\n      mload(0x40)\n      dup1\n      swap2\n      sub\n      swap1\n      return\n        /* \"Project-1-AuctionPlatform/Auction.sol\":892:976  function getBidsMade() external view returns(bool){\r... */\n    tag_12:\n        /* \"Project-1-AuctionPlatform/Auction.sol\":937:941  bool */\n      0x0\n        /* \"Project-1-AuctionPlatform/Auction.sol\":960:968  bidsMade */\n      0x4\n      0x0\n      swap1\n      sload\n      swap1\n      0x100\n      exp\n      swap1\n      div\n      0xff\n      and\n        /* \"Project-1-AuctionPlatform/Auction.sol\":953:968  return bidsMade */\n      swap1\n      pop\n        /* \"Project-1-AuctionPlatform/Auction.sol\":892:976  function getBidsMade() external view returns(bool){\r... */\n      swap1\n      jump\t// out\n        /* \"Project-1-AuctionPlatform/Auction.sol\":3003:3267  function updateBid(uint _bidVal) external validBidVal(_bidVal) isActive {\r... */\n    tag_15:\n        /* \"Project-1-AuctionPlatform/Auction.sol\":3057:3064  _bidVal */\n      dup1\n        /* \"Project-1-AuctionPlatform/Auction.sol\":5239:5248  minBidVal */\n      sload(0x3)\n        /* \"Project-1-AuctionPlatform/Auction.sol\":5229:5236  _bidVal */\n      dup2\n        /* \"Project-1-AuctionPlatform/Auction.sol\":5229:5248  _bidVal > minBidVal */\n      gt\n        /* \"Project-1-AuctionPlatform/Auction.sol\":5221:5321  require(_bidVal > minBidVal,\"Please enter a bid greater than minimum required bid of given auction\") */\n      iszero\n      iszero\n      tag_39\n      jumpi\n      mload(0x40)\n      0x8c379a000000000000000000000000000000000000000000000000000000000\n      dup2\n      mstore\n      0x4\n      add\n      dup1\n      dup1\n      0x20\n      add\n      dup3\n      dup2\n      sub\n      dup3\n      mstore\n      0x45\n      dup2\n      mstore\n      0x20\n      add\n      dup1\n      0x506c6561736520656e7465722061206269642067726561746572207468616e20\n      dup2\n      mstore\n      0x20\n      add\n      0x6d696e696d756d20726571756972656420626964206f6620676976656e206175\n      dup2\n      mstore\n      0x20\n      add\n      0x6374696f6e000000000000000000000000000000000000000000000000000000\n      dup2\n      mstore\n      pop\n      0x60\n      add\n      swap2\n      pop\n      pop\n      mload(0x40)\n      dup1\n      swap2\n      sub\n      swap1\n      revert\n    tag_39:\n        /* \"Project-1-AuctionPlatform/Auction.sol\":4841:4848  endTime */\n      sload(0x2)\n        /* \"Project-1-AuctionPlatform/Auction.sol\":4823:4838  block.timestamp */\n      timestamp\n        /* \"Project-1-AuctionPlatform/Auction.sol\":4823:4848  block.timestamp < endTime */\n      lt\n        /* \"Project-1-AuctionPlatform/Auction.sol\":4815:4872  require(block.timestamp < endTime,\"Auction is Inactive \") */\n      iszero\n      iszero\n      tag_41\n      jumpi\n      mload(0x40)\n      0x8c379a000000000000000000000000000000000000000000000000000000000\n      dup2\n      mstore\n      0x4\n      add\n      dup1\n      dup1\n      0x20\n      add\n      dup3\n      dup2\n      sub\n      dup3\n      mstore\n      0x14\n      dup2\n      mstore\n      0x20\n      add\n      dup1\n      0x41756374696f6e20697320496e61637469766520000000000000000000000000\n      dup2\n      mstore\n      pop\n      0x20\n      add\n      swap2\n      pop\n      pop\n      mload(0x40)\n      dup1\n      swap2\n      sub\n      swap1\n      revert\n    tag_41:\n        /* \"Project-1-AuctionPlatform/Auction.sol\":3111:3112  0 */\n      0x0\n        /* \"Project-1-AuctionPlatform/Auction.sol\":3094:3098  bids */\n      0x5\n        /* \"Project-1-AuctionPlatform/Auction.sol\":3094:3109  bids[tx.origin] */\n      0x0\n        /* \"Project-1-AuctionPlatform/Auction.sol\":3099:3108  tx.origin */\n      origin\n        /* \"Project-1-AuctionPlatform/Auction.sol\":3094:3109  bids[tx.origin] */\n      0xffffffffffffffffffffffffffffffffffffffff\n      and\n      0xffffffffffffffffffffffffffffffffffffffff\n      and\n      dup2\n      mstore\n      0x20\n      add\n      swap1\n      dup2\n      mstore\n      0x20\n      add\n      0x0\n      keccak256\n      sload\n        /* \"Project-1-AuctionPlatform/Auction.sol\":3094:3112  bids[tx.origin]!=0 */\n      eq\n      iszero\n        /* \"Project-1-AuctionPlatform/Auction.sol\":3086:3175  require(bids[tx.origin]!=0,\"You haven't created any bid, use createBid for creating one\") */\n      iszero\n      iszero\n      tag_43\n      jumpi\n      mload(0x40)\n      0x8c379a000000000000000000000000000000000000000000000000000000000\n      dup2\n      mstore\n      0x4\n      add\n      dup1\n      dup1\n      0x20\n      add\n      dup3\n      dup2\n      sub\n      dup3\n      mstore\n      0x3b\n      dup2\n      mstore\n      0x20\n      add\n      dup1\n      0x596f7520686176656e2774206372656174656420616e79206269642c20757365\n      dup2\n      mstore\n      0x20\n      add\n      0x2063726561746542696420666f72206372656174696e67206f6e650000000000\n      dup2\n      mstore\n      pop\n      0x40\n      add\n      swap2\n      pop\n      pop\n      mload(0x40)\n      dup1\n      swap2\n      sub\n      swap1\n      revert\n    tag_43:\n        /* \"Project-1-AuctionPlatform/Auction.sol\":3252:3259  _bidVal */\n      dup2\n        /* \"Project-1-AuctionPlatform/Auction.sol\":3234:3238  bids */\n      0x5\n        /* \"Project-1-AuctionPlatform/Auction.sol\":3234:3249  bids[tx.origin] */\n      0x0\n        /* \"Project-1-AuctionPlatform/Auction.sol\":3239:3248  tx.origin */\n      origin\n        /* \"Project-1-AuctionPlatform/Auction.sol\":3234:3249  bids[tx.origin] */\n      0xffffffffffffffffffffffffffffffffffffffff\n      and\n      0xffffffffffffffffffffffffffffffffffffffff\n      and\n      dup2\n      mstore\n      0x20\n      add\n      swap1\n      dup2\n      mstore\n      0x20\n      add\n      0x0\n      keccak256\n        /* \"Project-1-AuctionPlatform/Auction.sol\":3234:3259  bids[tx.origin] = _bidVal */\n      dup2\n      swap1\n      sstore\n      pop\n        /* \"Project-1-AuctionPlatform/Auction.sol\":3003:3267  function updateBid(uint _bidVal) external validBidVal(_bidVal) isActive {\r... */\n      pop\n      pop\n      jump\t// out\n        /* \"Project-1-AuctionPlatform/Auction.sol\":1035:1120  function getEndTime() external view returns(uint256){\r... */\n    tag_18:\n        /* \"Project-1-AuctionPlatform/Auction.sol\":1079:1086  uint256 */\n      0x0\n        /* \"Project-1-AuctionPlatform/Auction.sol\":1105:1112  endTime */\n      sload(0x2)\n        /* \"Project-1-AuctionPlatform/Auction.sol\":1098:1112  return endTime */\n      swap1\n      pop\n        /* \"Project-1-AuctionPlatform/Auction.sol\":1035:1120  function getEndTime() external view returns(uint256){\r... */\n      swap1\n      jump\t// out\n        /* \"Project-1-AuctionPlatform/Auction.sol\":2494:2939  function createBid(uint _bidVal) external validBidVal(_bidVal) isActive isBidPresent {\r... */\n    tag_21:\n        /* \"Project-1-AuctionPlatform/Auction.sol\":2548:2555  _bidVal */\n      dup1\n        /* \"Project-1-AuctionPlatform/Auction.sol\":5239:5248  minBidVal */\n      sload(0x3)\n        /* \"Project-1-AuctionPlatform/Auction.sol\":5229:5236  _bidVal */\n      dup2\n        /* \"Project-1-AuctionPlatform/Auction.sol\":5229:5248  _bidVal > minBidVal */\n      gt\n        /* \"Project-1-AuctionPlatform/Auction.sol\":5221:5321  require(_bidVal > minBidVal,\"Please enter a bid greater than minimum required bid of given auction\") */\n      iszero\n      iszero\n      tag_46\n      jumpi\n      mload(0x40)\n      0x8c379a000000000000000000000000000000000000000000000000000000000\n      dup2\n      mstore\n      0x4\n      add\n      dup1\n      dup1\n      0x20\n      add\n      dup3\n      dup2\n      sub\n      dup3\n      mstore\n      0x45\n      dup2\n      mstore\n      0x20\n      add\n      dup1\n      0x506c6561736520656e7465722061206269642067726561746572207468616e20\n      dup2\n      mstore\n      0x20\n      add\n      0x6d696e696d756d20726571756972656420626964206f6620676976656e206175\n      dup2\n      mstore\n      0x20\n      add\n      0x6374696f6e000000000000000000000000000000000000000000000000000000\n      dup2\n      mstore\n      pop\n      0x60\n      add\n      swap2\n      pop\n      pop\n      mload(0x40)\n      dup1\n      swap2\n      sub\n      swap1\n      revert\n    tag_46:\n        /* \"Project-1-AuctionPlatform/Auction.sol\":4841:4848  endTime */\n      sload(0x2)\n        /* \"Project-1-AuctionPlatform/Auction.sol\":4823:4838  block.timestamp */\n      timestamp\n        /* \"Project-1-AuctionPlatform/Auction.sol\":4823:4848  block.timestamp < endTime */\n      lt\n        /* \"Project-1-AuctionPlatform/Auction.sol\":4815:4872  require(block.timestamp < endTime,\"Auction is Inactive \") */\n      iszero\n      iszero\n      tag_48\n      jumpi\n      mload(0x40)\n      0x8c379a000000000000000000000000000000000000000000000000000000000\n      dup2\n      mstore\n      0x4\n      add\n      dup1\n      dup1\n      0x20\n      add\n      dup3\n      dup2\n      sub\n      dup3\n      mstore\n      0x14\n      dup2\n      mstore\n      0x20\n      add\n      dup1\n      0x41756374696f6e20697320496e61637469766520000000000000000000000000\n      dup2\n      mstore\n      pop\n      0x20\n      add\n      swap2\n      pop\n      pop\n      mload(0x40)\n      dup1\n      swap2\n      sub\n      swap1\n      revert\n    tag_48:\n        /* \"Project-1-AuctionPlatform/Auction.sol\":5022:5023  0 */\n      0x0\n        /* \"Project-1-AuctionPlatform/Auction.sol\":5005:5009  bids */\n      0x5\n        /* \"Project-1-AuctionPlatform/Auction.sol\":5005:5020  bids[tx.origin] */\n      0x0\n        /* \"Project-1-AuctionPlatform/Auction.sol\":5010:5019  tx.origin */\n      origin\n        /* \"Project-1-AuctionPlatform/Auction.sol\":5005:5020  bids[tx.origin] */\n      0xffffffffffffffffffffffffffffffffffffffff\n      and\n      0xffffffffffffffffffffffffffffffffffffffff\n      and\n      dup2\n      mstore\n      0x20\n      add\n      swap1\n      dup2\n      mstore\n      0x20\n      add\n      0x0\n      keccak256\n      sload\n        /* \"Project-1-AuctionPlatform/Auction.sol\":5005:5023  bids[tx.origin]==0 */\n      eq\n        /* \"Project-1-AuctionPlatform/Auction.sol\":4997:5057  require(bids[tx.origin]==0,\"You have already created a bid\") */\n      iszero\n      iszero\n      tag_50\n      jumpi\n      mload(0x40)\n      0x8c379a000000000000000000000000000000000000000000000000000000000\n      dup2\n      mstore\n      0x4\n      add\n      dup1\n      dup1\n      0x20\n      add\n      dup3\n      dup2\n      sub\n      dup3\n      mstore\n      0x1e\n      dup2\n      mstore\n      0x20\n      add\n      dup1\n      0x596f75206861766520616c726561647920637265617465642061206269640000\n      dup2\n      mstore\n      pop\n      0x20\n      add\n      swap2\n      pop\n      pop\n      mload(0x40)\n      dup1\n      swap2\n      sub\n      swap1\n      revert\n    tag_50:\n        /* \"Project-1-AuctionPlatform/Auction.sol\":2603:2607  true */\n      0x1\n        /* \"Project-1-AuctionPlatform/Auction.sol\":2592:2600  bidsMade */\n      0x4\n      0x0\n        /* \"Project-1-AuctionPlatform/Auction.sol\":2592:2607  bidsMade = true */\n      0x100\n      exp\n      dup2\n      sload\n      dup2\n      0xff\n      mul\n      not\n      and\n      swap1\n      dup4\n      iszero\n      iszero\n      mul\n      or\n      swap1\n      sstore\n      pop\n        /* \"Project-1-AuctionPlatform/Auction.sol\":2689:2696  _bidVal */\n      dup2\n        /* \"Project-1-AuctionPlatform/Auction.sol\":2671:2675  bids */\n      0x5\n        /* \"Project-1-AuctionPlatform/Auction.sol\":2671:2686  bids[tx.origin] */\n      0x0\n        /* \"Project-1-AuctionPlatform/Auction.sol\":2676:2685  tx.origin */\n      origin\n        /* \"Project-1-AuctionPlatform/Auction.sol\":2671:2686  bids[tx.origin] */\n      0xffffffffffffffffffffffffffffffffffffffff\n      and\n      0xffffffffffffffffffffffffffffffffffffffff\n      and\n      dup2\n      mstore\n      0x20\n      add\n      swap1\n      dup2\n      mstore\n      0x20\n      add\n      0x0\n      keccak256\n        /* \"Project-1-AuctionPlatform/Auction.sol\":2671:2696  bids[tx.origin] = _bidVal */\n      dup2\n      swap1\n      sstore\n      pop\n        /* \"Project-1-AuctionPlatform/Auction.sol\":2795:2806  biddersList */\n      0x6\n        /* \"Project-1-AuctionPlatform/Auction.sol\":2812:2821  tx.origin */\n      origin\n        /* \"Project-1-AuctionPlatform/Auction.sol\":2795:2822  biddersList.push(tx.origin) */\n      swap1\n      dup1\n        /* \"--CODEGEN--\":39:40   */\n      0x1\n        /* \"--CODEGEN--\":33:36   */\n      dup2\n        /* \"--CODEGEN--\":27:37   */\n      sload\n        /* \"--CODEGEN--\":23:41   */\n      add\n        /* \"--CODEGEN--\":57:67   */\n      dup1\n        /* \"--CODEGEN--\":52:55   */\n      dup3\n        /* \"--CODEGEN--\":45:68   */\n      sstore\n        /* \"--CODEGEN--\":79:89   */\n      dup1\n        /* \"--CODEGEN--\":72:89   */\n      swap2\n      pop\n        /* \"--CODEGEN--\":0:93   */\n      pop\n        /* \"Project-1-AuctionPlatform/Auction.sol\":2795:2822  biddersList.push(tx.origin) */\n      swap1\n      0x1\n      dup3\n      sub\n      swap1\n      0x0\n      mstore\n      keccak256(0x0, 0x20)\n      add\n      0x0\n      swap1\n      swap2\n      swap3\n      swap1\n      swap2\n      swap1\n      swap2\n      0x100\n      exp\n      dup2\n      sload\n      dup2\n      0xffffffffffffffffffffffffffffffffffffffff\n      mul\n      not\n      and\n      swap1\n      dup4\n      0xffffffffffffffffffffffffffffffffffffffff\n      and\n      mul\n      or\n      swap1\n      sstore\n      pop\n      pop\n        /* \"Project-1-AuctionPlatform/Auction.sol\":2494:2939  function createBid(uint _bidVal) external validBidVal(_bidVal) isActive isBidPresent {\r... */\n      pop\n      pop\n      jump\t// out\n        /* \"Project-1-AuctionPlatform/Auction.sol\":1528:2017  function getListOfBids() external isActive view returns(uint[]){\r... */\n    tag_24:\n        /* \"Project-1-AuctionPlatform/Auction.sol\":1584:1590  uint[] */\n      0x60\n        /* \"Project-1-AuctionPlatform/Auction.sol\":1674:1692  uint[] memory list */\n      dup1\n        /* \"Project-1-AuctionPlatform/Auction.sol\":1860:1866  uint i */\n      0x0\n        /* \"Project-1-AuctionPlatform/Auction.sol\":4841:4848  endTime */\n      sload(0x2)\n        /* \"Project-1-AuctionPlatform/Auction.sol\":4823:4838  block.timestamp */\n      timestamp\n        /* \"Project-1-AuctionPlatform/Auction.sol\":4823:4848  block.timestamp < endTime */\n      lt\n        /* \"Project-1-AuctionPlatform/Auction.sol\":4815:4872  require(block.timestamp < endTime,\"Auction is Inactive \") */\n      iszero\n      iszero\n      tag_54\n      jumpi\n      mload(0x40)\n      0x8c379a000000000000000000000000000000000000000000000000000000000\n      dup2\n      mstore\n      0x4\n      add\n      dup1\n      dup1\n      0x20\n      add\n      dup3\n      dup2\n      sub\n      dup3\n      mstore\n      0x14\n      dup2\n      mstore\n      0x20\n      add\n      dup1\n      0x41756374696f6e20697320496e61637469766520000000000000000000000000\n      dup2\n      mstore\n      pop\n      0x20\n      add\n      swap2\n      pop\n      pop\n      mload(0x40)\n      dup1\n      swap2\n      sub\n      swap1\n      revert\n    tag_54:\n        /* \"Project-1-AuctionPlatform/Auction.sol\":1706:1717  biddersList */\n      0x6\n        /* \"Project-1-AuctionPlatform/Auction.sol\":1706:1724  biddersList.length */\n      dup1\n      sload\n      swap1\n      pop\n        /* \"Project-1-AuctionPlatform/Auction.sol\":1695:1725  new uint[](biddersList.length) */\n      mload(0x40)\n      swap1\n      dup1\n      dup3\n      mstore\n      dup1\n      0x20\n      mul\n      0x20\n      add\n      dup3\n      add\n      0x40\n      mstore\n      dup1\n      iszero\n      tag_56\n      jumpi\n      dup2\n      0x20\n      add\n        /* \"--CODEGEN--\":29:31   */\n      0x20\n        /* \"--CODEGEN--\":21:27   */\n      dup3\n        /* \"--CODEGEN--\":17:32   */\n      mul\n        /* \"--CODEGEN--\":117:121   */\n      dup1\n        /* \"--CODEGEN--\":105:115   */\n      codesize\n        /* \"--CODEGEN--\":97:103   */\n      dup4\n        /* \"--CODEGEN--\":88:122   */\n      codecopy\n        /* \"--CODEGEN--\":148:152   */\n      dup1\n        /* \"--CODEGEN--\":140:146   */\n      dup3\n        /* \"--CODEGEN--\":136:153   */\n      add\n        /* \"--CODEGEN--\":126:153   */\n      swap2\n      pop\n        /* \"--CODEGEN--\":0:157   */\n      pop\n        /* \"Project-1-AuctionPlatform/Auction.sol\":1695:1725  new uint[](biddersList.length) */\n      swap1\n      pop\n    tag_56:\n      pop\n        /* \"Project-1-AuctionPlatform/Auction.sol\":1674:1725  uint[] memory list = new uint[](biddersList.length) */\n      swap2\n      pop\n        /* \"Project-1-AuctionPlatform/Auction.sol\":1856:1986  for(uint i;i<biddersList.length;i++){\r... */\n    tag_57:\n        /* \"Project-1-AuctionPlatform/Auction.sol\":1869:1880  biddersList */\n      0x6\n        /* \"Project-1-AuctionPlatform/Auction.sol\":1869:1887  biddersList.length */\n      dup1\n      sload\n      swap1\n      pop\n        /* \"Project-1-AuctionPlatform/Auction.sol\":1867:1868  i */\n      dup2\n        /* \"Project-1-AuctionPlatform/Auction.sol\":1867:1887  i<biddersList.length */\n      lt\n        /* \"Project-1-AuctionPlatform/Auction.sol\":1856:1986  for(uint i;i<biddersList.length;i++){\r... */\n      iszero\n      tag_58\n      jumpi\n        /* \"Project-1-AuctionPlatform/Auction.sol\":1931:1935  bids */\n      0x5\n        /* \"Project-1-AuctionPlatform/Auction.sol\":1931:1951  bids[biddersList[i]] */\n      0x0\n        /* \"Project-1-AuctionPlatform/Auction.sol\":1936:1947  biddersList */\n      0x6\n        /* \"Project-1-AuctionPlatform/Auction.sol\":1948:1949  i */\n      dup4\n        /* \"Project-1-AuctionPlatform/Auction.sol\":1936:1950  biddersList[i] */\n      dup2\n      sload\n      dup2\n      lt\n      iszero\n      iszero\n      tag_60\n      jumpi\n      invalid\n    tag_60:\n      swap1\n      0x0\n      mstore\n      keccak256(0x0, 0x20)\n      add\n      0x0\n      swap1\n      sload\n      swap1\n      0x100\n      exp\n      swap1\n      div\n      0xffffffffffffffffffffffffffffffffffffffff\n      and\n        /* \"Project-1-AuctionPlatform/Auction.sol\":1931:1951  bids[biddersList[i]] */\n      0xffffffffffffffffffffffffffffffffffffffff\n      and\n      0xffffffffffffffffffffffffffffffffffffffff\n      and\n      dup2\n      mstore\n      0x20\n      add\n      swap1\n      dup2\n      mstore\n      0x20\n      add\n      0x0\n      keccak256\n      sload\n        /* \"Project-1-AuctionPlatform/Auction.sol\":1921:1925  list */\n      dup3\n        /* \"Project-1-AuctionPlatform/Auction.sol\":1926:1927  i */\n      dup3\n        /* \"Project-1-AuctionPlatform/Auction.sol\":1921:1928  list[i] */\n      dup2\n      mload\n      dup2\n      lt\n      iszero\n      iszero\n      tag_62\n      jumpi\n      invalid\n    tag_62:\n      swap1\n      0x20\n      add\n      swap1\n      0x20\n      mul\n      add\n        /* \"Project-1-AuctionPlatform/Auction.sol\":1921:1951  list[i] = bids[biddersList[i]] */\n      dup2\n      dup2\n      mstore\n      pop\n      pop\n        /* \"Project-1-AuctionPlatform/Auction.sol\":1888:1891  i++ */\n      dup1\n      dup1\n      0x1\n      add\n      swap2\n      pop\n      pop\n        /* \"Project-1-AuctionPlatform/Auction.sol\":1856:1986  for(uint i;i<biddersList.length;i++){\r... */\n      jump(tag_57)\n    tag_58:\n        /* \"Project-1-AuctionPlatform/Auction.sol\":2005:2009  list */\n      dup2\n        /* \"Project-1-AuctionPlatform/Auction.sol\":1998:2009  return list */\n      swap3\n      pop\n        /* \"Project-1-AuctionPlatform/Auction.sol\":1528:2017  function getListOfBids() external isActive view returns(uint[]){\r... */\n      pop\n      pop\n      swap1\n      jump\t// out\n        /* \"Project-1-AuctionPlatform/Auction.sol\":1157:1252  function getMinBidVal() external isActive view returns(uint){\r... */\n    tag_30:\n        /* \"Project-1-AuctionPlatform/Auction.sol\":1212:1216  uint */\n      0x0\n        /* \"Project-1-AuctionPlatform/Auction.sol\":4841:4848  endTime */\n      sload(0x2)\n        /* \"Project-1-AuctionPlatform/Auction.sol\":4823:4838  block.timestamp */\n      timestamp\n        /* \"Project-1-AuctionPlatform/Auction.sol\":4823:4848  block.timestamp < endTime */\n      lt\n        /* \"Project-1-AuctionPlatform/Auction.sol\":4815:4872  require(block.timestamp < endTime,\"Auction is Inactive \") */\n      iszero\n      iszero\n      tag_64\n      jumpi\n      mload(0x40)\n      0x8c379a000000000000000000000000000000000000000000000000000000000\n      dup2\n      mstore\n      0x4\n      add\n      dup1\n      dup1\n      0x20\n      add\n      dup3\n      dup2\n      sub\n      dup3\n      mstore\n      0x14\n      dup2\n      mstore\n      0x20\n      add\n      dup1\n      0x41756374696f6e20697320496e61637469766520000000000000000000000000\n      dup2\n      mstore\n      pop\n      0x20\n      add\n      swap2\n      pop\n      pop\n      mload(0x40)\n      dup1\n      swap2\n      sub\n      swap1\n      revert\n    tag_64:\n        /* \"Project-1-AuctionPlatform/Auction.sol\":1235:1244  minBidVal */\n      sload(0x3)\n        /* \"Project-1-AuctionPlatform/Auction.sol\":1228:1244  return minBidVal */\n      swap1\n      pop\n        /* \"Project-1-AuctionPlatform/Auction.sol\":1157:1252  function getMinBidVal() external isActive view returns(uint){\r... */\n      swap1\n      jump\t// out\n        /* \"Project-1-AuctionPlatform/Auction.sol\":4193:4650  function getMaximumBid() external isActive view returns(uint){\r... */\n    tag_33:\n        /* \"Project-1-AuctionPlatform/Auction.sol\":4249:4253  uint */\n      0x0\n        /* \"Project-1-AuctionPlatform/Auction.sol\":4267:4278  uint maxBid */\n      dup1\n        /* \"Project-1-AuctionPlatform/Auction.sol\":4381:4387  uint i */\n      0x0\n        /* \"Project-1-AuctionPlatform/Auction.sol\":4841:4848  endTime */\n      sload(0x2)\n        /* \"Project-1-AuctionPlatform/Auction.sol\":4823:4838  block.timestamp */\n      timestamp\n        /* \"Project-1-AuctionPlatform/Auction.sol\":4823:4848  block.timestamp < endTime */\n      lt\n        /* \"Project-1-AuctionPlatform/Auction.sol\":4815:4872  require(block.timestamp < endTime,\"Auction is Inactive \") */\n      iszero\n      iszero\n      tag_67\n      jumpi\n      mload(0x40)\n      0x8c379a000000000000000000000000000000000000000000000000000000000\n      dup2\n      mstore\n      0x4\n      add\n      dup1\n      dup1\n      0x20\n      add\n      dup3\n      dup2\n      sub\n      dup3\n      mstore\n      0x14\n      dup2\n      mstore\n      0x20\n      add\n      dup1\n      0x41756374696f6e20697320496e61637469766520000000000000000000000000\n      dup2\n      mstore\n      pop\n      0x20\n      add\n      swap2\n      pop\n      pop\n      mload(0x40)\n      dup1\n      swap2\n      sub\n      swap1\n      revert\n    tag_67:\n        /* \"Project-1-AuctionPlatform/Auction.sol\":4281:4282  0 */\n      0x0\n        /* \"Project-1-AuctionPlatform/Auction.sol\":4267:4282  uint maxBid = 0 */\n      swap2\n      pop\n        /* \"Project-1-AuctionPlatform/Auction.sol\":4377:4615  for(uint i;i<biddersList.length;i++){              // for looping and checking all the bids to find the max bid\r... */\n    tag_69:\n        /* \"Project-1-AuctionPlatform/Auction.sol\":4390:4401  biddersList */\n      0x6\n        /* \"Project-1-AuctionPlatform/Auction.sol\":4390:4408  biddersList.length */\n      dup1\n      sload\n      swap1\n      pop\n        /* \"Project-1-AuctionPlatform/Auction.sol\":4388:4389  i */\n      dup2\n        /* \"Project-1-AuctionPlatform/Auction.sol\":4388:4408  i<biddersList.length */\n      lt\n        /* \"Project-1-AuctionPlatform/Auction.sol\":4377:4615  for(uint i;i<biddersList.length;i++){              // for looping and checking all the bids to find the max bid\r... */\n      iszero\n      tag_70\n      jumpi\n        /* \"Project-1-AuctionPlatform/Auction.sol\":4511:4543  max(bids[biddersList[i]],maxBid) */\n      tag_72\n        /* \"Project-1-AuctionPlatform/Auction.sol\":4515:4519  bids */\n      0x5\n        /* \"Project-1-AuctionPlatform/Auction.sol\":4515:4535  bids[biddersList[i]] */\n      0x0\n        /* \"Project-1-AuctionPlatform/Auction.sol\":4520:4531  biddersList */\n      0x6\n        /* \"Project-1-AuctionPlatform/Auction.sol\":4532:4533  i */\n      dup5\n        /* \"Project-1-AuctionPlatform/Auction.sol\":4520:4534  biddersList[i] */\n      dup2\n      sload\n      dup2\n      lt\n      iszero\n      iszero\n      tag_73\n      jumpi\n      invalid\n    tag_73:\n      swap1\n      0x0\n      mstore\n      keccak256(0x0, 0x20)\n      add\n      0x0\n      swap1\n      sload\n      swap1\n      0x100\n      exp\n      swap1\n      div\n      0xffffffffffffffffffffffffffffffffffffffff\n      and\n        /* \"Project-1-AuctionPlatform/Auction.sol\":4515:4535  bids[biddersList[i]] */\n      0xffffffffffffffffffffffffffffffffffffffff\n      and\n      0xffffffffffffffffffffffffffffffffffffffff\n      and\n      dup2\n      mstore\n      0x20\n      add\n      swap1\n      dup2\n      mstore\n      0x20\n      add\n      0x0\n      keccak256\n      sload\n        /* \"Project-1-AuctionPlatform/Auction.sol\":4536:4542  maxBid */\n      dup4\n        /* \"Project-1-AuctionPlatform/Auction.sol\":4511:4514  max */\n      tag_75\n        /* \"Project-1-AuctionPlatform/Auction.sol\":4511:4543  max(bids[biddersList[i]],maxBid) */\n      jump\t// in\n    tag_72:\n        /* \"Project-1-AuctionPlatform/Auction.sol\":4502:4543  maxBid = max(bids[biddersList[i]],maxBid) */\n      swap2\n      pop\n        /* \"Project-1-AuctionPlatform/Auction.sol\":4409:4412  i++ */\n      dup1\n      dup1\n      0x1\n      add\n      swap2\n      pop\n      pop\n        /* \"Project-1-AuctionPlatform/Auction.sol\":4377:4615  for(uint i;i<biddersList.length;i++){              // for looping and checking all the bids to find the max bid\r... */\n      jump(tag_69)\n    tag_70:\n        /* \"Project-1-AuctionPlatform/Auction.sol\":4632:4638  maxBid */\n      dup2\n        /* \"Project-1-AuctionPlatform/Auction.sol\":4625:4638  return maxBid */\n      swap3\n      pop\n        /* \"Project-1-AuctionPlatform/Auction.sol\":4193:4650  function getMaximumBid() external isActive view returns(uint){\r... */\n      pop\n      pop\n      swap1\n      jump\t// out\n        /* \"Project-1-AuctionPlatform/Auction.sol\":3360:4125  function endAuctionWithSelectedBid(uint bid) external isActive isBidsMade returns(address){\r... */\n    tag_36:\n        /* \"Project-1-AuctionPlatform/Auction.sol\":3442:3449  address */\n      0x0\n        /* \"Project-1-AuctionPlatform/Auction.sol\":3576:3590  address winner */\n      dup1\n        /* \"Project-1-AuctionPlatform/Auction.sol\":3686:3692  uint i */\n      0x0\n        /* \"Project-1-AuctionPlatform/Auction.sol\":4841:4848  endTime */\n      sload(0x2)\n        /* \"Project-1-AuctionPlatform/Auction.sol\":4823:4838  block.timestamp */\n      timestamp\n        /* \"Project-1-AuctionPlatform/Auction.sol\":4823:4848  block.timestamp < endTime */\n      lt\n        /* \"Project-1-AuctionPlatform/Auction.sol\":4815:4872  require(block.timestamp < endTime,\"Auction is Inactive \") */\n      iszero\n      iszero\n      tag_77\n      jumpi\n      mload(0x40)\n      0x8c379a000000000000000000000000000000000000000000000000000000000\n      dup2\n      mstore\n      0x4\n      add\n      dup1\n      dup1\n      0x20\n      add\n      dup3\n      dup2\n      sub\n      dup3\n      mstore\n      0x14\n      dup2\n      mstore\n      0x20\n      add\n      dup1\n      0x41756374696f6e20697320496e61637469766520000000000000000000000000\n      dup2\n      mstore\n      pop\n      0x20\n      add\n      swap2\n      pop\n      pop\n      mload(0x40)\n      dup1\n      swap2\n      sub\n      swap1\n      revert\n    tag_77:\n        /* \"Project-1-AuctionPlatform/Auction.sol\":5453:5461  uint len */\n      0x0\n        /* \"Project-1-AuctionPlatform/Auction.sol\":5464:5475  biddersList */\n      0x6\n        /* \"Project-1-AuctionPlatform/Auction.sol\":5464:5482  biddersList.length */\n      dup1\n      sload\n      swap1\n      pop\n        /* \"Project-1-AuctionPlatform/Auction.sol\":5453:5482  uint len = biddersList.length */\n      swap1\n      pop\n        /* \"Project-1-AuctionPlatform/Auction.sol\":5505:5506  0 */\n      0x0\n        /* \"Project-1-AuctionPlatform/Auction.sol\":5501:5504  len */\n      dup2\n        /* \"Project-1-AuctionPlatform/Auction.sol\":5501:5506  len>0 */\n      gt\n        /* \"Project-1-AuctionPlatform/Auction.sol\":5493:5549  require(len>0,\"Can't end as no bids have been made yet\") */\n      iszero\n      iszero\n      tag_79\n      jumpi\n      mload(0x40)\n      0x8c379a000000000000000000000000000000000000000000000000000000000\n      dup2\n      mstore\n      0x4\n      add\n      dup1\n      dup1\n      0x20\n      add\n      dup3\n      dup2\n      sub\n      dup3\n      mstore\n      0x27\n      dup2\n      mstore\n      0x20\n      add\n      dup1\n      0x43616e277420656e64206173206e6f20626964732068617665206265656e206d\n      dup2\n      mstore\n      0x20\n      add\n      0x6164652079657400000000000000000000000000000000000000000000000000\n      dup2\n      mstore\n      pop\n      0x40\n      add\n      swap2\n      pop\n      pop\n      mload(0x40)\n      dup1\n      swap2\n      sub\n      swap1\n      revert\n    tag_79:\n        /* \"Project-1-AuctionPlatform/Auction.sol\":3471:3486  block.timestamp */\n      timestamp\n        /* \"Project-1-AuctionPlatform/Auction.sol\":3461:3468  endTime */\n      0x2\n        /* \"Project-1-AuctionPlatform/Auction.sol\":3461:3486  endTime = block.timestamp */\n      dup2\n      swap1\n      sstore\n      pop\n        /* \"Project-1-AuctionPlatform/Auction.sol\":3694:3695  0 */\n      0x0\n        /* \"Project-1-AuctionPlatform/Auction.sol\":3686:3695  uint i =0 */\n      swap2\n      pop\n        /* \"Project-1-AuctionPlatform/Auction.sol\":3682:3997  for(uint i =0;i<biddersList.length;i++){        // for loop for checking the bids mapping using the biddersList array to check\r... */\n    tag_81:\n        /* \"Project-1-AuctionPlatform/Auction.sol\":3698:3709  biddersList */\n      0x6\n        /* \"Project-1-AuctionPlatform/Auction.sol\":3698:3716  biddersList.length */\n      dup1\n      sload\n      swap1\n      pop\n        /* \"Project-1-AuctionPlatform/Auction.sol\":3696:3697  i */\n      dup3\n        /* \"Project-1-AuctionPlatform/Auction.sol\":3696:3716  i<biddersList.length */\n      lt\n        /* \"Project-1-AuctionPlatform/Auction.sol\":3682:3997  for(uint i =0;i<biddersList.length;i++){        // for loop for checking the bids mapping using the biddersList array to check\r... */\n      iszero\n      tag_82\n      jumpi\n        /* \"Project-1-AuctionPlatform/Auction.sol\":3847:3850  bid */\n      dup5\n        /* \"Project-1-AuctionPlatform/Auction.sol\":3825:3829  bids */\n      0x5\n        /* \"Project-1-AuctionPlatform/Auction.sol\":3825:3845  bids[biddersList[i]] */\n      0x0\n        /* \"Project-1-AuctionPlatform/Auction.sol\":3830:3841  biddersList */\n      0x6\n        /* \"Project-1-AuctionPlatform/Auction.sol\":3842:3843  i */\n      dup6\n        /* \"Project-1-AuctionPlatform/Auction.sol\":3830:3844  biddersList[i] */\n      dup2\n      sload\n      dup2\n      lt\n      iszero\n      iszero\n      tag_84\n      jumpi\n      invalid\n    tag_84:\n      swap1\n      0x0\n      mstore\n      keccak256(0x0, 0x20)\n      add\n      0x0\n      swap1\n      sload\n      swap1\n      0x100\n      exp\n      swap1\n      div\n      0xffffffffffffffffffffffffffffffffffffffff\n      and\n        /* \"Project-1-AuctionPlatform/Auction.sol\":3825:3845  bids[biddersList[i]] */\n      0xffffffffffffffffffffffffffffffffffffffff\n      and\n      0xffffffffffffffffffffffffffffffffffffffff\n      and\n      dup2\n      mstore\n      0x20\n      add\n      swap1\n      dup2\n      mstore\n      0x20\n      add\n      0x0\n      keccak256\n      sload\n        /* \"Project-1-AuctionPlatform/Auction.sol\":3825:3850  bids[biddersList[i]]==bid */\n      eq\n        /* \"Project-1-AuctionPlatform/Auction.sol\":3822:3986  if(bids[biddersList[i]]==bid){              // for the bid value passed as argument\r... */\n      iszero\n      tag_86\n      jumpi\n        /* \"Project-1-AuctionPlatform/Auction.sol\":3932:3943  biddersList */\n      0x6\n        /* \"Project-1-AuctionPlatform/Auction.sol\":3944:3945  i */\n      dup3\n        /* \"Project-1-AuctionPlatform/Auction.sol\":3932:3946  biddersList[i] */\n      dup2\n      sload\n      dup2\n      lt\n      iszero\n      iszero\n      tag_87\n      jumpi\n      invalid\n    tag_87:\n      swap1\n      0x0\n      mstore\n      keccak256(0x0, 0x20)\n      add\n      0x0\n      swap1\n      sload\n      swap1\n      0x100\n      exp\n      swap1\n      div\n      0xffffffffffffffffffffffffffffffffffffffff\n      and\n        /* \"Project-1-AuctionPlatform/Auction.sol\":3923:3946  winner = biddersList[i] */\n      swap3\n      pop\n        /* \"Project-1-AuctionPlatform/Auction.sol\":3965:3970  break */\n      jump(tag_82)\n        /* \"Project-1-AuctionPlatform/Auction.sol\":3822:3986  if(bids[biddersList[i]]==bid){              // for the bid value passed as argument\r... */\n    tag_86:\n        /* \"Project-1-AuctionPlatform/Auction.sol\":3717:3720  i++ */\n      dup2\n      dup1\n      0x1\n      add\n      swap3\n      pop\n      pop\n        /* \"Project-1-AuctionPlatform/Auction.sol\":3682:3997  for(uint i =0;i<biddersList.length;i++){        // for loop for checking the bids mapping using the biddersList array to check\r... */\n      jump(tag_81)\n    tag_82:\n        /* \"Project-1-AuctionPlatform/Auction.sol\":4031:4032  0 */\n      0x0\n        /* \"Project-1-AuctionPlatform/Auction.sol\":4015:4033  winner!=address(0) */\n      0xffffffffffffffffffffffffffffffffffffffff\n      and\n        /* \"Project-1-AuctionPlatform/Auction.sol\":4015:4021  winner */\n      dup4\n        /* \"Project-1-AuctionPlatform/Auction.sol\":4015:4033  winner!=address(0) */\n      0xffffffffffffffffffffffffffffffffffffffff\n      and\n      eq\n      iszero\n        /* \"Project-1-AuctionPlatform/Auction.sol\":4007:4063  require(winner!=address(0),\"This bid has not been made\") */\n      iszero\n      iszero\n      tag_89\n      jumpi\n      mload(0x40)\n      0x8c379a000000000000000000000000000000000000000000000000000000000\n      dup2\n      mstore\n      0x4\n      add\n      dup1\n      dup1\n      0x20\n      add\n      dup3\n      dup2\n      sub\n      dup3\n      mstore\n      0x1a\n      dup2\n      mstore\n      0x20\n      add\n      dup1\n      0x546869732062696420686173206e6f74206265656e206d616465000000000000\n      dup2\n      mstore\n      pop\n      0x20\n      add\n      swap2\n      pop\n      pop\n      mload(0x40)\n      dup1\n      swap2\n      sub\n      swap1\n      revert\n    tag_89:\n        /* \"Project-1-AuctionPlatform/Auction.sol\":4111:4117  winner */\n      dup3\n        /* \"Project-1-AuctionPlatform/Auction.sol\":4104:4117  return winner */\n      swap4\n      pop\n        /* \"Project-1-AuctionPlatform/Auction.sol\":4883:4884  _ */\n      pop\n        /* \"Project-1-AuctionPlatform/Auction.sol\":3360:4125  function endAuctionWithSelectedBid(uint bid) external isActive isBidsMade returns(address){\r... */\n      pop\n      pop\n      swap2\n      swap1\n      pop\n      jump\t// out\n        /* \"Project-1-AuctionPlatform/Auction.sol\":1350:1457  function max(uint256 a, uint256 b) internal pure returns (uint256) {\r... */\n    tag_75:\n        /* \"Project-1-AuctionPlatform/Auction.sol\":1408:1415  uint256 */\n      0x0\n        /* \"Project-1-AuctionPlatform/Auction.sol\":1440:1441  b */\n      dup2\n        /* \"Project-1-AuctionPlatform/Auction.sol\":1435:1436  a */\n      dup4\n        /* \"Project-1-AuctionPlatform/Auction.sol\":1435:1441  a >= b */\n      lt\n      iszero\n        /* \"Project-1-AuctionPlatform/Auction.sol\":1435:1449  a >= b ? a : b */\n      tag_91\n      jumpi\n        /* \"Project-1-AuctionPlatform/Auction.sol\":1448:1449  b */\n      dup2\n        /* \"Project-1-AuctionPlatform/Auction.sol\":1435:1449  a >= b ? a : b */\n      jump(tag_92)\n    tag_91:\n        /* \"Project-1-AuctionPlatform/Auction.sol\":1444:1445  a */\n      dup3\n        /* \"Project-1-AuctionPlatform/Auction.sol\":1435:1449  a >= b ? a : b */\n    tag_92:\n        /* \"Project-1-AuctionPlatform/Auction.sol\":1428:1449  return a >= b ? a : b */\n      swap1\n      pop\n        /* \"Project-1-AuctionPlatform/Auction.sol\":1350:1457  function max(uint256 a, uint256 b) internal pure returns (uint256) {\r... */\n      swap3\n      swap2\n      pop\n      pop\n      jump\t// out\n\n    auxdata: 0xa165627a7a72305820b3a61004f2c6355d278ae4259a2f2ac64a6a6ac3d8c39ebc3e8a1e315d8ab2d00029\n}\n",
				"bytecode": {
					"linkReferences": {},
					"object": "608060405234801561001057600080fd5b50604051610f14380380610f1483398101806040528101908080518201929190602001805190602001909291908051906020019092919080519060200190929190505050836000908051906020019061006a929190610089565b508260018190555081600281905550806003819055505050505061012e565b828054600181600116156101000203166002900490600052602060002090601f016020900481019282601f106100ca57805160ff19168380011785556100f8565b828001600101855582156100f8579182015b828111156100f75782518255916020019190600101906100dc565b5b5090506101059190610109565b5090565b61012b91905b8082111561012757600081600090555060010161010f565b5090565b90565b610dd78061013d6000396000f30060806040526004361061008e576000357c0100000000000000000000000000000000000000000000000000000000900463ffffffff168063409766e61461009357806343129de1146100c2578063439f5ac2146100ef578063659dd2b41461011a578063679dbf0c14610147578063ad934674146101b3578063dd06ba1a146101de578063dee37a8e14610209575b600080fd5b34801561009f57600080fd5b506100a8610276565b604051808215151515815260200191505060405180910390f35b3480156100ce57600080fd5b506100ed6004803603810190808035906020019092919050505061028d565b005b3480156100fb57600080fd5b506101046104f2565b6040518082815260200191505060405180910390f35b34801561012657600080fd5b50610145600480360381019080803590602001909291905050506104fc565b005b34801561015357600080fd5b5061015c6107bb565b6040518080602001828103825283818151815260200191508051906020019060200280838360005b8381101561019f578082015181840152602081019050610184565b505050509050019250505060405180910390f35b3480156101bf57600080fd5b506101c8610928565b6040518082815260200191505060405180910390f35b3480156101ea57600080fd5b506101f36109ab565b6040518082815260200191505060405180910390f35b34801561021557600080fd5b5061023460048036038101908080359060200190929190505050610ad4565b604051808273ffffffffffffffffffffffffffffffffffffffff1673ffffffffffffffffffffffffffffffffffffffff16815260200191505060405180910390f35b6000600460009054906101000a900460ff16905090565b8060035481111515610353576040517f08c379a00000000000000000000000000000000000000000000000000000000081526004018080602001828103825260458152602001807f506c6561736520656e7465722061206269642067726561746572207468616e2081526020017f6d696e696d756d20726571756972656420626964206f6620676976656e20617581526020017f6374696f6e00000000000000000000000000000000000000000000000000000081525060600191505060405180910390fd5b600254421015156103cc576040517f08c379a00000000000000000000000000000000000000000000000000000000081526004018080602001828103825260148152602001807f41756374696f6e20697320496e6163746976652000000000000000000000000081525060200191505060405180910390fd5b6000600560003273ffffffffffffffffffffffffffffffffffffffff1673ffffffffffffffffffffffffffffffffffffffff16815260200190815260200160002054141515156104aa576040517f08c379a000000000000000000000000000000000000000000000000000000000815260040180806020018281038252603b8152602001807f596f7520686176656e2774206372656174656420616e79206269642c2075736581526020017f2063726561746542696420666f72206372656174696e67206f6e65000000000081525060400191505060405180910390fd5b81600560003273ffffffffffffffffffffffffffffffffffffffff1673ffffffffffffffffffffffffffffffffffffffff168152602001908152602001600020819055505050565b6000600254905090565b80600354811115156105c2576040517f08c379a00000000000000000000000000000000000000000000000000000000081526004018080602001828103825260458152602001807f506c6561736520656e7465722061206269642067726561746572207468616e2081526020017f6d696e696d756d20726571756972656420626964206f6620676976656e20617581526020017f6374696f6e00000000000000000000000000000000000000000000000000000081525060600191505060405180910390fd5b6002544210151561063b576040517f08c379a00000000000000000000000000000000000000000000000000000000081526004018080602001828103825260148152602001807f41756374696f6e20697320496e6163746976652000000000000000000000000081525060200191505060405180910390fd5b6000600560003273ffffffffffffffffffffffffffffffffffffffff1673ffffffffffffffffffffffffffffffffffffffff168152602001908152602001600020541415156106f2576040517f08c379a000000000000000000000000000000000000000000000000000000000815260040180806020018281038252601e8152602001807f596f75206861766520616c72656164792063726561746564206120626964000081525060200191505060405180910390fd5b6001600460006101000a81548160ff02191690831515021790555081600560003273ffffffffffffffffffffffffffffffffffffffff1673ffffffffffffffffffffffffffffffffffffffff1681526020019081526020016000208190555060063290806001815401808255809150509060018203906000526020600020016000909192909190916101000a81548173ffffffffffffffffffffffffffffffffffffffff021916908373ffffffffffffffffffffffffffffffffffffffff160217905550505050565b606080600060025442101515610839576040517f08c379a00000000000000000000000000000000000000000000000000000000081526004018080602001828103825260148152602001807f41756374696f6e20697320496e6163746976652000000000000000000000000081525060200191505060405180910390fd5b60068054905060405190808252806020026020018201604052801561086d5781602001602082028038833980820191505090505b5091505b600680549050811015610920576005600060068381548110151561089157fe5b9060005260206000200160009054906101000a900473ffffffffffffffffffffffffffffffffffffffff1673ffffffffffffffffffffffffffffffffffffffff1673ffffffffffffffffffffffffffffffffffffffff16815260200190815260200160002054828281518110151561090557fe5b90602001906020020181815250508080600101915050610871565b819250505090565b6000600254421015156109a3576040517f08c379a00000000000000000000000000000000000000000000000000000000081526004018080602001828103825260148152602001807f41756374696f6e20697320496e6163746976652000000000000000000000000081525060200191505060405180910390fd5b600354905090565b600080600060025442101515610a29576040517f08c379a00000000000000000000000000000000000000000000000000000000081526004018080602001828103825260148152602001807f41756374696f6e20697320496e6163746976652000000000000000000000000081525060200191505060405180910390fd5b600091505b600680549050811015610acc57610abd60056000600684815481101515610a5157fe5b9060005260206000200160009054906101000a900473ffffffffffffffffffffffffffffffffffffffff1673ffffffffffffffffffffffffffffffffffffffff1673ffffffffffffffffffffffffffffffffffffffff1681526020019081526020016000205483610d91565b91508080600101915050610a2e565b819250505090565b600080600060025442101515610b52576040517f08c379a00000000000000000000000000000000000000000000000000000000081526004018080602001828103825260148152602001807f41756374696f6e20697320496e6163746976652000000000000000000000000081525060200191505060405180910390fd5b60006006805490509050600081111515610bfa576040517f08c379a00000000000000000000000000000000000000000000000000000000081526004018080602001828103825260278152602001807f43616e277420656e64206173206e6f20626964732068617665206265656e206d81526020017f616465207965740000000000000000000000000000000000000000000000000081525060400191505060405180910390fd5b42600281905550600091505b600680549050821015610ce1578460056000600685815481101515610c2757fe5b9060005260206000200160009054906101000a900473ffffffffffffffffffffffffffffffffffffffff1673ffffffffffffffffffffffffffffffffffffffff1673ffffffffffffffffffffffffffffffffffffffff168152602001908152602001600020541415610cd457600682815481101515610ca257fe5b9060005260206000200160009054906101000a900473ffffffffffffffffffffffffffffffffffffffff169250610ce1565b8180600101925050610c06565b600073ffffffffffffffffffffffffffffffffffffffff168373ffffffffffffffffffffffffffffffffffffffff1614151515610d86576040517f08c379a000000000000000000000000000000000000000000000000000000000815260040180806020018281038252601a8152602001807f546869732062696420686173206e6f74206265656e206d61646500000000000081525060200191505060405180910390fd5b829350505050919050565b600081831015610da15781610da3565b825b9050929150505600a165627a7a72305820b3a61004f2c6355d278ae4259a2f2ac64a6a6ac3d8c39ebc3e8a1e315d8ab2d00029",
					"opcodes": "PUSH1 0x80 PUSH1 0x40 MSTORE CALLVALUE DUP1 ISZERO PUSH2 0x10 JUMPI PUSH1 0x0 DUP1 REVERT JUMPDEST POP PUSH1 0x40 MLOAD PUSH2 0xF14 CODESIZE SUB DUP1 PUSH2 0xF14 DUP4 CODECOPY DUP2 ADD DUP1 PUSH1 0x40 MSTORE DUP2 ADD SWAP1 DUP1 DUP1 MLOAD DUP3 ADD SWAP3 SWAP2 SWAP1 PUSH1 0x20 ADD DUP1 MLOAD SWAP1 PUSH1 0x20 ADD SWAP1 SWAP3 SWAP2 SWAP1 DUP1 MLOAD SWAP1 PUSH1 0x20 ADD SWAP1 SWAP3 SWAP2 SWAP1 DUP1 MLOAD SWAP1 PUSH1 0x20 ADD SWAP1 SWAP3 SWAP2 SWAP1 POP POP POP DUP4 PUSH1 0x0 SWAP1 DUP1 MLOAD SWAP1 PUSH1 0x20 ADD SWAP1 PUSH2 0x6A SWAP3 SWAP2 SWAP1 PUSH2 0x89 JUMP JUMPDEST POP DUP3 PUSH1 0x1 DUP2 SWAP1 SSTORE POP DUP2 PUSH1 0x2 DUP2 SWAP1 SSTORE POP DUP1 PUSH1 0x3 DUP2 SWAP1 SSTORE POP POP POP POP POP PUSH2 0x12E JUMP JUMPDEST DUP3 DUP1 SLOAD PUSH1 0x1 DUP2 PUSH1 0x1 AND ISZERO PUSH2 0x100 MUL SUB AND PUSH1 0x2 SWAP1 DIV SWAP1 PUSH1 0x0 MSTORE PUSH1 0x20 PUSH1 0x0 KECCAK256 SWAP1 PUSH1 0x1F ADD PUSH1 0x20 SWAP1 DIV DUP2 ADD SWAP3 DUP3 PUSH1 0x1F LT PUSH2 0xCA JUMPI DUP1 MLOAD PUSH1 0xFF NOT AND DUP4 DUP1 ADD OR DUP6 SSTORE PUSH2 0xF8 JUMP JUMPDEST DUP3 DUP1 ADD PUSH1 0x1 ADD DUP6 SSTORE DUP3 ISZERO PUSH2 0xF8 JUMPI SWAP2 DUP3 ADD JUMPDEST DUP3 DUP2 GT ISZERO PUSH2 0xF7 JUMPI DUP3 MLOAD DUP3 SSTORE SWAP2 PUSH1 0x20 ADD SWAP2 SWAP1 PUSH1 0x1 ADD SWAP1 PUSH2 0xDC JUMP JUMPDEST JUMPDEST POP SWAP1 POP PUSH2 0x105 SWAP2 SWAP1 PUSH2 0x109 JUMP JUMPDEST POP SWAP1 JUMP JUMPDEST PUSH2 0x12B SWAP2 SWAP1 JUMPDEST DUP1 DUP3 GT ISZERO PUSH2 0x127 JUMPI PUSH1 0x0 DUP2 PUSH1 0x0 SWAP1 SSTORE POP PUSH1 0x1 ADD PUSH2 0x10F JUMP JUMPDEST POP SWAP1 JUMP JUMPDEST SWAP1 JUMP JUMPDEST PUSH2 0xDD7 DUP1 PUSH2 0x13D PUSH1 0x0 CODECOPY PUSH1 0x0 RETURN STOP PUSH1 0x80 PUSH1 0x40 MSTORE PUSH1 0x4 CALLDATASIZE LT PUSH2 0x8E JUMPI PUSH1 0x0 CALLDATALOAD PUSH29 0x100000000000000000000000000000000000000000000000000000000 SWAP1 DIV PUSH4 0xFFFFFFFF AND DUP1 PUSH4 0x409766E6 EQ PUSH2 0x93 JUMPI DUP1 PUSH4 0x43129DE1 EQ PUSH2 0xC2 JUMPI DUP1 PUSH4 0x439F5AC2 EQ PUSH2 0xEF JUMPI DUP1 PUSH4 0x659DD2B4 EQ PUSH2 0x11A JUMPI DUP1 PUSH4 0x679DBF0C EQ PUSH2 0x147 JUMPI DUP1 PUSH4 0xAD934674 EQ PUSH2 0x1B3 JUMPI DUP1 PUSH4 0xDD06BA1A EQ PUSH2 0x1DE JUMPI DUP1 PUSH4 0xDEE37A8E EQ PUSH2 0x209 JUMPI JUMPDEST PUSH1 0x0 DUP1 REVERT JUMPDEST CALLVALUE DUP1 ISZERO PUSH2 0x9F JUMPI PUSH1 0x0 DUP1 REVERT JUMPDEST POP PUSH2 0xA8 PUSH2 0x276 JUMP JUMPDEST PUSH1 0x40 MLOAD DUP1 DUP3 ISZERO ISZERO ISZERO ISZERO DUP2 MSTORE PUSH1 0x20 ADD SWAP2 POP POP PUSH1 0x40 MLOAD DUP1 SWAP2 SUB SWAP1 RETURN JUMPDEST CALLVALUE DUP1 ISZERO PUSH2 0xCE JUMPI PUSH1 0x0 DUP1 REVERT JUMPDEST POP PUSH2 0xED PUSH1 0x4 DUP1 CALLDATASIZE SUB DUP2 ADD SWAP1 DUP1 DUP1 CALLDATALOAD SWAP1 PUSH1 0x20 ADD SWAP1 SWAP3 SWAP2 SWAP1 POP POP POP PUSH2 0x28D JUMP JUMPDEST STOP JUMPDEST CALLVALUE DUP1 ISZERO PUSH2 0xFB JUMPI PUSH1 0x0 DUP1 REVERT JUMPDEST POP PUSH2 0x104 PUSH2 0x4F2 JUMP JUMPDEST PUSH1 0x40 MLOAD DUP1 DUP3 DUP2 MSTORE PUSH1 0x20 ADD SWAP2 POP POP PUSH1 0x40 MLOAD DUP1 SWAP2 SUB SWAP1 RETURN JUMPDEST CALLVALUE DUP1 ISZERO PUSH2 0x126 JUMPI PUSH1 0x0 DUP1 REVERT JUMPDEST POP PUSH2 0x145 PUSH1 0x4 DUP1 CALLDATASIZE SUB DUP2 ADD SWAP1 DUP1 DUP1 CALLDATALOAD SWAP1 PUSH1 0x20 ADD SWAP1 SWAP3 SWAP2 SWAP1 POP POP POP PUSH2 0x4FC JUMP JUMPDEST STOP JUMPDEST CALLVALUE DUP1 ISZERO PUSH2 0x153 JUMPI PUSH1 0x0 DUP1 REVERT JUMPDEST POP PUSH2 0x15C PUSH2 0x7BB JUMP JUMPDEST PUSH1 0x40 MLOAD DUP1 DUP1 PUSH1 0x20 ADD DUP3 DUP2 SUB DUP3 MSTORE DUP4 DUP2 DUP2 MLOAD DUP2 MSTORE PUSH1 0x20 ADD SWAP2 POP DUP1 MLOAD SWAP1 PUSH1 0x20 ADD SWAP1 PUSH1 0x20 MUL DUP1 DUP4 DUP4 PUSH1 0x0 JUMPDEST DUP4 DUP2 LT ISZERO PUSH2 0x19F JUMPI DUP1 DUP3 ADD MLOAD DUP2 DUP5 ADD MSTORE PUSH1 0x20 DUP2 ADD SWAP1 POP PUSH2 0x184 JUMP JUMPDEST POP POP POP POP SWAP1 POP ADD SWAP3 POP POP POP PUSH1 0x40 MLOAD DUP1 SWAP2 SUB SWAP1 RETURN JUMPDEST CALLVALUE DUP1 ISZERO PUSH2 0x1BF JUMPI PUSH1 0x0 DUP1 REVERT JUMPDEST POP PUSH2 0x1C8 PUSH2 0x928 JUMP JUMPDEST PUSH1 0x40 MLOAD DUP1 DUP3 DUP2 MSTORE PUSH1 0x20 ADD SWAP2 POP POP PUSH1 0x40 MLOAD DUP1 SWAP2 SUB SWAP1 RETURN JUMPDEST CALLVALUE DUP1 ISZERO PUSH2 0x1EA JUMPI PUSH1 0x0 DUP1 REVERT JUMPDEST POP PUSH2 0x1F3 PUSH2 0x9AB JUMP JUMPDEST PUSH1 0x40 MLOAD DUP1 DUP3 DUP2 MSTORE PUSH1 0x20 ADD SWAP2 POP POP PUSH1 0x40 MLOAD DUP1 SWAP2 SUB SWAP1 RETURN JUMPDEST CALLVALUE DUP1 ISZERO PUSH2 0x215 JUMPI PUSH1 0x0 DUP1 REVERT JUMPDEST POP PUSH2 0x234 PUSH1 0x4 DUP1 CALLDATASIZE SUB DUP2 ADD SWAP1 DUP1 DUP1 CALLDATALOAD SWAP1 PUSH1 0x20 ADD SWAP1 SWAP3 SWAP2 SWAP1 POP POP POP PUSH2 0xAD4 JUMP JUMPDEST PUSH1 0x40 MLOAD DUP1 DUP3 PUSH20 0xFFFFFFFFFFFFFFFFFFFFFFFFFFFFFFFFFFFFFFFF AND PUSH20 0xFFFFFFFFFFFFFFFFFFFFFFFFFFFFFFFFFFFFFFFF AND DUP2 MSTORE PUSH1 0x20 ADD SWAP2 POP POP PUSH1 0x40 MLOAD DUP1 SWAP2 SUB SWAP1 RETURN JUMPDEST PUSH1 0x0 PUSH1 0x4 PUSH1 0x0 SWAP1 SLOAD SWAP1 PUSH2 0x100 EXP SWAP1 DIV PUSH1 0xFF AND SWAP1 POP SWAP1 JUMP JUMPDEST DUP1 PUSH1 0x3 SLOAD DUP2 GT ISZERO ISZERO PUSH2 0x353 JUMPI PUSH1 0x40 MLOAD PUSH32 0x8C379A000000000000000000000000000000000000000000000000000000000 DUP2 MSTORE PUSH1 0x4 ADD DUP1 DUP1 PUSH1 0x20 ADD DUP3 DUP2 SUB DUP3 MSTORE PUSH1 0x45 DUP2 MSTORE PUSH1 0x20 ADD DUP1 PUSH32 0x506C6561736520656E7465722061206269642067726561746572207468616E20 DUP2 MSTORE PUSH1 0x20 ADD PUSH32 0x6D696E696D756D20726571756972656420626964206F6620676976656E206175 DUP2 MSTORE PUSH1 0x20 ADD PUSH32 0x6374696F6E000000000000000000000000000000000000000000000000000000 DUP2 MSTORE POP PUSH1 0x60 ADD SWAP2 POP POP PUSH1 0x40 MLOAD DUP1 SWAP2 SUB SWAP1 REVERT JUMPDEST PUSH1 0x2 SLOAD TIMESTAMP LT ISZERO ISZERO PUSH2 0x3CC JUMPI PUSH1 0x40 MLOAD PUSH32 0x8C379A000000000000000000000000000000000000000000000000000000000 DUP2 MSTORE PUSH1 0x4 ADD DUP1 DUP1 PUSH1 0x20 ADD DUP3 DUP2 SUB DUP3 MSTORE PUSH1 0x14 DUP2 MSTORE PUSH1 0x20 ADD DUP1 PUSH32 0x41756374696F6E20697320496E61637469766520000000000000000000000000 DUP2 MSTORE POP PUSH1 0x20 ADD SWAP2 POP POP PUSH1 0x40 MLOAD DUP1 SWAP2 SUB SWAP1 REVERT JUMPDEST PUSH1 0x0 PUSH1 0x5 PUSH1 0x0 ORIGIN PUSH20 0xFFFFFFFFFFFFFFFFFFFFFFFFFFFFFFFFFFFFFFFF AND PUSH20 0xFFFFFFFFFFFFFFFFFFFFFFFFFFFFFFFFFFFFFFFF AND DUP2 MSTORE PUSH1 0x20 ADD SWAP1 DUP2 MSTORE PUSH1 0x20 ADD PUSH1 0x0 KECCAK256 SLOAD EQ ISZERO ISZERO ISZERO PUSH2 0x4AA JUMPI PUSH1 0x40 MLOAD PUSH32 0x8C379A000000000000000000000000000000000000000000000000000000000 DUP2 MSTORE PUSH1 0x4 ADD DUP1 DUP1 PUSH1 0x20 ADD DUP3 DUP2 SUB DUP3 MSTORE PUSH1 0x3B DUP2 MSTORE PUSH1 0x20 ADD DUP1 PUSH32 0x596F7520686176656E2774206372656174656420616E79206269642C20757365 DUP2 MSTORE PUSH1 0x20 ADD PUSH32 0x2063726561746542696420666F72206372656174696E67206F6E650000000000 DUP2 MSTORE POP PUSH1 0x40 ADD SWAP2 POP POP PUSH1 0x40 MLOAD DUP1 SWAP2 SUB SWAP1 REVERT JUMPDEST DUP2 PUSH1 0x5 PUSH1 0x0 ORIGIN PUSH20 0xFFFFFFFFFFFFFFFFFFFFFFFFFFFFFFFFFFFFFFFF AND PUSH20 0xFFFFFFFFFFFFFFFFFFFFFFFFFFFFFFFFFFFFFFFF AND DUP2 MSTORE PUSH1 0x20 ADD SWAP1 DUP2 MSTORE PUSH1 0x20 ADD PUSH1 0x0 KECCAK256 DUP2 SWAP1 SSTORE POP POP POP JUMP JUMPDEST PUSH1 0x0 PUSH1 0x2 SLOAD SWAP1 POP SWAP1 JUMP JUMPDEST DUP1 PUSH1 0x3 SLOAD DUP2 GT ISZERO ISZERO PUSH2 0x5C2 JUMPI PUSH1 0x40 MLOAD PUSH32 0x8C379A000000000000000000000000000000000000000000000000000000000 DUP2 MSTORE PUSH1 0x4 ADD DUP1 DUP1 PUSH1 0x20 ADD DUP3 DUP2 SUB DUP3 MSTORE PUSH1 0x45 DUP2 MSTORE PUSH1 0x20 ADD DUP1 PUSH32 0x506C6561736520656E7465722061206269642067726561746572207468616E20 DUP2 MSTORE PUSH1 0x20 ADD PUSH32 0x6D696E696D756D20726571756972656420626964206F6620676976656E206175 DUP2 MSTORE PUSH1 0x20 ADD PUSH32 0x6374696F6E000000000000000000000000000000000000000000000000000000 DUP2 MSTORE POP PUSH1 0x60 ADD SWAP2 POP POP PUSH1 0x40 MLOAD DUP1 SWAP2 SUB SWAP1 REVERT JUMPDEST PUSH1 0x2 SLOAD TIMESTAMP LT ISZERO ISZERO PUSH2 0x63B JUMPI PUSH1 0x40 MLOAD PUSH32 0x8C379A000000000000000000000000000000000000000000000000000000000 DUP2 MSTORE PUSH1 0x4 ADD DUP1 DUP1 PUSH1 0x20 ADD DUP3 DUP2 SUB DUP3 MSTORE PUSH1 0x14 DUP2 MSTORE PUSH1 0x20 ADD DUP1 PUSH32 0x41756374696F6E20697320496E61637469766520000000000000000000000000 DUP2 MSTORE POP PUSH1 0x20 ADD SWAP2 POP POP PUSH1 0x40 MLOAD DUP1 SWAP2 SUB SWAP1 REVERT JUMPDEST PUSH1 0x0 PUSH1 0x5 PUSH1 0x0 ORIGIN PUSH20 0xFFFFFFFFFFFFFFFFFFFFFFFFFFFFFFFFFFFFFFFF AND PUSH20 0xFFFFFFFFFFFFFFFFFFFFFFFFFFFFFFFFFFFFFFFF AND DUP2 MSTORE PUSH1 0x20 ADD SWAP1 DUP2 MSTORE PUSH1 0x20 ADD PUSH1 0x0 KECCAK256 SLOAD EQ ISZERO ISZERO PUSH2 0x6F2 JUMPI PUSH1 0x40 MLOAD PUSH32 0x8C379A000000000000000000000000000000000000000000000000000000000 DUP2 MSTORE PUSH1 0x4 ADD DUP1 DUP1 PUSH1 0x20 ADD DUP3 DUP2 SUB DUP3 MSTORE PUSH1 0x1E DUP2 MSTORE PUSH1 0x20 ADD DUP1 PUSH32 0x596F75206861766520616C726561647920637265617465642061206269640000 DUP2 MSTORE POP PUSH1 0x20 ADD SWAP2 POP POP PUSH1 0x40 MLOAD DUP1 SWAP2 SUB SWAP1 REVERT JUMPDEST PUSH1 0x1 PUSH1 0x4 PUSH1 0x0 PUSH2 0x100 EXP DUP2 SLOAD DUP2 PUSH1 0xFF MUL NOT AND SWAP1 DUP4 ISZERO ISZERO MUL OR SWAP1 SSTORE POP DUP2 PUSH1 0x5 PUSH1 0x0 ORIGIN PUSH20 0xFFFFFFFFFFFFFFFFFFFFFFFFFFFFFFFFFFFFFFFF AND PUSH20 0xFFFFFFFFFFFFFFFFFFFFFFFFFFFFFFFFFFFFFFFF AND DUP2 MSTORE PUSH1 0x20 ADD SWAP1 DUP2 MSTORE PUSH1 0x20 ADD PUSH1 0x0 KECCAK256 DUP2 SWAP1 SSTORE POP PUSH1 0x6 ORIGIN SWAP1 DUP1 PUSH1 0x1 DUP2 SLOAD ADD DUP1 DUP3 SSTORE DUP1 SWAP2 POP POP SWAP1 PUSH1 0x1 DUP3 SUB SWAP1 PUSH1 0x0 MSTORE PUSH1 0x20 PUSH1 0x0 KECCAK256 ADD PUSH1 0x0 SWAP1 SWAP2 SWAP3 SWAP1 SWAP2 SWAP1 SWAP2 PUSH2 0x100 EXP DUP2 SLOAD DUP2 PUSH20 0xFFFFFFFFFFFFFFFFFFFFFFFFFFFFFFFFFFFFFFFF MUL NOT AND SWAP1 DUP4 PUSH20 0xFFFFFFFFFFFFFFFFFFFFFFFFFFFFFFFFFFFFFFFF AND MUL OR SWAP1 SSTORE POP POP POP POP JUMP JUMPDEST PUSH1 0x60 DUP1 PUSH1 0x0 PUSH1 0x2 SLOAD TIMESTAMP LT ISZERO ISZERO PUSH2 0x839 JUMPI PUSH1 0x40 MLOAD PUSH32 0x8C379A000000000000000000000000000000000000000000000000000000000 DUP2 MSTORE PUSH1 0x4 ADD DUP1 DUP1 PUSH1 0x20 ADD DUP3 DUP2 SUB DUP3 MSTORE PUSH1 0x14 DUP2 MSTORE PUSH1 0x20 ADD DUP1 PUSH32 0x41756374696F6E20697320496E61637469766520000000000000000000000000 DUP2 MSTORE POP PUSH1 0x20 ADD SWAP2 POP POP PUSH1 0x40 MLOAD DUP1 SWAP2 SUB SWAP1 REVERT JUMPDEST PUSH1 0x6 DUP1 SLOAD SWAP1 POP PUSH1 0x40 MLOAD SWAP1 DUP1 DUP3 MSTORE DUP1 PUSH1 0x20 MUL PUSH1 0x20 ADD DUP3 ADD PUSH1 0x40 MSTORE DUP1 ISZERO PUSH2 0x86D JUMPI DUP2 PUSH1 0x20 ADD PUSH1 0x20 DUP3 MUL DUP1 CODESIZE DUP4 CODECOPY DUP1 DUP3 ADD SWAP2 POP POP SWAP1 POP JUMPDEST POP SWAP2 POP JUMPDEST PUSH1 0x6 DUP1 SLOAD SWAP1 POP DUP2 LT ISZERO PUSH2 0x920 JUMPI PUSH1 0x5 PUSH1 0x0 PUSH1 0x6 DUP4 DUP2 SLOAD DUP2 LT ISZERO ISZERO PUSH2 0x891 JUMPI INVALID JUMPDEST SWAP1 PUSH1 0x0 MSTORE PUSH1 0x20 PUSH1 0x0 KECCAK256 ADD PUSH1 0x0 SWAP1 SLOAD SWAP1 PUSH2 0x100 EXP SWAP1 DIV PUSH20 0xFFFFFFFFFFFFFFFFFFFFFFFFFFFFFFFFFFFFFFFF AND PUSH20 0xFFFFFFFFFFFFFFFFFFFFFFFFFFFFFFFFFFFFFFFF AND PUSH20 0xFFFFFFFFFFFFFFFFFFFFFFFFFFFFFFFFFFFFFFFF AND DUP2 MSTORE PUSH1 0x20 ADD SWAP1 DUP2 MSTORE PUSH1 0x20 ADD PUSH1 0x0 KECCAK256 SLOAD DUP3 DUP3 DUP2 MLOAD DUP2 LT ISZERO ISZERO PUSH2 0x905 JUMPI INVALID JUMPDEST SWAP1 PUSH1 0x20 ADD SWAP1 PUSH1 0x20 MUL ADD DUP2 DUP2 MSTORE POP POP DUP1 DUP1 PUSH1 0x1 ADD SWAP2 POP POP PUSH2 0x871 JUMP JUMPDEST DUP2 SWAP3 POP POP POP SWAP1 JUMP JUMPDEST PUSH1 0x0 PUSH1 0x2 SLOAD TIMESTAMP LT ISZERO ISZERO PUSH2 0x9A3 JUMPI PUSH1 0x40 MLOAD PUSH32 0x8C379A000000000000000000000000000000000000000000000000000000000 DUP2 MSTORE PUSH1 0x4 ADD DUP1 DUP1 PUSH1 0x20 ADD DUP3 DUP2 SUB DUP3 MSTORE PUSH1 0x14 DUP2 MSTORE PUSH1 0x20 ADD DUP1 PUSH32 0x41756374696F6E20697320496E61637469766520000000000000000000000000 DUP2 MSTORE POP PUSH1 0x20 ADD SWAP2 POP POP PUSH1 0x40 MLOAD DUP1 SWAP2 SUB SWAP1 REVERT JUMPDEST PUSH1 0x3 SLOAD SWAP1 POP SWAP1 JUMP JUMPDEST PUSH1 0x0 DUP1 PUSH1 0x0 PUSH1 0x2 SLOAD TIMESTAMP LT ISZERO ISZERO PUSH2 0xA29 JUMPI PUSH1 0x40 MLOAD PUSH32 0x8C379A000000000000000000000000000000000000000000000000000000000 DUP2 MSTORE PUSH1 0x4 ADD DUP1 DUP1 PUSH1 0x20 ADD DUP3 DUP2 SUB DUP3 MSTORE PUSH1 0x14 DUP2 MSTORE PUSH1 0x20 ADD DUP1 PUSH32 0x41756374696F6E20697320496E61637469766520000000000000000000000000 DUP2 MSTORE POP PUSH1 0x20 ADD SWAP2 POP POP PUSH1 0x40 MLOAD DUP1 SWAP2 SUB SWAP1 REVERT JUMPDEST PUSH1 0x0 SWAP2 POP JUMPDEST PUSH1 0x6 DUP1 SLOAD SWAP1 POP DUP2 LT ISZERO PUSH2 0xACC JUMPI PUSH2 0xABD PUSH1 0x5 PUSH1 0x0 PUSH1 0x6 DUP5 DUP2 SLOAD DUP2 LT ISZERO ISZERO PUSH2 0xA51 JUMPI INVALID JUMPDEST SWAP1 PUSH1 0x0 MSTORE PUSH1 0x20 PUSH1 0x0 KECCAK256 ADD PUSH1 0x0 SWAP1 SLOAD SWAP1 PUSH2 0x100 EXP SWAP1 DIV PUSH20 0xFFFFFFFFFFFFFFFFFFFFFFFFFFFFFFFFFFFFFFFF AND PUSH20 0xFFFFFFFFFFFFFFFFFFFFFFFFFFFFFFFFFFFFFFFF AND PUSH20 0xFFFFFFFFFFFFFFFFFFFFFFFFFFFFFFFFFFFFFFFF AND DUP2 MSTORE PUSH1 0x20 ADD SWAP1 DUP2 MSTORE PUSH1 0x20 ADD PUSH1 0x0 KECCAK256 SLOAD DUP4 PUSH2 0xD91 JUMP JUMPDEST SWAP2 POP DUP1 DUP1 PUSH1 0x1 ADD SWAP2 POP POP PUSH2 0xA2E JUMP JUMPDEST DUP2 SWAP3 POP POP POP SWAP1 JUMP JUMPDEST PUSH1 0x0 DUP1 PUSH1 0x0 PUSH1 0x2 SLOAD TIMESTAMP LT ISZERO ISZERO PUSH2 0xB52 JUMPI PUSH1 0x40 MLOAD PUSH32 0x8C379A000000000000000000000000000000000000000000000000000000000 DUP2 MSTORE PUSH1 0x4 ADD DUP1 DUP1 PUSH1 0x20 ADD DUP3 DUP2 SUB DUP3 MSTORE PUSH1 0x14 DUP2 MSTORE PUSH1 0x20 ADD DUP1 PUSH32 0x41756374696F6E20697320496E61637469766520000000000000000000000000 DUP2 MSTORE POP PUSH1 0x20 ADD SWAP2 POP POP PUSH1 0x40 MLOAD DUP1 SWAP2 SUB SWAP1 REVERT JUMPDEST PUSH1 0x0 PUSH1 0x6 DUP1 SLOAD SWAP1 POP SWAP1 POP PUSH1 0x0 DUP2 GT ISZERO ISZERO PUSH2 0xBFA JUMPI PUSH1 0x40 MLOAD PUSH32 0x8C379A000000000000000000000000000000000000000000000000000000000 DUP2 MSTORE PUSH1 0x4 ADD DUP1 DUP1 PUSH1 0x20 ADD DUP3 DUP2 SUB DUP3 MSTORE PUSH1 0x27 DUP2 MSTORE PUSH1 0x20 ADD DUP1 PUSH32 0x43616E277420656E64206173206E6F20626964732068617665206265656E206D DUP2 MSTORE PUSH1 0x20 ADD PUSH32 0x6164652079657400000000000000000000000000000000000000000000000000 DUP2 MSTORE POP PUSH1 0x40 ADD SWAP2 POP POP PUSH1 0x40 MLOAD DUP1 SWAP2 SUB SWAP1 REVERT JUMPDEST TIMESTAMP PUSH1 0x2 DUP2 SWAP1 SSTORE POP PUSH1 0x0 SWAP2 POP JUMPDEST PUSH1 0x6 DUP1 SLOAD SWAP1 POP DUP3 LT ISZERO PUSH2 0xCE1 JUMPI DUP5 PUSH1 0x5 PUSH1 0x0 PUSH1 0x6 DUP6 DUP2 SLOAD DUP2 LT ISZERO ISZERO PUSH2 0xC27 JUMPI INVALID JUMPDEST SWAP1 PUSH1 0x0 MSTORE PUSH1 0x20 PUSH1 0x0 KECCAK256 ADD PUSH1 0x0 SWAP1 SLOAD SWAP1 PUSH2 0x100 EXP SWAP1 DIV PUSH20 0xFFFFFFFFFFFFFFFFFFFFFFFFFFFFFFFFFFFFFFFF AND PUSH20 0xFFFFFFFFFFFFFFFFFFFFFFFFFFFFFFFFFFFFFFFF AND PUSH20 0xFFFFFFFFFFFFFFFFFFFFFFFFFFFFFFFFFFFFFFFF AND DUP2 MSTORE PUSH1 0x20 ADD SWAP1 DUP2 MSTORE PUSH1 0x20 ADD PUSH1 0x0 KECCAK256 SLOAD EQ ISZERO PUSH2 0xCD4 JUMPI PUSH1 0x6 DUP3 DUP2 SLOAD DUP2 LT ISZERO ISZERO PUSH2 0xCA2 JUMPI INVALID JUMPDEST SWAP1 PUSH1 0x0 MSTORE PUSH1 0x20 PUSH1 0x0 KECCAK256 ADD PUSH1 0x0 SWAP1 SLOAD SWAP1 PUSH2 0x100 EXP SWAP1 DIV PUSH20 0xFFFFFFFFFFFFFFFFFFFFFFFFFFFFFFFFFFFFFFFF AND SWAP3 POP PUSH2 0xCE1 JUMP JUMPDEST DUP2 DUP1 PUSH1 0x1 ADD SWAP3 POP POP PUSH2 0xC06 JUMP JUMPDEST PUSH1 0x0 PUSH20 0xFFFFFFFFFFFFFFFFFFFFFFFFFFFFFFFFFFFFFFFF AND DUP4 PUSH20 0xFFFFFFFFFFFFFFFFFFFFFFFFFFFFFFFFFFFFFFFF AND EQ ISZERO ISZERO ISZERO PUSH2 0xD86 JUMPI PUSH1 0x40 MLOAD PUSH32 0x8C379A000000000000000000000000000000000000000000000000000000000 DUP2 MSTORE PUSH1 0x4 ADD DUP1 DUP1 PUSH1 0x20 ADD DUP3 DUP2 SUB DUP3 MSTORE PUSH1 0x1A DUP2 MSTORE PUSH1 0x20 ADD DUP1 PUSH32 0x546869732062696420686173206E6F74206265656E206D616465000000000000 DUP2 MSTORE POP PUSH1 0x20 ADD SWAP2 POP POP PUSH1 0x40 MLOAD DUP1 SWAP2 SUB SWAP1 REVERT JUMPDEST DUP3 SWAP4 POP POP POP POP SWAP2 SWAP1 POP JUMP JUMPDEST PUSH1 0x0 DUP2 DUP4 LT ISZERO PUSH2 0xDA1 JUMPI DUP2 PUSH2 0xDA3 JUMP JUMPDEST DUP3 JUMPDEST SWAP1 POP SWAP3 SWAP2 POP POP JUMP STOP LOG1 PUSH6 0x627A7A723058 KECCAK256 0xb3 0xa6 LT DIV CALLCODE 0xc6 CALLDATALOAD 0x5d 0x27 DUP11 0xe4 0x25 SWAP11 0x2f 0x2a 0xc6 0x4a PUSH11 0x6AC3D8C39EBC3E8A1E315D DUP11 0xb2 0xd0 STOP 0x29 "
				},
				"gasEstimates": {
					"creation": {
						"codeDepositCost": "708600",
						"executionCost": "infinite",
						"totalCost": "infinite"
					},
					"external": {
						"createBid(uint256)": "81993",
						"endAuctionWithSelectedBid(uint256)": "infinite",
						"getBidsMade()": "450",
						"getEndTime()": "446",
						"getListOfBids()": "infinite",
						"getMaximumBid()": "infinite",
						"getMinBidVal()": "740",
						"updateBid(uint256)": "21099"
					},
					"internal": {
						"max(uint256,uint256)": "67"
					}
				},
				"methodIdentifiers": {
					"createBid(uint256)": "659dd2b4",
					"endAuctionWithSelectedBid(uint256)": "dee37a8e",
					"getBidsMade()": "409766e6",
					"getEndTime()": "439f5ac2",
					"getListOfBids()": "679dbf0c",
					"getMaximumBid()": "dd06ba1a",
					"getMinBidVal()": "ad934674",
					"updateBid(uint256)": "43129de1"
				}
			},
			"userdoc": {
				"methods": {}
			}
		}
	}
}