{
	"Project-1-AuctionPlatform/AuctionPlatform.sol": {
		"AuctionPlatform": {
			"abi": [
				{
					"constant": true,
					"inputs": [],
					"name": "aucId",
					"outputs": [
						{
							"name": "",
							"type": "uint256"
						}
					],
					"payable": false,
					"stateMutability": "view",
					"type": "function"
				},
				{
					"constant": false,
					"inputs": [
						{
							"name": "_aucId",
							"type": "uint256"
						},
						{
							"name": "_bidVal",
							"type": "uint256"
						}
					],
					"name": "updateBid",
					"outputs": [],
					"payable": false,
					"stateMutability": "nonpayable",
					"type": "function"
				},
				{
					"constant": true,
					"inputs": [
						{
							"name": "_aucId",
							"type": "uint256"
						}
					],
					"name": "getMaxBid",
					"outputs": [
						{
							"name": "",
							"type": "uint256"
						}
					],
					"payable": false,
					"stateMutability": "view",
					"type": "function"
				},
				{
					"constant": true,
					"inputs": [],
					"name": "getMaxBid",
					"outputs": [
						{
							"name": "",
							"type": "uint256"
						}
					],
					"payable": false,
					"stateMutability": "view",
					"type": "function"
				},
				{
					"constant": false,
					"inputs": [
						{
							"name": "_aucId",
							"type": "uint256"
						},
						{
							"name": "_bidVal",
							"type": "uint256"
						}
					],
					"name": "bidOnAuction",
					"outputs": [],
					"payable": false,
					"stateMutability": "nonpayable",
					"type": "function"
				},
				{
					"constant": false,
					"inputs": [
						{
							"name": "_bid",
							"type": "uint256"
						}
					],
					"name": "endAuction",
					"outputs": [],
					"payable": false,
					"stateMutability": "nonpayable",
					"type": "function"
				},
				{
					"constant": true,
					"inputs": [],
					"name": "getListOfOwnBids",
					"outputs": [
						{
							"name": "",
							"type": "uint256[]"
						}
					],
					"payable": false,
					"stateMutability": "view",
					"type": "function"
				},
				{
					"constant": false,
					"inputs": [
						{
							"name": "_description",
							"type": "string"
						},
						{
							"name": "_startTimeYear",
							"type": "uint256"
						},
						{
							"name": "_startTimeMonth",
							"type": "uint256"
						},
						{
							"name": "_startTimeDay",
							"type": "uint256"
						},
						{
							"name": "_endTimeYear",
							"type": "uint256"
						},
						{
							"name": "_endTimeMonth",
							"type": "uint256"
						},
						{
							"name": "_endTimeDay",
							"type": "uint256"
						},
						{
							"name": "_minBidVal",
							"type": "uint256"
						}
					],
					"name": "createAuction",
					"outputs": [],
					"payable": false,
					"stateMutability": "nonpayable",
					"type": "function"
				},
				{
					"constant": true,
					"inputs": [],
					"name": "getListOfBidsOnAuction",
					"outputs": [
						{
							"name": "",
							"type": "uint256[]"
						}
					],
					"payable": false,
					"stateMutability": "view",
					"type": "function"
				},
				{
					"constant": false,
					"inputs": [],
					"name": "endAuction",
					"outputs": [
						{
							"name": "",
							"type": "address"
						}
					],
					"payable": false,
					"stateMutability": "nonpayable",
					"type": "function"
				},
				{
					"anonymous": false,
					"inputs": [
						{
							"indexed": true,
							"name": "_aucId",
							"type": "uint256"
						},
						{
							"indexed": true,
							"name": "_timeStamp",
							"type": "uint256"
						},
						{
							"indexed": false,
							"name": "from",
							"type": "address"
						}
					],
					"name": "auctionCreated",
					"type": "event"
				},
				{
					"anonymous": false,
					"inputs": [
						{
							"indexed": true,
							"name": "_winner",
							"type": "address"
						},
						{
							"indexed": true,
							"name": "_winningBid",
							"type": "uint256"
						}
					],
					"name": "auctionEnded",
					"type": "event"
				},
				{
					"anonymous": false,
					"inputs": [
						{
							"indexed": true,
							"name": "from",
							"type": "address"
						},
						{
							"indexed": true,
							"name": "_aucId",
							"type": "uint256"
						}
					],
					"name": "biddedOnAuction",
					"type": "event"
				},
				{
					"anonymous": false,
					"inputs": [
						{
							"indexed": true,
							"name": "from",
							"type": "address"
						},
						{
							"indexed": true,
							"name": "_aucId",
							"type": "uint256"
						}
					],
					"name": "updatedBid",
					"type": "event"
				}
			],
			"devdoc": {
				"methods": {}
			},
			"evm": {
				"assembly": "    /* \"Project-1-AuctionPlatform/AuctionPlatform.sol\":375:8845  contract AuctionPlatform {... */\n  mstore(0x40, 0x80)\n    /* \"Project-1-AuctionPlatform/AuctionPlatform.sol\":429:430  0 */\n  0x0\n    /* \"Project-1-AuctionPlatform/AuctionPlatform.sol\":406:430  uint256 public aucId = 0 */\n  dup1\n  sstore\n    /* \"Project-1-AuctionPlatform/AuctionPlatform.sol\":375:8845  contract AuctionPlatform {... */\n  callvalue\n    /* \"--CODEGEN--\":8:17   */\n  dup1\n    /* \"--CODEGEN--\":5:7   */\n  iszero\n  tag_1\n  jumpi\n    /* \"--CODEGEN--\":30:31   */\n  0x0\n    /* \"--CODEGEN--\":27:28   */\n  dup1\n    /* \"--CODEGEN--\":20:32   */\n  revert\n    /* \"--CODEGEN--\":5:7   */\ntag_1:\n    /* \"Project-1-AuctionPlatform/AuctionPlatform.sol\":375:8845  contract AuctionPlatform {... */\n  pop\n  dataSize(sub_0)\n  dup1\n  dataOffset(sub_0)\n  0x0\n  codecopy\n  0x0\n  return\nstop\n\nsub_0: assembly {\n        /* \"Project-1-AuctionPlatform/AuctionPlatform.sol\":375:8845  contract AuctionPlatform {... */\n      mstore(0x40, 0x80)\n      jumpi(tag_1, lt(calldatasize, 0x4))\n      calldataload(0x0)\n      0x100000000000000000000000000000000000000000000000000000000\n      swap1\n      div\n      0xffffffff\n      and\n      dup1\n      0x25c0cdaa\n      eq\n      tag_2\n      jumpi\n      dup1\n      0x60365e0c\n      eq\n      tag_3\n      jumpi\n      dup1\n      0x617fbce9\n      eq\n      tag_4\n      jumpi\n      dup1\n      0x7e12a251\n      eq\n      tag_5\n      jumpi\n      dup1\n      0x9f635120\n      eq\n      tag_6\n      jumpi\n      dup1\n      0xb9a2de3a\n      eq\n      tag_7\n      jumpi\n      dup1\n      0xd1fda965\n      eq\n      tag_8\n      jumpi\n      dup1\n      0xe3a57e65\n      eq\n      tag_9\n      jumpi\n      dup1\n      0xf2f58fcf\n      eq\n      tag_10\n      jumpi\n      dup1\n      0xfe67a54b\n      eq\n      tag_11\n      jumpi\n    tag_1:\n      0x0\n      dup1\n      revert\n        /* \"Project-1-AuctionPlatform/AuctionPlatform.sol\":406:430  uint256 public aucId = 0 */\n    tag_2:\n      callvalue\n        /* \"--CODEGEN--\":8:17   */\n      dup1\n        /* \"--CODEGEN--\":5:7   */\n      iszero\n      tag_12\n      jumpi\n        /* \"--CODEGEN--\":30:31   */\n      0x0\n        /* \"--CODEGEN--\":27:28   */\n      dup1\n        /* \"--CODEGEN--\":20:32   */\n      revert\n        /* \"--CODEGEN--\":5:7   */\n    tag_12:\n        /* \"Project-1-AuctionPlatform/AuctionPlatform.sol\":406:430  uint256 public aucId = 0 */\n      pop\n      tag_13\n      jump(tag_14)\n    tag_13:\n      mload(0x40)\n      dup1\n      dup3\n      dup2\n      mstore\n      0x20\n      add\n      swap2\n      pop\n      pop\n      mload(0x40)\n      dup1\n      swap2\n      sub\n      swap1\n      return\n        /* \"Project-1-AuctionPlatform/AuctionPlatform.sol\":4698:4967  function updateBid(uint256 _aucId, uint256 _bidVal)... */\n    tag_3:\n      callvalue\n        /* \"--CODEGEN--\":8:17   */\n      dup1\n        /* \"--CODEGEN--\":5:7   */\n      iszero\n      tag_15\n      jumpi\n        /* \"--CODEGEN--\":30:31   */\n      0x0\n        /* \"--CODEGEN--\":27:28   */\n      dup1\n        /* \"--CODEGEN--\":20:32   */\n      revert\n        /* \"--CODEGEN--\":5:7   */\n    tag_15:\n        /* \"Project-1-AuctionPlatform/AuctionPlatform.sol\":4698:4967  function updateBid(uint256 _aucId, uint256 _bidVal)... */\n      pop\n      tag_16\n      0x4\n      dup1\n      calldatasize\n      sub\n      dup2\n      add\n      swap1\n      dup1\n      dup1\n      calldataload\n      swap1\n      0x20\n      add\n      swap1\n      swap3\n      swap2\n      swap1\n      dup1\n      calldataload\n      swap1\n      0x20\n      add\n      swap1\n      swap3\n      swap2\n      swap1\n      pop\n      pop\n      pop\n      jump(tag_17)\n    tag_16:\n      stop\n        /* \"Project-1-AuctionPlatform/AuctionPlatform.sol\":2386:2557  function getMaxBid(uint256 _aucId)... */\n    tag_4:\n      callvalue\n        /* \"--CODEGEN--\":8:17   */\n      dup1\n        /* \"--CODEGEN--\":5:7   */\n      iszero\n      tag_18\n      jumpi\n        /* \"--CODEGEN--\":30:31   */\n      0x0\n        /* \"--CODEGEN--\":27:28   */\n      dup1\n        /* \"--CODEGEN--\":20:32   */\n      revert\n        /* \"--CODEGEN--\":5:7   */\n    tag_18:\n        /* \"Project-1-AuctionPlatform/AuctionPlatform.sol\":2386:2557  function getMaxBid(uint256 _aucId)... */\n      pop\n      tag_19\n      0x4\n      dup1\n      calldatasize\n      sub\n      dup2\n      add\n      swap1\n      dup1\n      dup1\n      calldataload\n      swap1\n      0x20\n      add\n      swap1\n      swap3\n      swap2\n      swap1\n      pop\n      pop\n      pop\n      jump(tag_20)\n    tag_19:\n      mload(0x40)\n      dup1\n      dup3\n      dup2\n      mstore\n      0x20\n      add\n      swap2\n      pop\n      pop\n      mload(0x40)\n      dup1\n      swap2\n      sub\n      swap1\n      return\n        /* \"Project-1-AuctionPlatform/AuctionPlatform.sol\":1970:2380  function getMaxBid()... */\n    tag_5:\n      callvalue\n        /* \"--CODEGEN--\":8:17   */\n      dup1\n        /* \"--CODEGEN--\":5:7   */\n      iszero\n      tag_21\n      jumpi\n        /* \"--CODEGEN--\":30:31   */\n      0x0\n        /* \"--CODEGEN--\":27:28   */\n      dup1\n        /* \"--CODEGEN--\":20:32   */\n      revert\n        /* \"--CODEGEN--\":5:7   */\n    tag_21:\n        /* \"Project-1-AuctionPlatform/AuctionPlatform.sol\":1970:2380  function getMaxBid()... */\n      pop\n      tag_22\n      jump(tag_23)\n    tag_22:\n      mload(0x40)\n      dup1\n      dup3\n      dup2\n      mstore\n      0x20\n      add\n      swap2\n      pop\n      pop\n      mload(0x40)\n      dup1\n      swap2\n      sub\n      swap1\n      return\n        /* \"Project-1-AuctionPlatform/AuctionPlatform.sol\":3819:4692  function bidOnAuction(uint256 _aucId, uint256 _bidVal)... */\n    tag_6:\n      callvalue\n        /* \"--CODEGEN--\":8:17   */\n      dup1\n        /* \"--CODEGEN--\":5:7   */\n      iszero\n      tag_24\n      jumpi\n        /* \"--CODEGEN--\":30:31   */\n      0x0\n        /* \"--CODEGEN--\":27:28   */\n      dup1\n        /* \"--CODEGEN--\":20:32   */\n      revert\n        /* \"--CODEGEN--\":5:7   */\n    tag_24:\n        /* \"Project-1-AuctionPlatform/AuctionPlatform.sol\":3819:4692  function bidOnAuction(uint256 _aucId, uint256 _bidVal)... */\n      pop\n      tag_25\n      0x4\n      dup1\n      calldatasize\n      sub\n      dup2\n      add\n      swap1\n      dup1\n      dup1\n      calldataload\n      swap1\n      0x20\n      add\n      swap1\n      swap3\n      swap2\n      swap1\n      dup1\n      calldataload\n      swap1\n      0x20\n      add\n      swap1\n      swap3\n      swap2\n      swap1\n      pop\n      pop\n      pop\n      jump(tag_26)\n    tag_25:\n      stop\n        /* \"Project-1-AuctionPlatform/AuctionPlatform.sol\":3464:3740  function endAuction(uint256 _bid) public ifAuctionOwner {... */\n    tag_7:\n      callvalue\n        /* \"--CODEGEN--\":8:17   */\n      dup1\n        /* \"--CODEGEN--\":5:7   */\n      iszero\n      tag_27\n      jumpi\n        /* \"--CODEGEN--\":30:31   */\n      0x0\n        /* \"--CODEGEN--\":27:28   */\n      dup1\n        /* \"--CODEGEN--\":20:32   */\n      revert\n        /* \"--CODEGEN--\":5:7   */\n    tag_27:\n        /* \"Project-1-AuctionPlatform/AuctionPlatform.sol\":3464:3740  function endAuction(uint256 _bid) public ifAuctionOwner {... */\n      pop\n      tag_28\n      0x4\n      dup1\n      calldatasize\n      sub\n      dup2\n      add\n      swap1\n      dup1\n      dup1\n      calldataload\n      swap1\n      0x20\n      add\n      swap1\n      swap3\n      swap2\n      swap1\n      pop\n      pop\n      pop\n      jump(tag_29)\n    tag_28:\n      stop\n        /* \"Project-1-AuctionPlatform/AuctionPlatform.sol\":1780:1894  function getListOfOwnBids() public view ifBidded returns (uint256[]) {... */\n    tag_8:\n      callvalue\n        /* \"--CODEGEN--\":8:17   */\n      dup1\n        /* \"--CODEGEN--\":5:7   */\n      iszero\n      tag_30\n      jumpi\n        /* \"--CODEGEN--\":30:31   */\n      0x0\n        /* \"--CODEGEN--\":27:28   */\n      dup1\n        /* \"--CODEGEN--\":20:32   */\n      revert\n        /* \"--CODEGEN--\":5:7   */\n    tag_30:\n        /* \"Project-1-AuctionPlatform/AuctionPlatform.sol\":1780:1894  function getListOfOwnBids() public view ifBidded returns (uint256[]) {... */\n      pop\n      tag_31\n      jump(tag_32)\n    tag_31:\n      mload(0x40)\n      dup1\n      dup1\n      0x20\n      add\n      dup3\n      dup2\n      sub\n      dup3\n      mstore\n      dup4\n      dup2\n      dup2\n      mload\n      dup2\n      mstore\n      0x20\n      add\n      swap2\n      pop\n      dup1\n      mload\n      swap1\n      0x20\n      add\n      swap1\n      0x20\n      mul\n      dup1\n      dup4\n      dup4\n        /* \"--CODEGEN--\":23:24   */\n      0x0\n        /* \"--CODEGEN--\":8:108   */\n    tag_33:\n        /* \"--CODEGEN--\":33:36   */\n      dup4\n        /* \"--CODEGEN--\":30:31   */\n      dup2\n        /* \"--CODEGEN--\":27:37   */\n      lt\n        /* \"--CODEGEN--\":8:108   */\n      iszero\n      tag_34\n      jumpi\n        /* \"--CODEGEN--\":99:100   */\n      dup1\n        /* \"--CODEGEN--\":94:97   */\n      dup3\n        /* \"--CODEGEN--\":90:101   */\n      add\n        /* \"--CODEGEN--\":84:102   */\n      mload\n        /* \"--CODEGEN--\":80:81   */\n      dup2\n        /* \"--CODEGEN--\":75:78   */\n      dup5\n        /* \"--CODEGEN--\":71:82   */\n      add\n        /* \"--CODEGEN--\":64:103   */\n      mstore\n        /* \"--CODEGEN--\":52:54   */\n      0x20\n        /* \"--CODEGEN--\":49:50   */\n      dup2\n        /* \"--CODEGEN--\":45:55   */\n      add\n        /* \"--CODEGEN--\":40:55   */\n      swap1\n      pop\n        /* \"--CODEGEN--\":8:108   */\n      jump(tag_33)\n    tag_34:\n        /* \"--CODEGEN--\":12:26   */\n      pop\n        /* \"Project-1-AuctionPlatform/AuctionPlatform.sol\":1780:1894  function getListOfOwnBids() public view ifBidded returns (uint256[]) {... */\n      pop\n      pop\n      pop\n      swap1\n      pop\n      add\n      swap3\n      pop\n      pop\n      pop\n      mload(0x40)\n      dup1\n      swap2\n      sub\n      swap1\n      return\n        /* \"Project-1-AuctionPlatform/AuctionPlatform.sol\":4973:7552  function createAuction(... */\n    tag_9:\n      callvalue\n        /* \"--CODEGEN--\":8:17   */\n      dup1\n        /* \"--CODEGEN--\":5:7   */\n      iszero\n      tag_36\n      jumpi\n        /* \"--CODEGEN--\":30:31   */\n      0x0\n        /* \"--CODEGEN--\":27:28   */\n      dup1\n        /* \"--CODEGEN--\":20:32   */\n      revert\n        /* \"--CODEGEN--\":5:7   */\n    tag_36:\n        /* \"Project-1-AuctionPlatform/AuctionPlatform.sol\":4973:7552  function createAuction(... */\n      pop\n      tag_37\n      0x4\n      dup1\n      calldatasize\n      sub\n      dup2\n      add\n      swap1\n      dup1\n      dup1\n      calldataload\n      swap1\n      0x20\n      add\n      swap1\n      dup3\n      add\n      dup1\n      calldataload\n      swap1\n      0x20\n      add\n      swap1\n      dup1\n      dup1\n      0x1f\n      add\n      0x20\n      dup1\n      swap2\n      div\n      mul\n      0x20\n      add\n      mload(0x40)\n      swap1\n      dup2\n      add\n      0x40\n      mstore\n      dup1\n      swap4\n      swap3\n      swap2\n      swap1\n      dup2\n      dup2\n      mstore\n      0x20\n      add\n      dup4\n      dup4\n      dup1\n      dup3\n      dup5\n      calldatacopy\n      dup3\n      add\n      swap2\n      pop\n      pop\n      pop\n      pop\n      pop\n      pop\n      swap2\n      swap3\n      swap2\n      swap3\n      swap1\n      dup1\n      calldataload\n      swap1\n      0x20\n      add\n      swap1\n      swap3\n      swap2\n      swap1\n      dup1\n      calldataload\n      swap1\n      0x20\n      add\n      swap1\n      swap3\n      swap2\n      swap1\n      dup1\n      calldataload\n      swap1\n      0x20\n      add\n      swap1\n      swap3\n      swap2\n      swap1\n      dup1\n      calldataload\n      swap1\n      0x20\n      add\n      swap1\n      swap3\n      swap2\n      swap1\n      dup1\n      calldataload\n      swap1\n      0x20\n      add\n      swap1\n      swap3\n      swap2\n      swap1\n      dup1\n      calldataload\n      swap1\n      0x20\n      add\n      swap1\n      swap3\n      swap2\n      swap1\n      dup1\n      calldataload\n      swap1\n      0x20\n      add\n      swap1\n      swap3\n      swap2\n      swap1\n      pop\n      pop\n      pop\n      jump(tag_38)\n    tag_37:\n      stop\n        /* \"Project-1-AuctionPlatform/AuctionPlatform.sol\":1470:1680  function getListOfBidsOnAuction()... */\n    tag_10:\n      callvalue\n        /* \"--CODEGEN--\":8:17   */\n      dup1\n        /* \"--CODEGEN--\":5:7   */\n      iszero\n      tag_39\n      jumpi\n        /* \"--CODEGEN--\":30:31   */\n      0x0\n        /* \"--CODEGEN--\":27:28   */\n      dup1\n        /* \"--CODEGEN--\":20:32   */\n      revert\n        /* \"--CODEGEN--\":5:7   */\n    tag_39:\n        /* \"Project-1-AuctionPlatform/AuctionPlatform.sol\":1470:1680  function getListOfBidsOnAuction()... */\n      pop\n      tag_40\n      jump(tag_41)\n    tag_40:\n      mload(0x40)\n      dup1\n      dup1\n      0x20\n      add\n      dup3\n      dup2\n      sub\n      dup3\n      mstore\n      dup4\n      dup2\n      dup2\n      mload\n      dup2\n      mstore\n      0x20\n      add\n      swap2\n      pop\n      dup1\n      mload\n      swap1\n      0x20\n      add\n      swap1\n      0x20\n      mul\n      dup1\n      dup4\n      dup4\n        /* \"--CODEGEN--\":23:24   */\n      0x0\n        /* \"--CODEGEN--\":8:108   */\n    tag_42:\n        /* \"--CODEGEN--\":33:36   */\n      dup4\n        /* \"--CODEGEN--\":30:31   */\n      dup2\n        /* \"--CODEGEN--\":27:37   */\n      lt\n        /* \"--CODEGEN--\":8:108   */\n      iszero\n      tag_43\n      jumpi\n        /* \"--CODEGEN--\":99:100   */\n      dup1\n        /* \"--CODEGEN--\":94:97   */\n      dup3\n        /* \"--CODEGEN--\":90:101   */\n      add\n        /* \"--CODEGEN--\":84:102   */\n      mload\n        /* \"--CODEGEN--\":80:81   */\n      dup2\n        /* \"--CODEGEN--\":75:78   */\n      dup5\n        /* \"--CODEGEN--\":71:82   */\n      add\n        /* \"--CODEGEN--\":64:103   */\n      mstore\n        /* \"--CODEGEN--\":52:54   */\n      0x20\n        /* \"--CODEGEN--\":49:50   */\n      dup2\n        /* \"--CODEGEN--\":45:55   */\n      add\n        /* \"--CODEGEN--\":40:55   */\n      swap1\n      pop\n        /* \"--CODEGEN--\":8:108   */\n      jump(tag_42)\n    tag_43:\n        /* \"--CODEGEN--\":12:26   */\n      pop\n        /* \"Project-1-AuctionPlatform/AuctionPlatform.sol\":1470:1680  function getListOfBidsOnAuction()... */\n      pop\n      pop\n      pop\n      swap1\n      pop\n      add\n      swap3\n      pop\n      pop\n      pop\n      mload(0x40)\n      dup1\n      swap2\n      sub\n      swap1\n      return\n        /* \"Project-1-AuctionPlatform/AuctionPlatform.sol\":2698:3309  function endAuction() public ifAuctionOwner returns (address) {... */\n    tag_11:\n      callvalue\n        /* \"--CODEGEN--\":8:17   */\n      dup1\n        /* \"--CODEGEN--\":5:7   */\n      iszero\n      tag_45\n      jumpi\n        /* \"--CODEGEN--\":30:31   */\n      0x0\n        /* \"--CODEGEN--\":27:28   */\n      dup1\n        /* \"--CODEGEN--\":20:32   */\n      revert\n        /* \"--CODEGEN--\":5:7   */\n    tag_45:\n        /* \"Project-1-AuctionPlatform/AuctionPlatform.sol\":2698:3309  function endAuction() public ifAuctionOwner returns (address) {... */\n      pop\n      tag_46\n      jump(tag_47)\n    tag_46:\n      mload(0x40)\n      dup1\n      dup3\n      0xffffffffffffffffffffffffffffffffffffffff\n      and\n      0xffffffffffffffffffffffffffffffffffffffff\n      and\n      dup2\n      mstore\n      0x20\n      add\n      swap2\n      pop\n      pop\n      mload(0x40)\n      dup1\n      swap2\n      sub\n      swap1\n      return\n        /* \"Project-1-AuctionPlatform/AuctionPlatform.sol\":406:430  uint256 public aucId = 0 */\n    tag_14:\n      sload(0x0)\n      dup2\n      jump\t// out\n        /* \"Project-1-AuctionPlatform/AuctionPlatform.sol\":4698:4967  function updateBid(uint256 _aucId, uint256 _bidVal)... */\n    tag_17:\n        /* \"Project-1-AuctionPlatform/AuctionPlatform.sol\":4783:4789  _aucId */\n      dup2\n        /* \"Project-1-AuctionPlatform/AuctionPlatform.sol\":7959:7977  auctionList.length */\n      0x65\n        /* \"Project-1-AuctionPlatform/AuctionPlatform.sol\":7950:7956  _aucId */\n      dup2\n        /* \"Project-1-AuctionPlatform/AuctionPlatform.sol\":7950:7977  _aucId < auctionList.length */\n      lt\n        /* \"Project-1-AuctionPlatform/AuctionPlatform.sol\":7950:8047  _aucId < auctionList.length &&... */\n      dup1\n      iszero\n      tag_49\n      jumpi\n      pop\n        /* \"Project-1-AuctionPlatform/AuctionPlatform.sol\":8032:8047  block.timestamp */\n      timestamp\n        /* \"Project-1-AuctionPlatform/AuctionPlatform.sol\":7997:8008  auctionList */\n      0x1\n        /* \"Project-1-AuctionPlatform/AuctionPlatform.sol\":8009:8015  _aucId */\n      dup3\n        /* \"Project-1-AuctionPlatform/AuctionPlatform.sol\":7997:8016  auctionList[_aucId] */\n      0x65\n      dup2\n      lt\n      iszero\n      iszero\n      tag_50\n      jumpi\n      invalid\n    tag_50:\n      add\n      0x0\n      swap1\n      sload\n      swap1\n      0x100\n      exp\n      swap1\n      div\n      0xffffffffffffffffffffffffffffffffffffffff\n      and\n        /* \"Project-1-AuctionPlatform/AuctionPlatform.sol\":7997:8027  auctionList[_aucId].getEndTime */\n      0xffffffffffffffffffffffffffffffffffffffff\n      and\n      0x439f5ac2\n        /* \"Project-1-AuctionPlatform/AuctionPlatform.sol\":7997:8029  auctionList[_aucId].getEndTime() */\n      mload(0x40)\n      dup2\n      0xffffffff\n      and\n      0x100000000000000000000000000000000000000000000000000000000\n      mul\n      dup2\n      mstore\n      0x4\n      add\n      0x20\n      mload(0x40)\n      dup1\n      dup4\n      sub\n      dup2\n      0x0\n      dup8\n      dup1\n      extcodesize\n      iszero\n        /* \"--CODEGEN--\":8:17   */\n      dup1\n        /* \"--CODEGEN--\":5:7   */\n      iszero\n      tag_52\n      jumpi\n        /* \"--CODEGEN--\":30:31   */\n      0x0\n        /* \"--CODEGEN--\":27:28   */\n      dup1\n        /* \"--CODEGEN--\":20:32   */\n      revert\n        /* \"--CODEGEN--\":5:7   */\n    tag_52:\n        /* \"Project-1-AuctionPlatform/AuctionPlatform.sol\":7997:8029  auctionList[_aucId].getEndTime() */\n      pop\n      gas\n      call\n      iszero\n        /* \"--CODEGEN--\":8:17   */\n      dup1\n        /* \"--CODEGEN--\":5:7   */\n      iszero\n      tag_53\n      jumpi\n        /* \"--CODEGEN--\":45:61   */\n      returndatasize\n        /* \"--CODEGEN--\":42:43   */\n      0x0\n        /* \"--CODEGEN--\":39:40   */\n      dup1\n        /* \"--CODEGEN--\":24:62   */\n      returndatacopy\n        /* \"--CODEGEN--\":77:93   */\n      returndatasize\n        /* \"--CODEGEN--\":74:75   */\n      0x0\n        /* \"--CODEGEN--\":67:94   */\n      revert\n        /* \"--CODEGEN--\":5:7   */\n    tag_53:\n        /* \"Project-1-AuctionPlatform/AuctionPlatform.sol\":7997:8029  auctionList[_aucId].getEndTime() */\n      pop\n      pop\n      pop\n      pop\n      mload(0x40)\n      returndatasize\n        /* \"--CODEGEN--\":13:15   */\n      0x20\n        /* \"--CODEGEN--\":8:11   */\n      dup2\n        /* \"--CODEGEN--\":5:16   */\n      lt\n        /* \"--CODEGEN--\":2:4   */\n      iszero\n      tag_54\n      jumpi\n        /* \"--CODEGEN--\":29:30   */\n      0x0\n        /* \"--CODEGEN--\":26:27   */\n      dup1\n        /* \"--CODEGEN--\":19:31   */\n      revert\n        /* \"--CODEGEN--\":2:4   */\n    tag_54:\n        /* \"Project-1-AuctionPlatform/AuctionPlatform.sol\":7997:8029  auctionList[_aucId].getEndTime() */\n      dup2\n      add\n      swap1\n      dup1\n      dup1\n      mload\n      swap1\n      0x20\n      add\n      swap1\n      swap3\n      swap2\n      swap1\n      pop\n      pop\n      pop\n        /* \"Project-1-AuctionPlatform/AuctionPlatform.sol\":7997:8047  auctionList[_aucId].getEndTime() > block.timestamp */\n      gt\n        /* \"Project-1-AuctionPlatform/AuctionPlatform.sol\":7950:8047  _aucId < auctionList.length &&... */\n    tag_49:\n        /* \"Project-1-AuctionPlatform/AuctionPlatform.sol\":7929:8092  require(... */\n      iszero\n      iszero\n      tag_55\n      jumpi\n      mload(0x40)\n      0x8c379a000000000000000000000000000000000000000000000000000000000\n      dup2\n      mstore\n      0x4\n      add\n      dup1\n      dup1\n      0x20\n      add\n      dup3\n      dup2\n      sub\n      dup3\n      mstore\n      0x13\n      dup2\n      mstore\n      0x20\n      add\n      dup1\n      0x41756374696f6e20697320496e61637469766500000000000000000000000000\n      dup2\n      mstore\n      pop\n      0x20\n      add\n      swap2\n      pop\n      pop\n      mload(0x40)\n      dup1\n      swap2\n      sub\n      swap1\n      revert\n    tag_55:\n        /* \"Project-1-AuctionPlatform/AuctionPlatform.sol\":4805:4816  auctionList */\n      0x1\n        /* \"Project-1-AuctionPlatform/AuctionPlatform.sol\":4817:4823  _aucId */\n      dup4\n        /* \"Project-1-AuctionPlatform/AuctionPlatform.sol\":4805:4824  auctionList[_aucId] */\n      0x65\n      dup2\n      lt\n      iszero\n      iszero\n      tag_57\n      jumpi\n      invalid\n    tag_57:\n      add\n      0x0\n      swap1\n      sload\n      swap1\n      0x100\n      exp\n      swap1\n      div\n      0xffffffffffffffffffffffffffffffffffffffff\n      and\n        /* \"Project-1-AuctionPlatform/AuctionPlatform.sol\":4805:4834  auctionList[_aucId].updateBid */\n      0xffffffffffffffffffffffffffffffffffffffff\n      and\n      0x43129de1\n        /* \"Project-1-AuctionPlatform/AuctionPlatform.sol\":4835:4842  _bidVal */\n      dup4\n        /* \"Project-1-AuctionPlatform/AuctionPlatform.sol\":4805:4843  auctionList[_aucId].updateBid(_bidVal) */\n      mload(0x40)\n      dup3\n      0xffffffff\n      and\n      0x100000000000000000000000000000000000000000000000000000000\n      mul\n      dup2\n      mstore\n      0x4\n      add\n      dup1\n      dup3\n      dup2\n      mstore\n      0x20\n      add\n      swap2\n      pop\n      pop\n      0x0\n      mload(0x40)\n      dup1\n      dup4\n      sub\n      dup2\n      0x0\n      dup8\n      dup1\n      extcodesize\n      iszero\n        /* \"--CODEGEN--\":8:17   */\n      dup1\n        /* \"--CODEGEN--\":5:7   */\n      iszero\n      tag_59\n      jumpi\n        /* \"--CODEGEN--\":30:31   */\n      0x0\n        /* \"--CODEGEN--\":27:28   */\n      dup1\n        /* \"--CODEGEN--\":20:32   */\n      revert\n        /* \"--CODEGEN--\":5:7   */\n    tag_59:\n        /* \"Project-1-AuctionPlatform/AuctionPlatform.sol\":4805:4843  auctionList[_aucId].updateBid(_bidVal) */\n      pop\n      gas\n      call\n      iszero\n        /* \"--CODEGEN--\":8:17   */\n      dup1\n        /* \"--CODEGEN--\":5:7   */\n      iszero\n      tag_60\n      jumpi\n        /* \"--CODEGEN--\":45:61   */\n      returndatasize\n        /* \"--CODEGEN--\":42:43   */\n      0x0\n        /* \"--CODEGEN--\":39:40   */\n      dup1\n        /* \"--CODEGEN--\":24:62   */\n      returndatacopy\n        /* \"--CODEGEN--\":77:93   */\n      returndatasize\n        /* \"--CODEGEN--\":74:75   */\n      0x0\n        /* \"--CODEGEN--\":67:94   */\n      revert\n        /* \"--CODEGEN--\":5:7   */\n    tag_60:\n        /* \"Project-1-AuctionPlatform/AuctionPlatform.sol\":4805:4843  auctionList[_aucId].updateBid(_bidVal) */\n      pop\n      pop\n      pop\n      pop\n        /* \"Project-1-AuctionPlatform/AuctionPlatform.sol\":4953:4959  _aucId */\n      dup3\n        /* \"Project-1-AuctionPlatform/AuctionPlatform.sol\":4941:4951  msg.sender */\n      caller\n        /* \"Project-1-AuctionPlatform/AuctionPlatform.sol\":4930:4960  updatedBid(msg.sender, _aucId) */\n      0xffffffffffffffffffffffffffffffffffffffff\n      and\n      0xb722ccec10268690bf7ef3a9603076baf9b304a59def91157d4a80c98d557aae\n      mload(0x40)\n      mload(0x40)\n      dup1\n      swap2\n      sub\n      swap1\n      log3\n        /* \"Project-1-AuctionPlatform/AuctionPlatform.sol\":4698:4967  function updateBid(uint256 _aucId, uint256 _bidVal)... */\n      pop\n      pop\n      pop\n      jump\t// out\n        /* \"Project-1-AuctionPlatform/AuctionPlatform.sol\":2386:2557  function getMaxBid(uint256 _aucId)... */\n    tag_20:\n        /* \"Project-1-AuctionPlatform/AuctionPlatform.sol\":2485:2492  uint256 */\n      0x0\n        /* \"Project-1-AuctionPlatform/AuctionPlatform.sol\":7706:7717  auctionList */\n      0x1\n        /* \"Project-1-AuctionPlatform/AuctionPlatform.sol\":7718:7727  aucOwners */\n      0x66\n        /* \"Project-1-AuctionPlatform/AuctionPlatform.sol\":7718:7739  aucOwners[msg.sender] */\n      0x0\n        /* \"Project-1-AuctionPlatform/AuctionPlatform.sol\":7728:7738  msg.sender */\n      caller\n        /* \"Project-1-AuctionPlatform/AuctionPlatform.sol\":7718:7739  aucOwners[msg.sender] */\n      0xffffffffffffffffffffffffffffffffffffffff\n      and\n      0xffffffffffffffffffffffffffffffffffffffff\n      and\n      dup2\n      mstore\n      0x20\n      add\n      swap1\n      dup2\n      mstore\n      0x20\n      add\n      0x0\n      keccak256\n      sload\n        /* \"Project-1-AuctionPlatform/AuctionPlatform.sol\":7706:7740  auctionList[aucOwners[msg.sender]] */\n      0x65\n      dup2\n      lt\n      iszero\n      iszero\n      tag_62\n      jumpi\n      invalid\n    tag_62:\n      add\n      0x0\n      swap1\n      sload\n      swap1\n      0x100\n      exp\n      swap1\n      div\n      0xffffffffffffffffffffffffffffffffffffffff\n      and\n        /* \"Project-1-AuctionPlatform/AuctionPlatform.sol\":7706:7752  auctionList[aucOwners[msg.sender]].getBidsMade */\n      0xffffffffffffffffffffffffffffffffffffffff\n      and\n      0x409766e6\n        /* \"Project-1-AuctionPlatform/AuctionPlatform.sol\":7706:7754  auctionList[aucOwners[msg.sender]].getBidsMade() */\n      mload(0x40)\n      dup2\n      0xffffffff\n      and\n      0x100000000000000000000000000000000000000000000000000000000\n      mul\n      dup2\n      mstore\n      0x4\n      add\n      0x20\n      mload(0x40)\n      dup1\n      dup4\n      sub\n      dup2\n      0x0\n      dup8\n      dup1\n      extcodesize\n      iszero\n        /* \"--CODEGEN--\":8:17   */\n      dup1\n        /* \"--CODEGEN--\":5:7   */\n      iszero\n      tag_64\n      jumpi\n        /* \"--CODEGEN--\":30:31   */\n      0x0\n        /* \"--CODEGEN--\":27:28   */\n      dup1\n        /* \"--CODEGEN--\":20:32   */\n      revert\n        /* \"--CODEGEN--\":5:7   */\n    tag_64:\n        /* \"Project-1-AuctionPlatform/AuctionPlatform.sol\":7706:7754  auctionList[aucOwners[msg.sender]].getBidsMade() */\n      pop\n      gas\n      call\n      iszero\n        /* \"--CODEGEN--\":8:17   */\n      dup1\n        /* \"--CODEGEN--\":5:7   */\n      iszero\n      tag_65\n      jumpi\n        /* \"--CODEGEN--\":45:61   */\n      returndatasize\n        /* \"--CODEGEN--\":42:43   */\n      0x0\n        /* \"--CODEGEN--\":39:40   */\n      dup1\n        /* \"--CODEGEN--\":24:62   */\n      returndatacopy\n        /* \"--CODEGEN--\":77:93   */\n      returndatasize\n        /* \"--CODEGEN--\":74:75   */\n      0x0\n        /* \"--CODEGEN--\":67:94   */\n      revert\n        /* \"--CODEGEN--\":5:7   */\n    tag_65:\n        /* \"Project-1-AuctionPlatform/AuctionPlatform.sol\":7706:7754  auctionList[aucOwners[msg.sender]].getBidsMade() */\n      pop\n      pop\n      pop\n      pop\n      mload(0x40)\n      returndatasize\n        /* \"--CODEGEN--\":13:15   */\n      0x20\n        /* \"--CODEGEN--\":8:11   */\n      dup2\n        /* \"--CODEGEN--\":5:16   */\n      lt\n        /* \"--CODEGEN--\":2:4   */\n      iszero\n      tag_66\n      jumpi\n        /* \"--CODEGEN--\":29:30   */\n      0x0\n        /* \"--CODEGEN--\":26:27   */\n      dup1\n        /* \"--CODEGEN--\":19:31   */\n      revert\n        /* \"--CODEGEN--\":2:4   */\n    tag_66:\n        /* \"Project-1-AuctionPlatform/AuctionPlatform.sol\":7706:7754  auctionList[aucOwners[msg.sender]].getBidsMade() */\n      dup2\n      add\n      swap1\n      dup1\n      dup1\n      mload\n      swap1\n      0x20\n      add\n      swap1\n      swap3\n      swap2\n      swap1\n      pop\n      pop\n      pop\n        /* \"Project-1-AuctionPlatform/AuctionPlatform.sol\":7685:7816  require(... */\n      iszero\n      iszero\n      tag_67\n      jumpi\n      mload(0x40)\n      0x8c379a000000000000000000000000000000000000000000000000000000000\n      dup2\n      mstore\n      0x4\n      add\n      dup1\n      dup1\n      0x20\n      add\n      dup3\n      dup2\n      sub\n      dup3\n      mstore\n      0x24\n      dup2\n      mstore\n      0x20\n      add\n      dup1\n      0x5468657265206172656e277420616e792062696473206f6e2074686520417563\n      dup2\n      mstore\n      0x20\n      add\n      0x74696f6e00000000000000000000000000000000000000000000000000000000\n      dup2\n      mstore\n      pop\n      0x40\n      add\n      swap2\n      pop\n      pop\n      mload(0x40)\n      dup1\n      swap2\n      sub\n      swap1\n      revert\n    tag_67:\n        /* \"Project-1-AuctionPlatform/AuctionPlatform.sol\":2515:2526  auctionList */\n      0x1\n        /* \"Project-1-AuctionPlatform/AuctionPlatform.sol\":2527:2533  _aucId */\n      dup3\n        /* \"Project-1-AuctionPlatform/AuctionPlatform.sol\":2515:2534  auctionList[_aucId] */\n      0x65\n      dup2\n      lt\n      iszero\n      iszero\n      tag_69\n      jumpi\n      invalid\n    tag_69:\n      add\n      0x0\n      swap1\n      sload\n      swap1\n      0x100\n      exp\n      swap1\n      div\n      0xffffffffffffffffffffffffffffffffffffffff\n      and\n        /* \"Project-1-AuctionPlatform/AuctionPlatform.sol\":2515:2548  auctionList[_aucId].getMaximumBid */\n      0xffffffffffffffffffffffffffffffffffffffff\n      and\n      0xdd06ba1a\n        /* \"Project-1-AuctionPlatform/AuctionPlatform.sol\":2515:2550  auctionList[_aucId].getMaximumBid() */\n      mload(0x40)\n      dup2\n      0xffffffff\n      and\n      0x100000000000000000000000000000000000000000000000000000000\n      mul\n      dup2\n      mstore\n      0x4\n      add\n      0x20\n      mload(0x40)\n      dup1\n      dup4\n      sub\n      dup2\n      0x0\n      dup8\n      dup1\n      extcodesize\n      iszero\n        /* \"--CODEGEN--\":8:17   */\n      dup1\n        /* \"--CODEGEN--\":5:7   */\n      iszero\n      tag_71\n      jumpi\n        /* \"--CODEGEN--\":30:31   */\n      0x0\n        /* \"--CODEGEN--\":27:28   */\n      dup1\n        /* \"--CODEGEN--\":20:32   */\n      revert\n        /* \"--CODEGEN--\":5:7   */\n    tag_71:\n        /* \"Project-1-AuctionPlatform/AuctionPlatform.sol\":2515:2550  auctionList[_aucId].getMaximumBid() */\n      pop\n      gas\n      call\n      iszero\n        /* \"--CODEGEN--\":8:17   */\n      dup1\n        /* \"--CODEGEN--\":5:7   */\n      iszero\n      tag_72\n      jumpi\n        /* \"--CODEGEN--\":45:61   */\n      returndatasize\n        /* \"--CODEGEN--\":42:43   */\n      0x0\n        /* \"--CODEGEN--\":39:40   */\n      dup1\n        /* \"--CODEGEN--\":24:62   */\n      returndatacopy\n        /* \"--CODEGEN--\":77:93   */\n      returndatasize\n        /* \"--CODEGEN--\":74:75   */\n      0x0\n        /* \"--CODEGEN--\":67:94   */\n      revert\n        /* \"--CODEGEN--\":5:7   */\n    tag_72:\n        /* \"Project-1-AuctionPlatform/AuctionPlatform.sol\":2515:2550  auctionList[_aucId].getMaximumBid() */\n      pop\n      pop\n      pop\n      pop\n      mload(0x40)\n      returndatasize\n        /* \"--CODEGEN--\":13:15   */\n      0x20\n        /* \"--CODEGEN--\":8:11   */\n      dup2\n        /* \"--CODEGEN--\":5:16   */\n      lt\n        /* \"--CODEGEN--\":2:4   */\n      iszero\n      tag_73\n      jumpi\n        /* \"--CODEGEN--\":29:30   */\n      0x0\n        /* \"--CODEGEN--\":26:27   */\n      dup1\n        /* \"--CODEGEN--\":19:31   */\n      revert\n        /* \"--CODEGEN--\":2:4   */\n    tag_73:\n        /* \"Project-1-AuctionPlatform/AuctionPlatform.sol\":2515:2550  auctionList[_aucId].getMaximumBid() */\n      dup2\n      add\n      swap1\n      dup1\n      dup1\n      mload\n      swap1\n      0x20\n      add\n      swap1\n      swap3\n      swap2\n      swap1\n      pop\n      pop\n      pop\n        /* \"Project-1-AuctionPlatform/AuctionPlatform.sol\":2508:2550  return auctionList[_aucId].getMaximumBid() */\n      swap1\n      pop\n        /* \"Project-1-AuctionPlatform/AuctionPlatform.sol\":2386:2557  function getMaxBid(uint256 _aucId)... */\n      swap2\n      swap1\n      pop\n      jump\t// out\n        /* \"Project-1-AuctionPlatform/AuctionPlatform.sol\":1970:2380  function getMaxBid()... */\n    tag_23:\n        /* \"Project-1-AuctionPlatform/AuctionPlatform.sol\":2078:2085  uint256 */\n      0x0\n        /* \"Project-1-AuctionPlatform/AuctionPlatform.sol\":8493:8494  0 */\n      dup1\n        /* \"Project-1-AuctionPlatform/AuctionPlatform.sol\":8468:8477  aucOwners */\n      0x66\n        /* \"Project-1-AuctionPlatform/AuctionPlatform.sol\":8468:8489  aucOwners[msg.sender] */\n      0x0\n        /* \"Project-1-AuctionPlatform/AuctionPlatform.sol\":8478:8488  msg.sender */\n      caller\n        /* \"Project-1-AuctionPlatform/AuctionPlatform.sol\":8468:8489  aucOwners[msg.sender] */\n      0xffffffffffffffffffffffffffffffffffffffff\n      and\n      0xffffffffffffffffffffffffffffffffffffffff\n      and\n      dup2\n      mstore\n      0x20\n      add\n      swap1\n      dup2\n      mstore\n      0x20\n      add\n      0x0\n      keccak256\n      sload\n        /* \"Project-1-AuctionPlatform/AuctionPlatform.sol\":8468:8494  aucOwners[msg.sender] != 0 */\n      eq\n      iszero\n        /* \"Project-1-AuctionPlatform/AuctionPlatform.sol\":8460:8531  require(aucOwners[msg.sender] != 0, \"You haven't created any Auctions\") */\n      iszero\n      iszero\n      tag_75\n      jumpi\n      mload(0x40)\n      0x8c379a000000000000000000000000000000000000000000000000000000000\n      dup2\n      mstore\n      0x4\n      add\n      dup1\n      dup1\n      0x20\n      add\n      dup3\n      dup2\n      sub\n      dup3\n      mstore\n      0x20\n      dup2\n      mstore\n      0x20\n      add\n      dup1\n      0x596f7520686176656e2774206372656174656420616e792041756374696f6e73\n      dup2\n      mstore\n      pop\n      0x20\n      add\n      swap2\n      pop\n      pop\n      mload(0x40)\n      dup1\n      swap2\n      sub\n      swap1\n      revert\n    tag_75:\n        /* \"Project-1-AuctionPlatform/AuctionPlatform.sol\":7706:7717  auctionList */\n      0x1\n        /* \"Project-1-AuctionPlatform/AuctionPlatform.sol\":7718:7727  aucOwners */\n      0x66\n        /* \"Project-1-AuctionPlatform/AuctionPlatform.sol\":7718:7739  aucOwners[msg.sender] */\n      0x0\n        /* \"Project-1-AuctionPlatform/AuctionPlatform.sol\":7728:7738  msg.sender */\n      caller\n        /* \"Project-1-AuctionPlatform/AuctionPlatform.sol\":7718:7739  aucOwners[msg.sender] */\n      0xffffffffffffffffffffffffffffffffffffffff\n      and\n      0xffffffffffffffffffffffffffffffffffffffff\n      and\n      dup2\n      mstore\n      0x20\n      add\n      swap1\n      dup2\n      mstore\n      0x20\n      add\n      0x0\n      keccak256\n      sload\n        /* \"Project-1-AuctionPlatform/AuctionPlatform.sol\":7706:7740  auctionList[aucOwners[msg.sender]] */\n      0x65\n      dup2\n      lt\n      iszero\n      iszero\n      tag_77\n      jumpi\n      invalid\n    tag_77:\n      add\n      0x0\n      swap1\n      sload\n      swap1\n      0x100\n      exp\n      swap1\n      div\n      0xffffffffffffffffffffffffffffffffffffffff\n      and\n        /* \"Project-1-AuctionPlatform/AuctionPlatform.sol\":7706:7752  auctionList[aucOwners[msg.sender]].getBidsMade */\n      0xffffffffffffffffffffffffffffffffffffffff\n      and\n      0x409766e6\n        /* \"Project-1-AuctionPlatform/AuctionPlatform.sol\":7706:7754  auctionList[aucOwners[msg.sender]].getBidsMade() */\n      mload(0x40)\n      dup2\n      0xffffffff\n      and\n      0x100000000000000000000000000000000000000000000000000000000\n      mul\n      dup2\n      mstore\n      0x4\n      add\n      0x20\n      mload(0x40)\n      dup1\n      dup4\n      sub\n      dup2\n      0x0\n      dup8\n      dup1\n      extcodesize\n      iszero\n        /* \"--CODEGEN--\":8:17   */\n      dup1\n        /* \"--CODEGEN--\":5:7   */\n      iszero\n      tag_79\n      jumpi\n        /* \"--CODEGEN--\":30:31   */\n      0x0\n        /* \"--CODEGEN--\":27:28   */\n      dup1\n        /* \"--CODEGEN--\":20:32   */\n      revert\n        /* \"--CODEGEN--\":5:7   */\n    tag_79:\n        /* \"Project-1-AuctionPlatform/AuctionPlatform.sol\":7706:7754  auctionList[aucOwners[msg.sender]].getBidsMade() */\n      pop\n      gas\n      call\n      iszero\n        /* \"--CODEGEN--\":8:17   */\n      dup1\n        /* \"--CODEGEN--\":5:7   */\n      iszero\n      tag_80\n      jumpi\n        /* \"--CODEGEN--\":45:61   */\n      returndatasize\n        /* \"--CODEGEN--\":42:43   */\n      0x0\n        /* \"--CODEGEN--\":39:40   */\n      dup1\n        /* \"--CODEGEN--\":24:62   */\n      returndatacopy\n        /* \"--CODEGEN--\":77:93   */\n      returndatasize\n        /* \"--CODEGEN--\":74:75   */\n      0x0\n        /* \"--CODEGEN--\":67:94   */\n      revert\n        /* \"--CODEGEN--\":5:7   */\n    tag_80:\n        /* \"Project-1-AuctionPlatform/AuctionPlatform.sol\":7706:7754  auctionList[aucOwners[msg.sender]].getBidsMade() */\n      pop\n      pop\n      pop\n      pop\n      mload(0x40)\n      returndatasize\n        /* \"--CODEGEN--\":13:15   */\n      0x20\n        /* \"--CODEGEN--\":8:11   */\n      dup2\n        /* \"--CODEGEN--\":5:16   */\n      lt\n        /* \"--CODEGEN--\":2:4   */\n      iszero\n      tag_81\n      jumpi\n        /* \"--CODEGEN--\":29:30   */\n      0x0\n        /* \"--CODEGEN--\":26:27   */\n      dup1\n        /* \"--CODEGEN--\":19:31   */\n      revert\n        /* \"--CODEGEN--\":2:4   */\n    tag_81:\n        /* \"Project-1-AuctionPlatform/AuctionPlatform.sol\":7706:7754  auctionList[aucOwners[msg.sender]].getBidsMade() */\n      dup2\n      add\n      swap1\n      dup1\n      dup1\n      mload\n      swap1\n      0x20\n      add\n      swap1\n      swap3\n      swap2\n      swap1\n      pop\n      pop\n      pop\n        /* \"Project-1-AuctionPlatform/AuctionPlatform.sol\":7685:7816  require(... */\n      iszero\n      iszero\n      tag_82\n      jumpi\n      mload(0x40)\n      0x8c379a000000000000000000000000000000000000000000000000000000000\n      dup2\n      mstore\n      0x4\n      add\n      dup1\n      dup1\n      0x20\n      add\n      dup3\n      dup2\n      sub\n      dup3\n      mstore\n      0x24\n      dup2\n      mstore\n      0x20\n      add\n      dup1\n      0x5468657265206172656e277420616e792062696473206f6e2074686520417563\n      dup2\n      mstore\n      0x20\n      add\n      0x74696f6e00000000000000000000000000000000000000000000000000000000\n      dup2\n      mstore\n      pop\n      0x40\n      add\n      swap2\n      pop\n      pop\n      mload(0x40)\n      dup1\n      swap2\n      sub\n      swap1\n      revert\n    tag_82:\n        /* \"Project-1-AuctionPlatform/AuctionPlatform.sol\":2323:2334  auctionList */\n      0x1\n        /* \"Project-1-AuctionPlatform/AuctionPlatform.sol\":2335:2344  aucOwners */\n      0x66\n        /* \"Project-1-AuctionPlatform/AuctionPlatform.sol\":2335:2356  aucOwners[msg.sender] */\n      0x0\n        /* \"Project-1-AuctionPlatform/AuctionPlatform.sol\":2345:2355  msg.sender */\n      caller\n        /* \"Project-1-AuctionPlatform/AuctionPlatform.sol\":2335:2356  aucOwners[msg.sender] */\n      0xffffffffffffffffffffffffffffffffffffffff\n      and\n      0xffffffffffffffffffffffffffffffffffffffff\n      and\n      dup2\n      mstore\n      0x20\n      add\n      swap1\n      dup2\n      mstore\n      0x20\n      add\n      0x0\n      keccak256\n      sload\n        /* \"Project-1-AuctionPlatform/AuctionPlatform.sol\":2323:2357  auctionList[aucOwners[msg.sender]] */\n      0x65\n      dup2\n      lt\n      iszero\n      iszero\n      tag_84\n      jumpi\n      invalid\n    tag_84:\n      add\n      0x0\n      swap1\n      sload\n      swap1\n      0x100\n      exp\n      swap1\n      div\n      0xffffffffffffffffffffffffffffffffffffffff\n      and\n        /* \"Project-1-AuctionPlatform/AuctionPlatform.sol\":2323:2371  auctionList[aucOwners[msg.sender]].getMaximumBid */\n      0xffffffffffffffffffffffffffffffffffffffff\n      and\n      0xdd06ba1a\n        /* \"Project-1-AuctionPlatform/AuctionPlatform.sol\":2323:2373  auctionList[aucOwners[msg.sender]].getMaximumBid() */\n      mload(0x40)\n      dup2\n      0xffffffff\n      and\n      0x100000000000000000000000000000000000000000000000000000000\n      mul\n      dup2\n      mstore\n      0x4\n      add\n      0x20\n      mload(0x40)\n      dup1\n      dup4\n      sub\n      dup2\n      0x0\n      dup8\n      dup1\n      extcodesize\n      iszero\n        /* \"--CODEGEN--\":8:17   */\n      dup1\n        /* \"--CODEGEN--\":5:7   */\n      iszero\n      tag_86\n      jumpi\n        /* \"--CODEGEN--\":30:31   */\n      0x0\n        /* \"--CODEGEN--\":27:28   */\n      dup1\n        /* \"--CODEGEN--\":20:32   */\n      revert\n        /* \"--CODEGEN--\":5:7   */\n    tag_86:\n        /* \"Project-1-AuctionPlatform/AuctionPlatform.sol\":2323:2373  auctionList[aucOwners[msg.sender]].getMaximumBid() */\n      pop\n      gas\n      call\n      iszero\n        /* \"--CODEGEN--\":8:17   */\n      dup1\n        /* \"--CODEGEN--\":5:7   */\n      iszero\n      tag_87\n      jumpi\n        /* \"--CODEGEN--\":45:61   */\n      returndatasize\n        /* \"--CODEGEN--\":42:43   */\n      0x0\n        /* \"--CODEGEN--\":39:40   */\n      dup1\n        /* \"--CODEGEN--\":24:62   */\n      returndatacopy\n        /* \"--CODEGEN--\":77:93   */\n      returndatasize\n        /* \"--CODEGEN--\":74:75   */\n      0x0\n        /* \"--CODEGEN--\":67:94   */\n      revert\n        /* \"--CODEGEN--\":5:7   */\n    tag_87:\n        /* \"Project-1-AuctionPlatform/AuctionPlatform.sol\":2323:2373  auctionList[aucOwners[msg.sender]].getMaximumBid() */\n      pop\n      pop\n      pop\n      pop\n      mload(0x40)\n      returndatasize\n        /* \"--CODEGEN--\":13:15   */\n      0x20\n        /* \"--CODEGEN--\":8:11   */\n      dup2\n        /* \"--CODEGEN--\":5:16   */\n      lt\n        /* \"--CODEGEN--\":2:4   */\n      iszero\n      tag_88\n      jumpi\n        /* \"--CODEGEN--\":29:30   */\n      0x0\n        /* \"--CODEGEN--\":26:27   */\n      dup1\n        /* \"--CODEGEN--\":19:31   */\n      revert\n        /* \"--CODEGEN--\":2:4   */\n    tag_88:\n        /* \"Project-1-AuctionPlatform/AuctionPlatform.sol\":2323:2373  auctionList[aucOwners[msg.sender]].getMaximumBid() */\n      dup2\n      add\n      swap1\n      dup1\n      dup1\n      mload\n      swap1\n      0x20\n      add\n      swap1\n      swap3\n      swap2\n      swap1\n      pop\n      pop\n      pop\n        /* \"Project-1-AuctionPlatform/AuctionPlatform.sol\":2316:2373  return auctionList[aucOwners[msg.sender]].getMaximumBid() */\n      swap1\n      pop\n        /* \"Project-1-AuctionPlatform/AuctionPlatform.sol\":1970:2380  function getMaxBid()... */\n      swap1\n      jump\t// out\n        /* \"Project-1-AuctionPlatform/AuctionPlatform.sol\":3819:4692  function bidOnAuction(uint256 _aucId, uint256 _bidVal)... */\n    tag_26:\n        /* \"Project-1-AuctionPlatform/AuctionPlatform.sol\":3907:3913  _aucId */\n      dup2\n        /* \"Project-1-AuctionPlatform/AuctionPlatform.sol\":7959:7977  auctionList.length */\n      0x65\n        /* \"Project-1-AuctionPlatform/AuctionPlatform.sol\":7950:7956  _aucId */\n      dup2\n        /* \"Project-1-AuctionPlatform/AuctionPlatform.sol\":7950:7977  _aucId < auctionList.length */\n      lt\n        /* \"Project-1-AuctionPlatform/AuctionPlatform.sol\":7950:8047  _aucId < auctionList.length &&... */\n      dup1\n      iszero\n      tag_90\n      jumpi\n      pop\n        /* \"Project-1-AuctionPlatform/AuctionPlatform.sol\":8032:8047  block.timestamp */\n      timestamp\n        /* \"Project-1-AuctionPlatform/AuctionPlatform.sol\":7997:8008  auctionList */\n      0x1\n        /* \"Project-1-AuctionPlatform/AuctionPlatform.sol\":8009:8015  _aucId */\n      dup3\n        /* \"Project-1-AuctionPlatform/AuctionPlatform.sol\":7997:8016  auctionList[_aucId] */\n      0x65\n      dup2\n      lt\n      iszero\n      iszero\n      tag_91\n      jumpi\n      invalid\n    tag_91:\n      add\n      0x0\n      swap1\n      sload\n      swap1\n      0x100\n      exp\n      swap1\n      div\n      0xffffffffffffffffffffffffffffffffffffffff\n      and\n        /* \"Project-1-AuctionPlatform/AuctionPlatform.sol\":7997:8027  auctionList[_aucId].getEndTime */\n      0xffffffffffffffffffffffffffffffffffffffff\n      and\n      0x439f5ac2\n        /* \"Project-1-AuctionPlatform/AuctionPlatform.sol\":7997:8029  auctionList[_aucId].getEndTime() */\n      mload(0x40)\n      dup2\n      0xffffffff\n      and\n      0x100000000000000000000000000000000000000000000000000000000\n      mul\n      dup2\n      mstore\n      0x4\n      add\n      0x20\n      mload(0x40)\n      dup1\n      dup4\n      sub\n      dup2\n      0x0\n      dup8\n      dup1\n      extcodesize\n      iszero\n        /* \"--CODEGEN--\":8:17   */\n      dup1\n        /* \"--CODEGEN--\":5:7   */\n      iszero\n      tag_93\n      jumpi\n        /* \"--CODEGEN--\":30:31   */\n      0x0\n        /* \"--CODEGEN--\":27:28   */\n      dup1\n        /* \"--CODEGEN--\":20:32   */\n      revert\n        /* \"--CODEGEN--\":5:7   */\n    tag_93:\n        /* \"Project-1-AuctionPlatform/AuctionPlatform.sol\":7997:8029  auctionList[_aucId].getEndTime() */\n      pop\n      gas\n      call\n      iszero\n        /* \"--CODEGEN--\":8:17   */\n      dup1\n        /* \"--CODEGEN--\":5:7   */\n      iszero\n      tag_94\n      jumpi\n        /* \"--CODEGEN--\":45:61   */\n      returndatasize\n        /* \"--CODEGEN--\":42:43   */\n      0x0\n        /* \"--CODEGEN--\":39:40   */\n      dup1\n        /* \"--CODEGEN--\":24:62   */\n      returndatacopy\n        /* \"--CODEGEN--\":77:93   */\n      returndatasize\n        /* \"--CODEGEN--\":74:75   */\n      0x0\n        /* \"--CODEGEN--\":67:94   */\n      revert\n        /* \"--CODEGEN--\":5:7   */\n    tag_94:\n        /* \"Project-1-AuctionPlatform/AuctionPlatform.sol\":7997:8029  auctionList[_aucId].getEndTime() */\n      pop\n      pop\n      pop\n      pop\n      mload(0x40)\n      returndatasize\n        /* \"--CODEGEN--\":13:15   */\n      0x20\n        /* \"--CODEGEN--\":8:11   */\n      dup2\n        /* \"--CODEGEN--\":5:16   */\n      lt\n        /* \"--CODEGEN--\":2:4   */\n      iszero\n      tag_95\n      jumpi\n        /* \"--CODEGEN--\":29:30   */\n      0x0\n        /* \"--CODEGEN--\":26:27   */\n      dup1\n        /* \"--CODEGEN--\":19:31   */\n      revert\n        /* \"--CODEGEN--\":2:4   */\n    tag_95:\n        /* \"Project-1-AuctionPlatform/AuctionPlatform.sol\":7997:8029  auctionList[_aucId].getEndTime() */\n      dup2\n      add\n      swap1\n      dup1\n      dup1\n      mload\n      swap1\n      0x20\n      add\n      swap1\n      swap3\n      swap2\n      swap1\n      pop\n      pop\n      pop\n        /* \"Project-1-AuctionPlatform/AuctionPlatform.sol\":7997:8047  auctionList[_aucId].getEndTime() > block.timestamp */\n      gt\n        /* \"Project-1-AuctionPlatform/AuctionPlatform.sol\":7950:8047  _aucId < auctionList.length &&... */\n    tag_90:\n        /* \"Project-1-AuctionPlatform/AuctionPlatform.sol\":7929:8092  require(... */\n      iszero\n      iszero\n      tag_96\n      jumpi\n      mload(0x40)\n      0x8c379a000000000000000000000000000000000000000000000000000000000\n      dup2\n      mstore\n      0x4\n      add\n      dup1\n      dup1\n      0x20\n      add\n      dup3\n      dup2\n      sub\n      dup3\n      mstore\n      0x13\n      dup2\n      mstore\n      0x20\n      add\n      dup1\n      0x41756374696f6e20697320496e61637469766500000000000000000000000000\n      dup2\n      mstore\n      pop\n      0x20\n      add\n      swap2\n      pop\n      pop\n      mload(0x40)\n      dup1\n      swap2\n      sub\n      swap1\n      revert\n    tag_96:\n        /* \"Project-1-AuctionPlatform/AuctionPlatform.sol\":4137:4144  _bidVal */\n      dup2\n        /* \"Project-1-AuctionPlatform/AuctionPlatform.sol\":4100:4111  auctionList */\n      0x1\n        /* \"Project-1-AuctionPlatform/AuctionPlatform.sol\":4112:4118  _aucId */\n      dup5\n        /* \"Project-1-AuctionPlatform/AuctionPlatform.sol\":4100:4119  auctionList[_aucId] */\n      0x65\n      dup2\n      lt\n      iszero\n      iszero\n      tag_98\n      jumpi\n      invalid\n    tag_98:\n      add\n      0x0\n      swap1\n      sload\n      swap1\n      0x100\n      exp\n      swap1\n      div\n      0xffffffffffffffffffffffffffffffffffffffff\n      and\n        /* \"Project-1-AuctionPlatform/AuctionPlatform.sol\":4100:4132  auctionList[_aucId].getMinBidVal */\n      0xffffffffffffffffffffffffffffffffffffffff\n      and\n      0xad934674\n        /* \"Project-1-AuctionPlatform/AuctionPlatform.sol\":4100:4134  auctionList[_aucId].getMinBidVal() */\n      mload(0x40)\n      dup2\n      0xffffffff\n      and\n      0x100000000000000000000000000000000000000000000000000000000\n      mul\n      dup2\n      mstore\n      0x4\n      add\n      0x20\n      mload(0x40)\n      dup1\n      dup4\n      sub\n      dup2\n      0x0\n      dup8\n      dup1\n      extcodesize\n      iszero\n        /* \"--CODEGEN--\":8:17   */\n      dup1\n        /* \"--CODEGEN--\":5:7   */\n      iszero\n      tag_100\n      jumpi\n        /* \"--CODEGEN--\":30:31   */\n      0x0\n        /* \"--CODEGEN--\":27:28   */\n      dup1\n        /* \"--CODEGEN--\":20:32   */\n      revert\n        /* \"--CODEGEN--\":5:7   */\n    tag_100:\n        /* \"Project-1-AuctionPlatform/AuctionPlatform.sol\":4100:4134  auctionList[_aucId].getMinBidVal() */\n      pop\n      gas\n      call\n      iszero\n        /* \"--CODEGEN--\":8:17   */\n      dup1\n        /* \"--CODEGEN--\":5:7   */\n      iszero\n      tag_101\n      jumpi\n        /* \"--CODEGEN--\":45:61   */\n      returndatasize\n        /* \"--CODEGEN--\":42:43   */\n      0x0\n        /* \"--CODEGEN--\":39:40   */\n      dup1\n        /* \"--CODEGEN--\":24:62   */\n      returndatacopy\n        /* \"--CODEGEN--\":77:93   */\n      returndatasize\n        /* \"--CODEGEN--\":74:75   */\n      0x0\n        /* \"--CODEGEN--\":67:94   */\n      revert\n        /* \"--CODEGEN--\":5:7   */\n    tag_101:\n        /* \"Project-1-AuctionPlatform/AuctionPlatform.sol\":4100:4134  auctionList[_aucId].getMinBidVal() */\n      pop\n      pop\n      pop\n      pop\n      mload(0x40)\n      returndatasize\n        /* \"--CODEGEN--\":13:15   */\n      0x20\n        /* \"--CODEGEN--\":8:11   */\n      dup2\n        /* \"--CODEGEN--\":5:16   */\n      lt\n        /* \"--CODEGEN--\":2:4   */\n      iszero\n      tag_102\n      jumpi\n        /* \"--CODEGEN--\":29:30   */\n      0x0\n        /* \"--CODEGEN--\":26:27   */\n      dup1\n        /* \"--CODEGEN--\":19:31   */\n      revert\n        /* \"--CODEGEN--\":2:4   */\n    tag_102:\n        /* \"Project-1-AuctionPlatform/AuctionPlatform.sol\":4100:4134  auctionList[_aucId].getMinBidVal() */\n      dup2\n      add\n      swap1\n      dup1\n      dup1\n      mload\n      swap1\n      0x20\n      add\n      swap1\n      swap3\n      swap2\n      swap1\n      pop\n      pop\n      pop\n        /* \"Project-1-AuctionPlatform/AuctionPlatform.sol\":4100:4144  auctionList[_aucId].getMinBidVal() < _bidVal */\n      lt\n        /* \"Project-1-AuctionPlatform/AuctionPlatform.sol\":4079:4228  require(... */\n      iszero\n      iszero\n      tag_103\n      jumpi\n      mload(0x40)\n      0x8c379a000000000000000000000000000000000000000000000000000000000\n      dup2\n      mstore\n      0x4\n      add\n      dup1\n      dup1\n      0x20\n      add\n      dup3\n      dup2\n      sub\n      dup3\n      mstore\n      0x3a\n      dup2\n      mstore\n      0x20\n      add\n      dup1\n      0x4269642076616c75652063616e6e6f74206265206c657373207468616e206d69\n      dup2\n      mstore\n      0x20\n      add\n      0x6e696e756d206269642076616c7565206f662061756374696f6e000000000000\n      dup2\n      mstore\n      pop\n      0x40\n      add\n      swap2\n      pop\n      pop\n      mload(0x40)\n      dup1\n      swap2\n      sub\n      swap1\n      revert\n    tag_103:\n        /* \"Project-1-AuctionPlatform/AuctionPlatform.sol\":4272:4278  _aucId */\n      dup3\n        /* \"Project-1-AuctionPlatform/AuctionPlatform.sol\":4247:4256  aucOwners */\n      0x66\n        /* \"Project-1-AuctionPlatform/AuctionPlatform.sol\":4247:4268  aucOwners[msg.sender] */\n      0x0\n        /* \"Project-1-AuctionPlatform/AuctionPlatform.sol\":4257:4267  msg.sender */\n      caller\n        /* \"Project-1-AuctionPlatform/AuctionPlatform.sol\":4247:4268  aucOwners[msg.sender] */\n      0xffffffffffffffffffffffffffffffffffffffff\n      and\n      0xffffffffffffffffffffffffffffffffffffffff\n      and\n      dup2\n      mstore\n      0x20\n      add\n      swap1\n      dup2\n      mstore\n      0x20\n      add\n      0x0\n      keccak256\n      sload\n        /* \"Project-1-AuctionPlatform/AuctionPlatform.sol\":4247:4278  aucOwners[msg.sender] != _aucId */\n      eq\n      iszero\n        /* \"Project-1-AuctionPlatform/AuctionPlatform.sol\":4239:4307  require(aucOwners[msg.sender] != _aucId, \"Can't bid on own Auction\") */\n      iszero\n      iszero\n      tag_104\n      jumpi\n      mload(0x40)\n      0x8c379a000000000000000000000000000000000000000000000000000000000\n      dup2\n      mstore\n      0x4\n      add\n      dup1\n      dup1\n      0x20\n      add\n      dup3\n      dup2\n      sub\n      dup3\n      mstore\n      0x18\n      dup2\n      mstore\n      0x20\n      add\n      dup1\n      0x43616e277420626964206f6e206f776e2041756374696f6e0000000000000000\n      dup2\n      mstore\n      pop\n      0x20\n      add\n      swap2\n      pop\n      pop\n      mload(0x40)\n      dup1\n      swap2\n      sub\n      swap1\n      revert\n    tag_104:\n        /* \"Project-1-AuctionPlatform/AuctionPlatform.sol\":4462:4473  auctionList */\n      0x1\n        /* \"Project-1-AuctionPlatform/AuctionPlatform.sol\":4474:4480  _aucId */\n      dup4\n        /* \"Project-1-AuctionPlatform/AuctionPlatform.sol\":4462:4481  auctionList[_aucId] */\n      0x65\n      dup2\n      lt\n      iszero\n      iszero\n      tag_105\n      jumpi\n      invalid\n    tag_105:\n      add\n      0x0\n      swap1\n      sload\n      swap1\n      0x100\n      exp\n      swap1\n      div\n      0xffffffffffffffffffffffffffffffffffffffff\n      and\n        /* \"Project-1-AuctionPlatform/AuctionPlatform.sol\":4462:4491  auctionList[_aucId].createBid */\n      0xffffffffffffffffffffffffffffffffffffffff\n      and\n      0x659dd2b4\n        /* \"Project-1-AuctionPlatform/AuctionPlatform.sol\":4492:4499  _bidVal */\n      dup4\n        /* \"Project-1-AuctionPlatform/AuctionPlatform.sol\":4462:4500  auctionList[_aucId].createBid(_bidVal) */\n      mload(0x40)\n      dup3\n      0xffffffff\n      and\n      0x100000000000000000000000000000000000000000000000000000000\n      mul\n      dup2\n      mstore\n      0x4\n      add\n      dup1\n      dup3\n      dup2\n      mstore\n      0x20\n      add\n      swap2\n      pop\n      pop\n      0x0\n      mload(0x40)\n      dup1\n      dup4\n      sub\n      dup2\n      0x0\n      dup8\n      dup1\n      extcodesize\n      iszero\n        /* \"--CODEGEN--\":8:17   */\n      dup1\n        /* \"--CODEGEN--\":5:7   */\n      iszero\n      tag_107\n      jumpi\n        /* \"--CODEGEN--\":30:31   */\n      0x0\n        /* \"--CODEGEN--\":27:28   */\n      dup1\n        /* \"--CODEGEN--\":20:32   */\n      revert\n        /* \"--CODEGEN--\":5:7   */\n    tag_107:\n        /* \"Project-1-AuctionPlatform/AuctionPlatform.sol\":4462:4500  auctionList[_aucId].createBid(_bidVal) */\n      pop\n      gas\n      call\n      iszero\n        /* \"--CODEGEN--\":8:17   */\n      dup1\n        /* \"--CODEGEN--\":5:7   */\n      iszero\n      tag_108\n      jumpi\n        /* \"--CODEGEN--\":45:61   */\n      returndatasize\n        /* \"--CODEGEN--\":42:43   */\n      0x0\n        /* \"--CODEGEN--\":39:40   */\n      dup1\n        /* \"--CODEGEN--\":24:62   */\n      returndatacopy\n        /* \"--CODEGEN--\":77:93   */\n      returndatasize\n        /* \"--CODEGEN--\":74:75   */\n      0x0\n        /* \"--CODEGEN--\":67:94   */\n      revert\n        /* \"--CODEGEN--\":5:7   */\n    tag_108:\n        /* \"Project-1-AuctionPlatform/AuctionPlatform.sol\":4462:4500  auctionList[_aucId].createBid(_bidVal) */\n      pop\n      pop\n      pop\n      pop\n        /* \"Project-1-AuctionPlatform/AuctionPlatform.sol\":4600:4609  bidOwners */\n      0x67\n        /* \"Project-1-AuctionPlatform/AuctionPlatform.sol\":4600:4621  bidOwners[msg.sender] */\n      0x0\n        /* \"Project-1-AuctionPlatform/AuctionPlatform.sol\":4610:4620  msg.sender */\n      caller\n        /* \"Project-1-AuctionPlatform/AuctionPlatform.sol\":4600:4621  bidOwners[msg.sender] */\n      0xffffffffffffffffffffffffffffffffffffffff\n      and\n      0xffffffffffffffffffffffffffffffffffffffff\n      and\n      dup2\n      mstore\n      0x20\n      add\n      swap1\n      dup2\n      mstore\n      0x20\n      add\n      0x0\n      keccak256\n        /* \"Project-1-AuctionPlatform/AuctionPlatform.sol\":4627:4633  _aucId */\n      dup4\n        /* \"Project-1-AuctionPlatform/AuctionPlatform.sol\":4600:4634  bidOwners[msg.sender].push(_aucId) */\n      swap1\n      dup1\n        /* \"--CODEGEN--\":39:40   */\n      0x1\n        /* \"--CODEGEN--\":33:36   */\n      dup2\n        /* \"--CODEGEN--\":27:37   */\n      sload\n        /* \"--CODEGEN--\":23:41   */\n      add\n        /* \"--CODEGEN--\":57:67   */\n      dup1\n        /* \"--CODEGEN--\":52:55   */\n      dup3\n        /* \"--CODEGEN--\":45:68   */\n      sstore\n        /* \"--CODEGEN--\":79:89   */\n      dup1\n        /* \"--CODEGEN--\":72:89   */\n      swap2\n      pop\n        /* \"--CODEGEN--\":0:93   */\n      pop\n        /* \"Project-1-AuctionPlatform/AuctionPlatform.sol\":4600:4634  bidOwners[msg.sender].push(_aucId) */\n      swap1\n      0x1\n      dup3\n      sub\n      swap1\n      0x0\n      mstore\n      keccak256(0x0, 0x20)\n      add\n      0x0\n      swap1\n      swap2\n      swap3\n      swap1\n      swap2\n      swap1\n      swap2\n      pop\n      sstore\n      pop\n        /* \"Project-1-AuctionPlatform/AuctionPlatform.sol\":4678:4684  _aucId */\n      dup3\n        /* \"Project-1-AuctionPlatform/AuctionPlatform.sol\":4666:4676  msg.sender */\n      caller\n        /* \"Project-1-AuctionPlatform/AuctionPlatform.sol\":4650:4685  biddedOnAuction(msg.sender, _aucId) */\n      0xffffffffffffffffffffffffffffffffffffffff\n      and\n      0x248176d18d0b2664c1964de940d9d88115d4d632e9047ec131dc7cfd5b41535e\n      mload(0x40)\n      mload(0x40)\n      dup1\n      swap2\n      sub\n      swap1\n      log3\n        /* \"Project-1-AuctionPlatform/AuctionPlatform.sol\":3819:4692  function bidOnAuction(uint256 _aucId, uint256 _bidVal)... */\n      pop\n      pop\n      pop\n      jump\t// out\n        /* \"Project-1-AuctionPlatform/AuctionPlatform.sol\":3464:3740  function endAuction(uint256 _bid) public ifAuctionOwner {... */\n    tag_29:\n        /* \"Project-1-AuctionPlatform/AuctionPlatform.sol\":3596:3610  address winner */\n      0x0\n        /* \"Project-1-AuctionPlatform/AuctionPlatform.sol\":8493:8494  0 */\n      dup1\n        /* \"Project-1-AuctionPlatform/AuctionPlatform.sol\":8468:8477  aucOwners */\n      0x66\n        /* \"Project-1-AuctionPlatform/AuctionPlatform.sol\":8468:8489  aucOwners[msg.sender] */\n      0x0\n        /* \"Project-1-AuctionPlatform/AuctionPlatform.sol\":8478:8488  msg.sender */\n      caller\n        /* \"Project-1-AuctionPlatform/AuctionPlatform.sol\":8468:8489  aucOwners[msg.sender] */\n      0xffffffffffffffffffffffffffffffffffffffff\n      and\n      0xffffffffffffffffffffffffffffffffffffffff\n      and\n      dup2\n      mstore\n      0x20\n      add\n      swap1\n      dup2\n      mstore\n      0x20\n      add\n      0x0\n      keccak256\n      sload\n        /* \"Project-1-AuctionPlatform/AuctionPlatform.sol\":8468:8494  aucOwners[msg.sender] != 0 */\n      eq\n      iszero\n        /* \"Project-1-AuctionPlatform/AuctionPlatform.sol\":8460:8531  require(aucOwners[msg.sender] != 0, \"You haven't created any Auctions\") */\n      iszero\n      iszero\n      tag_111\n      jumpi\n      mload(0x40)\n      0x8c379a000000000000000000000000000000000000000000000000000000000\n      dup2\n      mstore\n      0x4\n      add\n      dup1\n      dup1\n      0x20\n      add\n      dup3\n      dup2\n      sub\n      dup3\n      mstore\n      0x20\n      dup2\n      mstore\n      0x20\n      add\n      dup1\n      0x596f7520686176656e2774206372656174656420616e792041756374696f6e73\n      dup2\n      mstore\n      pop\n      0x20\n      add\n      swap2\n      pop\n      pop\n      mload(0x40)\n      dup1\n      swap2\n      sub\n      swap1\n      revert\n    tag_111:\n        /* \"Project-1-AuctionPlatform/AuctionPlatform.sol\":3613:3624  auctionList */\n      0x1\n        /* \"Project-1-AuctionPlatform/AuctionPlatform.sol\":3625:3634  aucOwners */\n      0x66\n        /* \"Project-1-AuctionPlatform/AuctionPlatform.sol\":3625:3646  aucOwners[msg.sender] */\n      0x0\n        /* \"Project-1-AuctionPlatform/AuctionPlatform.sol\":3635:3645  msg.sender */\n      caller\n        /* \"Project-1-AuctionPlatform/AuctionPlatform.sol\":3625:3646  aucOwners[msg.sender] */\n      0xffffffffffffffffffffffffffffffffffffffff\n      and\n      0xffffffffffffffffffffffffffffffffffffffff\n      and\n      dup2\n      mstore\n      0x20\n      add\n      swap1\n      dup2\n      mstore\n      0x20\n      add\n      0x0\n      keccak256\n      sload\n        /* \"Project-1-AuctionPlatform/AuctionPlatform.sol\":3613:3647  auctionList[aucOwners[msg.sender]] */\n      0x65\n      dup2\n      lt\n      iszero\n      iszero\n      tag_113\n      jumpi\n      invalid\n    tag_113:\n      add\n      0x0\n      swap1\n      sload\n      swap1\n      0x100\n      exp\n      swap1\n      div\n      0xffffffffffffffffffffffffffffffffffffffff\n      and\n        /* \"Project-1-AuctionPlatform/AuctionPlatform.sol\":3613:3686  auctionList[aucOwners[msg.sender]]... */\n      0xffffffffffffffffffffffffffffffffffffffff\n      and\n      0xdee37a8e\n        /* \"Project-1-AuctionPlatform/AuctionPlatform.sol\":3687:3691  _bid */\n      dup4\n        /* \"Project-1-AuctionPlatform/AuctionPlatform.sol\":3613:3692  auctionList[aucOwners[msg.sender]]... */\n      mload(0x40)\n      dup3\n      0xffffffff\n      and\n      0x100000000000000000000000000000000000000000000000000000000\n      mul\n      dup2\n      mstore\n      0x4\n      add\n      dup1\n      dup3\n      dup2\n      mstore\n      0x20\n      add\n      swap2\n      pop\n      pop\n      0x20\n      mload(0x40)\n      dup1\n      dup4\n      sub\n      dup2\n      0x0\n      dup8\n      dup1\n      extcodesize\n      iszero\n        /* \"--CODEGEN--\":8:17   */\n      dup1\n        /* \"--CODEGEN--\":5:7   */\n      iszero\n      tag_115\n      jumpi\n        /* \"--CODEGEN--\":30:31   */\n      0x0\n        /* \"--CODEGEN--\":27:28   */\n      dup1\n        /* \"--CODEGEN--\":20:32   */\n      revert\n        /* \"--CODEGEN--\":5:7   */\n    tag_115:\n        /* \"Project-1-AuctionPlatform/AuctionPlatform.sol\":3613:3692  auctionList[aucOwners[msg.sender]]... */\n      pop\n      gas\n      call\n      iszero\n        /* \"--CODEGEN--\":8:17   */\n      dup1\n        /* \"--CODEGEN--\":5:7   */\n      iszero\n      tag_116\n      jumpi\n        /* \"--CODEGEN--\":45:61   */\n      returndatasize\n        /* \"--CODEGEN--\":42:43   */\n      0x0\n        /* \"--CODEGEN--\":39:40   */\n      dup1\n        /* \"--CODEGEN--\":24:62   */\n      returndatacopy\n        /* \"--CODEGEN--\":77:93   */\n      returndatasize\n        /* \"--CODEGEN--\":74:75   */\n      0x0\n        /* \"--CODEGEN--\":67:94   */\n      revert\n        /* \"--CODEGEN--\":5:7   */\n    tag_116:\n        /* \"Project-1-AuctionPlatform/AuctionPlatform.sol\":3613:3692  auctionList[aucOwners[msg.sender]]... */\n      pop\n      pop\n      pop\n      pop\n      mload(0x40)\n      returndatasize\n        /* \"--CODEGEN--\":13:15   */\n      0x20\n        /* \"--CODEGEN--\":8:11   */\n      dup2\n        /* \"--CODEGEN--\":5:16   */\n      lt\n        /* \"--CODEGEN--\":2:4   */\n      iszero\n      tag_117\n      jumpi\n        /* \"--CODEGEN--\":29:30   */\n      0x0\n        /* \"--CODEGEN--\":26:27   */\n      dup1\n        /* \"--CODEGEN--\":19:31   */\n      revert\n        /* \"--CODEGEN--\":2:4   */\n    tag_117:\n        /* \"Project-1-AuctionPlatform/AuctionPlatform.sol\":3613:3692  auctionList[aucOwners[msg.sender]]... */\n      dup2\n      add\n      swap1\n      dup1\n      dup1\n      mload\n      swap1\n      0x20\n      add\n      swap1\n      swap3\n      swap2\n      swap1\n      pop\n      pop\n      pop\n        /* \"Project-1-AuctionPlatform/AuctionPlatform.sol\":3596:3692  address winner = auctionList[aucOwners[msg.sender]]... */\n      swap1\n      pop\n        /* \"Project-1-AuctionPlatform/AuctionPlatform.sol\":3728:3732  _bid */\n      dup2\n        /* \"Project-1-AuctionPlatform/AuctionPlatform.sol\":3720:3726  winner */\n      dup2\n        /* \"Project-1-AuctionPlatform/AuctionPlatform.sol\":3707:3733  auctionEnded(winner, _bid) */\n      0xffffffffffffffffffffffffffffffffffffffff\n      and\n      0x6e0e2174dbf7b77c08b6f9a2799b9feda84a6d54a5644864582040100a47d4c5\n      mload(0x40)\n      mload(0x40)\n      dup1\n      swap2\n      sub\n      swap1\n      log3\n        /* \"Project-1-AuctionPlatform/AuctionPlatform.sol\":3464:3740  function endAuction(uint256 _bid) public ifAuctionOwner {... */\n      pop\n      pop\n      jump\t// out\n        /* \"Project-1-AuctionPlatform/AuctionPlatform.sol\":1780:1894  function getListOfOwnBids() public view ifBidded returns (uint256[]) {... */\n    tag_32:\n        /* \"Project-1-AuctionPlatform/AuctionPlatform.sol\":1838:1847  uint256[] */\n      0x60\n        /* \"Project-1-AuctionPlatform/AuctionPlatform.sol\":8680:8681  0 */\n      0x0\n        /* \"Project-1-AuctionPlatform/AuctionPlatform.sol\":8648:8657  bidOwners */\n      0x67\n        /* \"Project-1-AuctionPlatform/AuctionPlatform.sol\":8648:8669  bidOwners[msg.sender] */\n      0x0\n        /* \"Project-1-AuctionPlatform/AuctionPlatform.sol\":8658:8668  msg.sender */\n      caller\n        /* \"Project-1-AuctionPlatform/AuctionPlatform.sol\":8648:8669  bidOwners[msg.sender] */\n      0xffffffffffffffffffffffffffffffffffffffff\n      and\n      0xffffffffffffffffffffffffffffffffffffffff\n      and\n      dup2\n      mstore\n      0x20\n      add\n      swap1\n      dup2\n      mstore\n      0x20\n      add\n      0x0\n      keccak256\n        /* \"Project-1-AuctionPlatform/AuctionPlatform.sol\":8648:8676  bidOwners[msg.sender].length */\n      dup1\n      sload\n      swap1\n      pop\n        /* \"Project-1-AuctionPlatform/AuctionPlatform.sol\":8648:8681  bidOwners[msg.sender].length != 0 */\n      eq\n      iszero\n        /* \"Project-1-AuctionPlatform/AuctionPlatform.sol\":8640:8709  require(bidOwners[msg.sender].length != 0, \"You don't have any Bids\") */\n      iszero\n      iszero\n      tag_119\n      jumpi\n      mload(0x40)\n      0x8c379a000000000000000000000000000000000000000000000000000000000\n      dup2\n      mstore\n      0x4\n      add\n      dup1\n      dup1\n      0x20\n      add\n      dup3\n      dup2\n      sub\n      dup3\n      mstore\n      0x17\n      dup2\n      mstore\n      0x20\n      add\n      dup1\n      0x596f7520646f6e2774206861766520616e792042696473000000000000000000\n      dup2\n      mstore\n      pop\n      0x20\n      add\n      swap2\n      pop\n      pop\n      mload(0x40)\n      dup1\n      swap2\n      sub\n      swap1\n      revert\n    tag_119:\n        /* \"Project-1-AuctionPlatform/AuctionPlatform.sol\":1866:1875  bidOwners */\n      0x67\n        /* \"Project-1-AuctionPlatform/AuctionPlatform.sol\":1866:1887  bidOwners[msg.sender] */\n      0x0\n        /* \"Project-1-AuctionPlatform/AuctionPlatform.sol\":1876:1886  msg.sender */\n      caller\n        /* \"Project-1-AuctionPlatform/AuctionPlatform.sol\":1866:1887  bidOwners[msg.sender] */\n      0xffffffffffffffffffffffffffffffffffffffff\n      and\n      0xffffffffffffffffffffffffffffffffffffffff\n      and\n      dup2\n      mstore\n      0x20\n      add\n      swap1\n      dup2\n      mstore\n      0x20\n      add\n      0x0\n      keccak256\n        /* \"Project-1-AuctionPlatform/AuctionPlatform.sol\":1859:1887  return bidOwners[msg.sender] */\n      dup1\n      sload\n      dup1\n      0x20\n      mul\n      0x20\n      add\n      mload(0x40)\n      swap1\n      dup2\n      add\n      0x40\n      mstore\n      dup1\n      swap3\n      swap2\n      swap1\n      dup2\n      dup2\n      mstore\n      0x20\n      add\n      dup3\n      dup1\n      sload\n      dup1\n      iszero\n      tag_121\n      jumpi\n      0x20\n      mul\n      dup3\n      add\n      swap2\n      swap1\n      0x0\n      mstore\n      keccak256(0x0, 0x20)\n      swap1\n    tag_122:\n      dup2\n      sload\n      dup2\n      mstore\n      0x20\n      add\n      swap1\n      0x1\n      add\n      swap1\n      dup1\n      dup4\n      gt\n      tag_122\n      jumpi\n    tag_121:\n      pop\n      pop\n      pop\n      pop\n      pop\n      swap1\n      pop\n        /* \"Project-1-AuctionPlatform/AuctionPlatform.sol\":1780:1894  function getListOfOwnBids() public view ifBidded returns (uint256[]) {... */\n      swap1\n      jump\t// out\n        /* \"Project-1-AuctionPlatform/AuctionPlatform.sol\":4973:7552  function createAuction(... */\n    tag_38:\n        /* \"Project-1-AuctionPlatform/AuctionPlatform.sol\":6330:6348  uint256 start_time */\n      0x0\n        /* \"Project-1-AuctionPlatform/AuctionPlatform.sol\":6501:6517  uint256 end_time */\n      dup1\n        /* \"Project-1-AuctionPlatform/AuctionPlatform.sol\":7073:7086  Auction TempA */\n      0x0\n        /* \"Project-1-AuctionPlatform/AuctionPlatform.sol\":8273:8274  0 */\n      dup1\n        /* \"Project-1-AuctionPlatform/AuctionPlatform.sol\":8248:8257  aucOwners */\n      0x66\n        /* \"Project-1-AuctionPlatform/AuctionPlatform.sol\":8248:8269  aucOwners[msg.sender] */\n      0x0\n        /* \"Project-1-AuctionPlatform/AuctionPlatform.sol\":8258:8268  msg.sender */\n      caller\n        /* \"Project-1-AuctionPlatform/AuctionPlatform.sol\":8248:8269  aucOwners[msg.sender] */\n      0xffffffffffffffffffffffffffffffffffffffff\n      and\n      0xffffffffffffffffffffffffffffffffffffffff\n      and\n      dup2\n      mstore\n      0x20\n      add\n      swap1\n      dup2\n      mstore\n      0x20\n      add\n      0x0\n      keccak256\n      sload\n        /* \"Project-1-AuctionPlatform/AuctionPlatform.sol\":8248:8274  aucOwners[msg.sender] == 0 */\n      eq\n        /* \"Project-1-AuctionPlatform/AuctionPlatform.sol\":8227:8335  require(... */\n      iszero\n      iszero\n      tag_124\n      jumpi\n      mload(0x40)\n      0x8c379a000000000000000000000000000000000000000000000000000000000\n      dup2\n      mstore\n      0x4\n      add\n      dup1\n      dup1\n      0x20\n      add\n      dup3\n      dup2\n      sub\n      dup3\n      mstore\n      0x23\n      dup2\n      mstore\n      0x20\n      add\n      dup1\n      0x596f75206861766520616c7265616479206372656174656420616e2041756374\n      dup2\n      mstore\n      0x20\n      add\n      0x696f6e0000000000000000000000000000000000000000000000000000000000\n      dup2\n      mstore\n      pop\n      0x40\n      add\n      swap2\n      pop\n      pop\n      mload(0x40)\n      dup1\n      swap2\n      sub\n      swap1\n      revert\n    tag_124:\n        /* \"Project-1-AuctionPlatform/AuctionPlatform.sol\":5668:5878  BokkyPooBahsDateTimeLibrary.isValidDateTime(... */\n      tag_126\n        /* \"Project-1-AuctionPlatform/AuctionPlatform.sol\":5729:5743  _startTimeYear */\n      dup11\n        /* \"Project-1-AuctionPlatform/AuctionPlatform.sol\":5761:5776  _startTimeMonth */\n      dup11\n        /* \"Project-1-AuctionPlatform/AuctionPlatform.sol\":5794:5807  _startTimeDay */\n      dup11\n        /* \"Project-1-AuctionPlatform/AuctionPlatform.sol\":5825:5826  0 */\n      0x0\n        /* \"Project-1-AuctionPlatform/AuctionPlatform.sol\":5844:5845  0 */\n      dup1\n        /* \"Project-1-AuctionPlatform/AuctionPlatform.sol\":5863:5864  0 */\n      0x0\n        /* \"Project-1-AuctionPlatform/AuctionPlatform.sol\":5668:5711  BokkyPooBahsDateTimeLibrary.isValidDateTime */\n      tag_127\n        /* \"Project-1-AuctionPlatform/AuctionPlatform.sol\":5668:5878  BokkyPooBahsDateTimeLibrary.isValidDateTime(... */\n      jump\t// in\n    tag_126:\n        /* \"Project-1-AuctionPlatform/AuctionPlatform.sol\":5647:5926  require(... */\n      iszero\n      iszero\n      tag_128\n      jumpi\n      mload(0x40)\n      0x8c379a000000000000000000000000000000000000000000000000000000000\n      dup2\n      mstore\n      0x4\n      add\n      dup1\n      dup1\n      0x20\n      add\n      dup3\n      dup2\n      sub\n      dup3\n      mstore\n      0x16\n      dup2\n      mstore\n      0x20\n      add\n      dup1\n      0x456e7465722056616c6964205374617274204461746500000000000000000000\n      dup2\n      mstore\n      pop\n      0x20\n      add\n      swap2\n      pop\n      pop\n      mload(0x40)\n      dup1\n      swap2\n      sub\n      swap1\n      revert\n    tag_128:\n        /* \"Project-1-AuctionPlatform/AuctionPlatform.sol\":5957:6161  BokkyPooBahsDateTimeLibrary.isValidDateTime(... */\n      tag_129\n        /* \"Project-1-AuctionPlatform/AuctionPlatform.sol\":6018:6030  _endTimeYear */\n      dup8\n        /* \"Project-1-AuctionPlatform/AuctionPlatform.sol\":6048:6061  _endTimeMonth */\n      dup8\n        /* \"Project-1-AuctionPlatform/AuctionPlatform.sol\":6079:6090  _endTimeDay */\n      dup8\n        /* \"Project-1-AuctionPlatform/AuctionPlatform.sol\":6108:6109  0 */\n      0x0\n        /* \"Project-1-AuctionPlatform/AuctionPlatform.sol\":6127:6128  0 */\n      dup1\n        /* \"Project-1-AuctionPlatform/AuctionPlatform.sol\":6146:6147  0 */\n      0x0\n        /* \"Project-1-AuctionPlatform/AuctionPlatform.sol\":5957:6000  BokkyPooBahsDateTimeLibrary.isValidDateTime */\n      tag_127\n        /* \"Project-1-AuctionPlatform/AuctionPlatform.sol\":5957:6161  BokkyPooBahsDateTimeLibrary.isValidDateTime(... */\n      jump\t// in\n    tag_129:\n        /* \"Project-1-AuctionPlatform/AuctionPlatform.sol\":5936:6207  require(... */\n      iszero\n      iszero\n      tag_130\n      jumpi\n      mload(0x40)\n      0x8c379a000000000000000000000000000000000000000000000000000000000\n      dup2\n      mstore\n      0x4\n      add\n      dup1\n      dup1\n      0x20\n      add\n      dup3\n      dup2\n      sub\n      dup3\n      mstore\n      0x14\n      dup2\n      mstore\n      0x20\n      add\n      dup1\n      0x456e7465722056616c696420456e642044617465000000000000000000000000\n      dup2\n      mstore\n      pop\n      0x20\n      add\n      swap2\n      pop\n      pop\n      mload(0x40)\n      dup1\n      swap2\n      sub\n      swap1\n      revert\n    tag_130:\n        /* \"Project-1-AuctionPlatform/AuctionPlatform.sol\":6351:6490  BokkyPooBahsDateTimeLibrary.timestampFromDate(... */\n      tag_131\n        /* \"Project-1-AuctionPlatform/AuctionPlatform.sol\":6410:6424  _startTimeYear */\n      dup11\n        /* \"Project-1-AuctionPlatform/AuctionPlatform.sol\":6438:6453  _startTimeMonth */\n      dup11\n        /* \"Project-1-AuctionPlatform/AuctionPlatform.sol\":6467:6480  _startTimeDay */\n      dup11\n        /* \"Project-1-AuctionPlatform/AuctionPlatform.sol\":6351:6396  BokkyPooBahsDateTimeLibrary.timestampFromDate */\n      tag_132\n        /* \"Project-1-AuctionPlatform/AuctionPlatform.sol\":6351:6490  BokkyPooBahsDateTimeLibrary.timestampFromDate(... */\n      jump\t// in\n    tag_131:\n        /* \"Project-1-AuctionPlatform/AuctionPlatform.sol\":6330:6490  uint256 start_time = BokkyPooBahsDateTimeLibrary.timestampFromDate(... */\n      swap3\n      pop\n        /* \"Project-1-AuctionPlatform/AuctionPlatform.sol\":6520:6653  BokkyPooBahsDateTimeLibrary.timestampFromDate(... */\n      tag_133\n        /* \"Project-1-AuctionPlatform/AuctionPlatform.sol\":6579:6591  _endTimeYear */\n      dup8\n        /* \"Project-1-AuctionPlatform/AuctionPlatform.sol\":6605:6618  _endTimeMonth */\n      dup8\n        /* \"Project-1-AuctionPlatform/AuctionPlatform.sol\":6632:6643  _endTimeDay */\n      dup8\n        /* \"Project-1-AuctionPlatform/AuctionPlatform.sol\":6520:6565  BokkyPooBahsDateTimeLibrary.timestampFromDate */\n      tag_132\n        /* \"Project-1-AuctionPlatform/AuctionPlatform.sol\":6520:6653  BokkyPooBahsDateTimeLibrary.timestampFromDate(... */\n      jump\t// in\n    tag_133:\n        /* \"Project-1-AuctionPlatform/AuctionPlatform.sol\":6501:6653  uint256 end_time = BokkyPooBahsDateTimeLibrary.timestampFromDate(... */\n      swap2\n      pop\n        /* \"Project-1-AuctionPlatform/AuctionPlatform.sol\":6793:6803  start_time */\n      dup3\n        /* \"Project-1-AuctionPlatform/AuctionPlatform.sol\":6775:6790  block.timestamp */\n      timestamp\n        /* \"Project-1-AuctionPlatform/AuctionPlatform.sol\":6775:6803  block.timestamp < start_time */\n      lt\n        /* \"Project-1-AuctionPlatform/AuctionPlatform.sol\":6775:6849  block.timestamp < start_time &&... */\n      dup1\n      iszero\n      tag_134\n      jumpi\n      pop\n        /* \"Project-1-AuctionPlatform/AuctionPlatform.sol\":6841:6849  end_time */\n      dup2\n        /* \"Project-1-AuctionPlatform/AuctionPlatform.sol\":6823:6838  block.timestamp */\n      timestamp\n        /* \"Project-1-AuctionPlatform/AuctionPlatform.sol\":6823:6849  block.timestamp < end_time */\n      lt\n        /* \"Project-1-AuctionPlatform/AuctionPlatform.sol\":6775:6849  block.timestamp < start_time &&... */\n    tag_134:\n        /* \"Project-1-AuctionPlatform/AuctionPlatform.sol\":6775:6890  block.timestamp < start_time &&... */\n      dup1\n      iszero\n      tag_135\n      jumpi\n      pop\n        /* \"Project-1-AuctionPlatform/AuctionPlatform.sol\":6882:6890  end_time */\n      dup2\n        /* \"Project-1-AuctionPlatform/AuctionPlatform.sol\":6869:6879  start_time */\n      dup4\n        /* \"Project-1-AuctionPlatform/AuctionPlatform.sol\":6869:6890  start_time < end_time */\n      lt\n        /* \"Project-1-AuctionPlatform/AuctionPlatform.sol\":6775:6890  block.timestamp < start_time &&... */\n    tag_135:\n        /* \"Project-1-AuctionPlatform/AuctionPlatform.sol\":6754:6962  require(... */\n      iszero\n      iszero\n      tag_136\n      jumpi\n      mload(0x40)\n      0x8c379a000000000000000000000000000000000000000000000000000000000\n      dup2\n      mstore\n      0x4\n      add\n      dup1\n      dup1\n      0x20\n      add\n      dup3\n      dup2\n      sub\n      dup3\n      mstore\n      0x2e\n      dup2\n      mstore\n      0x20\n      add\n      dup1\n      0x20506c6561736520656e74657220612076616c696420696e74657276616c2066\n      dup2\n      mstore\n      0x20\n      add\n      0x6f72207468652041756374696f6e000000000000000000000000000000000000\n      dup2\n      mstore\n      pop\n      0x40\n      add\n      swap2\n      pop\n      pop\n      mload(0x40)\n      dup1\n      swap2\n      sub\n      swap1\n      revert\n    tag_136:\n        /* \"Project-1-AuctionPlatform/AuctionPlatform.sol\":6989:6990  1 */\n      0x1\n        /* \"Project-1-AuctionPlatform/AuctionPlatform.sol\":6981:6986  aucId */\n      sload(0x0)\n        /* \"Project-1-AuctionPlatform/AuctionPlatform.sol\":6981:6990  aucId + 1 */\n      add\n        /* \"Project-1-AuctionPlatform/AuctionPlatform.sol\":6973:6978  aucId */\n      0x0\n        /* \"Project-1-AuctionPlatform/AuctionPlatform.sol\":6973:6990  aucId = aucId + 1 */\n      dup2\n      swap1\n      sstore\n      pop\n        /* \"Project-1-AuctionPlatform/AuctionPlatform.sol\":7114:7126  _description */\n      dup11\n        /* \"Project-1-AuctionPlatform/AuctionPlatform.sol\":7140:7150  start_time */\n      dup4\n        /* \"Project-1-AuctionPlatform/AuctionPlatform.sol\":7164:7172  end_time */\n      dup4\n        /* \"Project-1-AuctionPlatform/AuctionPlatform.sol\":7186:7196  _minBidVal */\n      dup7\n        /* \"Project-1-AuctionPlatform/AuctionPlatform.sol\":7089:7206  new Auction(... */\n      tag_137\n      jump\t// in(tag_138)\n    tag_137:\n      dup1\n      dup1\n      0x20\n      add\n      dup6\n      dup2\n      mstore\n      0x20\n      add\n      dup5\n      dup2\n      mstore\n      0x20\n      add\n      dup4\n      dup2\n      mstore\n      0x20\n      add\n      dup3\n      dup2\n      sub\n      dup3\n      mstore\n      dup7\n      dup2\n      dup2\n      mload\n      dup2\n      mstore\n      0x20\n      add\n      swap2\n      pop\n      dup1\n      mload\n      swap1\n      0x20\n      add\n      swap1\n      dup1\n      dup4\n      dup4\n        /* \"--CODEGEN--\":23:24   */\n      0x0\n        /* \"--CODEGEN--\":8:108   */\n    tag_139:\n        /* \"--CODEGEN--\":33:36   */\n      dup4\n        /* \"--CODEGEN--\":30:31   */\n      dup2\n        /* \"--CODEGEN--\":27:37   */\n      lt\n        /* \"--CODEGEN--\":8:108   */\n      iszero\n      tag_140\n      jumpi\n        /* \"--CODEGEN--\":99:100   */\n      dup1\n        /* \"--CODEGEN--\":94:97   */\n      dup3\n        /* \"--CODEGEN--\":90:101   */\n      add\n        /* \"--CODEGEN--\":84:102   */\n      mload\n        /* \"--CODEGEN--\":80:81   */\n      dup2\n        /* \"--CODEGEN--\":75:78   */\n      dup5\n        /* \"--CODEGEN--\":71:82   */\n      add\n        /* \"--CODEGEN--\":64:103   */\n      mstore\n        /* \"--CODEGEN--\":52:54   */\n      0x20\n        /* \"--CODEGEN--\":49:50   */\n      dup2\n        /* \"--CODEGEN--\":45:55   */\n      add\n        /* \"--CODEGEN--\":40:55   */\n      swap1\n      pop\n        /* \"--CODEGEN--\":8:108   */\n      jump(tag_139)\n    tag_140:\n        /* \"--CODEGEN--\":12:26   */\n      pop\n        /* \"Project-1-AuctionPlatform/AuctionPlatform.sol\":7089:7206  new Auction(... */\n      pop\n      pop\n      pop\n      swap1\n      pop\n      swap1\n      dup2\n      add\n      swap1\n      0x1f\n      and\n      dup1\n      iszero\n      tag_142\n      jumpi\n      dup1\n      dup3\n      sub\n      dup1\n      mload\n      0x1\n      dup4\n      0x20\n      sub\n      0x100\n      exp\n      sub\n      not\n      and\n      dup2\n      mstore\n      0x20\n      add\n      swap2\n      pop\n    tag_142:\n      pop\n      swap6\n      pop\n      pop\n      pop\n      pop\n      pop\n      pop\n      mload(0x40)\n      dup1\n      swap2\n      sub\n      swap1\n      0x0\n      create\n      dup1\n      iszero\n        /* \"--CODEGEN--\":8:17   */\n      dup1\n        /* \"--CODEGEN--\":5:7   */\n      iszero\n      tag_143\n      jumpi\n        /* \"--CODEGEN--\":45:61   */\n      returndatasize\n        /* \"--CODEGEN--\":42:43   */\n      0x0\n        /* \"--CODEGEN--\":39:40   */\n      dup1\n        /* \"--CODEGEN--\":24:62   */\n      returndatacopy\n        /* \"--CODEGEN--\":77:93   */\n      returndatasize\n        /* \"--CODEGEN--\":74:75   */\n      0x0\n        /* \"--CODEGEN--\":67:94   */\n      revert\n        /* \"--CODEGEN--\":5:7   */\n    tag_143:\n        /* \"Project-1-AuctionPlatform/AuctionPlatform.sol\":7089:7206  new Auction(... */\n      pop\n        /* \"Project-1-AuctionPlatform/AuctionPlatform.sol\":7073:7206  Auction TempA = new Auction(... */\n      swap1\n      pop\n        /* \"Project-1-AuctionPlatform/AuctionPlatform.sol\":7286:7291  TempA */\n      dup1\n        /* \"Project-1-AuctionPlatform/AuctionPlatform.sol\":7265:7276  auctionList */\n      0x1\n        /* \"Project-1-AuctionPlatform/AuctionPlatform.sol\":7277:7282  aucId */\n      sload(0x0)\n        /* \"Project-1-AuctionPlatform/AuctionPlatform.sol\":7265:7283  auctionList[aucId] */\n      0x65\n      dup2\n      lt\n      iszero\n      iszero\n      tag_144\n      jumpi\n      invalid\n    tag_144:\n      add\n      0x0\n        /* \"Project-1-AuctionPlatform/AuctionPlatform.sol\":7265:7291  auctionList[aucId] = TempA */\n      0x100\n      exp\n      dup2\n      sload\n      dup2\n      0xffffffffffffffffffffffffffffffffffffffff\n      mul\n      not\n      and\n      swap1\n      dup4\n      0xffffffffffffffffffffffffffffffffffffffff\n      and\n      mul\n      or\n      swap1\n      sstore\n      pop\n        /* \"Project-1-AuctionPlatform/AuctionPlatform.sol\":7385:7390  aucId */\n      sload(0x0)\n        /* \"Project-1-AuctionPlatform/AuctionPlatform.sol\":7361:7370  aucOwners */\n      0x66\n        /* \"Project-1-AuctionPlatform/AuctionPlatform.sol\":7361:7382  aucOwners[msg.sender] */\n      0x0\n        /* \"Project-1-AuctionPlatform/AuctionPlatform.sol\":7371:7381  msg.sender */\n      caller\n        /* \"Project-1-AuctionPlatform/AuctionPlatform.sol\":7361:7382  aucOwners[msg.sender] */\n      0xffffffffffffffffffffffffffffffffffffffff\n      and\n      0xffffffffffffffffffffffffffffffffffffffff\n      and\n      dup2\n      mstore\n      0x20\n      add\n      swap1\n      dup2\n      mstore\n      0x20\n      add\n      0x0\n      keccak256\n        /* \"Project-1-AuctionPlatform/AuctionPlatform.sol\":7361:7390  aucOwners[msg.sender] = aucId */\n      dup2\n      swap1\n      sstore\n      pop\n        /* \"Project-1-AuctionPlatform/AuctionPlatform.sol\":7517:7532  block.timestamp */\n      timestamp\n        /* \"Project-1-AuctionPlatform/AuctionPlatform.sol\":7510:7515  aucId */\n      sload(0x0)\n        /* \"Project-1-AuctionPlatform/AuctionPlatform.sol\":7495:7545  auctionCreated(aucId, block.timestamp, msg.sender) */\n      0x737a59893603ef25305aef11ac201c15bb5fa4f4195223c5dd69109857781504\n        /* \"Project-1-AuctionPlatform/AuctionPlatform.sol\":7534:7544  msg.sender */\n      caller\n        /* \"Project-1-AuctionPlatform/AuctionPlatform.sol\":7495:7545  auctionCreated(aucId, block.timestamp, msg.sender) */\n      mload(0x40)\n      dup1\n      dup3\n      0xffffffffffffffffffffffffffffffffffffffff\n      and\n      0xffffffffffffffffffffffffffffffffffffffff\n      and\n      dup2\n      mstore\n      0x20\n      add\n      swap2\n      pop\n      pop\n      mload(0x40)\n      dup1\n      swap2\n      sub\n      swap1\n      log3\n        /* \"Project-1-AuctionPlatform/AuctionPlatform.sol\":4973:7552  function createAuction(... */\n      pop\n      pop\n      pop\n      pop\n      pop\n      pop\n      pop\n      pop\n      pop\n      pop\n      pop\n      jump\t// out\n        /* \"Project-1-AuctionPlatform/AuctionPlatform.sol\":1470:1680  function getListOfBidsOnAuction()... */\n    tag_41:\n        /* \"Project-1-AuctionPlatform/AuctionPlatform.sol\":1591:1600  uint256[] */\n      0x60\n        /* \"Project-1-AuctionPlatform/AuctionPlatform.sol\":8493:8494  0 */\n      0x0\n        /* \"Project-1-AuctionPlatform/AuctionPlatform.sol\":8468:8477  aucOwners */\n      0x66\n        /* \"Project-1-AuctionPlatform/AuctionPlatform.sol\":8468:8489  aucOwners[msg.sender] */\n      0x0\n        /* \"Project-1-AuctionPlatform/AuctionPlatform.sol\":8478:8488  msg.sender */\n      caller\n        /* \"Project-1-AuctionPlatform/AuctionPlatform.sol\":8468:8489  aucOwners[msg.sender] */\n      0xffffffffffffffffffffffffffffffffffffffff\n      and\n      0xffffffffffffffffffffffffffffffffffffffff\n      and\n      dup2\n      mstore\n      0x20\n      add\n      swap1\n      dup2\n      mstore\n      0x20\n      add\n      0x0\n      keccak256\n      sload\n        /* \"Project-1-AuctionPlatform/AuctionPlatform.sol\":8468:8494  aucOwners[msg.sender] != 0 */\n      eq\n      iszero\n        /* \"Project-1-AuctionPlatform/AuctionPlatform.sol\":8460:8531  require(aucOwners[msg.sender] != 0, \"You haven't created any Auctions\") */\n      iszero\n      iszero\n      tag_147\n      jumpi\n      mload(0x40)\n      0x8c379a000000000000000000000000000000000000000000000000000000000\n      dup2\n      mstore\n      0x4\n      add\n      dup1\n      dup1\n      0x20\n      add\n      dup3\n      dup2\n      sub\n      dup3\n      mstore\n      0x20\n      dup2\n      mstore\n      0x20\n      add\n      dup1\n      0x596f7520686176656e2774206372656174656420616e792041756374696f6e73\n      dup2\n      mstore\n      pop\n      0x20\n      add\n      swap2\n      pop\n      pop\n      mload(0x40)\n      dup1\n      swap2\n      sub\n      swap1\n      revert\n    tag_147:\n        /* \"Project-1-AuctionPlatform/AuctionPlatform.sol\":7706:7717  auctionList */\n      0x1\n        /* \"Project-1-AuctionPlatform/AuctionPlatform.sol\":7718:7727  aucOwners */\n      0x66\n        /* \"Project-1-AuctionPlatform/AuctionPlatform.sol\":7718:7739  aucOwners[msg.sender] */\n      0x0\n        /* \"Project-1-AuctionPlatform/AuctionPlatform.sol\":7728:7738  msg.sender */\n      caller\n        /* \"Project-1-AuctionPlatform/AuctionPlatform.sol\":7718:7739  aucOwners[msg.sender] */\n      0xffffffffffffffffffffffffffffffffffffffff\n      and\n      0xffffffffffffffffffffffffffffffffffffffff\n      and\n      dup2\n      mstore\n      0x20\n      add\n      swap1\n      dup2\n      mstore\n      0x20\n      add\n      0x0\n      keccak256\n      sload\n        /* \"Project-1-AuctionPlatform/AuctionPlatform.sol\":7706:7740  auctionList[aucOwners[msg.sender]] */\n      0x65\n      dup2\n      lt\n      iszero\n      iszero\n      tag_149\n      jumpi\n      invalid\n    tag_149:\n      add\n      0x0\n      swap1\n      sload\n      swap1\n      0x100\n      exp\n      swap1\n      div\n      0xffffffffffffffffffffffffffffffffffffffff\n      and\n        /* \"Project-1-AuctionPlatform/AuctionPlatform.sol\":7706:7752  auctionList[aucOwners[msg.sender]].getBidsMade */\n      0xffffffffffffffffffffffffffffffffffffffff\n      and\n      0x409766e6\n        /* \"Project-1-AuctionPlatform/AuctionPlatform.sol\":7706:7754  auctionList[aucOwners[msg.sender]].getBidsMade() */\n      mload(0x40)\n      dup2\n      0xffffffff\n      and\n      0x100000000000000000000000000000000000000000000000000000000\n      mul\n      dup2\n      mstore\n      0x4\n      add\n      0x20\n      mload(0x40)\n      dup1\n      dup4\n      sub\n      dup2\n      0x0\n      dup8\n      dup1\n      extcodesize\n      iszero\n        /* \"--CODEGEN--\":8:17   */\n      dup1\n        /* \"--CODEGEN--\":5:7   */\n      iszero\n      tag_151\n      jumpi\n        /* \"--CODEGEN--\":30:31   */\n      0x0\n        /* \"--CODEGEN--\":27:28   */\n      dup1\n        /* \"--CODEGEN--\":20:32   */\n      revert\n        /* \"--CODEGEN--\":5:7   */\n    tag_151:\n        /* \"Project-1-AuctionPlatform/AuctionPlatform.sol\":7706:7754  auctionList[aucOwners[msg.sender]].getBidsMade() */\n      pop\n      gas\n      call\n      iszero\n        /* \"--CODEGEN--\":8:17   */\n      dup1\n        /* \"--CODEGEN--\":5:7   */\n      iszero\n      tag_152\n      jumpi\n        /* \"--CODEGEN--\":45:61   */\n      returndatasize\n        /* \"--CODEGEN--\":42:43   */\n      0x0\n        /* \"--CODEGEN--\":39:40   */\n      dup1\n        /* \"--CODEGEN--\":24:62   */\n      returndatacopy\n        /* \"--CODEGEN--\":77:93   */\n      returndatasize\n        /* \"--CODEGEN--\":74:75   */\n      0x0\n        /* \"--CODEGEN--\":67:94   */\n      revert\n        /* \"--CODEGEN--\":5:7   */\n    tag_152:\n        /* \"Project-1-AuctionPlatform/AuctionPlatform.sol\":7706:7754  auctionList[aucOwners[msg.sender]].getBidsMade() */\n      pop\n      pop\n      pop\n      pop\n      mload(0x40)\n      returndatasize\n        /* \"--CODEGEN--\":13:15   */\n      0x20\n        /* \"--CODEGEN--\":8:11   */\n      dup2\n        /* \"--CODEGEN--\":5:16   */\n      lt\n        /* \"--CODEGEN--\":2:4   */\n      iszero\n      tag_153\n      jumpi\n        /* \"--CODEGEN--\":29:30   */\n      0x0\n        /* \"--CODEGEN--\":26:27   */\n      dup1\n        /* \"--CODEGEN--\":19:31   */\n      revert\n        /* \"--CODEGEN--\":2:4   */\n    tag_153:\n        /* \"Project-1-AuctionPlatform/AuctionPlatform.sol\":7706:7754  auctionList[aucOwners[msg.sender]].getBidsMade() */\n      dup2\n      add\n      swap1\n      dup1\n      dup1\n      mload\n      swap1\n      0x20\n      add\n      swap1\n      swap3\n      swap2\n      swap1\n      pop\n      pop\n      pop\n        /* \"Project-1-AuctionPlatform/AuctionPlatform.sol\":7685:7816  require(... */\n      iszero\n      iszero\n      tag_154\n      jumpi\n      mload(0x40)\n      0x8c379a000000000000000000000000000000000000000000000000000000000\n      dup2\n      mstore\n      0x4\n      add\n      dup1\n      dup1\n      0x20\n      add\n      dup3\n      dup2\n      sub\n      dup3\n      mstore\n      0x24\n      dup2\n      mstore\n      0x20\n      add\n      dup1\n      0x5468657265206172656e277420616e792062696473206f6e2074686520417563\n      dup2\n      mstore\n      0x20\n      add\n      0x74696f6e00000000000000000000000000000000000000000000000000000000\n      dup2\n      mstore\n      pop\n      0x40\n      add\n      swap2\n      pop\n      pop\n      mload(0x40)\n      dup1\n      swap2\n      sub\n      swap1\n      revert\n    tag_154:\n        /* \"Project-1-AuctionPlatform/AuctionPlatform.sol\":1623:1634  auctionList */\n      0x1\n        /* \"Project-1-AuctionPlatform/AuctionPlatform.sol\":1635:1644  aucOwners */\n      0x66\n        /* \"Project-1-AuctionPlatform/AuctionPlatform.sol\":1635:1656  aucOwners[msg.sender] */\n      0x0\n        /* \"Project-1-AuctionPlatform/AuctionPlatform.sol\":1645:1655  msg.sender */\n      caller\n        /* \"Project-1-AuctionPlatform/AuctionPlatform.sol\":1635:1656  aucOwners[msg.sender] */\n      0xffffffffffffffffffffffffffffffffffffffff\n      and\n      0xffffffffffffffffffffffffffffffffffffffff\n      and\n      dup2\n      mstore\n      0x20\n      add\n      swap1\n      dup2\n      mstore\n      0x20\n      add\n      0x0\n      keccak256\n      sload\n        /* \"Project-1-AuctionPlatform/AuctionPlatform.sol\":1623:1657  auctionList[aucOwners[msg.sender]] */\n      0x65\n      dup2\n      lt\n      iszero\n      iszero\n      tag_156\n      jumpi\n      invalid\n    tag_156:\n      add\n      0x0\n      swap1\n      sload\n      swap1\n      0x100\n      exp\n      swap1\n      div\n      0xffffffffffffffffffffffffffffffffffffffff\n      and\n        /* \"Project-1-AuctionPlatform/AuctionPlatform.sol\":1623:1671  auctionList[aucOwners[msg.sender]].getListOfBids */\n      0xffffffffffffffffffffffffffffffffffffffff\n      and\n      0x679dbf0c\n        /* \"Project-1-AuctionPlatform/AuctionPlatform.sol\":1623:1673  auctionList[aucOwners[msg.sender]].getListOfBids() */\n      mload(0x40)\n      dup2\n      0xffffffff\n      and\n      0x100000000000000000000000000000000000000000000000000000000\n      mul\n      dup2\n      mstore\n      0x4\n      add\n      0x0\n      mload(0x40)\n      dup1\n      dup4\n      sub\n      dup2\n      0x0\n      dup8\n      dup1\n      extcodesize\n      iszero\n        /* \"--CODEGEN--\":8:17   */\n      dup1\n        /* \"--CODEGEN--\":5:7   */\n      iszero\n      tag_158\n      jumpi\n        /* \"--CODEGEN--\":30:31   */\n      0x0\n        /* \"--CODEGEN--\":27:28   */\n      dup1\n        /* \"--CODEGEN--\":20:32   */\n      revert\n        /* \"--CODEGEN--\":5:7   */\n    tag_158:\n        /* \"Project-1-AuctionPlatform/AuctionPlatform.sol\":1623:1673  auctionList[aucOwners[msg.sender]].getListOfBids() */\n      pop\n      gas\n      call\n      iszero\n        /* \"--CODEGEN--\":8:17   */\n      dup1\n        /* \"--CODEGEN--\":5:7   */\n      iszero\n      tag_159\n      jumpi\n        /* \"--CODEGEN--\":45:61   */\n      returndatasize\n        /* \"--CODEGEN--\":42:43   */\n      0x0\n        /* \"--CODEGEN--\":39:40   */\n      dup1\n        /* \"--CODEGEN--\":24:62   */\n      returndatacopy\n        /* \"--CODEGEN--\":77:93   */\n      returndatasize\n        /* \"--CODEGEN--\":74:75   */\n      0x0\n        /* \"--CODEGEN--\":67:94   */\n      revert\n        /* \"--CODEGEN--\":5:7   */\n    tag_159:\n        /* \"Project-1-AuctionPlatform/AuctionPlatform.sol\":1623:1673  auctionList[aucOwners[msg.sender]].getListOfBids() */\n      pop\n      pop\n      pop\n      pop\n      mload(0x40)\n        /* \"--CODEGEN--\":39:55   */\n      returndatasize\n        /* \"--CODEGEN--\":36:37   */\n      0x0\n        /* \"--CODEGEN--\":17:34   */\n      dup3\n        /* \"--CODEGEN--\":2:56   */\n      returndatacopy\n        /* \"Project-1-AuctionPlatform/AuctionPlatform.sol\":1623:1673  auctionList[aucOwners[msg.sender]].getListOfBids() */\n      returndatasize\n        /* \"--CODEGEN--\":101:105   */\n      0x1f\n        /* \"--CODEGEN--\":97:106   */\n      not\n        /* \"--CODEGEN--\":90:94   */\n      0x1f\n        /* \"--CODEGEN--\":84:88   */\n      dup3\n        /* \"--CODEGEN--\":80:95   */\n      add\n        /* \"--CODEGEN--\":76:107   */\n      and\n        /* \"--CODEGEN--\":69:74   */\n      dup3\n        /* \"--CODEGEN--\":65:108   */\n      add\n        /* \"--CODEGEN--\":126:132   */\n      dup1\n        /* \"--CODEGEN--\":120:124   */\n      0x40\n        /* \"--CODEGEN--\":113:133   */\n      mstore\n        /* \"--CODEGEN--\":0:138   */\n      pop\n        /* \"--CODEGEN--\":13:15   */\n      0x20\n        /* \"--CODEGEN--\":8:11   */\n      dup2\n        /* \"--CODEGEN--\":5:16   */\n      lt\n        /* \"--CODEGEN--\":2:4   */\n      iszero\n      tag_160\n      jumpi\n        /* \"--CODEGEN--\":29:30   */\n      0x0\n        /* \"--CODEGEN--\":26:27   */\n      dup1\n        /* \"--CODEGEN--\":19:31   */\n      revert\n        /* \"--CODEGEN--\":2:4   */\n    tag_160:\n        /* \"Project-1-AuctionPlatform/AuctionPlatform.sol\":1623:1673  auctionList[aucOwners[msg.sender]].getListOfBids() */\n      dup2\n      add\n      swap1\n      dup1\n      dup1\n      mload\n        /* \"--CODEGEN--\":20:31   */\n      0x100000000\n        /* \"--CODEGEN--\":15:18   */\n      dup2\n        /* \"--CODEGEN--\":12:32   */\n      gt\n        /* \"--CODEGEN--\":9:11   */\n      iszero\n      tag_161\n      jumpi\n        /* \"--CODEGEN--\":45:46   */\n      0x0\n        /* \"--CODEGEN--\":42:43   */\n      dup1\n        /* \"--CODEGEN--\":35:47   */\n      revert\n        /* \"--CODEGEN--\":9:11   */\n    tag_161:\n        /* \"--CODEGEN--\":73:84   */\n      dup3\n        /* \"--CODEGEN--\":68:71   */\n      dup2\n        /* \"--CODEGEN--\":64:85   */\n      add\n        /* \"--CODEGEN--\":57:85   */\n      swap1\n      pop\n        /* \"--CODEGEN--\":126:130   */\n      0x20\n        /* \"--CODEGEN--\":121:124   */\n      dup2\n        /* \"--CODEGEN--\":117:131   */\n      add\n        /* \"--CODEGEN--\":163:172   */\n      dup5\n        /* \"--CODEGEN--\":145:161   */\n      dup2\n        /* \"--CODEGEN--\":142:173   */\n      gt\n        /* \"--CODEGEN--\":139:141   */\n      iszero\n      tag_162\n      jumpi\n        /* \"--CODEGEN--\":186:187   */\n      0x0\n        /* \"--CODEGEN--\":183:184   */\n      dup1\n        /* \"--CODEGEN--\":176:188   */\n      revert\n        /* \"--CODEGEN--\":139:141   */\n    tag_162:\n        /* \"--CODEGEN--\":224:227   */\n      dup2\n        /* \"--CODEGEN--\":218:228   */\n      mload\n        /* \"--CODEGEN--\":339:348   */\n      dup6\n        /* \"--CODEGEN--\":333:335   */\n      0x20\n        /* \"--CODEGEN--\":319:331   */\n      dup3\n        /* \"--CODEGEN--\":315:336   */\n      mul\n        /* \"--CODEGEN--\":297:313   */\n      dup4\n        /* \"--CODEGEN--\":293:337   */\n      add\n        /* \"--CODEGEN--\":290:349   */\n      gt\n        /* \"--CODEGEN--\":268:279   */\n      0x100000000\n        /* \"--CODEGEN--\":254:266   */\n      dup3\n        /* \"--CODEGEN--\":251:280   */\n      gt\n        /* \"--CODEGEN--\":239:358   */\n      or\n        /* \"--CODEGEN--\":236:238   */\n      iszero\n      tag_163\n      jumpi\n        /* \"--CODEGEN--\":371:372   */\n      0x0\n        /* \"--CODEGEN--\":368:369   */\n      dup1\n        /* \"--CODEGEN--\":361:373   */\n      revert\n        /* \"--CODEGEN--\":236:238   */\n    tag_163:\n        /* \"--CODEGEN--\":0:383   */\n      pop\n      pop\n        /* \"Project-1-AuctionPlatform/AuctionPlatform.sol\":1623:1673  auctionList[aucOwners[msg.sender]].getListOfBids() */\n      swap3\n      swap2\n      swap1\n      pop\n      pop\n      pop\n        /* \"Project-1-AuctionPlatform/AuctionPlatform.sol\":1616:1673  return auctionList[aucOwners[msg.sender]].getListOfBids() */\n      swap1\n      pop\n        /* \"Project-1-AuctionPlatform/AuctionPlatform.sol\":1470:1680  function getListOfBidsOnAuction()... */\n      swap1\n      jump\t// out\n        /* \"Project-1-AuctionPlatform/AuctionPlatform.sol\":2698:3309  function endAuction() public ifAuctionOwner returns (address) {... */\n    tag_47:\n        /* \"Project-1-AuctionPlatform/AuctionPlatform.sol\":2751:2758  address */\n      0x0\n        /* \"Project-1-AuctionPlatform/AuctionPlatform.sol\":2797:2811  uint256 maxBid */\n      dup1\n        /* \"Project-1-AuctionPlatform/AuctionPlatform.sol\":3136:3150  address winner */\n      0x0\n        /* \"Project-1-AuctionPlatform/AuctionPlatform.sol\":8493:8494  0 */\n      dup1\n        /* \"Project-1-AuctionPlatform/AuctionPlatform.sol\":8468:8477  aucOwners */\n      0x66\n        /* \"Project-1-AuctionPlatform/AuctionPlatform.sol\":8468:8489  aucOwners[msg.sender] */\n      0x0\n        /* \"Project-1-AuctionPlatform/AuctionPlatform.sol\":8478:8488  msg.sender */\n      caller\n        /* \"Project-1-AuctionPlatform/AuctionPlatform.sol\":8468:8489  aucOwners[msg.sender] */\n      0xffffffffffffffffffffffffffffffffffffffff\n      and\n      0xffffffffffffffffffffffffffffffffffffffff\n      and\n      dup2\n      mstore\n      0x20\n      add\n      swap1\n      dup2\n      mstore\n      0x20\n      add\n      0x0\n      keccak256\n      sload\n        /* \"Project-1-AuctionPlatform/AuctionPlatform.sol\":8468:8494  aucOwners[msg.sender] != 0 */\n      eq\n      iszero\n        /* \"Project-1-AuctionPlatform/AuctionPlatform.sol\":8460:8531  require(aucOwners[msg.sender] != 0, \"You haven't created any Auctions\") */\n      iszero\n      iszero\n      tag_165\n      jumpi\n      mload(0x40)\n      0x8c379a000000000000000000000000000000000000000000000000000000000\n      dup2\n      mstore\n      0x4\n      add\n      dup1\n      dup1\n      0x20\n      add\n      dup3\n      dup2\n      sub\n      dup3\n      mstore\n      0x20\n      dup2\n      mstore\n      0x20\n      add\n      dup1\n      0x596f7520686176656e2774206372656174656420616e792041756374696f6e73\n      dup2\n      mstore\n      pop\n      0x20\n      add\n      swap2\n      pop\n      pop\n      mload(0x40)\n      dup1\n      swap2\n      sub\n      swap1\n      revert\n    tag_165:\n        /* \"Project-1-AuctionPlatform/AuctionPlatform.sol\":2814:2825  auctionList */\n      0x1\n        /* \"Project-1-AuctionPlatform/AuctionPlatform.sol\":2826:2835  aucOwners */\n      0x66\n        /* \"Project-1-AuctionPlatform/AuctionPlatform.sol\":2826:2847  aucOwners[msg.sender] */\n      0x0\n        /* \"Project-1-AuctionPlatform/AuctionPlatform.sol\":2836:2846  msg.sender */\n      caller\n        /* \"Project-1-AuctionPlatform/AuctionPlatform.sol\":2826:2847  aucOwners[msg.sender] */\n      0xffffffffffffffffffffffffffffffffffffffff\n      and\n      0xffffffffffffffffffffffffffffffffffffffff\n      and\n      dup2\n      mstore\n      0x20\n      add\n      swap1\n      dup2\n      mstore\n      0x20\n      add\n      0x0\n      keccak256\n      sload\n        /* \"Project-1-AuctionPlatform/AuctionPlatform.sol\":2814:2848  auctionList[aucOwners[msg.sender]] */\n      0x65\n      dup2\n      lt\n      iszero\n      iszero\n      tag_167\n      jumpi\n      invalid\n    tag_167:\n      add\n      0x0\n      swap1\n      sload\n      swap1\n      0x100\n      exp\n      swap1\n      div\n      0xffffffffffffffffffffffffffffffffffffffff\n      and\n        /* \"Project-1-AuctionPlatform/AuctionPlatform.sol\":2814:2862  auctionList[aucOwners[msg.sender]].getMaximumBid */\n      0xffffffffffffffffffffffffffffffffffffffff\n      and\n      0xdd06ba1a\n        /* \"Project-1-AuctionPlatform/AuctionPlatform.sol\":2814:2864  auctionList[aucOwners[msg.sender]].getMaximumBid() */\n      mload(0x40)\n      dup2\n      0xffffffff\n      and\n      0x100000000000000000000000000000000000000000000000000000000\n      mul\n      dup2\n      mstore\n      0x4\n      add\n      0x20\n      mload(0x40)\n      dup1\n      dup4\n      sub\n      dup2\n      0x0\n      dup8\n      dup1\n      extcodesize\n      iszero\n        /* \"--CODEGEN--\":8:17   */\n      dup1\n        /* \"--CODEGEN--\":5:7   */\n      iszero\n      tag_169\n      jumpi\n        /* \"--CODEGEN--\":30:31   */\n      0x0\n        /* \"--CODEGEN--\":27:28   */\n      dup1\n        /* \"--CODEGEN--\":20:32   */\n      revert\n        /* \"--CODEGEN--\":5:7   */\n    tag_169:\n        /* \"Project-1-AuctionPlatform/AuctionPlatform.sol\":2814:2864  auctionList[aucOwners[msg.sender]].getMaximumBid() */\n      pop\n      gas\n      call\n      iszero\n        /* \"--CODEGEN--\":8:17   */\n      dup1\n        /* \"--CODEGEN--\":5:7   */\n      iszero\n      tag_170\n      jumpi\n        /* \"--CODEGEN--\":45:61   */\n      returndatasize\n        /* \"--CODEGEN--\":42:43   */\n      0x0\n        /* \"--CODEGEN--\":39:40   */\n      dup1\n        /* \"--CODEGEN--\":24:62   */\n      returndatacopy\n        /* \"--CODEGEN--\":77:93   */\n      returndatasize\n        /* \"--CODEGEN--\":74:75   */\n      0x0\n        /* \"--CODEGEN--\":67:94   */\n      revert\n        /* \"--CODEGEN--\":5:7   */\n    tag_170:\n        /* \"Project-1-AuctionPlatform/AuctionPlatform.sol\":2814:2864  auctionList[aucOwners[msg.sender]].getMaximumBid() */\n      pop\n      pop\n      pop\n      pop\n      mload(0x40)\n      returndatasize\n        /* \"--CODEGEN--\":13:15   */\n      0x20\n        /* \"--CODEGEN--\":8:11   */\n      dup2\n        /* \"--CODEGEN--\":5:16   */\n      lt\n        /* \"--CODEGEN--\":2:4   */\n      iszero\n      tag_171\n      jumpi\n        /* \"--CODEGEN--\":29:30   */\n      0x0\n        /* \"--CODEGEN--\":26:27   */\n      dup1\n        /* \"--CODEGEN--\":19:31   */\n      revert\n        /* \"--CODEGEN--\":2:4   */\n    tag_171:\n        /* \"Project-1-AuctionPlatform/AuctionPlatform.sol\":2814:2864  auctionList[aucOwners[msg.sender]].getMaximumBid() */\n      dup2\n      add\n      swap1\n      dup1\n      dup1\n      mload\n      swap1\n      0x20\n      add\n      swap1\n      swap3\n      swap2\n      swap1\n      pop\n      pop\n      pop\n        /* \"Project-1-AuctionPlatform/AuctionPlatform.sol\":2797:2864  uint256 maxBid = auctionList[aucOwners[msg.sender]].getMaximumBid() */\n      swap2\n      pop\n        /* \"Project-1-AuctionPlatform/AuctionPlatform.sol\":3153:3164  auctionList */\n      0x1\n        /* \"Project-1-AuctionPlatform/AuctionPlatform.sol\":3165:3174  aucOwners */\n      0x66\n        /* \"Project-1-AuctionPlatform/AuctionPlatform.sol\":3165:3186  aucOwners[msg.sender] */\n      0x0\n        /* \"Project-1-AuctionPlatform/AuctionPlatform.sol\":3175:3185  msg.sender */\n      caller\n        /* \"Project-1-AuctionPlatform/AuctionPlatform.sol\":3165:3186  aucOwners[msg.sender] */\n      0xffffffffffffffffffffffffffffffffffffffff\n      and\n      0xffffffffffffffffffffffffffffffffffffffff\n      and\n      dup2\n      mstore\n      0x20\n      add\n      swap1\n      dup2\n      mstore\n      0x20\n      add\n      0x0\n      keccak256\n      sload\n        /* \"Project-1-AuctionPlatform/AuctionPlatform.sol\":3153:3187  auctionList[aucOwners[msg.sender]] */\n      0x65\n      dup2\n      lt\n      iszero\n      iszero\n      tag_172\n      jumpi\n      invalid\n    tag_172:\n      add\n      0x0\n      swap1\n      sload\n      swap1\n      0x100\n      exp\n      swap1\n      div\n      0xffffffffffffffffffffffffffffffffffffffff\n      and\n        /* \"Project-1-AuctionPlatform/AuctionPlatform.sol\":3153:3226  auctionList[aucOwners[msg.sender]]... */\n      0xffffffffffffffffffffffffffffffffffffffff\n      and\n      0xdee37a8e\n        /* \"Project-1-AuctionPlatform/AuctionPlatform.sol\":3227:3233  maxBid */\n      dup4\n        /* \"Project-1-AuctionPlatform/AuctionPlatform.sol\":3153:3234  auctionList[aucOwners[msg.sender]]... */\n      mload(0x40)\n      dup3\n      0xffffffff\n      and\n      0x100000000000000000000000000000000000000000000000000000000\n      mul\n      dup2\n      mstore\n      0x4\n      add\n      dup1\n      dup3\n      dup2\n      mstore\n      0x20\n      add\n      swap2\n      pop\n      pop\n      0x20\n      mload(0x40)\n      dup1\n      dup4\n      sub\n      dup2\n      0x0\n      dup8\n      dup1\n      extcodesize\n      iszero\n        /* \"--CODEGEN--\":8:17   */\n      dup1\n        /* \"--CODEGEN--\":5:7   */\n      iszero\n      tag_174\n      jumpi\n        /* \"--CODEGEN--\":30:31   */\n      0x0\n        /* \"--CODEGEN--\":27:28   */\n      dup1\n        /* \"--CODEGEN--\":20:32   */\n      revert\n        /* \"--CODEGEN--\":5:7   */\n    tag_174:\n        /* \"Project-1-AuctionPlatform/AuctionPlatform.sol\":3153:3234  auctionList[aucOwners[msg.sender]]... */\n      pop\n      gas\n      call\n      iszero\n        /* \"--CODEGEN--\":8:17   */\n      dup1\n        /* \"--CODEGEN--\":5:7   */\n      iszero\n      tag_175\n      jumpi\n        /* \"--CODEGEN--\":45:61   */\n      returndatasize\n        /* \"--CODEGEN--\":42:43   */\n      0x0\n        /* \"--CODEGEN--\":39:40   */\n      dup1\n        /* \"--CODEGEN--\":24:62   */\n      returndatacopy\n        /* \"--CODEGEN--\":77:93   */\n      returndatasize\n        /* \"--CODEGEN--\":74:75   */\n      0x0\n        /* \"--CODEGEN--\":67:94   */\n      revert\n        /* \"--CODEGEN--\":5:7   */\n    tag_175:\n        /* \"Project-1-AuctionPlatform/AuctionPlatform.sol\":3153:3234  auctionList[aucOwners[msg.sender]]... */\n      pop\n      pop\n      pop\n      pop\n      mload(0x40)\n      returndatasize\n        /* \"--CODEGEN--\":13:15   */\n      0x20\n        /* \"--CODEGEN--\":8:11   */\n      dup2\n        /* \"--CODEGEN--\":5:16   */\n      lt\n        /* \"--CODEGEN--\":2:4   */\n      iszero\n      tag_176\n      jumpi\n        /* \"--CODEGEN--\":29:30   */\n      0x0\n        /* \"--CODEGEN--\":26:27   */\n      dup1\n        /* \"--CODEGEN--\":19:31   */\n      revert\n        /* \"--CODEGEN--\":2:4   */\n    tag_176:\n        /* \"Project-1-AuctionPlatform/AuctionPlatform.sol\":3153:3234  auctionList[aucOwners[msg.sender]]... */\n      dup2\n      add\n      swap1\n      dup1\n      dup1\n      mload\n      swap1\n      0x20\n      add\n      swap1\n      swap3\n      swap2\n      swap1\n      pop\n      pop\n      pop\n        /* \"Project-1-AuctionPlatform/AuctionPlatform.sol\":3136:3234  address winner = auctionList[aucOwners[msg.sender]]... */\n      swap1\n      pop\n        /* \"Project-1-AuctionPlatform/AuctionPlatform.sol\":3271:3277  maxBid */\n      dup2\n        /* \"Project-1-AuctionPlatform/AuctionPlatform.sol\":3263:3269  winner */\n      dup2\n        /* \"Project-1-AuctionPlatform/AuctionPlatform.sol\":3250:3278  auctionEnded(winner, maxBid) */\n      0xffffffffffffffffffffffffffffffffffffffff\n      and\n      0x6e0e2174dbf7b77c08b6f9a2799b9feda84a6d54a5644864582040100a47d4c5\n      mload(0x40)\n      mload(0x40)\n      dup1\n      swap2\n      sub\n      swap1\n      log3\n        /* \"Project-1-AuctionPlatform/AuctionPlatform.sol\":3296:3302  winner */\n      dup1\n        /* \"Project-1-AuctionPlatform/AuctionPlatform.sol\":3289:3302  return winner */\n      swap3\n      pop\n        /* \"Project-1-AuctionPlatform/AuctionPlatform.sol\":2698:3309  function endAuction() public ifAuctionOwner returns (address) {... */\n      pop\n      pop\n      swap1\n      jump\t// out\n        /* \"https://github.com/bokkypoobah/BokkyPooBahsDateTimeLibrary/blob/1ea8ef42b3d8db17b910b46e4f8c124b59d77c03/contracts/BokkyPooBahsDateTimeLibrary.sol\":5368:5663  function isValidDateTime(uint year, uint month, uint day, uint hour, uint minute, uint second) internal pure returns (bool valid) {... */\n    tag_127:\n        /* \"https://github.com/bokkypoobah/BokkyPooBahsDateTimeLibrary/blob/1ea8ef42b3d8db17b910b46e4f8c124b59d77c03/contracts/BokkyPooBahsDateTimeLibrary.sol\":5486:5496  bool valid */\n      0x0\n        /* \"https://github.com/bokkypoobah/BokkyPooBahsDateTimeLibrary/blob/1ea8ef42b3d8db17b910b46e4f8c124b59d77c03/contracts/BokkyPooBahsDateTimeLibrary.sol\":5512:5541  isValidDate(year, month, day) */\n      tag_178\n        /* \"https://github.com/bokkypoobah/BokkyPooBahsDateTimeLibrary/blob/1ea8ef42b3d8db17b910b46e4f8c124b59d77c03/contracts/BokkyPooBahsDateTimeLibrary.sol\":5524:5528  year */\n      dup8\n        /* \"https://github.com/bokkypoobah/BokkyPooBahsDateTimeLibrary/blob/1ea8ef42b3d8db17b910b46e4f8c124b59d77c03/contracts/BokkyPooBahsDateTimeLibrary.sol\":5530:5535  month */\n      dup8\n        /* \"https://github.com/bokkypoobah/BokkyPooBahsDateTimeLibrary/blob/1ea8ef42b3d8db17b910b46e4f8c124b59d77c03/contracts/BokkyPooBahsDateTimeLibrary.sol\":5537:5540  day */\n      dup8\n        /* \"https://github.com/bokkypoobah/BokkyPooBahsDateTimeLibrary/blob/1ea8ef42b3d8db17b910b46e4f8c124b59d77c03/contracts/BokkyPooBahsDateTimeLibrary.sol\":5512:5523  isValidDate */\n      tag_179\n        /* \"https://github.com/bokkypoobah/BokkyPooBahsDateTimeLibrary/blob/1ea8ef42b3d8db17b910b46e4f8c124b59d77c03/contracts/BokkyPooBahsDateTimeLibrary.sol\":5512:5541  isValidDate(year, month, day) */\n      jump\t// in\n    tag_178:\n        /* \"https://github.com/bokkypoobah/BokkyPooBahsDateTimeLibrary/blob/1ea8ef42b3d8db17b910b46e4f8c124b59d77c03/contracts/BokkyPooBahsDateTimeLibrary.sol\":5508:5657  if (isValidDate(year, month, day)) {... */\n      iszero\n      tag_180\n      jumpi\n        /* \"https://github.com/bokkypoobah/BokkyPooBahsDateTimeLibrary/blob/1ea8ef42b3d8db17b910b46e4f8c124b59d77c03/contracts/BokkyPooBahsDateTimeLibrary.sol\":5568:5570  24 */\n      0x18\n        /* \"https://github.com/bokkypoobah/BokkyPooBahsDateTimeLibrary/blob/1ea8ef42b3d8db17b910b46e4f8c124b59d77c03/contracts/BokkyPooBahsDateTimeLibrary.sol\":5561:5565  hour */\n      dup5\n        /* \"https://github.com/bokkypoobah/BokkyPooBahsDateTimeLibrary/blob/1ea8ef42b3d8db17b910b46e4f8c124b59d77c03/contracts/BokkyPooBahsDateTimeLibrary.sol\":5561:5570  hour < 24 */\n      lt\n        /* \"https://github.com/bokkypoobah/BokkyPooBahsDateTimeLibrary/blob/1ea8ef42b3d8db17b910b46e4f8c124b59d77c03/contracts/BokkyPooBahsDateTimeLibrary.sol\":5561:5585  hour < 24 && minute < 60 */\n      dup1\n      iszero\n      tag_181\n      jumpi\n      pop\n        /* \"https://github.com/bokkypoobah/BokkyPooBahsDateTimeLibrary/blob/1ea8ef42b3d8db17b910b46e4f8c124b59d77c03/contracts/BokkyPooBahsDateTimeLibrary.sol\":5583:5585  60 */\n      0x3c\n        /* \"https://github.com/bokkypoobah/BokkyPooBahsDateTimeLibrary/blob/1ea8ef42b3d8db17b910b46e4f8c124b59d77c03/contracts/BokkyPooBahsDateTimeLibrary.sol\":5574:5580  minute */\n      dup4\n        /* \"https://github.com/bokkypoobah/BokkyPooBahsDateTimeLibrary/blob/1ea8ef42b3d8db17b910b46e4f8c124b59d77c03/contracts/BokkyPooBahsDateTimeLibrary.sol\":5574:5585  minute < 60 */\n      lt\n        /* \"https://github.com/bokkypoobah/BokkyPooBahsDateTimeLibrary/blob/1ea8ef42b3d8db17b910b46e4f8c124b59d77c03/contracts/BokkyPooBahsDateTimeLibrary.sol\":5561:5585  hour < 24 && minute < 60 */\n    tag_181:\n        /* \"https://github.com/bokkypoobah/BokkyPooBahsDateTimeLibrary/blob/1ea8ef42b3d8db17b910b46e4f8c124b59d77c03/contracts/BokkyPooBahsDateTimeLibrary.sol\":5561:5600  hour < 24 && minute < 60 && second < 60 */\n      dup1\n      iszero\n      tag_182\n      jumpi\n      pop\n        /* \"https://github.com/bokkypoobah/BokkyPooBahsDateTimeLibrary/blob/1ea8ef42b3d8db17b910b46e4f8c124b59d77c03/contracts/BokkyPooBahsDateTimeLibrary.sol\":5598:5600  60 */\n      0x3c\n        /* \"https://github.com/bokkypoobah/BokkyPooBahsDateTimeLibrary/blob/1ea8ef42b3d8db17b910b46e4f8c124b59d77c03/contracts/BokkyPooBahsDateTimeLibrary.sol\":5589:5595  second */\n      dup3\n        /* \"https://github.com/bokkypoobah/BokkyPooBahsDateTimeLibrary/blob/1ea8ef42b3d8db17b910b46e4f8c124b59d77c03/contracts/BokkyPooBahsDateTimeLibrary.sol\":5589:5600  second < 60 */\n      lt\n        /* \"https://github.com/bokkypoobah/BokkyPooBahsDateTimeLibrary/blob/1ea8ef42b3d8db17b910b46e4f8c124b59d77c03/contracts/BokkyPooBahsDateTimeLibrary.sol\":5561:5600  hour < 24 && minute < 60 && second < 60 */\n    tag_182:\n        /* \"https://github.com/bokkypoobah/BokkyPooBahsDateTimeLibrary/blob/1ea8ef42b3d8db17b910b46e4f8c124b59d77c03/contracts/BokkyPooBahsDateTimeLibrary.sol\":5557:5647  if (hour < 24 && minute < 60 && second < 60) {... */\n      iszero\n      tag_183\n      jumpi\n        /* \"https://github.com/bokkypoobah/BokkyPooBahsDateTimeLibrary/blob/1ea8ef42b3d8db17b910b46e4f8c124b59d77c03/contracts/BokkyPooBahsDateTimeLibrary.sol\":5628:5632  true */\n      0x1\n        /* \"https://github.com/bokkypoobah/BokkyPooBahsDateTimeLibrary/blob/1ea8ef42b3d8db17b910b46e4f8c124b59d77c03/contracts/BokkyPooBahsDateTimeLibrary.sol\":5620:5632  valid = true */\n      swap1\n      pop\n        /* \"https://github.com/bokkypoobah/BokkyPooBahsDateTimeLibrary/blob/1ea8ef42b3d8db17b910b46e4f8c124b59d77c03/contracts/BokkyPooBahsDateTimeLibrary.sol\":5557:5647  if (hour < 24 && minute < 60 && second < 60) {... */\n    tag_183:\n        /* \"https://github.com/bokkypoobah/BokkyPooBahsDateTimeLibrary/blob/1ea8ef42b3d8db17b910b46e4f8c124b59d77c03/contracts/BokkyPooBahsDateTimeLibrary.sol\":5508:5657  if (isValidDate(year, month, day)) {... */\n    tag_180:\n        /* \"https://github.com/bokkypoobah/BokkyPooBahsDateTimeLibrary/blob/1ea8ef42b3d8db17b910b46e4f8c124b59d77c03/contracts/BokkyPooBahsDateTimeLibrary.sol\":5368:5663  function isValidDateTime(uint year, uint month, uint day, uint hour, uint minute, uint second) internal pure returns (bool valid) {... */\n      swap7\n      swap6\n      pop\n      pop\n      pop\n      pop\n      pop\n      pop\n      jump\t// out\n        /* \"https://github.com/bokkypoobah/BokkyPooBahsDateTimeLibrary/blob/1ea8ef42b3d8db17b910b46e4f8c124b59d77c03/contracts/BokkyPooBahsDateTimeLibrary.sol\":3958:4135  function timestampFromDate(uint year, uint month, uint day) internal pure returns (uint timestamp) {... */\n    tag_132:\n        /* \"https://github.com/bokkypoobah/BokkyPooBahsDateTimeLibrary/blob/1ea8ef42b3d8db17b910b46e4f8c124b59d77c03/contracts/BokkyPooBahsDateTimeLibrary.sol\":4041:4055  uint timestamp */\n      0x0\n        /* \"https://github.com/bokkypoobah/BokkyPooBahsDateTimeLibrary/blob/1ea8ef42b3d8db17b910b46e4f8c124b59d77c03/contracts/BokkyPooBahsDateTimeLibrary.sol\":1058:1070  24 * 60 * 60 */\n      0x15180\n        /* \"https://github.com/bokkypoobah/BokkyPooBahsDateTimeLibrary/blob/1ea8ef42b3d8db17b910b46e4f8c124b59d77c03/contracts/BokkyPooBahsDateTimeLibrary.sol\":4079:4110  _daysFromDate(year, month, day) */\n      tag_185\n        /* \"https://github.com/bokkypoobah/BokkyPooBahsDateTimeLibrary/blob/1ea8ef42b3d8db17b910b46e4f8c124b59d77c03/contracts/BokkyPooBahsDateTimeLibrary.sol\":4093:4097  year */\n      dup6\n        /* \"https://github.com/bokkypoobah/BokkyPooBahsDateTimeLibrary/blob/1ea8ef42b3d8db17b910b46e4f8c124b59d77c03/contracts/BokkyPooBahsDateTimeLibrary.sol\":4099:4104  month */\n      dup6\n        /* \"https://github.com/bokkypoobah/BokkyPooBahsDateTimeLibrary/blob/1ea8ef42b3d8db17b910b46e4f8c124b59d77c03/contracts/BokkyPooBahsDateTimeLibrary.sol\":4106:4109  day */\n      dup6\n        /* \"https://github.com/bokkypoobah/BokkyPooBahsDateTimeLibrary/blob/1ea8ef42b3d8db17b910b46e4f8c124b59d77c03/contracts/BokkyPooBahsDateTimeLibrary.sol\":4079:4092  _daysFromDate */\n      tag_186\n        /* \"https://github.com/bokkypoobah/BokkyPooBahsDateTimeLibrary/blob/1ea8ef42b3d8db17b910b46e4f8c124b59d77c03/contracts/BokkyPooBahsDateTimeLibrary.sol\":4079:4110  _daysFromDate(year, month, day) */\n      jump\t// in\n    tag_185:\n        /* \"https://github.com/bokkypoobah/BokkyPooBahsDateTimeLibrary/blob/1ea8ef42b3d8db17b910b46e4f8c124b59d77c03/contracts/BokkyPooBahsDateTimeLibrary.sol\":4079:4128  _daysFromDate(year, month, day) * SECONDS_PER_DAY */\n      mul\n        /* \"https://github.com/bokkypoobah/BokkyPooBahsDateTimeLibrary/blob/1ea8ef42b3d8db17b910b46e4f8c124b59d77c03/contracts/BokkyPooBahsDateTimeLibrary.sol\":4067:4128  timestamp = _daysFromDate(year, month, day) * SECONDS_PER_DAY */\n      swap1\n      pop\n        /* \"https://github.com/bokkypoobah/BokkyPooBahsDateTimeLibrary/blob/1ea8ef42b3d8db17b910b46e4f8c124b59d77c03/contracts/BokkyPooBahsDateTimeLibrary.sol\":3958:4135  function timestampFromDate(uint year, uint month, uint day) internal pure returns (uint timestamp) {... */\n      swap4\n      swap3\n      pop\n      pop\n      pop\n      jump\t// out\n        /* \"https://github.com/bokkypoobah/BokkyPooBahsDateTimeLibrary/blob/1ea8ef42b3d8db17b910b46e4f8c124b59d77c03/contracts/BokkyPooBahsDateTimeLibrary.sol\":5047:5363  function isValidDate(uint year, uint month, uint day) internal pure returns (bool valid) {... */\n    tag_179:\n        /* \"https://github.com/bokkypoobah/BokkyPooBahsDateTimeLibrary/blob/1ea8ef42b3d8db17b910b46e4f8c124b59d77c03/contracts/BokkyPooBahsDateTimeLibrary.sol\":5124:5134  bool valid */\n      0x0\n        /* \"https://github.com/bokkypoobah/BokkyPooBahsDateTimeLibrary/blob/1ea8ef42b3d8db17b910b46e4f8c124b59d77c03/contracts/BokkyPooBahsDateTimeLibrary.sol\":5206:5222  uint daysInMonth */\n      dup1\n        /* \"https://github.com/bokkypoobah/BokkyPooBahsDateTimeLibrary/blob/1ea8ef42b3d8db17b910b46e4f8c124b59d77c03/contracts/BokkyPooBahsDateTimeLibrary.sol\":5158:5162  1970 */\n      0x7b2\n        /* \"https://github.com/bokkypoobah/BokkyPooBahsDateTimeLibrary/blob/1ea8ef42b3d8db17b910b46e4f8c124b59d77c03/contracts/BokkyPooBahsDateTimeLibrary.sol\":5150:5154  year */\n      dup6\n        /* \"https://github.com/bokkypoobah/BokkyPooBahsDateTimeLibrary/blob/1ea8ef42b3d8db17b910b46e4f8c124b59d77c03/contracts/BokkyPooBahsDateTimeLibrary.sol\":5150:5162  year >= 1970 */\n      lt\n      iszero\n        /* \"https://github.com/bokkypoobah/BokkyPooBahsDateTimeLibrary/blob/1ea8ef42b3d8db17b910b46e4f8c124b59d77c03/contracts/BokkyPooBahsDateTimeLibrary.sol\":5150:5175  year >= 1970 && month > 0 */\n      dup1\n      iszero\n      tag_188\n      jumpi\n      pop\n        /* \"https://github.com/bokkypoobah/BokkyPooBahsDateTimeLibrary/blob/1ea8ef42b3d8db17b910b46e4f8c124b59d77c03/contracts/BokkyPooBahsDateTimeLibrary.sol\":5174:5175  0 */\n      0x0\n        /* \"https://github.com/bokkypoobah/BokkyPooBahsDateTimeLibrary/blob/1ea8ef42b3d8db17b910b46e4f8c124b59d77c03/contracts/BokkyPooBahsDateTimeLibrary.sol\":5166:5171  month */\n      dup5\n        /* \"https://github.com/bokkypoobah/BokkyPooBahsDateTimeLibrary/blob/1ea8ef42b3d8db17b910b46e4f8c124b59d77c03/contracts/BokkyPooBahsDateTimeLibrary.sol\":5166:5175  month > 0 */\n      gt\n        /* \"https://github.com/bokkypoobah/BokkyPooBahsDateTimeLibrary/blob/1ea8ef42b3d8db17b910b46e4f8c124b59d77c03/contracts/BokkyPooBahsDateTimeLibrary.sol\":5150:5175  year >= 1970 && month > 0 */\n    tag_188:\n        /* \"https://github.com/bokkypoobah/BokkyPooBahsDateTimeLibrary/blob/1ea8ef42b3d8db17b910b46e4f8c124b59d77c03/contracts/BokkyPooBahsDateTimeLibrary.sol\":5150:5190  year >= 1970 && month > 0 && month <= 12 */\n      dup1\n      iszero\n      tag_189\n      jumpi\n      pop\n        /* \"https://github.com/bokkypoobah/BokkyPooBahsDateTimeLibrary/blob/1ea8ef42b3d8db17b910b46e4f8c124b59d77c03/contracts/BokkyPooBahsDateTimeLibrary.sol\":5188:5190  12 */\n      0xc\n        /* \"https://github.com/bokkypoobah/BokkyPooBahsDateTimeLibrary/blob/1ea8ef42b3d8db17b910b46e4f8c124b59d77c03/contracts/BokkyPooBahsDateTimeLibrary.sol\":5179:5184  month */\n      dup5\n        /* \"https://github.com/bokkypoobah/BokkyPooBahsDateTimeLibrary/blob/1ea8ef42b3d8db17b910b46e4f8c124b59d77c03/contracts/BokkyPooBahsDateTimeLibrary.sol\":5179:5190  month <= 12 */\n      gt\n      iszero\n        /* \"https://github.com/bokkypoobah/BokkyPooBahsDateTimeLibrary/blob/1ea8ef42b3d8db17b910b46e4f8c124b59d77c03/contracts/BokkyPooBahsDateTimeLibrary.sol\":5150:5190  year >= 1970 && month > 0 && month <= 12 */\n    tag_189:\n        /* \"https://github.com/bokkypoobah/BokkyPooBahsDateTimeLibrary/blob/1ea8ef42b3d8db17b910b46e4f8c124b59d77c03/contracts/BokkyPooBahsDateTimeLibrary.sol\":5146:5357  if (year >= 1970 && month > 0 && month <= 12) {... */\n      iszero\n      tag_190\n      jumpi\n        /* \"https://github.com/bokkypoobah/BokkyPooBahsDateTimeLibrary/blob/1ea8ef42b3d8db17b910b46e4f8c124b59d77c03/contracts/BokkyPooBahsDateTimeLibrary.sol\":5225:5253  _getDaysInMonth(year, month) */\n      tag_191\n        /* \"https://github.com/bokkypoobah/BokkyPooBahsDateTimeLibrary/blob/1ea8ef42b3d8db17b910b46e4f8c124b59d77c03/contracts/BokkyPooBahsDateTimeLibrary.sol\":5241:5245  year */\n      dup6\n        /* \"https://github.com/bokkypoobah/BokkyPooBahsDateTimeLibrary/blob/1ea8ef42b3d8db17b910b46e4f8c124b59d77c03/contracts/BokkyPooBahsDateTimeLibrary.sol\":5247:5252  month */\n      dup6\n        /* \"https://github.com/bokkypoobah/BokkyPooBahsDateTimeLibrary/blob/1ea8ef42b3d8db17b910b46e4f8c124b59d77c03/contracts/BokkyPooBahsDateTimeLibrary.sol\":5225:5240  _getDaysInMonth */\n      tag_192\n        /* \"https://github.com/bokkypoobah/BokkyPooBahsDateTimeLibrary/blob/1ea8ef42b3d8db17b910b46e4f8c124b59d77c03/contracts/BokkyPooBahsDateTimeLibrary.sol\":5225:5253  _getDaysInMonth(year, month) */\n      jump\t// in\n    tag_191:\n        /* \"https://github.com/bokkypoobah/BokkyPooBahsDateTimeLibrary/blob/1ea8ef42b3d8db17b910b46e4f8c124b59d77c03/contracts/BokkyPooBahsDateTimeLibrary.sol\":5206:5253  uint daysInMonth = _getDaysInMonth(year, month) */\n      swap1\n      pop\n        /* \"https://github.com/bokkypoobah/BokkyPooBahsDateTimeLibrary/blob/1ea8ef42b3d8db17b910b46e4f8c124b59d77c03/contracts/BokkyPooBahsDateTimeLibrary.sol\":5277:5278  0 */\n      0x0\n        /* \"https://github.com/bokkypoobah/BokkyPooBahsDateTimeLibrary/blob/1ea8ef42b3d8db17b910b46e4f8c124b59d77c03/contracts/BokkyPooBahsDateTimeLibrary.sol\":5271:5274  day */\n      dup4\n        /* \"https://github.com/bokkypoobah/BokkyPooBahsDateTimeLibrary/blob/1ea8ef42b3d8db17b910b46e4f8c124b59d77c03/contracts/BokkyPooBahsDateTimeLibrary.sol\":5271:5278  day > 0 */\n      gt\n        /* \"https://github.com/bokkypoobah/BokkyPooBahsDateTimeLibrary/blob/1ea8ef42b3d8db17b910b46e4f8c124b59d77c03/contracts/BokkyPooBahsDateTimeLibrary.sol\":5271:5300  day > 0 && day <= daysInMonth */\n      dup1\n      iszero\n      tag_193\n      jumpi\n      pop\n        /* \"https://github.com/bokkypoobah/BokkyPooBahsDateTimeLibrary/blob/1ea8ef42b3d8db17b910b46e4f8c124b59d77c03/contracts/BokkyPooBahsDateTimeLibrary.sol\":5289:5300  daysInMonth */\n      dup1\n        /* \"https://github.com/bokkypoobah/BokkyPooBahsDateTimeLibrary/blob/1ea8ef42b3d8db17b910b46e4f8c124b59d77c03/contracts/BokkyPooBahsDateTimeLibrary.sol\":5282:5285  day */\n      dup4\n        /* \"https://github.com/bokkypoobah/BokkyPooBahsDateTimeLibrary/blob/1ea8ef42b3d8db17b910b46e4f8c124b59d77c03/contracts/BokkyPooBahsDateTimeLibrary.sol\":5282:5300  day <= daysInMonth */\n      gt\n      iszero\n        /* \"https://github.com/bokkypoobah/BokkyPooBahsDateTimeLibrary/blob/1ea8ef42b3d8db17b910b46e4f8c124b59d77c03/contracts/BokkyPooBahsDateTimeLibrary.sol\":5271:5300  day > 0 && day <= daysInMonth */\n    tag_193:\n        /* \"https://github.com/bokkypoobah/BokkyPooBahsDateTimeLibrary/blob/1ea8ef42b3d8db17b910b46e4f8c124b59d77c03/contracts/BokkyPooBahsDateTimeLibrary.sol\":5267:5347  if (day > 0 && day <= daysInMonth) {... */\n      iszero\n      tag_194\n      jumpi\n        /* \"https://github.com/bokkypoobah/BokkyPooBahsDateTimeLibrary/blob/1ea8ef42b3d8db17b910b46e4f8c124b59d77c03/contracts/BokkyPooBahsDateTimeLibrary.sol\":5328:5332  true */\n      0x1\n        /* \"https://github.com/bokkypoobah/BokkyPooBahsDateTimeLibrary/blob/1ea8ef42b3d8db17b910b46e4f8c124b59d77c03/contracts/BokkyPooBahsDateTimeLibrary.sol\":5320:5332  valid = true */\n      swap2\n      pop\n        /* \"https://github.com/bokkypoobah/BokkyPooBahsDateTimeLibrary/blob/1ea8ef42b3d8db17b910b46e4f8c124b59d77c03/contracts/BokkyPooBahsDateTimeLibrary.sol\":5267:5347  if (day > 0 && day <= daysInMonth) {... */\n    tag_194:\n        /* \"https://github.com/bokkypoobah/BokkyPooBahsDateTimeLibrary/blob/1ea8ef42b3d8db17b910b46e4f8c124b59d77c03/contracts/BokkyPooBahsDateTimeLibrary.sol\":5146:5357  if (year >= 1970 && month > 0 && month <= 12) {... */\n    tag_190:\n        /* \"https://github.com/bokkypoobah/BokkyPooBahsDateTimeLibrary/blob/1ea8ef42b3d8db17b910b46e4f8c124b59d77c03/contracts/BokkyPooBahsDateTimeLibrary.sol\":5047:5363  function isValidDate(uint year, uint month, uint day) internal pure returns (bool valid) {... */\n      pop\n      swap4\n      swap3\n      pop\n      pop\n      pop\n      jump\t// out\n        /* \"https://github.com/bokkypoobah/BokkyPooBahsDateTimeLibrary/blob/1ea8ef42b3d8db17b910b46e4f8c124b59d77c03/contracts/BokkyPooBahsDateTimeLibrary.sol\":2083:2594  function _daysFromDate(uint year, uint month, uint day) internal pure returns (uint _days) {... */\n    tag_186:\n        /* \"https://github.com/bokkypoobah/BokkyPooBahsDateTimeLibrary/blob/1ea8ef42b3d8db17b910b46e4f8c124b59d77c03/contracts/BokkyPooBahsDateTimeLibrary.sol\":2162:2172  uint _days */\n      0x0\n        /* \"https://github.com/bokkypoobah/BokkyPooBahsDateTimeLibrary/blob/1ea8ef42b3d8db17b910b46e4f8c124b59d77c03/contracts/BokkyPooBahsDateTimeLibrary.sol\":2215:2224  int _year */\n      dup1\n        /* \"https://github.com/bokkypoobah/BokkyPooBahsDateTimeLibrary/blob/1ea8ef42b3d8db17b910b46e4f8c124b59d77c03/contracts/BokkyPooBahsDateTimeLibrary.sol\":2246:2256  int _month */\n      0x0\n        /* \"https://github.com/bokkypoobah/BokkyPooBahsDateTimeLibrary/blob/1ea8ef42b3d8db17b910b46e4f8c124b59d77c03/contracts/BokkyPooBahsDateTimeLibrary.sol\":2279:2287  int _day */\n      dup1\n        /* \"https://github.com/bokkypoobah/BokkyPooBahsDateTimeLibrary/blob/1ea8ef42b3d8db17b910b46e4f8c124b59d77c03/contracts/BokkyPooBahsDateTimeLibrary.sol\":2309:2319  int __days */\n      0x0\n        /* \"https://github.com/bokkypoobah/BokkyPooBahsDateTimeLibrary/blob/1ea8ef42b3d8db17b910b46e4f8c124b59d77c03/contracts/BokkyPooBahsDateTimeLibrary.sol\":2200:2204  1970 */\n      0x7b2\n        /* \"https://github.com/bokkypoobah/BokkyPooBahsDateTimeLibrary/blob/1ea8ef42b3d8db17b910b46e4f8c124b59d77c03/contracts/BokkyPooBahsDateTimeLibrary.sol\":2192:2196  year */\n      dup9\n        /* \"https://github.com/bokkypoobah/BokkyPooBahsDateTimeLibrary/blob/1ea8ef42b3d8db17b910b46e4f8c124b59d77c03/contracts/BokkyPooBahsDateTimeLibrary.sol\":2192:2204  year >= 1970 */\n      lt\n      iszero\n        /* \"https://github.com/bokkypoobah/BokkyPooBahsDateTimeLibrary/blob/1ea8ef42b3d8db17b910b46e4f8c124b59d77c03/contracts/BokkyPooBahsDateTimeLibrary.sol\":2184:2205  require(year >= 1970) */\n      iszero\n      iszero\n      tag_196\n      jumpi\n      0x0\n      dup1\n      revert\n    tag_196:\n        /* \"https://github.com/bokkypoobah/BokkyPooBahsDateTimeLibrary/blob/1ea8ef42b3d8db17b910b46e4f8c124b59d77c03/contracts/BokkyPooBahsDateTimeLibrary.sol\":2231:2235  year */\n      dup8\n        /* \"https://github.com/bokkypoobah/BokkyPooBahsDateTimeLibrary/blob/1ea8ef42b3d8db17b910b46e4f8c124b59d77c03/contracts/BokkyPooBahsDateTimeLibrary.sol\":2215:2236  int _year = int(year) */\n      swap4\n      pop\n        /* \"https://github.com/bokkypoobah/BokkyPooBahsDateTimeLibrary/blob/1ea8ef42b3d8db17b910b46e4f8c124b59d77c03/contracts/BokkyPooBahsDateTimeLibrary.sol\":2263:2268  month */\n      dup7\n        /* \"https://github.com/bokkypoobah/BokkyPooBahsDateTimeLibrary/blob/1ea8ef42b3d8db17b910b46e4f8c124b59d77c03/contracts/BokkyPooBahsDateTimeLibrary.sol\":2246:2269  int _month = int(month) */\n      swap3\n      pop\n        /* \"https://github.com/bokkypoobah/BokkyPooBahsDateTimeLibrary/blob/1ea8ef42b3d8db17b910b46e4f8c124b59d77c03/contracts/BokkyPooBahsDateTimeLibrary.sol\":2294:2297  day */\n      dup6\n        /* \"https://github.com/bokkypoobah/BokkyPooBahsDateTimeLibrary/blob/1ea8ef42b3d8db17b910b46e4f8c124b59d77c03/contracts/BokkyPooBahsDateTimeLibrary.sol\":2279:2298  int _day = int(day) */\n      swap2\n      pop\n        /* \"https://github.com/bokkypoobah/BokkyPooBahsDateTimeLibrary/blob/1ea8ef42b3d8db17b910b46e4f8c124b59d77c03/contracts/BokkyPooBahsDateTimeLibrary.sol\":1195:1202  2440588 */\n      0x253d8c\n        /* \"https://github.com/bokkypoobah/BokkyPooBahsDateTimeLibrary/blob/1ea8ef42b3d8db17b910b46e4f8c124b59d77c03/contracts/BokkyPooBahsDateTimeLibrary.sol\":2528:2529  4 */\n      0x4\n        /* \"https://github.com/bokkypoobah/BokkyPooBahsDateTimeLibrary/blob/1ea8ef42b3d8db17b910b46e4f8c124b59d77c03/contracts/BokkyPooBahsDateTimeLibrary.sol\":2521:2524  100 */\n      0x64\n        /* \"https://github.com/bokkypoobah/BokkyPooBahsDateTimeLibrary/blob/1ea8ef42b3d8db17b910b46e4f8c124b59d77c03/contracts/BokkyPooBahsDateTimeLibrary.sol\":2515:2517  12 */\n      0xc\n        /* \"https://github.com/bokkypoobah/BokkyPooBahsDateTimeLibrary/blob/1ea8ef42b3d8db17b910b46e4f8c124b59d77c03/contracts/BokkyPooBahsDateTimeLibrary.sol\":2509:2511  14 */\n      0xe\n        /* \"https://github.com/bokkypoobah/BokkyPooBahsDateTimeLibrary/blob/1ea8ef42b3d8db17b910b46e4f8c124b59d77c03/contracts/BokkyPooBahsDateTimeLibrary.sol\":2500:2506  _month */\n      dup8\n        /* \"https://github.com/bokkypoobah/BokkyPooBahsDateTimeLibrary/blob/1ea8ef42b3d8db17b910b46e4f8c124b59d77c03/contracts/BokkyPooBahsDateTimeLibrary.sol\":2500:2511  _month - 14 */\n      sub\n        /* \"https://github.com/bokkypoobah/BokkyPooBahsDateTimeLibrary/blob/1ea8ef42b3d8db17b910b46e4f8c124b59d77c03/contracts/BokkyPooBahsDateTimeLibrary.sol\":2499:2517  (_month - 14) / 12 */\n      dup2\n      iszero\n      iszero\n      tag_197\n      jumpi\n      invalid\n    tag_197:\n      sdiv\n        /* \"https://github.com/bokkypoobah/BokkyPooBahsDateTimeLibrary/blob/1ea8ef42b3d8db17b910b46e4f8c124b59d77c03/contracts/BokkyPooBahsDateTimeLibrary.sol\":2492:2496  4900 */\n      0x1324\n        /* \"https://github.com/bokkypoobah/BokkyPooBahsDateTimeLibrary/blob/1ea8ef42b3d8db17b910b46e4f8c124b59d77c03/contracts/BokkyPooBahsDateTimeLibrary.sol\":2484:2489  _year */\n      dup9\n        /* \"https://github.com/bokkypoobah/BokkyPooBahsDateTimeLibrary/blob/1ea8ef42b3d8db17b910b46e4f8c124b59d77c03/contracts/BokkyPooBahsDateTimeLibrary.sol\":2484:2496  _year + 4900 */\n      add\n        /* \"https://github.com/bokkypoobah/BokkyPooBahsDateTimeLibrary/blob/1ea8ef42b3d8db17b910b46e4f8c124b59d77c03/contracts/BokkyPooBahsDateTimeLibrary.sol\":2484:2517  _year + 4900 + (_month - 14) / 12 */\n      add\n        /* \"https://github.com/bokkypoobah/BokkyPooBahsDateTimeLibrary/blob/1ea8ef42b3d8db17b910b46e4f8c124b59d77c03/contracts/BokkyPooBahsDateTimeLibrary.sol\":2483:2524  (_year + 4900 + (_month - 14) / 12) / 100 */\n      dup2\n      iszero\n      iszero\n      tag_198\n      jumpi\n      invalid\n    tag_198:\n      sdiv\n        /* \"https://github.com/bokkypoobah/BokkyPooBahsDateTimeLibrary/blob/1ea8ef42b3d8db17b910b46e4f8c124b59d77c03/contracts/BokkyPooBahsDateTimeLibrary.sol\":2478:2479  3 */\n      0x3\n        /* \"https://github.com/bokkypoobah/BokkyPooBahsDateTimeLibrary/blob/1ea8ef42b3d8db17b910b46e4f8c124b59d77c03/contracts/BokkyPooBahsDateTimeLibrary.sol\":2478:2525  3 * ((_year + 4900 + (_month - 14) / 12) / 100) */\n      mul\n        /* \"https://github.com/bokkypoobah/BokkyPooBahsDateTimeLibrary/blob/1ea8ef42b3d8db17b910b46e4f8c124b59d77c03/contracts/BokkyPooBahsDateTimeLibrary.sol\":2478:2529  3 * ((_year + 4900 + (_month - 14) / 12) / 100) / 4 */\n      dup2\n      iszero\n      iszero\n      tag_199\n      jumpi\n      invalid\n    tag_199:\n      sdiv\n        /* \"https://github.com/bokkypoobah/BokkyPooBahsDateTimeLibrary/blob/1ea8ef42b3d8db17b910b46e4f8c124b59d77c03/contracts/BokkyPooBahsDateTimeLibrary.sol\":2463:2465  12 */\n      0xc\n        /* \"https://github.com/bokkypoobah/BokkyPooBahsDateTimeLibrary/blob/1ea8ef42b3d8db17b910b46e4f8c124b59d77c03/contracts/BokkyPooBahsDateTimeLibrary.sol\":2457:2459  12 */\n      dup1\n        /* \"https://github.com/bokkypoobah/BokkyPooBahsDateTimeLibrary/blob/1ea8ef42b3d8db17b910b46e4f8c124b59d77c03/contracts/BokkyPooBahsDateTimeLibrary.sol\":2452:2454  12 */\n      0xc\n        /* \"https://github.com/bokkypoobah/BokkyPooBahsDateTimeLibrary/blob/1ea8ef42b3d8db17b910b46e4f8c124b59d77c03/contracts/BokkyPooBahsDateTimeLibrary.sol\":2446:2448  14 */\n      0xe\n        /* \"https://github.com/bokkypoobah/BokkyPooBahsDateTimeLibrary/blob/1ea8ef42b3d8db17b910b46e4f8c124b59d77c03/contracts/BokkyPooBahsDateTimeLibrary.sol\":2437:2443  _month */\n      dup9\n        /* \"https://github.com/bokkypoobah/BokkyPooBahsDateTimeLibrary/blob/1ea8ef42b3d8db17b910b46e4f8c124b59d77c03/contracts/BokkyPooBahsDateTimeLibrary.sol\":2437:2448  _month - 14 */\n      sub\n        /* \"https://github.com/bokkypoobah/BokkyPooBahsDateTimeLibrary/blob/1ea8ef42b3d8db17b910b46e4f8c124b59d77c03/contracts/BokkyPooBahsDateTimeLibrary.sol\":2436:2454  (_month - 14) / 12 */\n      dup2\n      iszero\n      iszero\n      tag_200\n      jumpi\n      invalid\n    tag_200:\n      sdiv\n        /* \"https://github.com/bokkypoobah/BokkyPooBahsDateTimeLibrary/blob/1ea8ef42b3d8db17b910b46e4f8c124b59d77c03/contracts/BokkyPooBahsDateTimeLibrary.sol\":2436:2459  (_month - 14) / 12 * 12 */\n      mul\n        /* \"https://github.com/bokkypoobah/BokkyPooBahsDateTimeLibrary/blob/1ea8ef42b3d8db17b910b46e4f8c124b59d77c03/contracts/BokkyPooBahsDateTimeLibrary.sol\":2432:2433  2 */\n      0x2\n        /* \"https://github.com/bokkypoobah/BokkyPooBahsDateTimeLibrary/blob/1ea8ef42b3d8db17b910b46e4f8c124b59d77c03/contracts/BokkyPooBahsDateTimeLibrary.sol\":2423:2429  _month */\n      dup8\n        /* \"https://github.com/bokkypoobah/BokkyPooBahsDateTimeLibrary/blob/1ea8ef42b3d8db17b910b46e4f8c124b59d77c03/contracts/BokkyPooBahsDateTimeLibrary.sol\":2423:2433  _month - 2 */\n      sub\n        /* \"https://github.com/bokkypoobah/BokkyPooBahsDateTimeLibrary/blob/1ea8ef42b3d8db17b910b46e4f8c124b59d77c03/contracts/BokkyPooBahsDateTimeLibrary.sol\":2423:2459  _month - 2 - (_month - 14) / 12 * 12 */\n      sub\n        /* \"https://github.com/bokkypoobah/BokkyPooBahsDateTimeLibrary/blob/1ea8ef42b3d8db17b910b46e4f8c124b59d77c03/contracts/BokkyPooBahsDateTimeLibrary.sol\":2416:2419  367 */\n      0x16f\n        /* \"https://github.com/bokkypoobah/BokkyPooBahsDateTimeLibrary/blob/1ea8ef42b3d8db17b910b46e4f8c124b59d77c03/contracts/BokkyPooBahsDateTimeLibrary.sol\":2416:2460  367 * (_month - 2 - (_month - 14) / 12 * 12) */\n      mul\n        /* \"https://github.com/bokkypoobah/BokkyPooBahsDateTimeLibrary/blob/1ea8ef42b3d8db17b910b46e4f8c124b59d77c03/contracts/BokkyPooBahsDateTimeLibrary.sol\":2416:2465  367 * (_month - 2 - (_month - 14) / 12 * 12) / 12 */\n      dup2\n      iszero\n      iszero\n      tag_201\n      jumpi\n      invalid\n    tag_201:\n      sdiv\n        /* \"https://github.com/bokkypoobah/BokkyPooBahsDateTimeLibrary/blob/1ea8ef42b3d8db17b910b46e4f8c124b59d77c03/contracts/BokkyPooBahsDateTimeLibrary.sol\":2402:2403  4 */\n      0x4\n        /* \"https://github.com/bokkypoobah/BokkyPooBahsDateTimeLibrary/blob/1ea8ef42b3d8db17b910b46e4f8c124b59d77c03/contracts/BokkyPooBahsDateTimeLibrary.sol\":2396:2398  12 */\n      0xc\n        /* \"https://github.com/bokkypoobah/BokkyPooBahsDateTimeLibrary/blob/1ea8ef42b3d8db17b910b46e4f8c124b59d77c03/contracts/BokkyPooBahsDateTimeLibrary.sol\":2390:2392  14 */\n      0xe\n        /* \"https://github.com/bokkypoobah/BokkyPooBahsDateTimeLibrary/blob/1ea8ef42b3d8db17b910b46e4f8c124b59d77c03/contracts/BokkyPooBahsDateTimeLibrary.sol\":2381:2387  _month */\n      dup9\n        /* \"https://github.com/bokkypoobah/BokkyPooBahsDateTimeLibrary/blob/1ea8ef42b3d8db17b910b46e4f8c124b59d77c03/contracts/BokkyPooBahsDateTimeLibrary.sol\":2381:2392  _month - 14 */\n      sub\n        /* \"https://github.com/bokkypoobah/BokkyPooBahsDateTimeLibrary/blob/1ea8ef42b3d8db17b910b46e4f8c124b59d77c03/contracts/BokkyPooBahsDateTimeLibrary.sol\":2380:2398  (_month - 14) / 12 */\n      dup2\n      iszero\n      iszero\n      tag_202\n      jumpi\n      invalid\n    tag_202:\n      sdiv\n        /* \"https://github.com/bokkypoobah/BokkyPooBahsDateTimeLibrary/blob/1ea8ef42b3d8db17b910b46e4f8c124b59d77c03/contracts/BokkyPooBahsDateTimeLibrary.sol\":2373:2377  4800 */\n      0x12c0\n        /* \"https://github.com/bokkypoobah/BokkyPooBahsDateTimeLibrary/blob/1ea8ef42b3d8db17b910b46e4f8c124b59d77c03/contracts/BokkyPooBahsDateTimeLibrary.sol\":2365:2370  _year */\n      dup10\n        /* \"https://github.com/bokkypoobah/BokkyPooBahsDateTimeLibrary/blob/1ea8ef42b3d8db17b910b46e4f8c124b59d77c03/contracts/BokkyPooBahsDateTimeLibrary.sol\":2365:2377  _year + 4800 */\n      add\n        /* \"https://github.com/bokkypoobah/BokkyPooBahsDateTimeLibrary/blob/1ea8ef42b3d8db17b910b46e4f8c124b59d77c03/contracts/BokkyPooBahsDateTimeLibrary.sol\":2365:2398  _year + 4800 + (_month - 14) / 12 */\n      add\n        /* \"https://github.com/bokkypoobah/BokkyPooBahsDateTimeLibrary/blob/1ea8ef42b3d8db17b910b46e4f8c124b59d77c03/contracts/BokkyPooBahsDateTimeLibrary.sol\":2357:2361  1461 */\n      0x5b5\n        /* \"https://github.com/bokkypoobah/BokkyPooBahsDateTimeLibrary/blob/1ea8ef42b3d8db17b910b46e4f8c124b59d77c03/contracts/BokkyPooBahsDateTimeLibrary.sol\":2357:2399  1461 * (_year + 4800 + (_month - 14) / 12) */\n      mul\n        /* \"https://github.com/bokkypoobah/BokkyPooBahsDateTimeLibrary/blob/1ea8ef42b3d8db17b910b46e4f8c124b59d77c03/contracts/BokkyPooBahsDateTimeLibrary.sol\":2357:2403  1461 * (_year + 4800 + (_month - 14) / 12) / 4 */\n      dup2\n      iszero\n      iszero\n      tag_203\n      jumpi\n      invalid\n    tag_203:\n      sdiv\n        /* \"https://github.com/bokkypoobah/BokkyPooBahsDateTimeLibrary/blob/1ea8ef42b3d8db17b910b46e4f8c124b59d77c03/contracts/BokkyPooBahsDateTimeLibrary.sol\":2339:2344  32075 */\n      0x7d4b\n        /* \"https://github.com/bokkypoobah/BokkyPooBahsDateTimeLibrary/blob/1ea8ef42b3d8db17b910b46e4f8c124b59d77c03/contracts/BokkyPooBahsDateTimeLibrary.sol\":2322:2326  _day */\n      dup7\n        /* \"https://github.com/bokkypoobah/BokkyPooBahsDateTimeLibrary/blob/1ea8ef42b3d8db17b910b46e4f8c124b59d77c03/contracts/BokkyPooBahsDateTimeLibrary.sol\":2322:2344  _day... */\n      sub\n        /* \"https://github.com/bokkypoobah/BokkyPooBahsDateTimeLibrary/blob/1ea8ef42b3d8db17b910b46e4f8c124b59d77c03/contracts/BokkyPooBahsDateTimeLibrary.sol\":2322:2403  _day... */\n      add\n        /* \"https://github.com/bokkypoobah/BokkyPooBahsDateTimeLibrary/blob/1ea8ef42b3d8db17b910b46e4f8c124b59d77c03/contracts/BokkyPooBahsDateTimeLibrary.sol\":2322:2465  _day... */\n      add\n        /* \"https://github.com/bokkypoobah/BokkyPooBahsDateTimeLibrary/blob/1ea8ef42b3d8db17b910b46e4f8c124b59d77c03/contracts/BokkyPooBahsDateTimeLibrary.sol\":2322:2529  _day... */\n      sub\n        /* \"https://github.com/bokkypoobah/BokkyPooBahsDateTimeLibrary/blob/1ea8ef42b3d8db17b910b46e4f8c124b59d77c03/contracts/BokkyPooBahsDateTimeLibrary.sol\":2322:2556  _day... */\n      sub\n        /* \"https://github.com/bokkypoobah/BokkyPooBahsDateTimeLibrary/blob/1ea8ef42b3d8db17b910b46e4f8c124b59d77c03/contracts/BokkyPooBahsDateTimeLibrary.sol\":2309:2556  int __days = _day... */\n      swap1\n      pop\n        /* \"https://github.com/bokkypoobah/BokkyPooBahsDateTimeLibrary/blob/1ea8ef42b3d8db17b910b46e4f8c124b59d77c03/contracts/BokkyPooBahsDateTimeLibrary.sol\":2580:2586  __days */\n      dup1\n        /* \"https://github.com/bokkypoobah/BokkyPooBahsDateTimeLibrary/blob/1ea8ef42b3d8db17b910b46e4f8c124b59d77c03/contracts/BokkyPooBahsDateTimeLibrary.sol\":2567:2587  _days = uint(__days) */\n      swap5\n      pop\n        /* \"https://github.com/bokkypoobah/BokkyPooBahsDateTimeLibrary/blob/1ea8ef42b3d8db17b910b46e4f8c124b59d77c03/contracts/BokkyPooBahsDateTimeLibrary.sol\":2083:2594  function _daysFromDate(uint year, uint month, uint day) internal pure returns (uint _days) {... */\n      pop\n      pop\n      pop\n      pop\n      swap4\n      swap3\n      pop\n      pop\n      pop\n      jump\t// out\n        /* \"https://github.com/bokkypoobah/BokkyPooBahsDateTimeLibrary/blob/1ea8ef42b3d8db17b910b46e4f8c124b59d77c03/contracts/BokkyPooBahsDateTimeLibrary.sol\":6631:7014  function _getDaysInMonth(uint year, uint month) internal pure returns (uint daysInMonth) {... */\n    tag_192:\n        /* \"https://github.com/bokkypoobah/BokkyPooBahsDateTimeLibrary/blob/1ea8ef42b3d8db17b910b46e4f8c124b59d77c03/contracts/BokkyPooBahsDateTimeLibrary.sol\":6702:6718  uint daysInMonth */\n      0x0\n        /* \"https://github.com/bokkypoobah/BokkyPooBahsDateTimeLibrary/blob/1ea8ef42b3d8db17b910b46e4f8c124b59d77c03/contracts/BokkyPooBahsDateTimeLibrary.sol\":6743:6744  1 */\n      0x1\n        /* \"https://github.com/bokkypoobah/BokkyPooBahsDateTimeLibrary/blob/1ea8ef42b3d8db17b910b46e4f8c124b59d77c03/contracts/BokkyPooBahsDateTimeLibrary.sol\":6734:6739  month */\n      dup3\n        /* \"https://github.com/bokkypoobah/BokkyPooBahsDateTimeLibrary/blob/1ea8ef42b3d8db17b910b46e4f8c124b59d77c03/contracts/BokkyPooBahsDateTimeLibrary.sol\":6734:6744  month == 1 */\n      eq\n        /* \"https://github.com/bokkypoobah/BokkyPooBahsDateTimeLibrary/blob/1ea8ef42b3d8db17b910b46e4f8c124b59d77c03/contracts/BokkyPooBahsDateTimeLibrary.sol\":6734:6758  month == 1 || month == 3 */\n      dup1\n      tag_205\n      jumpi\n      pop\n        /* \"https://github.com/bokkypoobah/BokkyPooBahsDateTimeLibrary/blob/1ea8ef42b3d8db17b910b46e4f8c124b59d77c03/contracts/BokkyPooBahsDateTimeLibrary.sol\":6757:6758  3 */\n      0x3\n        /* \"https://github.com/bokkypoobah/BokkyPooBahsDateTimeLibrary/blob/1ea8ef42b3d8db17b910b46e4f8c124b59d77c03/contracts/BokkyPooBahsDateTimeLibrary.sol\":6748:6753  month */\n      dup3\n        /* \"https://github.com/bokkypoobah/BokkyPooBahsDateTimeLibrary/blob/1ea8ef42b3d8db17b910b46e4f8c124b59d77c03/contracts/BokkyPooBahsDateTimeLibrary.sol\":6748:6758  month == 3 */\n      eq\n        /* \"https://github.com/bokkypoobah/BokkyPooBahsDateTimeLibrary/blob/1ea8ef42b3d8db17b910b46e4f8c124b59d77c03/contracts/BokkyPooBahsDateTimeLibrary.sol\":6734:6758  month == 1 || month == 3 */\n    tag_205:\n        /* \"https://github.com/bokkypoobah/BokkyPooBahsDateTimeLibrary/blob/1ea8ef42b3d8db17b910b46e4f8c124b59d77c03/contracts/BokkyPooBahsDateTimeLibrary.sol\":6734:6772  month == 1 || month == 3 || month == 5 */\n      dup1\n      tag_206\n      jumpi\n      pop\n        /* \"https://github.com/bokkypoobah/BokkyPooBahsDateTimeLibrary/blob/1ea8ef42b3d8db17b910b46e4f8c124b59d77c03/contracts/BokkyPooBahsDateTimeLibrary.sol\":6771:6772  5 */\n      0x5\n        /* \"https://github.com/bokkypoobah/BokkyPooBahsDateTimeLibrary/blob/1ea8ef42b3d8db17b910b46e4f8c124b59d77c03/contracts/BokkyPooBahsDateTimeLibrary.sol\":6762:6767  month */\n      dup3\n        /* \"https://github.com/bokkypoobah/BokkyPooBahsDateTimeLibrary/blob/1ea8ef42b3d8db17b910b46e4f8c124b59d77c03/contracts/BokkyPooBahsDateTimeLibrary.sol\":6762:6772  month == 5 */\n      eq\n        /* \"https://github.com/bokkypoobah/BokkyPooBahsDateTimeLibrary/blob/1ea8ef42b3d8db17b910b46e4f8c124b59d77c03/contracts/BokkyPooBahsDateTimeLibrary.sol\":6734:6772  month == 1 || month == 3 || month == 5 */\n    tag_206:\n        /* \"https://github.com/bokkypoobah/BokkyPooBahsDateTimeLibrary/blob/1ea8ef42b3d8db17b910b46e4f8c124b59d77c03/contracts/BokkyPooBahsDateTimeLibrary.sol\":6734:6786  month == 1 || month == 3 || month == 5 || month == 7 */\n      dup1\n      tag_207\n      jumpi\n      pop\n        /* \"https://github.com/bokkypoobah/BokkyPooBahsDateTimeLibrary/blob/1ea8ef42b3d8db17b910b46e4f8c124b59d77c03/contracts/BokkyPooBahsDateTimeLibrary.sol\":6785:6786  7 */\n      0x7\n        /* \"https://github.com/bokkypoobah/BokkyPooBahsDateTimeLibrary/blob/1ea8ef42b3d8db17b910b46e4f8c124b59d77c03/contracts/BokkyPooBahsDateTimeLibrary.sol\":6776:6781  month */\n      dup3\n        /* \"https://github.com/bokkypoobah/BokkyPooBahsDateTimeLibrary/blob/1ea8ef42b3d8db17b910b46e4f8c124b59d77c03/contracts/BokkyPooBahsDateTimeLibrary.sol\":6776:6786  month == 7 */\n      eq\n        /* \"https://github.com/bokkypoobah/BokkyPooBahsDateTimeLibrary/blob/1ea8ef42b3d8db17b910b46e4f8c124b59d77c03/contracts/BokkyPooBahsDateTimeLibrary.sol\":6734:6786  month == 1 || month == 3 || month == 5 || month == 7 */\n    tag_207:\n        /* \"https://github.com/bokkypoobah/BokkyPooBahsDateTimeLibrary/blob/1ea8ef42b3d8db17b910b46e4f8c124b59d77c03/contracts/BokkyPooBahsDateTimeLibrary.sol\":6734:6800  month == 1 || month == 3 || month == 5 || month == 7 || month == 8 */\n      dup1\n      tag_208\n      jumpi\n      pop\n        /* \"https://github.com/bokkypoobah/BokkyPooBahsDateTimeLibrary/blob/1ea8ef42b3d8db17b910b46e4f8c124b59d77c03/contracts/BokkyPooBahsDateTimeLibrary.sol\":6799:6800  8 */\n      0x8\n        /* \"https://github.com/bokkypoobah/BokkyPooBahsDateTimeLibrary/blob/1ea8ef42b3d8db17b910b46e4f8c124b59d77c03/contracts/BokkyPooBahsDateTimeLibrary.sol\":6790:6795  month */\n      dup3\n        /* \"https://github.com/bokkypoobah/BokkyPooBahsDateTimeLibrary/blob/1ea8ef42b3d8db17b910b46e4f8c124b59d77c03/contracts/BokkyPooBahsDateTimeLibrary.sol\":6790:6800  month == 8 */\n      eq\n        /* \"https://github.com/bokkypoobah/BokkyPooBahsDateTimeLibrary/blob/1ea8ef42b3d8db17b910b46e4f8c124b59d77c03/contracts/BokkyPooBahsDateTimeLibrary.sol\":6734:6800  month == 1 || month == 3 || month == 5 || month == 7 || month == 8 */\n    tag_208:\n        /* \"https://github.com/bokkypoobah/BokkyPooBahsDateTimeLibrary/blob/1ea8ef42b3d8db17b910b46e4f8c124b59d77c03/contracts/BokkyPooBahsDateTimeLibrary.sol\":6734:6815  month == 1 || month == 3 || month == 5 || month == 7 || month == 8 || month == 10 */\n      dup1\n      tag_209\n      jumpi\n      pop\n        /* \"https://github.com/bokkypoobah/BokkyPooBahsDateTimeLibrary/blob/1ea8ef42b3d8db17b910b46e4f8c124b59d77c03/contracts/BokkyPooBahsDateTimeLibrary.sol\":6813:6815  10 */\n      0xa\n        /* \"https://github.com/bokkypoobah/BokkyPooBahsDateTimeLibrary/blob/1ea8ef42b3d8db17b910b46e4f8c124b59d77c03/contracts/BokkyPooBahsDateTimeLibrary.sol\":6804:6809  month */\n      dup3\n        /* \"https://github.com/bokkypoobah/BokkyPooBahsDateTimeLibrary/blob/1ea8ef42b3d8db17b910b46e4f8c124b59d77c03/contracts/BokkyPooBahsDateTimeLibrary.sol\":6804:6815  month == 10 */\n      eq\n        /* \"https://github.com/bokkypoobah/BokkyPooBahsDateTimeLibrary/blob/1ea8ef42b3d8db17b910b46e4f8c124b59d77c03/contracts/BokkyPooBahsDateTimeLibrary.sol\":6734:6815  month == 1 || month == 3 || month == 5 || month == 7 || month == 8 || month == 10 */\n    tag_209:\n        /* \"https://github.com/bokkypoobah/BokkyPooBahsDateTimeLibrary/blob/1ea8ef42b3d8db17b910b46e4f8c124b59d77c03/contracts/BokkyPooBahsDateTimeLibrary.sol\":6734:6830  month == 1 || month == 3 || month == 5 || month == 7 || month == 8 || month == 10 || month == 12 */\n      dup1\n      tag_210\n      jumpi\n      pop\n        /* \"https://github.com/bokkypoobah/BokkyPooBahsDateTimeLibrary/blob/1ea8ef42b3d8db17b910b46e4f8c124b59d77c03/contracts/BokkyPooBahsDateTimeLibrary.sol\":6828:6830  12 */\n      0xc\n        /* \"https://github.com/bokkypoobah/BokkyPooBahsDateTimeLibrary/blob/1ea8ef42b3d8db17b910b46e4f8c124b59d77c03/contracts/BokkyPooBahsDateTimeLibrary.sol\":6819:6824  month */\n      dup3\n        /* \"https://github.com/bokkypoobah/BokkyPooBahsDateTimeLibrary/blob/1ea8ef42b3d8db17b910b46e4f8c124b59d77c03/contracts/BokkyPooBahsDateTimeLibrary.sol\":6819:6830  month == 12 */\n      eq\n        /* \"https://github.com/bokkypoobah/BokkyPooBahsDateTimeLibrary/blob/1ea8ef42b3d8db17b910b46e4f8c124b59d77c03/contracts/BokkyPooBahsDateTimeLibrary.sol\":6734:6830  month == 1 || month == 3 || month == 5 || month == 7 || month == 8 || month == 10 || month == 12 */\n    tag_210:\n        /* \"https://github.com/bokkypoobah/BokkyPooBahsDateTimeLibrary/blob/1ea8ef42b3d8db17b910b46e4f8c124b59d77c03/contracts/BokkyPooBahsDateTimeLibrary.sol\":6730:7008  if (month == 1 || month == 3 || month == 5 || month == 7 || month == 8 || month == 10 || month == 12) {... */\n      iszero\n      tag_211\n      jumpi\n        /* \"https://github.com/bokkypoobah/BokkyPooBahsDateTimeLibrary/blob/1ea8ef42b3d8db17b910b46e4f8c124b59d77c03/contracts/BokkyPooBahsDateTimeLibrary.sol\":6860:6862  31 */\n      0x1f\n        /* \"https://github.com/bokkypoobah/BokkyPooBahsDateTimeLibrary/blob/1ea8ef42b3d8db17b910b46e4f8c124b59d77c03/contracts/BokkyPooBahsDateTimeLibrary.sol\":6846:6862  daysInMonth = 31 */\n      swap1\n      pop\n        /* \"https://github.com/bokkypoobah/BokkyPooBahsDateTimeLibrary/blob/1ea8ef42b3d8db17b910b46e4f8c124b59d77c03/contracts/BokkyPooBahsDateTimeLibrary.sol\":6730:7008  if (month == 1 || month == 3 || month == 5 || month == 7 || month == 8 || month == 10 || month == 12) {... */\n      jump(tag_212)\n    tag_211:\n        /* \"https://github.com/bokkypoobah/BokkyPooBahsDateTimeLibrary/blob/1ea8ef42b3d8db17b910b46e4f8c124b59d77c03/contracts/BokkyPooBahsDateTimeLibrary.sol\":6892:6893  2 */\n      0x2\n        /* \"https://github.com/bokkypoobah/BokkyPooBahsDateTimeLibrary/blob/1ea8ef42b3d8db17b910b46e4f8c124b59d77c03/contracts/BokkyPooBahsDateTimeLibrary.sol\":6883:6888  month */\n      dup3\n        /* \"https://github.com/bokkypoobah/BokkyPooBahsDateTimeLibrary/blob/1ea8ef42b3d8db17b910b46e4f8c124b59d77c03/contracts/BokkyPooBahsDateTimeLibrary.sol\":6883:6893  month != 2 */\n      eq\n      iszero\n        /* \"https://github.com/bokkypoobah/BokkyPooBahsDateTimeLibrary/blob/1ea8ef42b3d8db17b910b46e4f8c124b59d77c03/contracts/BokkyPooBahsDateTimeLibrary.sol\":6879:7008  if (month != 2) {... */\n      iszero\n      tag_213\n      jumpi\n        /* \"https://github.com/bokkypoobah/BokkyPooBahsDateTimeLibrary/blob/1ea8ef42b3d8db17b910b46e4f8c124b59d77c03/contracts/BokkyPooBahsDateTimeLibrary.sol\":6923:6925  30 */\n      0x1e\n        /* \"https://github.com/bokkypoobah/BokkyPooBahsDateTimeLibrary/blob/1ea8ef42b3d8db17b910b46e4f8c124b59d77c03/contracts/BokkyPooBahsDateTimeLibrary.sol\":6909:6925  daysInMonth = 30 */\n      swap1\n      pop\n        /* \"https://github.com/bokkypoobah/BokkyPooBahsDateTimeLibrary/blob/1ea8ef42b3d8db17b910b46e4f8c124b59d77c03/contracts/BokkyPooBahsDateTimeLibrary.sol\":6879:7008  if (month != 2) {... */\n      jump(tag_214)\n    tag_213:\n        /* \"https://github.com/bokkypoobah/BokkyPooBahsDateTimeLibrary/blob/1ea8ef42b3d8db17b910b46e4f8c124b59d77c03/contracts/BokkyPooBahsDateTimeLibrary.sol\":6970:6987  _isLeapYear(year) */\n      tag_215\n        /* \"https://github.com/bokkypoobah/BokkyPooBahsDateTimeLibrary/blob/1ea8ef42b3d8db17b910b46e4f8c124b59d77c03/contracts/BokkyPooBahsDateTimeLibrary.sol\":6982:6986  year */\n      dup4\n        /* \"https://github.com/bokkypoobah/BokkyPooBahsDateTimeLibrary/blob/1ea8ef42b3d8db17b910b46e4f8c124b59d77c03/contracts/BokkyPooBahsDateTimeLibrary.sol\":6970:6981  _isLeapYear */\n      tag_216\n        /* \"https://github.com/bokkypoobah/BokkyPooBahsDateTimeLibrary/blob/1ea8ef42b3d8db17b910b46e4f8c124b59d77c03/contracts/BokkyPooBahsDateTimeLibrary.sol\":6970:6987  _isLeapYear(year) */\n      jump\t// in\n    tag_215:\n        /* \"https://github.com/bokkypoobah/BokkyPooBahsDateTimeLibrary/blob/1ea8ef42b3d8db17b910b46e4f8c124b59d77c03/contracts/BokkyPooBahsDateTimeLibrary.sol\":6970:6997  _isLeapYear(year) ? 29 : 28 */\n      tag_217\n      jumpi\n        /* \"https://github.com/bokkypoobah/BokkyPooBahsDateTimeLibrary/blob/1ea8ef42b3d8db17b910b46e4f8c124b59d77c03/contracts/BokkyPooBahsDateTimeLibrary.sol\":6995:6997  28 */\n      0x1c\n        /* \"https://github.com/bokkypoobah/BokkyPooBahsDateTimeLibrary/blob/1ea8ef42b3d8db17b910b46e4f8c124b59d77c03/contracts/BokkyPooBahsDateTimeLibrary.sol\":6970:6997  _isLeapYear(year) ? 29 : 28 */\n      jump(tag_218)\n    tag_217:\n        /* \"https://github.com/bokkypoobah/BokkyPooBahsDateTimeLibrary/blob/1ea8ef42b3d8db17b910b46e4f8c124b59d77c03/contracts/BokkyPooBahsDateTimeLibrary.sol\":6990:6992  29 */\n      0x1d\n        /* \"https://github.com/bokkypoobah/BokkyPooBahsDateTimeLibrary/blob/1ea8ef42b3d8db17b910b46e4f8c124b59d77c03/contracts/BokkyPooBahsDateTimeLibrary.sol\":6970:6997  _isLeapYear(year) ? 29 : 28 */\n    tag_218:\n        /* \"https://github.com/bokkypoobah/BokkyPooBahsDateTimeLibrary/blob/1ea8ef42b3d8db17b910b46e4f8c124b59d77c03/contracts/BokkyPooBahsDateTimeLibrary.sol\":6956:6997  daysInMonth = _isLeapYear(year) ? 29 : 28 */\n      0xff\n      and\n      swap1\n      pop\n        /* \"https://github.com/bokkypoobah/BokkyPooBahsDateTimeLibrary/blob/1ea8ef42b3d8db17b910b46e4f8c124b59d77c03/contracts/BokkyPooBahsDateTimeLibrary.sol\":6879:7008  if (month != 2) {... */\n    tag_214:\n        /* \"https://github.com/bokkypoobah/BokkyPooBahsDateTimeLibrary/blob/1ea8ef42b3d8db17b910b46e4f8c124b59d77c03/contracts/BokkyPooBahsDateTimeLibrary.sol\":6730:7008  if (month == 1 || month == 3 || month == 5 || month == 7 || month == 8 || month == 10 || month == 12) {... */\n    tag_212:\n        /* \"https://github.com/bokkypoobah/BokkyPooBahsDateTimeLibrary/blob/1ea8ef42b3d8db17b910b46e4f8c124b59d77c03/contracts/BokkyPooBahsDateTimeLibrary.sol\":6631:7014  function _getDaysInMonth(uint year, uint month) internal pure returns (uint daysInMonth) {... */\n      swap3\n      swap2\n      pop\n      pop\n      jump\t// out\n        /* \"https://github.com/bokkypoobah/BokkyPooBahsDateTimeLibrary/blob/1ea8ef42b3d8db17b910b46e4f8c124b59d77c03/contracts/BokkyPooBahsDateTimeLibrary.sol\":5920:6077  function _isLeapYear(uint year) internal pure returns (bool leapYear) {... */\n    tag_216:\n        /* \"https://github.com/bokkypoobah/BokkyPooBahsDateTimeLibrary/blob/1ea8ef42b3d8db17b910b46e4f8c124b59d77c03/contracts/BokkyPooBahsDateTimeLibrary.sol\":5975:5988  bool leapYear */\n      0x0\n        /* \"https://github.com/bokkypoobah/BokkyPooBahsDateTimeLibrary/blob/1ea8ef42b3d8db17b910b46e4f8c124b59d77c03/contracts/BokkyPooBahsDateTimeLibrary.sol\":6025:6026  0 */\n      dup1\n        /* \"https://github.com/bokkypoobah/BokkyPooBahsDateTimeLibrary/blob/1ea8ef42b3d8db17b910b46e4f8c124b59d77c03/contracts/BokkyPooBahsDateTimeLibrary.sol\":6020:6021  4 */\n      0x4\n        /* \"https://github.com/bokkypoobah/BokkyPooBahsDateTimeLibrary/blob/1ea8ef42b3d8db17b910b46e4f8c124b59d77c03/contracts/BokkyPooBahsDateTimeLibrary.sol\":6013:6017  year */\n      dup4\n        /* \"https://github.com/bokkypoobah/BokkyPooBahsDateTimeLibrary/blob/1ea8ef42b3d8db17b910b46e4f8c124b59d77c03/contracts/BokkyPooBahsDateTimeLibrary.sol\":6013:6021  year % 4 */\n      dup2\n      iszero\n      iszero\n      tag_220\n      jumpi\n      invalid\n    tag_220:\n      mod\n        /* \"https://github.com/bokkypoobah/BokkyPooBahsDateTimeLibrary/blob/1ea8ef42b3d8db17b910b46e4f8c124b59d77c03/contracts/BokkyPooBahsDateTimeLibrary.sol\":6013:6026  year % 4 == 0 */\n      eq\n        /* \"https://github.com/bokkypoobah/BokkyPooBahsDateTimeLibrary/blob/1ea8ef42b3d8db17b910b46e4f8c124b59d77c03/contracts/BokkyPooBahsDateTimeLibrary.sol\":6012:6048  (year % 4 == 0) && (year % 100 != 0) */\n      dup1\n      iszero\n      tag_221\n      jumpi\n      pop\n        /* \"https://github.com/bokkypoobah/BokkyPooBahsDateTimeLibrary/blob/1ea8ef42b3d8db17b910b46e4f8c124b59d77c03/contracts/BokkyPooBahsDateTimeLibrary.sol\":6046:6047  0 */\n      0x0\n        /* \"https://github.com/bokkypoobah/BokkyPooBahsDateTimeLibrary/blob/1ea8ef42b3d8db17b910b46e4f8c124b59d77c03/contracts/BokkyPooBahsDateTimeLibrary.sol\":6039:6042  100 */\n      0x64\n        /* \"https://github.com/bokkypoobah/BokkyPooBahsDateTimeLibrary/blob/1ea8ef42b3d8db17b910b46e4f8c124b59d77c03/contracts/BokkyPooBahsDateTimeLibrary.sol\":6032:6036  year */\n      dup4\n        /* \"https://github.com/bokkypoobah/BokkyPooBahsDateTimeLibrary/blob/1ea8ef42b3d8db17b910b46e4f8c124b59d77c03/contracts/BokkyPooBahsDateTimeLibrary.sol\":6032:6042  year % 100 */\n      dup2\n      iszero\n      iszero\n      tag_222\n      jumpi\n      invalid\n    tag_222:\n      mod\n        /* \"https://github.com/bokkypoobah/BokkyPooBahsDateTimeLibrary/blob/1ea8ef42b3d8db17b910b46e4f8c124b59d77c03/contracts/BokkyPooBahsDateTimeLibrary.sol\":6032:6047  year % 100 != 0 */\n      eq\n      iszero\n        /* \"https://github.com/bokkypoobah/BokkyPooBahsDateTimeLibrary/blob/1ea8ef42b3d8db17b910b46e4f8c124b59d77c03/contracts/BokkyPooBahsDateTimeLibrary.sol\":6012:6048  (year % 4 == 0) && (year % 100 != 0) */\n    tag_221:\n        /* \"https://github.com/bokkypoobah/BokkyPooBahsDateTimeLibrary/blob/1ea8ef42b3d8db17b910b46e4f8c124b59d77c03/contracts/BokkyPooBahsDateTimeLibrary.sol\":6011:6070  ((year % 4 == 0) && (year % 100 != 0)) || (year % 400 == 0) */\n      dup1\n      tag_223\n      jumpi\n      pop\n        /* \"https://github.com/bokkypoobah/BokkyPooBahsDateTimeLibrary/blob/1ea8ef42b3d8db17b910b46e4f8c124b59d77c03/contracts/BokkyPooBahsDateTimeLibrary.sol\":6068:6069  0 */\n      0x0\n        /* \"https://github.com/bokkypoobah/BokkyPooBahsDateTimeLibrary/blob/1ea8ef42b3d8db17b910b46e4f8c124b59d77c03/contracts/BokkyPooBahsDateTimeLibrary.sol\":6061:6064  400 */\n      0x190\n        /* \"https://github.com/bokkypoobah/BokkyPooBahsDateTimeLibrary/blob/1ea8ef42b3d8db17b910b46e4f8c124b59d77c03/contracts/BokkyPooBahsDateTimeLibrary.sol\":6054:6058  year */\n      dup4\n        /* \"https://github.com/bokkypoobah/BokkyPooBahsDateTimeLibrary/blob/1ea8ef42b3d8db17b910b46e4f8c124b59d77c03/contracts/BokkyPooBahsDateTimeLibrary.sol\":6054:6064  year % 400 */\n      dup2\n      iszero\n      iszero\n      tag_224\n      jumpi\n      invalid\n    tag_224:\n      mod\n        /* \"https://github.com/bokkypoobah/BokkyPooBahsDateTimeLibrary/blob/1ea8ef42b3d8db17b910b46e4f8c124b59d77c03/contracts/BokkyPooBahsDateTimeLibrary.sol\":6054:6069  year % 400 == 0 */\n      eq\n        /* \"https://github.com/bokkypoobah/BokkyPooBahsDateTimeLibrary/blob/1ea8ef42b3d8db17b910b46e4f8c124b59d77c03/contracts/BokkyPooBahsDateTimeLibrary.sol\":6011:6070  ((year % 4 == 0) && (year % 100 != 0)) || (year % 400 == 0) */\n    tag_223:\n        /* \"https://github.com/bokkypoobah/BokkyPooBahsDateTimeLibrary/blob/1ea8ef42b3d8db17b910b46e4f8c124b59d77c03/contracts/BokkyPooBahsDateTimeLibrary.sol\":6000:6070  leapYear = ((year % 4 == 0) && (year % 100 != 0)) || (year % 400 == 0) */\n      swap1\n      pop\n        /* \"https://github.com/bokkypoobah/BokkyPooBahsDateTimeLibrary/blob/1ea8ef42b3d8db17b910b46e4f8c124b59d77c03/contracts/BokkyPooBahsDateTimeLibrary.sol\":5920:6077  function _isLeapYear(uint year) internal pure returns (bool leapYear) {... */\n      swap2\n      swap1\n      pop\n      jump\t// out\n        /* \"Project-1-AuctionPlatform/AuctionPlatform.sol\":375:8845  contract AuctionPlatform {... */\n    tag_138:\n      mload(0x40)\n      dataSize(sub_0)\n      dup1\n      dataOffset(sub_0)\n      dup4\n      codecopy\n      add\n      swap1\n      jump\t// out\n    stop\n\n    sub_0: assembly {\n            /* \"Project-1-AuctionPlatform/Auction.sol\":59:5326  contract Auction {... */\n          mstore(0x40, 0x80)\n            /* \"Project-1-AuctionPlatform/Auction.sol\":1875:2183  constructor(... */\n          callvalue\n            /* \"--CODEGEN--\":8:17   */\n          dup1\n            /* \"--CODEGEN--\":5:7   */\n          iszero\n          tag_1\n          jumpi\n            /* \"--CODEGEN--\":30:31   */\n          0x0\n            /* \"--CODEGEN--\":27:28   */\n          dup1\n            /* \"--CODEGEN--\":20:32   */\n          revert\n            /* \"--CODEGEN--\":5:7   */\n        tag_1:\n            /* \"Project-1-AuctionPlatform/Auction.sol\":1875:2183  constructor(... */\n          pop\n          mload(0x40)\n          sub(codesize, bytecodeSize)\n          dup1\n          bytecodeSize\n          dup4\n          codecopy\n          dup2\n          add\n          dup1\n          0x40\n          mstore\n          dup2\n          add\n          swap1\n          dup1\n          dup1\n          mload\n          dup3\n          add\n          swap3\n          swap2\n          swap1\n          0x20\n          add\n          dup1\n          mload\n          swap1\n          0x20\n          add\n          swap1\n          swap3\n          swap2\n          swap1\n          dup1\n          mload\n          swap1\n          0x20\n          add\n          swap1\n          swap3\n          swap2\n          swap1\n          dup1\n          mload\n          swap1\n          0x20\n          add\n          swap1\n          swap3\n          swap2\n          swap1\n          pop\n          pop\n          pop\n            /* \"Project-1-AuctionPlatform/Auction.sol\":2072:2084  _description */\n          dup4\n            /* \"Project-1-AuctionPlatform/Auction.sol\":2058:2069  description */\n          0x0\n            /* \"Project-1-AuctionPlatform/Auction.sol\":2058:2084  description = _description */\n          swap1\n          dup1\n          mload\n          swap1\n          0x20\n          add\n          swap1\n          tag_4\n          swap3\n          swap2\n          swap1\n          jump\t// in(tag_5)\n        tag_4:\n          pop\n            /* \"Project-1-AuctionPlatform/Auction.sol\":2106:2116  _startTime */\n          dup3\n            /* \"Project-1-AuctionPlatform/Auction.sol\":2094:2103  startTime */\n          0x1\n            /* \"Project-1-AuctionPlatform/Auction.sol\":2094:2116  startTime = _startTime */\n          dup2\n          swap1\n          sstore\n          pop\n            /* \"Project-1-AuctionPlatform/Auction.sol\":2136:2144  _endTime */\n          dup2\n            /* \"Project-1-AuctionPlatform/Auction.sol\":2126:2133  endTime */\n          0x2\n            /* \"Project-1-AuctionPlatform/Auction.sol\":2126:2144  endTime = _endTime */\n          dup2\n          swap1\n          sstore\n          pop\n            /* \"Project-1-AuctionPlatform/Auction.sol\":2166:2176  _minBidVal */\n          dup1\n            /* \"Project-1-AuctionPlatform/Auction.sol\":2154:2163  minBidVal */\n          0x3\n            /* \"Project-1-AuctionPlatform/Auction.sol\":2154:2176  minBidVal = _minBidVal */\n          dup2\n          swap1\n          sstore\n          pop\n            /* \"Project-1-AuctionPlatform/Auction.sol\":1875:2183  constructor(... */\n          pop\n          pop\n          pop\n          pop\n            /* \"Project-1-AuctionPlatform/Auction.sol\":59:5326  contract Auction {... */\n          jump(tag_6)\n        tag_5:\n          dup3\n          dup1\n          sload\n          0x1\n          dup2\n          0x1\n          and\n          iszero\n          0x100\n          mul\n          sub\n          and\n          0x2\n          swap1\n          div\n          swap1\n          0x0\n          mstore\n          keccak256(0x0, 0x20)\n          swap1\n          0x1f\n          add\n          0x20\n          swap1\n          div\n          dup2\n          add\n          swap3\n          dup3\n          0x1f\n          lt\n          tag_8\n          jumpi\n          dup1\n          mload\n          not(0xff)\n          and\n          dup4\n          dup1\n          add\n          or\n          dup6\n          sstore\n          jump(tag_7)\n        tag_8:\n          dup3\n          dup1\n          add\n          0x1\n          add\n          dup6\n          sstore\n          dup3\n          iszero\n          tag_7\n          jumpi\n          swap2\n          dup3\n          add\n        tag_9:\n          dup3\n          dup2\n          gt\n          iszero\n          tag_10\n          jumpi\n          dup3\n          mload\n          dup3\n          sstore\n          swap2\n          0x20\n          add\n          swap2\n          swap1\n          0x1\n          add\n          swap1\n          jump(tag_9)\n        tag_10:\n        tag_7:\n          pop\n          swap1\n          pop\n          tag_11\n          swap2\n          swap1\n          jump\t// in(tag_12)\n        tag_11:\n          pop\n          swap1\n          jump\t// out\n        tag_12:\n          tag_13\n          swap2\n          swap1\n        tag_14:\n          dup1\n          dup3\n          gt\n          iszero\n          tag_15\n          jumpi\n          0x0\n          dup2\n          0x0\n          swap1\n          sstore\n          pop\n          0x1\n          add\n          jump(tag_14)\n        tag_15:\n          pop\n          swap1\n          jump\n        tag_13:\n          swap1\n          jump\t// out\n        tag_6:\n          dataSize(sub_0)\n          dup1\n          dataOffset(sub_0)\n          0x0\n          codecopy\n          0x0\n          return\n        stop\n\n        sub_0: assembly {\n                /* \"Project-1-AuctionPlatform/Auction.sol\":59:5326  contract Auction {... */\n              mstore(0x40, 0x80)\n              jumpi(tag_1, lt(calldatasize, 0x4))\n              calldataload(0x0)\n              0x100000000000000000000000000000000000000000000000000000000\n              swap1\n              div\n              0xffffffff\n              and\n              dup1\n              0x409766e6\n              eq\n              tag_2\n              jumpi\n              dup1\n              0x43129de1\n              eq\n              tag_3\n              jumpi\n              dup1\n              0x439f5ac2\n              eq\n              tag_4\n              jumpi\n              dup1\n              0x659dd2b4\n              eq\n              tag_5\n              jumpi\n              dup1\n              0x679dbf0c\n              eq\n              tag_6\n              jumpi\n              dup1\n              0xad934674\n              eq\n              tag_7\n              jumpi\n              dup1\n              0xdd06ba1a\n              eq\n              tag_8\n              jumpi\n              dup1\n              0xdee37a8e\n              eq\n              tag_9\n              jumpi\n            tag_1:\n              0x0\n              dup1\n              revert\n                /* \"Project-1-AuctionPlatform/Auction.sol\":694:778  function getBidsMade() external view returns (bool) {... */\n            tag_2:\n              callvalue\n                /* \"--CODEGEN--\":8:17   */\n              dup1\n                /* \"--CODEGEN--\":5:7   */\n              iszero\n              tag_10\n              jumpi\n                /* \"--CODEGEN--\":30:31   */\n              0x0\n                /* \"--CODEGEN--\":27:28   */\n              dup1\n                /* \"--CODEGEN--\":20:32   */\n              revert\n                /* \"--CODEGEN--\":5:7   */\n            tag_10:\n                /* \"Project-1-AuctionPlatform/Auction.sol\":694:778  function getBidsMade() external view returns (bool) {... */\n              pop\n              tag_11\n              jump(tag_12)\n            tag_11:\n              mload(0x40)\n              dup1\n              dup3\n              iszero\n              iszero\n              iszero\n              iszero\n              dup2\n              mstore\n              0x20\n              add\n              swap2\n              pop\n              pop\n              mload(0x40)\n              dup1\n              swap2\n              sub\n              swap1\n              return\n                /* \"Project-1-AuctionPlatform/Auction.sol\":2739:3040  function updateBid(uint256 _bidVal) external validBidVal(_bidVal) isActive {... */\n            tag_3:\n              callvalue\n                /* \"--CODEGEN--\":8:17   */\n              dup1\n                /* \"--CODEGEN--\":5:7   */\n              iszero\n              tag_13\n              jumpi\n                /* \"--CODEGEN--\":30:31   */\n              0x0\n                /* \"--CODEGEN--\":27:28   */\n              dup1\n                /* \"--CODEGEN--\":20:32   */\n              revert\n                /* \"--CODEGEN--\":5:7   */\n            tag_13:\n                /* \"Project-1-AuctionPlatform/Auction.sol\":2739:3040  function updateBid(uint256 _bidVal) external validBidVal(_bidVal) isActive {... */\n              pop\n              tag_14\n              0x4\n              dup1\n              calldatasize\n              sub\n              dup2\n              add\n              swap1\n              dup1\n              dup1\n              calldataload\n              swap1\n              0x20\n              add\n              swap1\n              swap3\n              swap2\n              swap1\n              pop\n              pop\n              pop\n              jump(tag_15)\n            tag_14:\n              stop\n                /* \"Project-1-AuctionPlatform/Auction.sol\":834:919  function getEndTime() external view returns (uint256) {... */\n            tag_4:\n              callvalue\n                /* \"--CODEGEN--\":8:17   */\n              dup1\n                /* \"--CODEGEN--\":5:7   */\n              iszero\n              tag_16\n              jumpi\n                /* \"--CODEGEN--\":30:31   */\n              0x0\n                /* \"--CODEGEN--\":27:28   */\n              dup1\n                /* \"--CODEGEN--\":20:32   */\n              revert\n                /* \"--CODEGEN--\":5:7   */\n            tag_16:\n                /* \"Project-1-AuctionPlatform/Auction.sol\":834:919  function getEndTime() external view returns (uint256) {... */\n              pop\n              tag_17\n              jump(tag_18)\n            tag_17:\n              mload(0x40)\n              dup1\n              dup3\n              dup2\n              mstore\n              0x20\n              add\n              swap2\n              pop\n              pop\n              mload(0x40)\n              dup1\n              swap2\n              sub\n              swap1\n              return\n                /* \"Project-1-AuctionPlatform/Auction.sol\":2246:2678  function createBid(uint256 _bidVal)... */\n            tag_5:\n              callvalue\n                /* \"--CODEGEN--\":8:17   */\n              dup1\n                /* \"--CODEGEN--\":5:7   */\n              iszero\n              tag_19\n              jumpi\n                /* \"--CODEGEN--\":30:31   */\n              0x0\n                /* \"--CODEGEN--\":27:28   */\n              dup1\n                /* \"--CODEGEN--\":20:32   */\n              revert\n                /* \"--CODEGEN--\":5:7   */\n            tag_19:\n                /* \"Project-1-AuctionPlatform/Auction.sol\":2246:2678  function createBid(uint256 _bidVal)... */\n              pop\n              tag_20\n              0x4\n              dup1\n              calldatasize\n              sub\n              dup2\n              add\n              swap1\n              dup1\n              dup1\n              calldataload\n              swap1\n              0x20\n              add\n              swap1\n              swap3\n              swap2\n              swap1\n              pop\n              pop\n              pop\n              jump(tag_21)\n            tag_20:\n              stop\n                /* \"Project-1-AuctionPlatform/Auction.sol\":1311:1756  function getListOfBids() external view isActive returns (uint256[]) {... */\n            tag_6:\n              callvalue\n                /* \"--CODEGEN--\":8:17   */\n              dup1\n                /* \"--CODEGEN--\":5:7   */\n              iszero\n              tag_22\n              jumpi\n                /* \"--CODEGEN--\":30:31   */\n              0x0\n                /* \"--CODEGEN--\":27:28   */\n              dup1\n                /* \"--CODEGEN--\":20:32   */\n              revert\n                /* \"--CODEGEN--\":5:7   */\n            tag_22:\n                /* \"Project-1-AuctionPlatform/Auction.sol\":1311:1756  function getListOfBids() external view isActive returns (uint256[]) {... */\n              pop\n              tag_23\n              jump(tag_24)\n            tag_23:\n              mload(0x40)\n              dup1\n              dup1\n              0x20\n              add\n              dup3\n              dup2\n              sub\n              dup3\n              mstore\n              dup4\n              dup2\n              dup2\n              mload\n              dup2\n              mstore\n              0x20\n              add\n              swap2\n              pop\n              dup1\n              mload\n              swap1\n              0x20\n              add\n              swap1\n              0x20\n              mul\n              dup1\n              dup4\n              dup4\n                /* \"--CODEGEN--\":23:24   */\n              0x0\n                /* \"--CODEGEN--\":8:108   */\n            tag_25:\n                /* \"--CODEGEN--\":33:36   */\n              dup4\n                /* \"--CODEGEN--\":30:31   */\n              dup2\n                /* \"--CODEGEN--\":27:37   */\n              lt\n                /* \"--CODEGEN--\":8:108   */\n              iszero\n              tag_26\n              jumpi\n                /* \"--CODEGEN--\":99:100   */\n              dup1\n                /* \"--CODEGEN--\":94:97   */\n              dup3\n                /* \"--CODEGEN--\":90:101   */\n              add\n                /* \"--CODEGEN--\":84:102   */\n              mload\n                /* \"--CODEGEN--\":80:81   */\n              dup2\n                /* \"--CODEGEN--\":75:78   */\n              dup5\n                /* \"--CODEGEN--\":71:82   */\n              add\n                /* \"--CODEGEN--\":64:103   */\n              mstore\n                /* \"--CODEGEN--\":52:54   */\n              0x20\n                /* \"--CODEGEN--\":49:50   */\n              dup2\n                /* \"--CODEGEN--\":45:55   */\n              add\n                /* \"--CODEGEN--\":40:55   */\n              swap1\n              pop\n                /* \"--CODEGEN--\":8:108   */\n              jump(tag_25)\n            tag_26:\n                /* \"--CODEGEN--\":12:26   */\n              pop\n                /* \"Project-1-AuctionPlatform/Auction.sol\":1311:1756  function getListOfBids() external view isActive returns (uint256[]) {... */\n              pop\n              pop\n              pop\n              swap1\n              pop\n              add\n              swap3\n              pop\n              pop\n              pop\n              mload(0x40)\n              dup1\n              swap2\n              sub\n              swap1\n              return\n                /* \"Project-1-AuctionPlatform/Auction.sol\":953:1051  function getMinBidVal() external view isActive returns (uint256) {... */\n            tag_7:\n              callvalue\n                /* \"--CODEGEN--\":8:17   */\n              dup1\n                /* \"--CODEGEN--\":5:7   */\n              iszero\n              tag_28\n              jumpi\n                /* \"--CODEGEN--\":30:31   */\n              0x0\n                /* \"--CODEGEN--\":27:28   */\n              dup1\n                /* \"--CODEGEN--\":20:32   */\n              revert\n                /* \"--CODEGEN--\":5:7   */\n            tag_28:\n                /* \"Project-1-AuctionPlatform/Auction.sol\":953:1051  function getMinBidVal() external view isActive returns (uint256) {... */\n              pop\n              tag_29\n              jump(tag_30)\n            tag_29:\n              mload(0x40)\n              dup1\n              dup3\n              dup2\n              mstore\n              0x20\n              add\n              swap2\n              pop\n              pop\n              mload(0x40)\n              dup1\n              swap2\n              sub\n              swap1\n              return\n                /* \"Project-1-AuctionPlatform/Auction.sol\":3959:4384  function getMaximumBid() external view isActive returns (uint256) {... */\n            tag_8:\n              callvalue\n                /* \"--CODEGEN--\":8:17   */\n              dup1\n                /* \"--CODEGEN--\":5:7   */\n              iszero\n              tag_31\n              jumpi\n                /* \"--CODEGEN--\":30:31   */\n              0x0\n                /* \"--CODEGEN--\":27:28   */\n              dup1\n                /* \"--CODEGEN--\":20:32   */\n              revert\n                /* \"--CODEGEN--\":5:7   */\n            tag_31:\n                /* \"Project-1-AuctionPlatform/Auction.sol\":3959:4384  function getMaximumBid() external view isActive returns (uint256) {... */\n              pop\n              tag_32\n              jump(tag_33)\n            tag_32:\n              mload(0x40)\n              dup1\n              dup3\n              dup2\n              mstore\n              0x20\n              add\n              swap2\n              pop\n              pop\n              mload(0x40)\n              dup1\n              swap2\n              sub\n              swap1\n              return\n                /* \"Project-1-AuctionPlatform/Auction.sol\":3128:3896  function endAuctionWithSelectedBid(uint256 bid)... */\n            tag_9:\n              callvalue\n                /* \"--CODEGEN--\":8:17   */\n              dup1\n                /* \"--CODEGEN--\":5:7   */\n              iszero\n              tag_34\n              jumpi\n                /* \"--CODEGEN--\":30:31   */\n              0x0\n                /* \"--CODEGEN--\":27:28   */\n              dup1\n                /* \"--CODEGEN--\":20:32   */\n              revert\n                /* \"--CODEGEN--\":5:7   */\n            tag_34:\n                /* \"Project-1-AuctionPlatform/Auction.sol\":3128:3896  function endAuctionWithSelectedBid(uint256 bid)... */\n              pop\n              tag_35\n              0x4\n              dup1\n              calldatasize\n              sub\n              dup2\n              add\n              swap1\n              dup1\n              dup1\n              calldataload\n              swap1\n              0x20\n              add\n              swap1\n              swap3\n              swap2\n              swap1\n              pop\n              pop\n              pop\n              jump(tag_36)\n            tag_35:\n              mload(0x40)\n              dup1\n              dup3\n              0xffffffffffffffffffffffffffffffffffffffff\n              and\n              0xffffffffffffffffffffffffffffffffffffffff\n              and\n              dup2\n              mstore\n              0x20\n              add\n              swap2\n              pop\n              pop\n              mload(0x40)\n              dup1\n              swap2\n              sub\n              swap1\n              return\n                /* \"Project-1-AuctionPlatform/Auction.sol\":694:778  function getBidsMade() external view returns (bool) {... */\n            tag_12:\n                /* \"Project-1-AuctionPlatform/Auction.sol\":740:744  bool */\n              0x0\n                /* \"Project-1-AuctionPlatform/Auction.sol\":763:771  bidsMade */\n              0x4\n              0x0\n              swap1\n              sload\n              swap1\n              0x100\n              exp\n              swap1\n              div\n              0xff\n              and\n                /* \"Project-1-AuctionPlatform/Auction.sol\":756:771  return bidsMade */\n              swap1\n              pop\n                /* \"Project-1-AuctionPlatform/Auction.sol\":694:778  function getBidsMade() external view returns (bool) {... */\n              swap1\n              jump\t// out\n                /* \"Project-1-AuctionPlatform/Auction.sol\":2739:3040  function updateBid(uint256 _bidVal) external validBidVal(_bidVal) isActive {... */\n            tag_15:\n                /* \"Project-1-AuctionPlatform/Auction.sol\":2796:2803  _bidVal */\n              dup1\n                /* \"Project-1-AuctionPlatform/Auction.sol\":4974:4983  minBidVal */\n              sload(0x3)\n                /* \"Project-1-AuctionPlatform/Auction.sol\":4964:4971  _bidVal */\n              dup2\n                /* \"Project-1-AuctionPlatform/Auction.sol\":4964:4983  _bidVal > minBidVal */\n              gt\n                /* \"Project-1-AuctionPlatform/Auction.sol\":4943:5078  require(... */\n              iszero\n              iszero\n              tag_39\n              jumpi\n              mload(0x40)\n              0x8c379a000000000000000000000000000000000000000000000000000000000\n              dup2\n              mstore\n              0x4\n              add\n              dup1\n              dup1\n              0x20\n              add\n              dup3\n              dup2\n              sub\n              dup3\n              mstore\n              0x45\n              dup2\n              mstore\n              0x20\n              add\n              dup1\n              0x506c6561736520656e7465722061206269642067726561746572207468616e20\n              dup2\n              mstore\n              0x20\n              add\n              0x6d696e696d756d20726571756972656420626964206f6620676976656e206175\n              dup2\n              mstore\n              0x20\n              add\n              0x6374696f6e000000000000000000000000000000000000000000000000000000\n              dup2\n              mstore\n              pop\n              0x60\n              add\n              swap2\n              pop\n              pop\n              mload(0x40)\n              dup1\n              swap2\n              sub\n              swap1\n              revert\n            tag_39:\n                /* \"Project-1-AuctionPlatform/Auction.sol\":4566:4573  endTime */\n              sload(0x2)\n                /* \"Project-1-AuctionPlatform/Auction.sol\":4548:4563  block.timestamp */\n              timestamp\n                /* \"Project-1-AuctionPlatform/Auction.sol\":4548:4573  block.timestamp < endTime */\n              lt\n                /* \"Project-1-AuctionPlatform/Auction.sol\":4540:4598  require(block.timestamp < endTime, \"Auction is Inactive \") */\n              iszero\n              iszero\n              tag_41\n              jumpi\n              mload(0x40)\n              0x8c379a000000000000000000000000000000000000000000000000000000000\n              dup2\n              mstore\n              0x4\n              add\n              dup1\n              dup1\n              0x20\n              add\n              dup3\n              dup2\n              sub\n              dup3\n              mstore\n              0x14\n              dup2\n              mstore\n              0x20\n              add\n              dup1\n              0x41756374696f6e20697320496e61637469766520000000000000000000000000\n              dup2\n              mstore\n              pop\n              0x20\n              add\n              swap2\n              pop\n              pop\n              mload(0x40)\n              dup1\n              swap2\n              sub\n              swap1\n              revert\n            tag_41:\n                /* \"Project-1-AuctionPlatform/Auction.sol\":2864:2865  0 */\n              0x0\n                /* \"Project-1-AuctionPlatform/Auction.sol\":2845:2849  bids */\n              0x5\n                /* \"Project-1-AuctionPlatform/Auction.sol\":2845:2860  bids[tx.origin] */\n              0x0\n                /* \"Project-1-AuctionPlatform/Auction.sol\":2850:2859  tx.origin */\n              origin\n                /* \"Project-1-AuctionPlatform/Auction.sol\":2845:2860  bids[tx.origin] */\n              0xffffffffffffffffffffffffffffffffffffffff\n              and\n              0xffffffffffffffffffffffffffffffffffffffff\n              and\n              dup2\n              mstore\n              0x20\n              add\n              swap1\n              dup2\n              mstore\n              0x20\n              add\n              0x0\n              keccak256\n              sload\n                /* \"Project-1-AuctionPlatform/Auction.sol\":2845:2865  bids[tx.origin] != 0 */\n              eq\n              iszero\n                /* \"Project-1-AuctionPlatform/Auction.sol\":2824:2950  require(... */\n              iszero\n              iszero\n              tag_43\n              jumpi\n              mload(0x40)\n              0x8c379a000000000000000000000000000000000000000000000000000000000\n              dup2\n              mstore\n              0x4\n              add\n              dup1\n              dup1\n              0x20\n              add\n              dup3\n              dup2\n              sub\n              dup3\n              mstore\n              0x3b\n              dup2\n              mstore\n              0x20\n              add\n              dup1\n              0x596f7520686176656e2774206372656174656420616e79206269642c20757365\n              dup2\n              mstore\n              0x20\n              add\n              0x2063726561746542696420666f72206372656174696e67206f6e650000000000\n              dup2\n              mstore\n              pop\n              0x40\n              add\n              swap2\n              pop\n              pop\n              mload(0x40)\n              dup1\n              swap2\n              sub\n              swap1\n              revert\n            tag_43:\n                /* \"Project-1-AuctionPlatform/Auction.sol\":3026:3033  _bidVal */\n              dup2\n                /* \"Project-1-AuctionPlatform/Auction.sol\":3008:3012  bids */\n              0x5\n                /* \"Project-1-AuctionPlatform/Auction.sol\":3008:3023  bids[tx.origin] */\n              0x0\n                /* \"Project-1-AuctionPlatform/Auction.sol\":3013:3022  tx.origin */\n              origin\n                /* \"Project-1-AuctionPlatform/Auction.sol\":3008:3023  bids[tx.origin] */\n              0xffffffffffffffffffffffffffffffffffffffff\n              and\n              0xffffffffffffffffffffffffffffffffffffffff\n              and\n              dup2\n              mstore\n              0x20\n              add\n              swap1\n              dup2\n              mstore\n              0x20\n              add\n              0x0\n              keccak256\n                /* \"Project-1-AuctionPlatform/Auction.sol\":3008:3033  bids[tx.origin] = _bidVal */\n              dup2\n              swap1\n              sstore\n              pop\n                /* \"Project-1-AuctionPlatform/Auction.sol\":2739:3040  function updateBid(uint256 _bidVal) external validBidVal(_bidVal) isActive {... */\n              pop\n              pop\n              jump\t// out\n                /* \"Project-1-AuctionPlatform/Auction.sol\":834:919  function getEndTime() external view returns (uint256) {... */\n            tag_18:\n                /* \"Project-1-AuctionPlatform/Auction.sol\":879:886  uint256 */\n              0x0\n                /* \"Project-1-AuctionPlatform/Auction.sol\":905:912  endTime */\n              sload(0x2)\n                /* \"Project-1-AuctionPlatform/Auction.sol\":898:912  return endTime */\n              swap1\n              pop\n                /* \"Project-1-AuctionPlatform/Auction.sol\":834:919  function getEndTime() external view returns (uint256) {... */\n              swap1\n              jump\t// out\n                /* \"Project-1-AuctionPlatform/Auction.sol\":2246:2678  function createBid(uint256 _bidVal)... */\n            tag_21:\n                /* \"Project-1-AuctionPlatform/Auction.sol\":2319:2326  _bidVal */\n              dup1\n                /* \"Project-1-AuctionPlatform/Auction.sol\":4974:4983  minBidVal */\n              sload(0x3)\n                /* \"Project-1-AuctionPlatform/Auction.sol\":4964:4971  _bidVal */\n              dup2\n                /* \"Project-1-AuctionPlatform/Auction.sol\":4964:4983  _bidVal > minBidVal */\n              gt\n                /* \"Project-1-AuctionPlatform/Auction.sol\":4943:5078  require(... */\n              iszero\n              iszero\n              tag_46\n              jumpi\n              mload(0x40)\n              0x8c379a000000000000000000000000000000000000000000000000000000000\n              dup2\n              mstore\n              0x4\n              add\n              dup1\n              dup1\n              0x20\n              add\n              dup3\n              dup2\n              sub\n              dup3\n              mstore\n              0x45\n              dup2\n              mstore\n              0x20\n              add\n              dup1\n              0x506c6561736520656e7465722061206269642067726561746572207468616e20\n              dup2\n              mstore\n              0x20\n              add\n              0x6d696e696d756d20726571756972656420626964206f6620676976656e206175\n              dup2\n              mstore\n              0x20\n              add\n              0x6374696f6e000000000000000000000000000000000000000000000000000000\n              dup2\n              mstore\n              pop\n              0x60\n              add\n              swap2\n              pop\n              pop\n              mload(0x40)\n              dup1\n              swap2\n              sub\n              swap1\n              revert\n            tag_46:\n                /* \"Project-1-AuctionPlatform/Auction.sol\":4566:4573  endTime */\n              sload(0x2)\n                /* \"Project-1-AuctionPlatform/Auction.sol\":4548:4563  block.timestamp */\n              timestamp\n                /* \"Project-1-AuctionPlatform/Auction.sol\":4548:4573  block.timestamp < endTime */\n              lt\n                /* \"Project-1-AuctionPlatform/Auction.sol\":4540:4598  require(block.timestamp < endTime, \"Auction is Inactive \") */\n              iszero\n              iszero\n              tag_48\n              jumpi\n              mload(0x40)\n              0x8c379a000000000000000000000000000000000000000000000000000000000\n              dup2\n              mstore\n              0x4\n              add\n              dup1\n              dup1\n              0x20\n              add\n              dup3\n              dup2\n              sub\n              dup3\n              mstore\n              0x14\n              dup2\n              mstore\n              0x20\n              add\n              dup1\n              0x41756374696f6e20697320496e61637469766520000000000000000000000000\n              dup2\n              mstore\n              pop\n              0x20\n              add\n              swap2\n              pop\n              pop\n              mload(0x40)\n              dup1\n              swap2\n              sub\n              swap1\n              revert\n            tag_48:\n                /* \"Project-1-AuctionPlatform/Auction.sol\":4745:4746  0 */\n              0x0\n                /* \"Project-1-AuctionPlatform/Auction.sol\":4726:4730  bids */\n              0x5\n                /* \"Project-1-AuctionPlatform/Auction.sol\":4726:4741  bids[tx.origin] */\n              0x0\n                /* \"Project-1-AuctionPlatform/Auction.sol\":4731:4740  tx.origin */\n              origin\n                /* \"Project-1-AuctionPlatform/Auction.sol\":4726:4741  bids[tx.origin] */\n              0xffffffffffffffffffffffffffffffffffffffff\n              and\n              0xffffffffffffffffffffffffffffffffffffffff\n              and\n              dup2\n              mstore\n              0x20\n              add\n              swap1\n              dup2\n              mstore\n              0x20\n              add\n              0x0\n              keccak256\n              sload\n                /* \"Project-1-AuctionPlatform/Auction.sol\":4726:4746  bids[tx.origin] == 0 */\n              eq\n                /* \"Project-1-AuctionPlatform/Auction.sol\":4718:4781  require(bids[tx.origin] == 0, \"You have already created a bid\") */\n              iszero\n              iszero\n              tag_50\n              jumpi\n              mload(0x40)\n              0x8c379a000000000000000000000000000000000000000000000000000000000\n              dup2\n              mstore\n              0x4\n              add\n              dup1\n              dup1\n              0x20\n              add\n              dup3\n              dup2\n              sub\n              dup3\n              mstore\n              0x1e\n              dup2\n              mstore\n              0x20\n              add\n              dup1\n              0x596f75206861766520616c726561647920637265617465642061206269640000\n              dup2\n              mstore\n              pop\n              0x20\n              add\n              swap2\n              pop\n              pop\n              mload(0x40)\n              dup1\n              swap2\n              sub\n              swap1\n              revert\n            tag_50:\n                /* \"Project-1-AuctionPlatform/Auction.sol\":2391:2395  true */\n              0x1\n                /* \"Project-1-AuctionPlatform/Auction.sol\":2380:2388  bidsMade */\n              0x4\n              0x0\n                /* \"Project-1-AuctionPlatform/Auction.sol\":2380:2395  bidsMade = true */\n              0x100\n              exp\n              dup2\n              sload\n              dup2\n              0xff\n              mul\n              not\n              and\n              swap1\n              dup4\n              iszero\n              iszero\n              mul\n              or\n              swap1\n              sstore\n              pop\n                /* \"Project-1-AuctionPlatform/Auction.sol\":2458:2465  _bidVal */\n              dup2\n                /* \"Project-1-AuctionPlatform/Auction.sol\":2440:2444  bids */\n              0x5\n                /* \"Project-1-AuctionPlatform/Auction.sol\":2440:2455  bids[tx.origin] */\n              0x0\n                /* \"Project-1-AuctionPlatform/Auction.sol\":2445:2454  tx.origin */\n              origin\n                /* \"Project-1-AuctionPlatform/Auction.sol\":2440:2455  bids[tx.origin] */\n              0xffffffffffffffffffffffffffffffffffffffff\n              and\n              0xffffffffffffffffffffffffffffffffffffffff\n              and\n              dup2\n              mstore\n              0x20\n              add\n              swap1\n              dup2\n              mstore\n              0x20\n              add\n              0x0\n              keccak256\n                /* \"Project-1-AuctionPlatform/Auction.sol\":2440:2465  bids[tx.origin] = _bidVal */\n              dup2\n              swap1\n              sstore\n              pop\n                /* \"Project-1-AuctionPlatform/Auction.sol\":2554:2565  biddersList */\n              0x6\n                /* \"Project-1-AuctionPlatform/Auction.sol\":2571:2580  tx.origin */\n              origin\n                /* \"Project-1-AuctionPlatform/Auction.sol\":2554:2581  biddersList.push(tx.origin) */\n              swap1\n              dup1\n                /* \"--CODEGEN--\":39:40   */\n              0x1\n                /* \"--CODEGEN--\":33:36   */\n              dup2\n                /* \"--CODEGEN--\":27:37   */\n              sload\n                /* \"--CODEGEN--\":23:41   */\n              add\n                /* \"--CODEGEN--\":57:67   */\n              dup1\n                /* \"--CODEGEN--\":52:55   */\n              dup3\n                /* \"--CODEGEN--\":45:68   */\n              sstore\n                /* \"--CODEGEN--\":79:89   */\n              dup1\n                /* \"--CODEGEN--\":72:89   */\n              swap2\n              pop\n                /* \"--CODEGEN--\":0:93   */\n              pop\n                /* \"Project-1-AuctionPlatform/Auction.sol\":2554:2581  biddersList.push(tx.origin) */\n              swap1\n              0x1\n              dup3\n              sub\n              swap1\n              0x0\n              mstore\n              keccak256(0x0, 0x20)\n              add\n              0x0\n              swap1\n              swap2\n              swap3\n              swap1\n              swap2\n              swap1\n              swap2\n              0x100\n              exp\n              dup2\n              sload\n              dup2\n              0xffffffffffffffffffffffffffffffffffffffff\n              mul\n              not\n              and\n              swap1\n              dup4\n              0xffffffffffffffffffffffffffffffffffffffff\n              and\n              mul\n              or\n              swap1\n              sstore\n              pop\n              pop\n                /* \"Project-1-AuctionPlatform/Auction.sol\":2246:2678  function createBid(uint256 _bidVal)... */\n              pop\n              pop\n              jump\t// out\n                /* \"Project-1-AuctionPlatform/Auction.sol\":1311:1756  function getListOfBids() external view isActive returns (uint256[]) {... */\n            tag_24:\n                /* \"Project-1-AuctionPlatform/Auction.sol\":1368:1377  uint256[] */\n              0x60\n                /* \"Project-1-AuctionPlatform/Auction.sol\":1449:1470  uint256[] memory list */\n              dup1\n                /* \"Project-1-AuctionPlatform/Auction.sol\":1633:1642  uint256 i */\n              0x0\n                /* \"Project-1-AuctionPlatform/Auction.sol\":4566:4573  endTime */\n              sload(0x2)\n                /* \"Project-1-AuctionPlatform/Auction.sol\":4548:4563  block.timestamp */\n              timestamp\n                /* \"Project-1-AuctionPlatform/Auction.sol\":4548:4573  block.timestamp < endTime */\n              lt\n                /* \"Project-1-AuctionPlatform/Auction.sol\":4540:4598  require(block.timestamp < endTime, \"Auction is Inactive \") */\n              iszero\n              iszero\n              tag_54\n              jumpi\n              mload(0x40)\n              0x8c379a000000000000000000000000000000000000000000000000000000000\n              dup2\n              mstore\n              0x4\n              add\n              dup1\n              dup1\n              0x20\n              add\n              dup3\n              dup2\n              sub\n              dup3\n              mstore\n              0x14\n              dup2\n              mstore\n              0x20\n              add\n              dup1\n              0x41756374696f6e20697320496e61637469766520000000000000000000000000\n              dup2\n              mstore\n              pop\n              0x20\n              add\n              swap2\n              pop\n              pop\n              mload(0x40)\n              dup1\n              swap2\n              sub\n              swap1\n              revert\n            tag_54:\n                /* \"Project-1-AuctionPlatform/Auction.sol\":1487:1498  biddersList */\n              0x6\n                /* \"Project-1-AuctionPlatform/Auction.sol\":1487:1505  biddersList.length */\n              dup1\n              sload\n              swap1\n              pop\n                /* \"Project-1-AuctionPlatform/Auction.sol\":1473:1506  new uint256[](biddersList.length) */\n              mload(0x40)\n              swap1\n              dup1\n              dup3\n              mstore\n              dup1\n              0x20\n              mul\n              0x20\n              add\n              dup3\n              add\n              0x40\n              mstore\n              dup1\n              iszero\n              tag_56\n              jumpi\n              dup2\n              0x20\n              add\n                /* \"--CODEGEN--\":29:31   */\n              0x20\n                /* \"--CODEGEN--\":21:27   */\n              dup3\n                /* \"--CODEGEN--\":17:32   */\n              mul\n                /* \"--CODEGEN--\":117:121   */\n              dup1\n                /* \"--CODEGEN--\":105:115   */\n              codesize\n                /* \"--CODEGEN--\":97:103   */\n              dup4\n                /* \"--CODEGEN--\":88:122   */\n              codecopy\n                /* \"--CODEGEN--\":148:152   */\n              dup1\n                /* \"--CODEGEN--\":140:146   */\n              dup3\n                /* \"--CODEGEN--\":136:153   */\n              add\n                /* \"--CODEGEN--\":126:153   */\n              swap2\n              pop\n                /* \"--CODEGEN--\":0:157   */\n              pop\n                /* \"Project-1-AuctionPlatform/Auction.sol\":1473:1506  new uint256[](biddersList.length) */\n              swap1\n              pop\n            tag_56:\n              pop\n                /* \"Project-1-AuctionPlatform/Auction.sol\":1449:1506  uint256[] memory list = new uint256[](biddersList.length) */\n              swap2\n              pop\n                /* \"Project-1-AuctionPlatform/Auction.sol\":1628:1728  for (uint256 i; i < biddersList.length; i++) {... */\n            tag_57:\n                /* \"Project-1-AuctionPlatform/Auction.sol\":1648:1659  biddersList */\n              0x6\n                /* \"Project-1-AuctionPlatform/Auction.sol\":1648:1666  biddersList.length */\n              dup1\n              sload\n              swap1\n              pop\n                /* \"Project-1-AuctionPlatform/Auction.sol\":1644:1645  i */\n              dup2\n                /* \"Project-1-AuctionPlatform/Auction.sol\":1644:1666  i < biddersList.length */\n              lt\n                /* \"Project-1-AuctionPlatform/Auction.sol\":1628:1728  for (uint256 i; i < biddersList.length; i++) {... */\n              iszero\n              tag_58\n              jumpi\n                /* \"Project-1-AuctionPlatform/Auction.sol\":1697:1701  bids */\n              0x5\n                /* \"Project-1-AuctionPlatform/Auction.sol\":1697:1717  bids[biddersList[i]] */\n              0x0\n                /* \"Project-1-AuctionPlatform/Auction.sol\":1702:1713  biddersList */\n              0x6\n                /* \"Project-1-AuctionPlatform/Auction.sol\":1714:1715  i */\n              dup4\n                /* \"Project-1-AuctionPlatform/Auction.sol\":1702:1716  biddersList[i] */\n              dup2\n              sload\n              dup2\n              lt\n              iszero\n              iszero\n              tag_60\n              jumpi\n              invalid\n            tag_60:\n              swap1\n              0x0\n              mstore\n              keccak256(0x0, 0x20)\n              add\n              0x0\n              swap1\n              sload\n              swap1\n              0x100\n              exp\n              swap1\n              div\n              0xffffffffffffffffffffffffffffffffffffffff\n              and\n                /* \"Project-1-AuctionPlatform/Auction.sol\":1697:1717  bids[biddersList[i]] */\n              0xffffffffffffffffffffffffffffffffffffffff\n              and\n              0xffffffffffffffffffffffffffffffffffffffff\n              and\n              dup2\n              mstore\n              0x20\n              add\n              swap1\n              dup2\n              mstore\n              0x20\n              add\n              0x0\n              keccak256\n              sload\n                /* \"Project-1-AuctionPlatform/Auction.sol\":1687:1691  list */\n              dup3\n                /* \"Project-1-AuctionPlatform/Auction.sol\":1692:1693  i */\n              dup3\n                /* \"Project-1-AuctionPlatform/Auction.sol\":1687:1694  list[i] */\n              dup2\n              mload\n              dup2\n              lt\n              iszero\n              iszero\n              tag_62\n              jumpi\n              invalid\n            tag_62:\n              swap1\n              0x20\n              add\n              swap1\n              0x20\n              mul\n              add\n                /* \"Project-1-AuctionPlatform/Auction.sol\":1687:1717  list[i] = bids[biddersList[i]] */\n              dup2\n              dup2\n              mstore\n              pop\n              pop\n                /* \"Project-1-AuctionPlatform/Auction.sol\":1668:1671  i++ */\n              dup1\n              dup1\n              0x1\n              add\n              swap2\n              pop\n              pop\n                /* \"Project-1-AuctionPlatform/Auction.sol\":1628:1728  for (uint256 i; i < biddersList.length; i++) {... */\n              jump(tag_57)\n            tag_58:\n                /* \"Project-1-AuctionPlatform/Auction.sol\":1745:1749  list */\n              dup2\n                /* \"Project-1-AuctionPlatform/Auction.sol\":1738:1749  return list */\n              swap3\n              pop\n                /* \"Project-1-AuctionPlatform/Auction.sol\":1311:1756  function getListOfBids() external view isActive returns (uint256[]) {... */\n              pop\n              pop\n              swap1\n              jump\t// out\n                /* \"Project-1-AuctionPlatform/Auction.sol\":953:1051  function getMinBidVal() external view isActive returns (uint256) {... */\n            tag_30:\n                /* \"Project-1-AuctionPlatform/Auction.sol\":1009:1016  uint256 */\n              0x0\n                /* \"Project-1-AuctionPlatform/Auction.sol\":4566:4573  endTime */\n              sload(0x2)\n                /* \"Project-1-AuctionPlatform/Auction.sol\":4548:4563  block.timestamp */\n              timestamp\n                /* \"Project-1-AuctionPlatform/Auction.sol\":4548:4573  block.timestamp < endTime */\n              lt\n                /* \"Project-1-AuctionPlatform/Auction.sol\":4540:4598  require(block.timestamp < endTime, \"Auction is Inactive \") */\n              iszero\n              iszero\n              tag_64\n              jumpi\n              mload(0x40)\n              0x8c379a000000000000000000000000000000000000000000000000000000000\n              dup2\n              mstore\n              0x4\n              add\n              dup1\n              dup1\n              0x20\n              add\n              dup3\n              dup2\n              sub\n              dup3\n              mstore\n              0x14\n              dup2\n              mstore\n              0x20\n              add\n              dup1\n              0x41756374696f6e20697320496e61637469766520000000000000000000000000\n              dup2\n              mstore\n              pop\n              0x20\n              add\n              swap2\n              pop\n              pop\n              mload(0x40)\n              dup1\n              swap2\n              sub\n              swap1\n              revert\n            tag_64:\n                /* \"Project-1-AuctionPlatform/Auction.sol\":1035:1044  minBidVal */\n              sload(0x3)\n                /* \"Project-1-AuctionPlatform/Auction.sol\":1028:1044  return minBidVal */\n              swap1\n              pop\n                /* \"Project-1-AuctionPlatform/Auction.sol\":953:1051  function getMinBidVal() external view isActive returns (uint256) {... */\n              swap1\n              jump\t// out\n                /* \"Project-1-AuctionPlatform/Auction.sol\":3959:4384  function getMaximumBid() external view isActive returns (uint256) {... */\n            tag_33:\n                /* \"Project-1-AuctionPlatform/Auction.sol\":4016:4023  uint256 */\n              0x0\n                /* \"Project-1-AuctionPlatform/Auction.sol\":4035:4049  uint256 maxBid */\n              dup1\n                /* \"Project-1-AuctionPlatform/Auction.sol\":4118:4127  uint256 i */\n              0x0\n                /* \"Project-1-AuctionPlatform/Auction.sol\":4566:4573  endTime */\n              sload(0x2)\n                /* \"Project-1-AuctionPlatform/Auction.sol\":4548:4563  block.timestamp */\n              timestamp\n                /* \"Project-1-AuctionPlatform/Auction.sol\":4548:4573  block.timestamp < endTime */\n              lt\n                /* \"Project-1-AuctionPlatform/Auction.sol\":4540:4598  require(block.timestamp < endTime, \"Auction is Inactive \") */\n              iszero\n              iszero\n              tag_67\n              jumpi\n              mload(0x40)\n              0x8c379a000000000000000000000000000000000000000000000000000000000\n              dup2\n              mstore\n              0x4\n              add\n              dup1\n              dup1\n              0x20\n              add\n              dup3\n              dup2\n              sub\n              dup3\n              mstore\n              0x14\n              dup2\n              mstore\n              0x20\n              add\n              dup1\n              0x41756374696f6e20697320496e61637469766520000000000000000000000000\n              dup2\n              mstore\n              pop\n              0x20\n              add\n              swap2\n              pop\n              pop\n              mload(0x40)\n              dup1\n              swap2\n              sub\n              swap1\n              revert\n            tag_67:\n                /* \"Project-1-AuctionPlatform/Auction.sol\":4052:4053  0 */\n              0x0\n                /* \"Project-1-AuctionPlatform/Auction.sol\":4035:4053  uint256 maxBid = 0 */\n              swap2\n              pop\n                /* \"Project-1-AuctionPlatform/Auction.sol\":4113:4355  for (uint256 i; i < biddersList.length; i++) {... */\n            tag_69:\n                /* \"Project-1-AuctionPlatform/Auction.sol\":4133:4144  biddersList */\n              0x6\n                /* \"Project-1-AuctionPlatform/Auction.sol\":4133:4151  biddersList.length */\n              dup1\n              sload\n              swap1\n              pop\n                /* \"Project-1-AuctionPlatform/Auction.sol\":4129:4130  i */\n              dup2\n                /* \"Project-1-AuctionPlatform/Auction.sol\":4129:4151  i < biddersList.length */\n              lt\n                /* \"Project-1-AuctionPlatform/Auction.sol\":4113:4355  for (uint256 i; i < biddersList.length; i++) {... */\n              iszero\n              tag_70\n              jumpi\n                /* \"Project-1-AuctionPlatform/Auction.sol\":4254:4287  max(bids[biddersList[i]], maxBid) */\n              tag_72\n                /* \"Project-1-AuctionPlatform/Auction.sol\":4258:4262  bids */\n              0x5\n                /* \"Project-1-AuctionPlatform/Auction.sol\":4258:4278  bids[biddersList[i]] */\n              0x0\n                /* \"Project-1-AuctionPlatform/Auction.sol\":4263:4274  biddersList */\n              0x6\n                /* \"Project-1-AuctionPlatform/Auction.sol\":4275:4276  i */\n              dup5\n                /* \"Project-1-AuctionPlatform/Auction.sol\":4263:4277  biddersList[i] */\n              dup2\n              sload\n              dup2\n              lt\n              iszero\n              iszero\n              tag_73\n              jumpi\n              invalid\n            tag_73:\n              swap1\n              0x0\n              mstore\n              keccak256(0x0, 0x20)\n              add\n              0x0\n              swap1\n              sload\n              swap1\n              0x100\n              exp\n              swap1\n              div\n              0xffffffffffffffffffffffffffffffffffffffff\n              and\n                /* \"Project-1-AuctionPlatform/Auction.sol\":4258:4278  bids[biddersList[i]] */\n              0xffffffffffffffffffffffffffffffffffffffff\n              and\n              0xffffffffffffffffffffffffffffffffffffffff\n              and\n              dup2\n              mstore\n              0x20\n              add\n              swap1\n              dup2\n              mstore\n              0x20\n              add\n              0x0\n              keccak256\n              sload\n                /* \"Project-1-AuctionPlatform/Auction.sol\":4280:4286  maxBid */\n              dup4\n                /* \"Project-1-AuctionPlatform/Auction.sol\":4254:4257  max */\n              tag_75\n                /* \"Project-1-AuctionPlatform/Auction.sol\":4254:4287  max(bids[biddersList[i]], maxBid) */\n              jump\t// in\n            tag_72:\n                /* \"Project-1-AuctionPlatform/Auction.sol\":4245:4287  maxBid = max(bids[biddersList[i]], maxBid) */\n              swap2\n              pop\n                /* \"Project-1-AuctionPlatform/Auction.sol\":4153:4156  i++ */\n              dup1\n              dup1\n              0x1\n              add\n              swap2\n              pop\n              pop\n                /* \"Project-1-AuctionPlatform/Auction.sol\":4113:4355  for (uint256 i; i < biddersList.length; i++) {... */\n              jump(tag_69)\n            tag_70:\n                /* \"Project-1-AuctionPlatform/Auction.sol\":4371:4377  maxBid */\n              dup2\n                /* \"Project-1-AuctionPlatform/Auction.sol\":4364:4377  return maxBid */\n              swap3\n              pop\n                /* \"Project-1-AuctionPlatform/Auction.sol\":3959:4384  function getMaximumBid() external view isActive returns (uint256) {... */\n              pop\n              pop\n              swap1\n              jump\t// out\n                /* \"Project-1-AuctionPlatform/Auction.sol\":3128:3896  function endAuctionWithSelectedBid(uint256 bid)... */\n            tag_36:\n                /* \"Project-1-AuctionPlatform/Auction.sol\":3246:3253  address */\n              0x0\n                /* \"Project-1-AuctionPlatform/Auction.sol\":3363:3377  address winner */\n              dup1\n                /* \"Project-1-AuctionPlatform/Auction.sol\":3442:3451  uint256 i */\n              0x0\n                /* \"Project-1-AuctionPlatform/Auction.sol\":4566:4573  endTime */\n              sload(0x2)\n                /* \"Project-1-AuctionPlatform/Auction.sol\":4548:4563  block.timestamp */\n              timestamp\n                /* \"Project-1-AuctionPlatform/Auction.sol\":4548:4573  block.timestamp < endTime */\n              lt\n                /* \"Project-1-AuctionPlatform/Auction.sol\":4540:4598  require(block.timestamp < endTime, \"Auction is Inactive \") */\n              iszero\n              iszero\n              tag_77\n              jumpi\n              mload(0x40)\n              0x8c379a000000000000000000000000000000000000000000000000000000000\n              dup2\n              mstore\n              0x4\n              add\n              dup1\n              dup1\n              0x20\n              add\n              dup3\n              dup2\n              sub\n              dup3\n              mstore\n              0x14\n              dup2\n              mstore\n              0x20\n              add\n              dup1\n              0x41756374696f6e20697320496e61637469766520000000000000000000000000\n              dup2\n              mstore\n              pop\n              0x20\n              add\n              swap2\n              pop\n              pop\n              mload(0x40)\n              dup1\n              swap2\n              sub\n              swap1\n              revert\n            tag_77:\n                /* \"Project-1-AuctionPlatform/Auction.sol\":5205:5216  uint256 len */\n              0x0\n                /* \"Project-1-AuctionPlatform/Auction.sol\":5219:5230  biddersList */\n              0x6\n                /* \"Project-1-AuctionPlatform/Auction.sol\":5219:5237  biddersList.length */\n              dup1\n              sload\n              swap1\n              pop\n                /* \"Project-1-AuctionPlatform/Auction.sol\":5205:5237  uint256 len = biddersList.length */\n              swap1\n              pop\n                /* \"Project-1-AuctionPlatform/Auction.sol\":5261:5262  0 */\n              0x0\n                /* \"Project-1-AuctionPlatform/Auction.sol\":5255:5258  len */\n              dup2\n                /* \"Project-1-AuctionPlatform/Auction.sol\":5255:5262  len > 0 */\n              gt\n                /* \"Project-1-AuctionPlatform/Auction.sol\":5247:5306  require(len > 0, \"Can't end as no bids have been made yet\") */\n              iszero\n              iszero\n              tag_79\n              jumpi\n              mload(0x40)\n              0x8c379a000000000000000000000000000000000000000000000000000000000\n              dup2\n              mstore\n              0x4\n              add\n              dup1\n              dup1\n              0x20\n              add\n              dup3\n              dup2\n              sub\n              dup3\n              mstore\n              0x27\n              dup2\n              mstore\n              0x20\n              add\n              dup1\n              0x43616e277420656e64206173206e6f20626964732068617665206265656e206d\n              dup2\n              mstore\n              0x20\n              add\n              0x6164652079657400000000000000000000000000000000000000000000000000\n              dup2\n              mstore\n              pop\n              0x40\n              add\n              swap2\n              pop\n              pop\n              mload(0x40)\n              dup1\n              swap2\n              sub\n              swap1\n              revert\n            tag_79:\n                /* \"Project-1-AuctionPlatform/Auction.sol\":3279:3294  block.timestamp */\n              timestamp\n                /* \"Project-1-AuctionPlatform/Auction.sol\":3269:3276  endTime */\n              0x2\n                /* \"Project-1-AuctionPlatform/Auction.sol\":3269:3294  endTime = block.timestamp */\n              dup2\n              swap1\n              sstore\n              pop\n                /* \"Project-1-AuctionPlatform/Auction.sol\":3454:3455  0 */\n              0x0\n                /* \"Project-1-AuctionPlatform/Auction.sol\":3442:3455  uint256 i = 0 */\n              swap2\n              pop\n                /* \"Project-1-AuctionPlatform/Auction.sol\":3437:3769  for (uint256 i = 0; i < biddersList.length; i++) {... */\n            tag_81:\n                /* \"Project-1-AuctionPlatform/Auction.sol\":3461:3472  biddersList */\n              0x6\n                /* \"Project-1-AuctionPlatform/Auction.sol\":3461:3479  biddersList.length */\n              dup1\n              sload\n              swap1\n              pop\n                /* \"Project-1-AuctionPlatform/Auction.sol\":3457:3458  i */\n              dup3\n                /* \"Project-1-AuctionPlatform/Auction.sol\":3457:3479  i < biddersList.length */\n              lt\n                /* \"Project-1-AuctionPlatform/Auction.sol\":3437:3769  for (uint256 i = 0; i < biddersList.length; i++) {... */\n              iszero\n              tag_82\n              jumpi\n                /* \"Project-1-AuctionPlatform/Auction.sol\":3619:3622  bid */\n              dup5\n                /* \"Project-1-AuctionPlatform/Auction.sol\":3595:3599  bids */\n              0x5\n                /* \"Project-1-AuctionPlatform/Auction.sol\":3595:3615  bids[biddersList[i]] */\n              0x0\n                /* \"Project-1-AuctionPlatform/Auction.sol\":3600:3611  biddersList */\n              0x6\n                /* \"Project-1-AuctionPlatform/Auction.sol\":3612:3613  i */\n              dup6\n                /* \"Project-1-AuctionPlatform/Auction.sol\":3600:3614  biddersList[i] */\n              dup2\n              sload\n              dup2\n              lt\n              iszero\n              iszero\n              tag_84\n              jumpi\n              invalid\n            tag_84:\n              swap1\n              0x0\n              mstore\n              keccak256(0x0, 0x20)\n              add\n              0x0\n              swap1\n              sload\n              swap1\n              0x100\n              exp\n              swap1\n              div\n              0xffffffffffffffffffffffffffffffffffffffff\n              and\n                /* \"Project-1-AuctionPlatform/Auction.sol\":3595:3615  bids[biddersList[i]] */\n              0xffffffffffffffffffffffffffffffffffffffff\n              and\n              0xffffffffffffffffffffffffffffffffffffffff\n              and\n              dup2\n              mstore\n              0x20\n              add\n              swap1\n              dup2\n              mstore\n              0x20\n              add\n              0x0\n              keccak256\n              sload\n                /* \"Project-1-AuctionPlatform/Auction.sol\":3595:3622  bids[biddersList[i]] == bid */\n              eq\n                /* \"Project-1-AuctionPlatform/Auction.sol\":3591:3759  if (bids[biddersList[i]] == bid) {... */\n              iszero\n              tag_86\n              jumpi\n                /* \"Project-1-AuctionPlatform/Auction.sol\":3707:3718  biddersList */\n              0x6\n                /* \"Project-1-AuctionPlatform/Auction.sol\":3719:3720  i */\n              dup3\n                /* \"Project-1-AuctionPlatform/Auction.sol\":3707:3721  biddersList[i] */\n              dup2\n              sload\n              dup2\n              lt\n              iszero\n              iszero\n              tag_87\n              jumpi\n              invalid\n            tag_87:\n              swap1\n              0x0\n              mstore\n              keccak256(0x0, 0x20)\n              add\n              0x0\n              swap1\n              sload\n              swap1\n              0x100\n              exp\n              swap1\n              div\n              0xffffffffffffffffffffffffffffffffffffffff\n              and\n                /* \"Project-1-AuctionPlatform/Auction.sol\":3698:3721  winner = biddersList[i] */\n              swap3\n              pop\n                /* \"Project-1-AuctionPlatform/Auction.sol\":3739:3744  break */\n              jump(tag_82)\n                /* \"Project-1-AuctionPlatform/Auction.sol\":3591:3759  if (bids[biddersList[i]] == bid) {... */\n            tag_86:\n                /* \"Project-1-AuctionPlatform/Auction.sol\":3481:3484  i++ */\n              dup2\n              dup1\n              0x1\n              add\n              swap3\n              pop\n              pop\n                /* \"Project-1-AuctionPlatform/Auction.sol\":3437:3769  for (uint256 i = 0; i < biddersList.length; i++) {... */\n              jump(tag_81)\n            tag_82:\n                /* \"Project-1-AuctionPlatform/Auction.sol\":3804:3805  0 */\n              0x0\n                /* \"Project-1-AuctionPlatform/Auction.sol\":3786:3806  winner != address(0) */\n              0xffffffffffffffffffffffffffffffffffffffff\n              and\n                /* \"Project-1-AuctionPlatform/Auction.sol\":3786:3792  winner */\n              dup4\n                /* \"Project-1-AuctionPlatform/Auction.sol\":3786:3806  winner != address(0) */\n              0xffffffffffffffffffffffffffffffffffffffff\n              and\n              eq\n              iszero\n                /* \"Project-1-AuctionPlatform/Auction.sol\":3778:3837  require(winner != address(0), \"This bid has not been made\") */\n              iszero\n              iszero\n              tag_89\n              jumpi\n              mload(0x40)\n              0x8c379a000000000000000000000000000000000000000000000000000000000\n              dup2\n              mstore\n              0x4\n              add\n              dup1\n              dup1\n              0x20\n              add\n              dup3\n              dup2\n              sub\n              dup3\n              mstore\n              0x1a\n              dup2\n              mstore\n              0x20\n              add\n              dup1\n              0x546869732062696420686173206e6f74206265656e206d616465000000000000\n              dup2\n              mstore\n              pop\n              0x20\n              add\n              swap2\n              pop\n              pop\n              mload(0x40)\n              dup1\n              swap2\n              sub\n              swap1\n              revert\n            tag_89:\n                /* \"Project-1-AuctionPlatform/Auction.sol\":3883:3889  winner */\n              dup3\n                /* \"Project-1-AuctionPlatform/Auction.sol\":3876:3889  return winner */\n              swap4\n              pop\n                /* \"Project-1-AuctionPlatform/Auction.sol\":4608:4609  _ */\n              pop\n                /* \"Project-1-AuctionPlatform/Auction.sol\":3128:3896  function endAuctionWithSelectedBid(uint256 bid)... */\n              pop\n              pop\n              swap2\n              swap1\n              pop\n              jump\t// out\n                /* \"Project-1-AuctionPlatform/Auction.sol\":1144:1249  function max(uint256 a, uint256 b) internal pure returns (uint256) {... */\n            tag_75:\n                /* \"Project-1-AuctionPlatform/Auction.sol\":1202:1209  uint256 */\n              0x0\n                /* \"Project-1-AuctionPlatform/Auction.sol\":1233:1234  b */\n              dup2\n                /* \"Project-1-AuctionPlatform/Auction.sol\":1228:1229  a */\n              dup4\n                /* \"Project-1-AuctionPlatform/Auction.sol\":1228:1234  a >= b */\n              lt\n              iszero\n                /* \"Project-1-AuctionPlatform/Auction.sol\":1228:1242  a >= b ? a : b */\n              tag_91\n              jumpi\n                /* \"Project-1-AuctionPlatform/Auction.sol\":1241:1242  b */\n              dup2\n                /* \"Project-1-AuctionPlatform/Auction.sol\":1228:1242  a >= b ? a : b */\n              jump(tag_92)\n            tag_91:\n                /* \"Project-1-AuctionPlatform/Auction.sol\":1237:1238  a */\n              dup3\n                /* \"Project-1-AuctionPlatform/Auction.sol\":1228:1242  a >= b ? a : b */\n            tag_92:\n                /* \"Project-1-AuctionPlatform/Auction.sol\":1221:1242  return a >= b ? a : b */\n              swap1\n              pop\n                /* \"Project-1-AuctionPlatform/Auction.sol\":1144:1249  function max(uint256 a, uint256 b) internal pure returns (uint256) {... */\n              swap3\n              swap2\n              pop\n              pop\n              jump\t// out\n\n            auxdata: 0xa165627a7a723058207f62320aba502ff94da3446bc7475aacca121b77504ee869e2d74e2033a9b4380029\n        }\n    }\n\n    auxdata: 0xa165627a7a723058209adf0186da18acd7fbe97404b9b264b12bbe125255c51402e759c29d0fa865d50029\n}\n",
				"bytecode": {
					"linkReferences": {},
					"object": "60806040526000805534801561001457600080fd5b50613160806100246000396000f3006080604052600436106100a4576000357c0100000000000000000000000000000000000000000000000000000000900463ffffffff16806325c0cdaa146100a957806360365e0c146100d4578063617fbce91461010b5780637e12a2511461014c5780639f63512014610177578063b9a2de3a146101ae578063d1fda965146101db578063e3a57e6514610247578063f2f58fcf146102f6578063fe67a54b14610362575b600080fd5b3480156100b557600080fd5b506100be6103b9565b6040518082815260200191505060405180910390f35b3480156100e057600080fd5b5061010960048036038101908080359060200190929190803590602001909291905050506103bf565b005b34801561011757600080fd5b5061013660048036038101908080359060200190929190505050610611565b6040518082815260200191505060405180910390f35b34801561015857600080fd5b50610161610891565b6040518082815260200191505060405180910390f35b34801561018357600080fd5b506101ac6004803603810190808035906020019092919080359060200190929190505050610c05565b005b3480156101ba57600080fd5b506101d9600480360381019080803590602001909291905050506110e2565b005b3480156101e757600080fd5b506101f06112fe565b6040518080602001828103825283818151815260200191508051906020019060200280838360005b83811015610233578082015181840152602081019050610218565b505050509050019250505060405180910390f35b34801561025357600080fd5b506102f4600480360381019080803590602001908201803590602001908080601f01602080910402602001604051908101604052809392919081815260200183838082843782019150505050505091929192908035906020019092919080359060200190929190803590602001909291908035906020019092919080359060200190929190803590602001909291908035906020019092919050505061144e565b005b34801561030257600080fd5b5061030b6118ca565b6040518080602001828103825283818151815260200191508051906020019060200280838360005b8381101561034e578082015181840152602081019050610333565b505050509050019250505060405180910390f35b34801561036e57600080fd5b50610377611c95565b604051808273ffffffffffffffffffffffffffffffffffffffff1673ffffffffffffffffffffffffffffffffffffffff16815260200191505060405180910390f35b60005481565b8160658110801561049d5750426001826065811015156103db57fe5b0160009054906101000a900473ffffffffffffffffffffffffffffffffffffffff1673ffffffffffffffffffffffffffffffffffffffff1663439f5ac26040518163ffffffff167c0100000000000000000000000000000000000000000000000000000000028152600401602060405180830381600087803b15801561046057600080fd5b505af1158015610474573d6000803e3d6000fd5b505050506040513d602081101561048a57600080fd5b8101908080519060200190929190505050115b1515610511576040517f08c379a00000000000000000000000000000000000000000000000000000000081526004018080602001828103825260138152602001807f41756374696f6e20697320496e6163746976650000000000000000000000000081525060200191505060405180910390fd5b60018360658110151561052057fe5b0160009054906101000a900473ffffffffffffffffffffffffffffffffffffffff1673ffffffffffffffffffffffffffffffffffffffff166343129de1836040518263ffffffff167c010000000000000000000000000000000000000000000000000000000002815260040180828152602001915050600060405180830381600087803b1580156105b057600080fd5b505af11580156105c4573d6000803e3d6000fd5b50505050823373ffffffffffffffffffffffffffffffffffffffff167fb722ccec10268690bf7ef3a9603076baf9b304a59def91157d4a80c98d557aae60405160405180910390a3505050565b60006001606660003373ffffffffffffffffffffffffffffffffffffffff1673ffffffffffffffffffffffffffffffffffffffff1681526020019081526020016000205460658110151561066157fe5b0160009054906101000a900473ffffffffffffffffffffffffffffffffffffffff1673ffffffffffffffffffffffffffffffffffffffff1663409766e66040518163ffffffff167c0100000000000000000000000000000000000000000000000000000000028152600401602060405180830381600087803b1580156106e657600080fd5b505af11580156106fa573d6000803e3d6000fd5b505050506040513d602081101561071057600080fd5b810190808051906020019092919050505015156107bb576040517f08c379a00000000000000000000000000000000000000000000000000000000081526004018080602001828103825260248152602001807f5468657265206172656e277420616e792062696473206f6e207468652041756381526020017f74696f6e0000000000000000000000000000000000000000000000000000000081525060400191505060405180910390fd5b6001826065811015156107ca57fe5b0160009054906101000a900473ffffffffffffffffffffffffffffffffffffffff1673ffffffffffffffffffffffffffffffffffffffff1663dd06ba1a6040518163ffffffff167c0100000000000000000000000000000000000000000000000000000000028152600401602060405180830381600087803b15801561084f57600080fd5b505af1158015610863573d6000803e3d6000fd5b505050506040513d602081101561087957600080fd5b81019080805190602001909291905050509050919050565b600080606660003373ffffffffffffffffffffffffffffffffffffffff1673ffffffffffffffffffffffffffffffffffffffff168152602001908152602001600020541415151561094a576040517f08c379a00000000000000000000000000000000000000000000000000000000081526004018080602001828103825260208152602001807f596f7520686176656e2774206372656174656420616e792041756374696f6e7381525060200191505060405180910390fd5b6001606660003373ffffffffffffffffffffffffffffffffffffffff1673ffffffffffffffffffffffffffffffffffffffff1681526020019081526020016000205460658110151561099857fe5b0160009054906101000a900473ffffffffffffffffffffffffffffffffffffffff1673ffffffffffffffffffffffffffffffffffffffff1663409766e66040518163ffffffff167c0100000000000000000000000000000000000000000000000000000000028152600401602060405180830381600087803b158015610a1d57600080fd5b505af1158015610a31573d6000803e3d6000fd5b505050506040513d6020811015610a4757600080fd5b81019080805190602001909291905050501515610af2576040517f08c379a00000000000000000000000000000000000000000000000000000000081526004018080602001828103825260248152602001807f5468657265206172656e277420616e792062696473206f6e207468652041756381526020017f74696f6e0000000000000000000000000000000000000000000000000000000081525060400191505060405180910390fd5b6001606660003373ffffffffffffffffffffffffffffffffffffffff1673ffffffffffffffffffffffffffffffffffffffff16815260200190815260200160002054606581101515610b4057fe5b0160009054906101000a900473ffffffffffffffffffffffffffffffffffffffff1673ffffffffffffffffffffffffffffffffffffffff1663dd06ba1a6040518163ffffffff167c0100000000000000000000000000000000000000000000000000000000028152600401602060405180830381600087803b158015610bc557600080fd5b505af1158015610bd9573d6000803e3d6000fd5b505050506040513d6020811015610bef57600080fd5b8101908080519060200190929190505050905090565b81606581108015610ce3575042600182606581101515610c2157fe5b0160009054906101000a900473ffffffffffffffffffffffffffffffffffffffff1673ffffffffffffffffffffffffffffffffffffffff1663439f5ac26040518163ffffffff167c0100000000000000000000000000000000000000000000000000000000028152600401602060405180830381600087803b158015610ca657600080fd5b505af1158015610cba573d6000803e3d6000fd5b505050506040513d6020811015610cd057600080fd5b8101908080519060200190929190505050115b1515610d57576040517f08c379a00000000000000000000000000000000000000000000000000000000081526004018080602001828103825260138152602001807f41756374696f6e20697320496e6163746976650000000000000000000000000081525060200191505060405180910390fd5b81600184606581101515610d6757fe5b0160009054906101000a900473ffffffffffffffffffffffffffffffffffffffff1673ffffffffffffffffffffffffffffffffffffffff1663ad9346746040518163ffffffff167c0100000000000000000000000000000000000000000000000000000000028152600401602060405180830381600087803b158015610dec57600080fd5b505af1158015610e00573d6000803e3d6000fd5b505050506040513d6020811015610e1657600080fd5b8101908080519060200190929190505050101515610ec2576040517f08c379a000000000000000000000000000000000000000000000000000000000815260040180806020018281038252603a8152602001807f4269642076616c75652063616e6e6f74206265206c657373207468616e206d6981526020017f6e696e756d206269642076616c7565206f662061756374696f6e00000000000081525060400191505060405180910390fd5b82606660003373ffffffffffffffffffffffffffffffffffffffff1673ffffffffffffffffffffffffffffffffffffffff1681526020019081526020016000205414151515610f79576040517f08c379a00000000000000000000000000000000000000000000000000000000081526004018080602001828103825260188152602001807f43616e277420626964206f6e206f776e2041756374696f6e000000000000000081525060200191505060405180910390fd5b600183606581101515610f8857fe5b0160009054906101000a900473ffffffffffffffffffffffffffffffffffffffff1673ffffffffffffffffffffffffffffffffffffffff1663659dd2b4836040518263ffffffff167c010000000000000000000000000000000000000000000000000000000002815260040180828152602001915050600060405180830381600087803b15801561101857600080fd5b505af115801561102c573d6000803e3d6000fd5b50505050606760003373ffffffffffffffffffffffffffffffffffffffff1673ffffffffffffffffffffffffffffffffffffffff168152602001908152602001600020839080600181540180825580915050906001820390600052602060002001600090919290919091505550823373ffffffffffffffffffffffffffffffffffffffff167f248176d18d0b2664c1964de940d9d88115d4d632e9047ec131dc7cfd5b41535e60405160405180910390a3505050565b600080606660003373ffffffffffffffffffffffffffffffffffffffff1673ffffffffffffffffffffffffffffffffffffffff168152602001908152602001600020541415151561119b576040517f08c379a00000000000000000000000000000000000000000000000000000000081526004018080602001828103825260208152602001807f596f7520686176656e2774206372656174656420616e792041756374696f6e7381525060200191505060405180910390fd5b6001606660003373ffffffffffffffffffffffffffffffffffffffff1673ffffffffffffffffffffffffffffffffffffffff168152602001908152602001600020546065811015156111e957fe5b0160009054906101000a900473ffffffffffffffffffffffffffffffffffffffff1673ffffffffffffffffffffffffffffffffffffffff1663dee37a8e836040518263ffffffff167c010000000000000000000000000000000000000000000000000000000002815260040180828152602001915050602060405180830381600087803b15801561127957600080fd5b505af115801561128d573d6000803e3d6000fd5b505050506040513d60208110156112a357600080fd5b81019080805190602001909291905050509050818173ffffffffffffffffffffffffffffffffffffffff167f6e0e2174dbf7b77c08b6f9a2799b9feda84a6d54a5644864582040100a47d4c560405160405180910390a35050565b60606000606760003373ffffffffffffffffffffffffffffffffffffffff1673ffffffffffffffffffffffffffffffffffffffff16815260200190815260200160002080549050141515156113bb576040517f08c379a00000000000000000000000000000000000000000000000000000000081526004018080602001828103825260178152602001807f596f7520646f6e2774206861766520616e79204269647300000000000000000081525060200191505060405180910390fd5b606760003373ffffffffffffffffffffffffffffffffffffffff1673ffffffffffffffffffffffffffffffffffffffff16815260200190815260200160002080548060200260200160405190810160405280929190818152602001828054801561144457602002820191906000526020600020905b815481526020019060010190808311611430575b5050505050905090565b600080600080606660003373ffffffffffffffffffffffffffffffffffffffff1673ffffffffffffffffffffffffffffffffffffffff1681526020019081526020016000205414151561152f576040517f08c379a00000000000000000000000000000000000000000000000000000000081526004018080602001828103825260238152602001807f596f75206861766520616c7265616479206372656174656420616e204175637481526020017f696f6e000000000000000000000000000000000000000000000000000000000081525060400191505060405180910390fd5b61153f8a8a8a6000806000611fc8565b15156115b3576040517f08c379a00000000000000000000000000000000000000000000000000000000081526004018080602001828103825260168152602001807f456e7465722056616c696420537461727420446174650000000000000000000081525060200191505060405180910390fd5b6115c38787876000806000611fc8565b1515611637576040517f08c379a00000000000000000000000000000000000000000000000000000000081526004018080602001828103825260148152602001807f456e7465722056616c696420456e64204461746500000000000000000000000081525060200191505060405180910390fd5b6116428a8a8a61200b565b925061164f87878761200b565b9150824210801561165f57508142105b801561166a57508183105b1515611704576040517f08c379a000000000000000000000000000000000000000000000000000000000815260040180806020018281038252602e8152602001807f20506c6561736520656e74657220612076616c696420696e74657276616c206681526020017f6f72207468652041756374696f6e00000000000000000000000000000000000081525060400191505060405180910390fd5b6001600054016000819055508a83838661171c61220f565b8080602001858152602001848152602001838152602001828103825286818151815260200191508051906020019080838360005b8381101561176b578082015181840152602081019050611750565b50505050905090810190601f1680156117985780820380516001836020036101000a031916815260200191505b5095505050505050604051809103906000f0801580156117bc573d6000803e3d6000fd5b5090508060016000546065811015156117d157fe5b0160006101000a81548173ffffffffffffffffffffffffffffffffffffffff021916908373ffffffffffffffffffffffffffffffffffffffff160217905550600054606660003373ffffffffffffffffffffffffffffffffffffffff1673ffffffffffffffffffffffffffffffffffffffff16815260200190815260200160002081905550426000547f737a59893603ef25305aef11ac201c15bb5fa4f4195223c5dd6910985778150433604051808273ffffffffffffffffffffffffffffffffffffffff1673ffffffffffffffffffffffffffffffffffffffff16815260200191505060405180910390a35050505050505050505050565b60606000606660003373ffffffffffffffffffffffffffffffffffffffff1673ffffffffffffffffffffffffffffffffffffffff1681526020019081526020016000205414151515611984576040517f08c379a00000000000000000000000000000000000000000000000000000000081526004018080602001828103825260208152602001807f596f7520686176656e2774206372656174656420616e792041756374696f6e7381525060200191505060405180910390fd5b6001606660003373ffffffffffffffffffffffffffffffffffffffff1673ffffffffffffffffffffffffffffffffffffffff168152602001908152602001600020546065811015156119d257fe5b0160009054906101000a900473ffffffffffffffffffffffffffffffffffffffff1673ffffffffffffffffffffffffffffffffffffffff1663409766e66040518163ffffffff167c0100000000000000000000000000000000000000000000000000000000028152600401602060405180830381600087803b158015611a5757600080fd5b505af1158015611a6b573d6000803e3d6000fd5b505050506040513d6020811015611a8157600080fd5b81019080805190602001909291905050501515611b2c576040517f08c379a00000000000000000000000000000000000000000000000000000000081526004018080602001828103825260248152602001807f5468657265206172656e277420616e792062696473206f6e207468652041756381526020017f74696f6e0000000000000000000000000000000000000000000000000000000081525060400191505060405180910390fd5b6001606660003373ffffffffffffffffffffffffffffffffffffffff1673ffffffffffffffffffffffffffffffffffffffff16815260200190815260200160002054606581101515611b7a57fe5b0160009054906101000a900473ffffffffffffffffffffffffffffffffffffffff1673ffffffffffffffffffffffffffffffffffffffff1663679dbf0c6040518163ffffffff167c0100000000000000000000000000000000000000000000000000000000028152600401600060405180830381600087803b158015611bff57600080fd5b505af1158015611c13573d6000803e3d6000fd5b505050506040513d6000823e3d601f19601f820116820180604052506020811015611c3d57600080fd5b810190808051640100000000811115611c5557600080fd5b82810190506020810184811115611c6b57600080fd5b8151856020820283011164010000000082111715611c8857600080fd5b5050929190505050905090565b600080600080606660003373ffffffffffffffffffffffffffffffffffffffff1673ffffffffffffffffffffffffffffffffffffffff1681526020019081526020016000205414151515611d51576040517f08c379a00000000000000000000000000000000000000000000000000000000081526004018080602001828103825260208152602001807f596f7520686176656e2774206372656174656420616e792041756374696f6e7381525060200191505060405180910390fd5b6001606660003373ffffffffffffffffffffffffffffffffffffffff1673ffffffffffffffffffffffffffffffffffffffff16815260200190815260200160002054606581101515611d9f57fe5b0160009054906101000a900473ffffffffffffffffffffffffffffffffffffffff1673ffffffffffffffffffffffffffffffffffffffff1663dd06ba1a6040518163ffffffff167c0100000000000000000000000000000000000000000000000000000000028152600401602060405180830381600087803b158015611e2457600080fd5b505af1158015611e38573d6000803e3d6000fd5b505050506040513d6020811015611e4e57600080fd5b810190808051906020019092919050505091506001606660003373ffffffffffffffffffffffffffffffffffffffff1673ffffffffffffffffffffffffffffffffffffffff16815260200190815260200160002054606581101515611eaf57fe5b0160009054906101000a900473ffffffffffffffffffffffffffffffffffffffff1673ffffffffffffffffffffffffffffffffffffffff1663dee37a8e836040518263ffffffff167c010000000000000000000000000000000000000000000000000000000002815260040180828152602001915050602060405180830381600087803b158015611f3f57600080fd5b505af1158015611f53573d6000803e3d6000fd5b505050506040513d6020811015611f6957600080fd5b81019080805190602001909291905050509050818173ffffffffffffffffffffffffffffffffffffffff167f6e0e2174dbf7b77c08b6f9a2799b9feda84a6d54a5644864582040100a47d4c560405160405180910390a3809250505090565b6000611fd5878787612026565b1561200157601884108015611fea5750603c83105b8015611ff65750603c82105b1561200057600190505b5b9695505050505050565b60006201518061201c85858561207c565b0290509392505050565b6000806107b2851015801561203b5750600084115b80156120485750600c8411155b15612074576120578585612139565b90506000831180156120695750808311155b1561207357600191505b5b509392505050565b60008060008060006107b2881015151561209557600080fd5b87935086925085915062253d8c60046064600c600e87038115156120b557fe5b056113248801018115156120c557fe5b056003028115156120d257fe5b05600c80600c600e88038115156120e557fe5b0502600287030361016f028115156120f957fe5b056004600c600e880381151561210b57fe5b056112c08901016105b50281151561211f57fe5b05617d4b8603010103039050809450505050509392505050565b6000600182148061214a5750600382145b806121555750600582145b806121605750600782145b8061216b5750600882145b806121765750600a82145b806121815750600c82145b1561218f57601f90506121c0565b6002821415156121a257601e90506121bf565b6121ab836121c6565b6121b657601c6121b9565b601d5b60ff1690505b5b92915050565b6000806004838115156121d557fe5b061480156121f0575060006064838115156121ec57fe5b0614155b80612208575060006101908381151561220557fe5b06145b9050919050565b604051610f148062002221833901905600608060405234801561001057600080fd5b50604051610f14380380610f1483398101806040528101908080518201929190602001805190602001909291908051906020019092919080519060200190929190505050836000908051906020019061006a929190610089565b508260018190555081600281905550806003819055505050505061012e565b828054600181600116156101000203166002900490600052602060002090601f016020900481019282601f106100ca57805160ff19168380011785556100f8565b828001600101855582156100f8579182015b828111156100f75782518255916020019190600101906100dc565b5b5090506101059190610109565b5090565b61012b91905b8082111561012757600081600090555060010161010f565b5090565b90565b610dd78061013d6000396000f30060806040526004361061008e576000357c0100000000000000000000000000000000000000000000000000000000900463ffffffff168063409766e61461009357806343129de1146100c2578063439f5ac2146100ef578063659dd2b41461011a578063679dbf0c14610147578063ad934674146101b3578063dd06ba1a146101de578063dee37a8e14610209575b600080fd5b34801561009f57600080fd5b506100a8610276565b604051808215151515815260200191505060405180910390f35b3480156100ce57600080fd5b506100ed6004803603810190808035906020019092919050505061028d565b005b3480156100fb57600080fd5b506101046104f2565b6040518082815260200191505060405180910390f35b34801561012657600080fd5b50610145600480360381019080803590602001909291905050506104fc565b005b34801561015357600080fd5b5061015c6107bb565b6040518080602001828103825283818151815260200191508051906020019060200280838360005b8381101561019f578082015181840152602081019050610184565b505050509050019250505060405180910390f35b3480156101bf57600080fd5b506101c8610928565b6040518082815260200191505060405180910390f35b3480156101ea57600080fd5b506101f36109ab565b6040518082815260200191505060405180910390f35b34801561021557600080fd5b5061023460048036038101908080359060200190929190505050610ad4565b604051808273ffffffffffffffffffffffffffffffffffffffff1673ffffffffffffffffffffffffffffffffffffffff16815260200191505060405180910390f35b6000600460009054906101000a900460ff16905090565b8060035481111515610353576040517f08c379a00000000000000000000000000000000000000000000000000000000081526004018080602001828103825260458152602001807f506c6561736520656e7465722061206269642067726561746572207468616e2081526020017f6d696e696d756d20726571756972656420626964206f6620676976656e20617581526020017f6374696f6e00000000000000000000000000000000000000000000000000000081525060600191505060405180910390fd5b600254421015156103cc576040517f08c379a00000000000000000000000000000000000000000000000000000000081526004018080602001828103825260148152602001807f41756374696f6e20697320496e6163746976652000000000000000000000000081525060200191505060405180910390fd5b6000600560003273ffffffffffffffffffffffffffffffffffffffff1673ffffffffffffffffffffffffffffffffffffffff16815260200190815260200160002054141515156104aa576040517f08c379a000000000000000000000000000000000000000000000000000000000815260040180806020018281038252603b8152602001807f596f7520686176656e2774206372656174656420616e79206269642c2075736581526020017f2063726561746542696420666f72206372656174696e67206f6e65000000000081525060400191505060405180910390fd5b81600560003273ffffffffffffffffffffffffffffffffffffffff1673ffffffffffffffffffffffffffffffffffffffff168152602001908152602001600020819055505050565b6000600254905090565b80600354811115156105c2576040517f08c379a00000000000000000000000000000000000000000000000000000000081526004018080602001828103825260458152602001807f506c6561736520656e7465722061206269642067726561746572207468616e2081526020017f6d696e696d756d20726571756972656420626964206f6620676976656e20617581526020017f6374696f6e00000000000000000000000000000000000000000000000000000081525060600191505060405180910390fd5b6002544210151561063b576040517f08c379a00000000000000000000000000000000000000000000000000000000081526004018080602001828103825260148152602001807f41756374696f6e20697320496e6163746976652000000000000000000000000081525060200191505060405180910390fd5b6000600560003273ffffffffffffffffffffffffffffffffffffffff1673ffffffffffffffffffffffffffffffffffffffff168152602001908152602001600020541415156106f2576040517f08c379a000000000000000000000000000000000000000000000000000000000815260040180806020018281038252601e8152602001807f596f75206861766520616c72656164792063726561746564206120626964000081525060200191505060405180910390fd5b6001600460006101000a81548160ff02191690831515021790555081600560003273ffffffffffffffffffffffffffffffffffffffff1673ffffffffffffffffffffffffffffffffffffffff1681526020019081526020016000208190555060063290806001815401808255809150509060018203906000526020600020016000909192909190916101000a81548173ffffffffffffffffffffffffffffffffffffffff021916908373ffffffffffffffffffffffffffffffffffffffff160217905550505050565b606080600060025442101515610839576040517f08c379a00000000000000000000000000000000000000000000000000000000081526004018080602001828103825260148152602001807f41756374696f6e20697320496e6163746976652000000000000000000000000081525060200191505060405180910390fd5b60068054905060405190808252806020026020018201604052801561086d5781602001602082028038833980820191505090505b5091505b600680549050811015610920576005600060068381548110151561089157fe5b9060005260206000200160009054906101000a900473ffffffffffffffffffffffffffffffffffffffff1673ffffffffffffffffffffffffffffffffffffffff1673ffffffffffffffffffffffffffffffffffffffff16815260200190815260200160002054828281518110151561090557fe5b90602001906020020181815250508080600101915050610871565b819250505090565b6000600254421015156109a3576040517f08c379a00000000000000000000000000000000000000000000000000000000081526004018080602001828103825260148152602001807f41756374696f6e20697320496e6163746976652000000000000000000000000081525060200191505060405180910390fd5b600354905090565b600080600060025442101515610a29576040517f08c379a00000000000000000000000000000000000000000000000000000000081526004018080602001828103825260148152602001807f41756374696f6e20697320496e6163746976652000000000000000000000000081525060200191505060405180910390fd5b600091505b600680549050811015610acc57610abd60056000600684815481101515610a5157fe5b9060005260206000200160009054906101000a900473ffffffffffffffffffffffffffffffffffffffff1673ffffffffffffffffffffffffffffffffffffffff1673ffffffffffffffffffffffffffffffffffffffff1681526020019081526020016000205483610d91565b91508080600101915050610a2e565b819250505090565b600080600060025442101515610b52576040517f08c379a00000000000000000000000000000000000000000000000000000000081526004018080602001828103825260148152602001807f41756374696f6e20697320496e6163746976652000000000000000000000000081525060200191505060405180910390fd5b60006006805490509050600081111515610bfa576040517f08c379a00000000000000000000000000000000000000000000000000000000081526004018080602001828103825260278152602001807f43616e277420656e64206173206e6f20626964732068617665206265656e206d81526020017f616465207965740000000000000000000000000000000000000000000000000081525060400191505060405180910390fd5b42600281905550600091505b600680549050821015610ce1578460056000600685815481101515610c2757fe5b9060005260206000200160009054906101000a900473ffffffffffffffffffffffffffffffffffffffff1673ffffffffffffffffffffffffffffffffffffffff1673ffffffffffffffffffffffffffffffffffffffff168152602001908152602001600020541415610cd457600682815481101515610ca257fe5b9060005260206000200160009054906101000a900473ffffffffffffffffffffffffffffffffffffffff169250610ce1565b8180600101925050610c06565b600073ffffffffffffffffffffffffffffffffffffffff168373ffffffffffffffffffffffffffffffffffffffff1614151515610d86576040517f08c379a000000000000000000000000000000000000000000000000000000000815260040180806020018281038252601a8152602001807f546869732062696420686173206e6f74206265656e206d61646500000000000081525060200191505060405180910390fd5b829350505050919050565b600081831015610da15781610da3565b825b9050929150505600a165627a7a723058207f62320aba502ff94da3446bc7475aacca121b77504ee869e2d74e2033a9b4380029a165627a7a723058209adf0186da18acd7fbe97404b9b264b12bbe125255c51402e759c29d0fa865d50029",
					"opcodes": "PUSH1 0x80 PUSH1 0x40 MSTORE PUSH1 0x0 DUP1 SSTORE CALLVALUE DUP1 ISZERO PUSH2 0x14 JUMPI PUSH1 0x0 DUP1 REVERT JUMPDEST POP PUSH2 0x3160 DUP1 PUSH2 0x24 PUSH1 0x0 CODECOPY PUSH1 0x0 RETURN STOP PUSH1 0x80 PUSH1 0x40 MSTORE PUSH1 0x4 CALLDATASIZE LT PUSH2 0xA4 JUMPI PUSH1 0x0 CALLDATALOAD PUSH29 0x100000000000000000000000000000000000000000000000000000000 SWAP1 DIV PUSH4 0xFFFFFFFF AND DUP1 PUSH4 0x25C0CDAA EQ PUSH2 0xA9 JUMPI DUP1 PUSH4 0x60365E0C EQ PUSH2 0xD4 JUMPI DUP1 PUSH4 0x617FBCE9 EQ PUSH2 0x10B JUMPI DUP1 PUSH4 0x7E12A251 EQ PUSH2 0x14C JUMPI DUP1 PUSH4 0x9F635120 EQ PUSH2 0x177 JUMPI DUP1 PUSH4 0xB9A2DE3A EQ PUSH2 0x1AE JUMPI DUP1 PUSH4 0xD1FDA965 EQ PUSH2 0x1DB JUMPI DUP1 PUSH4 0xE3A57E65 EQ PUSH2 0x247 JUMPI DUP1 PUSH4 0xF2F58FCF EQ PUSH2 0x2F6 JUMPI DUP1 PUSH4 0xFE67A54B EQ PUSH2 0x362 JUMPI JUMPDEST PUSH1 0x0 DUP1 REVERT JUMPDEST CALLVALUE DUP1 ISZERO PUSH2 0xB5 JUMPI PUSH1 0x0 DUP1 REVERT JUMPDEST POP PUSH2 0xBE PUSH2 0x3B9 JUMP JUMPDEST PUSH1 0x40 MLOAD DUP1 DUP3 DUP2 MSTORE PUSH1 0x20 ADD SWAP2 POP POP PUSH1 0x40 MLOAD DUP1 SWAP2 SUB SWAP1 RETURN JUMPDEST CALLVALUE DUP1 ISZERO PUSH2 0xE0 JUMPI PUSH1 0x0 DUP1 REVERT JUMPDEST POP PUSH2 0x109 PUSH1 0x4 DUP1 CALLDATASIZE SUB DUP2 ADD SWAP1 DUP1 DUP1 CALLDATALOAD SWAP1 PUSH1 0x20 ADD SWAP1 SWAP3 SWAP2 SWAP1 DUP1 CALLDATALOAD SWAP1 PUSH1 0x20 ADD SWAP1 SWAP3 SWAP2 SWAP1 POP POP POP PUSH2 0x3BF JUMP JUMPDEST STOP JUMPDEST CALLVALUE DUP1 ISZERO PUSH2 0x117 JUMPI PUSH1 0x0 DUP1 REVERT JUMPDEST POP PUSH2 0x136 PUSH1 0x4 DUP1 CALLDATASIZE SUB DUP2 ADD SWAP1 DUP1 DUP1 CALLDATALOAD SWAP1 PUSH1 0x20 ADD SWAP1 SWAP3 SWAP2 SWAP1 POP POP POP PUSH2 0x611 JUMP JUMPDEST PUSH1 0x40 MLOAD DUP1 DUP3 DUP2 MSTORE PUSH1 0x20 ADD SWAP2 POP POP PUSH1 0x40 MLOAD DUP1 SWAP2 SUB SWAP1 RETURN JUMPDEST CALLVALUE DUP1 ISZERO PUSH2 0x158 JUMPI PUSH1 0x0 DUP1 REVERT JUMPDEST POP PUSH2 0x161 PUSH2 0x891 JUMP JUMPDEST PUSH1 0x40 MLOAD DUP1 DUP3 DUP2 MSTORE PUSH1 0x20 ADD SWAP2 POP POP PUSH1 0x40 MLOAD DUP1 SWAP2 SUB SWAP1 RETURN JUMPDEST CALLVALUE DUP1 ISZERO PUSH2 0x183 JUMPI PUSH1 0x0 DUP1 REVERT JUMPDEST POP PUSH2 0x1AC PUSH1 0x4 DUP1 CALLDATASIZE SUB DUP2 ADD SWAP1 DUP1 DUP1 CALLDATALOAD SWAP1 PUSH1 0x20 ADD SWAP1 SWAP3 SWAP2 SWAP1 DUP1 CALLDATALOAD SWAP1 PUSH1 0x20 ADD SWAP1 SWAP3 SWAP2 SWAP1 POP POP POP PUSH2 0xC05 JUMP JUMPDEST STOP JUMPDEST CALLVALUE DUP1 ISZERO PUSH2 0x1BA JUMPI PUSH1 0x0 DUP1 REVERT JUMPDEST POP PUSH2 0x1D9 PUSH1 0x4 DUP1 CALLDATASIZE SUB DUP2 ADD SWAP1 DUP1 DUP1 CALLDATALOAD SWAP1 PUSH1 0x20 ADD SWAP1 SWAP3 SWAP2 SWAP1 POP POP POP PUSH2 0x10E2 JUMP JUMPDEST STOP JUMPDEST CALLVALUE DUP1 ISZERO PUSH2 0x1E7 JUMPI PUSH1 0x0 DUP1 REVERT JUMPDEST POP PUSH2 0x1F0 PUSH2 0x12FE JUMP JUMPDEST PUSH1 0x40 MLOAD DUP1 DUP1 PUSH1 0x20 ADD DUP3 DUP2 SUB DUP3 MSTORE DUP4 DUP2 DUP2 MLOAD DUP2 MSTORE PUSH1 0x20 ADD SWAP2 POP DUP1 MLOAD SWAP1 PUSH1 0x20 ADD SWAP1 PUSH1 0x20 MUL DUP1 DUP4 DUP4 PUSH1 0x0 JUMPDEST DUP4 DUP2 LT ISZERO PUSH2 0x233 JUMPI DUP1 DUP3 ADD MLOAD DUP2 DUP5 ADD MSTORE PUSH1 0x20 DUP2 ADD SWAP1 POP PUSH2 0x218 JUMP JUMPDEST POP POP POP POP SWAP1 POP ADD SWAP3 POP POP POP PUSH1 0x40 MLOAD DUP1 SWAP2 SUB SWAP1 RETURN JUMPDEST CALLVALUE DUP1 ISZERO PUSH2 0x253 JUMPI PUSH1 0x0 DUP1 REVERT JUMPDEST POP PUSH2 0x2F4 PUSH1 0x4 DUP1 CALLDATASIZE SUB DUP2 ADD SWAP1 DUP1 DUP1 CALLDATALOAD SWAP1 PUSH1 0x20 ADD SWAP1 DUP3 ADD DUP1 CALLDATALOAD SWAP1 PUSH1 0x20 ADD SWAP1 DUP1 DUP1 PUSH1 0x1F ADD PUSH1 0x20 DUP1 SWAP2 DIV MUL PUSH1 0x20 ADD PUSH1 0x40 MLOAD SWAP1 DUP2 ADD PUSH1 0x40 MSTORE DUP1 SWAP4 SWAP3 SWAP2 SWAP1 DUP2 DUP2 MSTORE PUSH1 0x20 ADD DUP4 DUP4 DUP1 DUP3 DUP5 CALLDATACOPY DUP3 ADD SWAP2 POP POP POP POP POP POP SWAP2 SWAP3 SWAP2 SWAP3 SWAP1 DUP1 CALLDATALOAD SWAP1 PUSH1 0x20 ADD SWAP1 SWAP3 SWAP2 SWAP1 DUP1 CALLDATALOAD SWAP1 PUSH1 0x20 ADD SWAP1 SWAP3 SWAP2 SWAP1 DUP1 CALLDATALOAD SWAP1 PUSH1 0x20 ADD SWAP1 SWAP3 SWAP2 SWAP1 DUP1 CALLDATALOAD SWAP1 PUSH1 0x20 ADD SWAP1 SWAP3 SWAP2 SWAP1 DUP1 CALLDATALOAD SWAP1 PUSH1 0x20 ADD SWAP1 SWAP3 SWAP2 SWAP1 DUP1 CALLDATALOAD SWAP1 PUSH1 0x20 ADD SWAP1 SWAP3 SWAP2 SWAP1 DUP1 CALLDATALOAD SWAP1 PUSH1 0x20 ADD SWAP1 SWAP3 SWAP2 SWAP1 POP POP POP PUSH2 0x144E JUMP JUMPDEST STOP JUMPDEST CALLVALUE DUP1 ISZERO PUSH2 0x302 JUMPI PUSH1 0x0 DUP1 REVERT JUMPDEST POP PUSH2 0x30B PUSH2 0x18CA JUMP JUMPDEST PUSH1 0x40 MLOAD DUP1 DUP1 PUSH1 0x20 ADD DUP3 DUP2 SUB DUP3 MSTORE DUP4 DUP2 DUP2 MLOAD DUP2 MSTORE PUSH1 0x20 ADD SWAP2 POP DUP1 MLOAD SWAP1 PUSH1 0x20 ADD SWAP1 PUSH1 0x20 MUL DUP1 DUP4 DUP4 PUSH1 0x0 JUMPDEST DUP4 DUP2 LT ISZERO PUSH2 0x34E JUMPI DUP1 DUP3 ADD MLOAD DUP2 DUP5 ADD MSTORE PUSH1 0x20 DUP2 ADD SWAP1 POP PUSH2 0x333 JUMP JUMPDEST POP POP POP POP SWAP1 POP ADD SWAP3 POP POP POP PUSH1 0x40 MLOAD DUP1 SWAP2 SUB SWAP1 RETURN JUMPDEST CALLVALUE DUP1 ISZERO PUSH2 0x36E JUMPI PUSH1 0x0 DUP1 REVERT JUMPDEST POP PUSH2 0x377 PUSH2 0x1C95 JUMP JUMPDEST PUSH1 0x40 MLOAD DUP1 DUP3 PUSH20 0xFFFFFFFFFFFFFFFFFFFFFFFFFFFFFFFFFFFFFFFF AND PUSH20 0xFFFFFFFFFFFFFFFFFFFFFFFFFFFFFFFFFFFFFFFF AND DUP2 MSTORE PUSH1 0x20 ADD SWAP2 POP POP PUSH1 0x40 MLOAD DUP1 SWAP2 SUB SWAP1 RETURN JUMPDEST PUSH1 0x0 SLOAD DUP2 JUMP JUMPDEST DUP2 PUSH1 0x65 DUP2 LT DUP1 ISZERO PUSH2 0x49D JUMPI POP TIMESTAMP PUSH1 0x1 DUP3 PUSH1 0x65 DUP2 LT ISZERO ISZERO PUSH2 0x3DB JUMPI INVALID JUMPDEST ADD PUSH1 0x0 SWAP1 SLOAD SWAP1 PUSH2 0x100 EXP SWAP1 DIV PUSH20 0xFFFFFFFFFFFFFFFFFFFFFFFFFFFFFFFFFFFFFFFF AND PUSH20 0xFFFFFFFFFFFFFFFFFFFFFFFFFFFFFFFFFFFFFFFF AND PUSH4 0x439F5AC2 PUSH1 0x40 MLOAD DUP2 PUSH4 0xFFFFFFFF AND PUSH29 0x100000000000000000000000000000000000000000000000000000000 MUL DUP2 MSTORE PUSH1 0x4 ADD PUSH1 0x20 PUSH1 0x40 MLOAD DUP1 DUP4 SUB DUP2 PUSH1 0x0 DUP8 DUP1 EXTCODESIZE ISZERO DUP1 ISZERO PUSH2 0x460 JUMPI PUSH1 0x0 DUP1 REVERT JUMPDEST POP GAS CALL ISZERO DUP1 ISZERO PUSH2 0x474 JUMPI RETURNDATASIZE PUSH1 0x0 DUP1 RETURNDATACOPY RETURNDATASIZE PUSH1 0x0 REVERT JUMPDEST POP POP POP POP PUSH1 0x40 MLOAD RETURNDATASIZE PUSH1 0x20 DUP2 LT ISZERO PUSH2 0x48A JUMPI PUSH1 0x0 DUP1 REVERT JUMPDEST DUP2 ADD SWAP1 DUP1 DUP1 MLOAD SWAP1 PUSH1 0x20 ADD SWAP1 SWAP3 SWAP2 SWAP1 POP POP POP GT JUMPDEST ISZERO ISZERO PUSH2 0x511 JUMPI PUSH1 0x40 MLOAD PUSH32 0x8C379A000000000000000000000000000000000000000000000000000000000 DUP2 MSTORE PUSH1 0x4 ADD DUP1 DUP1 PUSH1 0x20 ADD DUP3 DUP2 SUB DUP3 MSTORE PUSH1 0x13 DUP2 MSTORE PUSH1 0x20 ADD DUP1 PUSH32 0x41756374696F6E20697320496E61637469766500000000000000000000000000 DUP2 MSTORE POP PUSH1 0x20 ADD SWAP2 POP POP PUSH1 0x40 MLOAD DUP1 SWAP2 SUB SWAP1 REVERT JUMPDEST PUSH1 0x1 DUP4 PUSH1 0x65 DUP2 LT ISZERO ISZERO PUSH2 0x520 JUMPI INVALID JUMPDEST ADD PUSH1 0x0 SWAP1 SLOAD SWAP1 PUSH2 0x100 EXP SWAP1 DIV PUSH20 0xFFFFFFFFFFFFFFFFFFFFFFFFFFFFFFFFFFFFFFFF AND PUSH20 0xFFFFFFFFFFFFFFFFFFFFFFFFFFFFFFFFFFFFFFFF AND PUSH4 0x43129DE1 DUP4 PUSH1 0x40 MLOAD DUP3 PUSH4 0xFFFFFFFF AND PUSH29 0x100000000000000000000000000000000000000000000000000000000 MUL DUP2 MSTORE PUSH1 0x4 ADD DUP1 DUP3 DUP2 MSTORE PUSH1 0x20 ADD SWAP2 POP POP PUSH1 0x0 PUSH1 0x40 MLOAD DUP1 DUP4 SUB DUP2 PUSH1 0x0 DUP8 DUP1 EXTCODESIZE ISZERO DUP1 ISZERO PUSH2 0x5B0 JUMPI PUSH1 0x0 DUP1 REVERT JUMPDEST POP GAS CALL ISZERO DUP1 ISZERO PUSH2 0x5C4 JUMPI RETURNDATASIZE PUSH1 0x0 DUP1 RETURNDATACOPY RETURNDATASIZE PUSH1 0x0 REVERT JUMPDEST POP POP POP POP DUP3 CALLER PUSH20 0xFFFFFFFFFFFFFFFFFFFFFFFFFFFFFFFFFFFFFFFF AND PUSH32 0xB722CCEC10268690BF7EF3A9603076BAF9B304A59DEF91157D4A80C98D557AAE PUSH1 0x40 MLOAD PUSH1 0x40 MLOAD DUP1 SWAP2 SUB SWAP1 LOG3 POP POP POP JUMP JUMPDEST PUSH1 0x0 PUSH1 0x1 PUSH1 0x66 PUSH1 0x0 CALLER PUSH20 0xFFFFFFFFFFFFFFFFFFFFFFFFFFFFFFFFFFFFFFFF AND PUSH20 0xFFFFFFFFFFFFFFFFFFFFFFFFFFFFFFFFFFFFFFFF AND DUP2 MSTORE PUSH1 0x20 ADD SWAP1 DUP2 MSTORE PUSH1 0x20 ADD PUSH1 0x0 KECCAK256 SLOAD PUSH1 0x65 DUP2 LT ISZERO ISZERO PUSH2 0x661 JUMPI INVALID JUMPDEST ADD PUSH1 0x0 SWAP1 SLOAD SWAP1 PUSH2 0x100 EXP SWAP1 DIV PUSH20 0xFFFFFFFFFFFFFFFFFFFFFFFFFFFFFFFFFFFFFFFF AND PUSH20 0xFFFFFFFFFFFFFFFFFFFFFFFFFFFFFFFFFFFFFFFF AND PUSH4 0x409766E6 PUSH1 0x40 MLOAD DUP2 PUSH4 0xFFFFFFFF AND PUSH29 0x100000000000000000000000000000000000000000000000000000000 MUL DUP2 MSTORE PUSH1 0x4 ADD PUSH1 0x20 PUSH1 0x40 MLOAD DUP1 DUP4 SUB DUP2 PUSH1 0x0 DUP8 DUP1 EXTCODESIZE ISZERO DUP1 ISZERO PUSH2 0x6E6 JUMPI PUSH1 0x0 DUP1 REVERT JUMPDEST POP GAS CALL ISZERO DUP1 ISZERO PUSH2 0x6FA JUMPI RETURNDATASIZE PUSH1 0x0 DUP1 RETURNDATACOPY RETURNDATASIZE PUSH1 0x0 REVERT JUMPDEST POP POP POP POP PUSH1 0x40 MLOAD RETURNDATASIZE PUSH1 0x20 DUP2 LT ISZERO PUSH2 0x710 JUMPI PUSH1 0x0 DUP1 REVERT JUMPDEST DUP2 ADD SWAP1 DUP1 DUP1 MLOAD SWAP1 PUSH1 0x20 ADD SWAP1 SWAP3 SWAP2 SWAP1 POP POP POP ISZERO ISZERO PUSH2 0x7BB JUMPI PUSH1 0x40 MLOAD PUSH32 0x8C379A000000000000000000000000000000000000000000000000000000000 DUP2 MSTORE PUSH1 0x4 ADD DUP1 DUP1 PUSH1 0x20 ADD DUP3 DUP2 SUB DUP3 MSTORE PUSH1 0x24 DUP2 MSTORE PUSH1 0x20 ADD DUP1 PUSH32 0x5468657265206172656E277420616E792062696473206F6E2074686520417563 DUP2 MSTORE PUSH1 0x20 ADD PUSH32 0x74696F6E00000000000000000000000000000000000000000000000000000000 DUP2 MSTORE POP PUSH1 0x40 ADD SWAP2 POP POP PUSH1 0x40 MLOAD DUP1 SWAP2 SUB SWAP1 REVERT JUMPDEST PUSH1 0x1 DUP3 PUSH1 0x65 DUP2 LT ISZERO ISZERO PUSH2 0x7CA JUMPI INVALID JUMPDEST ADD PUSH1 0x0 SWAP1 SLOAD SWAP1 PUSH2 0x100 EXP SWAP1 DIV PUSH20 0xFFFFFFFFFFFFFFFFFFFFFFFFFFFFFFFFFFFFFFFF AND PUSH20 0xFFFFFFFFFFFFFFFFFFFFFFFFFFFFFFFFFFFFFFFF AND PUSH4 0xDD06BA1A PUSH1 0x40 MLOAD DUP2 PUSH4 0xFFFFFFFF AND PUSH29 0x100000000000000000000000000000000000000000000000000000000 MUL DUP2 MSTORE PUSH1 0x4 ADD PUSH1 0x20 PUSH1 0x40 MLOAD DUP1 DUP4 SUB DUP2 PUSH1 0x0 DUP8 DUP1 EXTCODESIZE ISZERO DUP1 ISZERO PUSH2 0x84F JUMPI PUSH1 0x0 DUP1 REVERT JUMPDEST POP GAS CALL ISZERO DUP1 ISZERO PUSH2 0x863 JUMPI RETURNDATASIZE PUSH1 0x0 DUP1 RETURNDATACOPY RETURNDATASIZE PUSH1 0x0 REVERT JUMPDEST POP POP POP POP PUSH1 0x40 MLOAD RETURNDATASIZE PUSH1 0x20 DUP2 LT ISZERO PUSH2 0x879 JUMPI PUSH1 0x0 DUP1 REVERT JUMPDEST DUP2 ADD SWAP1 DUP1 DUP1 MLOAD SWAP1 PUSH1 0x20 ADD SWAP1 SWAP3 SWAP2 SWAP1 POP POP POP SWAP1 POP SWAP2 SWAP1 POP JUMP JUMPDEST PUSH1 0x0 DUP1 PUSH1 0x66 PUSH1 0x0 CALLER PUSH20 0xFFFFFFFFFFFFFFFFFFFFFFFFFFFFFFFFFFFFFFFF AND PUSH20 0xFFFFFFFFFFFFFFFFFFFFFFFFFFFFFFFFFFFFFFFF AND DUP2 MSTORE PUSH1 0x20 ADD SWAP1 DUP2 MSTORE PUSH1 0x20 ADD PUSH1 0x0 KECCAK256 SLOAD EQ ISZERO ISZERO ISZERO PUSH2 0x94A JUMPI PUSH1 0x40 MLOAD PUSH32 0x8C379A000000000000000000000000000000000000000000000000000000000 DUP2 MSTORE PUSH1 0x4 ADD DUP1 DUP1 PUSH1 0x20 ADD DUP3 DUP2 SUB DUP3 MSTORE PUSH1 0x20 DUP2 MSTORE PUSH1 0x20 ADD DUP1 PUSH32 0x596F7520686176656E2774206372656174656420616E792041756374696F6E73 DUP2 MSTORE POP PUSH1 0x20 ADD SWAP2 POP POP PUSH1 0x40 MLOAD DUP1 SWAP2 SUB SWAP1 REVERT JUMPDEST PUSH1 0x1 PUSH1 0x66 PUSH1 0x0 CALLER PUSH20 0xFFFFFFFFFFFFFFFFFFFFFFFFFFFFFFFFFFFFFFFF AND PUSH20 0xFFFFFFFFFFFFFFFFFFFFFFFFFFFFFFFFFFFFFFFF AND DUP2 MSTORE PUSH1 0x20 ADD SWAP1 DUP2 MSTORE PUSH1 0x20 ADD PUSH1 0x0 KECCAK256 SLOAD PUSH1 0x65 DUP2 LT ISZERO ISZERO PUSH2 0x998 JUMPI INVALID JUMPDEST ADD PUSH1 0x0 SWAP1 SLOAD SWAP1 PUSH2 0x100 EXP SWAP1 DIV PUSH20 0xFFFFFFFFFFFFFFFFFFFFFFFFFFFFFFFFFFFFFFFF AND PUSH20 0xFFFFFFFFFFFFFFFFFFFFFFFFFFFFFFFFFFFFFFFF AND PUSH4 0x409766E6 PUSH1 0x40 MLOAD DUP2 PUSH4 0xFFFFFFFF AND PUSH29 0x100000000000000000000000000000000000000000000000000000000 MUL DUP2 MSTORE PUSH1 0x4 ADD PUSH1 0x20 PUSH1 0x40 MLOAD DUP1 DUP4 SUB DUP2 PUSH1 0x0 DUP8 DUP1 EXTCODESIZE ISZERO DUP1 ISZERO PUSH2 0xA1D JUMPI PUSH1 0x0 DUP1 REVERT JUMPDEST POP GAS CALL ISZERO DUP1 ISZERO PUSH2 0xA31 JUMPI RETURNDATASIZE PUSH1 0x0 DUP1 RETURNDATACOPY RETURNDATASIZE PUSH1 0x0 REVERT JUMPDEST POP POP POP POP PUSH1 0x40 MLOAD RETURNDATASIZE PUSH1 0x20 DUP2 LT ISZERO PUSH2 0xA47 JUMPI PUSH1 0x0 DUP1 REVERT JUMPDEST DUP2 ADD SWAP1 DUP1 DUP1 MLOAD SWAP1 PUSH1 0x20 ADD SWAP1 SWAP3 SWAP2 SWAP1 POP POP POP ISZERO ISZERO PUSH2 0xAF2 JUMPI PUSH1 0x40 MLOAD PUSH32 0x8C379A000000000000000000000000000000000000000000000000000000000 DUP2 MSTORE PUSH1 0x4 ADD DUP1 DUP1 PUSH1 0x20 ADD DUP3 DUP2 SUB DUP3 MSTORE PUSH1 0x24 DUP2 MSTORE PUSH1 0x20 ADD DUP1 PUSH32 0x5468657265206172656E277420616E792062696473206F6E2074686520417563 DUP2 MSTORE PUSH1 0x20 ADD PUSH32 0x74696F6E00000000000000000000000000000000000000000000000000000000 DUP2 MSTORE POP PUSH1 0x40 ADD SWAP2 POP POP PUSH1 0x40 MLOAD DUP1 SWAP2 SUB SWAP1 REVERT JUMPDEST PUSH1 0x1 PUSH1 0x66 PUSH1 0x0 CALLER PUSH20 0xFFFFFFFFFFFFFFFFFFFFFFFFFFFFFFFFFFFFFFFF AND PUSH20 0xFFFFFFFFFFFFFFFFFFFFFFFFFFFFFFFFFFFFFFFF AND DUP2 MSTORE PUSH1 0x20 ADD SWAP1 DUP2 MSTORE PUSH1 0x20 ADD PUSH1 0x0 KECCAK256 SLOAD PUSH1 0x65 DUP2 LT ISZERO ISZERO PUSH2 0xB40 JUMPI INVALID JUMPDEST ADD PUSH1 0x0 SWAP1 SLOAD SWAP1 PUSH2 0x100 EXP SWAP1 DIV PUSH20 0xFFFFFFFFFFFFFFFFFFFFFFFFFFFFFFFFFFFFFFFF AND PUSH20 0xFFFFFFFFFFFFFFFFFFFFFFFFFFFFFFFFFFFFFFFF AND PUSH4 0xDD06BA1A PUSH1 0x40 MLOAD DUP2 PUSH4 0xFFFFFFFF AND PUSH29 0x100000000000000000000000000000000000000000000000000000000 MUL DUP2 MSTORE PUSH1 0x4 ADD PUSH1 0x20 PUSH1 0x40 MLOAD DUP1 DUP4 SUB DUP2 PUSH1 0x0 DUP8 DUP1 EXTCODESIZE ISZERO DUP1 ISZERO PUSH2 0xBC5 JUMPI PUSH1 0x0 DUP1 REVERT JUMPDEST POP GAS CALL ISZERO DUP1 ISZERO PUSH2 0xBD9 JUMPI RETURNDATASIZE PUSH1 0x0 DUP1 RETURNDATACOPY RETURNDATASIZE PUSH1 0x0 REVERT JUMPDEST POP POP POP POP PUSH1 0x40 MLOAD RETURNDATASIZE PUSH1 0x20 DUP2 LT ISZERO PUSH2 0xBEF JUMPI PUSH1 0x0 DUP1 REVERT JUMPDEST DUP2 ADD SWAP1 DUP1 DUP1 MLOAD SWAP1 PUSH1 0x20 ADD SWAP1 SWAP3 SWAP2 SWAP1 POP POP POP SWAP1 POP SWAP1 JUMP JUMPDEST DUP2 PUSH1 0x65 DUP2 LT DUP1 ISZERO PUSH2 0xCE3 JUMPI POP TIMESTAMP PUSH1 0x1 DUP3 PUSH1 0x65 DUP2 LT ISZERO ISZERO PUSH2 0xC21 JUMPI INVALID JUMPDEST ADD PUSH1 0x0 SWAP1 SLOAD SWAP1 PUSH2 0x100 EXP SWAP1 DIV PUSH20 0xFFFFFFFFFFFFFFFFFFFFFFFFFFFFFFFFFFFFFFFF AND PUSH20 0xFFFFFFFFFFFFFFFFFFFFFFFFFFFFFFFFFFFFFFFF AND PUSH4 0x439F5AC2 PUSH1 0x40 MLOAD DUP2 PUSH4 0xFFFFFFFF AND PUSH29 0x100000000000000000000000000000000000000000000000000000000 MUL DUP2 MSTORE PUSH1 0x4 ADD PUSH1 0x20 PUSH1 0x40 MLOAD DUP1 DUP4 SUB DUP2 PUSH1 0x0 DUP8 DUP1 EXTCODESIZE ISZERO DUP1 ISZERO PUSH2 0xCA6 JUMPI PUSH1 0x0 DUP1 REVERT JUMPDEST POP GAS CALL ISZERO DUP1 ISZERO PUSH2 0xCBA JUMPI RETURNDATASIZE PUSH1 0x0 DUP1 RETURNDATACOPY RETURNDATASIZE PUSH1 0x0 REVERT JUMPDEST POP POP POP POP PUSH1 0x40 MLOAD RETURNDATASIZE PUSH1 0x20 DUP2 LT ISZERO PUSH2 0xCD0 JUMPI PUSH1 0x0 DUP1 REVERT JUMPDEST DUP2 ADD SWAP1 DUP1 DUP1 MLOAD SWAP1 PUSH1 0x20 ADD SWAP1 SWAP3 SWAP2 SWAP1 POP POP POP GT JUMPDEST ISZERO ISZERO PUSH2 0xD57 JUMPI PUSH1 0x40 MLOAD PUSH32 0x8C379A000000000000000000000000000000000000000000000000000000000 DUP2 MSTORE PUSH1 0x4 ADD DUP1 DUP1 PUSH1 0x20 ADD DUP3 DUP2 SUB DUP3 MSTORE PUSH1 0x13 DUP2 MSTORE PUSH1 0x20 ADD DUP1 PUSH32 0x41756374696F6E20697320496E61637469766500000000000000000000000000 DUP2 MSTORE POP PUSH1 0x20 ADD SWAP2 POP POP PUSH1 0x40 MLOAD DUP1 SWAP2 SUB SWAP1 REVERT JUMPDEST DUP2 PUSH1 0x1 DUP5 PUSH1 0x65 DUP2 LT ISZERO ISZERO PUSH2 0xD67 JUMPI INVALID JUMPDEST ADD PUSH1 0x0 SWAP1 SLOAD SWAP1 PUSH2 0x100 EXP SWAP1 DIV PUSH20 0xFFFFFFFFFFFFFFFFFFFFFFFFFFFFFFFFFFFFFFFF AND PUSH20 0xFFFFFFFFFFFFFFFFFFFFFFFFFFFFFFFFFFFFFFFF AND PUSH4 0xAD934674 PUSH1 0x40 MLOAD DUP2 PUSH4 0xFFFFFFFF AND PUSH29 0x100000000000000000000000000000000000000000000000000000000 MUL DUP2 MSTORE PUSH1 0x4 ADD PUSH1 0x20 PUSH1 0x40 MLOAD DUP1 DUP4 SUB DUP2 PUSH1 0x0 DUP8 DUP1 EXTCODESIZE ISZERO DUP1 ISZERO PUSH2 0xDEC JUMPI PUSH1 0x0 DUP1 REVERT JUMPDEST POP GAS CALL ISZERO DUP1 ISZERO PUSH2 0xE00 JUMPI RETURNDATASIZE PUSH1 0x0 DUP1 RETURNDATACOPY RETURNDATASIZE PUSH1 0x0 REVERT JUMPDEST POP POP POP POP PUSH1 0x40 MLOAD RETURNDATASIZE PUSH1 0x20 DUP2 LT ISZERO PUSH2 0xE16 JUMPI PUSH1 0x0 DUP1 REVERT JUMPDEST DUP2 ADD SWAP1 DUP1 DUP1 MLOAD SWAP1 PUSH1 0x20 ADD SWAP1 SWAP3 SWAP2 SWAP1 POP POP POP LT ISZERO ISZERO PUSH2 0xEC2 JUMPI PUSH1 0x40 MLOAD PUSH32 0x8C379A000000000000000000000000000000000000000000000000000000000 DUP2 MSTORE PUSH1 0x4 ADD DUP1 DUP1 PUSH1 0x20 ADD DUP3 DUP2 SUB DUP3 MSTORE PUSH1 0x3A DUP2 MSTORE PUSH1 0x20 ADD DUP1 PUSH32 0x4269642076616C75652063616E6E6F74206265206C657373207468616E206D69 DUP2 MSTORE PUSH1 0x20 ADD PUSH32 0x6E696E756D206269642076616C7565206F662061756374696F6E000000000000 DUP2 MSTORE POP PUSH1 0x40 ADD SWAP2 POP POP PUSH1 0x40 MLOAD DUP1 SWAP2 SUB SWAP1 REVERT JUMPDEST DUP3 PUSH1 0x66 PUSH1 0x0 CALLER PUSH20 0xFFFFFFFFFFFFFFFFFFFFFFFFFFFFFFFFFFFFFFFF AND PUSH20 0xFFFFFFFFFFFFFFFFFFFFFFFFFFFFFFFFFFFFFFFF AND DUP2 MSTORE PUSH1 0x20 ADD SWAP1 DUP2 MSTORE PUSH1 0x20 ADD PUSH1 0x0 KECCAK256 SLOAD EQ ISZERO ISZERO ISZERO PUSH2 0xF79 JUMPI PUSH1 0x40 MLOAD PUSH32 0x8C379A000000000000000000000000000000000000000000000000000000000 DUP2 MSTORE PUSH1 0x4 ADD DUP1 DUP1 PUSH1 0x20 ADD DUP3 DUP2 SUB DUP3 MSTORE PUSH1 0x18 DUP2 MSTORE PUSH1 0x20 ADD DUP1 PUSH32 0x43616E277420626964206F6E206F776E2041756374696F6E0000000000000000 DUP2 MSTORE POP PUSH1 0x20 ADD SWAP2 POP POP PUSH1 0x40 MLOAD DUP1 SWAP2 SUB SWAP1 REVERT JUMPDEST PUSH1 0x1 DUP4 PUSH1 0x65 DUP2 LT ISZERO ISZERO PUSH2 0xF88 JUMPI INVALID JUMPDEST ADD PUSH1 0x0 SWAP1 SLOAD SWAP1 PUSH2 0x100 EXP SWAP1 DIV PUSH20 0xFFFFFFFFFFFFFFFFFFFFFFFFFFFFFFFFFFFFFFFF AND PUSH20 0xFFFFFFFFFFFFFFFFFFFFFFFFFFFFFFFFFFFFFFFF AND PUSH4 0x659DD2B4 DUP4 PUSH1 0x40 MLOAD DUP3 PUSH4 0xFFFFFFFF AND PUSH29 0x100000000000000000000000000000000000000000000000000000000 MUL DUP2 MSTORE PUSH1 0x4 ADD DUP1 DUP3 DUP2 MSTORE PUSH1 0x20 ADD SWAP2 POP POP PUSH1 0x0 PUSH1 0x40 MLOAD DUP1 DUP4 SUB DUP2 PUSH1 0x0 DUP8 DUP1 EXTCODESIZE ISZERO DUP1 ISZERO PUSH2 0x1018 JUMPI PUSH1 0x0 DUP1 REVERT JUMPDEST POP GAS CALL ISZERO DUP1 ISZERO PUSH2 0x102C JUMPI RETURNDATASIZE PUSH1 0x0 DUP1 RETURNDATACOPY RETURNDATASIZE PUSH1 0x0 REVERT JUMPDEST POP POP POP POP PUSH1 0x67 PUSH1 0x0 CALLER PUSH20 0xFFFFFFFFFFFFFFFFFFFFFFFFFFFFFFFFFFFFFFFF AND PUSH20 0xFFFFFFFFFFFFFFFFFFFFFFFFFFFFFFFFFFFFFFFF AND DUP2 MSTORE PUSH1 0x20 ADD SWAP1 DUP2 MSTORE PUSH1 0x20 ADD PUSH1 0x0 KECCAK256 DUP4 SWAP1 DUP1 PUSH1 0x1 DUP2 SLOAD ADD DUP1 DUP3 SSTORE DUP1 SWAP2 POP POP SWAP1 PUSH1 0x1 DUP3 SUB SWAP1 PUSH1 0x0 MSTORE PUSH1 0x20 PUSH1 0x0 KECCAK256 ADD PUSH1 0x0 SWAP1 SWAP2 SWAP3 SWAP1 SWAP2 SWAP1 SWAP2 POP SSTORE POP DUP3 CALLER PUSH20 0xFFFFFFFFFFFFFFFFFFFFFFFFFFFFFFFFFFFFFFFF AND PUSH32 0x248176D18D0B2664C1964DE940D9D88115D4D632E9047EC131DC7CFD5B41535E PUSH1 0x40 MLOAD PUSH1 0x40 MLOAD DUP1 SWAP2 SUB SWAP1 LOG3 POP POP POP JUMP JUMPDEST PUSH1 0x0 DUP1 PUSH1 0x66 PUSH1 0x0 CALLER PUSH20 0xFFFFFFFFFFFFFFFFFFFFFFFFFFFFFFFFFFFFFFFF AND PUSH20 0xFFFFFFFFFFFFFFFFFFFFFFFFFFFFFFFFFFFFFFFF AND DUP2 MSTORE PUSH1 0x20 ADD SWAP1 DUP2 MSTORE PUSH1 0x20 ADD PUSH1 0x0 KECCAK256 SLOAD EQ ISZERO ISZERO ISZERO PUSH2 0x119B JUMPI PUSH1 0x40 MLOAD PUSH32 0x8C379A000000000000000000000000000000000000000000000000000000000 DUP2 MSTORE PUSH1 0x4 ADD DUP1 DUP1 PUSH1 0x20 ADD DUP3 DUP2 SUB DUP3 MSTORE PUSH1 0x20 DUP2 MSTORE PUSH1 0x20 ADD DUP1 PUSH32 0x596F7520686176656E2774206372656174656420616E792041756374696F6E73 DUP2 MSTORE POP PUSH1 0x20 ADD SWAP2 POP POP PUSH1 0x40 MLOAD DUP1 SWAP2 SUB SWAP1 REVERT JUMPDEST PUSH1 0x1 PUSH1 0x66 PUSH1 0x0 CALLER PUSH20 0xFFFFFFFFFFFFFFFFFFFFFFFFFFFFFFFFFFFFFFFF AND PUSH20 0xFFFFFFFFFFFFFFFFFFFFFFFFFFFFFFFFFFFFFFFF AND DUP2 MSTORE PUSH1 0x20 ADD SWAP1 DUP2 MSTORE PUSH1 0x20 ADD PUSH1 0x0 KECCAK256 SLOAD PUSH1 0x65 DUP2 LT ISZERO ISZERO PUSH2 0x11E9 JUMPI INVALID JUMPDEST ADD PUSH1 0x0 SWAP1 SLOAD SWAP1 PUSH2 0x100 EXP SWAP1 DIV PUSH20 0xFFFFFFFFFFFFFFFFFFFFFFFFFFFFFFFFFFFFFFFF AND PUSH20 0xFFFFFFFFFFFFFFFFFFFFFFFFFFFFFFFFFFFFFFFF AND PUSH4 0xDEE37A8E DUP4 PUSH1 0x40 MLOAD DUP3 PUSH4 0xFFFFFFFF AND PUSH29 0x100000000000000000000000000000000000000000000000000000000 MUL DUP2 MSTORE PUSH1 0x4 ADD DUP1 DUP3 DUP2 MSTORE PUSH1 0x20 ADD SWAP2 POP POP PUSH1 0x20 PUSH1 0x40 MLOAD DUP1 DUP4 SUB DUP2 PUSH1 0x0 DUP8 DUP1 EXTCODESIZE ISZERO DUP1 ISZERO PUSH2 0x1279 JUMPI PUSH1 0x0 DUP1 REVERT JUMPDEST POP GAS CALL ISZERO DUP1 ISZERO PUSH2 0x128D JUMPI RETURNDATASIZE PUSH1 0x0 DUP1 RETURNDATACOPY RETURNDATASIZE PUSH1 0x0 REVERT JUMPDEST POP POP POP POP PUSH1 0x40 MLOAD RETURNDATASIZE PUSH1 0x20 DUP2 LT ISZERO PUSH2 0x12A3 JUMPI PUSH1 0x0 DUP1 REVERT JUMPDEST DUP2 ADD SWAP1 DUP1 DUP1 MLOAD SWAP1 PUSH1 0x20 ADD SWAP1 SWAP3 SWAP2 SWAP1 POP POP POP SWAP1 POP DUP2 DUP2 PUSH20 0xFFFFFFFFFFFFFFFFFFFFFFFFFFFFFFFFFFFFFFFF AND PUSH32 0x6E0E2174DBF7B77C08B6F9A2799B9FEDA84A6D54A5644864582040100A47D4C5 PUSH1 0x40 MLOAD PUSH1 0x40 MLOAD DUP1 SWAP2 SUB SWAP1 LOG3 POP POP JUMP JUMPDEST PUSH1 0x60 PUSH1 0x0 PUSH1 0x67 PUSH1 0x0 CALLER PUSH20 0xFFFFFFFFFFFFFFFFFFFFFFFFFFFFFFFFFFFFFFFF AND PUSH20 0xFFFFFFFFFFFFFFFFFFFFFFFFFFFFFFFFFFFFFFFF AND DUP2 MSTORE PUSH1 0x20 ADD SWAP1 DUP2 MSTORE PUSH1 0x20 ADD PUSH1 0x0 KECCAK256 DUP1 SLOAD SWAP1 POP EQ ISZERO ISZERO ISZERO PUSH2 0x13BB JUMPI PUSH1 0x40 MLOAD PUSH32 0x8C379A000000000000000000000000000000000000000000000000000000000 DUP2 MSTORE PUSH1 0x4 ADD DUP1 DUP1 PUSH1 0x20 ADD DUP3 DUP2 SUB DUP3 MSTORE PUSH1 0x17 DUP2 MSTORE PUSH1 0x20 ADD DUP1 PUSH32 0x596F7520646F6E2774206861766520616E792042696473000000000000000000 DUP2 MSTORE POP PUSH1 0x20 ADD SWAP2 POP POP PUSH1 0x40 MLOAD DUP1 SWAP2 SUB SWAP1 REVERT JUMPDEST PUSH1 0x67 PUSH1 0x0 CALLER PUSH20 0xFFFFFFFFFFFFFFFFFFFFFFFFFFFFFFFFFFFFFFFF AND PUSH20 0xFFFFFFFFFFFFFFFFFFFFFFFFFFFFFFFFFFFFFFFF AND DUP2 MSTORE PUSH1 0x20 ADD SWAP1 DUP2 MSTORE PUSH1 0x20 ADD PUSH1 0x0 KECCAK256 DUP1 SLOAD DUP1 PUSH1 0x20 MUL PUSH1 0x20 ADD PUSH1 0x40 MLOAD SWAP1 DUP2 ADD PUSH1 0x40 MSTORE DUP1 SWAP3 SWAP2 SWAP1 DUP2 DUP2 MSTORE PUSH1 0x20 ADD DUP3 DUP1 SLOAD DUP1 ISZERO PUSH2 0x1444 JUMPI PUSH1 0x20 MUL DUP3 ADD SWAP2 SWAP1 PUSH1 0x0 MSTORE PUSH1 0x20 PUSH1 0x0 KECCAK256 SWAP1 JUMPDEST DUP2 SLOAD DUP2 MSTORE PUSH1 0x20 ADD SWAP1 PUSH1 0x1 ADD SWAP1 DUP1 DUP4 GT PUSH2 0x1430 JUMPI JUMPDEST POP POP POP POP POP SWAP1 POP SWAP1 JUMP JUMPDEST PUSH1 0x0 DUP1 PUSH1 0x0 DUP1 PUSH1 0x66 PUSH1 0x0 CALLER PUSH20 0xFFFFFFFFFFFFFFFFFFFFFFFFFFFFFFFFFFFFFFFF AND PUSH20 0xFFFFFFFFFFFFFFFFFFFFFFFFFFFFFFFFFFFFFFFF AND DUP2 MSTORE PUSH1 0x20 ADD SWAP1 DUP2 MSTORE PUSH1 0x20 ADD PUSH1 0x0 KECCAK256 SLOAD EQ ISZERO ISZERO PUSH2 0x152F JUMPI PUSH1 0x40 MLOAD PUSH32 0x8C379A000000000000000000000000000000000000000000000000000000000 DUP2 MSTORE PUSH1 0x4 ADD DUP1 DUP1 PUSH1 0x20 ADD DUP3 DUP2 SUB DUP3 MSTORE PUSH1 0x23 DUP2 MSTORE PUSH1 0x20 ADD DUP1 PUSH32 0x596F75206861766520616C7265616479206372656174656420616E2041756374 DUP2 MSTORE PUSH1 0x20 ADD PUSH32 0x696F6E0000000000000000000000000000000000000000000000000000000000 DUP2 MSTORE POP PUSH1 0x40 ADD SWAP2 POP POP PUSH1 0x40 MLOAD DUP1 SWAP2 SUB SWAP1 REVERT JUMPDEST PUSH2 0x153F DUP11 DUP11 DUP11 PUSH1 0x0 DUP1 PUSH1 0x0 PUSH2 0x1FC8 JUMP JUMPDEST ISZERO ISZERO PUSH2 0x15B3 JUMPI PUSH1 0x40 MLOAD PUSH32 0x8C379A000000000000000000000000000000000000000000000000000000000 DUP2 MSTORE PUSH1 0x4 ADD DUP1 DUP1 PUSH1 0x20 ADD DUP3 DUP2 SUB DUP3 MSTORE PUSH1 0x16 DUP2 MSTORE PUSH1 0x20 ADD DUP1 PUSH32 0x456E7465722056616C6964205374617274204461746500000000000000000000 DUP2 MSTORE POP PUSH1 0x20 ADD SWAP2 POP POP PUSH1 0x40 MLOAD DUP1 SWAP2 SUB SWAP1 REVERT JUMPDEST PUSH2 0x15C3 DUP8 DUP8 DUP8 PUSH1 0x0 DUP1 PUSH1 0x0 PUSH2 0x1FC8 JUMP JUMPDEST ISZERO ISZERO PUSH2 0x1637 JUMPI PUSH1 0x40 MLOAD PUSH32 0x8C379A000000000000000000000000000000000000000000000000000000000 DUP2 MSTORE PUSH1 0x4 ADD DUP1 DUP1 PUSH1 0x20 ADD DUP3 DUP2 SUB DUP3 MSTORE PUSH1 0x14 DUP2 MSTORE PUSH1 0x20 ADD DUP1 PUSH32 0x456E7465722056616C696420456E642044617465000000000000000000000000 DUP2 MSTORE POP PUSH1 0x20 ADD SWAP2 POP POP PUSH1 0x40 MLOAD DUP1 SWAP2 SUB SWAP1 REVERT JUMPDEST PUSH2 0x1642 DUP11 DUP11 DUP11 PUSH2 0x200B JUMP JUMPDEST SWAP3 POP PUSH2 0x164F DUP8 DUP8 DUP8 PUSH2 0x200B JUMP JUMPDEST SWAP2 POP DUP3 TIMESTAMP LT DUP1 ISZERO PUSH2 0x165F JUMPI POP DUP2 TIMESTAMP LT JUMPDEST DUP1 ISZERO PUSH2 0x166A JUMPI POP DUP2 DUP4 LT JUMPDEST ISZERO ISZERO PUSH2 0x1704 JUMPI PUSH1 0x40 MLOAD PUSH32 0x8C379A000000000000000000000000000000000000000000000000000000000 DUP2 MSTORE PUSH1 0x4 ADD DUP1 DUP1 PUSH1 0x20 ADD DUP3 DUP2 SUB DUP3 MSTORE PUSH1 0x2E DUP2 MSTORE PUSH1 0x20 ADD DUP1 PUSH32 0x20506C6561736520656E74657220612076616C696420696E74657276616C2066 DUP2 MSTORE PUSH1 0x20 ADD PUSH32 0x6F72207468652041756374696F6E000000000000000000000000000000000000 DUP2 MSTORE POP PUSH1 0x40 ADD SWAP2 POP POP PUSH1 0x40 MLOAD DUP1 SWAP2 SUB SWAP1 REVERT JUMPDEST PUSH1 0x1 PUSH1 0x0 SLOAD ADD PUSH1 0x0 DUP2 SWAP1 SSTORE POP DUP11 DUP4 DUP4 DUP7 PUSH2 0x171C PUSH2 0x220F JUMP JUMPDEST DUP1 DUP1 PUSH1 0x20 ADD DUP6 DUP2 MSTORE PUSH1 0x20 ADD DUP5 DUP2 MSTORE PUSH1 0x20 ADD DUP4 DUP2 MSTORE PUSH1 0x20 ADD DUP3 DUP2 SUB DUP3 MSTORE DUP7 DUP2 DUP2 MLOAD DUP2 MSTORE PUSH1 0x20 ADD SWAP2 POP DUP1 MLOAD SWAP1 PUSH1 0x20 ADD SWAP1 DUP1 DUP4 DUP4 PUSH1 0x0 JUMPDEST DUP4 DUP2 LT ISZERO PUSH2 0x176B JUMPI DUP1 DUP3 ADD MLOAD DUP2 DUP5 ADD MSTORE PUSH1 0x20 DUP2 ADD SWAP1 POP PUSH2 0x1750 JUMP JUMPDEST POP POP POP POP SWAP1 POP SWAP1 DUP2 ADD SWAP1 PUSH1 0x1F AND DUP1 ISZERO PUSH2 0x1798 JUMPI DUP1 DUP3 SUB DUP1 MLOAD PUSH1 0x1 DUP4 PUSH1 0x20 SUB PUSH2 0x100 EXP SUB NOT AND DUP2 MSTORE PUSH1 0x20 ADD SWAP2 POP JUMPDEST POP SWAP6 POP POP POP POP POP POP PUSH1 0x40 MLOAD DUP1 SWAP2 SUB SWAP1 PUSH1 0x0 CREATE DUP1 ISZERO DUP1 ISZERO PUSH2 0x17BC JUMPI RETURNDATASIZE PUSH1 0x0 DUP1 RETURNDATACOPY RETURNDATASIZE PUSH1 0x0 REVERT JUMPDEST POP SWAP1 POP DUP1 PUSH1 0x1 PUSH1 0x0 SLOAD PUSH1 0x65 DUP2 LT ISZERO ISZERO PUSH2 0x17D1 JUMPI INVALID JUMPDEST ADD PUSH1 0x0 PUSH2 0x100 EXP DUP2 SLOAD DUP2 PUSH20 0xFFFFFFFFFFFFFFFFFFFFFFFFFFFFFFFFFFFFFFFF MUL NOT AND SWAP1 DUP4 PUSH20 0xFFFFFFFFFFFFFFFFFFFFFFFFFFFFFFFFFFFFFFFF AND MUL OR SWAP1 SSTORE POP PUSH1 0x0 SLOAD PUSH1 0x66 PUSH1 0x0 CALLER PUSH20 0xFFFFFFFFFFFFFFFFFFFFFFFFFFFFFFFFFFFFFFFF AND PUSH20 0xFFFFFFFFFFFFFFFFFFFFFFFFFFFFFFFFFFFFFFFF AND DUP2 MSTORE PUSH1 0x20 ADD SWAP1 DUP2 MSTORE PUSH1 0x20 ADD PUSH1 0x0 KECCAK256 DUP2 SWAP1 SSTORE POP TIMESTAMP PUSH1 0x0 SLOAD PUSH32 0x737A59893603EF25305AEF11AC201C15BB5FA4F4195223C5DD69109857781504 CALLER PUSH1 0x40 MLOAD DUP1 DUP3 PUSH20 0xFFFFFFFFFFFFFFFFFFFFFFFFFFFFFFFFFFFFFFFF AND PUSH20 0xFFFFFFFFFFFFFFFFFFFFFFFFFFFFFFFFFFFFFFFF AND DUP2 MSTORE PUSH1 0x20 ADD SWAP2 POP POP PUSH1 0x40 MLOAD DUP1 SWAP2 SUB SWAP1 LOG3 POP POP POP POP POP POP POP POP POP POP POP JUMP JUMPDEST PUSH1 0x60 PUSH1 0x0 PUSH1 0x66 PUSH1 0x0 CALLER PUSH20 0xFFFFFFFFFFFFFFFFFFFFFFFFFFFFFFFFFFFFFFFF AND PUSH20 0xFFFFFFFFFFFFFFFFFFFFFFFFFFFFFFFFFFFFFFFF AND DUP2 MSTORE PUSH1 0x20 ADD SWAP1 DUP2 MSTORE PUSH1 0x20 ADD PUSH1 0x0 KECCAK256 SLOAD EQ ISZERO ISZERO ISZERO PUSH2 0x1984 JUMPI PUSH1 0x40 MLOAD PUSH32 0x8C379A000000000000000000000000000000000000000000000000000000000 DUP2 MSTORE PUSH1 0x4 ADD DUP1 DUP1 PUSH1 0x20 ADD DUP3 DUP2 SUB DUP3 MSTORE PUSH1 0x20 DUP2 MSTORE PUSH1 0x20 ADD DUP1 PUSH32 0x596F7520686176656E2774206372656174656420616E792041756374696F6E73 DUP2 MSTORE POP PUSH1 0x20 ADD SWAP2 POP POP PUSH1 0x40 MLOAD DUP1 SWAP2 SUB SWAP1 REVERT JUMPDEST PUSH1 0x1 PUSH1 0x66 PUSH1 0x0 CALLER PUSH20 0xFFFFFFFFFFFFFFFFFFFFFFFFFFFFFFFFFFFFFFFF AND PUSH20 0xFFFFFFFFFFFFFFFFFFFFFFFFFFFFFFFFFFFFFFFF AND DUP2 MSTORE PUSH1 0x20 ADD SWAP1 DUP2 MSTORE PUSH1 0x20 ADD PUSH1 0x0 KECCAK256 SLOAD PUSH1 0x65 DUP2 LT ISZERO ISZERO PUSH2 0x19D2 JUMPI INVALID JUMPDEST ADD PUSH1 0x0 SWAP1 SLOAD SWAP1 PUSH2 0x100 EXP SWAP1 DIV PUSH20 0xFFFFFFFFFFFFFFFFFFFFFFFFFFFFFFFFFFFFFFFF AND PUSH20 0xFFFFFFFFFFFFFFFFFFFFFFFFFFFFFFFFFFFFFFFF AND PUSH4 0x409766E6 PUSH1 0x40 MLOAD DUP2 PUSH4 0xFFFFFFFF AND PUSH29 0x100000000000000000000000000000000000000000000000000000000 MUL DUP2 MSTORE PUSH1 0x4 ADD PUSH1 0x20 PUSH1 0x40 MLOAD DUP1 DUP4 SUB DUP2 PUSH1 0x0 DUP8 DUP1 EXTCODESIZE ISZERO DUP1 ISZERO PUSH2 0x1A57 JUMPI PUSH1 0x0 DUP1 REVERT JUMPDEST POP GAS CALL ISZERO DUP1 ISZERO PUSH2 0x1A6B JUMPI RETURNDATASIZE PUSH1 0x0 DUP1 RETURNDATACOPY RETURNDATASIZE PUSH1 0x0 REVERT JUMPDEST POP POP POP POP PUSH1 0x40 MLOAD RETURNDATASIZE PUSH1 0x20 DUP2 LT ISZERO PUSH2 0x1A81 JUMPI PUSH1 0x0 DUP1 REVERT JUMPDEST DUP2 ADD SWAP1 DUP1 DUP1 MLOAD SWAP1 PUSH1 0x20 ADD SWAP1 SWAP3 SWAP2 SWAP1 POP POP POP ISZERO ISZERO PUSH2 0x1B2C JUMPI PUSH1 0x40 MLOAD PUSH32 0x8C379A000000000000000000000000000000000000000000000000000000000 DUP2 MSTORE PUSH1 0x4 ADD DUP1 DUP1 PUSH1 0x20 ADD DUP3 DUP2 SUB DUP3 MSTORE PUSH1 0x24 DUP2 MSTORE PUSH1 0x20 ADD DUP1 PUSH32 0x5468657265206172656E277420616E792062696473206F6E2074686520417563 DUP2 MSTORE PUSH1 0x20 ADD PUSH32 0x74696F6E00000000000000000000000000000000000000000000000000000000 DUP2 MSTORE POP PUSH1 0x40 ADD SWAP2 POP POP PUSH1 0x40 MLOAD DUP1 SWAP2 SUB SWAP1 REVERT JUMPDEST PUSH1 0x1 PUSH1 0x66 PUSH1 0x0 CALLER PUSH20 0xFFFFFFFFFFFFFFFFFFFFFFFFFFFFFFFFFFFFFFFF AND PUSH20 0xFFFFFFFFFFFFFFFFFFFFFFFFFFFFFFFFFFFFFFFF AND DUP2 MSTORE PUSH1 0x20 ADD SWAP1 DUP2 MSTORE PUSH1 0x20 ADD PUSH1 0x0 KECCAK256 SLOAD PUSH1 0x65 DUP2 LT ISZERO ISZERO PUSH2 0x1B7A JUMPI INVALID JUMPDEST ADD PUSH1 0x0 SWAP1 SLOAD SWAP1 PUSH2 0x100 EXP SWAP1 DIV PUSH20 0xFFFFFFFFFFFFFFFFFFFFFFFFFFFFFFFFFFFFFFFF AND PUSH20 0xFFFFFFFFFFFFFFFFFFFFFFFFFFFFFFFFFFFFFFFF AND PUSH4 0x679DBF0C PUSH1 0x40 MLOAD DUP2 PUSH4 0xFFFFFFFF AND PUSH29 0x100000000000000000000000000000000000000000000000000000000 MUL DUP2 MSTORE PUSH1 0x4 ADD PUSH1 0x0 PUSH1 0x40 MLOAD DUP1 DUP4 SUB DUP2 PUSH1 0x0 DUP8 DUP1 EXTCODESIZE ISZERO DUP1 ISZERO PUSH2 0x1BFF JUMPI PUSH1 0x0 DUP1 REVERT JUMPDEST POP GAS CALL ISZERO DUP1 ISZERO PUSH2 0x1C13 JUMPI RETURNDATASIZE PUSH1 0x0 DUP1 RETURNDATACOPY RETURNDATASIZE PUSH1 0x0 REVERT JUMPDEST POP POP POP POP PUSH1 0x40 MLOAD RETURNDATASIZE PUSH1 0x0 DUP3 RETURNDATACOPY RETURNDATASIZE PUSH1 0x1F NOT PUSH1 0x1F DUP3 ADD AND DUP3 ADD DUP1 PUSH1 0x40 MSTORE POP PUSH1 0x20 DUP2 LT ISZERO PUSH2 0x1C3D JUMPI PUSH1 0x0 DUP1 REVERT JUMPDEST DUP2 ADD SWAP1 DUP1 DUP1 MLOAD PUSH5 0x100000000 DUP2 GT ISZERO PUSH2 0x1C55 JUMPI PUSH1 0x0 DUP1 REVERT JUMPDEST DUP3 DUP2 ADD SWAP1 POP PUSH1 0x20 DUP2 ADD DUP5 DUP2 GT ISZERO PUSH2 0x1C6B JUMPI PUSH1 0x0 DUP1 REVERT JUMPDEST DUP2 MLOAD DUP6 PUSH1 0x20 DUP3 MUL DUP4 ADD GT PUSH5 0x100000000 DUP3 GT OR ISZERO PUSH2 0x1C88 JUMPI PUSH1 0x0 DUP1 REVERT JUMPDEST POP POP SWAP3 SWAP2 SWAP1 POP POP POP SWAP1 POP SWAP1 JUMP JUMPDEST PUSH1 0x0 DUP1 PUSH1 0x0 DUP1 PUSH1 0x66 PUSH1 0x0 CALLER PUSH20 0xFFFFFFFFFFFFFFFFFFFFFFFFFFFFFFFFFFFFFFFF AND PUSH20 0xFFFFFFFFFFFFFFFFFFFFFFFFFFFFFFFFFFFFFFFF AND DUP2 MSTORE PUSH1 0x20 ADD SWAP1 DUP2 MSTORE PUSH1 0x20 ADD PUSH1 0x0 KECCAK256 SLOAD EQ ISZERO ISZERO ISZERO PUSH2 0x1D51 JUMPI PUSH1 0x40 MLOAD PUSH32 0x8C379A000000000000000000000000000000000000000000000000000000000 DUP2 MSTORE PUSH1 0x4 ADD DUP1 DUP1 PUSH1 0x20 ADD DUP3 DUP2 SUB DUP3 MSTORE PUSH1 0x20 DUP2 MSTORE PUSH1 0x20 ADD DUP1 PUSH32 0x596F7520686176656E2774206372656174656420616E792041756374696F6E73 DUP2 MSTORE POP PUSH1 0x20 ADD SWAP2 POP POP PUSH1 0x40 MLOAD DUP1 SWAP2 SUB SWAP1 REVERT JUMPDEST PUSH1 0x1 PUSH1 0x66 PUSH1 0x0 CALLER PUSH20 0xFFFFFFFFFFFFFFFFFFFFFFFFFFFFFFFFFFFFFFFF AND PUSH20 0xFFFFFFFFFFFFFFFFFFFFFFFFFFFFFFFFFFFFFFFF AND DUP2 MSTORE PUSH1 0x20 ADD SWAP1 DUP2 MSTORE PUSH1 0x20 ADD PUSH1 0x0 KECCAK256 SLOAD PUSH1 0x65 DUP2 LT ISZERO ISZERO PUSH2 0x1D9F JUMPI INVALID JUMPDEST ADD PUSH1 0x0 SWAP1 SLOAD SWAP1 PUSH2 0x100 EXP SWAP1 DIV PUSH20 0xFFFFFFFFFFFFFFFFFFFFFFFFFFFFFFFFFFFFFFFF AND PUSH20 0xFFFFFFFFFFFFFFFFFFFFFFFFFFFFFFFFFFFFFFFF AND PUSH4 0xDD06BA1A PUSH1 0x40 MLOAD DUP2 PUSH4 0xFFFFFFFF AND PUSH29 0x100000000000000000000000000000000000000000000000000000000 MUL DUP2 MSTORE PUSH1 0x4 ADD PUSH1 0x20 PUSH1 0x40 MLOAD DUP1 DUP4 SUB DUP2 PUSH1 0x0 DUP8 DUP1 EXTCODESIZE ISZERO DUP1 ISZERO PUSH2 0x1E24 JUMPI PUSH1 0x0 DUP1 REVERT JUMPDEST POP GAS CALL ISZERO DUP1 ISZERO PUSH2 0x1E38 JUMPI RETURNDATASIZE PUSH1 0x0 DUP1 RETURNDATACOPY RETURNDATASIZE PUSH1 0x0 REVERT JUMPDEST POP POP POP POP PUSH1 0x40 MLOAD RETURNDATASIZE PUSH1 0x20 DUP2 LT ISZERO PUSH2 0x1E4E JUMPI PUSH1 0x0 DUP1 REVERT JUMPDEST DUP2 ADD SWAP1 DUP1 DUP1 MLOAD SWAP1 PUSH1 0x20 ADD SWAP1 SWAP3 SWAP2 SWAP1 POP POP POP SWAP2 POP PUSH1 0x1 PUSH1 0x66 PUSH1 0x0 CALLER PUSH20 0xFFFFFFFFFFFFFFFFFFFFFFFFFFFFFFFFFFFFFFFF AND PUSH20 0xFFFFFFFFFFFFFFFFFFFFFFFFFFFFFFFFFFFFFFFF AND DUP2 MSTORE PUSH1 0x20 ADD SWAP1 DUP2 MSTORE PUSH1 0x20 ADD PUSH1 0x0 KECCAK256 SLOAD PUSH1 0x65 DUP2 LT ISZERO ISZERO PUSH2 0x1EAF JUMPI INVALID JUMPDEST ADD PUSH1 0x0 SWAP1 SLOAD SWAP1 PUSH2 0x100 EXP SWAP1 DIV PUSH20 0xFFFFFFFFFFFFFFFFFFFFFFFFFFFFFFFFFFFFFFFF AND PUSH20 0xFFFFFFFFFFFFFFFFFFFFFFFFFFFFFFFFFFFFFFFF AND PUSH4 0xDEE37A8E DUP4 PUSH1 0x40 MLOAD DUP3 PUSH4 0xFFFFFFFF AND PUSH29 0x100000000000000000000000000000000000000000000000000000000 MUL DUP2 MSTORE PUSH1 0x4 ADD DUP1 DUP3 DUP2 MSTORE PUSH1 0x20 ADD SWAP2 POP POP PUSH1 0x20 PUSH1 0x40 MLOAD DUP1 DUP4 SUB DUP2 PUSH1 0x0 DUP8 DUP1 EXTCODESIZE ISZERO DUP1 ISZERO PUSH2 0x1F3F JUMPI PUSH1 0x0 DUP1 REVERT JUMPDEST POP GAS CALL ISZERO DUP1 ISZERO PUSH2 0x1F53 JUMPI RETURNDATASIZE PUSH1 0x0 DUP1 RETURNDATACOPY RETURNDATASIZE PUSH1 0x0 REVERT JUMPDEST POP POP POP POP PUSH1 0x40 MLOAD RETURNDATASIZE PUSH1 0x20 DUP2 LT ISZERO PUSH2 0x1F69 JUMPI PUSH1 0x0 DUP1 REVERT JUMPDEST DUP2 ADD SWAP1 DUP1 DUP1 MLOAD SWAP1 PUSH1 0x20 ADD SWAP1 SWAP3 SWAP2 SWAP1 POP POP POP SWAP1 POP DUP2 DUP2 PUSH20 0xFFFFFFFFFFFFFFFFFFFFFFFFFFFFFFFFFFFFFFFF AND PUSH32 0x6E0E2174DBF7B77C08B6F9A2799B9FEDA84A6D54A5644864582040100A47D4C5 PUSH1 0x40 MLOAD PUSH1 0x40 MLOAD DUP1 SWAP2 SUB SWAP1 LOG3 DUP1 SWAP3 POP POP POP SWAP1 JUMP JUMPDEST PUSH1 0x0 PUSH2 0x1FD5 DUP8 DUP8 DUP8 PUSH2 0x2026 JUMP JUMPDEST ISZERO PUSH2 0x2001 JUMPI PUSH1 0x18 DUP5 LT DUP1 ISZERO PUSH2 0x1FEA JUMPI POP PUSH1 0x3C DUP4 LT JUMPDEST DUP1 ISZERO PUSH2 0x1FF6 JUMPI POP PUSH1 0x3C DUP3 LT JUMPDEST ISZERO PUSH2 0x2000 JUMPI PUSH1 0x1 SWAP1 POP JUMPDEST JUMPDEST SWAP7 SWAP6 POP POP POP POP POP POP JUMP JUMPDEST PUSH1 0x0 PUSH3 0x15180 PUSH2 0x201C DUP6 DUP6 DUP6 PUSH2 0x207C JUMP JUMPDEST MUL SWAP1 POP SWAP4 SWAP3 POP POP POP JUMP JUMPDEST PUSH1 0x0 DUP1 PUSH2 0x7B2 DUP6 LT ISZERO DUP1 ISZERO PUSH2 0x203B JUMPI POP PUSH1 0x0 DUP5 GT JUMPDEST DUP1 ISZERO PUSH2 0x2048 JUMPI POP PUSH1 0xC DUP5 GT ISZERO JUMPDEST ISZERO PUSH2 0x2074 JUMPI PUSH2 0x2057 DUP6 DUP6 PUSH2 0x2139 JUMP JUMPDEST SWAP1 POP PUSH1 0x0 DUP4 GT DUP1 ISZERO PUSH2 0x2069 JUMPI POP DUP1 DUP4 GT ISZERO JUMPDEST ISZERO PUSH2 0x2073 JUMPI PUSH1 0x1 SWAP2 POP JUMPDEST JUMPDEST POP SWAP4 SWAP3 POP POP POP JUMP JUMPDEST PUSH1 0x0 DUP1 PUSH1 0x0 DUP1 PUSH1 0x0 PUSH2 0x7B2 DUP9 LT ISZERO ISZERO ISZERO PUSH2 0x2095 JUMPI PUSH1 0x0 DUP1 REVERT JUMPDEST DUP8 SWAP4 POP DUP7 SWAP3 POP DUP6 SWAP2 POP PUSH3 0x253D8C PUSH1 0x4 PUSH1 0x64 PUSH1 0xC PUSH1 0xE DUP8 SUB DUP2 ISZERO ISZERO PUSH2 0x20B5 JUMPI INVALID JUMPDEST SDIV PUSH2 0x1324 DUP9 ADD ADD DUP2 ISZERO ISZERO PUSH2 0x20C5 JUMPI INVALID JUMPDEST SDIV PUSH1 0x3 MUL DUP2 ISZERO ISZERO PUSH2 0x20D2 JUMPI INVALID JUMPDEST SDIV PUSH1 0xC DUP1 PUSH1 0xC PUSH1 0xE DUP9 SUB DUP2 ISZERO ISZERO PUSH2 0x20E5 JUMPI INVALID JUMPDEST SDIV MUL PUSH1 0x2 DUP8 SUB SUB PUSH2 0x16F MUL DUP2 ISZERO ISZERO PUSH2 0x20F9 JUMPI INVALID JUMPDEST SDIV PUSH1 0x4 PUSH1 0xC PUSH1 0xE DUP9 SUB DUP2 ISZERO ISZERO PUSH2 0x210B JUMPI INVALID JUMPDEST SDIV PUSH2 0x12C0 DUP10 ADD ADD PUSH2 0x5B5 MUL DUP2 ISZERO ISZERO PUSH2 0x211F JUMPI INVALID JUMPDEST SDIV PUSH2 0x7D4B DUP7 SUB ADD ADD SUB SUB SWAP1 POP DUP1 SWAP5 POP POP POP POP POP SWAP4 SWAP3 POP POP POP JUMP JUMPDEST PUSH1 0x0 PUSH1 0x1 DUP3 EQ DUP1 PUSH2 0x214A JUMPI POP PUSH1 0x3 DUP3 EQ JUMPDEST DUP1 PUSH2 0x2155 JUMPI POP PUSH1 0x5 DUP3 EQ JUMPDEST DUP1 PUSH2 0x2160 JUMPI POP PUSH1 0x7 DUP3 EQ JUMPDEST DUP1 PUSH2 0x216B JUMPI POP PUSH1 0x8 DUP3 EQ JUMPDEST DUP1 PUSH2 0x2176 JUMPI POP PUSH1 0xA DUP3 EQ JUMPDEST DUP1 PUSH2 0x2181 JUMPI POP PUSH1 0xC DUP3 EQ JUMPDEST ISZERO PUSH2 0x218F JUMPI PUSH1 0x1F SWAP1 POP PUSH2 0x21C0 JUMP JUMPDEST PUSH1 0x2 DUP3 EQ ISZERO ISZERO PUSH2 0x21A2 JUMPI PUSH1 0x1E SWAP1 POP PUSH2 0x21BF JUMP JUMPDEST PUSH2 0x21AB DUP4 PUSH2 0x21C6 JUMP JUMPDEST PUSH2 0x21B6 JUMPI PUSH1 0x1C PUSH2 0x21B9 JUMP JUMPDEST PUSH1 0x1D JUMPDEST PUSH1 0xFF AND SWAP1 POP JUMPDEST JUMPDEST SWAP3 SWAP2 POP POP JUMP JUMPDEST PUSH1 0x0 DUP1 PUSH1 0x4 DUP4 DUP2 ISZERO ISZERO PUSH2 0x21D5 JUMPI INVALID JUMPDEST MOD EQ DUP1 ISZERO PUSH2 0x21F0 JUMPI POP PUSH1 0x0 PUSH1 0x64 DUP4 DUP2 ISZERO ISZERO PUSH2 0x21EC JUMPI INVALID JUMPDEST MOD EQ ISZERO JUMPDEST DUP1 PUSH2 0x2208 JUMPI POP PUSH1 0x0 PUSH2 0x190 DUP4 DUP2 ISZERO ISZERO PUSH2 0x2205 JUMPI INVALID JUMPDEST MOD EQ JUMPDEST SWAP1 POP SWAP2 SWAP1 POP JUMP JUMPDEST PUSH1 0x40 MLOAD PUSH2 0xF14 DUP1 PUSH3 0x2221 DUP4 CODECOPY ADD SWAP1 JUMP STOP PUSH1 0x80 PUSH1 0x40 MSTORE CALLVALUE DUP1 ISZERO PUSH2 0x10 JUMPI PUSH1 0x0 DUP1 REVERT JUMPDEST POP PUSH1 0x40 MLOAD PUSH2 0xF14 CODESIZE SUB DUP1 PUSH2 0xF14 DUP4 CODECOPY DUP2 ADD DUP1 PUSH1 0x40 MSTORE DUP2 ADD SWAP1 DUP1 DUP1 MLOAD DUP3 ADD SWAP3 SWAP2 SWAP1 PUSH1 0x20 ADD DUP1 MLOAD SWAP1 PUSH1 0x20 ADD SWAP1 SWAP3 SWAP2 SWAP1 DUP1 MLOAD SWAP1 PUSH1 0x20 ADD SWAP1 SWAP3 SWAP2 SWAP1 DUP1 MLOAD SWAP1 PUSH1 0x20 ADD SWAP1 SWAP3 SWAP2 SWAP1 POP POP POP DUP4 PUSH1 0x0 SWAP1 DUP1 MLOAD SWAP1 PUSH1 0x20 ADD SWAP1 PUSH2 0x6A SWAP3 SWAP2 SWAP1 PUSH2 0x89 JUMP JUMPDEST POP DUP3 PUSH1 0x1 DUP2 SWAP1 SSTORE POP DUP2 PUSH1 0x2 DUP2 SWAP1 SSTORE POP DUP1 PUSH1 0x3 DUP2 SWAP1 SSTORE POP POP POP POP POP PUSH2 0x12E JUMP JUMPDEST DUP3 DUP1 SLOAD PUSH1 0x1 DUP2 PUSH1 0x1 AND ISZERO PUSH2 0x100 MUL SUB AND PUSH1 0x2 SWAP1 DIV SWAP1 PUSH1 0x0 MSTORE PUSH1 0x20 PUSH1 0x0 KECCAK256 SWAP1 PUSH1 0x1F ADD PUSH1 0x20 SWAP1 DIV DUP2 ADD SWAP3 DUP3 PUSH1 0x1F LT PUSH2 0xCA JUMPI DUP1 MLOAD PUSH1 0xFF NOT AND DUP4 DUP1 ADD OR DUP6 SSTORE PUSH2 0xF8 JUMP JUMPDEST DUP3 DUP1 ADD PUSH1 0x1 ADD DUP6 SSTORE DUP3 ISZERO PUSH2 0xF8 JUMPI SWAP2 DUP3 ADD JUMPDEST DUP3 DUP2 GT ISZERO PUSH2 0xF7 JUMPI DUP3 MLOAD DUP3 SSTORE SWAP2 PUSH1 0x20 ADD SWAP2 SWAP1 PUSH1 0x1 ADD SWAP1 PUSH2 0xDC JUMP JUMPDEST JUMPDEST POP SWAP1 POP PUSH2 0x105 SWAP2 SWAP1 PUSH2 0x109 JUMP JUMPDEST POP SWAP1 JUMP JUMPDEST PUSH2 0x12B SWAP2 SWAP1 JUMPDEST DUP1 DUP3 GT ISZERO PUSH2 0x127 JUMPI PUSH1 0x0 DUP2 PUSH1 0x0 SWAP1 SSTORE POP PUSH1 0x1 ADD PUSH2 0x10F JUMP JUMPDEST POP SWAP1 JUMP JUMPDEST SWAP1 JUMP JUMPDEST PUSH2 0xDD7 DUP1 PUSH2 0x13D PUSH1 0x0 CODECOPY PUSH1 0x0 RETURN STOP PUSH1 0x80 PUSH1 0x40 MSTORE PUSH1 0x4 CALLDATASIZE LT PUSH2 0x8E JUMPI PUSH1 0x0 CALLDATALOAD PUSH29 0x100000000000000000000000000000000000000000000000000000000 SWAP1 DIV PUSH4 0xFFFFFFFF AND DUP1 PUSH4 0x409766E6 EQ PUSH2 0x93 JUMPI DUP1 PUSH4 0x43129DE1 EQ PUSH2 0xC2 JUMPI DUP1 PUSH4 0x439F5AC2 EQ PUSH2 0xEF JUMPI DUP1 PUSH4 0x659DD2B4 EQ PUSH2 0x11A JUMPI DUP1 PUSH4 0x679DBF0C EQ PUSH2 0x147 JUMPI DUP1 PUSH4 0xAD934674 EQ PUSH2 0x1B3 JUMPI DUP1 PUSH4 0xDD06BA1A EQ PUSH2 0x1DE JUMPI DUP1 PUSH4 0xDEE37A8E EQ PUSH2 0x209 JUMPI JUMPDEST PUSH1 0x0 DUP1 REVERT JUMPDEST CALLVALUE DUP1 ISZERO PUSH2 0x9F JUMPI PUSH1 0x0 DUP1 REVERT JUMPDEST POP PUSH2 0xA8 PUSH2 0x276 JUMP JUMPDEST PUSH1 0x40 MLOAD DUP1 DUP3 ISZERO ISZERO ISZERO ISZERO DUP2 MSTORE PUSH1 0x20 ADD SWAP2 POP POP PUSH1 0x40 MLOAD DUP1 SWAP2 SUB SWAP1 RETURN JUMPDEST CALLVALUE DUP1 ISZERO PUSH2 0xCE JUMPI PUSH1 0x0 DUP1 REVERT JUMPDEST POP PUSH2 0xED PUSH1 0x4 DUP1 CALLDATASIZE SUB DUP2 ADD SWAP1 DUP1 DUP1 CALLDATALOAD SWAP1 PUSH1 0x20 ADD SWAP1 SWAP3 SWAP2 SWAP1 POP POP POP PUSH2 0x28D JUMP JUMPDEST STOP JUMPDEST CALLVALUE DUP1 ISZERO PUSH2 0xFB JUMPI PUSH1 0x0 DUP1 REVERT JUMPDEST POP PUSH2 0x104 PUSH2 0x4F2 JUMP JUMPDEST PUSH1 0x40 MLOAD DUP1 DUP3 DUP2 MSTORE PUSH1 0x20 ADD SWAP2 POP POP PUSH1 0x40 MLOAD DUP1 SWAP2 SUB SWAP1 RETURN JUMPDEST CALLVALUE DUP1 ISZERO PUSH2 0x126 JUMPI PUSH1 0x0 DUP1 REVERT JUMPDEST POP PUSH2 0x145 PUSH1 0x4 DUP1 CALLDATASIZE SUB DUP2 ADD SWAP1 DUP1 DUP1 CALLDATALOAD SWAP1 PUSH1 0x20 ADD SWAP1 SWAP3 SWAP2 SWAP1 POP POP POP PUSH2 0x4FC JUMP JUMPDEST STOP JUMPDEST CALLVALUE DUP1 ISZERO PUSH2 0x153 JUMPI PUSH1 0x0 DUP1 REVERT JUMPDEST POP PUSH2 0x15C PUSH2 0x7BB JUMP JUMPDEST PUSH1 0x40 MLOAD DUP1 DUP1 PUSH1 0x20 ADD DUP3 DUP2 SUB DUP3 MSTORE DUP4 DUP2 DUP2 MLOAD DUP2 MSTORE PUSH1 0x20 ADD SWAP2 POP DUP1 MLOAD SWAP1 PUSH1 0x20 ADD SWAP1 PUSH1 0x20 MUL DUP1 DUP4 DUP4 PUSH1 0x0 JUMPDEST DUP4 DUP2 LT ISZERO PUSH2 0x19F JUMPI DUP1 DUP3 ADD MLOAD DUP2 DUP5 ADD MSTORE PUSH1 0x20 DUP2 ADD SWAP1 POP PUSH2 0x184 JUMP JUMPDEST POP POP POP POP SWAP1 POP ADD SWAP3 POP POP POP PUSH1 0x40 MLOAD DUP1 SWAP2 SUB SWAP1 RETURN JUMPDEST CALLVALUE DUP1 ISZERO PUSH2 0x1BF JUMPI PUSH1 0x0 DUP1 REVERT JUMPDEST POP PUSH2 0x1C8 PUSH2 0x928 JUMP JUMPDEST PUSH1 0x40 MLOAD DUP1 DUP3 DUP2 MSTORE PUSH1 0x20 ADD SWAP2 POP POP PUSH1 0x40 MLOAD DUP1 SWAP2 SUB SWAP1 RETURN JUMPDEST CALLVALUE DUP1 ISZERO PUSH2 0x1EA JUMPI PUSH1 0x0 DUP1 REVERT JUMPDEST POP PUSH2 0x1F3 PUSH2 0x9AB JUMP JUMPDEST PUSH1 0x40 MLOAD DUP1 DUP3 DUP2 MSTORE PUSH1 0x20 ADD SWAP2 POP POP PUSH1 0x40 MLOAD DUP1 SWAP2 SUB SWAP1 RETURN JUMPDEST CALLVALUE DUP1 ISZERO PUSH2 0x215 JUMPI PUSH1 0x0 DUP1 REVERT JUMPDEST POP PUSH2 0x234 PUSH1 0x4 DUP1 CALLDATASIZE SUB DUP2 ADD SWAP1 DUP1 DUP1 CALLDATALOAD SWAP1 PUSH1 0x20 ADD SWAP1 SWAP3 SWAP2 SWAP1 POP POP POP PUSH2 0xAD4 JUMP JUMPDEST PUSH1 0x40 MLOAD DUP1 DUP3 PUSH20 0xFFFFFFFFFFFFFFFFFFFFFFFFFFFFFFFFFFFFFFFF AND PUSH20 0xFFFFFFFFFFFFFFFFFFFFFFFFFFFFFFFFFFFFFFFF AND DUP2 MSTORE PUSH1 0x20 ADD SWAP2 POP POP PUSH1 0x40 MLOAD DUP1 SWAP2 SUB SWAP1 RETURN JUMPDEST PUSH1 0x0 PUSH1 0x4 PUSH1 0x0 SWAP1 SLOAD SWAP1 PUSH2 0x100 EXP SWAP1 DIV PUSH1 0xFF AND SWAP1 POP SWAP1 JUMP JUMPDEST DUP1 PUSH1 0x3 SLOAD DUP2 GT ISZERO ISZERO PUSH2 0x353 JUMPI PUSH1 0x40 MLOAD PUSH32 0x8C379A000000000000000000000000000000000000000000000000000000000 DUP2 MSTORE PUSH1 0x4 ADD DUP1 DUP1 PUSH1 0x20 ADD DUP3 DUP2 SUB DUP3 MSTORE PUSH1 0x45 DUP2 MSTORE PUSH1 0x20 ADD DUP1 PUSH32 0x506C6561736520656E7465722061206269642067726561746572207468616E20 DUP2 MSTORE PUSH1 0x20 ADD PUSH32 0x6D696E696D756D20726571756972656420626964206F6620676976656E206175 DUP2 MSTORE PUSH1 0x20 ADD PUSH32 0x6374696F6E000000000000000000000000000000000000000000000000000000 DUP2 MSTORE POP PUSH1 0x60 ADD SWAP2 POP POP PUSH1 0x40 MLOAD DUP1 SWAP2 SUB SWAP1 REVERT JUMPDEST PUSH1 0x2 SLOAD TIMESTAMP LT ISZERO ISZERO PUSH2 0x3CC JUMPI PUSH1 0x40 MLOAD PUSH32 0x8C379A000000000000000000000000000000000000000000000000000000000 DUP2 MSTORE PUSH1 0x4 ADD DUP1 DUP1 PUSH1 0x20 ADD DUP3 DUP2 SUB DUP3 MSTORE PUSH1 0x14 DUP2 MSTORE PUSH1 0x20 ADD DUP1 PUSH32 0x41756374696F6E20697320496E61637469766520000000000000000000000000 DUP2 MSTORE POP PUSH1 0x20 ADD SWAP2 POP POP PUSH1 0x40 MLOAD DUP1 SWAP2 SUB SWAP1 REVERT JUMPDEST PUSH1 0x0 PUSH1 0x5 PUSH1 0x0 ORIGIN PUSH20 0xFFFFFFFFFFFFFFFFFFFFFFFFFFFFFFFFFFFFFFFF AND PUSH20 0xFFFFFFFFFFFFFFFFFFFFFFFFFFFFFFFFFFFFFFFF AND DUP2 MSTORE PUSH1 0x20 ADD SWAP1 DUP2 MSTORE PUSH1 0x20 ADD PUSH1 0x0 KECCAK256 SLOAD EQ ISZERO ISZERO ISZERO PUSH2 0x4AA JUMPI PUSH1 0x40 MLOAD PUSH32 0x8C379A000000000000000000000000000000000000000000000000000000000 DUP2 MSTORE PUSH1 0x4 ADD DUP1 DUP1 PUSH1 0x20 ADD DUP3 DUP2 SUB DUP3 MSTORE PUSH1 0x3B DUP2 MSTORE PUSH1 0x20 ADD DUP1 PUSH32 0x596F7520686176656E2774206372656174656420616E79206269642C20757365 DUP2 MSTORE PUSH1 0x20 ADD PUSH32 0x2063726561746542696420666F72206372656174696E67206F6E650000000000 DUP2 MSTORE POP PUSH1 0x40 ADD SWAP2 POP POP PUSH1 0x40 MLOAD DUP1 SWAP2 SUB SWAP1 REVERT JUMPDEST DUP2 PUSH1 0x5 PUSH1 0x0 ORIGIN PUSH20 0xFFFFFFFFFFFFFFFFFFFFFFFFFFFFFFFFFFFFFFFF AND PUSH20 0xFFFFFFFFFFFFFFFFFFFFFFFFFFFFFFFFFFFFFFFF AND DUP2 MSTORE PUSH1 0x20 ADD SWAP1 DUP2 MSTORE PUSH1 0x20 ADD PUSH1 0x0 KECCAK256 DUP2 SWAP1 SSTORE POP POP POP JUMP JUMPDEST PUSH1 0x0 PUSH1 0x2 SLOAD SWAP1 POP SWAP1 JUMP JUMPDEST DUP1 PUSH1 0x3 SLOAD DUP2 GT ISZERO ISZERO PUSH2 0x5C2 JUMPI PUSH1 0x40 MLOAD PUSH32 0x8C379A000000000000000000000000000000000000000000000000000000000 DUP2 MSTORE PUSH1 0x4 ADD DUP1 DUP1 PUSH1 0x20 ADD DUP3 DUP2 SUB DUP3 MSTORE PUSH1 0x45 DUP2 MSTORE PUSH1 0x20 ADD DUP1 PUSH32 0x506C6561736520656E7465722061206269642067726561746572207468616E20 DUP2 MSTORE PUSH1 0x20 ADD PUSH32 0x6D696E696D756D20726571756972656420626964206F6620676976656E206175 DUP2 MSTORE PUSH1 0x20 ADD PUSH32 0x6374696F6E000000000000000000000000000000000000000000000000000000 DUP2 MSTORE POP PUSH1 0x60 ADD SWAP2 POP POP PUSH1 0x40 MLOAD DUP1 SWAP2 SUB SWAP1 REVERT JUMPDEST PUSH1 0x2 SLOAD TIMESTAMP LT ISZERO ISZERO PUSH2 0x63B JUMPI PUSH1 0x40 MLOAD PUSH32 0x8C379A000000000000000000000000000000000000000000000000000000000 DUP2 MSTORE PUSH1 0x4 ADD DUP1 DUP1 PUSH1 0x20 ADD DUP3 DUP2 SUB DUP3 MSTORE PUSH1 0x14 DUP2 MSTORE PUSH1 0x20 ADD DUP1 PUSH32 0x41756374696F6E20697320496E61637469766520000000000000000000000000 DUP2 MSTORE POP PUSH1 0x20 ADD SWAP2 POP POP PUSH1 0x40 MLOAD DUP1 SWAP2 SUB SWAP1 REVERT JUMPDEST PUSH1 0x0 PUSH1 0x5 PUSH1 0x0 ORIGIN PUSH20 0xFFFFFFFFFFFFFFFFFFFFFFFFFFFFFFFFFFFFFFFF AND PUSH20 0xFFFFFFFFFFFFFFFFFFFFFFFFFFFFFFFFFFFFFFFF AND DUP2 MSTORE PUSH1 0x20 ADD SWAP1 DUP2 MSTORE PUSH1 0x20 ADD PUSH1 0x0 KECCAK256 SLOAD EQ ISZERO ISZERO PUSH2 0x6F2 JUMPI PUSH1 0x40 MLOAD PUSH32 0x8C379A000000000000000000000000000000000000000000000000000000000 DUP2 MSTORE PUSH1 0x4 ADD DUP1 DUP1 PUSH1 0x20 ADD DUP3 DUP2 SUB DUP3 MSTORE PUSH1 0x1E DUP2 MSTORE PUSH1 0x20 ADD DUP1 PUSH32 0x596F75206861766520616C726561647920637265617465642061206269640000 DUP2 MSTORE POP PUSH1 0x20 ADD SWAP2 POP POP PUSH1 0x40 MLOAD DUP1 SWAP2 SUB SWAP1 REVERT JUMPDEST PUSH1 0x1 PUSH1 0x4 PUSH1 0x0 PUSH2 0x100 EXP DUP2 SLOAD DUP2 PUSH1 0xFF MUL NOT AND SWAP1 DUP4 ISZERO ISZERO MUL OR SWAP1 SSTORE POP DUP2 PUSH1 0x5 PUSH1 0x0 ORIGIN PUSH20 0xFFFFFFFFFFFFFFFFFFFFFFFFFFFFFFFFFFFFFFFF AND PUSH20 0xFFFFFFFFFFFFFFFFFFFFFFFFFFFFFFFFFFFFFFFF AND DUP2 MSTORE PUSH1 0x20 ADD SWAP1 DUP2 MSTORE PUSH1 0x20 ADD PUSH1 0x0 KECCAK256 DUP2 SWAP1 SSTORE POP PUSH1 0x6 ORIGIN SWAP1 DUP1 PUSH1 0x1 DUP2 SLOAD ADD DUP1 DUP3 SSTORE DUP1 SWAP2 POP POP SWAP1 PUSH1 0x1 DUP3 SUB SWAP1 PUSH1 0x0 MSTORE PUSH1 0x20 PUSH1 0x0 KECCAK256 ADD PUSH1 0x0 SWAP1 SWAP2 SWAP3 SWAP1 SWAP2 SWAP1 SWAP2 PUSH2 0x100 EXP DUP2 SLOAD DUP2 PUSH20 0xFFFFFFFFFFFFFFFFFFFFFFFFFFFFFFFFFFFFFFFF MUL NOT AND SWAP1 DUP4 PUSH20 0xFFFFFFFFFFFFFFFFFFFFFFFFFFFFFFFFFFFFFFFF AND MUL OR SWAP1 SSTORE POP POP POP POP JUMP JUMPDEST PUSH1 0x60 DUP1 PUSH1 0x0 PUSH1 0x2 SLOAD TIMESTAMP LT ISZERO ISZERO PUSH2 0x839 JUMPI PUSH1 0x40 MLOAD PUSH32 0x8C379A000000000000000000000000000000000000000000000000000000000 DUP2 MSTORE PUSH1 0x4 ADD DUP1 DUP1 PUSH1 0x20 ADD DUP3 DUP2 SUB DUP3 MSTORE PUSH1 0x14 DUP2 MSTORE PUSH1 0x20 ADD DUP1 PUSH32 0x41756374696F6E20697320496E61637469766520000000000000000000000000 DUP2 MSTORE POP PUSH1 0x20 ADD SWAP2 POP POP PUSH1 0x40 MLOAD DUP1 SWAP2 SUB SWAP1 REVERT JUMPDEST PUSH1 0x6 DUP1 SLOAD SWAP1 POP PUSH1 0x40 MLOAD SWAP1 DUP1 DUP3 MSTORE DUP1 PUSH1 0x20 MUL PUSH1 0x20 ADD DUP3 ADD PUSH1 0x40 MSTORE DUP1 ISZERO PUSH2 0x86D JUMPI DUP2 PUSH1 0x20 ADD PUSH1 0x20 DUP3 MUL DUP1 CODESIZE DUP4 CODECOPY DUP1 DUP3 ADD SWAP2 POP POP SWAP1 POP JUMPDEST POP SWAP2 POP JUMPDEST PUSH1 0x6 DUP1 SLOAD SWAP1 POP DUP2 LT ISZERO PUSH2 0x920 JUMPI PUSH1 0x5 PUSH1 0x0 PUSH1 0x6 DUP4 DUP2 SLOAD DUP2 LT ISZERO ISZERO PUSH2 0x891 JUMPI INVALID JUMPDEST SWAP1 PUSH1 0x0 MSTORE PUSH1 0x20 PUSH1 0x0 KECCAK256 ADD PUSH1 0x0 SWAP1 SLOAD SWAP1 PUSH2 0x100 EXP SWAP1 DIV PUSH20 0xFFFFFFFFFFFFFFFFFFFFFFFFFFFFFFFFFFFFFFFF AND PUSH20 0xFFFFFFFFFFFFFFFFFFFFFFFFFFFFFFFFFFFFFFFF AND PUSH20 0xFFFFFFFFFFFFFFFFFFFFFFFFFFFFFFFFFFFFFFFF AND DUP2 MSTORE PUSH1 0x20 ADD SWAP1 DUP2 MSTORE PUSH1 0x20 ADD PUSH1 0x0 KECCAK256 SLOAD DUP3 DUP3 DUP2 MLOAD DUP2 LT ISZERO ISZERO PUSH2 0x905 JUMPI INVALID JUMPDEST SWAP1 PUSH1 0x20 ADD SWAP1 PUSH1 0x20 MUL ADD DUP2 DUP2 MSTORE POP POP DUP1 DUP1 PUSH1 0x1 ADD SWAP2 POP POP PUSH2 0x871 JUMP JUMPDEST DUP2 SWAP3 POP POP POP SWAP1 JUMP JUMPDEST PUSH1 0x0 PUSH1 0x2 SLOAD TIMESTAMP LT ISZERO ISZERO PUSH2 0x9A3 JUMPI PUSH1 0x40 MLOAD PUSH32 0x8C379A000000000000000000000000000000000000000000000000000000000 DUP2 MSTORE PUSH1 0x4 ADD DUP1 DUP1 PUSH1 0x20 ADD DUP3 DUP2 SUB DUP3 MSTORE PUSH1 0x14 DUP2 MSTORE PUSH1 0x20 ADD DUP1 PUSH32 0x41756374696F6E20697320496E61637469766520000000000000000000000000 DUP2 MSTORE POP PUSH1 0x20 ADD SWAP2 POP POP PUSH1 0x40 MLOAD DUP1 SWAP2 SUB SWAP1 REVERT JUMPDEST PUSH1 0x3 SLOAD SWAP1 POP SWAP1 JUMP JUMPDEST PUSH1 0x0 DUP1 PUSH1 0x0 PUSH1 0x2 SLOAD TIMESTAMP LT ISZERO ISZERO PUSH2 0xA29 JUMPI PUSH1 0x40 MLOAD PUSH32 0x8C379A000000000000000000000000000000000000000000000000000000000 DUP2 MSTORE PUSH1 0x4 ADD DUP1 DUP1 PUSH1 0x20 ADD DUP3 DUP2 SUB DUP3 MSTORE PUSH1 0x14 DUP2 MSTORE PUSH1 0x20 ADD DUP1 PUSH32 0x41756374696F6E20697320496E61637469766520000000000000000000000000 DUP2 MSTORE POP PUSH1 0x20 ADD SWAP2 POP POP PUSH1 0x40 MLOAD DUP1 SWAP2 SUB SWAP1 REVERT JUMPDEST PUSH1 0x0 SWAP2 POP JUMPDEST PUSH1 0x6 DUP1 SLOAD SWAP1 POP DUP2 LT ISZERO PUSH2 0xACC JUMPI PUSH2 0xABD PUSH1 0x5 PUSH1 0x0 PUSH1 0x6 DUP5 DUP2 SLOAD DUP2 LT ISZERO ISZERO PUSH2 0xA51 JUMPI INVALID JUMPDEST SWAP1 PUSH1 0x0 MSTORE PUSH1 0x20 PUSH1 0x0 KECCAK256 ADD PUSH1 0x0 SWAP1 SLOAD SWAP1 PUSH2 0x100 EXP SWAP1 DIV PUSH20 0xFFFFFFFFFFFFFFFFFFFFFFFFFFFFFFFFFFFFFFFF AND PUSH20 0xFFFFFFFFFFFFFFFFFFFFFFFFFFFFFFFFFFFFFFFF AND PUSH20 0xFFFFFFFFFFFFFFFFFFFFFFFFFFFFFFFFFFFFFFFF AND DUP2 MSTORE PUSH1 0x20 ADD SWAP1 DUP2 MSTORE PUSH1 0x20 ADD PUSH1 0x0 KECCAK256 SLOAD DUP4 PUSH2 0xD91 JUMP JUMPDEST SWAP2 POP DUP1 DUP1 PUSH1 0x1 ADD SWAP2 POP POP PUSH2 0xA2E JUMP JUMPDEST DUP2 SWAP3 POP POP POP SWAP1 JUMP JUMPDEST PUSH1 0x0 DUP1 PUSH1 0x0 PUSH1 0x2 SLOAD TIMESTAMP LT ISZERO ISZERO PUSH2 0xB52 JUMPI PUSH1 0x40 MLOAD PUSH32 0x8C379A000000000000000000000000000000000000000000000000000000000 DUP2 MSTORE PUSH1 0x4 ADD DUP1 DUP1 PUSH1 0x20 ADD DUP3 DUP2 SUB DUP3 MSTORE PUSH1 0x14 DUP2 MSTORE PUSH1 0x20 ADD DUP1 PUSH32 0x41756374696F6E20697320496E61637469766520000000000000000000000000 DUP2 MSTORE POP PUSH1 0x20 ADD SWAP2 POP POP PUSH1 0x40 MLOAD DUP1 SWAP2 SUB SWAP1 REVERT JUMPDEST PUSH1 0x0 PUSH1 0x6 DUP1 SLOAD SWAP1 POP SWAP1 POP PUSH1 0x0 DUP2 GT ISZERO ISZERO PUSH2 0xBFA JUMPI PUSH1 0x40 MLOAD PUSH32 0x8C379A000000000000000000000000000000000000000000000000000000000 DUP2 MSTORE PUSH1 0x4 ADD DUP1 DUP1 PUSH1 0x20 ADD DUP3 DUP2 SUB DUP3 MSTORE PUSH1 0x27 DUP2 MSTORE PUSH1 0x20 ADD DUP1 PUSH32 0x43616E277420656E64206173206E6F20626964732068617665206265656E206D DUP2 MSTORE PUSH1 0x20 ADD PUSH32 0x6164652079657400000000000000000000000000000000000000000000000000 DUP2 MSTORE POP PUSH1 0x40 ADD SWAP2 POP POP PUSH1 0x40 MLOAD DUP1 SWAP2 SUB SWAP1 REVERT JUMPDEST TIMESTAMP PUSH1 0x2 DUP2 SWAP1 SSTORE POP PUSH1 0x0 SWAP2 POP JUMPDEST PUSH1 0x6 DUP1 SLOAD SWAP1 POP DUP3 LT ISZERO PUSH2 0xCE1 JUMPI DUP5 PUSH1 0x5 PUSH1 0x0 PUSH1 0x6 DUP6 DUP2 SLOAD DUP2 LT ISZERO ISZERO PUSH2 0xC27 JUMPI INVALID JUMPDEST SWAP1 PUSH1 0x0 MSTORE PUSH1 0x20 PUSH1 0x0 KECCAK256 ADD PUSH1 0x0 SWAP1 SLOAD SWAP1 PUSH2 0x100 EXP SWAP1 DIV PUSH20 0xFFFFFFFFFFFFFFFFFFFFFFFFFFFFFFFFFFFFFFFF AND PUSH20 0xFFFFFFFFFFFFFFFFFFFFFFFFFFFFFFFFFFFFFFFF AND PUSH20 0xFFFFFFFFFFFFFFFFFFFFFFFFFFFFFFFFFFFFFFFF AND DUP2 MSTORE PUSH1 0x20 ADD SWAP1 DUP2 MSTORE PUSH1 0x20 ADD PUSH1 0x0 KECCAK256 SLOAD EQ ISZERO PUSH2 0xCD4 JUMPI PUSH1 0x6 DUP3 DUP2 SLOAD DUP2 LT ISZERO ISZERO PUSH2 0xCA2 JUMPI INVALID JUMPDEST SWAP1 PUSH1 0x0 MSTORE PUSH1 0x20 PUSH1 0x0 KECCAK256 ADD PUSH1 0x0 SWAP1 SLOAD SWAP1 PUSH2 0x100 EXP SWAP1 DIV PUSH20 0xFFFFFFFFFFFFFFFFFFFFFFFFFFFFFFFFFFFFFFFF AND SWAP3 POP PUSH2 0xCE1 JUMP JUMPDEST DUP2 DUP1 PUSH1 0x1 ADD SWAP3 POP POP PUSH2 0xC06 JUMP JUMPDEST PUSH1 0x0 PUSH20 0xFFFFFFFFFFFFFFFFFFFFFFFFFFFFFFFFFFFFFFFF AND DUP4 PUSH20 0xFFFFFFFFFFFFFFFFFFFFFFFFFFFFFFFFFFFFFFFF AND EQ ISZERO ISZERO ISZERO PUSH2 0xD86 JUMPI PUSH1 0x40 MLOAD PUSH32 0x8C379A000000000000000000000000000000000000000000000000000000000 DUP2 MSTORE PUSH1 0x4 ADD DUP1 DUP1 PUSH1 0x20 ADD DUP3 DUP2 SUB DUP3 MSTORE PUSH1 0x1A DUP2 MSTORE PUSH1 0x20 ADD DUP1 PUSH32 0x546869732062696420686173206E6F74206265656E206D616465000000000000 DUP2 MSTORE POP PUSH1 0x20 ADD SWAP2 POP POP PUSH1 0x40 MLOAD DUP1 SWAP2 SUB SWAP1 REVERT JUMPDEST DUP3 SWAP4 POP POP POP POP SWAP2 SWAP1 POP JUMP JUMPDEST PUSH1 0x0 DUP2 DUP4 LT ISZERO PUSH2 0xDA1 JUMPI DUP2 PUSH2 0xDA3 JUMP JUMPDEST DUP3 JUMPDEST SWAP1 POP SWAP3 SWAP2 POP POP JUMP STOP LOG1 PUSH6 0x627A7A723058 KECCAK256 PUSH32 0x62320ABA502FF94DA3446BC7475AACCA121B77504EE869E2D74E2033A9B43800 0x29 LOG1 PUSH6 0x627A7A723058 KECCAK256 SWAP11 0xdf ADD DUP7 0xda XOR 0xac 0xd7 CREATE2 0xe9 PUSH21 0x4B9B264B12BBE125255C51402E759C29D0FA865D5 STOP 0x29 "
				},
				"gasEstimates": {
					"creation": {
						"codeDepositCost": "2528000",
						"executionCost": "7731",
						"totalCost": "2535731"
					},
					"external": {
						"aucId()": "394",
						"bidOnAuction(uint256,uint256)": "infinite",
						"createAuction(string,uint256,uint256,uint256,uint256,uint256,uint256,uint256)": "infinite",
						"endAuction()": "infinite",
						"endAuction(uint256)": "infinite",
						"getListOfBidsOnAuction()": "infinite",
						"getListOfOwnBids()": "infinite",
						"getMaxBid()": "infinite",
						"getMaxBid(uint256)": "infinite",
						"updateBid(uint256,uint256)": "infinite"
					}
				},
				"methodIdentifiers": {
					"aucId()": "25c0cdaa",
					"bidOnAuction(uint256,uint256)": "9f635120",
					"createAuction(string,uint256,uint256,uint256,uint256,uint256,uint256,uint256)": "e3a57e65",
					"endAuction()": "fe67a54b",
					"endAuction(uint256)": "b9a2de3a",
					"getListOfBidsOnAuction()": "f2f58fcf",
					"getListOfOwnBids()": "d1fda965",
					"getMaxBid()": "7e12a251",
					"getMaxBid(uint256)": "617fbce9",
					"updateBid(uint256,uint256)": "60365e0c"
				}
			},
			"userdoc": {
				"methods": {}
			}
		}
	}
}